:020000040000FA
:1000000060200020150400001D0400001F040000F3
:10001000210400002304000025040000000000006B
:1000200000000000000000000000000027040000A5
:1000300029040000000000002B0400002D04000033
:10004000A50400002F0400005D0700002F0400003D
:100050002F0400002F0400002F0400002F040000D4
:100060002F0400002F0400002F0400002F040000C4
:100070002F0400002F0400002F0400002F040000B4
:100080002F040000F50400002F0400002F040000DE
:10009000290500002F0400002F0400002F04000099
:1000A0002F0400002F0400002F0400002F04000084
:1000B0002F0400002F0400000000000000000000DA
:1000C0002F0400002F0400002F0400002F04000064
:1000D0002F0400002F0400002F0400000000000087
:1000E0000000000000000000000000000000000010
:1000F0000000000000000000000000000000000000
:1001000000000000000000000000000000000000EF
:1001100000000000000000000000000000000000DF
:10040000DFF80CD000F018F800480047D10C0000CD
:10041000602000200648804706480047FEE7FEE7C8
:10042000FEE7FEE7FEE7FEE7FEE7FEE7FEE7FEE7A4
:100430004105000001040000064C074D06E0E0689D
:1004400040F0010394E8070098471034AC42F6D31B
:10045000FFF7DAFFBC140000DC14000000F01F02FC
:1004600001219140024A430942F8231070470000DD
:1004700080E200E000F01F02012191404209920059
:1004800002F1E022C2F800117047000000F01F02E4
:1004900001219140024A430942F8231070470000AD
:1004A00000E200E010B54FF4807000F03BFC60B15A
:1004B0004FF4807000F03FFC012000F045FC01206B
:1004C0000B494870002000F08FF94FF4827000F063
:1004D00029FC58B14FF4827000F02DFC022000F08E
:1004E00033FC01200249887000F07EF910BD000045
:1004F0002800002010B500200949086000210948A3
:10050000C0F84411C0F84811C0F84C11002005494A
:10051000C1F8000102493C39086000F033FE10BD0B
:10052000401101400010014010B500F091FD10BDD8
:1005300001480249086070470090D0030000002085
:1005400010B500F00DFA10B176487749486700F011
:100550001FFA28B175480068C0F34230744908603A
:1005600000F040FA28B17348006820F080707149AB
:10057000086000F04FFA48B100206F4908604FF062
:100580008041C1F810016A49091F086000F06CFA47
:1005900018B1032066496431086000F07DFA68B143
:1005A0000520664908600120644978310860002010
:1005B0006249083108603F20091F086000F084FA92
:1005C000002855D05E4800685E4908605C48001D00
:1005D0000068091D08605A4808300068091D086055
:1005E00057480C300068091D0860554810300068F5
:1005F000091D0860524814300068091D0860504801
:10060000183000684F49203108604D481C300068A0
:10061000091D08604A4820300068091D08604848E4
:1006200024300068091D0860454828300068091D0D
:10063000086043482C300068091D0860404830308D
:1006400000684049403108603D4834300068091D69
:1006500008603B4838300068091D086038483C3065
:100660000068091D0860364840300068091D0860B0
:1006700000F04CF930B12D481430006800F04F0004
:10068000314908602B487438006840F470002949EB
:1006900074390860BFF34F8FBFF36F8F2B4800682A
:1006A00000F0004028B92948001D006800F0004013
:1006B00098B301202649086000BF2648006800283A
:1006C000FBD015202149086000BF2248006800289F
:1006D000FBD015211D48001D016000BF1D480068AA
:1006E0000028FBD000201A49086000BF19480068A4
:1006F0000028FBD000BFBFF34F8F0E48F0380068D2
:1007000000F4E06014490843001D0A49F03908600C
:10071000BFF34F8F00BF00BFFEE7FFE7FFF708FF03
:1007200010BD00000DF0ADBA00C00740440200103B
:100730003C050040FCED00E00C010040105600407C
:100740000404001020C50040E40E00400012001018
:1007500004E5014000E401400000FA0510B5064838
:10076000007F20B10449054800F022FE03E0024961
:10077000024800F07CFD10BD3C000020002000403D
:1007800002E008C8121F08C1002AFAD1704770475A
:10079000002001E001C1121F002AFBD170470000B8
:1007A00000BFBFF34F8F0748006800F4E0600649C0
:1007B0000843001D03490860BFF34F8F00BF00BF0F
:1007C000FEE700000CED00E00000FA053EB504462F
:1007D000002000900190029002946A46002144F2A9
:1007E0000100FFF7DDFF3EBD70B505460DB9094CB0
:1007F00001E0084C083409E0204600F0A9F906465B
:1008000006B904E028467168884700BFF4E700BFD6
:1008100070BD0000300000202DE9F04782461F48DF
:100820000068002836D01D480068056800F070FB9D
:1008300007461B4804682146384600F0E7FBC61C03
:100840001848007808B900F069FBAE4201D228468A
:1008500000E03046044424F07F44204600F052FB80
:1008600000F056FB80463946404600F0CFFB00F1D1
:1008700003093946204600F0C9FB814509D900F03B
:1008800047FB814600F03EFB2F2000F0B1FA00F05C
:10089000C5FC01E000F060FBBDE8F0870C00002023
:1008A0001000002024000020014614480078144A5B
:1008B000127890421DD011480078401C0F4A1070E9
:1008C00010460078022801D1002010700D480B4A14
:1008D000127850F8220008600B4A08681268104429
:1008E000094A10601046006820F07F401060012027
:1008F00070470020086000BFFAE700001C000020DD
:100900001D00002014000020100000201348007873
:10091000062820D11148001D007800F00F00D0B942
:100920000E480830007800F0F000302801D1012096
:1009300070470A480830007800F0F000402801D1E4
:100940000120F5E705480830007800F0F000502855
:1009500001D10120ECE70020EAE70000E00F00F001
:100960000A48007806280ED10848001D007800F0DB
:100970000F0040B905480830007800F0F00030283A
:1009800001D1012070470020FCE70000E00F00F0DB
:1009900013480078062820D11148001D007800F087
:1009A0000F00D0B90E480830007800F0F000302871
:1009B00001D1012070470A480830007800F0F000AB
:1009C000402801D10120F5E705480830007800F003
:1009D000F000502801D10120ECE70020EAE70000F8
:1009E000E00F00F00A48007806280ED10848001DE4
:1009F000007800F00F0040B905480830007800F09A
:100A0000F000302801D1012070470020FCE70000F1
:100A1000E00F00F013480078062820D11148001D8F
:100A2000007800F00F00D0B90E480830007800F0D0
:100A3000F000302801D1012070470A4808300078C2
:100A400000F0F000402801D10120F5E7054808300A
:100A5000007800F0F000502801D10120ECE70020E0
:100A6000EAE70000E00F00F00A48007806280ED1FF
:100A70000848001D007800F00F0040B90548083014
:100A8000007800F0F000302801D1012070470020EC
:100A9000FCE70000E00F00F00A48007806280ED1BD
:100AA0000848001D007800F00F0040B905480830E4
:100AB000007800F0F000302801D1012070470020BC
:100AC000FCE70000E00F00F00A48007806280ED18D
:100AD0000848001D007800F00F0040B905480830B4
:100AE000007800F0F000502801D10120704700206C
:100AF000FCE70000E00F00F0F0B5034600241FE023
:100B0000124E306806689E4203D90668F61A0660DF
:100B10001AE006689B1B06683444002606600B4EEC
:100B200035680A4FC6693E60C66846B10E1926F0A0
:100B30007F464660C66886601668C661156000BF5D
:100B4000024800680028DBD100BFF0BD0C00002087
:100B50000146086808B102680A60704770B51C4811
:100B600004781C48066827E01948406804EB4401F3
:100B700000EBC105601CC4B215488078A04200D1CA
:100B800000242878022802D0032812D103E06868E4
:100B900000F0C2FA0EE007E00E4908680021017477
:100BA0000C4AC169116000BF0A4800680028F3D1EF
:100BB00000E000BF00BF00BF05484078A042D3D18D
:100BC00004480068B04201D0012070BD0020FCE75D
:100BD000040000200C0000202DE9F04105463748B4
:100BE00007685AE015B12C46E56929E0344949689F
:100BF000334A127802EB420201EBC2003049097815
:100C0000491C2F4A1170114609789278914202D1FD
:100C100000212B4A117044680178012901D1217CFF
:100C200001B13AE081686160C168A1600169E16079
:100C30004169A1612349097809B10021616000BFC0
:100C4000214960680968401A20F07F401F498842A6
:100C500008D21D496068096800F0D8F9A168084405
:100C600020600FE018486168006800F0CFF9064680
:100C7000A068B04203D9A068801B206001E000207A
:100C8000206000BF00206060A06001202074002070
:100C9000E061204600F00CFA00BF002DA2D1084808
:100CA00000780749497888429CD104480068B842D6
:100CB00002D00120BDE8F0810020FBE70C000020FD
:100CC000040000202500002010000020FFFF7F000E
:100CD00001201149086010496039086000200F495F
:100CE000086001208107886000BF0C480068002868
:100CF000FBD04FF400300A490860094910390860F8
:100D000008E04FF4FA74610014FB01F000F022F8DF
:100D100000BF00BFF5E70000780500400401004077
:100D20001405005001464FF08040405808B10120A2
:100D300070470020FCE708B500224FF080410A50C0
:100D40000958009100BF08BD0149086070470000C4
:100D50000803004000B9704700BF00BF00BF00BFDC
:100D600000BF00BF00BF00BF00BF1F4909681F4A86
:100D7000914200D130E000BF00BF00BF00BF00BF04
:100D800000BF00BF00BF00BF00BF00BF00BF00BF6B
:100D900000BF00BF00BF00BF00BF00BF00BF00BF5B
:100DA00000BF00BF00BF00BF00BF00BF00BF00BF4B
:100DB00000BF00BF00BF00BF00BF00BF00BF00BF3B
:100DC00000BF00BF00BF00BF00BF00BF00BF00BF2B
:100DD00000BF00BF00BF00BF01460139084600D078
:100DE000BBE700BFB7E70000000000200024F400CC
:100DF00000B9704700BF00BF00BF00BF00BF00BF09
:100E000000BF00BF00BF1F4909681F4A914200D1BF
:100E100030E000BF00BF00BF00BF00BF00BF00BF89
:100E200000BF00BF00BF00BF00BF00BF00BF00BFCA
:100E300000BF00BF00BF00BF00BF00BF00BF00BFBA
:100E400000BF00BF00BF00BF00BF00BF00BF00BFAA
:100E500000BF00BF00BF00BF00BF00BF00BF00BF9A
:100E600000BF00BF00BF00BF00BF00BF00BF00BF8A
:100E700000BF00BF01460139084600D0BBE700BFF4
:100E8000B7E70000000000200024F4000146D1F87C
:100E90008004C1F8800470470246505808B1012010
:100EA00070470020FCE708B50022425042580092EB
:100EB00000BF08BDC0F8081370470246D2F804030B
:100EC000084008B1012070470020FCE70122425091
:100ED00070470146D1F88004C1F88004704702468B
:100EE000505808B1012070470020FCE708B50022E7
:100EF00042504258009200BF08BD014640F23C50AB
:100F00004058704701490860704700004015014093
:100F100001480068704700000415014010B54FF407
:100F200080300A4908600A49C1F804031120FFF71C
:100F300095FA1120FFF79EFA0120054908602F203D
:100F4000FFF756FF01200349087010BD441301400C
:100F5000001001402400002010B511200121814023
:100F60000E4A430942F8231000BF4FF480300C4969
:100F700008600C49C1F80803012048602F20FFF7E2
:100F800037FF0120074988600020074908602F20AB
:100F9000FFF72EFF00200549087010BD80E100E03A
:100FA00048130140001001401000002024000020E0
:100FB00070B505460C46E07D40B94FF48471284673
:100FC000FFF771FF00BFD5F8180570BD4FF48471AD
:100FD0002846FFF768FF00BFD5F81805C0B2627E4B
:100FE000E1688854607E401C607600BFEDE77FB505
:100FF00004460D46164601208DF800008DF8085075
:1010000001966846D4E9001290477FBD0246501A07
:1010100020F07F407047000070B504460B48006820
:1010200078B10A4AD4E9050112689047054600BF25
:101030002E4626B100BF3046FFF7C8FB00BF00BFF9
:1010400002E0D4E90510884770BD000020000020B0
:101050002DE9FC41002001900F4804680F48076803
:101060006846FFF721FC0546FFF778FD06462DB1DF
:1010700001AA21460098FFF73FFD01260198FFF7DE
:10108000ABFD00B1012616B13846FFF7C5FB0020C5
:1010900003490870BDE8FC81100000200C0000200E
:1010A0002500002010B51420FFF7F0F910BD000056
:1010B00010B51849096811B91649086028E0154AA1
:1010C00001681268126891420DD8124909680968CE
:1010D0000268891A0F4A126811600E490968C161D5
:1010E0000C49086014E002680A4C2368216803E098
:1010F0000C68121B0B46C96911B10C689442F7D3F6
:1011000011B10C68A41A0C600260C161D86100BF03
:1011100010BD00000C00002030B50246154C2168BF
:10112000084604E0904200D103E00146C06900286F
:10113000F8D100BF00B930BD814210D10D4C2468F8
:10114000E4690C4D2C602C46246844B901240A4DF6
:10115000AC600024094D2C600124094D2C700368FB
:10116000C469CC61C86910B104681C44046000BF44
:10117000E1E700000C0000200010014010000020FA
:10118000250000202DE9F0411F480068002838D0D4
:101190000027FFF7BDFE80461C4801684046FFF768
:1011A00035FF06461848056810E02868B04200D9A7
:1011B0000EE02868361A286807442C46ED69207C22
:1011C00020B1002020742046FFF726FF002DECD12F
:1011D00000BF0F4800780F490978884209D10D48AF
:1011E0000078401CC0B20B490870022801D10020D1
:1011F000087009480749097840F82170FFF752FF45
:1012000000BFBDE8F08100000C00002010000020AD
:101210001C0000201D0000201400002010B511202B
:10122000FFF734F910BD70B505460C464FF48E71CA
:101230002846FFF738FEA18AA068465CA08A401CB9
:10124000A0823046C5F81C0500BF70BD7FB50446BE
:101250000D4600208DF800008DF80850A068019020
:101260000020A0756846D4E9001290477FBD2DE9A3
:10127000FF4105460C464FF400712846FFF71DFE5E
:1012800048B34FF492712846FFF706FE18B34FF4A7
:1012900092712846FFF707FE4FF401712846FFF7C9
:1012A00009FEA07E18B904212846FFF70FFE022090
:1012B0008DF800002846FFF7E9FD0390E17D8DF8E9
:1012C0000810E06801900020E07520766846D4E9B7
:1012D0000012904736E004212846FFF7EEFD002873
:1012E00030D04FF484712846FFF7D6FD50B3214625
:1012F0002846FFF75DFEE07D617E884222D1207E98
:1013000070B1E668677E207EE0752069E0600020AD
:1013100020766076324639462046FFF768FE11E0B7
:10132000A07E18B904212846FFF7D0FD4FF40171C3
:101330002846FFF7BFFD0020E075617EE268204689
:10134000FFF755FE4FF48E712846FFF7A5FD98B1C3
:10135000A08AA17D884204DA21462846FFF763FF70
:101360000AE04FF48E712846FFF79DFDA07D18B16D
:10137000A17D2046FFF76AFF4FF4A2712846FFF7D0
:101380008BFD98B14FF4A2712846FFF78CFDA07E2B
:1013900018B100212846FFF799FDE07D30B100200B
:1013A000E075617EE2682046FFF721FEBDE8FF811F
:1013B0002DE9FF4105460C464FF492712846FFF790
:1013C0008EFDD8B14FF492712846FFF78FFD0220B1
:1013D0008DF800002846FFF77CFD03902846FFF7B4
:1013E0008CFDC1B28DF80810E06801900020E07516
:1013F00020766846D4E9001290472FE04FF48871B8
:101400002846FFF76CFD48B34FF488712846FFF774
:101410006DFD2846FFF771FDC6B2E07DB0421CD1DC
:10142000207E98B1E7682020D5F800128143C5F8E6
:10143000001200BF207EE0752069E0600020207669
:101440003A4631462046FFF7D2FD06E00020E0751F
:1014500031462046E268FFF7CAFD00BF4FF4A27193
:101460002846FFF73CFD88B14FF4A2712846FFF7EC
:101470003DFDE07D50B10020E0752846FFF73DFDC1
:10148000C6B231462046E268FFF7B1FD4FF49071D5
:101490002846FFF724FD78B14FF490712846FFF7F6
:1014A00025FDA07D40B100BF40F24C504059C6B26E
:1014B00031462046FFF7CAFEBDE8FF81DC1400007C
:1014C0000000002028000000800700000415000034
:1014D0002800002038200000900700000090D00372
:1014E00000000000000000000000000000000000FC
:1014F00000000000000000000000000000000000EC
:0415000000000000E7
:0400000500000401F2
:00000001FF
