:020000040000FA
:10000000A00C0020D5000000EF000000F10000006F
:1000100000000000000000000000000000000000E0
:10002000000000000000000000000000F3000000DD
:100030000000000000000000F5000000F7000000D4
:10004000F9000000B5030000C9050000F900000038
:10005000F900000000000000A5010000F900000008
:1000600009050000F9000000F9000000F900000097
:10007000F9000000F9000000F9000000F90000009C
:10008000F9000000F9000000F9000000F90000008C
:1000900035040000F9000000F9000000F90000003C
:1000A000F9000000F900000000000000000000005E
:1000B0000000000000000000000000000000000040
:1000C0000348854600F05CF800480047E909000055
:1000D000A00C00200321094802680A430260084876
:1000E00002680A4302600748804707480047FEE766
:1000F000FEE7FEE7FEE7FEE7FEE70000240500401E
:1001000054050040A5040000C100000030B50B46B6
:10011000014600202022012409E00D46D5409D42E1
:1001200005D31D469540491B254695404019154667
:10013000521E002DF1DC30BD03460B439B0703D05C
:1001400009E008C9121F08C0042AFAD203E00B789C
:100150000370401C491C521EF9D27047D2B201E014
:100160000270401C491EFBD270470022F6E710B512
:1001700013460A4604461946FFF7F0FF204610BD15
:10018000064C0125064E05E0E36807CC2B430C3CEA
:1001900098471034B442F7D3FFF796FF6C20000065
:1001A0008C20000010B50120224908702248C06B45
:1001B00000283ED0002008700021012000F0ACFA99
:1001C0000121002000F0A8FA062000F049F80020E4
:1001D0001949C86319480069C043C000C00F00280E
:1001E00003D001201649087023E014480069C04379
:1001F0008000C00F00280AD0022200211D2001F03B
:100200004CF901200F4908700F49087011E00B48A4
:100210000069C0438000C00F00280AD103220021DA
:100220001D2001F03AF90020064908700120064916
:10023000087010BD12000020406100400005005011
:10024000580000200400002057000020C206D20EF3
:1002500001219140014A11607047000080E200E0F6
:10026000C206D20E01219140014A11607047000080
:1002700080E100E0C206D20E01219140014A1160E6
:100280007047000080E100E0C206D20E01219140DB
:10029000014A11607047000000E100E0C206D20E82
:1002A00001219140014A11607047000000E100E027
:1002B000C206D20E01219140014A11607047000030
:1002C00000E200E010B5002819DA1A4A03071B0FF4
:1002D000083B9B089B00D2588307DC0EFF23A340FA
:1002E0009A438B071B0E8407E40EA3401A43114B5D
:1002F0000407240F083CA408A4001A5118E00E4A71
:1003000003231B02D21883089B00D2588307DC0EFC
:10031000FF23A3409A438B071B0E8407E40EA340E0
:100320001A43054B032424021B198408A4001A5104
:1003300010BD00001CED00E000E100E010B5002859
:1003400019DA1A4A03071B0F083B9B089B00D25877
:100350008307DC0EFF23A3409A438B071B0E840701
:10036000E40EA3401A43114B0407240F083CA408D1
:10037000A4001A5118E00E4A03231B02D218830866
:100380009B00D2588307DC0EFF23A3409A438B07C0
:100390001B0E8407E40EA3401A43054B03242402DA
:1003A0001B198408A4001A5110BD00001CED00E0C8
:1003B00000E100E010B51B480068002808D01A488A
:1003C0004068C007C00F002802D00020154908600F
:1003D0001448C06800280FD013484068082108401E
:1003E000002809D000200F49C86010480068002884
:1003F00002D00E48006880470A48006900280FD0E4
:100400000948406810210840002809D0002005490B
:10041000086107480068002802D005480068804746
:1004200010BD000000110040001300404C000020EF
:10043000480000203EB519480068019002A800F06D
:10044000CDFD0446002C27D115480068002823D094
:100450000298C007C00F002806D000206946087027
:1004600068460F4909688847022102980840002819
:1004700006D001206946087068460949096888471E
:10048000042102980840002806D00220694608701E
:1004900068460349096888473EBD000040000020C7
:1004A0002000002010B500F03FFA002805D01048C9
:1004B00010494860C8131049886100F019FA0028F3
:1004C00002D001200D49886000F064FA00280ED0A7
:1004D0000B480068012807D00A480949086000BF96
:1004E000074800680128FBD1C0200549486110BDBC
:1004F000DFFF07C000050040006C00400006004020
:1005000000EC06407593000010B5144800680128FF
:1005100022D1002011490860012011494860C860BB
:100520000861002001F086FA01F099FA0D4801787F
:100530000078401C0B4A1070052907DA0A48007839
:10054000002803D101200949087005E00020054971
:10055000087001200649087010BD0000408100406D
:1005600000800040070000205800002057000020B5
:100570001200002010B50820FFF772FE01200E497E
:10058000C86000200D49486003208860042008618D
:100590000B480A49403108600120000409494860BD
:1005A00001200549486003210820FFF78BFE082041
:1005B000FFF76AFE10BD000000800040008500408B
:1005C00080841E00008300401748806801282AD1DB
:1005D000002015498860154880691549087015483C
:1005E00001780078401C134A1070402902DD002079
:1005F000114608700E4800780A280AD00C48017885
:100600000C480078401E0C4A115400200B49087019
:1006100009E00748017807480078401E064A11544F
:100620000120064908707047002100400025004065
:100630005400002055000020D20300205600002066
:1006400002E008C8121F08C1002AFAD1704770479B
:10065000002001E001C1121F002AFBD1704710B534
:100660000446204600F002F800BA10BD01460868B2
:100670000D4A024012090C4BDB4303401B011A4395
:1006800010460A4A02409208084BDB4303409B0095
:100690001A431046064A02405208054BDB4303400A
:1006A0005B001A4310467047F0F0F0F0CCCCCCCC95
:1006B000AAAAAAAA10B5FF20143010490860104950
:1006C000C87C1049096888470F48104948600020D5
:1006D0000F49086101200F49086100BF0C480069FB
:1006E0000028FBD000200A490861FF201830034988
:1006F000086001200749486010BD0000001200405A
:10070000600000205000002042030020001500403F
:10071000001100400010004002461020244B986356
:10072000002A20D101290FD1FF20214B403318612D
:100730000020204B186001208307186000BF1D486F
:1007400000680028FBD005E0002903D101208307C1
:10075000586000BF1848C068000C002801D0012074
:1007600070470020FCE7012A1FD101290ED101208A
:100770000F4B986100200F4B586001208307986051
:1007800000BF0C4840680028FBD005E0002903D1D9
:1007900001208307D86000BF07488069000C00284B
:1007A00001D00120DCE70020DAE700BFD8E7000035
:1007B00000050040000100400004004002210B4AF7
:1007C000516000BF0A4909680029FBD007498860C9
:1007D00000BF074909680029FBD00021034A516086
:1007E00000BF034909680029FBD0704700E50140BC
:1007F00000E4014030B50B46002105E08D0004689F
:100800005C51001D4C1CA1B29142F7DB30BD0000D1
:1008100010B50B4601210F4C616000BF0E490968FD
:100820000029FBD0002105E08C001C590460001D4C
:100830004C1CA1B29142F7DB00BF074909680029AF
:10084000FBD00021034C616000BF03490968002907
:10085000FBD010BD00E5014000E401401CB50620BE
:10086000FFF7FEFC00200E49C863122400900346E7
:10087000012211460190204600F0FAFD00BF03223C
:1008800000211C2000F009FE032200211D2000F0A1
:1008900004FEA007034948600620FFF7F5FC1CBDD5
:1008A000406100400063004010B501F08DF9002068
:1008B00007E0252141430A4A89188200094B9950D3
:1008C000401C0828F5DB002007E025214143064AAB
:1008D00089188200054B9950401C0828F5DB10BD93
:1008E00078000020A0010020CC010020F4020020AC
:1008F0000C48008CC0B2012812D10A48808C000735
:10090000000F00280CD10748806AF02108404028D9
:1009100006D10448C06A0840002801D10120704770
:100920000020FCE7C00F00F01948008CC0B201287D
:100930002CD11748808C0007000F002826D11448BE
:10094000806AF0210840002806D11148C06A08409A
:10095000002801D1012070470D48806AF02108402D
:10096000102806D10A48C06A0840002801D1012099
:10097000F1E70748806AF0210840302806D1044892
:10098000C06A0840002801D10120E4E70020E2E726
:10099000C00F00F01348008CC0B201281FD11148CD
:1009A000808C0007000F002819D10E48806AF021C2
:1009B0000840A02806D10B48C06A0840002801D191
:1009C000012070470748806AF0210840D02806D1EE
:1009D0000448C06A0840002801D10120F1E7002046
:1009E000EFE70000C00F00F008B501210020FFF77D
:1009F00093FE00210120FFF78FFE0122F049FF2026
:100A00008002FFF7F7FEFFF729FF00F009FA00F078
:100A100027FAEC490880EC480078EC490870FFF7A9
:100A2000A9FDCCE1EA48007801287DD10620FFF736
:100A300017FC7D20000100F023FAE6480069C0435E
:100A4000C000C00F002870D0FF20E34908700020CC
:100A50004870E2484860012000F09AFFDE4801F04B
:100A60000BF88EE0DE480078002817D00020DC4923
:100A7000087000F099FADB4801780078401CD94AE8
:100A800010700A2903DAD44800F0F6FF06E00020CF
:100A9000D44908700120D449087073E0D348007825
:100AA000002812D00020D14908700120CE490870DA
:100AB00000F0D5FF002000F06BFF002805D00120DA
:100AC00000F0B8FF0120CA490860CA480078002831
:100AD00057D00020C74908700120C3490870C44995
:100AE00048600861002000F0A5FFC348C0790006F7
:100AF000C149097A09040843BF49497A09020843F0
:100B0000BD49897A08430446BB48C07A0006BA4901
:100B1000097B09040843B849497B09020843B649DF
:100B2000897B0843009001E034E02CE0B2488079F2
:100B3000002822D1A94884421FD1AF484079FF281C
:100B40001BD1AD48C07B332817D1FF208002FFF7AF
:100B500035FE01226946FF208002FFF759FE05207D
:100B600000F08EF900BFBFF34F8FA448A449C860BE
:100B7000BFF34F8F00BF00BFFEE701209A49087006
:100B800000E06FE700BF01209749087000209049FE
:100B90000870B9E08E4800780028FAD193480078B0
:100BA000002811D00020914908709649087000F083
:100BB00056FF002000F0ECFE002805D0012000F0D8
:100BC00039FF01208A49086085480078002846D00E
:100BD00000208349087000F0E7F98B480078401C3A
:100BE00089490870874801780078401C854A107050
:100BF00064292EDA052000F043F9012083490870AA
:100C000083480078401C8249087008460078012813
:100C100007D1804800786D49087001207B49087031
:100C20001DE07B480078022807D17B48007867499F
:100C3000087001207549087011E075480078032894
:100C40000DD1614800786149087000207049087032
:100C500005E000206B490870012063490870654871
:100C60000078002850D000206249087001206049B7
:100C700048600861002000F0DDFE00F0F0FE5E48F4
:100C8000C07900065C49097A090408435A49497A3F
:100C9000090208435849897A084304465648C07AED
:100CA00000065549097B090408435349497B090259
:100CB00008435149897B084305464F48407800283E
:100CC00021D14D488079002818D13D4800688542DF
:100CD00014D14248844211D147484079FF280DD1B0
:100CE0004548C07B332809D1122000F0E4FB0020E6
:100CF0004549087001203C49087004E000F034F9CF
:100D000001203949087000BF4048007800283ED0D3
:100D10000020354908703D49087000F0A1F82949C4
:100D2000088000202C49087048702C4848602448EE
:100D30000068886023480088888124480078887388
:100D400031480078C873012008740846334909788F
:100D50004174012000F01CFE002818D01B480078C8
:100D600000F024FF002812D01B4800F0C1FE00282C
:100D70000DD0122000BF052109070A46012181403C
:100D800005231B02D318996000BF00BF00BF16489F
:100D90000078002813D0122000F08DFB00201949A4
:100DA000087001210846FFF7B7FC00210846FFF74D
:100DB000B3FC0620FFF768FA20BF40BF20BF31E632
:100DC0000C000020100000205D0000205C000020CE
:100DD000580000200005005078040020F1F1F1F1E6
:100DE0005B00002006000020120000205A000020B6
:100DF0000080004059000020140400200400FA057F
:100E000000ED00E005000020080000205700002051
:100E1000090000205E0000205F0000200400002088
:100E20001A20014948607047007500400121094AB5
:100E30001160094A116000BF084909680029FBD008
:100E40000021064A1160034988680021014A1160A7
:100E500070470000007500400070004000710040C5
:100E600010B5FFF7E3FFFF212D314843062148432A
:100E7000044605218902FFF749F980B210BD000040
:100E80007D22D20001465143002900D116E000BF67
:100E900000BF00BF00BF00BF00BF00BF00BF00BF5A
:100EA000074A1268074B9A4200D101E000BF00BF19
:100EB0000A46013A114600D0EAE700BF7047000039
:100EC000140000200024F40010B50F2080020B490C
:100ED000886000200A49087000F076FE2421094845
:100EE000FFF743F909210848FFF73FF91420FFF7FE
:100EF000C1F9032005490860002010BD00F501403C
:100F0000190000206E03002064030020001200403E
:100F100010B504462078002804D0012806D0022805
:100F200018D107E001200C49087013E001200B499B
:100F300008700FE006E00A480078002802DD012072
:100F400008490870064800F0C1F80028F3D000F006
:100F50000BF800BF00BF10BD5A0000205B0000204E
:100F6000140400205900002010B500BF0B48007881
:100F7000002801D1082010BD00BF0120FFF77AF939
:100F80000020074988620862486224210548FFF76B
:100F9000ECF80120FFF782F90020ECE718000020B0
:100FA000F40200206E03002010B500BF094800784D
:100FB000002801D1082010BD00BF0120FFF75AF919
:100FC000002005498862086248620120FFF766F93F
:100FD0000020F0E718000020A001002010B5044612
:100FE00000BF0D480078002801D1082010BD00BFC7
:100FF00000BF002C01D10E20F8E700BF0120FFF751
:1010000039F9064800682060002004490860012082
:10101000FFF744F90020E9E718000020380000201D
:1010200070B5044600BF002C01D10E2070BD00BF7A
:101030001F480078002806D0FFF746FF0546002D20
:1010400001D02846F2E71B49606808601822214653
:101050001948FFF771F80020184908602421184842
:10106000FFF783F809211748FFF77FF800F08EFF9C
:10107000FFF71AFC00F0ECFE00F058FC0E48407C34
:101080008107890F0120FFF759F90B48807C810700
:10109000890F1420FFF752F91420FFF7FFF8002002
:1010A000094908700120024908700020BEE70000CD
:1010B00018000020200000206000002038000020E0
:1010C0006E030020640300201900002010B50446C0
:1010D00000BF26480078002801D1082010BD00BFBD
:1010E00000BF002C01D10E20F8E700BF2048806A25
:1010F000002801D10520F1E70120FFF7BBF81C48CB
:10110000406A80001A490858007820700846406AF2
:1011100080000858407860700846406A800008588F
:101120008078A0700846406A8000085800792071D5
:1011300022780846406A80000B461858411D601D01
:10114000FEF7FAFF0A48406A401C0949486208282D
:1011500001D3002048620648806A401E0449886224
:101160000120FFF79BF80020B8E7000018000020DE
:10117000F402002010B5044600BF0B480078002898
:1011800001D0112010BD00BF00BF002C01D10E20E6
:10119000F8E700BF042221460448FEF7CDFF0120F6
:1011A00000F082FE0020EDE719000020240000205E
:1011B00010B5044600BF0B480078002801D011206C
:1011C00010BD00BF00BF002C01D10E20F8E700BF0A
:1011D000042221460448FEF7AFFF022000F064FE1F
:1011E0000020EDE7190000202800002070B505461A
:1011F0000C4600BF13480078002801D0112070BDB4
:1012000000BF00BF002D01D10E20F8E700BF00BFD6
:10121000092C01DB0720F2E700BF224629460A48D5
:10122000FEF78AFF0848083804740820011BFF20D5
:101230000841054908398874042000F035FE002073
:10124000DDE70000190000202C000020014600BF4F
:1012500008480078002801D01120704700BF00BF67
:101260007D2901D90720F8E700BF034AD174002087
:10127000F3E70000190000202400002010B500BF93
:1012800019480078002801D0112010BD00BF0020AF
:10129000C043164988600020154908611548164961
:1012A0000860FF2018301549086010200F49486079
:1012B00004200D4908701248807C124908631048C8
:1012C000C07C8860104848600120FEF7BFFF012005
:1012D000FEF7E4FF002006494860886008610120AD
:1012E0000A4948600020D0E71900002000130040A0
:1012F00000110040D11400004800002000120040FE
:10130000240000200015004042030020001000408F
:101310000E480078042816D100200D490860401EB0
:101320000C49886000200C4908600C4908610120C4
:101330000B49086100BF094800690028FBD0002064
:10134000024908707047FF200230FBE719000020B7
:10135000001200400013004048000020001100402F
:101360000010004010B5044600BF3C48007800283B
:1013700001D1082010BD00BF00BF002C01D10E20FC
:10138000F8E700BF00BF207800280BD02078202885
:1013900008DC33480078002806D120783049C97C21
:1013A000884201DD0920E5E700BF00BF2D48806AC3
:1013B000082801D30420DDE700BF29484078002831
:1013C00008D1E078002805D02548007D002801D10B
:1013D0000620CFE70120FEF74DFF2249096A890068
:1013E000204A505825222146FEF7A6FE61781E4A63
:1013F000515C481CC117890F091889108900411ACE
:101400006278194B995460781946085C1549096A45
:101410008900144A515808711046006A401C114650
:101420000862082801D3002008620E48806A401C28
:101430000C4988620120FEF731FF094840780028F6
:1014400009D10748007C002805D108480078002809
:1014500001D100F031FC00208CE7000018000020D2
:1014600060000020A001002064030020190000207B
:10147000F0B500BF05252D072C4655000D439E00F5
:101480003543059E36023543069E360435438600B5
:1014900007273F02E719BD51F0BD7CB506460C4653
:1014A000154600202346024601460195009030462D
:1014B000FFF7DEFF7CBD00BF052109070A460121B9
:1014C000814005231B02D318D96000BF704700007C
:1014D000F8B500250026012760480068002802D1E1
:1014E000FFF7E8F8F8BD5E48806A082802D3FFF7E6
:1014F000E1F8F7E75948806880005A49441857488E
:10150000C0682188884207D1574840784010A178A8
:10151000884201D101260027534840784010A0702E
:101520004E48C06820805148007D002805D04E48B4
:101530004078C007C00F002800D10125002D75D0CC
:10154000FF201C304A49086048480078002853D0E2
:1015500001285CD14748806A002840D04548406A4D
:1015600080004449085840783C498968884236D10F
:10157000E078012815D1002E13D13E48406A401C66
:101580003C494862082801D3002048623948806AF3
:10159000401E3849886238480068012108433649AE
:1015A00008600120E0703348406A800031490858E3
:1015B00032490860096808783149096888472F4826
:1015C000006800782F4908702C48006802782B4882
:1015D0000168491D2B48801CFEF7AEFD07E0002086
:1015E000E0702749096888470020264908701E488E
:1015F0004078244948700AE000202149096888475A
:10160000194800781F4908700020487000BF00BFCB
:1016100005201D490870114880681C49C862194896
:1016200048601B481B49086002E0FFE7FFF742F8EB
:10163000002F10D0A178094A9268D0B200F0D2FAF7
:10164000002808D00C480068042108430A490860B3
:101650001420FEF72DFE00BF44E7000000140040F8
:10166000F40200206E0300204203002060000020EE
:1016700000120040A0010020380000201C000020C3
:101680005000002020030020190000200015004019
:10169000991600004800002010B5FF2018300849B6
:1016A00008600849C87C084909688847074808490C
:1016B000486008480849086004200849087010BDBF
:1016C0000012004060000020500000204203002073
:1016D00000150040D114000048000020190000202F
:1016E00010B5FF20143018490860184800681849E0
:1016F0000860184880898238174915229201891894
:10170000486001201449C860002014490860002185
:1017100012484160072080021149486048148860DF
:1017200000201049C8600B480078002802D10E49FB
:10173000096888470D480E4948600E480E49086000
:1017400003200E49087010BD001200404400002024
:1017500040A500406000002000A0004040A10040E3
:1017600000F501400011004050000020420300201D
:1017700000150040C117000048000020190000209B
:1017800010B50C480068012108430A49086000F0C0
:101790006FFB0948806A002805D1084908701420A9
:1017A000FEF786FD04E01420FEF782FD00F084FAC7
:1017B00010BD000038000020A0010020190000200A
:1017C00010B507208002454988604548C068002858
:1017D00044D044480068002840D001204249486075
:1017E00040033E49886041480068012108433F4961
:1017F00008603F48C0893F490968401A401C3E497B
:10180000086000F035FB3A480078002811D03B48CA
:10181000007800280DDD3A49C96AC8B2002100F0FD
:10182000E1F9002805D031480068042108432F4918
:1018300008603448806A002803D02D48007C0128C5
:1018400006D10020304908701420FEF731FD44E035
:101850001420FEF72DFD00F02FFA3EE02549086820
:10186000411E244A1160002817D101201E494860FA
:1018700040031A4988601E48C089401C1E49086000
:101880001A480068022108431849086000201E49D0
:1018900008701420FEF70CFD1FE0FF201C301B49D0
:1018A00008601B49096808781A49096888471A4876
:1018B0001349486019481A49086002201249087003
:1018C0000120094908604003044948601548406800
:1018D000002802D001201449086010BD00F5014025
:1018E000001100400014004000A00040380000201B
:1018F000600000203C000020400000204203002047
:1019000000150040A0010020190000200012004036
:101910001C0000205000002020030020E1160000E1
:101920004800002040A10040001000401348144926
:101930005122120189180865124911488018416521
:101940000E48001D0E49891888650E49091D0C486E
:101950008018C1650C480A49891808660749F0399A
:101960000748801841660848001D0549891888669F
:10197000064903488018C166704700000011004006
:1019800000F0014000A0004040A1004000100040D5
:1019900030B58BB00446002520A000680A9020A036
:1019A000006809901FA103C90891079018221F49D8
:1019B00001A8FEF7C1FB002C03D101206946487144
:1019C00004E0012C02D100206946487104216846D8
:1019D00081730221017301210171022141731448B5
:1019E00002900521684641824B21C90001820121F4
:1019F000017601A8FFF714FB00280BD10AA8FFF716
:101A0000B9FB09A8FFF7D4FB082107A8FFF7EEFBF5
:101A1000012500E0002528460BB030BDE7E7E7E7E9
:101A2000C2C2C2C2E7C2C3C4C5C6C7C854200000F0
:101A3000110F000070B505460026012D03D1FFF7F8
:101A40001DFC044604E0002D02D1FFF761FC0446B2
:101A5000002C01D1012600E00026304670BD70B593
:101A60000024FFF731FA0546002D01D1012400E0E2
:101A70000024204670BD000070B504460025607843
:101A8000002802D0012808D103E00020174948703F
:101A900005E001201549487001E0002500BF00BFA6
:101AA00000201249C87020200870FF20487161781A
:101AB0000E4881716068010E0C48C17160680002B7
:101AC000010E0A480172A0880004010E0748417205
:101AD000217981723421C172FFF744FC002801D1C1
:101AE000012500E00025284670BD000039040020D3
:101AF000F8B504460025002600276078002802D0AB
:101B0000012808D103E000202749487005E00120A2
:101B10002549487001E0002500BF00BF0020224990
:101B2000C870202008702078487161781E48817143
:101B30006068010E1C48C17160680002010E1A48FD
:101B40000172A0880004010E174841722179817248
:101B5000A068010E1448C172A0680002010E12486C
:101B6000017320890004010E0F484173217A8173AB
:101B7000A08901120C48C173217B0174A17B4174BF
:101B8000E17B8174217CC174227C214611311430A7
:101B9000FEF7D2FA0448FFF7E5FB002801D1012542
:101BA00000E000252846F8BD3904002070B5044641
:101BB00000252046FFF74AFB002801D1012500E05F
:101BC0000025284670BD00000020044908624862D4
:101BD000886203490862486288627047A001002059
:101BE000F402002070B504460D462F48806A08288C
:101BF00057D22E48007801280ED12D480078202891
:101C000001DD002070BD2A4800782749096A890053
:101C1000254A5158087012E024484078002806D11F
:101C20002149096A8900204A5158087007E01F4875
:101C3000C07C1D49096A89001B4A515808701A491D
:101C4000096A8900184B59580A781946096A8900A7
:101C50005958481D1649891CFEF76EFA1248006A49
:101C600080001149085844701248806840B2096ADF
:101C700089000D4A515888701046006A800011464C
:101C8000085805710846006A401C0862082801D3FC
:101C9000002008620448806A401C034988620120D1
:101CA000B0E70020AEE70000F40200206000002052
:101CB000420300204015004010B501205349086040
:101CC0005348406A800052490858524908605248B7
:101CD0000078002802D0012875D128E04D49096814
:101CE00008784E49096888474A48006800794C4995
:101CF000087000204870474800680278454801682D
:101D0000491D4748801CFEF717FAFF201C30454943
:101D100008601120444948603F48C0894349086031
:101D20004348444908600220434908704CE0394860
:101D30000068C078002803D03748007D002801D112
:101D4000012000E000200446324800680078344951
:101D500008703048006800794006000E4870084658
:101D600040780121614008432D49487029480068A6
:101D7000027828480168491D2948801CFEF7DCF9D3
:101D8000002C11D0FF201C30264908601120264964
:101D900048602148C08925490860254825490860D0
:101DA0000220254908700CE0FF2014301D4908600E
:101DB00010201D49486021481E49086001201E4925
:101DC000087001E0FFE700BF00BF124800684078DC
:101DD0001B49C8620F4800684178012088401849B3
:101DE00008631848C07C88600D4848600120FEF7F1
:101DF0002DFA0120FEF752FA00201349486088604E
:101E0000086101201149086010BD00004000002059
:101E1000A00100201C0000206000002050000020D5
:101E20002003002000120040001300403C0000206E
:101E3000E116000048000020190000208117000072
:101E40000015004024000020001100400010004058
:101E500004200449086100208860034803490860A1
:101E60007047000000A500400202000000A20040F0
:101E700010B50C48806A002812D00120FEF7FAF94C
:101E80000848806A401E074988620846406A401C2C
:101E90004862082801D3002048620120FEF7FEF9BD
:101EA00010BD0000A001002010B50446E007C00FDF
:101EB000002804D00F48FEF7D2FB0F49C86102206A
:101EC0002040002805D00B48001DFEF7C8FB0A493A
:101ED00008620420204000280BD006480830FEF796
:101EE000C5FB0549486203480C30FEF7BFFB0249B9
:101EF000886210BD24000020001500401048007AC0
:101F0000104908610E48007A00280AD0012804D040
:101F100002280AD0032810D10BE030200A490860BB
:101F20000CE040200849086008E0FA2006490860F3
:101F300004E040200449086000E000BF00BF704793
:101F40006000002000150040440000200B48407A4B
:101F50000B4948630948407A022804D10948C863FC
:101F60000948886309E00548407A012805D1FF2027
:101F70000349C863FF200830886370476000002071
:101F800000150040FFFF00002110010010B500F017
:101F90002BF8FFF7B3FF00F00DF8FFF7D7FF034969
:101FA000C87C03490968884710BD00006000002014
:101FB0005000002008480078002805D0012807D1EB
:101FC00006480749086004E006480549086000E043
:101FD00000BF00BF70470000600000202920000003
:101FE00050000020FD1F00000248807A0249C860AE
:101FF0007047000060000020001500400749084AB3
:1020000051610849497C491E090401221206114305
:10201000020211430143024A91617047000101002D
:10202000001500402400002001460748074A50617F
:102030000748407C401E0004012212061043203055
:10204000024A90617047000006000300001500403E
:102050002400002001000000000000000102000038
:10206000FA00030000010220000000008C200000A4
:10207000000000206000000040060000EC2000008E
:1020800060000020400C000050060000000000002E
:10209000000000000000000000000000000001003F
:1020A0000024F40000000000000000000000000018
:1020B000E7E7E7E7C2C2C2C2E7C2C3C4C5C6C7C832
:1020C0000805FF0200000000000000000000000002
:1020D0000000000000000000000000000000000000
:0C20E00000000000000000000005375F59
:04000005000000C136
:00000001FF
