:020000040000FA
:10000000A80C0020D5000000EF000000F100000067
:1000100000000000000000000000000000000000E0
:10002000000000000000000000000000F3000000DD
:100030000000000000000000F5000000F7000000D4
:10004000F9000000B503000041060000F9000000BF
:10005000F900000000000000A5010000F900000008
:1000600009050000F9000000F9000000F900000097
:10007000F9000000F9000000F9000000F90000009C
:10008000F9000000F9000000F9000000F90000008C
:1000900035040000F9000000F9000000F90000003C
:1000A000F9000000F900000000000000000000005E
:1000B0000000000000000000000000000000000040
:1000C0000348854600F05CF8004800475D0A0000E0
:1000D000A80C00200321094802680A43026008486E
:1000E00002680A4302600748804707480047FEE766
:1000F000FEE7FEE7FEE7FEE7FEE70000240500401E
:1001000054050040A5040000C100000030B50B46B6
:10011000014600202022012409E00D46D5409D42E1
:1001200005D31D469540491B254695404019154667
:10013000521E002DF1DC30BD03460B439B0703D05C
:1001400009E008C9121F08C0042AFAD203E00B789C
:100150000370401C491C521EF9D27047D2B201E014
:100160000270401C491EFBD270470022F6E710B512
:1001700013460A4604461946FFF7F0FF204610BD15
:10018000064C0125064E05E0E36807CC2B430C3CEA
:1001900098471034B442F7D3FFF796FFF8210000D8
:1001A0001822000010B50120224908702248C06BB7
:1001B00000283ED0002008700021012000F0E8FA5D
:1001C0000121002000F0E4FA062000F049F80020A8
:1001D0001949C86319480069C043C000C00F00280E
:1001E00003D001201649087023E014480069C04379
:1001F0008000C00F00280AD0022200211D2001F03B
:10020000E0F901200F4908700F49087011E00B4810
:100210000069C0438000C00F00280AD103220021DA
:100220001D2001F0CEF90020064908700120064982
:10023000087010BD12000020406100400005005011
:10024000590000200400002057000020C206D20EF2
:1002500001219140014A11607047000080E200E0F6
:10026000C206D20E01219140014A11607047000080
:1002700080E100E0C206D20E01219140014A1160E6
:100280007047000080E100E0C206D20E01219140DB
:10029000014A11607047000000E100E0C206D20E82
:1002A00001219140014A11607047000000E100E027
:1002B000C206D20E01219140014A11607047000030
:1002C00000E200E010B5002819DA1A4A03071B0FF4
:1002D000083B9B089B00D2588307DC0EFF23A340FA
:1002E0009A438B071B0E8407E40EA3401A43114B5D
:1002F0000407240F083CA408A4001A5118E00E4A71
:1003000003231B02D21883089B00D2588307DC0EFC
:10031000FF23A3409A438B071B0E8407E40EA340E0
:100320001A43054B032424021B198408A4001A5104
:1003300010BD00001CED00E000E100E010B5002859
:1003400019DA1A4A03071B0F083B9B089B00D25877
:100350008307DC0EFF23A3409A438B071B0E840701
:10036000E40EA3401A43114B0407240F083CA408D1
:10037000A4001A5118E00E4A03231B02D218830866
:100380009B00D2588307DC0EFF23A3409A438B07C0
:100390001B0E8407E40EA3401A43054B03242402DA
:1003A0001B198408A4001A5110BD00001CED00E0C8
:1003B00000E100E010B51B480068002808D01A488A
:1003C0004068C007C00F002802D00020154908600F
:1003D0001448C06800280FD013484068082108401E
:1003E000002809D000200F49C86010480068002884
:1003F00002D00E48006880470A48006900280FD0E4
:100400000948406810210840002809D0002005490B
:10041000086107480068002802D005480068804746
:1004200010BD000000110040001300404C000020EF
:10043000480000203EB519480068019002A800F06D
:1004400057FE0446002C27D115480068002823D009
:100450000298C007C00F002806D000206946087027
:1004600068460F4909688847022102980840002819
:1004700006D001206946087068460949096888471E
:10048000042102980840002806D00220694608701E
:1004900068460349096888473EBD000040000020C7
:1004A0002000002010B500F079FA002805D010488F
:1004B00010494860C8131049886100F053FA0028B9
:1004C00002D001200D49886000F09EFA00280ED06D
:1004D0000B480068012807D00A480949086000BF96
:1004E000074800680128FBD1C0200549486110BDBC
:1004F000DFFF07C000050040006C00400006004020
:1005000000EC06407593000010B52E4800680128E5
:1005100057D100202B49086001202B49C860486052
:100520002A480078401C29490870002001F052FB3D
:10053000012001F0CDFA264801780078401C244AB9
:100540001070032933DA23480078401C21490870D1
:1005500008460078012804D11F4800781F49087018
:1005600013E01C480078022804D11D4800781B497C
:1005700008700AE017480078032806DB194800785D
:10058000164908700020134908701448007801F0DB
:10059000D1FB12480078144988730C480078C8735E
:1005A000012009490860104801F066FB09E00120BC
:1005B00005494860086100200549087001200B4981
:1005C000087010BD408100400080004008000020FD
:1005D00007000020090000205E0000205D000020D0
:1005E0005F000020600000207C040020120000203A
:1005F00010B50820FFF734FE01200D49C86048609F
:1006000000200C49486003208860042008610A48E3
:10061000084940310860012000040849486003216E
:100620000820FFF74FFE0820FFF72EFE10BD000048
:10063000008000400085004080841E000083004050
:100640001748806801282AD100201549886015487C
:10065000806915490870154801780078401C134AD4
:100660001070402902DD0020114608700E48007805
:100670000A280AD00C4801780C480078401E0C4A21
:10068000115400200B49087009E007480178074819
:100690000078401E064A1154012006490870704730
:1006A000002100400025004054000020550000209B
:1006B000D60300205600002002E008C8121F08C11F
:1006C000002AFAD170477047002001E001C1121FD3
:1006D000002AFBD1704710B50446204600F002F80E
:1006E00000BA10BD014608680D4A024012090C4BC1
:1006F000DB4303401B011A4310460A4A024092089A
:10070000084BDB4303409B001A431046064A024055
:100710005208054BDB4303405B001A431046704709
:10072000F0F0F0F0CCCCCCCCAAAAAAAA10B5FF204D
:100730001430104908601049C87C1049096888477E
:100740000F481049486000200F49086101200F49F7
:10075000086100BF0C4800690028FBD000200A494E
:100760000861FF20183003490860012007494860EC
:1007700010BD000000120040640000205000002066
:10078000460300200015004000110040001000400A
:1007900002461020244B9863002A20D101290FD152
:1007A000FF20214B403318610020204B18600120AE
:1007B0008307186000BF1D4800680028FBD005E0D3
:1007C000002903D101208307586000BF1848C06882
:1007D000000C002801D0012070470020FCE7012A0E
:1007E0001FD101290ED101200F4B986100200F4B22
:1007F000586001208307986000BF0C4840680028BB
:10080000FBD005E0002903D101208307D86000BF99
:1008100007488069000C002801D00120DCE7002097
:10082000DAE700BFD8E70000000500400001004003
:100830000004004002210B4A516000BF0A490968C8
:100840000029FBD00749886000BF074909680029D3
:10085000FBD00021034A516000BF03490968002909
:10086000FBD0704700E5014000E4014030B50B4685
:10087000002105E08D0004685C51001D4C1CA1B2F4
:100880009142F7DB30BD000010B50B4601210F4C43
:10089000616000BF0E4909680029FBD0002105E016
:1008A0008C001C590460001D4C1CA1B29142F7DB66
:1008B00000BF074909680029FBD00021034C616093
:1008C00000BF034909680029FBD010BD00E50140C5
:1008D00000E401401CB50620FFF7C2FC00200D49D2
:1008E000C86312240090034601221146019020465D
:1008F00000F052FE00BF032200211C2000F061FE28
:10090000032200211D2000F05CFEA0070249486080
:100910001CBD0000406100400063004010B501F0C4
:1009200019FA002007E0252141430A4A891882006C
:10093000094B9950401C0828F5DB002007E02521D1
:100940004143064A89188200054B9950401C0828EB
:10095000F5DB10BD7C000020A4010020D0010020A8
:10096000F80200200C48008CC0B2012812D10A48BD
:10097000808C0007000F00280CD10748806AF02106
:100980000840402806D10448C06A0840002801D128
:10099000012070470020FCE7C00F00F01948008CD0
:1009A000C0B201282CD11748808C0007000F002806
:1009B00026D11448806AF0210840002806D1114849
:1009C000C06A0840002801D1012070470D48806AA4
:1009D000F0210840102806D10A48C06A08400028C3
:1009E00001D10120F1E70748806AF0210840302852
:1009F00006D10448C06A0840002801D10120E4E77C
:100A00000020E2E7C00F00F01348008CC0B20128BC
:100A10001FD11148808C0007000F002819D10E4803
:100A2000806AF0210840A02806D10B48C06A08401F
:100A3000002801D1012070470748806AF021084052
:100A4000D02806D10448C06A0840002801D10120FE
:100A5000F1E70020EFE70000C00F00F008B501212A
:100A60000020FFF795FE00210120FFF791FE0122F3
:100A7000F749FF208002FFF7F9FEFFF72BFF00F098
:100A80007BFA00F099FAF3490880F3480078F349BB
:100A900008700120F2490870FFF7AAFD56E2F148FC
:100AA000007800284AD00020ED490870ED49087010
:100AB000122000F0A0FD7D20000100F08DFA122030
:100AC00000F08DFDE8480069C043C000C00F002859
:100AD00016D0122000F08FFD0120E449087000209C
:100AE000E34908704870E3484860012000F0F0FFD7
:100AF000DA48007801F01EF9DD4801F081F81DE0C8
:100B00000120D74908700020D8490870C82000F09B
:100B100063FA122000F06FFD642000F05DFA1220ED
:100B200000F05DFDC82000F057FA122000F063FDD0
:100B3000642000F051FA122000F051FDCB480078FB
:100B400000287DD0CC480078002822D00020CA4957
:100B5000087000F0B3FAC94801780078401CC74A11
:100B6000107064290DDA022000F036FA012000F03E
:100B7000AFFFBA48007801F0DDF8BD4801F040F859
:100B800007E00020BD490870B84908700120B44949
:100B90000870BB480078002809D00020B8490870C8
:100BA000B649087000F094FF012001F013F8B54831
:100BB0000078002860D00020B249087001F00AF8DF
:100BC000012000F085FFB048407800284ED1AE48A3
:100BD000C0790006AC49097A09040843AA49497A50
:100BE00009020843A849897A08430446A648C07AFE
:100BF0000006A549097B09040843A349497B09026A
:100C00000843A149897B084300909F4880790028C8
:100C10002BD19848844228D19B484079FF2824D181
:100C20009948C07B322820D19048007801281CD1F7
:100C3000FF208002FFF7FEFD01226946FF2000E051
:100C40001BE08002FFF720FE052000F0C5F912200E
:100C500000F0C5FC00BFBFF34F8F8C488C49C860C3
:100C6000BFF34F8F00BF00BFFEE700BF00207F49EA
:100C7000087001207A4908701EE17F48007800283A
:100C80004ED000207C49087000F018FA81480078A6
:100C9000401C80490870794801780078401C774AE8
:100CA0001070322936DA022000F096F97A4800787E
:100CB000401C7949087008460078012804D166482C
:100CC00000786649087013E073480078022804D160
:100CD00072480078614908700AE06F48007803287C
:100CE00006DB6F4800785D49087000206A4908708B
:100CF000012000F0EDFE5948007801F01BF857483C
:100D000000785B49887363480078C873084600F030
:100D1000B3FF05E0002059490870012050490870D0
:100D20005748007800280CD00020554908705349D6
:100D3000087000F0CDFE012000F04CFF0120594961
:100D4000086050480078002896D000204D4908706F
:100D50000120544948600861002000F03BFF012059
:100D600000F0B6FE4848407800286FD14648C07968
:100D700000064549097A090408434349497A0902AA
:100D800008434149897A084304463F48C07A00062F
:100D90003D49097B090408433B49497B0902084353
:100DA0003949897B0843054637488079002846D170
:100DB00027480068854242D12E4884423FD13248BC
:100DC0004079FF283BD129480078002837D12E48A8
:100DD000C07B33280BD1122000F001FC00202D49EC
:100DE00008703149087001201D4908702DE029481C
:100DF0000078401C27490870204801780078401C82
:100E00001E4A1070032911DA002015490870134892
:100E1000007800F08FFF11480078154988731D484D
:100E20000078C873084600F027FF0EE00020134941
:100E300008701D49087001200949087005E000206C
:100E40001949087001200649087035E02EE00000BD
:100E50000C000020100000205E0000205D0000203B
:100E6000120000205900002000050050580000200A
:100E70007C040020F1F1F1F15C000020060000206C
:100E80005B0000205A000020180400200400FA052E
:100E900000ED00E008000020090000205F000020B5
:100EA00060000020008000405700002000202849FA
:100EB00008700120274908702548007800282DD0A7
:100EC00000202449087022490870122000F093FB8A
:100ED00000F072F82049088000202049087048700E
:100EE0001F4848601F48006888601B480088888148
:100EF0001D48007888731D480078C8730120087465
:100F000008461B4909784174012000F0E1FD1648AC
:100F1000007800F00FFF114800F0AEFE0D48007899
:100F2000002813D0122000F05AFB0020114908704D
:100F300001210846FFF72CFC00210846FFF728FC9A
:100F40000620FFF7A1F920BF40BF20BFA7E50000A2
:100F50005700002012000020100000207C04002018
:100F6000F1F1F1F10C0000205D00002008000020EC
:100F700004000020060000201A2001494860704744
:100F8000007500400121094A1160094A116000BF43
:100F9000084909680029FBD00021064A116003496D
:100FA00088680021014A1160704700000075004008
:100FB000007000400071004010B5FFF7E3FFFF2113
:100FC0002D31484306214843044605218902FFF795
:100FD0009DF880B210BD00007D22D2000146514331
:100FE000002900D116E000BF00BF00BF00BF00BF56
:100FF00000BF00BF00BF00BF074A1268074B9A42FC
:1010000000D101E000BF00BF0A46013A114600D0FE
:10101000EAE700BF70470000140000200024F4003D
:1010200010B50F2080020B49886000200A49087023
:1010300000F090FE24210948FFF797F8092108489D
:10104000FFF793F81420FFF715F90320054908600E
:10105000002010BD00F5014019000020720300209F
:10106000680300200012004010B5044620780028D4
:1010700004D0012806D0022816D107E001200B4930
:10108000087011E001200A4908700DE006E00948E7
:101090000078002802DD012007490870054800F0AB
:1010A000A9F80028F3D000BF00BF10BD5B000020EE
:1010B0005C000020180400205A00002010B500BF7A
:1010C00009480078002801D1082010BD00BF012088
:1010D000FFF7D0F8002005498862086248620120C5
:1010E000FFF7DCF80020F0E718000020A401002042
:1010F00010B5044600BF0D480078002801D1082033
:1011000010BD00BF00BF002C01D10E20F8E700BFCA
:101110000120FFF7AFF8064800682060002004496E
:1011200008600120FFF7BAF80020E9E71800002066
:101130003800002070B5044600BF002C01D10E20FD
:1011400070BD00BF1F480078002806D0FFF768FF79
:101150000546002D01D02846F2E71B49606808606B
:10116000182221461948FEF7E7FF002018490860B9
:1011700024211848FEF7F9FF09211748FEF7F5FF6B
:1011800000F0CAFFFFF7CAFB00F028FF00F06EFC7A
:101190000E48407C8107890F0120FFF7CFF80B48EC
:1011A000807C8107890F1420FFF7C8F81420FFF70F
:1011B00075F80020094908700120024908700020D4
:1011C000BEE700001800002020000020640000207E
:1011D000380000207203002068030020190000205E
:1011E00003480078002801D1012070470020FCE767
:1011F0001900002010B5044600BF264800780028DA
:1012000001D1082010BD00BF00BF002C01D10E206D
:10121000F8E700BF2048806A002801D10520F1E7E7
:101220000120FFF727F81C48406A80001A49085837
:10123000007820700846406A800008584078607046
:101240000846406A800008588078A0700846406AC6
:10125000800008580079207122780846406A800092
:101260000B461858411D601DFEF766FF0A48406A8C
:10127000401C09494862082801D3002048620648FA
:10128000806A401E044988620120FFF707F80020A9
:10129000B8E7000018000020F802002010B504464E
:1012A00000BF0B480078002801D0112010BD00BFFE
:1012B00000BF002C01D10E20F8E700BF0422214618
:1012C0000448FEF739FF012000F0B4FE0020EDE7EE
:1012D000190000202400002010B5044600BF0B4870
:1012E0000078002801D0112010BD00BF00BF002CE5
:1012F00001D10E20F8E700BF042221460448FEF782
:101300001BFF022000F096FE0020EDE719000020F0
:101310002800002070B505460C4600BF1348007831
:10132000002801D0112070BD00BF00BF002D01D1E9
:101330000E20F8E700BF00BF092C01DB0720F2E711
:1013400000BF224629460A48FEF7F6FE084808383C
:1013500004740820011BFF200841054908398874DE
:10136000042000F067FE0020DDE7000019000020E7
:101370002C000020014600BF08480078002801D05A
:101380001120704700BF00BF7D2901D90720F8E771
:1013900000BF034AD1740020F3E7000019000020C9
:1013A0002400002010B500BF19480078002801D0A3
:1013B000112010BD00BF0020C043164988600020E6
:1013C00015490861154816490860FF20183015496D
:1013D000086010200F49486004200D490870124829
:1013E000807C124908631048C07C886010484860BF
:1013F0000120FEF72BFF0120FEF750FF00200649D9
:1014000048608860086101200A4948600020D0E7F0
:1014100019000020001300400011004011160000C8
:101420004800002000120040240000200015004069
:1014300046030020001000400E480078042816D112
:1014400000200D490860401E0C49886000200C49AE
:1014500008600C49086101200B49086100BF094878
:1014600000690028FBD00020024908707047FF2067
:101470000230FBE71900002000120040001300407A
:1014800048000020001100400010004010B5044644
:1014900000BF3C480078002801D1082010BD00BFE3
:1014A00000BF002C01D10E20F8E700BF00BF20785C
:1014B00000280BD02078202808DC3348007800284A
:1014C00006D120783049C97C884201DD0920E5E752
:1014D00000BF00BF2D48806A082801D30420DDE743
:1014E00000BF29484078002808D1E078002805D0BE
:1014F0002548007D002801D10620CFE70120FEF716
:10150000B9FE2249096A8900204A505825222146FD
:10151000FEF712FE61781E4A515C481CC117890F04
:10152000091889108900411A6278194B995460781A
:101530001946085C1549096A8900144A515808710E
:101540001046006A401C11460862082801D300209A
:1015500008620E48806A401C0C4988620120FEF730
:101560009DFE09484078002809D10748007C0028E2
:1015700005D108480078002801D100F063FC002064
:101580008CE700001800002064000020A401002067
:101590006803002019000020F0B500BF05252D07C5
:1015A0002C4655000D439E003543059E36023543BB
:1015B000069E36043543860007273F02E719BD51D2
:1015C000F0BD7CB506460C46154600202346024673
:1015D0000146019500903046FFF7DEFF7CBD00BF5D
:1015E000052109070A460121814005231B02D31862
:1015F000D96000BF704700BF052109070A460121D5
:10160000814005231B02D318996000BF704700007A
:10161000F8B500250026012760480068002802D19F
:10162000FFF784F8F8BD5E48806A082802D3FFF708
:101630007DF8F7E75948806880005A4944185748B0
:10164000C0682188884207D1574840784010A17867
:10165000884201D101260027534840784010A070ED
:101660004E48C06820805148007D002805D04E4873
:101670004078C007C00F002800D10125002D75D08B
:10168000FF201C304A49086048480078002853D0A1
:1016900001285CD14748806A002840D04548406A0C
:1016A00080004449085840783C498968884236D1CE
:1016B000E078012815D1002E13D13E48406A401C25
:1016C0003C494862082801D3002048623948806AB2
:1016D000401E38498862384800680121084336496D
:1016E00008600120E0703348406A800031490858A2
:1016F00032490860096808783149096888472F48E5
:10170000006800782F4908702C48006802782B4840
:101710000168491D2B48801CFEF70EFD07E00020E4
:10172000E0702749096888470020264908701E484C
:101730004078244948700AE0002021490968884718
:10174000194800781F4908700020487000BF00BF8A
:1017500005201D490870114880681C49C862194855
:1017600048601B481B49086002E0FFE7FEF7DEFF08
:10177000002F10D0A178094A9268D0B200F0F8FA90
:10178000002808D00C480068042108430A49086072
:101790001420FEF78DFD00BF44E700000014004058
:1017A000F80200207203002046030020640000209D
:1017B00000120040A4010020380000201C0000207E
:1017C00050000020240300201900002000150040D4
:1017D000D91700004800002010B5FF201830084934
:1017E00008600849C87C08490968884707480849CB
:1017F000486008480849086004200849087010BD7E
:101800000012004064000020500000204603002029
:1018100000150040111600004800002019000020AB
:1018200010B5FF201430184908601848006818499E
:101830000860184880898238174915229201891852
:10184000486001201449C860002014490860002144
:10185000124841600720800211494860481488609E
:1018600000201049C8600B480078002802D10E49BA
:10187000096888470D480E4948600E480E490860BF
:1018800003200E49087010BD0012004044000020E3
:1018900040A500406400002000A0004040A100409E
:1018A00000F50140001100405000002046030020D8
:1018B0000015004001190000480000201900002018
:1018C00010B50C480068012108430A49086000F07F
:1018D00095FB0948806A002805D108490870142042
:1018E000FEF7E6FC04E01420FEF7E2FC00F0AAFAA2
:1018F00010BD000038000020A401002019000020C5
:1019000010B507208002454988604548C068002816
:1019100044D044480068002840D001204249486033
:1019200040033E49886041480068012108433F491F
:1019300008603F48C0893F490968401A401C3E4939
:10194000086000F05BFB3A480078002811D03B4863
:10195000007800280DDD3A49C96AC8B2002100F0BC
:1019600007FA002805D031480068042108432F49B0
:1019700008603448806A002803D02D48007C012884
:1019800006D10020304908701420FEF791FC44E095
:101990001420FEF78DFC00F055FA3EE0254908685A
:1019A000411E244A1160002817D101201E494860B9
:1019B00040031A4988601E48C089401C1E490860BF
:1019C0001A480068022108431849086000201E498F
:1019D00008701420FEF76CFC1FE0FF201C301B4930
:1019E00008601B49096808781A49096888471A4835
:1019F0001349486019481A490860022012490870C2
:101A000001200949086040030449486015484068BE
:101A1000002802D001201449086010BD00F50140E3
:101A2000001100400014004000A0004038000020D9
:101A3000640000203C0000204000002046030020FD
:101A400000150040A40100201900002000120040F1
:101A50001C0000205000002024030020211800005A
:101A60004800002040A100400010004013481449E5
:101A700051221201891808651249114880184165E0
:101A80000E48001D0E49891888650E49091D0C482D
:101A90008018C1650C480A49891808660749F03959
:101AA0000748801841660848001D0549891888665E
:101AB000064903488018C1667047000000110040C5
:101AC00000F0014000A0004040A100400010004094
:101AD00030B58BB004460025FFF782FB002801D10A
:101AE000FFF79EFA00BFFFF77BFB0028FBD030A07A
:101AF00000680A902FA0006809902FA103C90891DF
:101B0000079018222E4901A8FEF716FB002C03D1DE
:101B100001206946487104E0012C02D10020694689
:101B2000487104216846817302210173012101710A
:101B300002214173234802900521684641822249CF
:101B400001820121017601A8FFF7F4FA00280BD1E8
:101B50000AA8FFF7A3FB09A8FFF7BEFB082107A807
:101B6000FFF7D8FB012500E0002501207D22D200EF
:101B700001465143002900D116E000BF00BF00BF5D
:101B800000BF00BF00BF00BF00BF00BF0F4A126808
:101B90000F4B9A4200D101E000BF00BF0A46013A54
:101BA000114600D0EAE700BF00BF28460BB030BDA9
:101BB000E7E7E7E7C2C2C2C2E7C2C3C4C5C6C7C837
:101BC000E021000069100000EE0200001400002077
:101BD0000024F40070B505460026012D03D1FFF75F
:101BE000E1FB044604E0002D02D1FFF725FC04468A
:101BF000002C01D1012600E00026304670BD000017
:101C000070B5044600256078002802D0012808D16C
:101C100003E000201749487005E00120154948708D
:101C200001E0002500BF00BF00201249C87020203D
:101C30000870FF20487161780E4881716068010E5C
:101C40000C48C17160680002010E0A480172A08848
:101C50000004010E07484172217981723421C1725A
:101C6000FFF714FC002801D1012500E000252846DB
:101C700070BD00003D040020F8B504460025002694
:101C800000276078002802D0012808D103E0002056
:101C90002749487005E001202549487001E00025EA
:101CA00000BF00BF00202249C870202008702078A3
:101CB000487161781E4881716068010E1C48C171CD
:101CC00060680002010E1A480172A0880004010E2B
:101CD0001748417221798172A068010E1448C172BF
:101CE000A0680002010E1248017320890004010E51
:101CF0000F484173217A8173A08901120C48C17386
:101D0000217B0174A17B4174E17B8174217CC174CE
:101D1000227C214611311430FEF70EFA0448FFF7F9
:101D2000B5FB002801D1012500E000252846F8BDBB
:101D30003D04002070B5044600257D2C06DC2046BD
:101D4000FFF718FB002801D1012500E000252846F7
:101D500070BD00000020044908624862886203499F
:101D60000862486288627047A4010020F8020020DF
:101D700070B504460D462F48806A082857D22E4871
:101D8000007801280ED12D480078202801DD0020A0
:101D900070BD2A4800782749096A8900254A5158A8
:101DA000087012E024484078002806D12149096AC9
:101DB0008900204A5158087007E01F48C07C1D491F
:101DC000096A89001B4A515808701A49096A890032
:101DD000184B59580A781946096A89005958481DFC
:101DE0001649891CFEF7A8F91248006A80001149BB
:101DF000085844701248806840B2096A89000D4A48
:101E0000515888701046006A8000114608580571C4
:101E10000846006A401C0862082801D300200862B6
:101E20000448806A401C034988620120B0E7002012
:101E3000AEE70000F8020020640000204603002006
:101E40004015004010B50120534908605348406ACE
:101E500080005249085852490860524800780028CA
:101E600002D0012875D128E04D49096808784E490B
:101E7000096888474A48006800794C490870002082
:101E8000487047480068027845480168491D47483E
:101E9000801CFEF751F9FF201C30454908601120D5
:101EA000444948603F48C089434908604348444921
:101EB00008600220434908704CE039480068C07847
:101EC000002803D03748007D002801D1012000E020
:101ED00000200446324800680078344908703048D1
:101EE000006800794006000E4870084640780121DD
:101EF000614008432D494870294800680278284805
:101F00000168491D2948801CFEF716F9002C11D0E4
:101F1000FF201C30264908601120264948602148CE
:101F2000C0892549086025482549086002202549BF
:101F300008700CE0FF2014301D49086010201D4976
:101F4000486021481E49086001201E49087001E0D0
:101F5000FFE700BF00BF1248006840781B49C86215
:101F60000F480068417801208840184908631848E4
:101F7000C07C88600D4848600120FEF767F90120A9
:101F8000FEF78CF900201349486088600861012041
:101F90001149086010BD000040000020A40100208D
:101FA0001C000020640000205000002024030020BA
:101FB00000120040001300403C00002021180000E7
:101FC0004800002019000020C11800000015004042
:101FD00024000020001100400010004004200449AB
:101FE00008610020886003480349086070470000CA
:101FF00000A500400202000000A2004010B50C48FD
:10200000806A002812D00120FEF734F90848806A5F
:10201000401E074988620846406A401C48620828FA
:1020200001D3002048620120FEF738F910BD0000FE
:10203000A401002010B50446E007C00F002804D01A
:102040000F48FEF748FB0F49C861022020400028D6
:1020500005D00B48001DFEF73EFB0A49086204202C
:10206000204000280BD006480830FEF73BFB05490E
:10207000486203480C30FEF735FB0249886210BD08
:1020800024000020001500401048007A1049086123
:102090000E48007A00280AD0012804D002280AD06D
:1020A000032810D10BE030200A4908600CE04020E2
:1020B0000849086008E0FA200649086004E040206A
:1020C0000449086000E000BF00BF704764000020C2
:1020D00000150040440000200B48407A0B4948633B
:1020E0000948407A022804D10948C863094888632E
:1020F00009E00548407A012805D1FF200349C8635B
:10210000FF200830886370476400002000150040FD
:10211000FFFF00002110010010B500F02BF8FFF7C1
:10212000B3FF00F00DF8FFF7D7FF0349C87C034960
:102130000968884710BD000064000020500000209E
:1021400008480078002805D0012807D1064807492B
:10215000086004E006480549086000E000BF00BFD1
:102160007047000064000020B521000050000020EE
:10217000892100000248807A0249C8607047000047
:1021800064000020001500400749084A51610849D1
:10219000497C491E0904012212061143020211431F
:1021A0000143024A9161704700010100001500409F
:1021B0002400002001460748074A50610748407C38
:1021C000401E00040122120610432030024A906192
:1021D00070470000060003000015004024000020A6
:1021E000010000000000000001020000FA000300EE
:1021F0000001022000000000182200000000002062
:1022000064000000B80600007C220000640000208A
:10221000440C0000C80600000000000000000000A0
:102220000000000000000000000001000024F40095
:10223000000000000000000000000000E7E7E7E702
:10224000C2C2C2C2E7C2C3C4C5C6C7C80805FF022E
:10225000000000000000000000000000000000007E
:10226000000000000000000000000000000000006E
:0C22700000000000000005375F000000C7
:04000005000000C136
:00000001FF
