:020000040000FA
:10000000881E0020410100005B0100005D0100002E
:1000100000000000000000000000000000000000E0
:10002000000000000000000000000000D5000000FB
:10003000000000000000000001010000630100005A
:10004000C90900001D0A0000790D000065010000CB
:1000500065010000000000000503000065010000CC
:1000600065010000650100006501000065010000F8
:1000700065010000650100006501000065010000E8
:10008000650100009D0A0000650100006501000097
:10009000010B000065010000650100006501000022
:1000A0006501000065010000000000000000000084
:1000B0000000000000000000000000000000000040
:1000C0000348854600F0C8F800480047591700006B
:1000D000881E00200848006880F30888174B1968BC
:1000E0000868203080F30988022080F314883FBC20
:1000F000AE4662B600BD0000000000000000000037
:10010000EFF309800D4B1A6820381060F0C04446A8
:100110004D4656465F46F0C008B503F088FB0CBC60
:10012000116808681030F0C8A046A946B246BB4620
:1001300080F309882038F0C8184700002400002008
:100140000321094802680A430260084802680A431A
:1001500002600748804707480047FEE7FEE7FEE7E2
:10016000FEE7FEE7FEE700002405004054050040DE
:10017000150D0000C100000003460B439B0703D090
:1001800009E008C9121F08C0042AFAD203E00B785C
:100190000370401C491C521EF9D27047D2B201E0D4
:1001A0000270401C491EFBD270470022F6E710B5D2
:1001B00013460A4604461946FFF7F0FF204610BDD5
:1001C00030B505462A460B4610781C78521C5B1C3D
:1001D000002801D0A042F7D0002C03D0002802D084
:1001E0006D1CEFE7284630BD421C0178401C0029F9
:1001F000FBD1801A7047F0B51FB40646002082B0CC
:1002000005464024019100901BE0019922460F46CB
:10021000304600F043F8049A059B801A994110D3A8
:1002200010461946224600F029F8361A8F410197E8
:10023000224601200021009F00F020F838184D418F
:1002400000902046641E0028DFDC019B00982946B0
:10025000324607B0F0BD0000064C0125064E05E011
:10026000E36807CC2B430C3C98471034B442F7D3D7
:10027000FFF72AFFF44500001446000010B5202ABD
:1002800004DB0146203A9140002010BD914020231C
:100290009C1A0346E3401943904010BD10B5202A34
:1002A00004DB0846203AD040002110BD0B46D34065
:1002B000D0402024A21A91400843194610BD0000E6
:1002C00070B50446002521460448FFF779FF002851
:1002D00001D0012500E00025284670BD76150020DC
:1002E00010B540210448FFF760FF00200349087063
:1002F0000349087010BD000076150020B6000020EC
:10030000B5000020F0B58FB000200E900D90FF20BA
:1003100001300C900126002416E00C9801F004FF37
:1003200000280BD000BF924840683040002805D01C
:100330000C9801F0F1FE0E9830430E9076000C9868
:10034000001D80B20C90641C042CE6D3FF207D308D
:1003500001F0EAFE00280DD0FF207D3001F0DCFE28
:100360000121C9070E9808430E900DAA0121002013
:1003700001F0B4FE0E980007000F00282CD00126D3
:10038000002427E00E983040002821D000BF794893
:10039000512109014018A10040581F2109020840BD
:1003A000000A074600BF7348512109014018A10007
:1003B0004058032109040840000C0B90204601F02E
:1003C0004DF80546002D02D038460B99A84700BFCE
:1003D0007600641C042CD5D30E98C00FC0070028EB
:1003E00076D000200B900A90002505E00020C04345
:1003F000A90009AA50506D1C002DF7D000BF0020A5
:100400000B9000247AE05C48005D0890C0210898B9
:100410008843074658480057401C00286DD009A95A
:10042000384601F06BFA002867D0C02108980840D0
:1004300080110790384601F019F8059001F00EF888
:1004400006900698002802D10798032854D10798EF
:10045000032815D10AA803970290039FF908019178
:10046000039F7907490F039101990298415C012389
:10047000039A93401943CAB20199425400BF00BF86
:1004800000BF00BF052109070846B9000722120274
:1004900082185158032212041140090C05910DA92C
:1004A000384601F02BFA04900498002802D00598F1
:1004B000022805D0049800281DD1059803281AD1D8
:1004C0000798032810D10598022802D1032001E0E3
:1004D0004BE0022003903846039901F08FFD0B9802
:1004E000401CC0B20B9000BF0698002803D03846CD
:1004F000069A0799904700BF00BF641C042C82D362
:100500000B9800282CD0012708AA0121002001F017
:10051000E5FD00250AE0A80008A90858A9000DAAD1
:100520005158884201D0002702E06D1C002DF2D006
:1005300000BF002F02D000200B9010E000250CE03F
:10054000A80008A90858A9000DAA5050A8000AA997
:100550000858A90009AA50506D1C002DF0D000BF0A
:100560000B98002800D04AE700BF0FB0F0BD000094
:100570000063004000600040FC11002070B5A0B096
:1005800005460C4600262078287060786870A078B0
:100590000006E178090408432179090208436179DA
:1005A000084368606878002810D10CA000F08CFB2C
:1005B00010A168466A6800F033FC684600F084FBCE
:1005C00080216846FFF7F1FD012603E011A000F04D
:1005D0007BFB0026304620B070BD000044454255EC
:1005E000473A20416464206E6577206465766963CC
:1005F000650D0A00424F4E442C545950453A474528
:10060000524B4F4E2C49443A3078252E38582C0DF9
:100610000A00000044454255473A20556E6B6E6F04
:10062000776E206465766963652074797065210D45
:100630000A000000F0B5A3B005460C460020229049
:1006400021902078287060786870A0780006E178A2
:100650000904084321790902084361790843686065
:10066000A0790006E17909040843217A09020843C8
:10067000617A0843009026490098884240D1687802
:10068000002837D1A07A0002E17A0843A881207BB4
:10069000A873607BE873A07B28742A7C21460F3105
:1006A00028461130FFF768FD6E7C802101A8FFF716
:1006B0007CFD18A101A86A6800F0B2FB01A8FFF751
:1006C00093FD01A94718AA89334619A1384600F0BD
:1006D000A7FB01A8FFF788FD01A94718EB7BAA7BC0
:1006E00018A1384600F09CFB01A800F0EDFA0120AB
:1006F00021900AE018A000F0E7FA0020219004E021
:100700001CA000F0E1FA00202190219823B0F0BD58
:100710004A3A2A0A54454C452C545950453A4745C3
:10072000524B4F4E2C49443A3078252E38582C00E5
:10073000564241543A25642C53544154453A256459
:100740002C000000465245513A25642C4C4F53541E
:100750003A25642C0D0A000044454255473A20557D
:100760006E6B6E6F776E20646576696365204944B1
:10077000210D0A0044454255473A20556E6B6E6F75
:10078000776E20676174657761792773206D657373
:1007900073616765210D0A00C206D20E01219140E6
:1007A000014A11607047000080E200E0C206D20EEC
:1007B00001219140014A11607047000080E100E092
:1007C000C206D20E01219140014A1160704700001B
:1007D00000E100E0C206D20E01219140014A116001
:1007E0007047000000E200E010B5002819DA1A4A4C
:1007F00003071B0F083B9B089B00D2588307DC0EA6
:10080000FF23A3409A438B071B0E8407E40EA340EB
:100810001A43114B0407240F083CA408A4001A51E2
:1008200018E00E4A03231B02D21883089B00D258FB
:100830008307DC0EFF23A3409A438B071B0E84071C
:10084000E40EA3401A43054B032424021B19840819
:10085000A4001A5110BD00001CED00E000E100E012
:1008600010B5002819DA1A4A03071B0F083B9B082A
:100870009B00D2588307DC0EFF23A3409A438B07CB
:100880001B0E8407E40EA3401A43114B0407240FE8
:10089000083CA408A4001A5118E00E4A03231B02C6
:1008A000D21883089B00D2588307DC0EFF23A34095
:1008B0009A438B071B0E8407E40EA3401A43054B93
:1008C000032424021B198408A4001A5110BD00003F
:1008D0001CED00E000E100E010B5002819DA1A4A2A
:1008E00003071B0F083B9B089B00D2588307DC0EB5
:1008F000FF23A3409A438B071B0E8407E40EA340FB
:100900001A43114B0407240F083CA408A4001A51F1
:1009100018E00E4A03231B02D21883089B00D2580A
:100920008307DC0EFF23A3409A438B071B0E84072B
:10093000E40EA3401A43054B032424021B19840828
:10094000A4001A5110BD00001CED00E000E100E021
:1009500010B5002819DA1A4A03071B0F083B9B0839
:100960009B00D2588307DC0EFF23A3409A438B07DA
:100970001B0E8407E40EA3401A43114B0407240FF7
:10098000083CA408A4001A5118E00E4A03231B02D5
:10099000D21883089B00D2588307DC0EFF23A340A4
:1009A0009A438B071B0E8407E40EA3401A43054BA2
:1009B000032424021B198408A4001A5110BD00004E
:1009C0001CED00E000E100E010B5FF20013000F078
:1009D000A0FF00280CD0FF20013000F0A5FF01206F
:1009E00000F0A8FF01200C494870002000F076FDBF
:1009F000FF20053000F08DFF00280BD0FF200530D0
:100A000000F092FF022000F095FF0120024988705B
:100A100000F064FD10BD0000A811002010B51B48B7
:100A20000068002808D01A484068C007C00F002896
:100A300002D00020154908601448C06800280FD073
:100A40001348406808210840002809D000200F49B9
:100A5000C86010480068002802D00E48006880472F
:100A60000A48006900280FD0094840681021084052
:100A7000002809D0002005490861074800680028BF
:100A800002D005480068804710BD000000110040FA
:100A900000130040AC000020A800002038B5FF2162
:100AA0000131154801F04BFBFF214131124801F0A3
:100AB00046FB00BF0021009100BFEFF31081084604
:100AC000002801D172B602E001216A461170009C33
:100AD00000BF03F07FFB002804D001200007074976
:100AE000486040BF2046009069460978002900D13F
:100AF00062B600BF38BD00000010014000ED00E00C
:100B00003EB519480068019002A801F023F8044698
:100B1000002C27D115480068002823D00298C00770
:100B2000C00F002806D000206946087068460F49AB
:100B300009688847022102980840002806D0012051
:100B4000694608706846094909688847042102987F
:100B50000840002806D0022069460870684603490C
:100B6000096888473EBD0000A000002080000020EA
:100B700010B504460B20424948610920C860002096
:100B80003F494031C862E1210902601A8C4245D0D8
:100B900015DC3C49601A8C4234D009DC3A48201AF2
:100BA00022D03949401A24D04900401A4FD125E0BB
:100BB0003449401A2AD04900401A48D12AE0334A21
:100BC000811A904236D006DC3149401A2AD04900B9
:100BD000401A3CD12AE0E120C002081A2ED02D494B
:100BE0004018002833D12DE04F20000324494862EB
:100BF0002DE09D2000032249486228E02648204934
:100C0000486224E025481E49486220E024481C49E7
:100C100048621CE023481A49486218E022481849F3
:100C2000486214E021481649486210E020481449FF
:100C300048620CE01F481249486208E01E4810490B
:100C4000486204E0012000070D49486200BF00BF70
:100C50000020C043194988600420486008490860A2
:100C6000022001218140164A116000BF0321FFF7D5
:100C70006FFE022001218140124A116000BF10BDA9
:100C80000025004080250000B00400000027060079
:100C900000E10000C0CDFEFF00B0130000502700AF
:100CA00000A04E0000509D0000F0EB0000E0D701D6
:100CB00000B0AF0300705F0700D0BE0E00230040FD
:100CC00080E200E000E100E010B50346002404E00B
:100CD000185D00F007F8601C84B2185D0028F7D199
:100CE00010BD00000121084A91600849C86100BF99
:100CF0000749C9690029FBD00021054AD1610121BA
:100D0000014AD160704700000020004000250040EB
:100D10000021004010B500F099FC002805D01048D3
:100D200010494860C8131049886100F073FC00281E
:100D300002D001200D49886000F0BEFC00280ED0D2
:100D40000B480068012807D00A480949086000BF1D
:100D5000074800680128FBD1C0200549486110BD43
:100D6000DFFF07C000050040006C004000060040A7
:100D700000EC06407593000010B5204880680128FB
:100D80003BD100201D4988601D4880691D490870BD
:100D90001D4801780078401C1B4A1070402902DD74
:100DA000002011460870174800780A280AD0154814
:100DB000017815480078401E144A11540020144947
:100DC00008701AE00F4801780F480078401E0F4A5B
:100DD000115410491048006803F007F90D480068E5
:100DE00000280AD000BF012000070C49486040BF1E
:100DF000BFF34F8FBFF36F8F00BF10BD00210040C6
:100E000000250040B4000020B50000207615002029
:100E1000B6000020BC000020B800002000ED00E07B
:100E20000FB410B504A9074B02AA039800F02AF8E2
:100E3000044602A9002000F05FFA204610BC08BC5E
:100E400004B01847F912000030B47446641E2578C7
:100E5000641CAB4204D3635D5B00E31830BC1847ED
:100E60001D46F8E702E008C8121F08C1002AFAD19F
:100E700070477047002001E001C1121F002AFBD11A
:100E800070470000FFB591B00F460546002606E00A
:100E900025280AD0149A139990476D1C761C28783F
:100EA0000028F5D1304615B0F0BD00240094012192
:100EB000F34A029400E004436D1C2B780846203B63
:100EC00098401042F7D128782A280ED0022128789D
:100ED0000246303A092A15D8009A0A235A43303A72
:100EE00080180C436D1C0090F1E701CF00900028A2
:100EF00005DA01204003044300984042009002209C
:100F000004436D1C28782E2815D1042004436878EA
:100F10006D1C2A280AD101CF6D1C02900BE00299AA
:100F20000A225143303940186D1C0290287801463E
:100F300030390929F3D928786C2810D006DC4C28E0
:100F40001AD068280ED06A2817D104E0742813D06C
:100F50007A2812D110E00120400504430CE0012161
:100F6000090501E0032109050C436978814203D199
:100F70000120000524186D1C6D1C287803906E2834
:100F80001ED00CDC632831D004DC00288AD058281D
:100F900011D1B2E064287BD069280CD178E07328A5
:100FA0002DD004DC6F2870D0702804D1A7E07528FC
:100FB0006CD078286BD0149A13999047761C62E015
:100FC0006002400F022807D003280AD0042838689E
:100FD0000AD006603F1D56E03868F1170660416090
:100FE000F8E738680680F5E70670F3E73878694671
:100FF00008740020487404A80390012003E03868B6
:1010000003900020C0433F1D61070FD5002101E080
:101010000199491C029A0191914213DA8142F7DB4E
:10102000019A0399895C0029F2D10BE0002101E0CB
:101030000199491C01918142FADB019A0399895C6B
:101040000029F5D101990098139A401A0090214681
:10105000149B00F03BF901998019461807E00398AA
:1010600003990078491C0391149A139990470198A9
:10107000401E0190401CF2D12146149B139A009807
:1010800000F014F986196D1C09E741E033E034E003
:101090000A200021049005916002410F022905D029
:1010A00001CFC2179446032905D007E0FF1DFF08B2
:1010B000FF0003CF06E000B2C2179446042902D114
:1010C00040B2C1178C4600226146944506DA0A46B2
:1010D0000021404291418C462D2102E0210504D59A
:1010E0002B216A461176012103E0E10701D020217E
:1010F000F7E7019154E00A200BE0102009E01020EE
:10110000049000210420044308200591029003E08C
:1011100008200021059104906002410F022905D0AA
:1011200001CF00229446032906D006E0FF1DFF08E8
:10113000FF0003CF8C4603E080B2042900D1C0B287
:101140000021019121072BD50399702906D0049A1B
:101150001021059B4A401A4305D00EE040216A4603
:101160001176012108E06146014306D030216A462C
:1011700011760399517602210191049A0821059B69
:101180004A401A430CD16146014301D1610707D59A
:1011900030216A461176012101910299491E02917E
:1011A0000399582904D037A103910FA90F910DE09D
:1011B00039A1F9E76146059B049AFFF71CF8039BE8
:1011C0008C469B5C0F9A521E0F921370614601432E
:1011D000F0D10F9807A9081A20300390600704D5B2
:1011E000012000048443029801E001200290039949
:1011F000884201DD401A00E0002041180290019869
:1012000009180098401A0090E00306D42146149B68
:10121000139A009800F05AF886190020049008E00C
:1012200006A9085C149A139990470498401C761CF0
:10123000049001998842F3DBE0030CD52146149B0E
:10124000139A009800F042F8861904E0149A3020AE
:1012500013999047761C0299481E02900029F5DCEC
:1012600008E00F980F990078491C0F91149A139970
:101270009047761C0399481E03900029F1DCFBE699
:10128000092801003031323334353637383961625C
:101290006364656600000000303132333435363720
:1012A000383941424344454600000000F8B5044641
:1012B00000251E461746880404D405E03946202040
:1012C000B0476D1C641EF9D52846F8BDFFB504462D
:1012D000002581B01E46C80301D5302700E0202735
:1012E000880404D505E038460399B0476D1C641E98
:1012F000F9D5284605B0F0BD0A68531C0B60107084
:10130000704710B50446204600F084F800BA10BDBE
:1013100000B5024600F006F800BD00B5024600F038
:101320000BF800BD72B603480068401C0149086014
:10133000704700007400002005480068401E044902
:10134000086008460068002800D162B670470000B7
:101350007400002030B502460C49885C00BF0524AB
:101360002407214624150C196368012484409C43FA
:1013700005252D024D19AC60012484401C40052533
:101380002D024D19EC6000BF30BD00008C450000FF
:1013900010B504460249085D012100F07EFE10BD33
:1013A0008C450000F0B585B00020044620E01349CC
:1013B000085D01210A46002501950295039500BFAD
:1013C00005231B07009353000B43019DAD002B43E6
:1013D000029D2D022B43039D2D042B4386000727DE
:1013E0003F02009DED19AB5100BF00BF601C0446D9
:1013F000032CDCD300F004F805B0F0BD8C450000F0
:1014000010B5002403E02046FFF7C2FF641C032C44
:10141000F9D310BD014608680D4A024012090C4B71
:10142000DB4303401B011A4310460A4A024092085C
:10143000084BDB4303409B001A431046064A024018
:101440005208054BDB4303405B001A4310467047CC
:10145000F0F0F0F0CCCCCCCCAAAAAAAA0146880025
:10146000014A105870470000BC1100200146014895
:1014700040567047DC11002010B5FF201430104991
:1014800008601049C87C1049096888470F4810490E
:10149000486000200F49086101200F49086100BF22
:1014A0000C4800690028FBD000200A490861FF2091
:1014B00018300349086001200749486010BD00004A
:1014C0000012004004120020B0000020E6140020AA
:1014D00000150040001100400010004070B50546A6
:1014E000002D01D1094C01E0084C08340AE02046E7
:1014F00000F00CF90646002E00D104E02846716881
:10150000884700BFF3E700BF70BD0000B0110020A6
:1015100000200549086001208107086000BF0248DB
:1015200000680028FBD070470001004001200649F8
:101530000968002901D0002004E004490968002955
:1015400000D0002070470000441100204C00002013
:1015500010B50446152000F089FD17480078401C9E
:101560001549087008460078012808D1134800780A
:10157000134908700846007801F044FC1BE00E484F
:101580000078022808D10F4800780D4908700846F5
:10159000007801F037FC0EE00748007803280ADBEA
:1015A00009480078064908700846007801F02AFCCE
:1015B00000200149087010BD10000020CB00002061
:1015C000CA000020CC000020CD00002010B501F0A2
:1015D00015FD002007E0252141430A4A89188200B1
:1015E000094B9950401C0828F5DB002007E0252115
:1015F0004143064A89188200054B9950401C08282F
:10160000F5DB10BD1C1200204413002070130020D5
:10161000981400200C48008CC0B2012812D10A484E
:10162000808C0007000F00280CD10748806AF02149
:101630000840402806D10448C06A0840002801D16B
:10164000012070470020FCE7C00F00F01948008C13
:10165000C0B201282CD11748808C0007000F002849
:1016600026D11448806AF0210840002806D111488C
:10167000C06A0840002801D1012070470D48806AE7
:10168000F0210840102806D10A48C06A0840002806
:1016900001D10120F1E70748806AF0210840302895
:1016A00006D10448C06A0840002801D10120E4E7BF
:1016B0000020E2E7C00F00F01348008CC0B2012800
:1016C0001FD11148808C0007000F002819D10E4847
:1016D000806AF0210840A02806D10B48C06A084063
:1016E000002801D1012070470748806AF021084096
:1016F000D02806D10448C06A0840002801D1012042
:10170000F1E70020EFE70000C00F00F00146086895
:10171000002801D002680A607047026803E08A422C
:1017200000D170471268002AF9D10368002B01D05C
:10173000036800E000230B60016000BFF1E710B513
:10174000FF20053000F0F0F8022000F0F9F8082042
:1017500000F0FCF810BD00001FB5FFF7D9FEFFF741
:1017600021FEFFF74DFEE1204002FFF701FA0020C5
:1017700001F054FB00280FD0304800783049087041
:101780000846007801F02AFC002805D02DA0FFF7BC
:101790009BFA012001F0CAFB31A0FFF795FA032262
:1017A0000021012002F07CFA344908600022202147
:1017B0000A2002F075FA3249086032A0FFF784FA75
:1017C0000020374A012302900093019203900346C0
:1017D000B42234A1354802F069FC0020344A0223C7
:1017E00002900093019203900346782231A133487E
:1017F00002F05CFC324800230122C821009031A095
:1018000002F04EFE3149086002F0DEFC0446002082
:1018100003462246012100902C48006802F082FE17
:101820002BA0FFF751FA34480069042108433249DC
:10183000086102F09FF900BFFEE70000CB00002026
:10184000CA00002044454255473A204761746577F5
:1018500061792072756E6E696E672E2E2E0D0A00EC
:1018600044454255473A204372656174652051757D
:101870006575652E2E2E0D0A00000000B8000020B0
:10188000C000002044454255473A204372656174C8
:1018900065207461736B732E2E2E0D0A00000000FC
:1018A00000000020524144494F000000A5320000D2
:1018B0000400002055415254000000009D340000F7
:1018C0005115000046524551000000000C00002058
:1018D00044454255473A20537461727420467265FC
:1018E0006552544F53207363686564756C65722E3E
:1018F0002E2E0D0A0000000000ED00E030B502467B
:101900000B46D4085207520F012090401D5D28401D
:1019100030BD01460120800708180068002801D06A
:10192000012070470020FCE7002101229207821865
:101930001160704701498860704700000003004053
:1019400001494860704700000003004001218A07F8
:10195000821811607047000010B504461648807860
:10196000002810D0002C02D0012061688847002098
:10197000FFF7CEFC1048C068401C0F49C86000202B
:10198000FFF7CBFC17E00020FFF7C2FC002C04D0CF
:10199000214609481030FFF7C0FE0748C0680028FC
:1019A00001D1FFF7CCFE0448C068401C0249C86062
:1019B0000020FFF7B2FC10BDA811002010B50F20C9
:1019C00080020B49886000200A49087001F016FB6C
:1019D00024210948FEF7E9FB09210848FEF7E5FB49
:1019E0001420FEF7E3FE032005490860002010BD27
:1019F00000F5014079000020121500200815002094
:101A00000012004010B504462078002804D00128B8
:101A100009D0022842D10DE021A0FFF755F901209D
:101A2000264908703AE026A0FFF74EF901202B491D
:101A3000087033E02CE02A480078002828DD294887
:101A4000006800281BD02748006801F088FE0028A5
:101A500015D020222249491D2348FEF78DFB002383
:101A60001A4621491F48006802F088FA012803D06D
:101A70001EA0FFF729F905E001F084FF02E024A091
:101A8000FFF722F92BA0FFF71FF90120304908705A
:101A9000134800F0E1F80028CDD000BF00BF10BD12
:101AA00044454255473A20545820535543434553E3
:101AB00053204556454E540D0A000000C800002032
:101AC00044454255473A205458204641494C4544E4
:101AD000204556454E540D0A00000000C900002064
:101AE000F8150020C0000020D815002044454255BC
:101AF000473A20526164696F2051756575652061B0
:101B00006464206661696C6564210D0A0000000050
:101B100044454255473A20526164696F20517565CA
:101B20007565206E6F2066726565207370616365F0
:101B3000210D0A0044454255473A2052582053553A
:101B40004343455353204556454E540D0A0000006B
:101B5000C700002010B5044600BF0D4800780028DB
:101B600001D1082010BD00BF00BF002C01D10E2004
:101B7000F8E700BF0120FEF719FE06480068206064
:101B80000020044908600120FEF71AFE0020E9E762
:101B9000780000209800002070B5044600BF002C9B
:101BA00001D10E2070BD00BF1F480078002806D06C
:101BB000FFF704FF0546002D01D02846F2E71B4938
:101BC00060680860182221461948FEF7D5FA0020FF
:101BD0001849086024211848FEF7E7FA0921174838
:101BE000FEF7E3FA01F03AFDFFF7F0FC01F04AFBE3
:101BF00000F0E4FC0E48407C8107890F0120FEF7CD
:101C00006BFE0B48807C8107890F1420FEF764FE71
:101C10001420FEF7D5FD0020094908700120024973
:101C200008700020BEE7000078000020800000203F
:101C30000412002098000020121500200815002032
:101C40007900002003480078002801D10120704766
:101C50000020FCE77900002010B5044600BF2648AC
:101C60000078002801D1082010BD00BF00BF002C63
:101C700001D10E20F8E700BF2048806A002801D17A
:101C80000520F1E70120FEF791FD1C48406A800025
:101C90001A490858007820700846406A80000858A1
:101CA000407860700846406A800008588078A070CC
:101CB0000846406A8000085800792071227808465A
:101CC000406A80000B461858411D601DFEF754FA0B
:101CD0000A48406A401C09494862082801D300208C
:101CE00048620648806A401E044988620120FEF767
:101CF00067FD0020B8E7000078000020981400205D
:101D000010B5044600BF0B480078002801D0112010
:101D100010BD00BF00BF002C01D10E20F8E700BFAE
:101D2000042221460448FEF727FA012001F024FC92
:101D30000020EDE7790000208400002010B5044663
:101D400000BF0B480078002801D0112010BD00BF53
:101D500000BF002C01D10E20F8E700BF042221466D
:101D60000448FEF709FA022001F006FC0020EDE726
:101D7000790000208800002070B505460C4600BFA1
:101D800013480078002801D0112070BD00BF00BFAB
:101D9000002D01D10E20F8E700BF00BF092C01DBA8
:101DA0000720F2E700BF224629460A48FEF7E4F979
:101DB0000848083804740820011BFF200841054921
:101DC00008398874042001F0D7FB0020DDE700000B
:101DD000790000208C000020014600BF08480078F0
:101DE000002801D01120704700BF00BF7D2901D914
:101DF0000720F8E700BF034AD1740020F3E7000092
:101E0000790000208400002010B500BF1948007838
:101E1000002801D0112010BD00BF0020C04316498A
:101E20008860002015490861154816490860FF20A0
:101E300018301549086010200F49486004200D49EA
:101E400008701248807C124908631048C07C886082
:101E5000104848600120FEF79FFC0120FEF7B0FC0F
:101E60000020064948608860086101200A494860EE
:101E70000020D0E77900002000130040001100404E
:101E800061210000A8000020001200408400002012
:101E900000150040E6140020001000400E480078B5
:101EA000042816D100200D490860401E0C498860A6
:101EB00000200C4908600C49086101200B490861A9
:101EC00000BF094800690028FBD0002002490870C3
:101ED0007047FF200230FBE779000020001200402D
:101EE00000130040A8000020001100400010004036
:101EF00010B5044600BF3C480078002801D10820F6
:101F000010BD00BF00BF002C01D10E20F8E700BFBC
:101F100000BF207800280BD02078202808DC334828
:101F20000078002806D120783049C97C884201DD3C
:101F30000920E5E700BF00BF2D48806A082801D3CB
:101F40000420DDE700BF29484078002808D1E07868
:101F5000002805D02548007D002801D10620CFE7C4
:101F60000120FEF723FC2249096A8900204A5058C3
:101F700025222146FEF700F961781E4A515C481C73
:101F8000C117890F091889108900411A6278194B05
:101F9000995460781946085C1549096A8900144A01
:101FA000515808711046006A401C11460862082802
:101FB00001D3002008620E48806A401C0C498862E8
:101FC0000120FEF7FDFB09484078002809D10748A9
:101FD000007C002805D108480078002801D101F0D4
:101FE00085F800208CE70000780000200412002013
:101FF00044130020081500207900002030B50A465F
:1020000000BF05231B0719468300072424020C196F
:10201000E35803242404A343840007252D024D190B
:102020002B518300072424020C19E3581404234382
:10203000840007252D024D192B5130BD00BF05210D
:1020400009070A460121814005231B02D318D960E4
:1020500000BF704700BF052109070A4601218140E2
:1020600005231B02D318996000BF704710B500BF4D
:1020700005231B0719461B15CB185A6801238340FB
:102080009343052424020C19A360012383401340C9
:10209000052424020C19E36010BD10B500290DD1F0
:1020A00000BF00BF0522120713460122824005240B
:1020B00024021C19E26000BF00BF0DE000BF00BF9A
:1020C00005221207134601228240052424021C190E
:1020D000A26000BF00BF00BF10BD000078B50B4676
:1020E000094C24680094014609E08D006E4674593D
:1020F00005252D0265192D691560121D491CC4188E
:102100008C42F2D878BD0000944500000146014899
:10211000081870470060004010B504462046FFF7DD
:10212000F5FF0021016010BD10B504462046FFF701
:10213000EDFF0068012800D110BD0020FCE700225F
:1021400042507047032212028218916070470322A6
:1021500012028218516070470122425070470000FD
:10216000F8B500250026012760480068002802D144
:10217000FFF782F9F8BD5E48806A082802D3FFF7AE
:102180007BF9F7E75948806880005A494418574856
:10219000C0682188884207D1574840784010A1780C
:1021A000884201D101260027534840784010A07092
:1021B0004E48C06820805148007D002805D04E4818
:1021C0004078C007C00F002800D10125002D75D030
:1021D000FF201C304A49086048480078002853D046
:1021E00001285CD14748806A002840D04548406AB1
:1021F00080004449085840783C498968884236D173
:10220000E078012815D1002E13D13E48406A401CC9
:102210003C494862082801D3002048623948806A56
:10222000401E384988623848006801210843364911
:1022300008600120E0703348406A80003149085846
:1022400032490860096808783149096888472F4889
:10225000006800782F4908702C48006802782B48E5
:102260000168491D2B48801CFDF786FF07E0002010
:10227000E0702749096888470020264908701E48F1
:102280004078244948700AE00020214909688847BD
:10229000194800781F4908700020487000BF00BF2F
:1022A00005201D490870114880681C49C8621948FA
:1022B00048601B481B49086002E0FFE7FFF7DCF8B5
:1022C000002F10D0A178094A9268D0B200F0A4FE85
:1022D000002808D00C480068042108430A49086017
:1022E0001420FEF777FA00BF44E700000014004016
:1022F0009814002012150020E6140020041200207B
:102300000012004044130020980000207C000020B0
:10231000B0000020C4140020790000200015004007
:1023200029230000A800002010B5FF20183008491C
:1023300008600849C87C084909688847074808496F
:10234000486008480849086004200849087010BD22
:102350000012004004120020B0000020E61400200B
:102360000015004061210000A80000207900002035
:1023700010B5FF2014301849086018480068184943
:1023800008601848808982381749152292018918F7
:10239000486001201449C8600020144908600021E9
:1023A0001248416007208002114948604814886043
:1023B00000201049C8600B480078002802D10E495F
:1023C000096888470D480E4948600E480E49086064
:1023D00003200E49087010BD00120040A400002028
:1023E00040A500400412002000A0004040A1004091
:1023F00000F5014000110040B0000020E61400206C
:102400000015004051240000A800002079000020A1
:1024100010B50C480068012108430A49086001F022
:102420007FF80948806A002805D1084908701420FF
:10243000FEF7D0F904E01420FEF7CCF900F056FEC8
:1024400010BD0000980000204413002079000020F7
:1024500010B507208002454988604548C0680028BB
:1024600044D044480068002840D0012042494860D8
:1024700040033E49886041480068012108433F49C4
:1024800008603F48C0893F490968401A401C3E49DE
:10249000086001F045F83A480078002811D03B4820
:1024A000007800280DDD3A49C96AC8B2002100F061
:1024B000B3FD002805D031480068042108432F49A6
:1024C00008603448806A002803D02D48007C012829
:1024D00006D10020304908701420FEF77BF944E053
:1024E0001420FEF777F900F001FE3EE02549086868
:1024F000411E244A1160002817D101201E4948605E
:1025000040031A4988601E48C089401C1E49086063
:102510001A480068022108431849086000201E4933
:1025200008701420FEF756F91FE0FF201C301B49ED
:1025300008601B49096808781A49096888471A48D9
:102540001349486019481A49086002201249087066
:102550000120094908604003044948601548406863
:10256000002802D001201449086010BD00F5014088
:10257000001100400014004000A00040980000201E
:10258000041200209C000020A0000020E61400207F
:102590000015004044130020790000200012004084
:1025A0007C000020B0000020C41400207123000033
:1025B000A800002040A1004000100040134814492A
:1025C0005122120189180865124911488018416585
:1025D0000E48001D0E49891888650E49091D0C48D2
:1025E0008018C1650C480A49891808660749F039FE
:1025F0000748801841660848001D05498918886603
:10260000064903488018C166704700000011004069
:1026100000F0014000A0004040A100400010004038
:1026200010B504460E48006844600E4800688442B5
:1026300007D20B480168091D0B48006801F0ABF890
:102640000CE007480168091D0848006801F0A3F87C
:1026500007480068844201D20548046010BD0000AC
:10266000240000203C0000202C0000202800002036
:1026700058000020F8B505460F46002F03D1A800EA
:1026800000F060FB00E038460646002E0BD04820E4
:1026900000F058FB0446002C01D0266304E03046CD
:1026A00001F0BCF800E00024002C04D0A900A52211
:1026B000206BFDF773FD2046F8BD000010B501F05A
:1026C00091F81148006800281BD1104801F053F818
:1026D0000F4801F050F80D480E4908600C480E49AB
:1026E000086000221021202001F0DAFA0649086073
:1026F00008460068002804D008A10348006801F0DB
:102700004FF901F07BF810BD680000208011002017
:10271000941100206000002064000020546D72516C
:102720000000000070B525E001F05AFA1448006876
:10273000002801D1012000E00020054601F042FE02
:10274000002D17D101F04EF80D48C068C468201D57
:1027500000F0E8FF0B480068401E0A4908600A487C
:102760000068401E0849086001F048F8204600F063
:1027700065F800BF044800680028D5D170BD00008E
:1027800058110020380000203000002070B50446A9
:102790000D46206C00280ED0216CE0684018E060E7
:1027A0006168E068884201D32068E0602846226CB6
:1027B000E168FDF7E1FC70BDF8B504460E4615462C
:1027C0000027206C002809D12068002831D16068DA
:1027D00001F086FD0746002060602AE0002D0FD141
:1027E0003146226CA068FDF7C7FC216CA068401838
:1027F000A0606168A06888421BD32068A06018E0D0
:102800003146226CE068FDF7B7FC216CE068401AA5
:10281000E0602168E068884203D2216C6068401A59
:10282000E060022D05D1A06B002802D0A06B401EF5
:10283000A063A06B401CA0633846F8BD10B50446E9
:10284000206B00F0EBFF204600F0E8FF10BD000019
:1028500009490968C96A002901D000200AE007492E
:102860000968012901D9002004E005490968054AE1
:102870001268881A7047000024000020E010002031
:10288000580000203C0000200146094A12681268E6
:10289000002A01D1012200E000220A600A68002A11
:1028A00004D1034A1268D268106800E00020704723
:1028B0006000002000BFFFF735FF0C4800680128CA
:1028C00001D901F05FF8FFF7C3FF0446022C0BD3D8
:1028D00001F086F9FFF7BCFF0446022C02D3204624
:1028E00000F0E8FF01F06EFDE5E70000E0100020D9
:1028F000F8B504460F461546002608E0B95D2046A7
:1029000034308155B85D002800D102E0761C042ED9
:10291000F4D300BF002137200155032D00D3022539
:10292000E562A5630020E063201D00F031FF204632
:10293000183000F02DFF24610320401BA061646269
:1029400000202064002144200155F8BD10B500246A
:1029500006E0142161430E4A881800F00CFF641C45
:10296000032CF6D30B4800F006FF0B4800F003FFE2
:102970000A4800F000FF0A4800F0FDFE094800F098
:10298000FAFE04480849086003480849086010BD79
:10299000E01000201C110020301100204411002004
:1029A000581100206C110020280000202C0000206D
:1029B000F8B504460D4616461F4600200090656097
:1029C0002461B5420CD8F01BA169884202D30120D2
:1029D000009011E0211D0948006800F0DCFE0BE0CA
:1029E000BE4204D2BD4202D30120009004E0211D6A
:1029F0000348006800F0CFFE0098F8BD6400002096
:102A00006000002070B5054600F0ECFEA86B0028C1
:102A100001D1012400E0002400F0F0FE204670BD4A
:102A200070B5054600F0DEFEA86BE96B884201D167
:102A3000012400E0002400F0E1FE204670BD00000B
:102A4000F8B505460E4610480068C068C468201DE9
:102A500000F068FEE069012812D1A06941192B46F7
:102A600032462046FFF7A4FF012809D10020034683
:102A70002A4601460090204601F054FD074600BF5B
:102A80002046616A8847F8BD60000020F0B587B035
:102A900059E00398002805DA04AF3A68B968786805
:102AA000904700BF039800284DDB059C6069002813
:102AB00001D1012000E00020002802D1201D00F0FB
:102AC00031FE02A800F090F8054603980300FEF7D7
:102AD000BBF90A0A06082729340709282A3800BF43
:102AE00000BF00BF00BF0498A269811803462A46B0
:102AF0002046FFF75DFF012811D12046616A884713
:102B0000E06901280BD1002000900498A1694218C7
:102B100000231946204601F005FD064600BF11E0DE
:102B200000BF0FE000BF0498A061A06941192B46C7
:102B30002A462046FFF73CFF04E0204600F06EFEE8
:102B400000E000BF00BF00231A4603A90348006845
:102B500001F0CCF800289CD107B0F0BD680000203F
:102B6000F8B504460E4601F03BF8684600F03CF824
:102B700005460098002816D1002E08D1AC4206D890
:102B800001F020FC29462046FFF75AFF0DE0611BAB
:102B90000648006800F01AFF01F014FC002804D178
:102BA00000F0F0FE01E001F00DFCF8BD680000202F
:102BB0000B4909680968002901D1012100E00021C1
:102BC000002904D00021C943064A116006E00449E7
:102BD0000968C968C868034A416811607047000005
:102BE000280000205800002070B5044601F0ECFADF
:102BF000054607480068854204D200F00BF8012022
:102C0000206001E00020206001480560284670BD7A
:102C100070000020FEB526E01C480068C06805680A
:102C20001A480068C068C468201D00F07BFD20467B
:102C3000616A8847E069012815D1A0694619AE424A
:102C400007D966602461211D1048006800F0A3FDCB
:102C500009E0002003462A4601460090204601F084
:102C600061FC019000BF094800680068002801D19C
:102C7000012000E000200028CED004480768044866
:102C800000680249086002480760FEBD600000203D
:102C90006400002000BF72B600BF00BFFEE708B5A9
:102CA00000BF6846FFF7F0FD044620460099FFF795
:102CB00057FFFFF7EBFEF4E710B5044600F092FD76
:102CC00014E0606A002801D1012000E00020002803
:102CD00008D12046243001F033FB002803D000F057
:102CE000B1FE00E005E0A06C401EA064A06C0028CE
:102CF000E7DC00BF0020C043A06400F07FFD00F0CF
:102D000071FD14E02069002801D1012000E00020BD
:102D100000280BD12046103001F012FB002801D012
:102D200000F090FE606C401E606400E002E0606CA9
:102D30000028E7DC00BF0020C043606400F05EFDB7
:102D400010BD000070B5044600256007400F002844
:102D500004D06007400F0821081A041900F040FF52
:102D600011480068002804D11048C008C0000E496E
:102D700008600F48006800190E49884210D20C48BC
:102D8000006800190A490968884209D9064800689C
:102D90000749096845180648006800190449086091
:102DA00001F010FB284670BD1C000020D800002058
:102DB00018000020F80F000006480068002806D020
:102DC0000449096808463C30C96B491C0160014848
:102DD000006870472400002008B5001F00230093FE
:102DE000064B1B680093009B0360001F0160001FDF
:102DF000034B036014380260203808BD9045000082
:102E0000952C000010B50446002000F08FF82046F5
:102E100000F0E4F8012000F089F810BD30B58BB067
:102E20000446002501203749C863FEF70BFF002840
:102E300001D1FEF7C3FD00BFFEF704FF0028FBD061
:102E400031A000680A9031A00068099030A103C940
:102E5000089107901822304901A8FDF78DF9002C40
:102E600003D101206946487104E0012C02D1002001
:102E7000694648710421684681730221017301216A
:102E80000171022141732548029006216846418262
:102E9000234901820121017601A8FEF77DFE002869
:102EA0000BD10AA8FEF72CFF09A8FEF747FF08215F
:102EB00007A8FEF761FF012500E0002501207D2223
:102EC000D20001465143002900D116E000BF00BFE7
:102ED00000BF00BF00BF00BF00BF00BF00BF114A5E
:102EE0001268114B9A4200D101E000BF00BF0A46B0
:102EF000013A114600D0EAE700BF00BF28460BB0F8
:102F000030BD0000C01F0040E7E7E7E7C2C2C2C211
:102F1000E7C2C3C4C5C6C7C8DC450000051A000027
:102F2000EE020000140000200024F40070B50546F5
:102F30000026012D03D1FEF767FF044604E0002DB3
:102F400002D1FEF7ABFF0446002C01D1012600E0C0
:102F50000026304670BD000070B50446002560783C
:102F6000002802D0012808D103E000201A49487047
:102F700005E001201849487001E0002500BF00BFAE
:102F80002020154908700020C870FF204871617822
:102F9000114881716068010E0F48C17160680002BC
:102FA000010E0D480172A0880004010E0A4841720A
:102FB000217981720A21C1722A2101733A21417358
:102FC0004A2181733321C173FEF792FF002800D19B
:102FD0000125284670BD00001D16002070B504466E
:102FE00000257D2C06DC2046FEF7F6FE002801D1E8
:102FF000012500E00025284670BD0000002004499E
:1030000008624862886203490862486288627047C1
:10301000441300209814002070B504460D462F4834
:10302000806A082857D22E48007801280ED12D48F2
:103030000078202801DD002070BD2A48007827494B
:10304000096A8900254A5158087012E024484078DE
:10305000002806D12149096A8900204A5158087080
:1030600007E01F48C07C1D49096A89001B4A515866
:1030700008701A49096A8900184B59580A78194684
:10308000096A89005958481D1649891CFDF774F8CA
:103090001248006A8000114908584470124880683C
:1030A00040B2096A89000D4A515888701046006A7A
:1030B00080001146085805710846006A401C0862E5
:1030C000082801D3002008620448806A401C034994
:1030D00088620120B0E70020AEE7000098140020CD
:1030E00004120020E61400204015004010B5012015
:1030F000534908605348406A800052490858524971
:10310000086052480078002802D0012875D128E0D4
:103110004D49096808784E49096888474A48006857
:1031200000794C49087000204870474800680278D0
:1031300045480168491D4748801CFDF71DF8FF20E0
:103140001C30454908601120444948603F48C08907
:1031500043490860434844490860022043490870D5
:103160004CE039480068C078002803D03748007D1B
:10317000002801D1012000E0002004463248006808
:103180000078344908703048006800794006000E25
:103190004870084640780121614008432D49487035
:1031A00029480068027828480168491D2948801C80
:1031B000FCF7E2FF002C11D0FF201C3026490860EC
:1031C0001120264948602148C089254908602548C2
:1031D000254908600220254908700CE0FF201430C2
:1031E0001D49086010201D49486021481E4908609B
:1031F00001201E49087001E0FFE700BF00BF124830
:10320000006840781B49C8620F4800684178012077
:103210008840184908631848C07C88600D48486099
:103220000120FDF7B9FA0120FDF7CAFA0020134981
:1032300048608860086101201149086010BD0000E5
:10324000A0000020441300207C0000200412002075
:10325000B0000020C4140020001200400013004001
:103260009C00002071230000A800002079000020AD
:1032700011240000001500408400002000110040CF
:1032800000100040042004490861002088600348C1
:10329000034908607047000000A5004002020000DA
:1032A00000A2004008B5B6E05B480078002845D091
:1032B0000020594908705948007801282CD1002075
:1032C0005649087056495748FDF758F9002823D049
:1032D0001520FEF7BFFEFA2000F096FB1520FEF742
:1032E000ADFE642000F090FB1520FEF7B3FEFA203F
:1032F00000F08AFB1520FEF7A1FE642000F084FB9D
:103300001520FEF7A7FEFA2000F07EFB1520FEF741
:1033100095FE642000F078FB0020FFF77FFD012080
:10332000FFF704FE00F050FF04460020034622464B
:10333000012100903C48006801F0F4F83B48007817
:10334000002813D0002039490870FFF767FD0120DD
:10335000FFF7ECFD00F038FF04460020034622464C
:10336000012100903048006801F0DCF83048007816
:10337000002850D02F48006800284CD02D48006805
:1033800000F0E4F9002846D0002029490870FFF732
:10339000CDFD00200346024603210090224800682C
:1033A00001F0C0F831E000231A461D4921480068A9
:1033B00000F09CFC012803D01FA0FDF785FC24E051
:1033C00027A0FDF781FC1520FEF750FE1449154893
:1033D000FDF730F9002809D029A0FDF775FC012080
:1033E000FFF71CFD0F48FFF7B7FD0EE00120FFF7C8
:1033F0009DFD00F0E9FE044600200346224601211F
:1034000000900948006801F08DF80A48006800F053
:103410009DF90028C7D147E7C8000020C50000205B
:10342000D81500205C1600200C000020C9000020E8
:10343000C7000020C000002044454255473A2051B3
:1034400075657565206D6573736167652072656369
:1034500065697665206661696C6564210D0A000006
:1034600044454255473A205175657565206D657331
:10347000736167652072656365697665640D0A002E
:1034800044454255473A2053656E64206F6B207463
:103490006F20646576696365210D0A002AE00020CB
:1034A000FDF758FF0120144908600023821E1946C9
:1034B0001248006800F01AFC002818D010A0FCF791
:1034C000FFFE002813D0FCF70BFF0FA0FDF7FCFB5D
:1034D000FF20F53000F098FA00BFBFF34F8F0E4881
:1034E0000E49C860BFF34F8F00BF00BFFEE7052045
:1034F00000F08AFAD3E7000000200040B800002066
:103500007265626F6F7400005265626F6F74696EEE
:10351000672E2E2E0D0A00000400FA0500ED00E0D3
:1035200010B50C48806A002812D00120FDF73EF942
:103530000848806A401E074988620846406A401C65
:103540004862082801D3002048620120FDF738F9BD
:1035500010BD00004413002008B50020009000BFFB
:10356000EFF310800146002901D172B602E001207C
:103570006A461070009808BD10B50446E007C00FF9
:10358000002804D00F48FDF7BCFE0F49C861022097
:103590002040002805D00B48001DFDF7B2FE0A4967
:1035A00008620420204000280BD006480830FDF7B0
:1035B00031FF0549486203480C30FDF72BFF0249F3
:1035C000886210BD84000020001500401048007A79
:1035D000104908610E48007A00280AD0012804D05A
:1035E00002280AD0032810D10BE030200A490860D5
:1035F0000CE040200849086008E0FA20064908600D
:1036000004E040200449086000E000BF00BF7047AC
:103610000412002000150040A40000200B48407A4E
:103620000B4948630948407A022804D10948C86315
:103630000948886309E00548407A012805D1FF2040
:103640000349C863FF2008308863704704120020D4
:1036500000150040FFFF00002110010010B500F030
:103660002BF8FFF7B3FF00F00DF8FFF7D7FF034982
:10367000C87C03490968884710BD00000412002077
:10368000B000002008480078002805D0012807D1A4
:1036900006480749086004E006480549086000E05C
:1036A00000BF00BF7047000004120020F936000080
:1036B000B0000020CD3600000248807A0249C86080
:1036C0007047000004120020001500400749084A16
:1036D00051610849497C491E09040122120611431F
:1036E000020211430143024A916170470001010047
:1036F000001500408400002001460748074A506139
:103700000748407C401E000401221206104320306E
:10371000024A906170470000060003000015004057
:103720008400002001460A694B68886898608B68AD
:10373000486858605068884201D18868506000200D
:1037400008611068401E10601068704770B504462C
:1037500000F048F8A56B00F051F8284670BD70B530
:103760000446254600F03EF8A96BE86B461A00F0C7
:1037700045F8304670BD0146083141600021C9431B
:10378000816001460831C16001610021016070471C
:1037900000210161704710B502460B685C1C002CCB
:1037A00001D1106907E01046083000E04068446825
:1037B00024689C42FAD944684C604C68A1608860D7
:1037C00041600A611468641C146010BD42684A605C
:1037D00093688B60936859609160086103685B1C13
:1037E0000360704700BF72B600BF03480068401C0A
:1037F000014908607047000020000020064800686A
:10380000401E0549086008460068002803D100BF33
:1038100062B600BF00BF704720000020704708B5A7
:10382000009069460978002900D162B608BD38B514
:1038300000BF0021009100BFEFF31081084600286F
:1038400001D172B602E001216A461170009C00BFEE
:1038500000F0CEF92046009069460978002900D191
:1038600062B600BF38BD000010B50020FEF774F846
:1038700020200E49052212028918886000BF01210C
:103880000A48FEF764FC08210848FEF765FC0021A1
:103890000648FEF761FC0F211120FCF7E1FF112023
:1038A00001218140024A116000BF10BD001001409B
:1038B00000E100E0FEB504462F48844200D90446EA
:1038C00000BF72B600BF00BF2C4805210902401896
:1038D000456800BFFDF72AFE002849D028190002DC
:1038E000000A009001212548FEF72CFC2348002106
:1038F000009A8B001526B6018619F25000BFFF21F1
:103900004131FEF71CFC012109041C48FEF71FFC95
:10391000BFF34F8F0194019C002C05D000BF20BF46
:10392000174800680028FAD0012109041348FEF75F
:1039300009FC00BF114805210902401840680746EC
:10394000FF2101310D48FEF7FAFB01210B48FEF77C
:10395000FEFBBD4202D9012000063F187E1BA64295
:1039600000D92646002E02D0304600F031F900BFC3
:1039700000BF62B600BFFEBDFDFFFF0000100140AA
:1039800000E200E000BF012000070449486040BF9A
:10399000BFF34F8FBFF36F8F00BF704700ED00E0A4
:1039A00010B5024600200BE0C300074CE358002B83
:1039B00005D1C300E150C3001B195A6002E0401C4E
:1039C0000228F1D300BF10BDD010002070B505460D
:1039D0000E462C46FFF706FF606C401C002800D105
:1039E0006064A06C401C002800D1A064FFF706FFB3
:1039F000A06B002804D131462046243000F04EF858
:103A00002046FFF759F970BD70B504460026002C1A
:103A10000FD000F0E5F8094800680519084800686B
:103A2000001DFFF77FFE2846FEF7FAFD00F0CAFCF6
:103A30000646002E01D1FFF7A5FF70BD3C00002017
:103A40002400002001200149086070474C0000203C
:103A500070B506460C460E48016818313046FFF72F
:103A60009AFE0B480068001DFFF75CFE601C0028F2
:103A700006D107480168091D0648FFF7A7FE05E0C3
:103A80000548006805192846FEF7CAFD70BD00000C
:103A9000240000206C1100203C00002070B5054679
:103AA0000C460948016818312846FFF78FFE064882
:103AB0000068001DFFF736FE04480068061930460E
:103AC000FEF7AEFD70BD0000240000203C00002089
:103AD00070B505462C46002D39D01D49E06A0968AD
:103AE000C96A884233D2A069C00FC007002805D137
:103AF00017480068C06A0321081AA0611422E06A0E
:103B00005043144A80186169814201D1012000E0CC
:103B10000020002817D0201DFFF704FE0C48006885
:103B2000C06AE0620C49E06A0968884202D90A4921
:103B3000E06A08601422E16A5143064A8818211D90
:103B4000FFF744FE03E002480068C06AE06270BD0F
:103B500024000020E01000204000002003490968F4
:103B6000016003490968416070470000500000206F
:103B70003C0000201FB500200F4A00900290034631
:103B8000019203903C220DA10E4800F08FFA0446EA
:103B9000012C02D100F0A2FC0446012C0AD100BF86
:103BA00072B600BF0120084908600020074908607C
:103BB00000F05EF81FBD00003400002049444C4571
:103BC00000000000B5280000440000203C00002058
:103BD000024909680918014A116070473C00002039
:103BE00002480068401C0149086070475C000020E2
:103BF0001A480068002803D00120194908602BE00A
:103C000000201749086004E016480068401E154966
:103C100008601448006814214843134908580028D4
:103C200001D1012000E000200028EDD10D490968F4
:103C3000142251430C4A8818416849684160014682
:103C4000083142688A4202D141684968416041684E
:103C5000C968064A116000BF704700005C00002080
:103C60004C00002040000020E01000202400002034
:103C70000F210120C043FCF7B7FDFFF7F5FD002041
:103C80000549086005480069102108430349086197
:103C9000FCF720FAFEF7FEFF2000002000ED00E018
:103CA000FEB507460D4600200090002D01D1019081
:103CB00003E038466843401C0190019908464C30A7
:103CC000FFF740F80646002E0ED03446002D01D1F5
:103CD000246002E030464C302060E7632564012117
:103CE000204600F099F800940098FEBDFFB583B01F
:103CF00005461E46002002902C4600BFFFF772FDCD
:103D0000A06B002836D0E76820460499FEF73EFDF8
:103D1000002E19D1A06B401EA0632068002802D19C
:103D2000FFF74AF860602069002801D1012000E017
:103D30000020002819D12046103000F001FB012896
:103D400013D1FFF71FFE10E0E760606A002801D181
:103D5000012000E00020002807D12046243000F098
:103D6000EFFA002801D0FFF70DFEFFF747FD012015
:103D700007B0F0BD0598002803D1FFF73FFD0020F4
:103D8000F6E70298002804D16846FFF7E7FE012015
:103D90000290FFF733FDFFF723FFFFF723FD606C71
:103DA000401C002800D16064A06C401C002800D199
:103DB000A064FFF723FD05A9684600F047F9002835
:103DC00023D12046FEF71EFE002818D020680028C8
:103DD00006D1FFF707FD6068FFF77AFEFFF70EFDDB
:103DE000204624300599FFF733FE2046FEF764FF96
:103DF00000F0E8FA002881D1FFF7C4FD7EE72046F5
:103E0000FEF75AFF00F0DEFA78E72046FEF754FF8F
:103E100000F0D8FA0020ABE770B505460E462C46F8
:103E2000FFF7E0FC216CE06B4843216840186060BC
:103E30000020A0632068A060E06B401E216C484316
:103E400021684018E0600020C0436064A064002E38
:103E500010D12069002801D1012000E000200028B5
:103E600010D12046103000F06BFA01280AD1FFF77C
:103E700089FD07E020461030FFF77DFC2046243006
:103E8000FFF779FCFFF7BAFC012070BDFFB583B0E6
:103E900007461D46002002903C4600BFFFF7A2FCEB
:103EA000A06BE16B884201D3022D1FD12A46204628
:103EB0000499FEF781FC0646606A002801D10120C2
:103EC00000E00020002808D12046243000F038FA15
:103ED000012806D1FFF756FD03E0002E01D0FFF7C1
:103EE00051FDFFF78BFC012007B0F0BD05980028BD
:103EF00003D1FFF783FC0020F6E70298002804D1E5
:103F00006846FFF72BFE01200290FFF777FCFFF7D2
:103F100067FEFFF767FC606C401C002800D16064FE
:103F2000A06C401C002800D1A064FFF767FC05A925
:103F3000684600F08BF8002819D12046FEF770FD86
:103F400000280ED0204610300599FFF781FD20464D
:103F5000FEF7B2FE00F036FA00289FD1FFF712FDFF
:103F60009CE72046FEF7A8FE00F02CFA96E72046D4
:103F7000FEF7A2FE00F026FA0020B5E7FFB581B0FB
:103F8000054616462C46FFF7E7FA0090A06BE16B5A
:103F9000884202D30498022820D12046049A02992C
:103FA000FEF70AFCA06C401C002812D1606A0028B1
:103FB00001D1012000E0002000280DD1204624304E
:103FC00000F0BEF9002807D0002E05D00120306097
:103FD00002E0A06C401CA064012700E000270098CC
:103FE000FFF71DFC384605B0F0BDF8B505460E4696
:103FF0002C46FFF7B1FA0090A06BE16B88421ED20D
:10400000A06B401CA063A06C401C002812D1606A09
:10401000002801D1012000E0002000280DD1204619
:10402000243000F08DF9002807D0002E05D00120A3
:10403000306002E0A06C401CA064012700E0002773
:104040000098FFF7ECFB3846F8BD000070B5044659
:104050000D46FFF7C7FB134802682868401C00287C
:1040600001D1002619E0104920680968884204D06F
:104070006068904201D801260FE06068101A296834
:10408000884209D228686168511A401A286020467F
:10409000FFF764FD002600E00126FFF7AFFB304686
:1040A00070BD00003C00002050000020FFB583B030
:1040B00015460C9F28460E99FEF7DCFA0446002CA4
:1040C00052D0681E8000216B081802900298C00828
:1040D000C000029000953A4620460F9B0499FEF7D7
:1040E00007FC069A03990298FEF776FE20600D9869
:1040F000002801D00D980460FFF774FB2348006886
:10410000401C2249086022480068002808D1204845
:1041100004600846006801280DD1FEF717FC0AE08C
:104120001C480068002806D119480068C06AB842D7
:1041300001D81748046018480068401C16490860F8
:104140001649E06A0968884202D91449E06A0860A1
:104150001422E16A5143124A8818211DFFF736FBE9
:104160000126FFF74BFB01E00026F643012E0AD1A2
:1041700008480068002806D005480068C06AB842B0
:1041800001D2FFF7FFFB304607B0F0BD380000203A
:1041900024000020440000205400002040000020A3
:1041A000E010002006490968002901D1012006E03D
:1041B00004490968002901D1022000E0002070476D
:1041C000440000205C00002001490868704700009E
:1041D0003C000020F8B50020009036480068002818
:1041E0005BD135480068401C3349086008460668C2
:1041F000002E0FD131480768314800682F49086008
:104200002F4807602F480068401C2E490860FEF7C1
:10421000CFFC00BF2C48006886423DD300BF274832
:1042200000680068002801D1012000E0002000287B
:1042300004D00020C043244908602CE01F480068D7
:10424000C068C4686568AE4202D21F48056022E0BB
:10425000201DFFF767FAA06A002803D02046183017
:10426000FFF760FA1949E06A0968884202D91749DC
:10427000E06A08601422E16A5143154A8818211D3A
:10428000FFF7A4FA1349E06A0968C96A8842C6D3ED
:1042900001200090C3E700BF04E00F480068401C05
:1042A0000D4908600D480068002801D001200090E9
:1042B0000098F8BD5C0000203C0000202800002091
:1042C0002C0000205000002058000020400000205A
:1042D000E010002024000020480000204C000020B6
:1042E00070B505462C460026002D23D0E06B401EFD
:1042F000E063A16BE06A88421CD0E06B002819D112
:10430000201DFFF70FFAA06BE0620321E06A081A94
:10431000A0610949E06A0968884202D90649E06A51
:1043200008601422E16A5143044A8818211DFFF7EE
:104330004DFA0126304670BD40000020E0100020FC
:1043400070B50646F068C46820461830FFF7EAF9F1
:1043500016480068002813D1201DFFF7E3F914491F
:10436000E06A0968884202D91149E06A08601422AB
:10437000E16A51430F4A8818211DFFF727FA04E02C
:10438000214618310C48FFF721FA0C49E06A096808
:10439000C96A884204D9012501200949086000E062
:1043A0000025FEF705FC284670BD00005C000020DB
:1043B00040000020E01000204411002024000020D4
:1043C0004C00002070B50025FFF70CFA2C4800685F
:1043D000401E2B4908600846006800284CD1294837
:1043E0000068002848D022E02748C068C4682046FA
:1043F0001830FFF797F9201DFFF794F92349E06A79
:104400000968884202D92149E06A08601422E16AF9
:1044100051431F4A8818211DFFF7D8F91D49E06A4A
:104420000968C96A884202D301201B4908601648FE
:104430000068002801D1012000E000200028D3D02E
:1044400016480068002810D00BE0FFF7C3FE0028D4
:1044500002D001201049086010480068401E0F4932
:1044600008600E4800680028EFD10B48006801285A
:1044700002D10125FFF786FAFFF7C0F9284670BD83
:104480005C00002038000020441100204000002083
:10449000E0100020240000204C00002048000020F4
:1044A000FFB581B006460D461746002D01D1002408
:1044B00011E02820FEF746FC0446002C0BD0FEF746
:1044C000FDF82660A561E761049820620A986062A1
:1044D000201DFFF75DF9204605B0F0BD1FB5002493
:1044E000FEF7ECF80A48006800280DD00020094AC1
:1044F000022302900093019203900346502206A1EA
:104500000748FFF7D3FD0446204604B010BD000065
:10451000680000206C000020546D72205376630008
:104520009F2C0000F0B585B005460C4616461F4688
:104530000020049014480068002822D000940196BE
:104540000295062C15DAFFF72DFE022808D100236C
:1045500069460D480A9A0068FFF798FC049010E03D
:1045600000231A46694608480068FFF78FFC04904C
:1045700007E000233A46694603480068FFF7FEFC5F
:104580000490049805B0F0BD6800002015161700CF
:1045900000000001000000506E72665F6472765F7A
:1045A0006770696F74655F696E6974006E72665FCB
:1045B0006472765F6770696F74655F6F75745F6949
:1045C0006E6974006E72665F6472765F6770696FA1
:1045D00074655F696E5F696E6974000001000000B8
:1045E0000000000001020000FA00030000010220A8
:1045F000000000001446000000000020D000000071
:10460000640E0000E4460000D0000020B81D000049
:10461000740E000000000000000000000000000018
:1046200000000000000000000024F4000000000072
:10463000000000000000000000000000000000007A
:10464000000000000000000000000000000000006A
:10465000000000000000000000000000000000005A
:10466000000000000000000000000000FFFFFFFF4E
:10467000000000000000000000000000000000003A
:10468000000000000000000000000000000000002A
:104690000000000000000000E7E7E7E7C2C2C2C276
:1046A000E7C2C3C4C5C6C7C80805FF0200000000B2
:1046B00000000000000000000000000000000000FA
:1046C00000000000000000000000000000000000EA
:1046D00000000000000000000000000000000005D5
:0446E000375F000040
:04000005000000C136
:00000001FF
