:020000040001F9
:10F0000070640020B5F40100BDF40100BFF40100FC
:10F01000C1F40100C3F40100C5F4010000000000C8
:10F0200000000000000000000000000015F40100D6
:10F03000C9F401000000000059F40100CDF4010002
:10F0400041F80100CFF401002DFC0100CFF40100D4
:10F05000CFF40100CFF40100D9F50100CFF4010095
:10F06000CFF40100CFF40100CFF40100CFF4010090
:10F07000CFF40100CFF40100CFF40100CFF4010080
:10F08000CFF4010091F80100CFF40100CFF40100AA
:10F09000CFF40100CFF40100D1F90100CFF4010059
:10F0A000CFF40100CFF40100CFF40100CFF4010050
:10F0B000CFF40100CFF401000000000000000000C8
:10F0C000CFF40100CFF40100CFF40100CFF4010030
:10F0D000D9F80100CFF40100CFF4010000000000D6
:10F0E0000000000000000000000000000000000020
:10F0F0000000000000000000000000000000000010
:10F1000000000000000000000000000000000000FF
:10F1100000000000000000000000000000000000EF
:10F40000DFF80CD000F0AAF800480047754202006F
:10F4100070640020264B19680868B0E8F04F80F34C
:10F420000988BFF36F8F4FF0000080F31188704799
:10F43000000000000748006880F3088862B661B6E3
:10F44000BFF34F8FBFF36F8F4FF4F07080F31188CD
:10F4500000DF000000F00100EFF30980BFF36F8FC1
:10F46000134B1A681EF0100F08BF20ED108A20E918
:10F47000F04F106008B44FF0200080F31188BFF304
:10F480004F8FBFF36F8F0AF0F3F94FF0000080F356
:10F49000118808BC19680868B0E8F04F1EF0100F1A
:10F4A00008BFB0EC108A80F30988BFF36F8F7047F4
:10F4B0005C2200200648804706480047FEE7FEE73A
:10F4C000FEE7FEE7FEE7FEE7FEE7FEE7FEE7FEE714
:10F4D00011FA010001F4010040EA01039B0703D087
:10F4E00009E008C9121F08C0042AFAD203E011F883
:10F4F000013B00F8013B521EF9D27047D2B201E045
:10F5000000F8012B491EFBD270470022F6E710B528
:10F5100013460A4604461946FFF7F0FF204610BD81
:10F52000421C10F8011B0029FBD1801A704730B52E
:10F5300004460020034600E05B1C934203D2E05CDB
:10F54000CD5C401BF8D030BD034611F8012B00F80C
:10F55000012B002AF9D1184670470000064C074DD0
:10F5600006E0E06840F0010394E807009847103493
:10F57000AC42F6D3FFF748FFA0A70200C0A70200E5
:10F5800070B58C1810F8015B15F0070301D110F865
:10F59000013B2A1106D110F8012B03E010F8016B92
:10F5A00001F8016B5B1EF9D12B0705D40023521E15
:10F5B0000DD401F8013BFAE710F8013BCB1A921C7D
:10F5C00003E013F8015B01F8015B521EF9D5A1427B
:10F5D000D8D3002070BD00002DE9F04F89B04FF066
:10F5E0000008002008904FF4807007900126002446
:10F5F00013E0079805F0B8FB48B100BF81480068E8
:10F60000304020B1079805F0A1FB48EA06087600D3
:10F610000798001D80B20790641C082CE9D34FF4B2
:10F62000BE7005F0A1FB50B14FF4BE7005F08EFB2B
:10F6300048F0004808AA0121002005F06DFB08F001
:10F64000FF0000B3012600241BE006EA0800B0B169
:10F6500000BF6D4850F82400C0F30420074600BFE7
:10F66000694850F82400C0F301408146204602F06A
:10F67000F9F9054615B149463846A84700BF760056
:10F68000641C082CE1D308F0004000287ED0002044
:10F6900006900590002505E04FF0FF3004A941F8E1
:10F6A00025006D1C002DF7D000BF0020069000241F
:10F6B0006FE05648005D0390039820F0C007534860
:10F6C0000057401C002863D004A9384604F048FFC6
:10F6D00000285DD003984FEA901A384602F00AFAE3
:10F6E000814602F0BFF90290029810B9BAF1030FF7
:10F6F0004BD1BAF1030F11D1394605A80246CB0808
:10F7000001F0070112F803C04FF0010E0EFA01FEDE
:10F710004CEA0E0C02F803C000BF00BF00BF00BFE0
:10F720004FF0A041084600F5E06151F82710C1F301
:10F73000014900BF08A9384604F012FF8346BBF117
:10F74000000F02D0B9F1020F05D0BBF1000F1BD1A1
:10F75000B9F1030F18D1BAF1030F0FD1B9F1020FAC
:10F7600001D1032000E0022001903846019905F004
:10F7700090FA0698401CC0B2069000BF029818B1DB
:10F7800051463846029A904700BF00E036E000BF7D
:10F79000641C042C8DD3069858B3012703AA0121B9
:10F7A000002005F0B9FA00250AE003A850F825006A
:10F7B00008A951F82510884201D0002702E06D1CED
:10F7C000002DF2D000BF17B10020069010E00025F8
:10F7D0000CE003A850F8250008A941F8250005A869
:10F7E00050F8250004A941F825006D1C002DF0D02B
:10F7F00000BF069800287FF458AF00BF09B0BDE8ED
:10F80000F08F00000463004010650040182A0020BB
:10F8100000F01F0201219140024A430942F82310DF
:10F820007047000080E100E000F01F0201219140DC
:10F830004209920002F1E022C2F800117047000074
:10F8400010B54FF4807004F0FCFE60B14FF480708E
:10F8500004F000FF012004F007FF01200B4948706D
:10F86000002002F0B7FA4FF4827004F0EAFE58B1BB
:10F870004FF4827004F0EEFE022004F0F5FE012049
:10F880000249887002F0A6FA10BD0000B4290020D9
:10F8900010B54FF480710E4805F084FA4FF4A07152
:10F8A0000B4805F07FFA00BF00BFEFF3118004465C
:10F8B000202000F0E1FA00BF0AF0D0FC20B14FF0A8
:10F8C00080500449086040BF002000F0D5FA10BD08
:10F8D0000010014004ED00E010B5042200210248B0
:10F8E00005F03AF910BD0000004002402DE9FC414E
:10F8F00004460D46164600BF0C48007808B900F0D3
:10F90000DBF900BF002001900090684600F014FE73
:10F9100032462946204600F00BF8074600BF9DF806
:10F92000000000F00FFE3846BDE8FC81E02D00200D
:10F930002DE9F047074688461646C24607EB4701C1
:10F940001B4800EBC109D9F8140020B1012811D0DF
:10F95000022826D11EE0484600F0E6F90546B542E9
:10F9600001D2002405E0344632465146484600F0B4
:10F9700022FA18E0484600F0D7F90546B54201D210
:10F98000284600E03046044622465146484600F0EC
:10F9900012FA08E032465146484600F0D3F90446D0
:10F9A00001E0002400BF00BF2046BDE8F087000052
:10F9B000F82D002070B505460C462046FFF7B0FD37
:10F9C0000646324621462846FFF790FF70BD0000EC
:10F9D00070B50A48006868B1084800688047044666
:10F9E00000BF254625B100BF284600F099FC00BFA6
:10F9F00000BF01E004F09AF870BD00004022002032
:10FA000001480249086070470090D0036821002037
:10FA100010B502F001FC10B176487749486702F052
:10FA200013FC28B175480068C0F34230744908607F
:10FA300002F034FC28B17348006820F080707149EE
:10FA4000086002F043FC48B100206F4908604FF0A5
:10FA50008041C1F810016A49091F086002F060FC8A
:10FA600018B1032066496431086002F071FC68B186
:10FA7000052066490860012064497831086000204B
:10FA80006249083108603F20091F086002F078FCD5
:10FA9000002855D05E4800685E4908605C48001D3B
:10FAA0000068091D08605A4808300068091D086090
:10FAB00057480C300068091D086055481030006830
:10FAC000091D0860524814300068091D086050483C
:10FAD000183000684F49203108604D481C300068DC
:10FAE000091D08604A4820300068091D0860484820
:10FAF00024300068091D0860454828300068091D49
:10FB0000086043482C300068091D086040483030C8
:10FB100000684049403108603D4834300068091DA4
:10FB200008603B4838300068091D086038483C30A0
:10FB30000068091D0860364840300068091D0860EB
:10FB400002F040FB30B12D481430006800F04F0047
:10FB5000314908602B487438006840F47000294926
:10FB600074390860BFF34F8FBFF36F8F2B48006865
:10FB700000F0004028B92948001D006800F000404E
:10FB800098B301202649086000BF26480068002875
:10FB9000FBD015202149086000BF224800680028DA
:10FBA000FBD015211D48001D016000BF1D480068E5
:10FBB0000028FBD000201A49086000BF19480068DF
:10FBC0000028FBD000BFBFF34F8F0E48F03800680D
:10FBD00000F4E06014490843001D0A49F039086048
:10FBE000BFF34F8F00BF00BFFEE7FFE7FFF708FF3F
:10FBF00010BD00000DF0ADBA00C007404402001077
:10FC00003C050040FCED00E00C01004010560040B7
:10FC10000404001020C50040E40E00400012001053
:10FC200004E5014000E401400000FA0510B51B485E
:10FC30000068012827D1002018490860184800688A
:10FC40001849194A12888854174801880088401CAE
:10FC5000154A1080B1F5807F02DD00201146088032
:10FC60001249134800680AF0FAF91048006850B1C8
:10FC700000BF4FF080500F49086040BFBFF34F8F67
:10FC8000BFF36F8F00BF05483C300068012804D1E6
:10FC9000002002493C31086000BF10BD082100402F
:10FCA000182500406C430020B4220020BC22002014
:10FCB000B822002004ED00E010B5124C02202061B3
:10FCC000606111A0A0611349E1614FF400712162EC
:10FCD0000021A1626162E1620BA0A0640E49E164AF
:10FCE000102121650021A1656165E1650BA1E01D81
:10FCF000FFF72AFC0AA12046FFF726FC2020A0716E
:10FD000010BD0000E02D00205465726D696E616CBD
:10FD100000000000D02B0020D02D002052545400B1
:10FD2000534547474552000010B501460A69CB6864
:10FD30009A4204D88C68641EE41AA01801E0D41A10
:10FD4000601E10BD2DE9F0470446894617464FF066
:10FD5000000AE56800BFD4F81080A84503D9A8EBD5
:10FD60000500461E04E0A5EB0800401CA1680E1A21
:10FD7000A068401BB04201D9304601E0A068401B9A
:10FD80000646BE4201D2304600E03846064661686B
:10FD9000481932464946FFF79FFBB244B144BF1BA6
:10FDA0003544A068A84200D10025E560002FD2D1DB
:10FDB0005046BDE8F0872DE9F047044689461546D0
:10FDC000E668A068871BAF4208D9616888192A468F
:10FDD0004946FFF781FB7019E06010E0B8466168A2
:10FDE000881942464946FFF777FBA5EB070809EB60
:10FDF000070142466068FFF76FFBC4F80C80BDE85E
:10FE0000F08702E008C8121F08C1002AFAD1704723
:10FE10007047002001E001C1121F002AFBD170478A
:10FE20000146202908DA012088400A4A104008B11A
:10FE3000012070470020FCE7402909DAA1F12000E9
:10FE4000012202FA00F008B10120F2E70020F0E7F9
:10FE50000120EEE7FC06FFBC00BFEFF3108108466F
:10FE600072B6704700BFEFF31081084672B6704754
:10FE7000C1B281F311887047C1B281F31188704714
:10FE8000C1B281F311887047C1B281F31188704704
:10FE900070B505460C4605B10CB9002070BD287838
:10FEA00040082178B0EB510F01D00020F6E7062280
:10FEB000611C681CFFF73BFB08B90120EEE700203E
:10FEC000ECE70246002104E0505C08B101207047D5
:10FED000491C0629F8D30020F9E7000010B50446B4
:10FEE0006CB108480068A04209D806484068A042A2
:10FEF00005D3204603F0EAFE08B1012010BD002022
:10FF0000FCE70000C02200202DE9FC4104468846A1
:10FF10001646002537880020308094F82D0058B10F
:10FF20003A463146404601F005F8054600BF15B196
:10FF30002846BDE8FC8100BFA07850B13A46314662
:10FF4000404600F023FB054600BF0DB12846F0E710
:10FF500000BFE07860B1E17848B23B4632464146A6
:10FF600002F0B6FD054600BF0DB12846E1E700BF2F
:10FF7000606868B1616891F900003B4632464146CD
:10FF800008F0CAFF054600BF0DB12846D1E700BF03
:10FF9000208900280EDD43460622022104F10800D4
:10FFA000CDE9006709F076F8054600BF0DB1284697
:10FFB000BFE700BF208A00280EDD43460722032149
:10FFC00004F11000CDE9006709F064F8054600BFB0
:10FFD0000DB12846ADE700BF208B00280EDD43465B
:10FFE0001522142104F11800CDE9006709F052F838
:10FFF000054600BF0DB128469BE700BF206A58B1F7
:020000040002F8
:100000003B4632464146206A01F029FF054600BFC3
:100010000DB128468DE700BF606A58B13B463246B5
:100020004146606A04F0AEF9054600BF0DB12846AE
:100030007FE700BF94F82C0000280BDD3B463246DA
:100040004146204608F094FA054600BF0DB1284607
:100050006FE700BF207858B13B4632464146204604
:1000600004F0CBF9054600BF0DB1284661E700BF9B
:1000700028465EE770B504461448FFF722FF0546A0
:10008000012C06D0022C0BD0032C10D0042C1AD13A
:1000900013E00F48407810B10DB1012070BD00BFD2
:1000A0000B48807810B10DB10220F7E700BF084877
:1000B000C07808B10320F1E700BF0548007908B116
:1000C0000420EBE700BF0020E8E7000071210020DA
:1000D000642400200146481C052290FBF2F302FB39
:1000E0001300C0B270470146C87800F0040008B998
:1000F000072070470020FCE710B5012202210020F4
:1001000001F02AFA044600BF1CB1072C01D020469A
:1001100010BD00BF07220221012001F01DFA044694
:1001200000BF1CB1072C01D02046F1E700BF0A2216
:100130000021084601F010FA044600BF1CB1072C4C
:1001400001D02046E4E700BF0020E1E730B599B0D8
:100150003C210AA8FFF7D9F902208DF828000120D8
:100160008DF82A0006208DF82B000120ADF838000C
:1001700010490F91202102A8FFF7C7F901208DF83F
:100180000B004FF496700690B420079000200A4BA5
:1001900002AA014600900AA800F034FB044600BF02
:1001A000254625B100BF284600F0BAF800BF00BFC1
:1001B00019B030BD2A210020F54D020070B58CB079
:1001C00004460D461646002005E0C0F10F01615CB3
:1001D0000DF80010401C1028F7D30D2104A8FFF7DC
:1001E00094F9002005E02A5CC0F10F0304A9CA5469
:1001F000401C0328F7D3684643DF002005E0C0F128
:100200000F0208A9895C3154401C0328F7D30CB0B5
:1002100070BD10B50446022000F0FAFF10BD0000CA
:1002200010B5002407E00749096811F834000121DE
:1002300004F0E6FA641C044800788442F3D30020FA
:1002400010BD00000C220020102200202DE9F843F0
:1002500006460C461746052F02D20720BDE8F88354
:1002600004F0CCFB38B904F099FB054600BF0DB192
:100270002846F3E700BF1648066016480470164883
:1002800007600020154908601549086015E006EB75
:10029000C40814480068009098F802008DF8010026
:1002A00098F80000104A694604F000FB054600BFBC
:1002B0000DB12846D2E700BF00BF201EA4F1010106
:1002C000CCB2E4D1094A0021094800F043F8C5E75F
:1002D0000C220020102200201422002018220020CE
:1002E0001C22002084A70200F5330200B120020086
:1002F00080A7020000BFBFF34F8F0748006800F4DB
:10030000E06006490843001D03490860BFF34F8FB2
:1003100000BF00BFFEE700000CED00E00000FA05A2
:100320003EB50446002000900190029002946A4677
:10033000002144F20100FFF7DDFF3EBD70B5054628
:10034000284607F0CFF90446207B10B1A168206849
:10035000884770BD2DE9F8430546884616462C6847
:100360004FF0000906B115B90720BDE8F883207BDE
:1003700008B10820F9E76068D0B90020206060600B
:10038000A060E060B8F1000F01D1002700E0012774
:10039000A660094823463A464FF47A71009007A0B8
:1003A0000AF0DCF86060606820B94FF00E0901E0E7
:1003B0000820DAE74846D8E73D03020020000000A5
:1003C00030B50446601C024D2860002030BD00009E
:1003D0003C2200202DE9FC5F05460E4617462C46C0
:1003E000D4F804803448006800F1010933480068FB
:1003F000704300EB5900B0FBF9FAB8F1000F02D1DD
:100400000820BDE8FC9F207B002806D040460AF06B
:100410001DF9002801D00020F3E7276000BFEFF3AB
:10042000058048B30020019001AB5246092100909D
:1004300040460AF0D5F8012801D00420E1E709F090
:1004400007FF8346002001AB5A4606210090404634
:100450000AF0C6F8012801D00420D2E7019850B173
:1004600000BF4FF080501649086040BFBFF34F8F68
:10047000BFF36F8F00BF1AE0022000235246042111
:10048000009040460AF0ACF8012801D00420B8E7FB
:1004900009F0D8FE8346022000235A46012100902D
:1004A00040460AF09DF8012801D00420A9E7012068
:1004B00020730020A5E70000081501403C22002021
:1004C00004ED00E07CB5044625466E68002E01D19F
:1004D00008207CBD00BFEFF30580D0B10020019063
:1004E00001AB02460821009020460AF079F8012865
:1004F00001D00420EDE7019850B100BF4FF08050CB
:100500000C49086040BFBFF34F8FBFF36F8F00BF30
:100510000BE0022000231A460321009020460AF037
:100520005FF8012801D00420D3E70020287300BF22
:10053000CFE7000004ED00E010B50446204607F0C8
:10054000C9FC10BD70B5044625460E488068B0B1A0
:10055000ADB9FFF781FC06460A4800680A49086001
:10056000084840684FF0E021C1F804010020054927
:1005700088601EB900BF62B600BF00BF00BF00BFE9
:1005800070BD0000402A002000E100E0F8B50546FB
:100590000C4617462088001DB84201D90C20F8BD32
:1005A000684679DF064600BF0EB13046F7E700BF68
:1005B0000320218868542088401C2080192021882D
:1005C00068542088401C208020884119BDF8000014
:1005D00008F0C3FC2188084420800020DFE70000E9
:1005E00038B509F02FFE04460220002322460121DF
:1005F00000900648006809F0F3FF012804D000BF0E
:100600000420FFF78DFE00BF38BD0000442100200C
:1006100030B58BB01348007800F05AFC05462846E8
:1006200007F0C0FCD8B101A800F0B2FB142201A968
:1006300006A8FEF751FF00240DE007A931F81400C9
:100640000849097800F052FC20B107A931F81400DC
:1006500003F04AFD641C0698A042EED800BF0BB020
:1006600030BD0000AA21002010B50446637903F0D4
:1006700003022179208803F0C1FC10BD10B50446A7
:10068000207918B9204600F007F803E02046FFF76C
:10069000EBFF00BF00BF10BD2DE9F04188B004465C
:1006A0000025208800F0E6FB0746208803F07EF94D
:1006B0000646A0680790607A0690208800222349A9
:1006C000097800F025FC17B908B0BDE8F081607921
:1006D000C0F3800090B10721304605F02DFB0546A0
:1006E000BDB108208DF800002088ADF80200ADF8FB
:1006F00004600295684601F02DFF0AE02088144945
:10070000097800F0F3FB20B1304603F039F9804658
:1007100000BF03208DF80C002088ADF80E00607932
:10072000C0F380008DF81000A079C0F380018DF82F
:1007300011109DF81C108DF812109DF818108DF8EE
:10074000131003A801F006FF00BFBDE7EA21002057
:10075000EC21002030B50246002015780446401CEC
:100760000D5530BD10B50446022000F051FD10BDFE
:100770002DE9F04192B080460D461F201190109057
:10078000B8F1000F17D04046FFF7ADFC044600BF9C
:100790001CB1204612B0BDE8F08100BF11AA08A923
:1007A0004046FFF7B1FB044600BF0CB12046F1E71D
:1007B00000BF08AE02E0002600201190ADB128462F
:1007C00008F044FB044600BF0CB12046E2E700BF3E
:1007D00010AA69462846FFF797FB044600BF0CB1F4
:1007E0002046D7E700BF6F4602E0002700201090A8
:1007F000BDF84000C3B2BDF84400C1B23A4630462D
:1008000072DFC7E72DE9F04704460F4615461E463E
:10081000DDF8208004B115B90E20BDE8F087012075
:100820004849087000204849087020222946474856
:10083000FEF752FE464806604648C0F800804FF674
:10084000FF70454908804548002101608180817121
:100850003C214348FEF759FE207841490870A078B2
:100860008870E078C87060784870D4E90402C1E903
:1008700004020846D4E90212C0E90212D4E90612C1
:10088000C0E90612606AD8B136483549486236492F
:100890008160606A00883249496A0880606A80889D
:1008A0002F49496A8880002005E0616A8968095CEF
:1008B0002D4A1154401C2A49496A89888142F4D83A
:1008C000A06A20B329492A488160254988622749BE
:1008D0002348806A8160A06A80882149896A88806B
:1008E000A06A00881E49896A0880002005E0A16A84
:1008F0008968095C1D4A1154401C1949896A898814
:100900008142F4D894F82C00154981F82C00206A13
:1009100058B1184812490862206A4088096A48801C
:10092000206A00880E49096A0880606810B10C4985
:100930006068486039460A48FFF71AFF8146484612
:100940006BE700006C2100206F2100206424002050
:1009500080210020842100207C21002070210020A3
:1009600084240020C0240020CC240020F82400206F
:10097000EC2400207821002010B50446208810289F
:1009800004D0112806D01B280CD107E0204604F023
:10099000B9FB08E0204604F0E3FB04E0204604F045
:1009A0002FFD00E000BF00BF10BD000070B5054680
:1009B000022D02D0032D15D100E000BF0B480078B6
:1009C00078B10020094908700948007800F040F823
:1009D000044634B10748006818B120460549096843
:1009E000884700E000BF00BF70BD00006D210020FF
:1009F0006F2100208421002010B574DF01200F49F1
:100A0000087000200E49087006200E49C8700021A9
:100A10000C48FFF7ADFE04460CB1204610BD0A4855
:100A2000007800F015F8044634B10848006818B1A1
:100A300020460649096888470020EFE78821002002
:100A40008A210020842400206F210020842100209E
:100A50007FB505464D48007810B9082004B070BD38
:100A60004B48057002F09EF820B1012049490870FA
:100A70000020F3E7484800210160818081714748E8
:100A8000407818B14248007801280DD0434880785A
:100A900018B13F480078012806D04048807888B1D6
:100AA0003B48007802280DD13D48006838B101204C
:100AB0003C49087008203A490968884702E000204C
:100AC000384908702846FFF7D5FA3149087034488C
:100AD0000068C0B108460078032803D008460078B3
:100AE000042810D12D48007868B12F48007850B9FB
:100AF00000202E49087001202D4908700720284940
:100B00000968884702E00020294908700020009009
:100B10000190029003908DF800008DF808001C48A9
:100B2000007805281CD2DFE800F01703080D12003A
:100B3000684607F091FD044613E0684607F09CFD07
:100B400004460EE0684607F0ADFD044609E068463D
:100B500007F0D8FD044604E000201649087000E0C4
:100B600000BF00BF0A48007828B1684673DF04461A
:100B70000CB1204672E70A48006820B10D480078A1
:100B8000074909688847002068E700006C210020B9
:100B90006F2100206D21002070210020642400209E
:100BA0008021002077210020882100208A21002038
:100BB000892100206E21002070B594B004460D46B6
:100BC000286820604FF6FF70208300BF01208DF859
:100BD0004E0041F60F00ADF84C0000BF221D13A9D6
:100BE0000120A0DF064616B1304614B070BDD5F81E
:100BF00006001090D5F80A001190E889ADF8480079
:100C00002879A071202103A8FEF77FFC42F6192065
:100C1000ADF80C001420ADF810000BA910A8FFF7D8
:100C200099FDADF812000BA80590A1799DF8190067
:100C300061F304108DF819009DF8190020F00200EE
:100C4000801C8DF8190001208DF81D008DF81F0003
:100C50008DF818000020019002900A208DF8040001
:100C60000120ADF80A00FE208DF8050001208DF866
:100C7000080042F20270ADF8060001A80A90A088B0
:100C800004F1080203A900F03BFF06460EB130460E
:100C9000ABE70020A9E770B505460C462088102870
:100CA00006D0112809D050280CD0512814D10EE0BC
:100CB0002146284604F006FA0FE02146284604F0B3
:100CC0002BFA0AE0A11D284604F0D2FB05E0211D05
:100CD000284604F066FB00E000BF00BF70BD0000C6
:100CE00070B505461C2229461248FEF7F5FB002088
:100CF00011490870286850B1104829680A680260D4
:100D0000496841607ADF04463CB1204670BD0B481B
:100D10007BDF04460CB12046F8E74FF6FF70084928
:100D20000880002007490870074A00210748FFF79C
:100D300011FBEBE718250020A02100208C210020CA
:100D40009621002094210020D58F0200B4A6020035
:100D500010B504462088102806D0112808D0122883
:100D60000ED0502810D107E0204604F0AFF90CE077
:100D7000204604F0D5F908E0204604F095FB04E095
:100D8000204604F093F900E000BF00BF10BD000052
:100D900010B504460348027D011D204607F07BF98B
:100DA00010BD00005425002010B504460348C17D45
:100DB0002246001D07F058F910BD00005425002000
:100DC00010B504460348017E2246001D07F04CF989
:100DD00010BD00005425002070B50446208810285E
:100DE00004D011281DD01A2840D11EE006F042FF81
:100DF000A08806F0B7FD20B900BF0420FFF790FAE5
:100E00000EE0E07B022801D1012000E00020054631
:100E1000A2882B461649A1F1120007F05DF900BF28
:100E200024E0A08806F048FF20E0207A0121B1EB01
:100E3000101F01DA012000E000200346A2880C49BF
:100E4000491CA1F1130007F047F9207A0221B1EB08
:100E5000101F01DA012000E000200346A2880449A7
:100E6000891CA1F1140007F037F900BF00BF70BD65
:100E70006A25002070B5044600250B48017D2246F6
:100E8000001D07F0F1F860B10748817D2246001D82
:100E900007F0EAF806460EB1022000E00120054600
:100EA00000BF284670BD00005425002010B5002466
:100EB0000AE0204608F0E0F820B9204608F0D2F811
:100EC000204610BD601CC4B2182CF2DB1820F8E7D5
:100ED00010B50446204608F0CFF810B10248005D76
:100EE00010BD0020FCE700006D25002070B5054610
:100EF0000C46204608F0C0F830B10448015D2A468F
:100F0000153807F0B1F870BD0020FCE76D25002012
:100F100070B505460C461646204608F0ADF830B1CF
:100F20000348011933462A46153807F0D5F870BD35
:100F30006D2500202DE9FC4105460C46174620880A
:100F40000930B84202D90C20BDE8FC8168466DDF4B
:100F5000064600BF0EB13046F6E700BF08202188E4
:100F600068542088401C20801B20218868542088D9
:100F7000401C208020882844DDF801100160BDF865
:100F8000051081802088801D20809DF80000400889
:100F900018B900202188685402E001202188685493
:100FA0002088401C20800020CEE7000010B50446B9
:100FB0002046FFF711FF204605F05CFD2046FFF7B5
:100FC000C7FE204600F0BCF92046FFF7D5FC2046BE
:100FD00003F0B0FF204600F0F3F82146014803F08B
:100FE000F7FA10BDD022002070B50446204607F065
:100FF000AEFF054605F0010070BD000070B588B079
:1010000027480068079000BF00235022254907A801
:1010100007F0BCFE054600BF2E4626B100BF304695
:10102000FFF77EF900BF00BF00BF6A460121002024
:1010300007F08CFE044600BF254625B100BF2846B8
:10104000FFF76EF900BF00BF1720ADF8100068462B
:1010500007F068FE044600BF254625B100BF2846BC
:10106000FFF75EF900BF00BF0F4807F04FFE0446D0
:1010700000BF254625B100BF2846FFF751F900BF44
:1010800000BF0A4807F0D6FE044600BF254625B13A
:1010900000BF2846FFF744F900BF00BF08B070BD8D
:1010A0007CA602008C230020AD0F0200B38E02004C
:1010B00008B507F007FF684600F088FCFFF79EFFC1
:1010C0009DF8000005F0AAF99DF80000012803D161
:1010D0001AA10020FEF76EFC01F0AEFEFFF736F815
:1010E00007F092FA00F0F8FEFFF77AFA17A1002055
:1010F000FEF760FC0320FFF7ABFC044600BF25466B
:1011000025B100BF2846FFF70BF900BF00BF1A4802
:10111000006808F0C1FA1948006808F0BDFA0BE051
:1011200000BF00235A1E19461548006808F0E8FD64
:101130000028F6D002F0FAFCF2E70000426F6E647D
:101140007320657261736564210D0A00426C7565D8
:10115000746F6F7468204465762053747564696F8A
:101160002053746172742041647665727469736986
:101170006E67200D0A0000003C2100204021002065
:10118000302100201FB500200090019002900390B4
:101190000948009001208DF8040000208DF8060019
:1011A00069460648FFF708FD044614B1204604B01E
:1011B00010BD0020FBE70000454E0200DC230020AC
:1011C00010B5044621460248FFF765FD10BD00003A
:1011D000DC23002001460148405C704784A60200E1
:1011E00010B50146094B585C00BF4FF0A0442346A0
:1011F00000BFD3F81045C44004F001040CB1012035
:1012000000E00020024682F0010010BD84A602002A
:1012100010B502460949885C00BF4FF0A044214642
:10122000D1F80435012484409C43C1F808450124C9
:1012300084401C40C1F80C4500BF10BD80A60200D0
:1012400010B504460249085D012103F047FD10BDB9
:1012500080A6020010B504460249085D002103F093
:101260003DFD10BD80A6020010B50146094B585C3B
:1012700000BF4FF0A044234600BFD3F80445C4404C
:1012800004F001040CB1012000E00020024682F0CD
:10129000010010BD80A602007CB500240CE00948C6
:1012A000055D00200090034601221146019028466A
:1012B00003F0AEFC00BF641C042CF0D300F004F873
:1012C0007CBD000080A6020010B5002403E020468B
:1012D000FFF7B6FF641C042CF9D310BD10B5002431
:1012E00003E02046FFF7B6FF641C042CF9D310BDC1
:1012F00002464FF0FF30002106E0054B5B5C934255
:1013000001D1084602E0491C0429F6D300BF70470A
:1013100084A6020070B505460C4600260648056006
:1013200014B1204607F099FD0448006810B9FEF793
:10133000E3FE0646304670BD602100206421002097
:1013400070B505462888102802D011282CD115E048
:101350001748006860B900F05BFE044600BF34B176
:101360001448006818B1204612490968884700BF30
:101370000F480068401C0E49086016E00C480068E1
:10138000401E0B4908600846006860B9FEF7B4FECD
:10139000044600BF34B10748006818B1204605492B
:1013A0000968884700BF00E000BF00BF70BD0000B3
:1013B000642100206021002010B5002000F0F4FA24
:1013C000044600BF1CB1062C01D0204610BD00BF52
:1013D000012000F0E9FA044600BF1CB1062C01D040
:1013E0002046F3E700BF0020F0E700002DE9F041C0
:1013F00006460F464FF0000800243046FFF778FFFE
:101400000446042C41D227B3012F02D0022F3BD136
:1014100033E004EB4400234911F8008004EB44005E
:101420000844407868B12048006800EB8000410023
:101430001E4A1F480068FEF7CDFF05460DB91B4840
:10144000067004EB44001749084480781949085590
:101450001AE017480068FFF735F81648005D04EBFE
:101460004401104A11448978884205D104EB4400B4
:101470001146084490F8028006E004EB4400094954
:10148000084490F8018000BF00BFB8F1000F06D0FB
:101490000948006818B14046074909688847BDE80F
:1014A000F0810000382400204C2100205821002029
:1014B00090A60200592100205421002010B50446B6
:1014C0002046FFF78DFE10BD70B50546042D0DD0EA
:1014D000072D1CD00A2D06D00F2D2DD118A10020CC
:1014E000FEF768FA29E007F09CF926E01321194875
:1014F000008876DF0446082C08D000BF264626B1B7
:1015000000BF3046FEF70CFF00BF00BF15E01148DA
:1015100000884FF6FF7188420DD1FFF76DFA04463F
:10152000082C08D000BF264626B100BF3046FEF783
:10153000F7FE00BF00BF00E000BF00BF70BD0000AD
:101540004253505F4556454E545F4B45595F3120DD
:101550000D0A00002821002030B503460020042B8E
:1015600023D2012A07D1012903D103F10E04E4B2E9
:1015700000E00024224679B1012902D0022911D1CC
:1015800004E003EB43040A4D2A550DE003EB43044A
:10159000074D2C44627007E003EB4304044D2C44D8
:1015A000A27001E0072000BF00E0072030BD00006E
:1015B0003824002070B5044600250548007800F066
:1015C000010018B1204600F05FF80546284670BDBE
:1015D000502100202DE9F04105460E46904600249A
:1015E0001F4806601F4805601F48C0F8008005F0CE
:1015F0000200F8B1002706E0012211463846FFF745
:10160000ABFF04467F1C042F01D2002CF4D02CB970
:10161000720804211548FEF719FE044614B9FEF7B6
:10162000FFFD04462CB9124A00211248FEF792FE33
:10163000044600BF05F0010008B1FFF72DFE2CB9EC
:101640000D4A00210D48FEF785FE04462CB90C4AD0
:1016500001210C48FEF77EFE04462046BDE8F081DD
:101660004C210020502100205421002094A602008B
:10167000BF19020090A602000D3D020088A60200DC
:10168000130202008CA602002DE9F0410446002658
:101690000025C048007820B10020BE490870FFF73F
:1016A00013FE182C75D2DFE804F00C11123D68957A
:1016B000BFCDD3F0EEEDECEBEAE9E8E7E6E5E4E3F5
:1016C000E2E1FFF701FEB44804705FE100BF0020D3
:1016D000FFF7CAFD58B10020FFF7B2FD022C02D17E
:1016E0004FF4E16001E04FF47A60054609E0002024
:1016F000FFF7B0FD022C01D1C82001E04FF4C87003
:101700000546A54804706420B5FBF0F0A3490968BC
:1017100000FB01F700223946A1480068FEF75AFE97
:10172000064633E10020FFF79FFD58B10020FFF788
:1017300087FD032C02D14FF4487001E04FF47A602A
:10174000054609E00020FFF785FD032C01D1C820E4
:1017500001E04FF4C87005468F4804706420B5FB63
:10176000F0F08E49096800FB01F7002239468C48E9
:101770000068FEF72FFE064608E10020FFF774FD23
:1017800060B10020FFF75CFD042C03D14FF47A60B8
:1017900002E0FAE04FF47A6005460AE00020FFF725
:1017A00059FD042C02D14FF4C87001E04FF4C87009
:1017B0000546794804706420B5FBF0F07749096864
:1017C00000FB01F70022394675480068FEF702FE6B
:1017D0000646DBE00020FFF747FD50B10020FFF791
:1017E0002FFD052C01D1C82001E04FF47A60054699
:1017F00009E00020FFF72EFD052C01D1C82001E0F3
:101800004FF4C8700546644804706420B5FBF0F0DE
:101810006249096800FB01F7002239466048006808
:10182000FEF7D8FD0646B1E00020FFF7F1FC5A486C
:1018300004705A480022016859480068FEF7CAFD42
:101840000646A3E00020FFF705FD534804709DE025
:10185000012050490870FFF7DBFC50480022016866
:101860004F480068FEF7B6FD06468FE088E086E048
:101870007AE071E068E062E03EE03CE03AE038E0C7
:1018800036E030E01FE010E0FFE70120414908703A
:10189000FFF7BEFC4148006800EB80010022404891
:1018A0000068FEF797FD064670E001203949087090
:1018B000FFF7AEFC39480022016839480068FEF79E
:1018C00089FD064662E0012032490870FFF7A0FC5E
:1018D0003248006800EB8001002231480068FEF7C2
:1018E00079FD064652E0FFF7F9FC2B4804704DE005
:1018F00000BF00BF00BF00BF2A480068FEF7E2FD3E
:101900000646C4F11105B5B1AEB9012D0FD9C820F5
:1019100068436421B0FBF1F02049096800FB01F73E
:10192000002239461F480068FEF754FD0646022093
:10193000FFF790FC02E00220FFF782FC26E0FFF7B1
:10194000C3FC1548047021E0FFF7BEFC0020FFF740
:1019500081FC1148047019E0FFF7B6FC0120FFF785
:1019600079FC0D48047011E0FFF7AEFC0020FFF792
:1019700071FC0120FFF76EFC0748047006E000BF11
:10198000FFF7ACFC0448047000E000BF00BF304625
:10199000BDE8F08149210020482100204C21002091
:1019A00088A602008CA6020070B504462046FFF708
:1019B00011FC0546032103F053F9002070BD10B55A
:1019C000044620780221FFF711FD10BDF8B5054649
:1019D000134A40F6CD410320FFF7FCFD044600BF4B
:1019E000264626B100BF3046FEF79AFC00BF00BF76
:1019F00069460020FFF78EFC044600BF264626B14C
:101A000000BF3046FEF78CFC00BF00BF9DF8000011
:101A1000022801D1012000E000202870F8BD00005C
:101A2000C914020001468879012809D108790128E2
:101A300006D1488842F60212904201D10120704737
:101A40000020FCE74FF0FF31054A42F8201008283B
:101A500004DBFF23A0F1080150325354704700000B
:101A6000C82900200146024850F8210070470000B4
:101A7000C82900202DE9F04F03460C464FF0FF39EE
:101A80000AB1002000E0082084460AB1082000E0E6
:101A90000C208046614624E0154850F82100401C87
:101AA000F0B91D460846274616464FFA80FBDFF878
:101AB00040A00AF1300A0AF805B0DFF834A04AF86D
:101AC00020704EB94FFA85FBA0F1080ADFF820E03C
:101AD0000EF1500E0EF80AB000BF4FFA81F902E085
:101AE000491C4145D8D300BF4846BDE8F08F0000EF
:101AF000C82900200146014840567047F8290020B7
:101B000070B590B006460C461546A07818B901206D
:101B10008DF80E0002E0A0788DF80E002088ADF858
:101B20000C0000200290607C02A906F01BFEA07C45
:101B30000DF1090106F016FEE07B08B1012000E07E
:101B400000209DF80A1060F3C3018DF80A10207C74
:101B500008B1012000E000209DF80A1060F3041194
:101B60008DF80A10207B08B1012000E000209DF8CC
:101B70000A1060F300018DF80A10207D08B10220E0
:101B800000E001209DF80A1060F342018DF80A1070
:101B90001C2109A8FDF7B9FC607BC0F3001018B93F
:101BA000607BC0F34010F8B100200090E07C0DF1A4
:101BB000010106F0D7FD00BF9DF8000020F00F00E6
:101BC000401C8DF800009DF8000020F0F00010305F
:101BD0008DF8000000BF9DF8020020F00600801C78
:101BE0008DF80200CDF838D0607B8DF82400A07B02
:101BF0008DF82500142104A8FDF787FC03A80490A4
:101C000002A80590A088ADF81C00A06820B1E0886B
:101C1000ADF81800A0680890A069002849D00020FD
:101C20000190A0690088ADF82C00A0694088ADF84B
:101C30002E00A06940680A9001A80D90A169087B58
:101C400001A906F08FFDA169487B0DF1050106F0A1
:101C500089FDA069807A08B1012000E000209DF88C
:101C6000061060F3C3018DF80610A069C07A08B1B0
:101C7000012000E000209DF8061060F304118DF8AB
:101C80000610A069007A08B1012000E000209DF84C
:101C9000061060F300018DF80610A069807B08B182
:101CA000022000E001209DF8061060F342018DF84B
:101CB0000610E06908B1E0690C902B4604AA09A956
:101CC0003046A2DF10B070BD014639B104488842E9
:101CD00004D80448884201D9012070470020FCE75D
:101CE000C0220020D022002070B505460E460024F8
:101CF00007E055F8340001F0E9FF08B9002070BD95
:101D0000641CB442F5D30120F9E700000A49496C8C
:101D100081B10949096C084A02EBC1010160114611
:101D200091F84010491C01F0070111641146496CFB
:101D3000491E516470470000E42A002006490268E9
:101D40008A4203D00168083101607047024938397E
:101D5000016000BFF9E700001C2B00200178022978
:101D600002D0017803290BD106490A6C817D114408
:101D7000044A116411464A6C817D511A014A51642A
:101D800070470000E42A00202DE9F04104460D468A
:101D90004FF6FF76304684420AD14FF480712846D0
:101DA00004F022FE0646B6F5807F0FD126460DE0F0
:101DB000FF2C0BDC2146284604F006FE07460FB137
:101DC000204601E04FF6FF70064600BF3046BDE8F2
:101DD000F081000070B505460DB9094C01E0084CD2
:101DE000083409E0204601F079FF064606B904E010
:101DF00028467168884700BFF4E700BF70BD000047
:101E0000BC29002001460888062808DB0888B0F5B0
:101E1000486F06DD08884FF6FF72904201D0072018
:101E200070474888062808DB4888B0F5486F06DD0B
:101E300048884FF6FF72904201D00720F0E70888EB
:101E40004FF6FF72904208D04888904205D008882B
:101E50004A88904201DD0720E2E70020E0E72DE913
:101E6000F04106460D46144698462088801D4045A0
:101E700002D90C20BDE8F0813046FFF7C3FF0746CA
:101E800000BF0FB13846F5E700BF05202188685430
:101E90002088401C20801220218868542088401C03
:101EA000208022885119308807F057F8218808448B
:101EB000208022885119708807F04FF82188084443
:101EC00020800020D6E710B5044600BF2046FEF76C
:101ED00027FA00BF10BD000030B587B01C2168464E
:101EE000FDF713FB002000904FF4203001904FF4D9
:101EF0007020029003208DF80C000020ADF80E0039
:101F00008DF8100009480590094806906846FEF7CC
:101F1000E7FE044600BF254625B100BF2846FEF770
:101F2000FFF900BF00BF07B030BD000081500200C4
:101F3000C71E020038B51B4801F0AAFE20BB1A4894
:101F4000007848B119484069E8B10020009017486E
:101F500041696846884716E01548007810B913486B
:101F6000456801E01148856800222946114800684B
:101F7000FEF730FA044634B10C48806918B10B48BA
:101F800081692046884709E00848406930B101204E
:101F90000090064841696846884700BF0020024912
:101FA000087038BD98210020A021002018250020AD
:101FB00094210020B4A602003EB504462088FEF716
:101FC000F3FED0B1208810490978FEF78FFF28B9B9
:101FD000208800220D490978FEF79AFF2088ADF885
:101FE000020005208DF800002088FEF7E9FE8DF83C
:101FF0000400684600F0AEFA05E02088012241F2B4
:10200000060100F0BDF83EBDEB210020EA210020D2
:1020100010B5012200210846FFF79EFA044600BFD2
:102020001CB1072C01D0204610BD00BF07220221A1
:102030000120FFF791FA044600BF1CB1072C01D024
:102040002046F1E700BF042202210020FFF784FAB6
:10205000044600BF1CB1072C01D02046E4E700BFB6
:102060000020E1E770B506460D460EB1012070BDB7
:10207000287920B1012809D0022813D10FE0284681
:1020800005F0DAFC0446022028710DE0284600F035
:10209000C5FC04460A2C01D141F61D5404E041F66A
:1020A0001D5401E00F2400BF00BF2046DFE7000001
:1020B0002DE9F0478146002532E01C48006800EB1E
:1020C000C5042178012000FA01F619480068304063
:1020D00020B317480068B04315490860207802F023
:1020E00053FC0746217801208840124909680840BE
:1020F000217807FA01F188420FD16078012800D1D8
:1021000000E00020784080F00108606820B108F00D
:10211000FF0120786268904700BF00BF681CC5B20D
:10212000054800788542C8DBBDE8F0870C22002016
:102130001C220020182200201022002070B5044626
:1021400020793D2802D141F23D0001E04FF4885052
:10215000054620880022294601F050FF70BD00008E
:1021600001200549096809B1002003E00349096815
:1021700001B1002070470000082F002084220020B9
:10218000FEB504460D461646094A07CA8DE8070003
:10219000ADF80240ADF804508DF806600022054805
:1021A00001782046FEF7B4FE684600F0D3F9FEBD84
:1021B00028A70200EA21002010B50446A08928DFE4
:1021C00010BD000013480078062820D11148001DDA
:1021D000007800F00F00D0B90E480830007800F009
:1021E000F000302801D1012070470A4808300078FB
:1021F00000F0F000402801D10120F5E70548083043
:10220000007800F0F000502801D10120ECE7002018
:10221000EAE70000E00F00F00A48007806280ED137
:102220000848001D007800F00F0040B9054808304C
:10223000007800F0F000302801D101207047002024
:10224000FCE70000E00F00F013480078062820D1DA
:102250001148001D007800F00F00D0B90E4808307A
:10226000007800F0F000302801D1012070470A48C2
:102270000830007800F0F000402801D10120F5E797
:1022800005480830007800F0F000502801D1012006
:10229000ECE70020EAE70000E00F00F00A480078D1
:1022A00006280ED10848001D007800F00F0040B944
:1022B00005480830007800F0F000302801D10120F6
:1022C00070470020FCE70000E00F00F013480078A2
:1022D000062820D11148001D007800F00F00D0B969
:1022E0000E480830007800F0F000302801D10120BD
:1022F00070470A480830007800F0F000402801D10B
:102300000120F5E705480830007800F0F00050287B
:1023100001D10120ECE70020EAE70000E00F00F027
:102320000A48007806280ED10848001D007800F001
:102330000F0040B905480830007800F0F000302860
:1023400001D1012070470020FCE70000E00F00F001
:102350000A48007806280ED10848001D007800F0D1
:102360000F0040B905480830007800F0F000302830
:1023700001D1012070470020FCE70000E00F00F0D1
:102380000A48007806280ED10848001D007800F0A1
:102390000F0040B905480830007800F0F0005028E0
:1023A00001D1012070470020FCE70000E00F00F0A1
:1023B0000748006807F0F2F906A10020FDF7FAFAD5
:1023C00005E00120FEF724FF642007F077F8F8E726
:1023D0003C210020455350207461736B207374615D
:1023E00072746564210D0A000278072A34D2DFE88E
:1023F00002F0330407102029300000220A702CE07C
:1024000001220A7003898B818388CB81C2688A602C
:1024100023E002220A7003898B818388CB81C26802
:102420008A60027C062A01D1012300E000230B749C
:1024300013E003220A70C3888B810389CB81C268B1
:102440008A600AE004220A70C3888B810023CB8152
:1024500003E005220A7000E000BF00BF70470000E3
:1024600070B50546002409E0064850F8240020B164
:10247000044850F8241028468847641C082CF3D3DD
:1024800070BD00004C2A00203EB505460C46DCB16C
:10249000112C19D00020009001900290ADF802504C
:1024A00001940D2C03D10B208DF8000008E0862C40
:1024B00003D10A208DF8000002E009208DF8000009
:1024C000684600F057F800BF3EBD000070B50546F5
:1024D000002405E0044850F8241028468847641C6E
:1024E000002CF7D070BD0000A421002070B5054677
:1024F000002405E0044850F8241028468847641C4E
:10250000002CF7D070BD0000B021002070B505464A
:10251000002405E0044850F8241028468847641C2D
:10252000022CF7D370BD0000D0A6020070B505469E
:10253000002405E0054850F8241028468847641C0C
:10254000034800788442F5DB70BD00006829002054
:10255000E621002070B50546002405E0044850F847
:10256000241028468847641C022CF7D370BD000055
:10257000F0A6020070B50546002405E0044850F8B6
:10258000241028468847641C002CF7D070BD00003A
:1025900034A7020010B504462078052803D102A113
:1025A0000020FDF707FA10BD474320636F6D706C84
:1025B000657465640D0A00001FB50446606808B9BB
:1025C000012000E000200390207806287BD2DFE87D
:1025D00000F0820304304F7B00BFA08900F03DFA79
:1025E00018B9E08905F039FB10B3A08900F030FA82
:1025F000ADF80200E08905F02DFB8DF8040020788D
:10260000012807D1606808B9002000E003208DF898
:10261000000006E0606808B9012000E004208DF8A1
:10262000000060680390A0680290684603F042FCD6
:1026300052E0A08900F011FA18B9E08905F00DFB0D
:10264000A8B1A08900F004FAADF80200E08905F015
:1026500001FB8DF80400606808B9022000E0052045
:102660008DF80000A0680290684603F023FC33E078
:10267000A08900F0F2F928B3E08918BBA08900F026
:10268000E7F9ADF80200E08905F0E4FA8DF80400FE
:10269000FF208DF80400606838B906208DF800002E
:1026A000BDF8020003F01EFE02E007208DF80000D6
:1026B00000200E4908700E49087003F05DFD684661
:1026C00003F0F8FB08E006E008208DF800006846FB
:1026D00003F0F0FB00E000BF00BF0448007820B129
:1026E00000200249087003F047FD1FBDC1210020F2
:1026F000C221002010B588B00446022000F0D4F9B1
:1027000010B9022008B010BD4FF6FF70844201D10D
:102710000420F7E705208DF8040001208DF808005B
:10272000ADF80A400022114601A802F0E3FE18B1FC
:1027300005F0F6F80020E5E70820E3E700B587B0EC
:10274000022000F0B1F910B9022007B000BD062048
:102750008DF8000000221146684602F0CBFE48B119
:102760000548007810B101200349087305F0D8F836
:102770000020EAE70820E8E74C2B002010B58CB0D9
:10278000142107A8FCF7C1FE022000F08DF928B142
:1027900007A8FFF765FE00200CB010BD012000F077
:1027A00083F908B10020F7E7012000F089F900F073
:1027B00057FA01208DF8000002F0A8FF04460C2C07
:1027C00028D2DFE804F00614071527220923271969
:1027D0001E1A00BF0B20DFE7022000F071F9012074
:1027E00000F048F907A8FFF73BFE0020D4E700BF40
:1027F00000208DF804000EE000BF03208DF80400D7
:1028000009E002208DF8040005E000BF01208DF8EA
:10281000040000E000BF00BF00221146684602F03D
:1028200069FE05F07DF80020B6E7000038B50446E3
:102830000CB9052038BD6946204605F01BF9E0B10A
:102840000F48BDF8001000EB01108089002812DD50
:10285000A07A80B10A48BDF8001000EB0110808911
:10286000401E0749BDF8002001EB021188810020BD
:10287000A072002502E0062500E00A252846D9E7D7
:102880002C2B00207FB514461D462B46224601A95D
:10289000684605F08DF804B070BD37B50C46154696
:1028A0002B4622466946002005F082F83EBD37B52A
:1028B0000C4615462B4622460021684605F078F85E
:1028C0003EBD024602B109B9052070471068086094
:1028D0000020FAE738B504460D4604B10DB90520CD
:1028E00038BD6946204605F0C5F8A8B161680B48B7
:1028F000BDF8002000EB02108089401C074ABDF89B
:10290000003002EB03129081296060680C3068602F
:102910000120A0720020E3E70A20E1E72C2B002031
:1029200070B504460D460CB9052070BD0323002286
:102930002946204607F064F8F7E770B504460D46CF
:10294000022300222946204607F05AF870BD70B5D0
:1029500005460E4614460CB9052070BD02232246DA
:102960003146284607F04CF8F7E700000146094ACF
:102970001278082A01D10C200AE0074A054B1B787F
:1029800042F82310034A1278521C024B1A7000209E
:1029900070470000212200204C2A0020F8B5044690
:1029A0000D46022000F080F808B90220F8BD0CB9ED
:1029B0000520FBE76946284607F012F906461EB9CE
:1029C000BDF80000208065803046EFE770B5044612
:1029D000022000F069F808B9022070BD0CB905208A
:1029E000FBE72088022801DD0420F6E720880A4959
:1029F00001EB001671896088C01C081A08D4218870
:102A0000608807F0DFF8002020806080002500E06B
:102A100004252846E1E700002C2B00203EB50446A3
:102A20000A4B6A460021A01D04F0C2FF054635B9D5
:102A3000064A9188019805F08BF8054603E00348A3
:102A400000210160416028463EBD00003022002088
:102A50000146A1F5404080B270470146B1F5404FB4
:102A600005DB4FF6FE70814201DC0120704700203B
:102A7000FCE70000024909788143014A1170704760
:102A80002022002010B504462078182802D1FEF735
:102A90000DFA207010BD10B504462078182802D118
:102AA000FEF704FA207010BD014604480078084083
:102AB00008B1012070470020FCE700002022002020
:102AC000024909780143014A117070472022002011
:102AD00030B504461088C01C984201D90C2030BD86
:102AE0000220158848551088401C10800120158848
:102AF00048551088401C108015884C551088401C83
:102B000010800020EBE700002DE9F04106460C465E
:102B100015460027B846862C03D0112C01D0002C76
:102B200035D1862C03D14FF00008012709E0112C84
:102B300003D14FF00108002703E014B94FF000085B
:102B40000027C5B13A46134801783046FEF7E0F950
:102B50004246114801783046FEF7DAF900220F4864
:102B600001783046FEF7D4F900220D48017830464E
:102B7000FEF7CEF90BE03A46084801783046FEF7FA
:102B8000C7F94246064801783046FEF7C1F9BDE86C
:102B9000F08100000122002000220020FD21002001
:102BA000FC21002008B5684600F0BAF8009808B18A
:102BB000012008BD0020FCE7F8B505460C46164686
:102BC0001F461C48007800F0010008B90120F8BD3C
:102BD0002846FFF779F808B90220F8E70CB9032076
:102BE000F5E7C4F30B0008B10620F0E72868A0421F
:102BF00004D804EB06306968884201D90520E6E76D
:102C00000EB90420E3E7684604F0CEFD08B90720BA
:102C1000DDE700984760009805600220009908727F
:102C2000C4F30F30009988810098068204F084FE76
:102C30000020CCE73A22002070B505460C4620461D
:102C400004F0E6FD70BD4FF010204169481C08B14A
:102C5000084670474FF0805040690003F9E70000D4
:102C60002DE9F0412B482C49401A04092948401A03
:102C70000509FFF7E8FF06462848007800F0010044
:102C800010B10020BDE8F081002008E0224A02EBEC
:102C900000110A6812B14A6802B16D1E401CA042C0
:102CA000F4D300202BE01C4901EB00124FF0000C84
:102CB000C7B2002117E0DFF8608008EB0113D3F8FA
:102CC0000080B8F1000F05D0D3F80480B8F1000FF0
:102CD00000D007E093F80D80E04502DD93F80DC0C9
:102CE000CFB200BF491CA142E5D30B4901EB07124B
:102CF0005660117BA6EB013111601668401CA8429A
:102D0000D1D30648007840F0010004490870002043
:102D1000B8E70000D0220020C02200203A22002084
:102D2000014609B9032070470248406E0860002040
:102D3000F9E70000682B00202DE9F84305460C4612
:102D400016461F46DDF820801F48007800F001007D
:102D500010B90120BDE8F8832846FEF7B5FF08B991
:102D60000220F7E706B10CB90320F3E706F00300F1
:102D700010B904F0030008B10620EBE72868A04270
:102D800004D804EB87016868884201D20520E1E796
:102D90000FB90420DEE7684604F006FD08B90720F5
:102DA000D8E70098C0F804800098056001200099D9
:102DB00008720098C660009804610098878204F049
:102DC000BBFD0020C6E700003A22002070B5044693
:102DD0001748006E00EB4000154901EBC00515488F
:102DE000007800F0020068B1022C02D0032C08D158
:102DF00003E0284602F04AFA03E0284602F030FADF
:102E000000BF12E00B48007800F0040068B10948E8
:102E1000007820F00400074908700548406E20B192
:102E20000846007840F00200087004F043FD70BDD1
:102E3000682B00203A2200203EB500BF9DF800001C
:102E400020F00F00401C00909DF8000020F0F000E2
:102E50001030009000BF0A2214A168467CDF0446AF
:102E600000BF254625B100BF2846FDF759FA00BF2F
:102E700000BF0020019002905020ADF80400A02077
:102E8000ADF806000020ADF808004FF4C870ADF8AA
:102E90000A0001A87ADF044600BF254625B100BF1D
:102EA0002846FDF73DFA00BF00BF3EBD4E6F72647D
:102EB00069635F424453000070B505460DB10120BF
:102EC00070BD1848007B18B100201649087301E056
:102ED00000F0D4F81348007808281DD2DFE800F08D
:102EE0001C04080C101C141800F03CF8044615E0F3
:102EF00000F0B2F8044611E000F08EF804460DE050
:102F000000F044F8044609E000F01CF9044605E02E
:102F100000F028F9044601E00F2400BF00BF20465E
:102F2000CEE700004C2B00200C480089401C0B49C8
:102F3000088100204880087300BF0CE0084901EBBD
:102F40000011097809B9012200E0002203490A3181
:102F50000A54411C88B20228F0DB70474C2B002039
:102F60002C2B002010B5084800F032F840B90020A2
:102F70000549891E08704880486041F61D5010BD03
:102F800000F06AF8FBE700004E2B002070B50D48FA
:102F900045880D4800EB0510808968B90A4800EBA8
:102FA00005100023012241680848FFF705FE04468A
:102FB00004200449087002E000F08CF80446204622
:102FC00070BD00004C2B00202C2B0020C0220020C4
:102FD00010B501460022002015E00D4B1B5C83B1AB
:102FE00000240B4B1C540B4B03EB00139B8943B980
:102FF000084B03EB00139B7B012B02D108800122BD
:1030000003E0431C98B20228E7DB00BF104610BD66
:10301000562B00202C2B0020F8B50C4844680C4897
:1030200000680B49898800EB81056088C01C86B266
:1030300003200649087000200090084633462946C0
:1030400042680448FFF778FEF8BD00004C2B0020D2
:1030500028220020C022002010B507494888091DF9
:1030600004F046FD18B1FFF7D7FF044602E0FFF772
:103070008DFF0446204610BD4C2B002010B514488F
:103080000078082820D2DFE800F0041F1F0A10167D
:10309000171BFFF749FF01200D49087015E000F0EC
:1030A0006DF802200A4908700FE000F029F80620A8
:1030B0000749087009E000BF07200549087004E0CF
:1030C00001200349087000E000BF00BF10BD0000F0
:1030D0004C2B002010B50520064908700220064937
:1030E000888008460023012201680448FFF764FD38
:1030F00010BD00004C2B002028220020C022002000
:103100000D4908680D4949880D4A02EB01114968CB
:10311000094A116009494988094A02EB01114860CE
:1031200005498988054A5288054B03EB0212118133
:103130000221014A91807047282200204C2B002058
:103140002C2B002010B50620044908704988044A39
:1031500002EB0111486802F0B7FA10BD4C2B0020B9
:103160002C2B002010B50720034908700020486070
:1031700002F0BAFA10BD00004C2B0020054A50683E
:103180004288D21C91B2044A92880A44024B9A8027
:10319000704700004C2B0020282200203EB504463A
:1031A0002088502821D0522802D0542825D103E06D
:1031B000A08800F099FF20E006208DF80000A0888C
:1031C00000F0F4FBADF80200A088ADF80400BDF8F3
:1031D000020000F04FF9A08800220C490978FDF7A1
:1031E00097FE6846FFF772F907E0A01DFEF71AFC8C
:1031F00010B1A08800F0C8FF00BF00BFFDF708FABB
:1032000005F0BCFE05F0FAF83EBD0000AB21002041
:103210003EB504466088ADF80200207820B1012850
:103220000FD002282BD116E000208DF80000684650
:10323000FFF74CF9608800F0E3FA054600F054FF10
:103240001DE001208DF80000A088ADF8040068465C
:10325000FFF73CF913E0207980B1608800F0D0FAE4
:1032600005464FF6FF70854207D0012205480178D8
:103270002846FDF74DFE05F0C1F800BF00BF00BFB6
:103280003EBD0000AB21002010B504462078012887
:103290000DD1608800F028FF608800F0CDF928B1DA
:1032A0006088012203490978FDF732FE00E000BF83
:1032B00000BF10BDAB21002010B500F093FCFDF75E
:1032C000F5FD12490870FDF7F1FD11490870FDF791
:1032D000EDFD10490870FDF7E9FD0F4908700B4836
:1032E000007818280BD00A480078182807D0094819
:1032F0000078182803D008460078182801D1032048
:1033000010BD0120054908700020F9E7A92100201F
:10331000AA210020AB210020AC210020A821002000
:1033200010B586B000F0BEF801A8FDF731FD00240D
:1033300012E002A931F8140000F038FB4FF6FF71DB
:10334000884207D102A931F8140001220649097800
:10335000FDF7DEFD601C84B20198A042E9D805F0BB
:103360004DF806B010BD0000AB21002010B504469A
:103370002078072803D1608800F006FF00E000BF36
:1033800000BF10BD10B504460B4801782046FDF77C
:10339000ADFD70B100210AE001EB4100074A02EBEC
:1033A00080004088A04201D1C8B210BD491C082944
:1033B000F2D3FF20F9E70000BB2100208825002080
:1033C00010B500240DE004EB4401084A02EB810132
:1033D000488807490978FDF789FD08B9E0B210BDB2
:1033E000641C082CEFD3FF20F9E70000882500209B
:1033F000BB2100202DE9F04105460F46012000FACF
:1034000005F418480068FDF75DF806460EB1BDE802
:10341000F081154800682040E0B9284601F0B4FA70
:1034200028B11248006820431049086004E00F48A2
:103430000068A0430D4908600B48006820430A4912
:10344000086000220A48016806480068FCF7C2FFCD
:10345000064604E004480068A0430349086000BF32
:10346000D5E7000080A702001C22002018220020BF
:10347000142200201CB50446044903C9CDE900010B
:1034800000226946204602F096FB1CBDC8A6020039
:1034900010B500F0ADFB012001490870002010BDFF
:1034A000B421002010B54FF6FF7002F065FA024912
:1034B000088004F0D9FF10BDB62100202DE9FC479B
:1034C0008146484600F072FA0546002600274FF074
:1034D00003084FF0010A4FF6FF7085420CD06A4690
:1034E0000821284602F030FB04462CB90198861DBD
:1034F0008788D0F8008000BF00BF43463A46314677
:103500004846A9DF0446042C01D1112415E0082CFB
:1035100001D1002411E00B2C0FD14FF0000A08F06C
:10352000020010B14FF0010807E006B927B10026EC
:1035300000274FF0030800E003240B2CDDD0BAF184
:10354000000F00D10B242046BDE8FC872DE9FC4785
:103550008046404600F02AFA07464FF6FF70874241
:1035600003D143F20200BDE8FC874FF001094FF0A0
:10357000000A00BF4FF0000A4A46511C1FFA81F9A9
:103580006B460821384602F021FB044604BB019D2E
:10359000032028602A1DA91D40462B68AADF044687
:1035A0002CB90821384602F0C7FB04460FE00C2C6A
:1035B00002D14FF0010A02E0052C00D100240821BD
:1035C000384602F09DFB064606B1032400BF02E028
:1035D000072C00D10C24BAF1000FCBD100BF20463C
:1035E000C1E700007FB504462078012818D1207972
:1035F000012815D1608802AA012102F0A5FA05462A
:103600006DB902208DF800006088ADF802000398C3
:1036100000788DF804006846FEF768FF00BF00BF21
:10362000044800884FF6FF71884201D004F01CFF67
:103630007FBD0000B62100207CB50446204600F086
:10364000B5F906466A460121304602F07DFA054684
:103650000DB100207CBD01980078FBE770B50546F0
:103660004FF6FF7600BF4FF6FF720A4801882846E2
:10367000A7DF044643F20300844204D105480088D2
:10368000401C0449088043F203008442EBD02046EA
:1036900070BD0000B8210020014688884FF6FF72F7
:1036A000904203D0088808B1012070470020FCE751
:1036B0003EB504460D4620780221B1EB500F01D0F3
:1036C00000203EBDB4F80100ADF80800E0788DF8A8
:1036D0000A00A188ADF80010A0798DF8020001AAB7
:1036E00069462846FCF76AFD032201A902A8FBF7F8
:1036F0001EFF08B90120E4E70020E2E770B50646A6
:103700000C463046FFF73EFE0546FF2D0CD005EB7C
:103710004500064901EB8000416821600189A180D4
:10372000807AA071002070BD0520FCE7882500206C
:1037300070B590B004462088102801D010B070BD3C
:103740003422211D03A8FBF7C7FE4FF6FF759DF835
:1037500010000321B1EB500F35D002F011FC9DF8A1
:103760001000400820B1012803D0022828D114E01D
:1037700000BF09E0019800F1110104A8FCF788FBE3
:1037800010B1BDF8085006E06A4602A9072002F011
:10379000C9FB0028EED100BF13E008E00198411CEE
:1037A00004A8FFF785FF10B1BDF8085006E06A468F
:1037B00002A9072002F0B6FB0028EFD100BF00E00D
:1037C00000BF00BF00BFBDF80C0004A900F076FEEA
:1037D00006464FF6FF7085420FD0BDF80C00294613
:1037E00000F088F8BDF80C00ADF8060001208DF857
:1037F000040001A8FEF78AFE00BF00BF9EE700009C
:10380000024600210DE001EB4100084B33F8200097
:10381000904205D101EB410003EB800040887047E6
:10382000491C0829EFD34FF6FF70F8E788250020E0
:1038300010B500F0E9F9FDF739FB064908700846B4
:103840000078182801D1032010BD0120024908701A
:103850000020F9E7BB210020BA2100202DE9F0412A
:1038600004460D46601C00F025FA10B90020BDE8A2
:10387000F0811022691C601CFBF759FE08B9012079
:1038800000E00020074605F1110104F11100FCF7EA
:10389000FFFA064607B90EB10120E8E70020E6E787
:1038A0000246108808B101207047002105E0901CF5
:1038B000405C08B10120F7E7491C0829F7D3002034
:1038C000F2E770B505460C462846FFF7E9FF08B950
:1038D000002070BD28882188884201D00020F8E7A8
:1038E0000822A11CA81CFBF722FE08B90120F0E762
:1038F0000020EEE770B504460D462946204602F04A
:1039000053FD70BD30B587B00446207810B92079DA
:10391000072801D007B030BD608804AA072102F053
:1039200013F9054605B1F5E702F02AFB1EE06088B1
:10393000BDF81810884200D118E003990598FFF7E8
:103940008DFF90B16088FFF75BFFADF802000020AB
:103950008DF800006088ADF80400BDF81810ADF8CF
:1039600006106846FEF7D2FD07E000BF02AA06A9CE
:10397000072002F0D7FA0028D9D100BF00BFC9E75D
:1039800070B506463046FFF73BFF0446304602F06E
:10399000E6F805464FF6FF70844204D01DB9014693
:1039A000204602F001FD284670BD000070B50546B6
:1039B0002846FFF7E7FC0446FF2C05D004EB440043
:1039C000034931F8200070BD4FF6FF70FBE700009F
:1039D000882500203EB5044602F0D2FA10E0019896
:1039E00000F146012046FFF76CFF30B9019800F165
:1039F0002A012046FFF765FF10B1BDF808003EBD63
:103A00006A4602A9072002F08DFA0028E7D14FF696
:103A1000FF70F4E72DE9F04106460C460F272EB162
:103A20000120FFF727F80120BDE8F081207930B1AF
:103A300001280AD0022833D0032864D13EE001F0E7
:103A400053FE0746012020715EE04FF0000800257C
:103A500016E0324800EB0510007802280ED12F49FD
:103A600001EB0511486801F02FFE074600202B49A5
:103A700001EB051108704FF0010803E0681C85B2E6
:103A8000022DE6DB00BFB8F1000F08D10220FFF7DE
:103A900017F80120FEF7EEFF41F61D50C4E733E0B2
:103AA0001F480023012201681E48FFF785F80746DA
:103AB00002201B4988800020207125E018490868F1
:103AC00001F002FE0746184845881548D0F80080E6
:103AD000124800EB05104068114908600F4800EBE0
:103AE0000510C0F80480084680880C4901EB0511D8
:103AF000088102200A4988800020084901EB05114D
:103B00000870207100E000BF00BF27B10120FEF760
:103B1000B1FF0E2088E7002086E700002C2B002054
:103B200028220020C02200204C2B0020F8B5274876
:103B3000007800B9F8BD00252548006808B90120C3
:103B400000E00020064600BFDDB92248007800B141
:103B5000F0E7684648DF0446052C01D101250FE057
:103B600024B100BF2046FCF7DBFB09E0009800F021
:103B70000FFE1948006818B117490098096888476E
:103B800000BFDEB91348007800B1D3E713480088BE
:103B9000009069461248006861DF0446052C01D197
:103BA00001260AE024B100BF2046FCF7B9FB04E07F
:103BB0000B48006806490968884700BF0DB106B187
:103BC00000E0C1E700BF00BFB4E7000044220020CE
:103BD0005022002045220020542200204C220020A8
:103BE000482200200020014908707047A8210020C9
:103BF0000020034908704FF6FF70024908807047A3
:103C0000B4210020B62100201820084908700020A7
:103C100008E04FF6FF7100EB4002054B03EB820218
:103C20005180401C0828F4D370470000BB210020BD
:103C30008825002010B5002407E004EB8401044A25
:103C400002EB810005F0B1FE641C082CF5D310BD19
:103C50000826002010B5044640212046FBF755FCFD
:103C600010BD00004FF6FF7005490880002005498F
:103C70000860182004490870044908707047000063
:103C8000E4210020DC210020E7210020E8210020A1
:103C900001464888064A1288904206DB4888044A52
:103CA0005288904201DC012070470020FCE70000B0
:103CB0008C2100200246002104E0505C08B1012064
:103CC0007047491C1029F8D30020F9E7014601F09C
:103CD000030008B9012070470020FCE7014608688E
:103CE00008B102680A607047026803E08A4200D1A6
:103CF00070471268002AF9D103680BB1036800E02D
:103D000000230B60016000BFF2E7000010B504461D
:103D10000448007800F0010018B103480078FDF76E
:103D2000B3FC10BD502100204821002010B54FF4F5
:103D3000827000F08FFC022000F09CFC082000F054
:103D40009FFC10BD2DE9F04107460D4690461E46EA
:103D50002DB92948007810B90520BDE8F08135B1AA
:103D600042460021384604F0C3FE044605E04246C0
:103D70002249384604F0BCFE04460022214638465B
:103D8000FEF7C2FE1EB121463846FEF77DFB112C20
:103D90000DD005DC34B3082C27D00D2C26D122E021
:103DA000862C12D0A4F540500238F8B91CE02A46FF
:103DB000134801783846FDF7ABF8424611480178C0
:103DC0003846FDF7A5F8002412E02A460C48017891
:103DD0003846FDF79DF842460A4801783846FDF717
:103DE00097F805E000BF00BF00BF01E0032400BF5B
:103DF00000BF2046B1E70000F6210020F12100209D
:103E0000FF210020FE2100202DE9FC4107460E463F
:103E1000904626B9002138467EDFBDE8FC81307827
:103E200000F0010008B1012000E0022001903846B6
:103E3000FFF7BCFD05464FF6FF70854209D001A88B
:103E40002B46424631460090384600F024F804469E
:103E500019E0307800F0010028B13146384600F012
:103E60008EF804460FE0314638467EDF04460020D7
:103E700000900CB9012000E00020024601232946F1
:103E8000384604F023FA24B99DF80410384604F0AB
:103E900065FA2046C1E72DE9FF4F85B00F469046F1
:103EA0001E46DDF848900025AA4603AA07213046A1
:103EB00001F04AFE04466CB9049800F11805049814
:103EC00090F8440000F0010ABAF1000F02D0049803
:103ED00000F13405B8F1000F13D194B98DB1BAF1E6
:103EE000000F04D105F11200FFF7DAFC48B12A46B1
:103EF00005F11201059885DF0446002089F80000CD
:103F000027E00CB1052C24D10024387800F0010002
:103F100060B101AB01220721304601F057FE044693
:103F200024B90721304601F089FF04461CB93946FF
:103F300005987EDF044664B10721304601F0E0FEBB
:103F40008346BBF1000F03D0BBF1050F00D0032463
:103F500000BF0020009099F8000008B1012000E0A7
:103F6000002003460CB9012000E000200246314643
:103F7000059804F0ABF9204609B0BDE8F08F2DE9B3
:103F8000FE430746884601F0DBFD05464FF6FF700D
:103F900085421CD001AB01220721284601F016FE04
:103FA000044624B90721284601F048FF04461CB9FD
:103FB000414638467EDF044654B10721284601F0C9
:103FC0009FFE064616B1052E00D0032400E0032410
:103FD0004FF6FF70854201D0012000E000200090E4
:103FE0000CB9012000E00020024601232946384692
:103FF00004F06CF92046BDE8FE8300002DE9F04195
:1040000007460C461546114801783846FCF76EFF06
:10401000D0B13846FFF7CAFC06464FF6FF7086421D
:1040200011D00B4801783846FCF760FF30B12B46C1
:1040300022463146384601F001FC04E02A4621467A
:104040003846FEF79DF800BFBDE8F081EA21002068
:10405000EB2100202DE9F04786B005462846FCF705
:1040600037FF8046404603F0A3FF58B301A8FCF792
:104070008FFE002422E002A931F814002946FCF743
:1040800035FF0646CEB102A931F814000F49097870
:10409000FCF72CFF814602A931F814000C4909787D
:1040A000FCF724FF824602A931F8140001234A4696
:1040B0005146FFF747FE074600BF641C0198A04227
:1040C000D9D800BF06B0BDE8F0870000FE2100206F
:1040D000FF21002070B504460D46294620467EDFAC
:1040E0000646304670BD0000FEB5044600264FF679
:1040F000FF70844200D1FEBD2046FFF7DFF9054680
:1041000045B10B2D16D0112D12D0A5F54050023817
:10411000F8B91DE002208DF800002046FFF746FCAC
:10412000ADF80200ADF804406846FEF7CFF91FE095
:1041300001261DE003208DF800002046FFF736FC25
:10414000ADF80200ADF804406846FEF7BFF90FE095
:104150000EE009208DF800002046FFF727FCADF89F
:104160000200ADF8044002956846FEF7AFF900BFC3
:1041700000BF3246034801782046FCF7C9FE00BF65
:10418000B9E70000AA210020FEB50446002620461B
:10419000FFF7DCF90546112D1AD003DC4DB10C2DCB
:1041A00034D117E0862D23D0A5F54050023868BBE6
:1041B0000DE001208DF80000ADF804402046FFF727
:1041C000F5FBADF802006846FEF780F92DE02CE023
:1041D00001262AE007208DF80000ADF804402046B3
:1041E000FFF7E4FBADF802006846FEF76FF91CE04C
:1041F00008208DF80000ADF804402046FFF7D6FBFC
:10420000ADF802006846FEF761F90EE009208DF86E
:1042100000002046FFF7CAFBADF80200ADF80440ED
:1042200002956846FEF752F900BF00BF32460348C8
:1042300001782046FCF76CFEFEBD0000A92100209D
:10424000F8B504460D4600262078284080B90020A5
:1042500000906846FCF770F92078284018B920785B
:104260002843207001269DF80000FCF76BF900BF81
:104270003046F8BD1FB500F007FA044600BF2546DA
:1042800025B100BF2846FCF74BF800BF00BF032252
:104290000021012005F00EFD2E49086003220021B7
:1042A000012005F007FD2C4908602A48006820B964
:1042B00000BF0420FCF734F800BF0020274A022387
:1042C000CDE901200093039003464FF4807224A1AE
:1042D000244805F01FFF012804D000BF0420FCF78C
:1042E0001FF800BF0020204A0323CDE901200093DE
:1042F000039003464FF480721CA11D4805F00AFF8D
:10430000012804D000BF0420FCF70AF800BF0020F9
:10431000184A0423CDE901200093039003464FF48B
:10432000807215A1154805F0F5FE012804D000BFE4
:104330000420FBF7F5FF00BF1148006840F00400BF
:104340000F49086005F0F4F900BF00BF0F20FBF72C
:10435000E7FFFAE730210020342100203821002037
:10436000424C4500B11002003C2100204553500052
:10437000B12302004021002052544300B17D0200CD
:1043800010ED00E02DE9F04105460E461446984632
:10439000A888871C2088801C3844404502D90C20FE
:1043A000BDE8F081FE2F01D90C20F9E7781C2188A7
:1043B00070542088401C2080FF2021887054208861
:1043C000401C208022889119288804F0C6FD21888D
:1043D00008442080A88800280DDDA86808B90720B7
:1043E000DEE7AA8823889819A968FBF775F8208862
:1043F000A988084420800020D2E72DE9F84F05461F
:104400000F46144698462878012804D1687810B9D8
:104410000720BDE8F88F2088801C404508D8287800
:10442000012807D12088801C69780844404501D9BB
:104430000C20EEE72088A8EB0000801E86B20096D4
:104440002188891CC81969467DDF814600BFB9F102
:10445000000F01D04846DCE700BF2878022806D1CB
:10446000BDF80000B04202DC4FF0090A0BE04FF04B
:10447000080A2878012805D16878B04202DC6878FB
:10448000009000E00096BDF80000FE2801D90C2045
:10449000BFE7BDF80000401C218878542088401CEC
:1044A0002080208807F800A02088401C20802088D9
:1044B000BDF80010084420800020AAE770B505462A
:1044C0000E46FF2466B34FF6FF70854228D00122C6
:1044D000144801782846FCF71BFD2846FEF752FFDA
:1044E0000446FF2C02D1FEF76BFF0446FF2C17D0C9
:1044F00004EB44000C4901EB800045804FF6FF704F
:1045000004EB4401084A22F8210004EB4400114660
:1045100001EB800031684160B1880181B17981721D
:10452000204670BDBB2100208825002070B50546BF
:104530000E464FF6FF70854201D1002000E0681C56
:1045400084B208E02146304602F066FA08B12046FF
:1045500070BD601C84B2FF2CF4DD4FF6FF70F7E7EE
:1045600030B502460B46D40802F007020120904005
:104570001D5D284030BD70B504460D4600BF0CB926
:104580000E2070BD00BF00BF0DB90E20F9E700BFBF
:104590002078DE2801D10820F3E71421A01CFAF7C7
:1045A000B4FF0020A0752868A063002084F83C00B8
:1045B0004FF6FF70E087DE202070D5E90101C4E9E5
:1045C0000C01E8682064002084F82C0000BFD8E7C4
:1045D00070B504460D4600BF04B970BD00BF00BFF2
:1045E00005B9FAE700BF00BF2078DE2800D0F4E765
:1045F00000BF94F83C0018B1291D204600F01CFFB4
:104600002888022804D011280CD0512815D104E0A4
:10461000291D204600F010FF10E0291D204600F063
:10462000C7FE0BE0A888E18F884205D14FF6FF70E6
:10463000E087002084F82C0000E000BF00BF00BF2E
:10464000CBE701464FF08040405808B10120704749
:104650000020FCE708B500224FF080410A500958BD
:10466000009100BF08BD00000149086070470000CC
:10467000080300400149086070470000040300403F
:10468000012291070A50704710B50024164800789F
:1046900008B1852425E0002013498860486008613E
:1046A000C86000BF00BF4109890001F1E021D1F8D5
:1046B000001101228240114009B1012100E00021D6
:1046C00019B90721002000F06BF800BF04F0ACFB23
:1046D00020B901200549086000BF00BF0120024940
:1046E0000870204610BD0000B429002018050040C5
:1046F00038B504461848807890B114B1012061683B
:104700008847002000906846FBF716FF1248C068F3
:10471000401C1149C8609DF80000FBF713FF19E029
:10472000002000906846FBF707FF24B121460A48A5
:104730001030FFF7D9FA0848C06808B9FFF7F6FA51
:104740000548C068401C0449C8609DF80000FBF79C
:10475000F9FE00BF38BD0000B429002008B50020D4
:1047600000906846FBF7E8FE0848007808B9FFF7B4
:104770008BFF0648C068401C0449C860012088704F
:104780009DF80000FBF7DEFE08BD0000B429002004
:1047900010B5044614B90020FDF71CFB10BD000045
:1047A00070B50B4601461A46002907DA5407260E53
:1047B000104C01F00F052D1F665503E05407250E20
:1047C0000D4C655400BF00BF00F01F020121914055
:1047D0000A4A440942F8241000BF00BF00F01F023B
:1047E000012191404209920002F1E022C2F8001139
:1047F00000BF70BD18ED00E000E400E080E200E0E2
:104800002DE9F04706460D46304601F09BFEE0B12B
:104810003046FDF76FF9083822490F5CBC11032CB4
:1048200008D1304600F04EFA08B1032000E0022023
:10483000804605E0012C01D1022000E003208046E3
:104840004146304600F025FA2AE0304601F086FE67
:1048500030B33046FDF74EF90446A00000F58070F5
:1048600087B22046104951F8201041F001020E494C
:1048700041F8202000BF384600F068FA7DB130468C
:10488000FDF738F98146FDF7EDF88046B8F1000FE5
:1048900004D0012101FA04F000F072FA00BF00BF59
:1048A000BDE8F087182A0020106500402DE9FC477C
:1048B00004460E4617464FF00008204601F034FE2D
:1048C00010B14FF0080855E0F27839462046FDF760
:1048D000D1F80546681C002849D0B07880B100BFE7
:1048E00000BF4FF0A042104600F5E06252F82420CD
:1048F00022F0020100F5E06242F8241000BF0CE053
:1049000096F80190002000904B4602460146019027
:10491000204600F091F900BF00BFF078D0B13078A8
:10492000164951F82510164A1140144A42F825102C
:10493000114651F825104FF4F85202EA04224FF4C0
:10494000403303EA00431A4311430C4A42F825104E
:1049500000BF0EE0A5F108000A49085C317840EA82
:10496000811042B2A5F1080006490A5401E04FF057
:10497000040800BF4046BDE8FC8700001065004009
:10498000FFE0FCFF182A002010B50446204600F086
:1049900099F908B1012010BD0020FCE770B5164858
:1049A00090F8540010B10825284670BD002404E09A
:1049B000204601F0E3FD601CC4B2202CF8DB00248B
:1049C00004E02046FDF73EF8601CC4B20C2CF8DB76
:1049D00007210620FFF7E4FE4FF4BE7000F0B6F9A1
:1049E0004FF0004000F0CCF90120034981F8540059
:1049F00000252846D9E70000C8290020034890F880
:104A0000540008B1012070470020FCE7C8290020AD
:104A10002DE9F84F04460D46164698464FF480306F
:104A200000FA05FB4FF4A07000EB850080B2009007
:104A30005946206800F0BDF95946206800F0C2F9D7
:104A400026F07F46607900EB40001C49084440781E
:104A5000E0B132462946206800F098F92068D0F885
:104A600004158946A9EB060AB14502D26FF07F40D2
:104A70008244607900EB400010490844807850453A
:104A800003DD0D273846BDE8F88F04E0324629469D
:104A9000206800F07BF9B8F1000F07D0206800997A
:104AA00000F079F95946206800F092F959462068DB
:104AB00000F082F900273846E5E7000008220020D0
:104AC00010B504460021206800F08DF902206179BC
:104AD00001EB4101014A505410BD000008220020A2
:104AE0002DE9F04104460D46174627B16079184973
:104AF00041F8207003E007263046BDE8F081607978
:104B000000EB40001349085C10B108263046F4E77A
:104B1000A97894F90400FFF743FE29882068C0F8BB
:104B2000081500BF2879617901EB4101094A114458
:104B30004870E878617901EB4101114488700120E7
:104B4000617901EB4101505400263046D5E7000061
:104B500004220020082200202DE9F04781460C465F
:104B600016464FF480374FF4A078002520E03946F0
:104B7000484600F033F9A8B14146484600F01FF915
:104B800080B13946484600F014F93946484600F0ED
:104B900019F94146484600F0FEF8E8B21B4A52F8BF
:104BA000241088477F0008F104001FFA80F86D1C6C
:104BB000B542DCD34FF480780121484600F00EF96D
:104BC00068B14146484600F0FAF840B141464846CF
:104BD00000F0E1F80D4850F82410042088474FF405
:104BE00082780221484600F0F9F868B1414648460B
:104BF00000F0E5F840B14146484600F0CCF80348E3
:104C000050F8241005208847BDE8F08704220020D2
:104C1000F0B5DDE9054500BF4FF0A0473E4641EA4B
:104C2000420747EA830747EA042747EA054C06F5A7
:104C3000E06747F820C0F0BDF0B5DDE9054500BFED
:104C40004FF0A0473E4641EA420747EA830747EA5A
:104C5000042747EA054C06F5E06747F820C0F0BD99
:104C600010B50A4600BF4FF0A043194601F5E063B6
:104C700053F8203023F4403401F5E06343F820403A
:104C800053F8203043EA024401F5E06343F8204042
:104C900010BD10B50A4600BF4FF0A043194601F5FC
:104CA000E06353F8203023F4403401F5E06343F827
:104CB000204053F8203043EA024401F5E06343F812
:104CC000204010BD014600BF4FF0A040024600BF8B
:104CD000D2F81005C84000F00100704710B561B966
:104CE00000BF00BF4FF0A0421346012404FA00F2B7
:104CF000C3F80C2500BF00BF0CE000BF00BF4FF0A1
:104D0000A0421346012404FA00F2C3F8082500BFAC
:104D100000BF00BF10BD000038B50B46074C24682B
:104D20000094014606E05DF82140D4F81055156066
:104D3000121D491CC4188C42F5D838BD38A7020092
:104D400001460148084470470060004038B50446F9
:104D50002046FFF7F5FF002101602046FFF7F0FF36
:104D60000068009000BF38BD10B504462046FFF72C
:104D7000E7FF0068012800D110BD0020FCE700001B
:104D800001490860704700000463004000F5A86313
:104D900043F82120704708B5002242504258009243
:104DA00000BF08BD08B5002242504258009200BF23
