:020000040001F9
:10F0000058670020B5F40100BDF40100BFF4010011
:10F01000C1F40100C3F40100C5F4010000000000C8
:10F0200000000000000000000000000015F40100D6
:10F03000C9F401000000000059F40100CDF4010002
:10F0400015000200CFF4010001040200CFF401001A
:10F05000CFF40100CFF40100ADFD0100CFF40100B9
:10F06000CFF40100CFF40100CFF40100CFF4010090
:10F07000CFF40100CFF40100CFF40100CFF4010080
:10F08000CFF4010065000200CFF40100CFF40100CD
:10F09000CFF40100CFF40100A5010200CFF401007C
:10F0A000CFF40100CFF40100CFF40100CFF4010050
:10F0B000CFF40100CFF401000000000000000000C8
:10F0C000CFF40100CFF40100CFF40100CFF4010030
:10F0D000AD000200CFF40100CFF4010000000000F9
:10F0E0000000000000000000000000000000000020
:10F0F0000000000000000000000000000000000010
:10F1000000000000000000000000000000000000FF
:10F1100000000000000000000000000000000000EF
:10F40000DFF80CD000F0DEF800480047C54C0200E1
:10F4100058670020264B19680868B0E8F04F80F361
:10F420000988BFF36F8F4FF0000080F31188704799
:10F43000000000000748006880F3088862B661B6E3
:10F44000BFF34F8FBFF36F8F4FF4F07080F31188CD
:10F4500000DF000000F00100EFF30980BFF36F8FC1
:10F46000134B1A681EF0100F08BF20ED108A20E918
:10F47000F04F106008B44FF0200080F31188BFF304
:10F480004F8FBFF36F8F0AF027FF4FF0000080F31C
:10F49000118808BC19680868B0E8F04F1EF0100F1A
:10F4A00008BFB0EC108A80F30988BFF36F8F7047F4
:10F4B0005C2200200648804706480047FEE7FEE73A
:10F4C000FEE7FEE7FEE7FEE7FEE7FEE7FEE7FEE714
:10F4D000E501020001F4010040EA01039B0703D0AB
:10F4E00009E008C9121F08C0042AFAD203E011F883
:10F4F000013B00F8013B521EF9D27047D2B201E045
:10F5000000F8012B491EFBD270470022F6E710B528
:10F5100013460A4604461946FFF7F0FF204610BD81
:10F5200030B505462A460B4612F8010B13F8014B7D
:10F5300008B1A042F8D01CB1002802D06D1CF1E740
:10F54000284630BD10B5044604E00B7800F8013BB6
:10F5500003B1491C521EF8D2204610BD421C10F8BF
:10F56000011B0029FBD1801A704730B504460020EA
:10F57000034600E05B1C934203D2E05CCD5C401B81
:10F58000F8D030BD034611F8012B00F8012B002AFA
:10F59000F9D11846704730B50B46014600202022AD
:10F5A000012409E021FA02F59D4205D303FA02F590
:10F5B000491B04FA02F52844151EA2F10102F1DCF0
:10F5C00030BD0000064C074D06E0E06840F0010346
:10F5D00094E8070098471034AC42F6D3FFF714FFC5
:10F5E00008B2020028B2020070B58C1810F8015B56
:10F5F00015F0070301D110F8013B2A1106D110F8CC
:10F60000012B03E010F8016B01F8016B5B1EF9D1CF
:10F610002B0705D40023521E0DD401F8013BFAE755
:10F6200010F8013BCB1A921C03E013F8015B01F8C0
:10F63000015B521EF9D5A142D8D3002070BD000055
:10F640002DE9F04106460C4615460027B846002035
:10F650002B4908804FF400713046FFF756FF2CB15C
:10F66000204600F0DFF927A000F0DCF9002D26D0BD
:10F6700001202549086018E0002343F69822194626
:10F68000224800680BF070F801280AD120A1224816
:10F69000FFF746FF48B121A1002000F075FD0027CB
:10F6A00009E023A1002000F06FFD29461A48FFF76A
:10F6B00037FF0028E0D000BF0120134948607EB129
:10F6C00021461548FFF72CFF30B14FF40072124964
:10F6D0003046FFF701FF03E01BA1002000F054FDBE
:10F6E0004FF400710C48FFF710FF0020214908700B
:10F6F00003490880804601273846BDE8F0810000B4
:10F70000B42200200D0A000000200040B822002092
:10F710004552524F5200000044450020415420639E
:10F720006F6D6D616E64206572726F72210D0A00DB
:10F7300053656D6170686F72652074696D656F7572
:10F7400074210D0A000000004572726F7220616E14
:10F750007377657220636D64206F72206E756C6CB8
:10F76000206261636B20706F696E746572210D0A8F
:10F7700000000000B622002070B5ADF5507D0446B3
:10F7800000254FF4807110A8FFF7BFFE40216846A6
:10F79000FFF7BBFE224627A110A800F00DFF10A81E
:10F7A000FFF7DCFE0646324627A1684600F004FF5C
:10F7B00029A2694650A8FFF743FF002836D010A8B9
:10F7C00000F030F925A200210846FFF739FF002894
:10F7D0002CD024A200210846FFF732FF002825D0B4
:10F7E00022A2002150A8FFF72BFFF8B121A150A8B9
:10F7F000FFF796FE28B120A1002000F0C5FC0125EE
:10F8000014E01FA150A8FFF78BFE28B11DA1002016
:10F8100000F0BAFC002509E01CA150A8FFF780FE0B
:10F8200020B11BA1002000F0AFFC002528460DF5FB
:10F83000507D70BD47455420257320485454502FA7
:10F84000312E310D0A0D0A0041542B4349505345C6
:10F850004E443D25640000003E00000053454E44E8
:10F86000204F4B002B495044000000000D0A0D0AA8
:10F8700000000000323030003230300D0A0000004D
:10F88000343030003430300D0A00000035303000A4
:10F890003530300D0A00000030B502461E205149B7
:10F8A00008601F204F490839086000204D49583131
:10F8B0000860B2F5614F47D014DCB2F5165F34D062
:10F8C00009DCB2F5966F1FD0B2F5166F22D0B2F5F3
:10F8D000965F58D124E0B2F5964F2BD0B2F5164F73
:10F8E00051D12CE0B2F5E12F3DD006DCB2F5E13F7D
:10F8F0002FD0B2F5613F46D130E0B2F5612F37D05D
:10F9000039481044F8B938E04FF49E203549103199
:10F91000086038E04FF41D2032491031086032E0B1
:10F9200032483049103108602DE031482D491031FE
:10F93000086028E02F482B491031086023E02E484A
:10F940002849103108601EE02C4826491031086013
:10F9500019E02B4823491031086014E02948214957
:10F96000103108600FE028481E49103108600AE095
:10F9700026481C491031086005E04FF080501949B5
:10F980001031086000BF00BF4FF0FF302049086011
:10F9900004202049C1F804031249143908600220E8
:10F9A000012181401C4B440943F8241000BF03216E
:10F9B000002807DA4B071D0E184B00F00F04241F18
:10F9C0001D5503E04B071C0E154B1C5400BF0220B5
:10F9D0000121814043099B0003F1E023C3F800119A
:10F9E00000BF30BD14250040C0BDF0FF00B01300C3
:10F9F0000050270000A04E0000509D0000F0EB00DA
:10FA000000E0D70100B0AF0300705F0700D0BE0E6A
:10FA1000082300400020004080E200E018ED00E0F4
:10FA200000E400E010B50346002404E0185D00F097
:10FA300007F8601C84B2185D0028F7D110BD0000E3
:10FA40000121084A91600849086000BF0749096818
:10FA50000029FBD00021054A11600121014AD16033
:10FA600070470000002000401C2500401C21004081
:10FA7000F0B5ADF5117D06460C4615460027402130
:10FA800001A8FFF742FD224634A101A800F094FD31
:10FA900036A201A911A8FFF7D3FD00284BD034A14D
:10FAA000002000F071FB402101A8FFF72EFD2B463E
:10FAB000224632A101A800F07FFD01A9002000F03C
:10FAC00063FB402101A8FFF720FD2346324632A107
:10FAD00001A8009500F070FD24A201A911A8FFF76C
:10FAE000AFFD002821D033A111A8FFF719FDB0B157
:10FAF000402101A8FFF709FD2B4622462FA101A8AE
:10FB000000F05AFD01A9002000F03EFB17A233A12E
:10FB100011A8FFF795FD00281BD0012719E033A19C
:10FB2000002000F031FB002713E035A1002000F099
:10FB30002BFB00270DE0402101A8FFF7E6FC224641
:10FB400035A101A800F038FD01A9002000F01CFB40
:10FB5000002738460DF5117DF0BD000041542B50B3
:10FB6000494E473D22257322000000004F4B000004
:10FB700050696E67204F4B210D0A0000436F6E6E77
:10FB8000656374696E6720746F2025733A25642E4F
:10FB90002E2E0D0A0000000041542B4349505354AF
:10FBA0004152543D222573222C222573222C256498
:10FBB00000000000434F4E4E45435400436F6E6EAD
:10FBC000656374656420746F2025733A256420731F
:10FBD000756363657366756C790D0A0041542B4338
:10FBE00049504D4F44453D3000000000436F6E6E5C
:10FBF000656374696E67206572726F72210D0A0009
:10FC0000536572766572206E6F74206176616C69DF
:10FC100061626C65210D0A0049503A202573206904
:10FC200073206E6F74206176616C6961626C65210E
:10FC30000D0A0000F0B5ADF50D7D04460D464FF4FC
:10FC40007A700AF06FF92CA22CA10DA8FFF7F8FC2E
:10FC500018B12CA1002000F097FA4FF496600AF03A
:10FC600061F925A22DA10DA8FFF7EAFC18B12CA17E
:10FC7000002000F089FA2FA1002000F085FA202151
:10FC800005A8FFF742FC2B46224630A105A800F04C
:10FC900093FC19A205A90DA8FFF7D2FC18B130A159
:10FCA000002000F071FA002001900290039004906F
:10FCB00011A233A10DA8FFF7C3FCC0B133A10DA859
:10FCC000FFF72EFC0DA9401A461C34A10DA8FFF722
:10FCD00027FC0DA9401A471CB81BA0F111020DA862
:10FCE000304400F10D0101A8FFF72CFC00BF01A872
:10FCF0000DF50D7DF0BD00004F4B000041542B521F
:10FD000053540000526573657465642073756363B2
:10FD1000657366756C79210D0A000000415400007E
:10FD200045535038323636206973204F4B210D0A27
:10FD300000000000436F6E6E656374696E67207427
:10FD40006F2041502E2E2E0D0A00000041542B43EF
:10FD5000574A41503D222573222C22257322000050
:10FD6000436F6E6E656374656420746F204150202C
:10FD700073756363657366756C79210D0A00000005
:10FD800041542B4349465352000000002B4349463F
:10FD900053523A5354414950000000002B43494606
:10FDA00053523A5354414D41430000002DE9F04F66
:10FDB00089B04FF00008002008904FF48070079041
:10FDC0000126002413E0079805F004FD48B100BFA8
:10FDD00081480068304020B1079805F0EDFC48EA02
:10FDE000060876000798001D80B20790641C082C56
:10FDF000E9D34FF4BE7005F0EDFC50B14FF4BE7086
:10FE000005F0DAFC48F0004808AA0121002005F0BE
:10FE1000B9FC08F0FF0000B3012600241BE006EA4D
:10FE20000800B0B100BF6D4850F82400C0F30420B2
:10FE3000074600BF694850F82400C0F301408146DE
:10FE4000204602F0DFFA054615B149463846A84774
:10FE500000BF7600641C082CE1D308F000400028A5
:10FE60007ED0002006900590002505E04FF0FF3081
:10FE700004A941F825006D1C002DF7D000BF00201B
:10FE8000069000246FE05648005D0390039820F030
:10FE9000C00753480057401C002863D004A93846C7
:10FEA00005F094F800285DD003984FEA901A384680
:10FEB00002F0F0FA814602F0A5FA0290029810B919
:10FEC000BAF1030F4BD1BAF1030F11D1394605A88E
:10FED0000246CB0801F0070112F803C04FF0010EF3
:10FEE0000EFA01FE4CEA0E0C02F803C000BF00BF80
:10FEF00000BF00BF4FF0A041084600F5E06151F897
:10FF00002710C1F3014900BF08A9384605F05EF883
:10FF10008346BBF1000F02D0B9F1020F05D0BBF14F
:10FF2000000F1BD1B9F1030F18D1BAF1030F0FD194
:10FF3000B9F1020F01D1032000E002200190384600
:10FF4000019905F0DCFB0698401CC0B2069000BF8A
:10FF5000029818B151463846029A904700BF00E017
:10FF600036E000BF641C042C8DD3069858B30127DB
:10FF700003AA0121002005F005FC00250AE003A8E2
:10FF800050F8250008A951F82510884201D0002713
:10FF900002E06D1C002DF2D000BF17B100200690CA
:10FFA00010E000250CE003A850F8250008A941F84E
:10FFB000250005A850F8250004A941F825006D1C6E
:10FFC000002DF0D000BF069800287FF458AF00BF86
:10FFD00009B0BDE8F08F00000463004010650040E8
:10FFE000182A002000F01F0201219140024A430913
:10FFF00042F823107047000080E100E000F01F028B
:020000040002F8
:10000000012191404209920002F1E022C2F8001160
:100010007047000010B54FF4807005F048F860B1EB
:100020004FF4807005F04CF8012005F053F80120E2
:100030000B494870002002F09DFB4FF4827005F0E0
:1000400036F858B14FF4827005F03AF8022005F006
:1000500041F801200249887002F08CFB10BD0000BD
:10006000B429002010B54FF480710E4805F0D0FB84
:100070004FF4A0710B4805F0CBFB00BF00BFEFF3BE
:1000800011800446202000F0E7FA00BF0AF01AFEB3
:1000900020B14FF080500449086040BF002000F0BC
:1000A000DBFA10BD0010014004ED00E010B50422A1
:1000B0000021024805F086FA10BD00000040024011
:1000C0002DE9FC4104460D46164600BF0C48007859
:1000D00008B900F0CBF900BF0020019000906846FD
:1000E00000F0FAFE32462946204600F00BF807469B
:1000F00000BF9DF8000000F0F5FE3846BDE8FC8129
:10010000E02F00202DE9F047074688461646C246F4
:1001100007EB47011B4800EBC109D9F8140020B1D7
:10012000012811D0022826D11EE0484600F0D6F959
:100130000546B54201D2002405E034463246514618
:10014000484600F012FA18E0484600F0C7F90546A4
:10015000B54201D2284600E03046044622465146C8
:10016000484600F002FA08E032465146484600F0A0
:10017000C3F9044601E0002400BF00BF2046BDE8EB
:10018000F0870000F82F002070B505460C46204689
:10019000FFF7E4F90646324621462846FFF790FF6E
:1001A00070BD000070B50A48006868B10848006872
:1001B0008047044600BF254625B100BF284600F011
:1001C0007FFD00BF00BF01E004F0D8F970BD000062
:1001D0004022002001480249086070470090D00387
:1001E0006821002010B502F0E7FC10B1764877498D
:1001F000486702F0F9FC28B175480068C0F3423046
:100200007449086002F01AFD28B17348006820F0B4
:1002100080707149086002F029FD48B100206F49E3
:1002200008604FF08041C1F810016A49091F086059
:1002300002F046FD18B1032066496431086002F0FF
:1002400057FD68B10520664908600120644978318E
:10025000086000206249083108603F20091F0860DB
:1002600002F05EFD002855D05E4800685E490860D7
:100270005C48001D0068091D08605A480830006885
:10028000091D086057480C300068091D0860554872
:1002900010300068091D0860524814300068091DBC
:1002A00008605048183000684F49203108604D48B8
:1002B0001C300068091D08604A4820300068091D8C
:1002C0000860484824300068091D08604548283007
:1002D0000068091D086043482C300068091D08604B
:1002E0004048303000684049403108603D48343073
:1002F0000068091D08603B4838300068091D086027
:1003000038483C300068091D0860364840300068B5
:10031000091D086002F026FC30B12D481430006839
:1003200000F04F00314908602B487438006840F4F1
:100330007000294974390860BFF34F8FBFF36F8F86
:100340002B48006800F0004028B92948001D0068CB
:1003500000F0004098B301202649086000BF2648FD
:1003600000680028FBD015202149086000BF224802
:1003700000680028FBD015211D48001D016000BF4A
:100380001D4800680028FBD000201A49086000BF03
:10039000194800680028FBD000BFBFF34F8F0E48FC
:1003A000F038006800F4E06014490843001D0A4971
:1003B000F0390860BFF34F8F00BF00BFFEE7FFE7D3
:1003C000FFF708FF10BD00000DF0ADBA00C00740F8
:1003D000440200103C050040FCED00E00C01004030
:1003E000105600400404001020C50040E40E0040F8
:1003F0000012001004E5014000E401400000FA058D
:1004000010B513480068012820D100201049086069
:10041000104800681049114A128888540F48008813
:10042000401C0E4908800E490E4800680AF04BFB3C
:100430000B48006850B100BF4FF080500A49086077
:1004400040BFBFF34F8FBFF36F8F00BF10BD0000E1
:10045000082100401825004044450020B422002017
:10046000BC220020B822002004ED00E010B5124CA0
:1004700002202061606111A0A0611349E1614FF485
:10048000806121620021A1626162E1620BA0A0642F
:100490000E49E164102121650021A1656165E165D6
:1004A0000BA1E01DFFF76EF80AA12046FFF76AF8DE
:1004B0002020A07110BD0000E02F00205465726D57
:1004C000696E616C00000000D02B0020D02F00204E
:1004D00052545400534547474552000010B5014659
:1004E0000A69CB689A4204D88C68641EE41AA01882
:1004F00001E0D41A601E10BD2DE9F047044689467C
:1005000017464FF0000AE56800BFD4F81080A845F0
:1005100003D9A8EB0500461E04E0A5EB0800401C2B
:10052000A1680E1AA068401BB04201D9304601E014
:10053000A068401B0646BE4201D2304600E0384665
:1005400006466168481932464946FEF7C5FFB2447F
:10055000B144BF1B3544A068A84200D10025E56026
:10056000002FD2D15046BDE8F0872DE9F047044670
:1005700089461546E668A068871BAF4208D96168BE
:1005800088192A464946FEF7A7FF7019E06010E077
:10059000B8466168881942464946FEF79DFFA5EBBB
:1005A000070809EB070142466068FEF795FFC4F8AB
:1005B0000C80BDE8F08700000FB4084B10B504A90B
:1005C00002AA039800F054F8044602A9002000F0A3
:1005D0002BF9204610BC5DF814FB0000290802002E
:1005E00002E008C8121F08C1002AFAD170477047FC
:1005F000002001E001C1121F002AFBD1704700005A
:100600000146202908DA012088400A4A104008B132
:10061000012070470020FCE7402909DAA1F1200001
:10062000012202FA00F008B10120F2E70020F0E711
:100630000120EEE7FC06FFBC00BFEFF31081084687
:1006400072B6704700BFEFF31081084672B670476C
:10065000C1B281F311887047C1B281F3118870472C
:10066000C1B281F311887047C1B281F3118870471C
:100670002DE9FF4F8BB09A460F460546002606E04F
:1006800025280BD052460D9990476D1C761C287872
:100690000028F5D10FB03046BDE8F08F0024A04609
:1006A0000122604900E0044315F8013F203B02FAB3
:1006B00003F00842F7D128782E2817D115F8010F3A
:1006C00044F004042A280ED06FF02F022878A0F1FD
:1006D000300109290AD808EB880102EB410100EB3F
:1006E00001086D1CF2E757F8048B6D1C2878692807
:1006F0003ED006DC0028CDD063280BD0642804D17E
:1007000036E0732810D075284BD052460D9990478B
:10071000761C85E017F8040B8DF8000000208DF89A
:100720000100E946012003E057F8049B4FF0FF3039
:1007300061074FF0000401D40AE0641C44450DDA5F
:100740008442FADB19F804100029F6D106E0641C93
:100750008442FCDB19F804100029F8D1264404E097
:1007600019F8010B52460D999047641EF8D257E0D4
:1007700001CF4FF00A0B002802DA40422D2102E09F
:10078000210504D52B218DF82410012103E0E10778
:1007900005D02021F7E70DF1200908910CE0002198
:1007A000F9E701CF4FF00A0BF9E75946FEF7F3FEE0
:1007B00001F1300209F8012D0028F6D1ADEB090056
:1007C00000F1200B600701D44FF00108D84502DD8D
:1007D000A8EB0B0000E000208046002406E009A8FA
:1007E0005246005D0D999047641C761C089884421F
:1007F000F5DB04E0302052460D999047761CB8F1A5
:100800000001A8F10108F5DC05E019F8010B5246DA
:100810000D999047761CBBF10001ABF1010BF4DCA4
:100820006D1C34E7092801000A68531C0B60107026
:10083000704770B505460C4605B10CB9002070BD77
:10084000287840082178B0EB510F01D00020F6E75E
:100850000622611C681CFEF788FE08B90120EEE73D
:100860000020ECE70246002104E0505C08B10120C2
:100870007047491C0629F8D30020F9E710B5044653
:100880006CB108480068A04209D806484068A042F8
:1008900005D3204603F042FF08B1012010BD00201F
:1008A000FCE70000C02200202DE9FC4104468846F8
:1008B0001646002537880020308094F82D0058B166
:1008C0003A463146404601F005F8054600BF15B1ED
:1008D0002846BDE8FC8100BFA07850B13A463146B9
:1008E000404600F023FB054600BF0DB12846F0E767
:1008F00000BFE07860B1E17848B23B4632464146FD
:1009000002F00EFE054600BF0DB12846E1E700BF2C
:10091000606868B1616891F900003B463246414623
:1009200009F02EF8054600BF0DB12846D1E700BFFB
:10093000208900280EDD43460622022104F108002A
:10094000CDE9006709F0DAF8054600BF0DB1284689
:10095000BFE700BF208A00280EDD4346072203219F
:1009600004F11000CDE9006709F0C8F8054600BFA2
:100970000DB12846ADE700BF208B00280EDD4346B1
:100980001522142104F11800CDE9006709F0B6F82A
:10099000054600BF0DB128469BE700BF206A58B14D
:1009A0003B4632464146206A01F029FF054600BF1A
:1009B0000DB128468DE700BF606A58B13B4632460C
:1009C0004146606A04F014FA054600BF0DB128469E
:1009D0007FE700BF94F82C0000280BDD3B46324631
:1009E0004146204608F0F8FA054600BF0DB12846FA
:1009F0006FE700BF207858B13B463246414620465B
:100A000004F031FA054600BF0DB1284661E700BF8A
:100A100028465EE770B504461448FFF723FF0546F5
:100A2000012C06D0022C0BD0032C10D0042C1AD190
:100A300013E00F48407810B10DB1012070BD00BF28
:100A40000B48807810B10DB10220F7E700BF0848CD
:100A5000C07808B10320F1E700BF0548007908B16C
:100A60000420EBE700BF0020E8E700007121002030
:100A7000642400200146481C052290FBF2F302FB8F
:100A80001300C0B270470146C87800F0040008B9EE
:100A9000072070470020FCE710B50122022100204A
:100AA00001F02AFA044600BF1CB1072C01D02046F1
:100AB00010BD00BF07220221012001F01DFA0446EB
:100AC00000BF1CB1072C01D02046F1E700BF0A226D
:100AD0000021084601F010FA044600BF1CB1072CA3
:100AE00001D02046E4E700BF0020E1E730B599B02F
:100AF0003C210AA8FEF709FD02208DF828000120FC
:100B00008DF82A0006208DF82B000120ADF8380062
:100B100010490F91202102A8FEF7F7FC01208DF863
:100B20000B004FF496700690B420079000200A4BFB
:100B300002AA014600900AA800F034FB044600BF58
:100B4000254625B100BF284600F0BAF800BF00BF17
:100B500019B030BD2A2100206158020070B58CB058
:100B600004460D461646002005E0C0F10F01615C09
:100B70000DF80010401C1028F7D30D2104A8FEF733
:100B8000C4FC002005E02A5CC0F10F0304A9CA548C
:100B9000401C0328F7D3684643DF002005E0C0F17E
:100BA0000F0208A9895C3154401C0328F7D30CB00C
:100BB00070BD10B50446022000F0FAFF10BD000021
:100BC00010B5002407E00749096811F83400012135
:100BD00004F04CFB641C044800788442F3D30020EA
:100BE00010BD00000C220020102200202DE9F84347
:100BF00006460C461746052F02D20720BDE8F883AB
:100C000004F032FC38B904F0FFFB054600BF0DB11B
:100C10002846F3E700BF16480660164804701648D9
:100C200007600020154908601549086015E006EBCB
:100C3000C40814480068009098F802008DF801007C
:100C400098F80000104A694604F066FB054600BFAC
:100C50000DB12846D2E700BF00BF201EA4F101015C
:100C6000CCB2E4D1094A0021094800F043F8C5E7B5
:100C70000C22002010220020142200201822002024
:100C80001C220020ECB10200453E0200512A020065
:100C9000E8B1020000BFBFF34F8F0748006800F4BF
:100CA000E06006490843001D03490860BFF34F8F09
:100CB00000BF00BFFEE700000CED00E00000FA05F9
:100CC0003EB50446002000900190029002946A46CE
:100CD000002144F20100FFF7DDFF3EBD70B505467F
:100CE000284607F033FA0446207B10B1A16820683B
:100CF000884770BD2DE9F8430546884616462C689E
:100D00004FF0000906B115B90720BDE8F883207B34
:100D100008B10820F9E76068D0B900202060606061
:100D2000A060E060B8F1000F01D1002700E00127CA
:100D3000A660094823463A464FF47A71009007A00E
:100D40000AF040F96060606820B94FF00E0901E0D8
:100D50000820DAE74846D8E7DD0C02002000000052
:100D600030B50446601C024D2860002030BD0000F4
:100D70003C2200202DE9FC5F05460E4617462C4616
:100D8000D4F804803448006800F101093348006851
:100D9000704300EB5900B0FBF9FAB8F1000F02D133
:100DA0000820BDE8FC9F207B002806D040460AF0C2
:100DB00081F9002801D00020F3E7276000BFEFF39E
:100DC000058048B30020019001AB524609210090F4
:100DD00040460AF039F9012801D00420E1E709F082
:100DE0006BFF8346002001AB5A4606210090404627
:100DF0000AF02AF9012801D00420D2E7019850B165
:100E000000BF4FF080501649086040BFBFF34F8FBE
:100E1000BFF36F8F00BF1AE0022000235246042167
:100E2000009040460AF010F9012801D00420B8E7EC
:100E300009F03CFF8346022000235A46012100901E
:100E400040460AF001F9012801D00420A9E7012059
:100E500020730020A5E70000081501403C22002077
:100E600004ED00E07CB5044625466E68002E01D1F5
:100E700008207CBD00BFEFF30580D0B100200190B9
:100E800001AB02460821009020460AF0DDF8012857
:100E900001D00420EDE7019850B100BF4FF0805021
:100EA0000C49086040BFBFF34F8FBFF36F8F00BF87
:100EB0000BE0022000231A460321009020460AF08E
:100EC000C3F8012801D00420D3E70020287300BF15
:100ED000CFE7000004ED00E010B50446204607F01F
:100EE0002DFD10BD70B5044625460E488068B0B192
:100EF000ADB9FFF7A1FB06460A4800680A49086039
:100F0000084840684FF0E021C1F80401002005497D
:100F100088601EB900BF62B600BF00BF00BF00BF3F
:100F200070BD0000402A002000E100E0F8B5054651
:100F30000C4617462088001DB84201D90C20F8BD88
:100F4000684679DF064600BF0EB13046F7E700BFBE
:100F50000320218868542088401C20801920218883
:100F600068542088401C208020884119BDF800006A
:100F700008F027FD2188084420800020DFE70000DA
:100F800038B509F093FE04460220002322460121D1
:100F90000090064800680AF057F8012804D000BF06
:100FA0000420FFF78DFE00BF38BD00004421002063
:100FB00030B58BB01348007800F05AFC054628463F
:100FC00007F024FDD8B101A800F0B2FB142201A95A
:100FD00006A8FEF781FA00240DE007A931F81400F5
:100FE0000849097800F052FC20B107A931F8140033
:100FF00003F0A2FD641C0698A042EED800BF0BB01F
:1010000030BD0000AA21002010B50446637903F02A
:1010100003022179208803F019FD10BD10B50446A4
:10102000207918B9204600F007F803E02046FFF7C2
:10103000EBFF00BF00BF10BD2DE9F04188B00446B2
:101040000025208800F0E6FB0746208803F0D6F94B
:101050000646A0680790607A0690208800222349FF
:10106000097800F025FC17B908B0BDE8F081607977
:10107000C0F3800090B10721304605F091FB054692
:10108000BDB108208DF800002088ADF80200ADF851
:1010900004600295684601F085FF0AE02088144943
:1010A000097800F0F3FB20B1304603F091F9804657
:1010B00000BF03208DF80C002088ADF80E00607989
:1010C000C0F380008DF81000A079C0F380018DF886
:1010D00011109DF81C108DF812109DF818108DF845
:1010E000131003A801F05EFF00BFBDE7EA21002056
:1010F000EC21002030B50246002015780446401C43
:101100000D5530BD10B50446022000F051FD10BD54
:101110002DE9F04192B080460D461F2011901090AD
:10112000B8F1000F17D04046FFF7ADFC044600BFF2
:101130001CB1204612B0BDE8F08100BF11AA08A979
:101140004046FFF7B1FB044600BF0CB12046F1E773
:1011500000BF08AE02E0002600201190ADB1284685
:1011600008F0A8FB044600BF0CB12046E2E700BF30
:1011700010AA69462846FFF797FB044600BF0CB14A
:101180002046D7E700BF6F4602E0002700201090FE
:10119000BDF84000C3B2BDF84400C1B23A46304683
:1011A00072DFC7E72DE9F04704460F4615461E4695
:1011B000DDF8208004B115B90E20BDE8F0870120CC
:1011C00048490870002048490870202229464748AD
:1011D000FEF782F9464806604648C0F800804FF6A0
:1011E000FF70454908804548002101608180817178
:1011F0003C214348FEF789F9207841490870A078DE
:101200008870E078C87060784870D4E90402C1E959
:1012100004020846D4E90212C0E90212D4E9061217
:10122000C0E90612606AD8B1364835494862364985
:101230008160606A00883249496A0880606A8088F3
:101240002F49496A8880002005E0616A8968095C45
:101250002D4A1154401C2A49496A89888142F4D890
:10126000A06A20B329492A48816025498862274914
:101270002348806A8160A06A80882149896A8880C1
:10128000A06A00881E49896A0880002005E0A16ADA
:101290008968095C1D4A1154401C1949896A89886A
:1012A0008142F4D894F82C00154981F82C00206A6A
:1012B00058B1184812490862206A4088096A488073
:1012C000206A00880E49096A0880606810B10C49DC
:1012D0006068486039460A48FFF71AFF8146484669
:1012E0006BE700006C2100206F21002064240020A7
:1012F00080210020842100207C21002070210020FA
:1013000084240020C0240020CC240020F8240020C5
:10131000EC2400207821002010B5044620881028F5
:1013200004D0112806D01B280CD107E0204604F079
:101330001DFC08E0204604F047FC04E0204604F0D1
:1013400093FD00E000BF00BF10BD000070B5054672
:10135000022D02D0032D15D100E000BF0B4800780C
:1013600078B10020094908700948007800F040F879
:10137000044634B10748006818B120460549096899
:10138000884700E000BF00BF70BD00006D21002055
:101390006F2100208421002010B574DF01200F4947
:1013A000087000200E49087006200E49C870002100
:1013B0000C48FFF7ADFE04460CB1204610BD0A48AC
:1013C000007800F015F8044634B10848006818B1F8
:1013D00020460649096888470020EFE78821002059
:1013E0008A210020842400206F21002084210020F5
:1013F0007FB505464D48007810B9082004B070BD8F
:101400004B48057002F0F6F820B1012049490870F8
:101410000020F3E74848002101608180817147483E
:10142000407818B14248007801280DD043488078B0
:1014300018B13F480078012806D04048807888B12C
:101440003B48007802280DD13D48006838B10120A2
:101450003C49087008203A490968884702E00020A2
:10146000384908702846FFF7D5FA314908703448E2
:101470000068C0B108460078032803D00846007809
:10148000042810D12D48007868B12F48007850B951
:1014900000202E49087001202D4908700720284996
:1014A0000968884702E00020294908700020009060
:1014B0000190029003908DF800008DF808001C4800
:1014C000007805281CD2DFE800F01703080D120091
:1014D000684607F0F5FD044613E0684607F000FE95
:1014E00004460EE0684607F011FE044609E068462F
:1014F00007F03CFE044604E000201649087000E0B6
:1015000000BF00BF0A48007828B1684673DF044670
:101510000CB1204672E70A48006820B10D480078F7
:10152000074909688847002068E700006C2100200F
:101530006F2100206D2100207021002064240020F4
:101540008021002077210020882100208A2100208E
:10155000892100206E21002070B594B004460D460C
:10156000286820604FF6FF70208300BF01208DF8AF
:101570004E0041F60F00ADF84C0000BF221D13A92C
:101580000120A0DF064616B1304614B070BDD5F874
:1015900006001090D5F80A001190E889ADF84800CF
:1015A0002879A071202103A8FDF7AFFF42F619208A
:1015B000ADF80C001420ADF810000BA910A8FFF72F
:1015C00099FDADF812000BA80590A1799DF81900BE
:1015D00061F304108DF819009DF8190020F0020045
:1015E000801C8DF8190001208DF81D008DF81F005A
:1015F0008DF818000020019002900A208DF8040058
:101600000120ADF80A00FE208DF8050001208DF8BC
:10161000080042F20270ADF8060001A80A90A08806
:1016200004F1080203A900F03BFF06460EB1304664
:10163000ABE70020A9E770B505460C4620881028C6
:1016400006D0112809D050280CD0512814D10EE012
:101650002146284604F06AFA0FE02146284604F0A5
:101660008FFA0AE0A11D284604F036FC05E0211D92
:10167000284604F0CAFB00E000BF00BF70BD0000B8
:1016800070B505461C2229461248FDF725FF0020AB
:1016900011490870286850B1104829680A6802602A
:1016A000496841607ADF04463CB1204670BD0B4872
:1016B0007BDF04460CB12046F8E74FF6FF7008497F
:1016C0000880002007490870074A00210748FFF7F3
:1016D00011FBEBE718250020A02100208C21002021
:1016E00096210020942100203D9A02001CB10200A6
:1016F00010B504462088102806D0112808D01228DA
:101700000ED0502810D107E0204604F013FA0CE068
:10171000204604F039FA08E0204604F0F9FB04E022
:10172000204604F0F7F900E000BF00BF10BD000044
:1017300010B504460348027D011D204607F0DFF97D
:1017400010BD00005425002010B504460348C17D9B
:101750002246001D07F0BCF910BD000054250020F2
:1017600010B504460348017E2246001D07F0B0F97B
:1017700010BD00005425002070B5044620881028B4
:1017800004D011281DD01A2840D11EE006F0A6FF73
:10179000A08806F01BFE20B900BF0420FFF790FAD6
:1017A0000EE0E07B022801D1012000E00020054688
:1017B000A2882B461649A1F1120007F0C1F900BF1B
:1017C00024E0A08806F0ACFF20E0207A0121B1EBF4
:1017D000101F01DA012000E000200346A2880C4916
:1017E000491CA1F1130007F0ABF9207A0221B1EBFB
:1017F000101F01DA012000E000200346A2880449FE
:10180000891CA1F1140007F09BF900BF00BF70BD57
:101810006A25002070B5044600250B48017D22464C
:10182000001D07F055F960B10748817D2246001D73
:1018300007F04EF906460EB1022000E001200546F1
:1018400000BF284670BD00005425002010B50024BC
:101850000AE0204608F044F920B9204608F036F99D
:10186000204610BD601CC4B2182CF2DB1820F8E72B
:1018700010B50446204608F033F910B10248005D67
:1018800010BD0020FCE700006D25002070B5054666
:101890000C46204608F024F930B10448015D2A4680
:1018A000153807F015F970BD0020FCE76D25002004
:1018B00070B505460C461646204608F011F930B1C1
:1018C0000348011933462A46153807F039F970BD27
:1018D0006D2500202DE9FC4105460C461746208861
:1018E0000930B84202D90C20BDE8FC8168466DDFA2
:1018F000064600BF0EB13046F6E700BF082021883B
:1019000068542088401C20801B202188685420882F
:10191000401C208020882844DDF801100160BDF8BB
:10192000051081802088801D20809DF800004008DF
:1019300018B900202188685402E0012021886854E9
:101940002088401C20800020CEE7000010B504460F
:101950002046FFF711FF204605F0C0FD2046FFF7A7
:10196000C7FE204600F0BCF92046FFF7D5FC204614
:1019700004F014F8204600F0F3F82146014803F083
:101980005DFB10BDD022002070B50446204608F053
:1019900012F8054605F0010070BD000070B588B072
:1019A00027480068079000BF00235022254907A858
:1019B00007F020FF054600BF2E4626B100BF304687
:1019C000FFF77EF900BF00BF00BF6A46012100207B
:1019D00007F0F0FE044600BF254625B100BF2846AB
:1019E000FFF76EF900BF00BF1720ADF81000684682
:1019F00007F0CCFE044600BF254625B100BF2846AF
:101A0000FFF75EF900BF00BF0F4807F0B3FE0446C2
:101A100000BF254625B100BF2846FFF751F900BF9A
:101A200000BF0A4807F03AFF044600BF254625B12B
:101A300000BF2846FFF744F900BF00BF08B070BDE3
:101A4000E4B002008C2300204D1902001B99020013
:101A500008B507F06BFF684600F088FCFFF79EFFB3
:101A60009DF8000005F00EFA9DF80000012803D152
:101A70001AA10020FEF788FB01F006FFFFF736F8F9
:101A800007F0F6FA00F0F8FEFFF77AFA17A1002047
:101A9000FEF77AFB0320FFF7ABFC044600BF2546A8
:101AA00025B100BF2846FFF70BF900BF00BF1A4859
:101AB000006808F025FB1948006808F021FB0BE0DE
:101AC00000BF00235A1E19461548006808F04CFE56
:101AD0000028F6D002F052FDF2E70000426F6E647B
:101AE0007320657261736564210D0A00426C75652F
:101AF000746F6F7468204465762053747564696FE1
:101B000020537461727420416476657274697369DC
:101B10006E67200D0A000000402100203C210020BB
:101B2000302100201FB5002000900190029003900A
:101B30000948009001208DF8040000208DF806006F
:101B400069460648FFF708FD044614B1204604B074
:101B500010BD0020FBE70000AD580200DC23002090
:101B600010B5044621460248FFF765FD10BD000090
:101B7000DC23002001460148405C7047ECB00200C5
:101B800010B50146094B585C00BF4FF0A0442346F6
:101B900000BFD3F81045C44004F001040CB101208B
:101BA00000E00020024682F0010010BDECB002000F
:101BB00010B502460949885C00BF4FF0A044214699
:101BC000D1F80435012484409C43C1F80845012420
:101BD00084401C40C1F80C4500BF10BDE8B00200B5
:101BE00010B504460249085D012103F0ADFD10BDAA
:101BF000E8B0020010B504460249085D002103F078
:101C0000A3FD10BDE8B0020010B50146094B585CB9
:101C100000BF4FF0A044234600BFD3F80445C440A2
:101C200004F001040CB1012000E00020024682F023
:101C3000010010BDE8B002007CB500240CE00948AA
:101C4000055D0020009003460122114601902846C0
:101C500003F014FD00BF641C042CF0D300F004F862
:101C60007CBD0000E8B0020010B5002403E020466F
:101C7000FFF7B6FF641C042CF9D310BD10B5002487
:101C800003E02046FFF7B6FF641C042CF9D310BD17
:101C900002464FF0FF30002106E0054B5B5C9342AB
:101CA00001D1084602E0491C0429F6D300BF704761
:101CB000ECB0020070B505460C46002606480560EB
:101CC00014B1204607F0FDFD0448006810B9FEF786
:101CD000E3FE0646304670BD6021002064210020EE
:101CE00070B505462888102802D011282CD115E09F
:101CF0001748006860B900F05BFE044600BF34B1CD
:101D00001448006818B1204612490968884700BF86
:101D10000F480068401C0E49086016E00C48006837
:101D2000401E0B4908600846006860B9FEF7B4FE23
:101D3000044600BF34B10748006818B12046054981
:101D40000968884700BF00E000BF00BF70BD000009
:101D5000642100206021002010B5002000F0F4FA7A
:101D6000044600BF1CB1062C01D0204610BD00BFA8
:101D7000012000F0E9FA044600BF1CB1062C01D096
:101D80002046F3E700BF0020F0E700002DE9F04116
:101D900006460F464FF0000800243046FFF778FF54
:101DA0000446042C41D227B3012F02D0022F3BD18D
:101DB00033E004EB4400234911F8008004EB4400B5
:101DC0000844407868B12048006800EB800041007A
:101DD0001E4A1F480068FEF7CDFF05460DB91B4897
:101DE000067004EB440017490844807819490855E7
:101DF0001AE017480068FFF735F81648005D04EB55
:101E00004401104A11448978884205D104EB44000A
:101E10001146084490F8028006E004EB44000949AA
:101E2000084490F8018000BF00BFB8F1000F06D051
:101E30000948006818B14046074909688847BDE865
:101E4000F0810000382400204C210020582100207F
:101E5000F8B00200592100205421002010B504469A
:101E60002046FFF78DFE10BD70B50546042D0DD040
:101E7000072D1CD00A2D06D00F2D2DD118A1002022
:101E8000FEF782F929E007F000FA26E0132119484D
:101E9000008876DF0446082C08D000BF264626B10D
:101EA00000BF3046FEF70CFF00BF00BF15E0114831
:101EB00000884FF6FF7188420DD1FFF76DFA044696
:101EC000082C08D000BF264626B100BF3046FEF7DA
:101ED000F7FE00BF00BF00E000BF00BF70BD000004
:101EE0004253505F4556454E545F4B45595F312034
:101EF0000D0A00002821002030B503460020042BE5
:101F000023D2012A07D1012903D103F10E04E4B23F
:101F100000E00024224679B1012902D0022911D122
:101F200004E003EB43040A4D2A550DE003EB4304A0
:101F3000074D2C44627007E003EB4304044D2C442E
:101F4000A27001E0072000BF00E0072030BD0000C4
:101F50003824002070B5044600250548007800F0BC
:101F6000010018B1204600F05FF80546284670BD14
:101F7000502100202DE9F04105460E4690460024F0
:101F80001F4806601F4805601F48C0F8008005F024
:101F90000200F8B1002706E0012211463846FFF79B
:101FA000ABFF04467F1C042F01D2002CF4D02CB9C7
:101FB000720804211548FEF719FE044614B9FEF70D
:101FC000FFFD04462CB9124A00211248FEF792FE8A
:101FD000044600BF05F0010008B1FFF72DFE2CB943
:101FE0000D4A00210D48FEF785FE04462CB90C4A27
:101FF00001210C48FEF77EFE04462046BDE8F08134
:102000004C2100205021002054210020FCB002006F
:102010005F230200F8B002005D470200F0B002004A
:10202000B30B0200F4B002002DE9F0410446002693
:102030000025C048007820B10020BE490870FFF795
:1020400013FE182C75D2DFE804F00C11123D6895D0
:10205000BFCDD3F0EEEDECEBEAE9E8E7E6E5E4E34B
:10206000E2E1FFF701FEB44804705FE100BF002029
:10207000FFF7CAFD58B10020FFF7B2FD022C02D1D4
:102080004FF4E16001E04FF47A60054609E000207A
:10209000FFF7B0FD022C01D1C82001E04FF4C87059
:1020A0000546A54804706420B5FBF0F0A349096813
:1020B00000FB01F700223946A1480068FEF75AFEEE
:1020C000064633E10020FFF79FFD58B10020FFF7DF
:1020D00087FD032C02D14FF4487001E04FF47A6081
:1020E000054609E00020FFF785FD032C01D1C8203B
:1020F00001E04FF4C87005468F4804706420B5FBBA
:10210000F0F08E49096800FB01F7002239468C483F
:102110000068FEF72FFE064608E10020FFF774FD79
:1021200060B10020FFF75CFD042C03D14FF47A600E
:1021300002E0FAE04FF47A6005460AE00020FFF77B
:1021400059FD042C02D14FF4C87001E04FF4C8705F
:102150000546794804706420B5FBF0F077490968BA
:1021600000FB01F70022394675480068FEF702FEC1
:102170000646DBE00020FFF747FD50B10020FFF7E7
:102180002FFD052C01D1C82001E04FF47A600546EF
:1021900009E00020FFF72EFD052C01D1C82001E049
:1021A0004FF4C8700546644804706420B5FBF0F035
:1021B0006249096800FB01F700223946604800685F
:1021C000FEF7D8FD0646B1E00020FFF7F1FC5A48C3
:1021D00004705A480022016859480068FEF7CAFD99
:1021E0000646A3E00020FFF705FD534804709DE07C
:1021F000012050490870FFF7DBFC504800220168BD
:102200004F480068FEF7B6FD06468FE088E086E09E
:102210007AE071E068E062E03EE03CE03AE038E01D
:1022200036E030E01FE010E0FFE701204149087090
:10223000FFF7BEFC4148006800EB800100224048E7
:102240000068FEF797FD064670E0012039490870E6
:10225000FFF7AEFC39480022016839480068FEF7F4
:1022600089FD064662E0012032490870FFF7A0FCB4
:102270003248006800EB8001002231480068FEF718
:1022800079FD064652E0FFF7F9FC2B4804704DE05B
:1022900000BF00BF00BF00BF2A480068FEF7E2FD94
:1022A0000646C4F11105B5B1AEB9012D0FD9C8204C
:1022B00068436421B0FBF1F02049096800FB01F795
:1022C000002239461F480068FEF754FD06460220EA
:1022D000FFF790FC02E00220FFF782FC26E0FFF708
:1022E000C3FC1548047021E0FFF7BEFC0020FFF797
:1022F00081FC1148047019E0FFF7B6FC0120FFF7DC
:1023000079FC0D48047011E0FFF7AEFC0020FFF7E8
:1023100071FC0120FFF76EFC0748047006E000BF67
:10232000FFF7ACFC0448047000E000BF00BF30467B
:10233000BDE8F08149210020482100204C210020E7
:10234000F0B00200F4B0020070B504462046FFF77A
:1023500011FC0546032103F0B9F9002070BD10B54A
:10236000044620780221FFF711FD10BDF8B505469F
:10237000134A40F6CD410320FFF7FCFD044600BFA1
:10238000264626B100BF3046FEF79AFC00BF00BFCC
:1023900069460020FFF78EFC044600BF264626B1A2
:1023A00000BF3046FEF78CFC00BF00BF9DF8000068
:1023B000022801D1012000E000202870F8BD0000B3
:1023C000691E020001468879012809D1087901288F
:1023D00006D1488842F60212904201D1012070478E
:1023E0000020FCE74FF0FF31054A42F82010082892
:1023F00004DBFF23A0F10801503253547047000062
:10240000C82900200146024850F82100704700000A
:10241000C82900202DE9F04F03460C464FF0FF3944
:102420000AB1002000E0082084460AB1082000E03C
:102430000C208046614624E0154850F82100401CDD
:10244000F0B91D460846274616464FFA80FBDFF8CE
:1024500040A00AF1300A0AF805B0DFF834A04AF8C3
:1024600020704EB94FFA85FBA0F1080ADFF820E092
:102470000EF1500E0EF80AB000BF4FFA81F902E0DB
:10248000491C4145D8D300BF4846BDE8F08F000045
:10249000C82900200146014840567047F82900200D
:1024A00070B590B006460C461546A07818B90120C4
:1024B0008DF80E0002E0A0788DF80E002088ADF8AF
:1024C0000C0000200290607C02A906F07FFEA07C38
:1024D0000DF1090106F07AFEE07B08B1012000E071
:1024E00000209DF80A1060F3C3018DF80A10207CCB
:1024F00008B1012000E000209DF80A1060F30411EB
:102500008DF80A10207B08B1012000E000209DF822
:102510000A1060F300018DF80A10207D08B1022036
:1025200000E001209DF80A1060F342018DF80A10C6
:102530001C2109A8FCF7E9FF607BC0F3001018B963
:10254000607BC0F34010F8B100200090E07C0DF1FA
:10255000010106F03BFE00BF9DF8000020F00F00D7
:10256000401C8DF800009DF8000020F0F0001030B5
:102570008DF8000000BF9DF8020020F00600801CCE
:102580008DF80200CDF838D0607B8DF82400A07B58
:102590008DF82500142104A8FCF7B7FF03A80490C8
:1025A00002A80590A088ADF81C00A06820B1E088C2
:1025B000ADF81800A0680890A069002849D0002054
:1025C0000190A0690088ADF82C00A0694088ADF8A2
:1025D0002E00A06940680A9001A80D90A169087BAF
:1025E00001A906F0F3FDA169487B0DF1050106F094
:1025F000EDFDA069807A08B1012000E000209DF87F
:10260000061060F3C3018DF80610A069C07A08B106
:10261000012000E000209DF8061060F304118DF801
:102620000610A069007A08B1012000E000209DF8A2
:10263000061060F300018DF80610A069807B08B1D8
:10264000022000E001209DF8061060F342018DF8A1
:102650000610E06908B1E0690C902B4604AA09A9AC
:102660003046A2DF10B070BD014639B1044888423F
:1026700004D80448884201D9012070470020FCE7B3
:10268000C0220020D022002070B505460E4600244E
:1026900007E055F8340002F041F808B9002070BD99
:1026A000641CB442F5D30120F9E700000A49496CE3
:1026B00081B10949096C084A02EBC1010160114668
:1026C00091F84010491C01F0070111641146496C52
:1026D000491E516470470000E42A00200649026840
:1026E0008A4203D0016808310160704702493839D5
:1026F000016000BFF9E700001C2B002001780229CF
:1027000002D0017803290BD106490A6C817D11445E
:10271000044A116411464A6C817D511A014A516480
:1027200070470000E42A00202DE9F04104460D46E0
:102730004FF6FF76304684420AD14FF48071284626
:1027400004F086FE0646B6F5807F0FD126460DE0E2
:10275000FF2C0BDC2146284604F06AFE07460FB129
:10276000204601E04FF6FF70064600BF3046BDE848
:10277000F081000070B505460DB9094C01E0084C28
:10278000083409E0204601F0D1FF064606B904E00E
:1027900028467168884700BFF4E700BF70BD00009D
:1027A000BC29002001460888062808DB0888B0F507
:1027B000486F06DD08884FF6FF72904201D007206F
:1027C00070474888062808DB4888B0F5486F06DD62
:1027D00048884FF6FF72904201D00720F0E7088842
:1027E0004FF6FF72904208D04888904205D0088882
:1027F0004A88904201DD0720E2E70020E0E72DE96A
:10280000F04106460D46144698462088801D4045F6
:1028100002D90C20BDE8F0813046FFF7C3FF074620
:1028200000BF0FB13846F5E700BF05202188685486
:102830002088401C20801220218868542088401C59
:10284000208022885119308807F0BBF8218808447D
:10285000208022885119708807F0B3F82188084435
:1028600020800020D6E710B5044600BF2046FEF7C2
:1028700027FA00BF10BD000030B587B01C216846A4
:10288000FCF743FE002000904FF4203001904FF4FD
:102890007020029003208DF80C000020ADF80E008F
:1028A0008DF8100009480590094806906846FEF723
:1028B000E7FE044600BF254625B100BF2846FEF7C7
:1028C000FFF900BF00BF07B030BD0000E95A0200A9
:1028D0006728020038B51B4801F002FF20BB1A48E8
:1028E000007848B119484069E8B1002000901748C5
:1028F00041696846884716E01548007810B91348C2
:10290000456801E0114885680022294611480068A1
:10291000FEF730FA044634B10C48806918B10B4810
:1029200081692046884709E00848406930B10120A4
:102930000090064841696846884700BF0020024968
:10294000087038BD98210020A02100201825002003
:10295000942100201CB102003EB504462088FEF7F9
:10296000F3FED0B1208810490978FEF78FFF28B90F
:10297000208800220D490978FEF79AFF2088ADF8DB
:10298000020005208DF800002088FEF7E9FE8DF892
:102990000400684600F006FB05E02088012241F2B1
:1029A000060100F0BDF83EBDEB210020EA21002029
:1029B00010B5012200210846FFF79EFA044600BF29
:1029C0001CB1072C01D0204610BD00BF07220221F8
:1029D0000120FFF791FA044600BF1CB1072C01D07B
:1029E0002046F1E700BF042202210020FFF784FA0D
:1029F000044600BF1CB1072C01D02046E4E700BF0D
:102A00000020E1E770B506460D460EB1012070BD0D
:102A1000287920B1012809D0022813D10FE02846D7
:102A200005F03EFD0446022028710DE0284600F026
:102A30001DFD04460A2C01D141F61D5404E041F667
:102A40001D5401E00F2400BF00BF2046DFE7000057
:102A50002DE9F0478146002532E01C48006800EB74
:102A6000C5042178012000FA01F6194800683040B9
:102A700020B317480068B04315490860207802F079
:102A8000B9FC0746217801208840124909680840AE
:102A9000217807FA01F188420FD16078012800D12E
:102AA00000E00020784080F00108606820B108F064
:102AB000FF0120786268904700BF00BF681CC5B264
:102AC000054800788542C8DBBDE8F0870C2200206D
:102AD0001C220020182200201022002070B504467D
:102AE00020793D2802D141F23D0001E04FF48850A9
:102AF000054620880022294601F0A8FF70BD00008D
:102B000001200549096809B1002003E0034909686B
:102B100001B1002070470000E03000208422002036
:102B2000FEB504460D461646094A07CA8DE8070059
:102B3000ADF80240ADF804508DF80660002205485B
:102B400001782046FEF7B4FE684600F02BFAFEBD81
:102B500090B10200EA21002010B50446A08928DFC8
:102B600010BD000013480078062820D11148001D30
:102B7000007800F00F00D0B90E480830007800F05F
:102B8000F000302801D1012070470A480830007851
:102B900000F0F000402801D10120F5E70548083099
:102BA000007800F0F000502801D10120ECE700206F
:102BB000EAE70000E00F00F00A48007806280ED18E
:102BC0000848001D007800F00F0040B905480830A3
:102BD000007800F0F000302801D10120704700207B
:102BE000FCE70000E00F00F013480078062820D131
:102BF0001148001D007800F00F00D0B90E480830D1
:102C0000007800F0F000302801D1012070470A4818
:102C10000830007800F0F000402801D10120F5E7ED
:102C200005480830007800F0F000502801D101205C
:102C3000ECE70020EAE70000E00F00F00A48007827
:102C400006280ED10848001D007800F00F0040B99A
:102C500005480830007800F0F000302801D101204C
:102C600070470020FCE70000E00F00F013480078F8
:102C7000062820D11148001D007800F00F00D0B9BF
:102C80000E480830007800F0F000302801D1012013
:102C900070470A480830007800F0F000402801D161
:102CA0000120F5E705480830007800F0F0005028D2
:102CB00001D10120ECE70020EAE70000E00F00F07E
:102CC0000A48007806280ED10848001D007800F058
:102CD0000F0040B905480830007800F0F0003028B7
:102CE00001D1012070470020FCE70000E00F00F058
:102CF0000A48007806280ED10848001D007800F028
:102D00000F0040B905480830007800F0F000302886
:102D100001D1012070470020FCE70000E00F00F027
:102D20000A48007806280ED10848001D007800F0F7
:102D30000F0040B905480830007800F0F000502836
:102D400001D1012070470020FCE70000E00F00F0F7
:102D5000C0B000241948006807F054FA18A10020F8
:102D6000FDF712FA1BA11EA0FCF764FF05462946D9
:102D70000020FDF709FA1CA10020FDF705FA42F238
:102D8000E3421AA11DA0FCF773FE15E0601CC4B25B
:102D90004FF480716846FCF7B8FB224618A16846DC
:102DA000FDF70AFC6846FCF7E7FC0120FEF700FF90
:102DB0004FF4FA6007F0B6F8E8E700003C21002085
:102DC000455350207461736B207374617274656431
:102DD000210D0A00626F72612D626F7261303400E2
:102DE00064642D77727400000D0A00003139322EB0
:102DF0003136382E312E32353200000053534C001C
:102E00002F32326464343432336334613334626673
:102E10003562393839613633343263633639316477
:102E2000362F7570646174652F56303F76616C750E
:102E3000653D2564000000000278072A34D2DFE8EF
:102E400002F0330407102029300000220A702CE021
:102E500001220A7003898B818388CB81C2688A60D2
:102E600023E002220A7003898B818388CB81C268A8
:102E70008A60027C062A01D1012300E000230B7442
:102E800013E003220A70C3888B810389CB81C26857
:102E90008A600AE004220A70C3888B810023CB81F8
:102EA00003E005220A7000E000BF00BF7047000089
:102EB00070B50546002409E0064850F8240020B10A
:102EC000044850F8241028468847641C082CF3D383
:102ED00070BD00004C2A00203EB505460C46DCB112
:102EE000112C19D00020009001900290ADF80250F2
:102EF00001940D2C03D10B208DF8000008E0862CE6
:102F000003D10A208DF8000002E009208DF80000AE
:102F1000684600F057F800BF3EBD000070B505469A
:102F2000002405E0044850F8241028468847641C13
:102F3000002CF7D070BD0000A421002070B505461C
:102F4000002405E0044850F8241028468847641CF3
:102F5000002CF7D070BD0000B021002070B50546F0
:102F6000002405E0044850F8241028468847641CD3
:102F7000022CF7D370BD000038B1020070B50546D1
:102F8000002405E0054850F8241028468847641CB2
:102F9000034800788442F5DB70BD000068290020FA
:102FA000E621002070B50546002405E0044850F8ED
:102FB000241028468847641C022CF7D370BD0000FB
:102FC00058B1020070B50546002405E0044850F8E9
:102FD000241028468847641C002CF7D070BD0000E0
:102FE0009CB1020010B504462078052803D102A147
:102FF0000020FDF7C9F810BD474320636F6D706C6A
:10300000657465640D0A00001FB50446606808B960
:10301000012000E000200390207806287BD2DFE822
:1030200000F0820304304F7B00BFA08900F03DFA1E
:1030300018B9E08905F045FB10B3A08900F030FA1B
:10304000ADF80200E08905F039FB8DF80400207826
:10305000012807D1606808B9002000E003208DF83E
:10306000000006E0606808B9012000E004208DF847
:10307000000060680390A0680290684603F04EFC70
:1030800052E0A08900F011FA18B9E08905F019FBA7
:10309000A8B1A08900F004FAADF80200E08905F0BB
:1030A0000DFB8DF80400606808B9022000E00520DF
:1030B0008DF80000A0680290684603F02FFC33E012
:1030C000A08900F0F2F928B3E08918BBA08900F0CC
:1030D000E7F9ADF80200E08905F0F0FA8DF8040098
:1030E000FF208DF80400606838B906208DF80000D4
:1030F000BDF8020003F02AFE02E007208DF8000070
:1031000000200E4908700E49087003F069FD6846FA
:1031100003F004FC08E006E008208DF80000684693
:1031200003F0FCFB00E000BF00BF0448007820B1C2
:1031300000200249087003F053FD1FBDC12100208B
:10314000C221002010B588B00446022000F0D4F956
:1031500010B9022008B010BD4FF6FF70844201D1B3
:103160000420F7E705208DF8040001208DF8080001
:10317000ADF80A400022114601A802F0EFFE18B196
:1031800005F002F90020E5E70820E3E700B587B085
:10319000022000F0B1F910B9022007B000BD0620EE
:1031A0008DF8000000221146684602F0D7FE48B1B3
:1031B0000548007810B101200349087305F0E4F8D0
:1031C0000020EAE70820E8E74C2B002010B58CB07F
:1031D000142107A8FCF799F9022000F08DF928B115
:1031E00007A8FFF765FE00200CB010BD012000F01D
:1031F00083F908B10020F7E7012000F089F900F019
:1032000057FA01208DF8000002F0B4FF04460C2CA0
:1032100028D2DFE804F0061407152722092327190E
:103220001E1A00BF0B20DFE7022000F071F9012019
:1032300000F048F907A8FFF73BFE0020D4E700BFE5
:1032400000208DF804000EE000BF03208DF804007C
:1032500009E002208DF8040005E000BF01208DF890
:10326000040000E000BF00BF00221146684602F0E3
:1032700075FE05F089F80020B6E7000038B5044671
:103280000CB9052038BD6946204605F027F9E0B1A4
:103290000F48BDF8001000EB01108089002812DDF6
:1032A000A07A80B10A48BDF8001000EB01108089B7
:1032B000401E0749BDF8002001EB02118881002063
:1032C000A072002502E0062500E00A252846D9E77D
:1032D0002C2B00207FB514461D462B46224601A903
:1032E000684605F099F804B070BD37B50C46154630
:1032F0002B4622466946002005F08EF83EBD37B5C4
:103300000C4615462B4622460021684605F084F8F7
:103310003EBD024602B109B9052070471068086039
:103320000020FAE738B504460D4604B10DB9052072
:1033300038BD6946204605F0D1F8A8B161680B4850
:10334000BDF8002000EB02108089401C074ABDF840
:10335000003002EB03129081296060680C306860D5
:103360000120A0720020E3E70A20E1E72C2B0020D7
:1033700070B504460D460CB9052070BD032300222C
:103380002946204607F070F8F7E770B504460D4669
:10339000022300222946204607F066F870BD70B56A
:1033A00005460E4614460CB9052070BD0223224680
:1033B0003146284607F058F8F7E700000146094A69
:1033C0001278082A01D10C200AE0074A054B1B7825
:1033D00042F82310034A1278521C024B1A70002044
:1033E00070470000212200204C2A0020F8B5044636
:1033F0000D46022000F080F808B90220F8BD0CB993
:103400000520FBE76946284607F01EF906461EB967
:10341000BDF80000208065803046EFE770B50446B7
:10342000022000F069F808B9022070BD0CB905202F
:10343000FBE72088022801DD0420F6E720880A49FE
:1034400001EB001671896088C01C081A08D4218815
:10345000608807F0EBF8002020806080002500E005
:1034600004252846E1E700002C2B00203EB5044649
:103470000A4B6A460021A01D04F0CEFF054635B96F
:10348000064A9188019805F097F8054603E003483D
:1034900000210160416028463EBD0000302200202E
:1034A0000146A1F5404080B270470146B1F5404F5A
:1034B00005DB4FF6FE70814201DC012070470020E1
:1034C000FCE70000024909788143014A1170704706
:1034D0002022002010B504462078182802D1FEF7DB
:1034E000B5F9207010BD10B504462078182802D117
:1034F000FEF7ACF9207010BD014604480078084082
:1035000008B1012070470020FCE7000020220020C5
:10351000024909780143014A1170704720220020B6
:1035200030B504461088C01C984201D90C2030BD2B
:103530000220158848551088401C108001201588ED
:1035400048551088401C108015884C551088401C28
:1035500010800020EBE700002DE9F04106460C4604
:1035600015460027B846862C03D0112C01D0002C1C
:1035700035D1862C03D14FF00008012709E0112C2A
:1035800003D14FF00108002703E014B94FF0000801
:103590000027C5B13A46134801783046FEF788F94E
:1035A0004246114801783046FEF782F900220F4862
:1035B00001783046FEF77CF900220D48017830464C
:1035C000FEF776F90BE03A46084801783046FEF7F8
:1035D0006FF94246064801783046FEF769F9BDE8C2
:1035E000F08100000122002000220020FD210020A7
:1035F000FC21002008B5684600F0BAF8009808B130
:10360000012008BD0020FCE7F8B505460C4616462B
:103610001F461C48007800F0010008B90120F8BDE1
:103620002846FFF721F808B90220F8E70CB9032073
:10363000F5E7C4F30B0008B10620F0E72868A042C4
:1036400004D804EB06306968884201D90520E6E712
:103650000EB90420E3E7684604F0DAFD08B9072054
:10366000DDE7009847600098056002200099087225
:10367000C4F30F30009988810098068204F090FE10
:103680000020CCE73A22002070B505460C462046C3
:1036900004F0F2FD70BD4FF010204169481C08B1E4
:1036A000084670474FF0805040690003F9E700007A
:1036B0002DE9F0412B482C49401A04092948401AA9
:1036C0000509FFF7E8FF06462848007800F00100EA
:1036D00010B10020BDE8F081002008E0224A02EB92
:1036E00000110A6812B14A6802B16D1E401CA04266
:1036F000F4D300202BE01C4901EB00124FF0000C2A
:10370000C7B2002117E0DFF8608008EB0113D3F89F
:103710000080B8F1000F05D0D3F80480B8F1000F95
:1037200000D007E093F80D80E04502DD93F80DC06E
:10373000CFB200BF491CA142E5D30B4901EB0712F0
:103740005660117BA6EB013111601668401CA8423F
:10375000D1D30648007840F00100044908700020E9
:10376000B8E70000D0220020C02200203A2200202A
:10377000014609B9032070470248406E08600020E6
:10378000F9E70000682B00202DE9F84305460C46B8
:1037900016461F46DDF820801F48007800F0010023
:1037A00010B90120BDE8F8832846FEF75DFF08B98F
:1037B0000220F7E706B10CB90320F3E706F0030097
:1037C00010B904F0030008B10620EBE72868A04216
:1037D00004D804EB87016868884201D20520E1E73C
:1037E0000FB90420DEE7684604F012FD08B907208F
:1037F000D8E70098C0F8048000980560012000997F
:1038000008720098C660009804610098878204F0EE
:10381000C7FD0020C6E700003A22002070B504462C
:103820001748006E00EB4000154901EBC005154834
:10383000007800F0020068B1022C02D0032C08D1FD
:1038400003E0284602F056FA03E0284602F03CFA6C
:1038500000BF12E00B48007800F0040068B109488E
:10386000007820F00400074908700548406E20B138
:103870000846007840F00200087004F04FFD70BD6B
:10388000682B00203A2200203EB500BF9DF80000C2
:1038900020F00F00401C00909DF8000020F0F00088
:1038A0001030009000BF0A2214A168467CDF044655
:1038B00000BF254625B100BF2846FDF701FA00BF2D
:1038C00000BF0020019002905020ADF80400A0201D
:1038D000ADF806000020ADF808004FF4C870ADF850
:1038E0000A0001A87ADF044600BF254625B100BFC3
:1038F0002846FDF7E5F900BF00BF3EBD4E6F72647C
:1039000069635F424453000070B505460DB1012064
:1039100070BD1848007B18B100201649087301E0FB
:1039200000F0D4F81348007808281DD2DFE800F032
:103930001C04080C101C141800F03CF8044615E098
:1039400000F0B2F8044611E000F08EF804460DE0F5
:1039500000F044F8044609E000F01CF9044605E0D4
:1039600000F028F9044601E00F2400BF00BF204604
:10397000CEE700004C2B00200C480089401C0B496E
:10398000088100204880087300BF0CE0084901EB63
:103990000011097809B9012200E0002203490A3127
:1039A0000A54411C88B20228F0DB70474C2B0020DF
:1039B0002C2B002010B5084800F032F840B9002048
:1039C0000549891E08704880486041F61D5010BDA9
:1039D00000F06AF8FBE700004E2B002070B50D48A0
:1039E00045880D4800EB0510808968B90A4800EB4E
:1039F00005100023012241680848FFF705FE044630
:103A000004200449087002E000F08CF804462046C7
:103A100070BD00004C2B00202C2B0020C022002069
:103A200010B501460022002015E00D4B1B5C83B150
:103A300000240B4B1C540B4B03EB00139B8943B925
:103A4000084B03EB00139B7B012B02D10880012262
:103A500003E0431C98B20228E7DB00BF104610BD0C
:103A6000562B00202C2B0020F8B50C4844680C483D
:103A700000680B49898800EB81056088C01C86B20C
:103A80000320064908700020009008463346294666
:103A900042680448FFF778FEF8BD00004C2B002078
:103AA00028220020C022002010B507494888091D9F
:103AB00004F052FD18B1FFF7D7FF044602E0FFF70C
:103AC0008DFF0446204610BD4C2B002010B5144835
:103AD0000078082820D2DFE800F0041F1F0A101623
:103AE000171BFFF749FF01200D49087015E000F092
:103AF0006DF802200A4908700FE000F029F806204E
:103B00000749087009E000BF07200549087004E074
:103B100001200349087000E000BF00BF10BD000095
:103B20004C2B002010B505200649087002200649DC
:103B3000888008460023012201680448FFF764FDDD
:103B400010BD00004C2B002028220020C0220020A5
:103B50000D4908680D4949880D4A02EB0111496871
:103B6000094A116009494988094A02EB0111486074
:103B700005498988054A5288054B03EB02121181D9
:103B80000221014A91807047282200204C2B0020FE
:103B90002C2B002010B50620044908704988044ADF
:103BA00002EB0111486802F0C3FA10BD4C2B002053
:103BB0002C2B002010B50720034908700020486016
:103BC00002F0C6FA10BD00004C2B0020054A5068D8
:103BD0004288D21C91B2044A92880A44024B9A80CD
:103BE000704700004C2B0020282200203EB50446E0
:103BF0002088502821D0522802D0542825D103E013
:103C0000A08800F099FF20E006208DF80000A08831
:103C100000F0F4FBADF80200A088ADF80400BDF898
:103C2000020000F04FF9A08800220C490978FDF746
:103C30003FFE6846FFF772F907E0A01DFEF7C2FBE2
:103C400010B1A08800F0C8FF00BF00BFFDF7B0F9B9
:103C500005F0C8FE05F006F93EBD0000AB210020CE
:103C60003EB504466088ADF80200207820B10128F6
:103C70000FD002282BD116E000208DF800006846F6
:103C8000FFF74CF9608800F0E3FA054600F054FFB6
:103C90001DE001208DF80000A088ADF80400684602
:103CA000FFF73CF913E0207980B1608800F0D0FA8A
:103CB00005464FF6FF70854207D00122054801787E
:103CC0002846FDF7F5FD05F0CDF800BF00BF00BFA9
:103CD0003EBD0000AB21002010B50446207801282D
:103CE0000DD1608800F028FF608800F0CDF928B180
:103CF0006088012203490978FDF7DAFD00E000BF82
:103D000000BF10BDAB21002010B500F093FCFDF703
:103D10009DFD12490870FDF799FD11490870FDF7E6
:103D200095FD10490870FDF791FD0F4908700B488B
:103D3000007818280BD00A480078182807D00948BE
:103D40000078182803D008460078182801D10320ED
:103D500010BD0120054908700020F9E7A9210020C5
:103D6000AA210020AB210020AC210020A8210020A6
:103D700010B586B000F0BEF801A8FDF7D9FC00240C
:103D800012E002A931F8140000F038FB4FF6FF7181
:103D9000884207D102A931F81400012206490978A6
:103DA000FDF786FD601C84B20198A042E9D805F0B9
:103DB00059F806B010BD0000AB21002010B5044634
:103DC0002078072803D1608800F006FF00E000BFDC
:103DD00000BF10BD10B504460B4801782046FDF722
:103DE00055FD70B100210AE001EB4100074A02EBEA
:103DF00080004088A04201D1C8B210BD491C0829EA
:103E0000F2D3FF20F9E70000BB2100208825002025
:103E100010B500240DE004EB4401084A02EB8101D7
:103E2000488807490978FDF731FD08B9E0B210BDAF
:103E3000641C082CEFD3FF20F9E700008825002040
:103E4000BB2100202DE9F04105460F46012000FA74
:103E500005F418480068FDF705F806460EB1BDE800
:103E6000F081154800682040E0B9284601F0C2FA08
:103E700028B11248006820431049086004E00F4848
:103E80000068A0430D4908600B48006820430A49B8
:103E9000086000220A48016806480068FCF76AFFCB
:103EA000064604E004480068A0430349086000BFD8
:103EB000D5E70000E8B102001C22002018220020F3
:103EC000142200201CB50446044903C9CDE90001B1
:103ED00000226946204602F0A2FB1CBD30B1020060
:103EE00010B500F0ADFB012001490870002010BDA5
:103EF000B421002010B54FF6FF7002F071FA0249AC
:103F0000088004F0E5FF10BDB62100202DE9FC4734
:103F10008146484600F072FA0546002600274FF019
:103F200003084FF0010A4FF6FF7085420CD06A4635
:103F30000821284602F03CFB04462CB90198861D56
:103F40008788D0F8008000BF00BF43463A4631461C
:103F50004846A9DF0446042C01D1112415E0082CA1
:103F600001D1002411E00B2C0FD14FF0000A08F012
:103F7000020010B14FF0010807E006B927B1002692
:103F800000274FF0030800E003240B2CDDD0BAF12A
:103F9000000F00D10B242046BDE8FC872DE9FC472B
:103FA0008046404600F02AFA07464FF6FF708742E7
:103FB00003D143F20200BDE8FC874FF001094FF046
:103FC000000A00BF4FF0000A4A46511C1FFA81F94F
:103FD0006B460821384602F02DFB044604BB019DC8
:103FE000032028602A1DA91D40462B68AADF04462D
:103FF0002CB90821384602F0D3FB04460FE00C2C04
:1040000002D14FF0010A02E0052C00D10024082162
:10401000384602F0A9FB064606B1032400BF02E0C1
:10402000072C00D10C24BAF1000FCBD100BF2046E1
:10403000C1E700007FB504462078012818D1207917
:10404000012815D1608802AA012102F0B1FA0546C3
:104050006DB902208DF800006088ADF80200039869
:1040600000788DF804006846FEF768FF00BF00BFC7
:10407000044800884FF6FF71884201D004F028FF01
:104080007FBD0000B62100207CB50446204600F02C
:10409000B5F906466A460121304602F089FA05461E
:1040A0000DB100207CBD01980078FBE770B5054696
:1040B0004FF6FF7600BF4FF6FF720A480188284688
:1040C000A7DF044643F20300844204D10548008878
:1040D000401C0449088043F203008442EBD0204690
:1040E00070BD0000B8210020014688884FF6FF729D
:1040F000904203D0088808B1012070470020FCE7F7
:104100003EB504460D4620780221B1EB500F01D098
:1041100000203EBDB4F80100ADF80800E0788DF84D
:104120000A00A188ADF80010A0798DF8020001AA5C
:1041300069462846FCF712FD032201A902A8FBF7F5
:1041400014FA08B90120E4E70020E2E770B506465A
:104150000C463046FFF73EFE0546FF2D0CD005EB22
:104160004500064901EB8000416821600189A1807A
:10417000807AA071002070BD0520FCE78825002012
:1041800070B590B004462088102801D010B070BDE2
:104190003422211D03A8FBF79FF94FF6FF759DF808
:1041A00010000321B1EB500F35D002F01DFC9DF83B
:1041B0001000400820B1012803D0022828D114E0C3
:1041C00000BF09E0019800F1110104A8FCF731FBE0
:1041D00010B1BDF8085006E06A4602A9072002F0B7
:1041E000D5FB0028EED100BF13E008E00198411C88
:1041F00004A8FFF785FF10B1BDF8085006E06A4635
:1042000002A9072002F0C2FB0028EFD100BF00E0A6
:1042100000BF00BF00BFBDF80C0004A900F084FE81
:1042200006464FF6FF7085420FD0BDF80C002946B8
:1042300000F088F8BDF80C00ADF8060001208DF8FC
:10424000040001A8FEF78AFE00BF00BF9EE7000041
:10425000024600210DE001EB4100084B33F820003D
:10426000904205D101EB410003EB8000408870478C
:10427000491C0829EFD34FF6FF70F8E78825002086
:1042800010B500F0E9F9FDF7E1FA064908700846B3
:104290000078182801D1032010BD012002490870C0
:1042A0000020F9E7BB210020BA2100202DE9F041D0
:1042B00004460D46601C00F025FA10B90020BDE848
:1042C000F0811022691C601CFBF74FF908B901202E
:1042D00000E00020074605F1110104F11100FCF790
:1042E000A8FA064607B90EB10120E8E70020E6E784
:1042F0000246108808B101207047002105E0901C9B
:10430000405C08B10120F7E7491C0829F7D30020D9
:10431000F2E770B505460C462846FFF7E9FF08B9F5
:10432000002070BD28882188884201D00020F8E74D
:104330000822A11CA81CFBF718F908B90120F0E716
:104340000020EEE770B504460D462946204602F0EF
:104350005FFD70BD30B587B00446207810B9207974
:10436000072801D007B030BD608804AA072102F0F9
:104370001FF9054605B1F5E702F036FB1EE060883F
:10438000BDF81810884200D118E003990598FFF78E
:104390008DFF90B16088FFF75BFFADF80200002051
:1043A0008DF800006088ADF80400BDF81810ADF875
:1043B00006106846FEF7D2FD07E000BF02AA06A974
:1043C000072002F0E3FA0028D9D100BF00BFC9E7F7
:1043D00070B506463046FFF73BFF0446304602F014
:1043E000F2F805464FF6FF70844204D01DB901462D
:1043F000204602F00DFD284670BD000070B5054650
:104400002846FFF7E7FC0446FF2C05D004EB4400E8
:10441000034931F8200070BD4FF6FF70FBE7000044
:10442000882500203EB5044602F0DEFA10E001982F
:1044300000F146012046FFF76CFF30B9019800F10A
:104440002A012046FFF765FF10B1BDF808003EBD08
:104450006A4602A9072002F099FA0028E7D14FF630
:10446000FF70F4E72DE9F04106460C460F272EB108
:104470000120FFF727F80120BDE8F081207930B155
:1044800001280AD0022833D0032864D13EE001F08D
:104490005FFE0746012020715EE04FF00008002516
:1044A00016E0324800EB0510007802280ED12F49A3
:1044B00001EB0511486801F03BFE074600202B493F
:1044C00001EB051108704FF0010803E0681C85B28C
:1044D000022DE6DB00BFB8F1000F08D10220FFF784
:1044E00017F80120FEF7EEFF41F61D50C4E733E058
:1044F0001F480023012201681E48FFF785F8074680
:1045000002201B4988800020207125E01849086896
:1045100001F00EFE0746184845881548D0F800807F
:10452000124800EB05104068114908600F4800EB85
:104530000510C0F80480084680880C4901EB05117D
:10454000088102200A4988800020084901EB0511F2
:104550000870207100E000BF00BF27B10120FEF706
:10456000B1FF0E2088E7002086E700002C2B0020FA
:1045700028220020C02200204C2B0020F8B527481C
:10458000007800B9F8BD00252548006808B9012069
:1045900000E00020064600BFDDB92248007800B1E7
:1045A000F0E7684648DF0446052C01D101250FE0FD
:1045B00024B100BF2046FCF783FB09E0009800F01F
:1045C0001DFE1948006818B1174900980968884706
:1045D00000BFDEB91348007800B1D3E71348008864
:1045E000009069461248006861DF0446052C01D13D
:1045F00001260AE024B100BF2046FCF761FB04E07D
:104600000B48006806490968884700BF0DB106B12C
:1046100000E0C1E700BF00BFB4E700004422002073
:104620005022002045220020542200204C2200204D
:10463000482200200020014908707047A82100206E
:104640000020034908704FF6FF7002490880704748
:10465000B4210020B621002018200849087000204D
:1046600008E04FF6FF7100EB4002054B03EB8202BE
:104670005180401C0828F4D370470000BB21002063
:104680008825002010B5002407E004EB8401044ACB
:1046900002EB810005F0BDFE641C082CF5D310BDB3
:1046A0000826002010B5044640212046FAF72DFFC9
:1046B00010BD00004FF6FF70054908800020054935
:1046C0000860182004490870044908707047000009
:1046D000E4210020DC210020E7210020E821002047
:1046E00001464888064A1288904206DB4888044AF8
:1046F0005288904201DC012070470020FCE7000056
:104700008C2100200246002104E0505C08B1012009
:104710007047491C1029F8D30020F9E7014601F041
:10472000030008B9012070470020FCE70146086833
:1047300008B102680A607047026803E08A4200D14B
:1047400070471268002AF9D103680BB1036800E0D2
:1047500000230B60016000BFF2E7000010B50446C3
:104760000448007800F0010018B103480078FDF714
:104770005BFC10BD502100204821002010B54FF4F3
:10478000827000F09DFC022000F0AAFC082000F0DE
:10479000ADFC10BD2DE9F04107460D4690461E4682
:1047A0002DB92948007810B90520BDE8F08135B150
:1047B00042460021384604F0CFFE044605E042465A
:1047C0002249384604F0C8FE0446002221463846F5
:1047D000FEF7C2FE1EB121463846FEF77DFB112CC6
:1047E0000DD005DC34B3082C27D00D2C26D122E0C7
:1047F000862C12D0A4F540500238F8B91CE02A46A5
:10480000134801783846FDF753F8424611480178BD
:104810003846FDF74DF8002412E02A460C4801788E
:104820003846FDF745F842460A4801783846FDF714
:104830003FF805E000BF00BF00BF01E0032400BF58
:1048400000BF2046B1E70000F6210020F121002042
:10485000FF210020FE2100202DE9FC4107460E46E5
:10486000904626B9002138467EDFBDE8FC813078CD
:1048700000F0010008B1012000E00220019038465C
:10488000FFF7BCFD05464FF6FF70854209D001A831
:104890002B46424631460090384600F024F8044644
:1048A00019E0307800F0010028B13146384600F0B8
:1048B0008EF804460FE0314638467EDF044600207D
:1048C00000900CB9012000E0002002460123294697
:1048D000384604F02FFA24B99DF80410384604F045
:1048E00071FA2046C1E72DE9FF4F85B00F4690468B
:1048F0001E46DDF848900025AA4603AA0721304647
:1049000001F056FE04466CB9049800F118050498AD
:1049100090F8440000F0010ABAF1000F02D00498A8
:1049200000F13405B8F1000F13D194B98DB1BAF18B
:10493000000F04D105F11200FFF7DAFC48B12A4656
:1049400005F11201059885DF0446002089F8000072
:1049500027E00CB1052C24D10024387800F00100A8
:1049600060B101AB01220721304601F063FE04462D
:1049700024B90721304601F095FF04461CB9394699
:1049800005987EDF044664B10721304601F0ECFE55
:104990008346BBF1000F03D0BBF1050F00D0032409
:1049A00000BF0020009099F8000008B1012000E04D
:1049B000002003460CB9012000E0002002463146E9
:1049C000059804F0B7F9204609B0BDE8F08F2DE94D
:1049D000FE430746884601F0E7FD05464FF6FF70A7
:1049E00085421CD001AB01220721284601F022FE9E
:1049F000044624B90721284601F054FF04461CB997
:104A0000414638467EDF044654B10721284601F06E
:104A1000ABFE064616B1052E00D0032400E00324A9
:104A20004FF6FF70854201D0012000E00020009089
:104A30000CB9012000E00020024601232946384637
:104A400004F078F92046BDE8FE8300002DE9F0412E
:104A500007460C461546114801783846FCF716FF04
:104A6000D0B13846FFF7CAFC06464FF6FF708642C3
:104A700011D00B4801783846FCF708FF30B12B46BF
:104A800022463146384601F00DFC04E02A46214614
:104A90003846FEF745F800BFBDE8F081EA21002066
:104AA000EB2100202DE9F04786B005462846FCF7AB
:104AB000DFFE8046404603F0AFFF58B301A8FCF785
:104AC00037FE002422E002A931F814002946FCF741
:104AD000DDFE0646CEB102A931F814000F4909786F
:104AE000FCF7D4FE814602A931F814000C4909787C
:104AF000FCF7CCFE824602A931F8140001234A4695
:104B00005146FFF747FE074600BF641C0198A042CC
:104B1000D9D800BF06B0BDE8F0870000FE21002014
:104B2000FF21002070B504460D46294620467EDF51
:104B30000646304670BD0000FEB5044600264FF61E
:104B4000FF70844200D1FEBD2046FFF7DFF9054625
:104B500045B10B2D16D0112D12D0A5F540500238BD
:104B6000F8B91DE002208DF800002046FFF746FC52
:104B7000ADF80200ADF804406846FEF7CFF91FE03B
:104B800001261DE003208DF800002046FFF736FCCB
:104B9000ADF80200ADF804406846FEF7BFF90FE03B
:104BA0000EE009208DF800002046FFF727FCADF845
:104BB0000200ADF8044002956846FEF7AFF900BF69
:104BC00000BF3246034801782046FCF771FE00BF63
:104BD000B9E70000AA210020FEB5044600262046C1
:104BE000FFF7DCF90546112D1AD003DC4DB10C2D71
:104BF00034D117E0862D23D0A5F54050023868BB8C
:104C00000DE001208DF80000ADF804402046FFF7CC
:104C1000F5FBADF802006846FEF780F92DE02CE0C8
:104C200001262AE007208DF80000ADF80440204658
:104C3000FFF7E4FBADF802006846FEF76FF91CE0F1
:104C400008208DF80000ADF804402046FFF7D6FBA1
:104C5000ADF802006846FEF761F90EE009208DF814
:104C600000002046FFF7CAFBADF80200ADF8044093
:104C700002956846FEF752F900BF00BF324603486E
:104C800001782046FCF714FEFEBD0000A92100209B
:104C9000F8B504460D4600262078284080B900204B
:104CA00000906846FCF718F92078284018B9207859
:104CB0002843207001269DF80000FCF713F900BF7F
:104CC0003046F8BD1FB500F015FA044600BF254672
:104CD00025B100BF2846FBF7F3FF00BF00BF4FF42C
:104CE000E130FAF7D9FD03220021012005F016FD7D
:104CF0003249086003220021012005F00FFD3049F0
:104D0000086003220021012005F008FD2D490860FC
:104D10002A48006820B900BF0420FBF7D1FF00BF7C
:104D20000020294A0223CDE9012000930390034685
:104D30004FF4807225A1264805F020FF012804D0F9
:104D400000BF0420FBF7BCFF00BF0020214A032363
:104D5000CDE901200093039003464FF480721EA119
:104D60001E4805F00BFF012804D000BF0420FBF70C
:104D7000A7FF00BF00201A4A0423CDE901200093B9
:104D8000039003464FF4807216A1174805F0F6FE13
:104D9000012804D000BF0420FBF792FF00BF134896
:104DA000006840F004001149086005F0F5F900BF03
