:020000040001F9
:10F00000283B002015F401001DF401001FF401004D
:10F0100021F4010023F4010025F4010000000000A8
:10F0200000000000000000000000000027F40100C4
:10F0300029F40100000000002BF401002DF4010070
:10F0400029F901002FF40100A9FE01002FF40100AD
:10F050002FF401002FF4010065F50100B5FA01005D
:10F060002FF401002FF401002FF401002FF4010010
:10F070002FF401002FF401002FF401002FF4010000
:10F080002FF4010079F901002FF401002FF40100A1
:10F0900075FB01002FF401007DFB01002FF401003E
:10F0A0002FF401002FF401002FF401002FF40100D0
:10F0B0002FF401002FF40100000000000000000008
:10F0C0002FF401002FF401002FF401002FF40100B0
:10F0D000ADF901002FF401002FF401000000000041
:10F0E0000000000000000000000000000000000020
:10F0F0000000000000000000000000000000000010
:10F1000000000000000000000000000000000000FF
:10F1100000000000000000000000000000000000EF
:10F40000DFF80CD000F03CF800480047510B020038
:10F41000283B00200648804706480047FEE7FEE7F5
:10F42000FEE7FEE7FEE7FEE7FEE7FEE7FEE7FEE7B4
:10F430008DFC010001F4010040EA01039B0703D0A9
:10F4400009E008C9121F08C0042AFAD203E011F823
:10F45000013B00F8013B521EF9D27047D2B201E0E5
:10F4600000F8012B491EFBD270470022F6E710B5C9
:10F4700013460A4604461946FFF7F0FF204610BD22
:10F48000064C074D06E0E06840F0010394E80700F1
:10F4900098471034AC42F6D3FFF7B6FF6021020064
:10F4A0008021020070B505460E46144629462046C6
:10F4B00000F032F8044804600448066000F09CF84C
:10F4C00000F034F870BD00006419002068190020B5
:10F4D00010B50246002018E0002112E0130103EBF2
:10F4E00080030B440A4CE35C0A4C246804EB800460
:10F4F000645C6340074C246804EB800463544B1C39
:10F50000D9B20429EADB431CD8B20428E4DB10BDDD
:10F51000381A0020641900200246002003E00B5C2A
:10F520001354431CD8B21028F9DB704710B50024DF
:10F530000020FFF7CDFF01240AE000F083FB00F07C
:10F5400035FB00F00BF92046FFF7C2FF601CC4B288
:10F550000A2CF2DB00F076FB00F028FB0A20FFF714
:10F56000B7FF10BD10B51E480068002837D0062030
:10F5700000F094F900201A4908601A480068C04356
:10F58000C0F3802018B101201749087024E0154805
:10F590000068C043C0F3002060B1022200210820AF
:10F5A00001F02CFE0120114908700846007810492E
:10F5B000487111E00B480068C043C0F3002058B9FF
:10F5C00003220021082001F019FE002007490870DD
:10F5D000084600780649487101200649087010BDA8
:10F5E0007C610040100500503719002034190020BC
:10F5F0003C19002036190020F8B5002429E000202D
:10F6000000EB840052490968085C002101EB840189
:10F61000504A5054012000EB84004D490968085CB1
:10F62000012101EB84015054022000EB8400484981
:10F630000968085C022101EB84015054032000EBAF
:10F64000840043490968085C032101EB840150549C
:10F65000641C042CD3D378E0002507E0601E05EB82
:10F6600080003C49085C0DF805006D1C042DF5D3A5
:10F6700004F0030088BB9DF800609DF801008DF840
:10F6800000009DF802008DF801009DF803008DF840
:10F6900002008DF803609DF8000001F037F98DF845
:10F6A00000009DF8010001F031F98DF801009DF88E
:10F6B000020001F02BF98DF802009DF8030001F023
:10F6C00025F98DF803009DF80000234901EB940112
:10F6D000097848408DF8000001E0FFE700BF201FD7
:10F6E000002101EB80001B49085C9DF80010484098
:10F6F000002101EB8401174A5054201F012101EB26
:10F7000080001146085C9DF801104840012101EB82
:10F7100084015054201F022101EB80001146085C37
:10F720009DF802104840022101EB84015054201F33
:10F73000032101EB80001146085C9DF8031048404E
:10F74000032101EB84015054641C2C2C84D3F8BD9C
:10F7500068190020381A0020602002002DE9F041CD
:10F76000002488E04648006810F824704448006887
:10F7700010F824004249096801EB840149784840A7
:10F780003F49096801EB8401897848403C49096890
:10F7900001EB8401C97880EA01053948006810F856
:10F7A00024003749096801EB8401497880EA0106A1
:10F7B000304602F03DFB06463148006810F8240050
:10F7C00086EA050148402E49096801F824002C48C2
:10F7D000006800EB840040782949096801EB840146
:10F7E000897880EA0106304602F022FB064624486A
:10F7F000006800EB8400407886EA05014840204913
:10F80000096801EB840148701D48006800EB840022
:10F8100080781B49096801EB8401C97880EA0106F8
:10F82000304602F005FB06461548006800EB8400F0
:10F83000807886EA050148401149096801EB840196
:10F8400088700F48006800EB8400C07880EA0706E3
:10F85000304602F0EDFA06460948006800EB8400E5
:10F86000C07886EA050148400549096801EB840132
:10F87000C870601CC4B2042CFFF674AFBDE8F08100
:10F880006419002000F01F0201219140024A43093F
:10F8900042F823107047000080E200E000F01F02F1
:10F8A00001219140024A430942F8231070470000A9
:10F8B00080E100E000F01F0201219140024A43096B
:10F8C00042F823107047000080E100E000F01F02C2
:10F8D00001219140024A430942F823107047000079
:10F8E00080E100E000F01F020121914042099200F6
:10F8F00002F1E022C2F80011704700F01F0201215E
:10F9000091404209920002F1E022C2F800117047D2
:10F9100000F01F0201219140024A430942F82310DE
:10F920007047000000E200E010B54FF4807001F075
:10F9300017FA60B14FF4807001F01BFA012001F05A
:10F9400021FA01200B494870002000F08BFD4FF494
:10F95000827001F005FA58B14FF4827001F009FA93
:10F96000022001F00FFA01200249887000F07AFDB0
:10F9700010BD0000E81A002010B5002009490860F9
:10F9800000210948C0F84411C0F84811C0F84C11D2
:10F9900000200549C1F8000102493C39086001F026
:10F9A000F5FF10BD401101400010014010B50422C8
:10F9B0000021024801F0B2FB10BD000000400240EF
:10F9C0003EB50720FFF776FF072001218140234A3B
:10F9D000430942F8231000BF0521002807DA4A072F
:10F9E000140E1F4A00F00F031B1FD45403E04A07F4
:10F9F000130E1C4A135400BF1BA207CA8DE8070050
:10FA000002201C490860002015E01DF8002019495B
:10FA1000E03901EB00110A6000221649E03901EBE0
:10FA200000114A604FF4A0221249E03901EB0011A5
:10FA30008A60411CC8B20128E7DB00200D49091D7E
:10FA40000860091D086001200B49086002200B496D
:10FA5000C1F804030420084908603EBD80E200E0CC
:10FA600018ED00E000E400E00901020304050607C8
:10FA700008000000F0750040047300400070004072
:10FA800010B50720FFF716FF00200149086010BDE0
:10FA9000007500400720012181404209920002F1D7
:10FAA000E022C2F8001100BF012001490860704740
:10FAB000007500401F48006801280CD100201D4936
:10FAC000086001211C48C0F830161C481C49086019
:10FAD000012019494860174808300068012806D1FC
:10FAE000002014490831086001201349486011487A
:10FAF000001D006801281BD100200E49091D086067
:10FB000001200D4988600D49098801EB4101490038
:10FB1000C1EB01118800C11700EB1151C1F30F3186
:10FB2000084A118000200849087001200749087020
:10FB30007047000000710040007000406019002014
:10FB40002C760040621900205C1900205F1900200B
:10FB50000548007838B900200449086001200249AE
:10FB600008700349086070475C190020007100406C
:10FB70000070004010B501F06FFE10BD70B50A486E
:10FB8000006868B1084800688047044600BF254601
:10FB900025B100BF284600F0FDFA00BF00BF01E01C
:10FBA00000F0BAFE70BD0000A019002024490968C9
:10FBB0004878234909684979214A126851702049D7
:10FBC00009684A7A1E4909684A711D4909684A7BD1
:10FBD0001B4909684A721A49096848731849096833
:10FBE000887817490968897A154A1268917014490A
:10FBF00009688872124909688879114909688A7BFD
:10FC00000F4909688A710E49096888730C490968A7
:10FC1000C8780B490968C97B094A1268D17008493C
:10FC20000968CA7A06490968CA7305490968CA7920
:10FC300003490968CA7202490968C871704700001F
:10FC40006419002070B5002413E000250DE00A4976
:10FC5000096801EB8501085D00F058FE0649096856
:10FC600001EB85010855681CC5B2042DEFDB601C53
:10FC7000C4B2042CE9DB70BD6419002001480249BC
:10FC8000086070470090D0037019002010B500F094
:10FC900007FD10B176487749486700F019FD28B193
:10FCA00075480068C0F342307449086000F03AFDBE
:10FCB00028B17348006820F080707149086000F036
:10FCC00049FD48B100206F4908604FF08041C1F8FC
:10FCD00010016A49091F086000F066FD18B1032091
:10FCE00066496431086000F077FD68B10520664917
:10FCF00008600120644978310860002062490831B9
:10FD000008603F20091F086000F07EFD002855D0E4
:10FD10005E4800685E4908605C48001D0068091D77
:10FD200008605A4808300068091D086057480C30C0
:10FD30000068091D0860554810300068091D0860FA
:10FD4000524814300068091D086050481830006897
:10FD50004F49203108604D481C300068091D08607B
:10FD60004A4820300068091D08604848243000686F
:10FD7000091D0860454828300068091D086043488F
:10FD80002C300068091D0860404830300068404948
:10FD9000403108603D4834300068091D08603B4828
:10FDA00038300068091D086038483C300068091D7B
:10FDB0000860364840300068091D086000F046FCC5
:10FDC00030B12D481430006800F04F003149086010
:10FDD0002B487438006840F4700029497439086071
:10FDE000BFF34F8FBFF36F8F2B48006800F00040C8
:10FDF00028B92948001D006800F0004098B3012090
:10FE00002649086000BF264800680028FBD015205E
:10FE10002149086000BF224800680028FBD0152156
:10FE20001D48001D016000BF1D4800680028FBD070
:10FE300000201A49086000BF194800680028FBD05C
:10FE400000BFBFF34F8F0E48F038006800F4E06049
:10FE500014490843001D0A49F0390860BFF34F8F69
:10FE600000BF00BFFEE7FFE7FFF708FF10BD00007F
:10FE70000DF0ADBA00C00740440200103C05004040
:10FE8000FCED00E00C01004010560040040400109E
:10FE900020C50040E40E00400012001004E50140BF
:10FEA00000E401400000FA0510B50648007F20B1CB
:10FEB0000449054801F09BFE03E00249024801F0B5
:10FEC000F5FD10BDFC1A00200020004002E008C82B
:10FED000121F08C1002AFAD170477047002001E0C4
:10FEE00001C1121F002AFBD17047000001462029E2
:10FEF00008DA012088400A4A104008B10120704702
:10FF00000020FCE7402909DAA1F12000012202FAD1
:10FF100000F008B10120F2E70020F0E70120EEE751
:10FF2000FC06FFBC00BFEFF31081084672B67047B5
:10FF30002DE9FC41044688461646002537880020F6
:10FF4000308094F82D0058B13A463146404600F0D2
:10FF5000CCF9054600BF15B12846BDE8FC8100BFBD
:10FF6000A07850B13A463146404600F04BF905467C
:10FF700000BF0DB12846F0E700BFE07860B1E1783E
:10FF800048B23B463246414600F082FC054600BF7F
:10FF90000DB12846E1E700BF606868B1616891F97A
:10FFA00000003B463246414601F065FD054600BF74
:10FFB0000DB12846D1E700BF208900280EDD434659
:10FFC0000622022104F10800CDE9006701F09BFE42
:10FFD000054600BF0DB12846BFE700BF208A0028B4
:10FFE0000EDD43460722032104F11000CDE900672E
:10FFF00001F089FE054600BF0DB12846ADE700BF00
:020000040002F8
:10000000208B00280EDD43461522142104F1180030
:10001000CDE9006701F077FE054600BF0DB1284627
:100020009BE700BF206A58B13B4632464146206AF2
:1000300000F0A5FA054600BF0DB128468DE700BFC8
:10004000606A58B13B4632464146606A00F0ECFDBA
:10005000054600BF0DB128467FE700BF94F82C008D
:1000600000280BDD3B4632464146204601F0F8FAB7
:10007000054600BF0DB128466FE700BF207858B194
:100080003B4632464146204600F009FE054600BF89
:100090000DB1284661E700BF28465EE70146C878F3
:1000A00000F0040008B9072070470020FCE72DE9A4
:1000B000F04192B004460D464FF004085920ADF8C7
:1000C00000000294ADF804503C2103A8FFF7CDF9DD
:1000D00002208DF80C008DF80F80CDF830D0002173
:1000E00003A800F0B8F8064600BF374627B100BFA6
:1000F000384600F04FF800BF00BF12B0BDE8F081F5
:100100007CB5104903C9CDE900010F480021016009
:1001100041608160C16003200B4908700020486085
:100120000872A020488100208881084673DF0446B9
:1001300000BF254625B100BF284600F02BF800BFC0
:1001400000BF7CBD541E0200B819002070B574DFDA
:10015000044600BF254625B100BF284600F01AF826
:1001600000BF00BF70BD000000BFBFF34F8F074846
:10017000006800F4E06006490843001D0349086078
:10018000BFF34F8F00BF00BFFEE700000CED00E0A3
:100190000000FA053EB50446002000900190029050
:1001A00002946A46002144F20100FFF7DDFF3EBDE4
:1001B00010B50446204601F01FFA10BD70B5044684
:1001C00025460E488068B0B1ADB9FFF7ABFE0646D4
:1001D0000A4800680A490860084840684FF0E02172
:1001E000C1F804010020054988601EB900BF62B64D
:1001F00000BF00BF00BF00BF70BD00001C1B00207F
:1002000000E100E0F8B505460C4617462088001DC1
:10021000B84201D90C20F8BD684679DF064600BF18
:100220000EB13046F7E700BF0320218868542088CC
:10023000401C20801920218868542088401C208080
:1002400020884119BDF8000001F057FD21880844BD
:1002500020800020DFE72DE9F04192B080460D4676
:100260001F2011901090B8F1000F17D04046FFF7F3
:1002700015FF044600BF1CB1204612B0BDE8F08156
:1002800000BF11AA08A94046FFF752FE044600BF6E
:100290000CB12046F1E700BF08AE02E000260020C6
:1002A0001190ADB1284601F0AFFA044600BF0CB181
:1002B0002046E2E700BF10AA69462846FFF738FE4D
:1002C000044600BF0CB12046D7E700BF6F4602E0EE
:1002D000002700201090BDF84000C3B2BDF84400D4
:1002E000C1B23A46304672DFC7E72DE9FC41054608
:1002F0000C46174620880930B84202D90C20BDE8C8
:10030000FC8168466DDF064600BF0EB13046F6E759
:1003100000BF0820218868542088401C20801B20B2
:10032000218868542088401C208020882844DDF8DB
:1003300001100160BDF8051081802088801D20809B
:100340009DF80000400818B900202188685402E098
:100350000120218868542088401C20800020CEE79E
:1003600070B588B019480068079000BF002350227C
:10037000174907A801F0F4F9054600BF2E4626B13B
:1003800000BF3046FFF706FF00BF00BF00BF6A4650
:100390000021084601F0C4F9044600BF254625B1F6
:1003A00000BF2846FFF7F6FE00BF00BF684601F019
:1003B000A3F9044600BF254625B100BF2846FFF734
:1003C000E9FE00BF00BF08B070BD00005C1E020067
:1003D000E81900201CB50620FFF760FA022006216C
:1003E000002807DA4A07140E194A00F00F031B1FF2
:1003F000D45403E04A07130E164A135400BF0020DA
:100400001549086001201549086000204FF01021AF
:10041000C1F80C021149086009240090034601222A
:1004200011460190204600F0D5FE00BF092000F0E3
:10043000F3FE032200210A2000F0E0FE0322002147
:10044000082000F0DBFEE007054908601CBD000045
:1004500018ED00E000E400E07C61004004E50140AC
:100460000463004070B505460DB9094C01E0084C25
:10047000083409E0204600F0ABFA064606B904E06D
:1004800028467168884700BFF4E700BF70BD0000D0
:10049000F01A00202DE9F04782461F480068002826
:1004A00036D01D480068056800F044FF07461B4829
:1004B00004682146384601F0AEF9C61C1848007899
:1004C00008B900F03DFFAE4201D2284600E03046B8
:1004D000044424F07F44204600F026FF00F02AFF69
:1004E00080463946404601F096F900F10309394645
:1004F000204601F090F9814509D900F01BFF8146A3
:1005000000F012FF2F2000F091FC01F08BFA01E0C7
:1005100000F034FFBDE8F08784190020881900201E
:100520009C19002001460888062808DB0888B0F5D9
:10053000486F06DD08884FF6FF72904201D0072011
:1005400070474888062808DB4888B0F5486F06DD04
:1005500048884FF6FF72904201D00720F0E70888E4
:100560004FF6FF72904208D04888904205D0088824
:100570004A88904201DD0720E2E70020E0E72DE90C
:10058000F04106460D46144698462088801D404599
:1005900002D90C20BDE8F0813046FFF7C3FF0746C3
:1005A00000BF0FB13846F5E700BF05202188685429
:1005B0002088401C20801220218868542088401CFC
:1005C000208022885119308801F097FB2188084447
:1005D000208022885119708801F08FFB21880844FF
:1005E00020800020D6E70000014614480078144A15
:1005F000127890421DD011480078401C0F4A1070AC
:1006000010460078022801D1002010700D480B4AD6
:10061000127850F8220008600B4A086812681044EB
:10062000094A10601046006820F07F4010600120E9
:1006300070470020086000BFFAE70000941900200E
:10064000951900208C190020881900201348007883
:10065000062820D11148001D007800F00F00D0B905
:100660000E480830007800F0F000302801D1012059
:1006700070470A480830007800F0F000402801D1A7
:100680000120F5E705480830007800F0F000502818
:1006900001D10120ECE70020EAE70000E00F00F0C4
:1006A0000A48007806280ED10848001D007800F09E
:1006B0000F0040B905480830007800F0F0003028FD
:1006C00001D1012070470020FCE70000E00F00F09E
:1006D00013480078062820D11148001D007800F04A
:1006E0000F00D0B90E480830007800F0F000302834
:1006F00001D1012070470A480830007800F0F0006E
:10070000402801D10120F5E705480830007800F0C5
:10071000F000502801D10120ECE70020EAE70000BA
:10072000E00F00F00A48007806280ED10848001DA6
:10073000007800F00F0040B905480830007800F05C
:10074000F000302801D1012070470020FCE70000B4
:10075000E00F00F013480078062820D11148001D52
:10076000007800F00F00D0B90E480830007800F093
:10077000F000302801D1012070470A480830007885
:1007800000F0F000402801D10120F5E705480830CD
:10079000007800F0F000502801D10120ECE70020A3
:1007A000EAE70000E00F00F00A48007806280ED1C2
:1007B0000848001D007800F00F0040B905480830D7
:1007C000007800F0F000302801D1012070470020AF
:1007D000FCE70000E00F00F00A48007806280ED180
:1007E0000848001D007800F00F0040B905480830A7
:1007F000007800F0F000302801D10120704700207F
:10080000FCE70000E00F00F00A48007806280ED14F
:100810000848001D007800F00F0040B90548083076
:10082000007800F0F000502801D10120704700202E
:10083000FCE70000E00F00F0F0B5034600241FE0E5
:10084000124E306806689E4203D90668F61A0660A2
:100850001AE006689B1B06683444002606600B4EAF
:1008600035680A4FC6693E60C66846B10E1926F063
:100870007F464660C66886601668C661156000BF20
:10088000024800680028DBD100BFF0BD84190020B9
:1008900030B504461088C01C984201D90C2030BDE8
:1008A0000220158848551088401C108001201588AA
:1008B00048551088401C108015884C551088401CE5
:1008C00010800020EBE7000038B500BF9DF8000065
:1008D00020F00F00401C00909DF8000020F0F00078
:1008E0001030009000BF062206A168467CDF044657
:1008F00000BF254625B100BF2846FFF74BFC00BFCF
:1009000000BF38BD4745524B4F4E000001460148DD
:10091000405C7047601E0200F8B52748007800B9B7
:10092000F8BD00252548006808B9012000E0002036
:10093000064600BFDDB92248007800B1F0E76846FE
:1009400048DF0446052C01D101250FE024B100BF8A
:100950002046FFF71FFC09E0009800F003FB194850
:10096000006818B1174900980968884700BFDEB9C8
:100970001348007800B1D3E7134800880090694617
:100980001248006861DF0446052C01D101260AE007
:1009900024B100BF2046FFF7FDFB04E00B480068D0
:1009A00006490968884700BF0DB106B100E0C1E7FC
:1009B00000BF00BFB4E70000A4190020B019002058
:1009C000A5190020B4190020AC190020A819002096
:1009D0000146086808B102680A60704770B51C4893
:1009E00004781C48066827E01948406804EB440175
:1009F00000EBC105601CC4B215488078A04200D14C
:100A000000242878022802D0032812D103E0686865
:100A100000F086FF0EE007E00E490868002101742F
:100A20000C4AC169116000BF0A4800680028F3D170
:100A300000E000BF00BF00BF05484078A042D3D10E
:100A400004480068B04201D0012070BD0020FCE7DE
:100A50007C190020841900202DE9F0410546374813
:100A600007685AE015B12C46E56929E03449496820
:100A7000334A127802EB420201EBC2003049097896
:100A8000491C2F4A1170114609789278914202D17F
:100A900000212B4A117044680178012901D1217C81
:100AA00001B13AE081686160C168A1600169E160FB
:100AB0004169A1612349097809B10021616000BF42
:100AC000214960680968401A20F07F401F49884228
:100AD00008D21D496068096800F09DFEA1680844BD
:100AE00020600FE018486168006800F094FE064638
:100AF000A068B04203D9A068801B206001E00020FC
:100B0000206000BF00206060A060012020740020F1
:100B1000E061204600F0D0FE00BF002DA2D10848C1
:100B200000780749497888429CD104480068B84257
:100B300002D00120BDE8F0810020FBE784190020ED
:100B40007C1900209D19002088190020FFFF7F00DC
:100B50001CB5FFF73FFCFEF733FF00F0AFFCFFF7DB
:100B6000FFFBFFF7B1FE68466DDF092000F05FFB79
:100B700001202749087000BF25480078002836D09A
:100B800000202349087000240EE0FEF783FFFEF7E3
:100B9000DFFF00BF1F4800780028FBD000201D4960
:100BA0000870FEF76DFF641C052CEEDB1A48008808
:100BB00000121A49C870184800780871184A194973
:100BC0001648FEF76FFC10211548FFF770FAFFF783
:100BD00097FA092000F02BFB40F2DC544FF47A71B5
:100BE00014FB01F000F0D4F800BFFFF7AFFA0920C2
:100BF00000F012FB0620012181404209920002F11F
:100C0000E022C2F8001100BF00F081FBB4E7000051
:100C1000361900205F190020621900203C190020BD
:100C2000C81900204C1900202DE9F04105460E4658
:100C300014469846A888871C2088801C3844404564
:100C400002D90C20BDE8F081FE2F01D90C20F9E774
:100C5000781C218870542088401C2080FF20218827
:100C600070542088401C208022889119288801F027
:100C700044F8218808442080A88800280DDDA86851
:100C800008B90720DEE7AA8823889819A968FEF723
:100C9000D3FB2088A988084420800020D2E72DE9D2
:100CA000F84F05460F46144698462878012804D187
:100CB000687810B90720BDE8F88F2088801C40456F
:100CC00008D82878012807D12088801C6978084432
:100CD000404501D90C20EEE72088A8EB0000801EDB
:100CE00086B200962188891CC81969467DDF814635
:100CF00000BFB9F1000F01D04846DCE700BF2878FB
:100D0000022806D1BDF80000B04202DC4FF0090A0B
:100D10000BE04FF0080A2878012805D16878B04226
:100D200002DC6878009000E00096BDF80000FE2824
:100D300001D90C20BFE7BDF80000401C2188785481
:100D40002088401C2080208807F800A02088401CB4
:100D500020802088BDF80010084420800020AAE7E9
:100D600001464FF08040405808B1012070470020F4
:100D7000FCE708B500224FF080410A500958009165
:100D800000BF08BD0149086070470000080300402B
:100D900000B9704700BF00BF00BF00BF00BF00BF69
:100DA00000BF00BF00BF1F4909681F4A914200D120
:100DB00030E000BF00BF00BF00BF00BF00BF00BFEA
:100DC00000BF00BF00BF00BF00BF00BF00BF00BF2B
:100DD00000BF00BF00BF00BF00BF00BF00BF00BF1B
:100DE00000BF00BF00BF00BF00BF00BF00BF00BF0B
:100DF00000BF00BF00BF00BF00BF00BF00BF00BFFB
:100E000000BF00BF00BF00BF00BF00BF00BF00BFEA
:100E100000BF00BF01460139084600D0BBE700BF54
:100E2000B7E70000701900200024F40000B97047F3
:100E300000BF00BF00BF00BF00BF00BF00BF00BFBA
:100E400000BF1F4909681F4A914200D130E000BF2E
:100E500000BF00BF00BF00BF00BF00BF00BF00BF9A
:100E600000BF00BF00BF00BF00BF00BF00BF00BF8A
:100E700000BF00BF00BF00BF00BF00BF00BF00BF7A
:100E800000BF00BF00BF00BF00BF00BF00BF00BF6A
:100E900000BF00BF00BF00BF00BF00BF00BF00BF5A
:100EA00000BF00BF00BF00BF00BF00BF00BF00BF4A
:100EB00001460139084600D0BBE700BFB7E7000094
:100EC000701900200024F40010B5002416480078A2
:100ED00008B1852425E00020134988604860086136
:100EE000C86000BF00BF4109890001F1E021D1F8CD
:100EF000001101228240114009B1012100E00021CE
:100F000019B90721002000F035F800BF00F076FC89
:100F100020B901200549086000BF00BF0120024937
:100F20000870204610BD0000E81A00201805004097
:100F300008B5002000906846FFF73AF908480078A5
:100F400008B9FFF7C1FF0648C068401C0449C860E3
:100F5000012088709DF80000FFF730F908BD0000FF
:100F6000E81A002010B5044614B90020FFF77AFAF9
:100F700010BD000070B50B4601461A46002907DA7D
:100F80005407260E104C01F00F052D1F665503E087
:100F90005407250E0D4C655400BF00BF00F01F0222
:100FA000012191400A4A440942F8241000BF00BFC1
:100FB00000F01F02012191404209920002F1E0225B
:100FC000C2F8001100BF70BD18ED00E000E400E0C1
:100FD00080E200E02DE9F84F04460D46164698469B
:100FE0004FF4803000FA05FB4FF4A07000EB850051
:100FF00080B200905946206800F036F959462068C2
:1010000000F03BF926F07F46607900EB40001C4978
:1010100008444078E0B132462946206800F018F9CB
:101020002068D0F804158946A9EB060AB14502D21A
:101030006FF07F408244607900EB40001049084423
:101040008078504503DD0D273846BDE8F88F04E071
:1010500032462946206800F0FBF8B8F1000F07D0AF
:101060002068009900F0F9F85946206800F008F966
:101070005946206800F0FBF800273846E5E70000F5
:101080007819002010B504460021206800F000F90E
:101090000220617901EB4101014A505410BD00006A
:1010A000781900202DE9F04104460D46174627B176
:1010B0006079184941F8207003E007263046BDE802
:1010C000F081607900EB40001349085C10B10826FC
:1010D0003046F4E7A97894F90400FFF74BFF29881C
:1010E0002068C0F8081500BF2879617901EB41013B
:1010F000094A11444870E878617901EB41011144D3
:1011000088700120617901EB41015054002630467E
:10111000D5E7000074190020781900202DE9F04768
:1011200081460C4616464FF480374FF4A0780025D0
:1011300020E03946484600F0A6F8A8B141464846A6
:1011400000F098F880B13946484600F08DF83946ED
:10115000484600F092F84146484600F07EF8E8B272
:101160001B4A52F8241088477F0008F104001FFA38
:1011700080F86D1CB542DCD34FF4807801214846DD
:1011800000F081F868B14146484600F073F840B17C
:101190004146484600F061F80D4850F824100420FC
:1011A00088474FF482780221484600F06CF868B115
:1011B0004146484600F05EF840B14146484600F0DE
:1011C0004CF8034850F8241005208847BDE8F08704
:1011D00074190020F0B5DDE9054500BF4FF0A047C8
:1011E0003E4641EA420747EA830747EA042747EABF
:1011F000054C06F5E06747F820C0F0BD7CB5064613
:101200000C4615460020234602460146CDE900055E
:101210003046FFF7DFFF7CBD00BF4FF0A0410A461C
:10122000012303FA00F1C2F80C1500BF704700BF9C
:101230004FF0A0410A46012303FA00F1C2F8081555
:1012400000BF7047024602F5A86050F821007047C1
:1012500000F5A86343F82120704708B500224250EA
:101260004258009200BF08BDC0F848137047C0F84C
:1012700044137047024650587047C0F8081370472F
:10128000C0F8041370470246D2F8040308407047C0
:101290000122425070470146D1F88004C1F8800411
:1012A00070470246505808B1012070470020FCE703
:1012B00008B5002242504258009200BF08BDC0F855
:1012C000081370470246D2F80403084008B1012011
:1012D00070470020FCE70122425070470146D1F8D8
:1012E0008004C1F8800470470246505808B10120BC
:1012F00070470020FCE708B5002242504258009297
:1013000000BF08BD014640F23C504058704770B5E0
:101310003EDF044600BF254625B100BF2846FEF744
:1013200039FF00BF00BF70BD014908607047000071
:101330004015014001480068704700000415014055
:1013400010B54FF480300A4908600A49C1F8040317
:101350001120FEF797FA1120FEF7C4FA0120054983
:1013600008602F20FFF762FD01200349087010BDBF
:1013700044130140001001409C19002010B51120B9
:10138000012181400E4A430942F8231000BF4FF467
:1013900080300C4908600C49C1F8080301204860FE
:1013A0002F20FFF743FD01200749886000200749EF
:1013B00008602F20FFF73AFD00200549087010BD96
:1013C00080E100E04813014000100140881900202E
:1013D0009C19002070B5054615B1012D61D142E080
:1013E00031480068401C3049086008460068000E1B
:1013F0002E4988712C480068000CC8712A48008862
:10140000000A087228480078487229480168006874
:10141000401C274A1060B1F5616F05D101202549B4
:101420000870002011460860234908680021FFF772
:1014300009FF4FF4004140186FF07F4100EA0106B8
:101440004FF0010332464FF000011B48FFF7C2FD89
:10145000044600BF264626B100BF3046FEF79AFE7E
:1014600000BF00BF1DE0144908680121FFF7EAFE34
:101470004FF4004140186FF07F4100EA01064FF041
:101480000103324619460C48FFF7A4FD044600BF8D
:10149000264626B100BF3046FEF77CFE00BF00BFE7
:1014A00000BF00BF70BD0000381900203C190020AB
:1014B00030190020361900204C1E020070B5114A68
:1014C00011491248FFF7EEFD044600BF254625B13D
:1014D00000BF2846FEF75EFE00BF00BF0123DA030F
:1014E00000210A48FFF776FD044600BF254625B1D6
:1014F00000BF2846FEF74EFE00BF00BF0348FFF7BF
:10150000C1FD70BDD5130200441E02004C1E020036
:1015100070B505460C46E07D40B94FF4847128460D
:10152000FFF7C6FE00BFD5F8180570BD4FF48471F3
:101530002846FFF7BDFE00BFD5F81805C0B2627E91
:10154000E1688854607E401C607600BFEDE77FB59F
:1015500004460D46164601208DF800008DF808500F
:1015600001966846D4E9001290477FBD10B5044645
:101570002046FEF7BBFC10B942F2010010BD214627
:10158000002906DA194A01F00F031B1FD25C521121
:1015900002E0174A525C52111046082801D300217C
:1015A00009E028B1012803D0042801D0052801D181
:1015B000002100E0012111B942F20200DEE70D48EE
:1015C000806868B160090B4951F8200004F01F02DF
:1015D0000121914008436109064A42F8210002E0D6
:1015E0002046FEF78AF90020C8E7000018ED00E069
:1015F00000E400E01C1B002070B50446FEF792FCDE
:10160000054614488068D8B90120124988601248FC
:101610000068124908400F49086010484FF0E02167
:10162000C1F880010C488038D0F88400094948602E
:101630004FF0FF310848001D01600020207001E0DC
:10164000012020701DB900BF62B600BF00BF00209E
:1016500070BD00001C1B002080E100E0FC06FFBC08
:101660002DE9F04707460E4614469A46B86A10B967
:101670000720BDE8F0874FF0000836E008EB48018E
:10168000B86A00EB8105A88800F10209B9F1FE0FE4
:1016900001D90C20EDE709F1010021887054208860
:1016A000401C20801620218870542088401C2080F7
:1016B00022889119288800F020FB21880844208086
:1016C000A88800280DDDA86808B90720D1E7AA88F6
:1016D00023889819A968FDF7AFFE2088A9880844D7
:1016E000208008F1010000F0FF0897F82C00404529
:1016F000C4DC0020BDE700007CB50446074800902C
:101700000098019001A9204660DF0546DDE9001040
:10171000884200D100BF28467CBD0000301900205F
:1017200070B505460E4614461C212046FDF79DFE69
:10173000012020800021A1610020207526726572A1
:10174000607A08B10121A172002070BD70B5044615
:101750000D461646324629462046FEF705FD70BD69
:101760002DE9F04781460C461746984614B90720E4
:10177000BDE8F087204600F0030109B9012100E02F
:10178000002109B90720F3E71748046017480780CC
:101790001748C0F8008000204109890001F1E021CC
:1017A000D1F8001101228240114009B1012100E06D
:1017B00000210E4600BF16B10020FEF787F80D4944
:1017C000484610DF05462DB116B10020FEF795F80A
:1017D0002846CDE7012008490870FFF7A9FB16202D
:1017E000FFF7C4FEC4E70000A8190020AC190020D0
:1017F000A01900204D170200A4190020014800780C
:1018000070470000A41900200146C87808B10720DD
:1018100070470020FCE70246501A20F07F407047D6
:1018200070B504460B48006878B10A4AD4E905014E
:1018300012689047054600BF2E4626B100BF3046CD
:10184000FEF7A8FC00BF00BF02E0D4E905108847FE
:1018500070BD0000981900202DE9FC410020019086
:101860000F4804680F4807686846FEF7BDFE054646
:10187000FFF7B4F806462DB101AA21460098FEF7FD
:10188000DBFF01260198FFF7E7F800B1012616B14A
:101890003846FEF7FFFD002003490870BDE8FC81D3
:1018A00088190020841900209D19002010B51420EB
:1018B000FEF72EF810BD000010B51849096811B9DF
:1018C0001649086028E0154A0168126812689142BA
:1018D0000DD81249096809680268891A0F4A126806
:1018E00011600E490968C1610C49086014E0026882
:1018F0000A4C2368216803E00C68121B0B46C96977
:1019000011B10C689442F7D311B10C68A41A0C60A1
:101910000260C161D86100BF10BD000084190020C1
:1019200030B50246154C2168084604E0904200D1CB
:1019300003E00146C0690028F8D100BF00B930BDFE
:10194000814210D10D4C2468E4690C4D2C602C466A
:10195000246844B901240A4DAC600024094D2C6070
:101960000124094D2C700368C469CC61C86910B1A9
:1019700004681C44046000BFE1E7000084190020F3
:1019800000100140881900209D1900202DE9F04128
:101990001F480068002838D00027FFF7CBFC80469E
:1019A0001C4801684046FFF736FF064618480568A0
:1019B00010E02868B04200D90EE02868361A28687E
:1019C00007442C46ED69207C20B10020207420467D
:1019D000FFF726FF002DECD100BF0F4800780F491C
:1019E0000978884209D10D480078401CC0B20B49E3
:1019F0000870022801D100200870094807490978B9
:101A000040F82170FFF752FF00BFBDE8F0810000F1
:101A100084190020881900209419002095190020AD
:101A20008C19002010B51120FDF772FF10BD70B5A4
:101A300005460C464FF48E712846FFF739FCA18A03
:101A4000A068465CA08A401CA0823046C5F81C05F0
:101A500000BF70BD7FB504460D4600208DF8000024
:101A60008DF80850A06801900020A0756846D4E960
:101A7000001290477FBD30B504461088C01C9842C4
:101A800001D90C2030BD0220158848551088401C13
:101A900010800A20158848551088401C1080158831
:101AA0004C551088401C10800020EBE72DE9FF41C9
:101AB00005460C464FF400712846FFF703FC48B377
:101AC0004FF492712846FFF7ECFB18B34FF4927174
:101AD0002846FFF7EDFB4FF401712846FFF7EFFBB7
:101AE000A07E18B904212846FFF7F5FB02208DF8E7
:101AF00000002846FFF7CFFB0390E17D8DF808102A
:101B0000E06801900020E07520766846D4E9001274
:101B1000904736E004212846FFF7D4FB002830D058
:101B20004FF484712846FFF7BCFB50B3214628468A
:101B3000FFF7EEFCE07D617E884222D1207E70B10D
:101B4000E668677E207EE0752069E06000202076F0
:101B50006076324639462046FFF7F9FC11E0A07E58
:101B600018B904212846FFF7B6FB4FF40171284647
:101B7000FFF7A5FB0020E075617EE2682046FFF7D5
:101B8000E6FC4FF48E712846FFF78BFB98B1A08AD4
:101B9000A17D884204DA21462846FFF748FF0AE083
:101BA0004FF48E712846FFF783FBA07D18B1A17D0D
:101BB0002046FFF74FFF4FF4A2712846FFF771FB55
:101BC00098B14FF4A2712846FFF772FBA07E18B1BE
:101BD00000212846FFF77FFBE07D30B10020E07553
:101BE000617EE2682046FFF7B2FCBDE8FF812DE987
:101BF000FF4105460C464FF492712846FFF774FBEF
:101C0000D8B14FF492712846FFF775FB02208DF88A
:101C100000002846FFF762FB03902846FFF772FB9F
:101C2000C1B28DF80810E06801900020E0752076C0
:101C30006846D4E9001290472FE04FF48871284697
:101C4000FFF752FB48B34FF488712846FFF753FB68
:101C50002846FFF757FBC6B2E07DB0421CD1207E7C
:101C600098B1E7682020D5F800128143C5F800122A
:101C700000BF207EE0752069E060002020763A46B3
:101C800031462046FFF763FC06E00020E075314650
:101C90002046E268FFF75BFC00BF4FF4A2712846C4
:101CA000FFF722FB88B14FF4A2712846FFF723FB10
:101CB000E07D50B10020E0752846FFF723FBC6B257
:101CC00031462046E268FFF742FC4FF49071284607
:101CD000FFF70AFB78B14FF490712846FFF70BFB32
:101CE000A07D40B100BF40F24C504059C6B23146D1
:101CF0002046FFF7AFFEBDE8FF8102460A70100ADA
:101D00004870022070472DE9FC47804689461546F9
:101D10009A46DDE90A675346022249464046CDE924
:101D2000006700F017F8044600BF14B12046BDE874
:101D3000FC8700BF5346102229464046CDE9006784
:101D400000F008F8044600BF0CB12046EFE700BFE2
:101D50000020ECE72DE9FF5F06468B4696461D46C0
:101D60000E9C4FF000082088039000274AE070681E
:101D700000EB870000680190002202A901A865DF3E
:101D8000824600BFBAF1000F03D0504604B0BDE850
:101D9000F09F00BF9DF80800704532D1B8F1000FE8
:101DA00001D0002000E00220009020889DF808105B
:101DB0000144009801440F98814201DD0C20E5E7C1
:101DC000B8F1000F0AD12088401C2080208805F837
:101DD00000B02088401C20804FF001082088421964
:101DE00002A901A865DF824600BFBAF1000F01D049
:101DF0005046CBE700BF20889DF80810084420809B
:101E000000BF7F1C3088B842B1DCB8F1000F0DD0A4
:101E100021880398401C081A1FFA80F9B9F1FF0FB6
:101E200001DD0C20B2E7039805F800900020ADE733
:101E30000146C80900EBC00000EB400080EA410009
:101E4000C0B270470000074100000000004002409F
:101E5000240004000139A4ED3477AC000100000730
:101E6000637C777BF26B6FC53001672BFED7AB7657
:101E7000CA82C97DFA5947F0ADD4A2AF9CA472C002
:101E8000B7FD9326363FF7CC34A5E5F171D831156F
:101E900004C723C31896059A071280E2EB27B27590
:101EA00009832C1A1B6E5AA0523BD6B329E32F8408
:101EB00053D100ED20FCB15B6ACBBE394A4C58CF00
:101EC000D0EFAAFB434D338545F9027F503C9FA8D4
:101ED00051A3408F929D38F5BCB6DA2110FFF3D2A2
:101EE000CD0C13EC5F974417C4A77E3D645D197356
:101EF00060814FDC222A908846EEB814DE5E0BDB50
:101F0000E0323A0A4906245CC2D3AC629195E47986
:101F1000E7C8376D8DD54EA96C56F4EA657AAE08E0
:101F2000BA78252E1CA6B4C6E8DD741F4BBD8B8A7B
:101F3000703EB5664803F60E613557B986C11D9EE1
:101F4000E1F8981169D98E949B1E87E9CE5528DF58
:101F50008CA1890DBFE6426841992D0FB054BB1684
:101F600052096AD53036A538BF40A39E81F3D7FB0E
:101F70007CE339829B2FFF87348E4344C4DEE9CB58
:101F8000547B9432A6C2233DEE4C950B42FAC34ECD
:101F9000082EA16628D924B2765BA2496D8BD12583
:101FA00072F8F66486689816D4A45CCC5D65B69227
:101FB0006C704850FDEDB9DA5E154657A78D9D84CB
:101FC00090D8AB008CBCD30AF7E45805B8B34506EB
:101FD000D02C1E8FCA3F0F02C1AFBD0301138A6B05
:101FE0003A9111414F67DCEA97F2CFCEF0B4E67335
:101FF00096AC7422E7AD3585E2F937E81C75DF6EE3
:1020000047F11A711D29C5896FB7620EAA18BE1B48
:10201000FC563E4BC6D279209ADBC0FE78CD5AF4EE
:102020001FDDA8338807C731B11210592780EC5F34
:1020300060517FA919B54A0D2DE57A9F93C99CEF90
:10204000A0E03B4DAE2AF5B0C8EBBB3C8353996191
:10205000172B047EBA77D626E169146355210C7DCF
:102060008D01020408102040801B366CD8AB4D9ABD
:102070002F5EBC63C697356AD4B37DFAEFC591393C
:1020800072E4D3BD61C29F254A943366CC831D3A66
:1020900074E8CB8D01020408102040801B366CD8F8
:1020A000AB4D9A2F5EBC63C697356AD4B37DFAEF09
:1020B000C5913972E4D3BD61C29F254A943366CC81
:1020C000831D3A74E8CB8D01020408102040801B68
:1020D000366CD8AB4D9A2F5EBC63C697356AD4B3C5
:1020E0007DFAEFC5913972E4D3BD61C29F254A9450
:1020F0003366CC831D3A74E8CB8D010204081020AE
:1021000040801B366CD8AB4D9A2F5EBC63C69735AA
:102110006AD4B37DFAEFC5913972E4D3BD61C29F31
:10212000254A943366CC831D3A74E8CB8D010204B2
:1021300008102040801B366CD8AB4D9A2F5EBC63D4
:10214000C697356AD4B37DFAEFC5913972E4D3BD31
:1021500061C29F254A943366CC831D3A74E8CB0054
:10216000802102003019002088000000CCFE010010
:1021700008220200B819002070210000DCFE0100D6
:10218000000000000000000000000000010001004D
:10219000000000000000FFFFFFFFFFFF7566616E9B
:1021A0006574313233343536373839300000000049
:1021B000000000000000000000000000000000001F
:1021C0000090D003000000000000000000000000AC
:1021D00000000000000000000000000000000000FF
:1021E00000000000000000000000000000000000EF
:1021F00000000000000000000000000000000000DF
:082200000000000000000000D6
:040000050001F40101
:00000001FF
