:020000040000FA
:1000000070610020150400001D0400001F040000A2
:10001000210400002304000025040000000000006B
:1000200000000000000000000000000027040000A5
:1000300029040000000000002B0400002D04000033
:10004000B91800002F040000F11B00002F0400006D
:100050002F0400002F0400002F0400002F040000D4
:100060002F0400002F0400002F0400002F040000C4
:100070002F0400002F0400002F0400002F040000B4
:100080002F040000111900002F0400002F040000AD
:10009000F71900002F0400002F0400002F040000B7
:1000A0002F0400002F0400002F0400002F04000084
:1000B0002F0400002F0400000000000000000000DA
:1000C0002F0400002F0400002F0400002F04000064
:1000D000291900002F0400002F0400000000000078
:1000E0000000000000000000000000000000000010
:1000F0000000000000000000000000000000000000
:1001000000000000000000000000000000000000EF
:1001100000000000000000000000000000000000DF
:10040000DFF80CD000F0E8F800480047F9240000BD
:10041000706100200648804706480047FEE7FEE777
:10042000FEE7FEE7FEE7FEE7FEE7FEE7FEE7FEE7A4
:100430000D1A00000104000040EA01039B0703D0ED
:1004400009E008C9121F08C0042AFAD203E011F813
:10045000013B00F8013B521EF9D27047D2B201E0D5
:1004600000F8012B491EFBD270470022F6E710B5B9
:1004700013460A4604461946FFF7F0FF204610BD12
:1004800030B505462A460B4612F8010B13F8014B0E
:1004900008B1A042F8D01CB1002802D06D1CF1E7D1
:1004A000284630BD10B5044604E00B7800F8013B47
:1004B00003B1491C521EF8D2204610BD421C10F850
:1004C000011B0029FBD1801A7047034611F8012B4C
:1004D00000F8012B002AF9D11846704770B50F4D6E
:1004E00000B92868002412E00A4602E09E4203D0C8
:1004F000521C1378002BF9D1DAB2224305D02BB16C
:1005000024B1002100F8011B04E00446401C0678D9
:10051000002EE9D12860204670BD00006000002058
:1005200070B5064601F044FC046805460A22002125
:10053000304600F018F82C6070BD30B50B4601460F
:1005400000202022012409E021FA02F59D4205D372
:1005500003FA02F5491B04FA02F52844151EA2F11C
:100560000102F1DC30BD2DE9F04791460F4680468F
:100570000446002614F8015B2DB100F03FF8006836
:10058000405DC007F6D12B2D02D02D2D18D0641E52
:100590004A463946204600F035F827B13968A1426D
:1005A00001D1C7F8008071054FF002040BD540421D
:1005B000002803DD01F0FCFB0460A007BDE8F08724
:1005C00046F48066E4E70028F8DA01F0F1FB046005
:1005D0006FF00040F2E70000064C074D06E0E068CF
:1005E00040F0010394E8070098471034AC42F6D37A
:1005F000FFF70AFF402F0000602F000000487047FF
:10060000F42E00002DE9F05F8246007800271546A1
:100610008B460AF10104B946302801D09DB113E0A0
:1006200014F8010B0127782803D0582801D045B1D0
:100630000AE00DB1102D07D10027102514F8010B89
:1006400002E0082500E00A250026B0460EE005FB82
:10065000080005FB06F1012701EB10461FFA80F8A0
:10066000B6F5803F00D3B94614F8010B294600F0D7
:1006700018F80028EBDABBF1000F05D00FB1641EAB
:1006800000E05446CBF80040B9F1000F06D001F06D
:100690008FFB02210160C81EBDE8F09F48EA0640BA
:1006A000FAE73A2800D2303820F02002412A01D35C
:1006B000A2F13700884201D34FF0FF3070470000AD
:1006C0002DE9FF4F81B08A461C460020009000268D
:1006D000002700254FF400610198FFF7C6FEDFF800
:1006E000D880A946A8F80490BAF1000F05D050466A
:1006F00000F072FB31A000F06FFB0398002853D08C
:10070000022001F0B7F8DFF8B8B04FF0010ACBF8DB
:1007100000A01CB143F2C820444322E0294C20E051
:1007200098F80000E8B128480399FFF7A9FE08B13E
:1007300001261CE025A12448FFF7A2FE08B10127ED
:1007400015E024A12048FFF79BFE08B1012504E035
:1007500022A11D48FFF794FE48B988F80090CBF815
:1007600000A0641E03D098F802000028D8D0CBF86F
:1007700004A0022001F073F82CB198F8020030B107
:1007800088F8029010E0009805B0BDE8F08F5FB9DE
:1007900055B94EB1019828B1B8F804200A4901981A
:1007A000FFF74AFE012000904FF400610648FFF772
:1007B0005CFE0098E8E70000280000200D0A000019
:1007C0000020004080A4BF07C00000204552524FC7
:1007D0005200000062757379000000007764742095
:1007E000726573657400000000B5A1B01C2002F0B2
:1007F0005DF91D2002F05AF90E49002008600D49EC
:100800000820143108600B4906200C310860802153
:1008100001A8FFF72AFE084A084901A801F0B4FA26
:1008200007A1002001F0DAF801A9002001F0D6F8B4
:1008300021B000BD0025004008000020F82E000077
:10084000574C414E3A204465696E697469616C6920
:100850007365640D0A00000030B5ADF6140D4FF459
:10086000006105A8FFF701FE0020019002900390AF
:10087000049064230FA210A105A8FFF721FFB8B1CF
:1008800010A105A8FFF7FCFD05AD441B641C11A1D8
:1008900005A8FFF7F5FD401B401C021B2919113A62
:1008A0000D3101A8FFF7FEFD01A80DF6140D30BDB6
:1008B0000020FAE74F4B000041542B434946535266
:1008C000000000002B43494653523A5354414950CB
:1008D000000000002B43494653523A5354414D41C6
:1008E0004300000030B5ADF6140D4FF4006105A8CB
:1008F000FFF7BBFD14216846FFF7B7FD64230FA285
:100900000FA105A8FFF7DCFEA8B110A105A8FFF70D
:10091000B7FD05AD441B11A105A8FFF7B1FD401BB4
:10092000021B29190F3A0F316846FFF7BBFD6846D5
:100930000DF6140D30BD0020FAE700004F4B00000B
:1009400041542B4349465352000000002B43494673
:1009500053523A5354414D4143000000220D0A0DB9
:100960000A4F4B002DE9F04190B080460E4600251D
:1009700040216846FFF779FD424619A1684601F01B
:1009800003FA002442F2107723E03B4618A269469E
:100990000020FFF795FE70B140216846FFF765FD26
:1009A000424614A1684601F0EFF96946002001F0C3
:1009B00015F801250CE040216846FFF756FD424638
:1009C00013A1684601F0E0F96946002001F006F83D
:1009D000641CB442D9DB10B02846BDE8F0810000A9
:1009E00041542B50494E473D222573220000000000
:1009F0004F4B00005443503A202050696E672068E6
:100A00006F7374202573206973204F4B210D0A00EA
:100A10005443503A202050696E6720686F737420E9
:100A20002573206973206E6F74206176616C696133
:100A3000626C65210D0A00002DE9F041A0B0054669
:100A400000270026286800F02BF94FF0A0444FF053
:100A5000805004F5A164206080216846FFF705FD01
:100A60004A4A4B49684601F08FF96946002000F078
:100A7000B5FF48A1002000F0B1FF1D2002F016F8DC
:100A800042F21078404601F027FEA00620600021C7
:100A9000434645A20846FFF713FE0028F7D003247B
:100AA00006E0642342A243A10020FFF709FE0646A8
:100AB000641E14F0FF0401D0002EF2D0002E60D08E
:100AC0003DA1002000F08AFF3CA1002000F086FF3D
:100AD000642337A23FA10020FFF7F2FD18B13FA128
:100AE000002000F07BFF95F8300010B101280CD0F9
:100AF00016E064232EA23EA10020FFF7E1FD78B1AD
:100B00003EA1002000F06AFF0AE0642328A240A171
:100B10000020FFF7D5FD18B140A1002000F05EFFD6
:100B200095F8310010B101281BD025E080216846DE
:100B3000FFF79BFC2A1D3DA1684601F025F96423BF
:100B40001BA269460020FFF7BBFD642318A23BA14E
:100B50000020FFF7B5FD78B13CA1002000F03EFF7A
:100B60000AE0642312A23FA10020FFF7A9FD18B1FB
:100B700040A1002000F032FF43A1002000F02EFF32
:100B8000012720B03846BDE8F081000008000020B1
:100B9000F82E00000D0A574C414E3A20496E6974F8
:100BA00069616C6973656400726561647900000055
:100BB0004F4B0000415400000D0A0000574C414EBD
:100BC0003A2045535038323636206973204F4B2136
:100BD0000D0A00004154453000000000574C414EC2
:100BE0003A204563686F206F6666210D0A00000099
:100BF00041542B43574D4F44453D3100574C414ED6
:100C00003A204D6F6465205354410D0A00000000E6
:100C100041542B43574D4F44453D3200574C414EB4
:100C20003A204D6F64652041500D0A0041542B431A
:100C300049505354413D22257322000041542B4317
:100C400057444843503D312C30000000574C414E32
:100C50003A205354204950205374617469630D0A3B
:100C60000000000041542B4357444843503D312C71
:100C700031000000574C414E3A2053544120495016
:100C800020444843500D0A00574C414E3A20496ECB
:100C9000697420636F6D706C657465210D0A0000C6
:100CA00010B504461C2001F0F9FE1C2001F0FEFEE8
:100CB0001D2001F0F3FE1D2001F0F8FE394A082145
:100CC0001160384A0621083A1160364A002158322C
:100CD000116034481030B4F5614F54D014DCB4F5D1
:100CE000165F47D009DCB4F5966F38D0B4F5166FAF
:100CF00039D0B4F5965F1BD139E0B4F5964F3CD0AE
:100D0000B4F5164F14D13BE0B4F5E12F44D006DC26
:100D1000B4F5E13F3AD0B4F5613F09D139E0B4F51B
:100D2000612F3CD0204AD44202D14FF08052026061
:100D30001E48416101604FF0FF31C0F800124FF4CE
:100D40000171C0F8FC1117490420143908604FF0F4
:100D5000E021C1F8800216496020087010BD4FF4F0
:100D60009E220260E4E74FF41D220260E0E7114A90
:100D70000260DDE7104A0260DAE7104A0260D7E756
:100D80000F4A0260D4E70F4A0260D1E70E4A0260C0
:100D9000CEE70E4A0260CBE70D4A0260C8E70D4A73
:100DA0000260C5E714250040C0BDF0FF08210040E7
:100DB00002E400E000B013000050270000A04E0045
:100DC00000509D0000F0EB0000E0D70100B0AF0341
:100DD00000705F0700D0BE0E30B50546002405E068
:100DE0002046641CA4B2285C00F004F8285D0028AA
:100DF000F6D130BD064901228A60064B1860D1F851
:100E00001C010028FBD00020C1F81C01CA607047FB
:100E1000002000401C25004070B505460E46002409
:100E200004E0285DFFF7E6FF641CA4B2B442F8D3E7
:100E300070BD000030B5ADF6440D044600254FF4FA
:100E4000006111A8FFF711FB402101A8FFF70DFB7E
:100E5000402101A8FFF709FB23892CA101A86268A2
:100E600000F092FF01A9002000F0B8FD2FA120683A
:100E7000FFF706FB50B164232DA22EA10020FFF73F
:100E80001FFC18B130A1002000F0A8FD402101A8EE
:100E9000FFF7EBFA20890090D4E9002330A101A8E4
:100EA00000F072FF47F2305321A201A911A8FFF709
:100EB00007FC002821D031A111A8FFF7E1FAB8B151
:100EC00064231BA22FA10020FFF7FAFB002818D0F3
:100ED000402101A8FFF7C9FA23892EA101A8626861
:100EE00000F052FF01A9002000F078FD012508E084
:100EF00030A1002000F072FD03E035A1002000F0D9
:100F00006DFD0DF6440D284630BD00005443503AA7
:100F10002020436F6E6E656374696E6720746F2066
:100F200025733A25642E2E2E0D0A000053534C00D3
:100F30004F4B000041542B43495053534C53495A93
:100F4000453D34303936000053534C3A2020427529
:100F50006666657220736574207570210D0A000045
:100F600041542B43495053544152543D222573223E
:100F70002C222573222C256400000000434F4E4E86
:100F80004543540041542B4349504D4F44453D3057
:100F9000000000005443503A2020436F6E6E65639A
:100FA0007465642073756363657366756C79210D70
:100FB0000A0000005443503A2020436F6E6E656370
:100FC00074696E67206572726F72210D0A000000ED
:100FD0005443503A2020536572766572206E6F74C8
:100FE000206176616C6961626C65210D0A00000008
:100FF0002DE9F047A0B005464FF40064214635487E
:10100000FFF733FA05F1100021468246FFF72DFA6B
:10101000314E0027B7804FF0010886F8018002208A
:1010200000F028FCDFF8B490C9F80080EC684FF4B9
:101030007A70444306E02AA12648FFF721FA18B93E
:10104000B07808B9641EF6D1274801F045FBC9F80D
:101050000871C9F80480022000F001FC377034B137
:10106000B07850B1B770002020B0BDE8F0871FA164
:10107000002000F0B3FC0020F6E719A11548FFF7A7
:10108000FFF9144FC61B761C1FA13846FFF7F8F96D
:10109000C41B641CA21B002A15DDB919491E684631
:1010A000FFF700FA19A16846FFF718FA0DA1002012
:1010B000FFF714FAFFF734FA82B2A5F810283919AD
:1010C0005046FFF7B9F912A1002000F087FC01207B
:1010D000CAE70000C00000202800002000200040D7
:1010E0002B49504400000000400D03005443503A87
:1010F0002020525820646174612074696D656F7599
:1011000074210D0A000000003A0000002C000000CD
:101110005443503A20205258206461746120737502
:101120006363657373210D0A0000000070B5ADF5AF
:10113000046D0546002640216846FFF796F905F53F
:10114000805416A1628A684600F01EFE642317A22E
:1011500069460020FFF7B4FA05F61205A8B1618AC6
:101160002846FFF759FE4FF47A7311A2002110A808
:10117000FFF7A6FA28B110A1002000F02FFC0126ED
:1011800003E016A1002000F029FC4FF4006128467E
:10119000FFF76BF90DF5046D304670BD41542B43DC
:1011A000495053454E443D25640000003E00000078
:1011B00053454E44204F4B005443503A2020446145
:1011C00074612073656E6465642073756363657311
:1011D0007366756C79210D0A000000005443503A83
:1011E00020204572726F72207768696C6520736584
:1011F0006E64696E672064617461210D0A000000ED
:1012000070B5A0B0044600252DA1002000F0E6FB3B
:1012100080216846FFF729F9D4E90A232FA16846FF
:1012200000F0B2FD04263DE043F6982330A2694663
:101230000020FFF745FA002834D02EA1002000F04E
:10124000CDFB2DA1002000F0C9FB0020A16A00F019
:10125000C5FB31A1002000F0C1FB0020E16A00F0D5
:10126000BDFB2FA1002000F0B9FB31A1002000F050
:10127000B5FBFFF7F1FA0146002000F0AFFB1DA11E
:10128000002000F0ABFB2FA1002000F0A7FBFFF730
:1012900029FB0146002000F0A1FB16A1002000F070
:1012A0009DFB01251DB9761E16F0FF06BCD11DB9A8
:1012B00029A1002000F092FB20B0284670BD00005C
:1012C000574C414E3A20436F6E6E656374696E678A
:1012D00020746F2041502E2E2E00000041542B43CD
:1012E000574A41503D222573222C222573220000AB
:1012F0004F4B00000D0A0000574C414E3A20436FFF
:101300006E6E656374656420746F20415020535382
:1013100049443A200000000020505357443A20002E
:101320002073756363657366756C79210D0A00001F
:10133000574C414E3A204C6F63616C202049503A23
:1013400020000000574C414E3A204C6F63616C20E6
:101350004D41433A20000000574C414E3A20436132
:101360006E277420636F6E6E6563740D0A00000053
:1013700010B500240BA1002000F030FB642310A264
:1013800010A10020FFF79CF928B1012410A1002032
:1013900000F024FB03E017A1002000F01FFB204613
:1013A00010BD0000574C414E3A20446973636F6E84
:1013B0006E656374696E672E2E2E0D0A00000000A4
:1013C0004F4B000041542B43575141500000000047
:1013D000574C414E3A20446973636F6E6E65637477
:1013E0006564207375636365737366756C79210D2D
:1013F0000A000000574C414E3A20446973636F6EF7
:101400006E656374696E67206572726F72210D0A72
:101410000000000010B5827E0C49002A02D00CA208
:101420000A6001E00BA20A6002684A6082880A81B1
:10143000008BC8600548FFF7FDFC28B106A100201D
:1014400000F0CCFA012010BD002010BDC008002023
:1014500053534C00544350004D5154543A2053655B
:101460007276657220636F6E6E6563746564210DBC
:101470000A00000038B50F4C2078002818D00EA0C4
:10148000006800900D4802214182A0F50060BDF87F
:1014900000104182A0F50060FFF748FE002806D04A
:1014A00007A1002000F09AFA00202070012038BD2A
:1014B000002038BD2E000020E0000000C0180020F1
:1014C0004D5154543A2053657373696F6E20636CA9
:1014D0006F7365640D0A00002DE9FF5F0446002567
:1014E0004FF00A0A2069FEF7E9FF86B2A068FEF70E
:1014F000E5FF87B2E068FEF7E1FF1FFA80F8DFF84A
:10150000B09199F8000018B1002004B0BDE8F09F38
:1015100068A0006803902069FEF7D0FF8346A068AA
:10152000FEF7CCFF8344E068FEF7C8FF5844123052
:101530008DF80D0060A0D0E900128068CDE900129E
:1015400002908DF80A508DF80BA02069FEF7B6FFC7
:101550000546A068FEF7B2FF0544E068FEF7AEFF5F
:1015600005EB000A0AF1140A504601F06FF805462F
:1015700051462846FEF779FFBDF80C0028800098F8
:10158000C5F802000198C5F806000298C5F80A00DF
:10159000300AA873EE732069FEF790FF024605F14A
:1015A00010002169FEF748FF2069FEF787FF00F170
:1015B0000E014819390A81702069FEF77FFF00F19A
:1015C0000E014819C770A068FEF778FF064620692B
:1015D000FEF774FF284412303246A168FEF72CFF54
:1015E0002069FEF76BFF00F10E06A068FEF766FFAC
:1015F000304428444FEA182101712069FEF75EFF4C
:1016000000F10E06A068FEF759FF3044284480F828
:101610000580E068FEF752FF06462069FEF74EFFA0
:101620004719A068FEF74AFF384414303246E16893
:10163000FEF702FF23481FFA8AF242822946A0F2EF
:10164000EE70FEF7F9FE2048FFF770FD10B31E485C
:10165000FFF7CEFC002826D01B48017C202901D1B1
:10166000C07C58B119A1002000F0B8F9002089F819
:101670000000284600F05AFE002046E71AA100208C
:1016800000F0ACF9012089F80000284600F04EFE79
:1016900001203AE71AA1002000F0A0F9284600F046
:1016A00045FE002031E7284600F040FE2DE700000F
:1016B0002E0000201000000000064D514973647098
:1016C00003C20000C0180020C00800204D5154542F
:1016D0003A2053657373696F6E206E6F74206F705C
:1016E000656E6564210D0A004D5154543A205365CE
:1016F0007373696F6E206F70656E6564210D0A00EB
:101700004D5154543A2053657373696F6E2066616E
:10171000696C6564210D0A002DE9F8430646884688
:101720003A4D012028703046FEF7C8FE0446404678
:10173000FEF7C4FE2044801C80B22978002962D0C4
:10174000FF2860D832A1096800918DF80100304669
:10175000FEF7B4FE841C204600F078FF05463046B4
:10176000FEF7ACFE000A28703046FEF7A7FE687050
:101770003046FEF7A3FE02463146A81CFEF75CFE8B
:101780004046FEF79BFEA11C4718384600F05EFF5E
:10179000064639463046FEF768FEBDF80000308048
:1017A00022462946B01CFEF747FE4046FEF786FE5D
:1017B0000246A019801C4146FEF73EFE1548BAB20B
:1017C00042823146A0F2EE70FEF736FE1248FFF775
:1017D000ADFC60B111A1002000F000F9304600F02E
:1017E000A5FD284600F0A2FD0120BDE8F88310A168
:1017F000002000F0F3F8304600F098FD284600F095
:1018000095FD0020F1E70020EFE700002E0000200A
:1018100030000000C0180020C00800204D51545472
:101820003A205075626C6973686564210D0A000086
:101830004D5154543A205075626C6973682066614A
:10184000696C6564210D0A0000F01F0201219140BE
:101850004009800000F1E020C0F88012704700F0DD
:101860001F02012191404009800000F1E020C0F8F2
:101870008011704700F01F02012191404009800053
:1018800000F1E020C0F80011704700F01F020121B4
:1018900091404009800000F1E020C0F8001170473D
:1018A00000F01F02012191404009800000F1E0207A
:1018B000C0F80012704700002DE9F0414FF4807726
:1018C000384600F0F9FE0124104EA50748B138460D
:1018D00000F0F9FE0120C5F808037470002000F044
:1018E000C9FB4FF48277384600F0E6FE00280BD0A3
:1018F000384600F0E8FE0220C5F80803B470BDE8E1
:10190000F041012000F0B6BBBDE8F081D418002002
:1019100004480021016441648164C1640160416044
:1019200001F058BA0011014004220021014801F0E1
:1019300053B8000000400240F8B504460D46164674
:101940000A4B1B78002B01D100F08EF90023009385
:10195000002000F03EFB32462946204600F008F801
:101960000446002000F037FB2046F8BDF820002098
:1019700070B50E461446184900EB400001EBC00557
:1019800018356869002806D0012811D002281BD01C
:101990000024204670BD284600F09AF9A04201D2EA
:1019A0000024F6E722463146284600F0CBF9F0E75E
:1019B000284600F08DF9A04200D204462246314666
:1019C000284600F0BFF9E4E722463146284600F0F9
:1019D0008BF90446DDE70000F820002070B50546CD
:1019E0000C462046FEF76AFD024621462846BDE821
:1019F0007040FFF7A1BF01F079B90000024901482A
:101A0000086070470090D0033000002070B500F0EF
:101A1000BFFB10B16B486A49416700F0CFFB4FF044
:101A2000805628B1D6F84402C0F3423166480160BE
:101A300000F0E2FB20B16548016821F0807101608F
:101A400000F0F0FB002428B16148046044605E4867
:101A5000001F046000F004FC18B15B4903206431EE
:101A6000086000F013FC012558B15A4905200860B0
:101A7000584878300560574808300460091D3F20F9
:101A8000086000F019FCE8B3534800685349086047
:101A90005148001D0068091D08604F480830006863
:101AA000091D08604C480C300068091D08604A4850
:101AB00010300068091D0860474814300068091D8F
:101AC00008604548183000684449203108604248A1
:101AD0001C300068091D08603F4820300068091D5F
:101AE00008603D4824300068091D08603A482830E5
:101AF0000068091D086038482C300068091D08601E
:101B0000354800E018E03030006834494031086062
:101B1000314834300068091D08602F4838300068AB
:101B2000091D08602C483C300068091D08602A48DF
:101B300040300068091D086000F00CFB28B1D6F8A1
:101B40005802274900F04F000860204874380168A7
:101B500041F470010160BFF34F8FBFF36F8F4FF0FF
:101B60001022D2F80002002803DBD2F80402002879
:101B700021DA1C4B1D601C4801680029FCD015258A
:101B8000C2F8005201680029FCD0C2F80452016872
:101B90000029FCD01C6001680029FCD0BFF34F8FE6
:101BA0000A48F0380168114A01F4E061114301600C
:101BB000BFF34F8FFEE7BDE87040FFF71FBF000087
:101BC0000DF0ADBA00C007403C050040FCED00E060
:101BD0000C010040105600400404001020C50040D5
:101BE000E40E004004E5014000E401400400FA0571
:101BF000F0B5194ED6F8081100200123174D002921
:101C000021D0C6F8080116480068C0B2E87029461D
:101C10006F788A88134C511C89B21FB1A980A054D7
:101C20002B70F0BD0A2804D03E2807D0A980A0540C
:101C3000F0BDA980A05473602B70F0BDA980A054A2
:101C400073602B70F0BDD6F824110029FAD0C6F8C5
:101C50002401AB70F0BD00000020004028000020EF
:101C600018250040C000002010B5124C0220206151
:101C7000606111A0A061A4F50160E0614FF4006013
:101C800020620021A1626162E1620BA0A064A4F164
:101C90001000E06410202065A1656165E16509A17F
:101CA000E01DFEF712FC08A12046FEF70EFC2020E6
:101CB000A07110BDF82000205465726D696E616CD2
:101CC000000000005254540053454747455200005D
:101CD0000169C268914204D88068801A0844401E95
:101CE0007047881A401E70472DE9F047054689461F
:101CF00017464FF00008EC682869A04202D9061B7D
:101D0000761E03E0A968201A0E1A761EA868001B2A
:101D1000B04200D80646BE4200D33E46686832460E
:101D200020444946FEF788FBB044B144BF1B34440D
:101D3000A868A04200D10024EC60002FDCD140460E
:101D4000BDE8F0872DE9F041044688461746E6686D
:101D5000A068851B6068BD4208D930443A464146B8
:101D6000FEF76AFBF019E060BDE8F0812A463044D6
:101D70004146FEF761FB7E1B08EB050132466068B9
:101D8000FEF75AFBE660EFE70FB4084B10B504A965
:101D900002AA039800F020F8044602A9002000F0EF
:101DA000F7F8204610BC5DF814FB0000911F0000FE
:101DB000004870476C00002002E008C8121F08C1EC
:101DC000002AFAD170477047002001E001C1121FBC
:101DD000002AFBD1704700002DE9FF4F8BB09A46D7
:101DE0000F460546002606E025280BD052460D99E1
:101DF00090476D1C761C28780028F5D10FB030462E
:101E0000BDE8F08F0024A0460122604900E00443B1
:101E100015F8013F203B02FA03F00842F7D1287879
:101E20002E2817D115F8010F44F004042A280ED0EB
:101E30006FF02F022878A0F1300109290AD808EBA9
:101E4000880102EB410100EB01086D1CF2E757F835
:101E5000048B6D1C287869283ED006DC0028CDD084
:101E600063280BD0642804D136E0732810D075287D
:101E70004BD052460D999047761C85E017F8040B1D
:101E80008DF8000000208DF80100E946012003E0F4
:101E900057F8049B4FF0FF3061074FF0000401D466
:101EA0000AE0641C44450DDA8442FADB19F8041098
:101EB0000029F6D106E0641C8442FCDB19F804100A
:101EC0000029F8D1264404E019F8010B52460D9977
:101ED0009047641EF8D257E001CF4FF00A0B00285C
:101EE00002DA40422D2102E0210504D52B218DF894
:101EF0002410012103E0E10705D02021F7E70DF1CF
:101F0000200908910CE00021F9E701CF4FF00A0BFE
:101F1000F9E75946FEF711FB01F1300209F8012DEE
:101F20000028F6D1ADEB090000F1200B600701D4C9
:101F30004FF00108D84502DDA8EB0B0000E00020BF
:101F40008046002406E009A85246005D0D9990479E
:101F5000641C761C08988442F5DB04E0302052466D
:101F60000D999047761CB8F10001A8F10108F5DC45
:101F700005E019F8010B52460D999047761CBBF10C
:101F80000001ABF1010BF4DC6D1C34E70928010002
:101F90000A68531C0B60107070470000BFF34F8F2E
:101FA00004480168044A01F4E06111430160BFF391
:101FB0004F8FFEE70CED00E00400FA050EB500219E
:101FC0000091019102906A4644F20100FFF7E6FF9A
:101FD0000EBD00F003B800F009B8000072B6024868
:101FE0000168491C016070475C00002003490868D3
:101FF000401E0860002800D162B670475C000020D7
:1020000007490B5C4FF0A04202F204521068012114
:10201000994021EA0003536001409160704700003D
:10202000682E00000249085C012100F047BD000055
:10203000682E00007CB50024084E0025305D01228A
:10204000009500231146019500F016FD641C042C38
:10205000F4D3BDE87C4000F003B80000682E000017
:1020600010B500242046FFF7DDFF641C042CF9D3D3
:1020700010BD000070B50546002D01D0064C05E0EE
:10208000054C083C02E0416828468847204600F09D
:1020900075F90028F7D170BDE41800202DE9F04152
:1020A0001A49486800282BD00768DFF86480D8F800
:1020B00000408E68A01B20F07F45ED1C887808B991
:1020C00000F012FDBD4200D23D46A81920F07F402D
:1020D0000F4A3C321060D8F80010091B21F07F41F4
:1020E000C91C001B20F07F4081420DD9D8F80000A8
:1020F00010602F2000F036FBBDE8F04100F0A8BED4
:10210000BDE8F04100F00ABDBDE8F0813C000020D0
:102110000415014010B50E4A002311785478A142ED
:1021200012D0491CC9B21170022900D1137008499C
:102130001378183151F8231001609068084420F09A
:102140007F409060012010BD0360002010BD0000A2
:102150003C0000200D48007806280FD10B48001DD8
:10216000007800070AD1094808300078C0F303104E
:10217000032805D0042805D0052805D00020704785
:10218000012070470120704701207047E00F00F0E8
:102190000948007806280BD10748001D0078000781
:1021A00006D1054808300078C0F30310032801D099
:1021B0000020704701207047E00F00F00D480078C4
:1021C00006280FD10B48001D007800070AD10948E6
:1021D00008300078C0F30310032805D0042805D088
:1021E000052805D000207047012070470120704766
:1021F00001207047E00F00F00948007806280BD155
:102200000748001D0078000706D10548083000780F
:10221000C0F30310032801D000207047012070474D
:10222000E00F00F00D48007806280FD10B48001D84
:10223000007800070AD1094808300078C0F303107D
:10224000032805D0042805D0052805D000207047B4
:10225000012070470120704701207047E00F00F017
:102260000948007806280BD10748001D00780007B0
:1022700006D1054808300078C0F30310032801D0C8
:102280000020704701207047E00F00F009480078F7
:1022900006280BD10748001D0078000706D1054825
:1022A00008300078C0F30310032801D000207047E5
:1022B00001207047E00F00F00948007806280BD194
:1022C0000748001D0078000706D10548083000784F
:1022D000C0F30310052801D000207047012070478B
:1022E000E00F00F0F0B500240F4F19E01D688542A3
:1022F00003D91968081A1860F0BD401B2C44002649
:102300001E601E46DD697D60DD684DB101EB040C89
:102310002CF07F4CC3F804C09D601568DD61166029
:102320007B68002BE2D1F0BD3C00002010B50028F6
:1023300021D0114B0022001F196803E0814203D80D
:102340000A4649680029F9D152B11368841A9C429F
:1023500004D1006818441060104602E0506000E0AC
:10236000186039B102680B1A934203D10B681A4402
:1023700002604968416010BD6400002001460868A1
:10238000002801D002680A6070470268134602E024
:102390008A4206D01268002AFAD103B900230B60E2
:1023A0000160704710B500F023FA08B1FFF706FE90
:1023B000BDE81040002000F041BA000010B54FF415
:1023C000827000F080F90220024908600249012071
:1023D000086010BD04030040080000402DE9F041F2
:1023E000164F3C78A7F110056E681CE0786804EB86
:1023F000440100EBC100641CE4B2B978A14200D1F1
:1024000000240178022902D003290CD103E040689E
:1024100000F0BAFC07E0002102E00174C0696860C6
:1024200068680028F9D17878A042DFD16868B042A6
:1024300002D00120BDE8F0810020FBE74C00002025
:102440002DE9F04104462A4ED6F80480002506F115
:1024500010073FE014B12046C4691DE03878796860
:1024600000EB400201EBC201401CC0B23870BA78E8
:10247000904200D13D7048680A78012A2AD1027C36
:1024800042BB8A684260CA6882600A69C260496960
:102490008161F17801B145604168B368DFF854C0EB
:1024A000CA1A22F07F42624503D28168114401605A
:1024B00009E0591A21F07F4182688A4202D9511AF3
:1024C000016000E005604560856001210174C5611F
:1024D00000F036FC002CBDD1387879788842B9D12B
:1024E0007068404502D00120BDE8F0810020FBE784
:1024F0003C000020FFFF7F00FFF754FFFFF79AFD2D
:1025000000F0A6FB364D4FF4E130286035A0A862FC
:1025100036A0E862002685F83060012085F8310099
:1025200005F1340434A0206136A0206042F6521038
:10253000A08039A0A0603BA0E0603EA0606142F2B4
:1025400010702083A6760020FFF75AFD2846FEF77C
:1025500073FAE0B12846FEF753FEA0B1FEF77CF90E
:1025600001461022281DFDF767FFFEF7BBF9014663
:102570001122A4F12000FDF75FFF03212068FEF780
:10258000F1F9FEF7F5FE85F83160FEF72DF9002030
:10259000FFF736FD294D2878F8B11148FEF74CFABF
:1025A000B8B10F48FEF72CFE88B10D483430FEF765
:1025B00031FF50B10A483430FEF78EFF18B120A128
:1025C0006069FFF7A9F8FEF755FFFEF7D1FEFEF7A9
:1025D0000BF90220FFF714FD2E7000F081FADAE704
:1025E0007000002064642D7772740000626F726165
:1025F0002D626F726130340041733536796845451C
:10260000303100006D31342E636C6F75646D717400
:10261000742E636F6D000000696F69627675746E69
:10262000000000006C7A6248534B6573416C456949
:10263000000000002F6D65746B6100000000002039
:1026400048656C6C6F210D0A00000000F0B50B307E
:10265000154D20F007010024144A0FE003688B4257
:102660000BD38B4205D95E1A43184768C3E900674C
:1026700000E04368136002C004E0021D10680028F7
:10268000ECD12046002802D1286808B10020F0BD16
:10269000064A07481060074A121A22F00702C0E9EA
:1026A000002401202860D7E7680000206400002093
:1026B000742100207041002000F180400068002853
:1026C00000D00120704708B500F180400021016072
:1026D0000068009008BD000000283ED01F4A204935
:1026E000126800BF00BF00BF00BF00BF00BF00BF37
:1026F00000BF8A422FD000BF00BF00BF00BF00BF95
:1027000000BF00BF00BF00BF00BF00BF00BF00BFD1
:1027100000BF00BF00BF00BF00BF00BF00BF00BFC1
:1027200000BF00BF00BF00BF00BF00BF00BF00BFB1
:1027300000BF00BF00BF00BF00BF00BF00BF00BFA1
:1027400000BF00BF00BF00BF00BF00BF00BF00BF91
:1027500000BF00BF00BF0138C3D170473000002068
:102760000024F40000283ED01F4A2049126800BF10
:1027700000BF00BF00BF00BF00BF00BF00BF8A4254
:102780002FD000BF00BF00BF00BF00BF00BF00BF11
:1027900000BF00BF00BF00BF00BF00BF00BF00BF41
:1027A00000BF00BF00BF00BF00BF00BF00BF00BF31
:1027B00000BF00BF00BF00BF00BF00BF00BF00BF21
:1027C00000BF00BF00BF00BF00BF00BF00BF00BF11
:1027D00000BF00BF00BF00BF00BF00BF00BF00BF01
:1027E00000BF0138C3D17047300000200024F4003E
:1027F00070B500250E4C2078002801D0852515E005
:102800000021A16061602161E1600A480068012641
:1028100010F0010F01D0012100E0002119B90721BA
:10282000002000F037F8044806602670284670BD86
:10283000D418002000E100E01805004070B50446FF
:10284000134DA87800280ED014B161680120884784
:102850000020FFF7BEFBE868401CE860BDE8704060
:102860000020FFF7B8BB0020FFF7B3FB24B10848F6
:1028700021461030FFF789FDE86808B9FFF79EFD93
:10288000E868401CE860BDE870400020FFF7A3BB8B
:10289000D41800204907090E002806DA00F00F02BC
:1028A00002F1E02282F8141D03E000F1E02282F838
:1028B000001400F01F02012191404009800000F146
:1028C000E020C0F88012C0F8001170472DE9F041F7
:1028D00004464FF480358D404FF4A07000EB81002A
:1028E00086B22068C0F848532068C0F8085322F028
:1028F0007F406279184F02EB42023A445278002A34
:1029000017D0226802EB8101C1F840052168D1F897
:102910000425111A824202D26FF07F40014460798F
:1029200000EB400038448078884207DD0D20BDE888
:10293000F081226802EB8101C1F8400533B13146D4
:10294000206800F0C7F82068C0F804532068C0F879
:1029500044530020EBE7000034000020016801220E
:102960000A604079024A00EB40000221115470478E
:102970003400002070B504460D46002A0BD0607963
:10298000144941F8202060790E1F00EB4000305CB4
:1029900018B1082070BD072070BDA97894F9040013
:1029A000FFF778FF29882068C0F808156079297931
:1029B00000EB4000304441706079E97800EB400062
:1029C000304481706079012100EB400031540020D7
:1029D00070BD0000380000202DE9F047044688460D
:1029E00092464FF480354FF4A0770026DFF88490AC
:1029F00015E0D4F80403284068B1E05958B1C4F890
:102A00004853C4F808533946204600F063F859F893
:102A10002810F0B288476D003F1DBFB2761C5645A6
:102A2000E7D34FF48071D4F8040300F0010048B1FB
:102A3000D4F8000130B1204600F04CF859F82810C5
:102A4000042088474FF48271D4F8040300F0020098
:102A500000280CD0D4F80401002808D0204600F04B
:102A600039F859F82810BDE8F04705200847BDE8B7
:102A7000F08700003800002070B5DDE904654FF0F4
:102A8000A04441EA420141EA830141EA062104EB04
:102A9000800041EA0541C0F8001770BD4FF0A04228
:102AA00002EB80000321C0F8001770474FF0A042EE
:102AB0000121814002F20C521160704701228240D4
:102AC0004FF0A043002902D0C3F808257047C3F88F
:102AD0000C25704708B5002242504058009008BDB0
:102AE00040BF20BF20BF704770B50A4C4FF4803004
:102AF000C4F84403C4F804031120FEF7A5FE112016
:102B0000FEF7C3FE012525602F20FFF72BFE0248AC
:102B1000857070BD001001403C00002070B501269A
:102B20000A49700400250860094C4010C4F84803A5
:102B3000C4F8080366602F20FFF714FEA660054C5A
:102B4000A5602F20FFF70EFEA57070BD80E100E0AC
:102B5000001001403C0000203EB5304D0021304CBB
:102B6000002808D0012858D12079401CC0B220711B
:102B70000A2819D031E00220FFF742FA0120207024
:102B8000D5F840054FF4A021401820F07F424FF0C7
:102B900001034FF000012348FFF798FE00283CD0C6
:102BA000BDE83E40FFF70ABA2171E078401CC0B290
:102BB000E0703C2811D1E170A078401CC0B2A07038
:102BC0003C280AD1A1706078401CC0B260701828FF
:102BD00003D1E088401CE0806170E1782079A27820
:102BE000CDE9002102900E486378E2880EA10830FA
:102BF000FFF7CAF81548006840F6CC41401820F0AD
:102C00007F424FF0010319460648FFF75FFE002898
:102C100003D0BDE83E40FFF7D1B93EBD00400240C1
:102C200000000020602E00006461793A20256420B5
:102C300074696D653A20252E32643A252E32643A45
:102C4000252E32642E252E326400000044450240B9
:102C500010B51549134A01F10800FFF78BFE08B1C2
:102C6000FFF7ACF9104801234FF4A02200210830EF
:102C7000FFF72CFE08B1FFF7A1F90B48012340F63E
:102C8000CC4219460830FFF721FE08B1FFF796F94C
:102C900005480830FFF762FEBDE8104003A10020A0
:102CA000FEF79CBE592B0000582E00000D0A52540E
:102CB000432073746172746564210D0A0000000082
:102CC00010B50949D0E90520CB68002B08D0014692
:102CD00010469847002806D0BDE81040FFF76EB9AF
:102CE000BDE81040104710BD3C0000202DE9FC4716
:102CF000002701970F4DD5F80880D5F80490684655
:102D0000FFF708FA0646FFF769FB04462EB101AA51
:102D100041460098FFF7E6FA01240198FFF790FB7F
:102D200000B1012414B14846FFF7B8F9EF70BDE8CF
:102D3000FC8700003C0000201420FEF7B1BD00001D
:102D400010B5104C6168002908D002680B689A42DF
:102D500006D89A1A0A60C161606010BD606010BD3B
:102D60000C4602E0D21A0C46C96911B10B689342B5
:102D7000F8D311B10B689B1A0B600260C161E0616E
:102D800010BD00003C00002010B5104C62681346D6
:102D9000114603E0814203D00A46C9690029F9D1EE
:102DA000002912D08A4208D1D869606028B9084B3E
:102DB000012098600023A360E0700B68C869D061AF
:102DC000002802D001681944016010BD3C000020B9
:102DD000001001402DE9F041DFF86C80D8F8044084
:102DE000002C2FD0002619480068D8F80810401A87
:102DF00020F07F4500270BE02068A8420AD82D1A52
:102E000006442046E469017C11B10774FFF758FFBE
:102E1000002CF1D198F8001098F80100814207D1F8
:102E2000401CC0B288F80100022801D188F8017066
:102E3000054898F80110183040F82160BDE8F041CD
:102E4000FFF77ABFBDE8F0813C0000200415014087
:102E50001120FEF725BD0000000007410000000022
:102E60000040024024000400111213140D0E0F1034
:102E7000004040404040404040404141414141408D
:102E80004040404040404040404040404040404042
:102E900040050202020202020202020202020202D1
:102EA00002202020202020202020200202020202D6
:102EB000020290909090909010101010101010102E
:102EC000101010101010101010101010020202023A
:102ED000020288888888888808080808080808087E
:102EE000080808080808080808080808020202027A
:102EF00040000000712E00000D0A2A2A2A2A2A2AE0
:102F00002A2A2A2A2A2A2A2A2A2A2A2A2A2A2A2A21
:102F10002A2A2A2A2A2A2A2A2A2A2A202573202AE1
:102F20002A2A2A2A2A2A2A2A2A2A2A2A2A2A2A2A01
:102F30002A2A2A2A2A2A2A2A2A2A2A2A0D0A000082
:102F4000602F00000000002070000000B81D00008D
:102F5000D02F00007000002000610000C81D00009C
:102F600000000000000000006461793A2030207405
:102F7000696D653A2030303A30303A30302E30309A
:102F80000000000000000000000000000000000041
:102F90000090D003000000000000000000000000CE
:102FA0000000000000000000000000000000000021
:102FB0000000000000000000000000000000000011
:102FC0000000000000000000000000000000000001
:0400000500000401F2
:00000001FF
