:020000040001F9
:10F00000B866002015F401001DF401001FF4010092
:10F0100021F4010023F4010025F4010000000000A8
:10F0200000000000000000000000000027F40100C4
:10F0300029F40100000000002BF401002DF4010070
:10F040001DFE01002FF40100C50302002FF4010092
:10F050002FF401002FF401002FF401002FF4010020
:10F060002FF401002FF401002FF401002FF4010010
:10F070002FF401002FF401002FF401002FF4010000
:10F080002FF401006DFE01002FF401002FF40100A8
:10F0900089FF01002FF4010091FF01002FF401000E
:10F0A0002FF401002FF401002FF401002FF40100D0
:10F0B0002FF401002FF40100000000000000000008
:10F0C0002FF401002FF401002FF401002FF40100B0
:10F0D0002FF401002FF401002FF4010000000000C4
:10F0E0000000000000000000000000000000000020
:10F0F0000000000000000000000000000000000010
:10F1000000000000000000000000000000000000FF
:10F1100000000000000000000000000000000000EF
:10F40000DFF80CD000F0EEF80048004719250200A4
:10F41000B86600200648804706480047FEE7FEE73A
:10F42000FEE7FEE7FEE7FEE7FEE7FEE7FEE7FEE7B4
:10F43000A901020001F4010040EA01039B0703D087
:10F4400009E008C9121F08C0042AFAD203E011F823
:10F45000013B00F8013B521EF9D27047D2B201E0E5
:10F4600000F8012B491EFBD270470022F6E710B5C9
:10F4700013460A4604461946FFF7F0FF204610BD22
:10F4800030B505462A460B4612F8010B13F8014B1E
:10F4900008B1A042F8D01CB1002802D06D1CF1E7E1
:10F4A000284630BD421C10F8011B0029FBD1801AF0
:10F4B0007047000070B50F4D00B92868002412E0B5
:10F4C0000A4602E09E4203D0521C1378002BF9D169
:10F4D000DAB2224305D02BB124B1002100F8011B80
:10F4E00004E00446401C0678002EE9D1286020463E
:10F4F00070BD00002C22002070B5064600F0AAFF67
:10F50000046805460A220021304600F033F82C60DA
:10F5100070BD2DE9F05F0546002092469B46884667
:10F520000646814640241BE028464146474622467F
:10F5300000F079F853465A46C01A914110D311464B
:10F540001846224600F060F82D1A67EB01084F4676
:10F5500022460120002100F057F817EB00094E4128
:10F56000201EA4F10104DFDC484631462A4643460A
:10F57000BDE8F09F2DE9F04791460F4680460446CE
:10F58000002614F8015B2DB100F05EF80068405DC4
:10F59000C007F6D12B2D02D02D2D18D0641E4A465F
:10F5A0003946204600F054F827B13968A14201D10C
:10F5B000C7F8008071054FF002040BD540420028C7
:10F5C00003DD00F047FF0460A007BDE8F08746F4C4
:10F5D0008066E4E70028F8DA00F03CFF04606FF092
:10F5E0000040F2E7064C074D06E0E06840F00103FA
:10F5F00094E8070098471034AC42F6D3FFF704FFB5
:10F600002C4202004C420200202A04DB203A00FA7D
:10F6100002F1002070479140C2F1200320FA03F369
:10F62000194390407047202A04DB203A21FA02F067
:10F630000021704721FA02F3D040C2F1200291402C
:10F6400008431946704700000048704728420200EE
:10F650002DE9F05F82460078002715468B460AF1B7
:10F660000104B946302801D09DB113E014F8010B14
:10F670000127782803D0582801D045B10AE00DB100
:10F68000102D07D10027102514F8010B02E00825E2
:10F6900000E00A250026B0460EE005FB080005FB49
:10F6A00006F1012701EB10461FFA80F8B6F5803FFE
:10F6B00000D3B94614F8010B294600F018F80028C9
:10F6C000EBDABBF1000F05D00FB1641E00E0544629
:10F6D000CBF80040B9F1000F06D000F0BBFE0221CC
:10F6E0000160C81EBDE8F09F48EA0640FAE73A28E4
:10F6F00000D2303820F02002412A01D3A2F1370095
:10F70000884201D34FF0FF307047000070B50446C7
:10F7100000250120084908600848007848B1012008
:10F72000486021460648FFF7ABFE08B1012500E01E
:10F730000025284670BD0000002000402A2200203D
:10F740007626002010B540210448FFF78EFE0020E9
:10F75000034908700349087010BD00007626002098
:10F760002A2200202922002070B588B005460C46C8
:10F7700020216846FFF779FE284600F0E7FC68463E
:10F7800002F020FD0FA16846FFF794FE064600F048
:10F79000DDFC0DA16846FFF78DFE0C4908600BE00B
:10F7A0000A480068FFF7A8FE04F8010B06A1002034
:10F7B000FFF780FE05490860044800680028EFD183
:10F7C00008B070BD0D0A00002E00000024220020A9
:10F7D00070B588B005460C4620216846FFF745FE07
:10F7E000284600F0B3FC684602F0ECFC0FA1684626
:10F7F000FFF760FE064600F0A9FC0DA16846FFF782
:10F8000059FE0C4908600BE00A480068FFF774FED7
:10F8100004F8010B06A10020FFF74CFE0549086023
:10F82000044800680028EFD108B070BD0D0A000040
:10F830002E0000002422002070B588B005460C463A
:10F8400020216846FFF711FE284600F07FFC68463D
:10F8500002F0B8FC0FA16846FFF72CFE064600F048
:10F8600075FC0DA16846FFF725FE0C4908600BE00A
:10F870000A480068FFF740FE04F8010B06A10020CB
:10F88000FFF718FE05490860044800680028EFD11A
:10F8900008B070BD0D0A00002E00000024220020D8
:10F8A00030B589B005460C46202101A8FFF7DDFDE3
:10F8B000284600F04BFC01A802F084FC08A101A836
:10F8C000FFF7F8FD074908600846006800F03EFCB5
:10F8D00004480068FFF710FE208009B030BD00002A
:10F8E0000D0A00002422002070B588B005460C46A1
:10F8F00020216846FFF7B9FD284600F027FC68463E
:10F9000002F060FC0FA16846FFF7D4FD064600F048
:10F910001DFC0DA16846FFF7CDFD0C4908600BE00A
:10F920000A480068FFF7E8FD04F8010B06A1002073
:10F93000FFF7C0FD05490860044800680028EFD1C2
:10F9400008B070BD0D0A00002E0000002422002027
:10F9500070B50446162003F0DEFA0F2000F0FCFA22
:10F96000200A00F0F9FAE0B200F0F6FA002000F008
:10F97000F3FA0546162003F0E5FA284670BD70B587
:10F9800004460D46162003F0C6FAF02000F0E4FA13
:10F99000200A00F0E1FAE0B200F0DEFA284600F0BA
:10F9A000DBFA162003F0CEFA012070BD70B50446D4
:10F9B0000D46164632462946204603F0E5FF20B1A3
:10F9C00003A000F0C3FB012070BD0020FCE7000095
:10F9D0004D5154542073657276657220636F6E6E5C
:10F9E0006563746564210D0A000000002DE9FF4F76
:10F9F0008BB0894616461F460A200A9000200990BF
:10FA00000A2008904846FFF74DFD80B20790304627
:10FA1000FFF748FD80B206903846FFF743FD1FFA16
:10FA200080FA00257248007800287DD171A0006816
:10FA300005904846FFF736FD00F1100B3046FFF702
:10FA400031FD83440BF1020B3846FFF72BFD584480
:10FA5000C0B28DF8150068A207CA02AB07C30998A7
:10FA60008DF8120008988DF813004846FFF71AFD2C
:10FA700000F1140B3046FFF715FD83443846FFF7BD
:10FA800011FD0BEB0008404602F06CFE04460E250B
:10FA900041462046FFF7E9FCBDF81400208002989B
:10FAA000C4F802000398C4F806000498C4F80A00D9
:10FAB0000798001260550798C1B2681C2154484647
:10FAC000FFF7F0FC83465A46494604F11000FFF761
:10FAD000B3FC4846FFF7E6FC2844801C069909124F
:10FAE00021544846FFF7DEFC4119C91C06986054B2
:10FAF0003046FFF7D7FC01904846FFF7D3FC01469C
:10FB000004F11000084400F1020B31465846019AF6
:10FB1000FFF792FC4846FFF7C5FC00EB050B3046AB
:10FB2000FFF7C0FC584400E05FE0001D4FEA2A21C7
:10FB300021544846FFF7B6FC00EB050B3046FFF7B3
:10FB4000B1FC5844401D04F800A03846FFF7AAFC59
:10FB500001904846FFF7A6FC014604F1100001EBB6
:10FB6000000B0BF1020B3046FFF79CFC5844801C45
:10FB700000903946019AFFF75FFC08F0FF0221462A
:10FB80000B9803F0C7FF002827D000BF1D4802785C
:10FB90001D490B9803F082FF0028F7D01A4800781F
:10FBA00020280FD11848C07860B918A000F0CEFA0C
:10FBB00001200F490870204602F0DAF901200FB049
:10FBC000BDE8F08F17A000F0C1FA002008490870C6
:10FBD000204602F0CDF90020F1E719A000F0B6FAB6
:10FBE000204602F0C5F90020E9E70020E7E7000021
:10FBF0002B2200201000000000064D514973647054
:10FC000003C200001A220020382400204D51545411
:10FC10002073657373696F6E206F70656E65642104
:10FC20000D0A00004D5154542073657373696F6E53
:10FC3000206E6F74206F70656E6564210D0A000080
:10FC40004D5154542073657373696F6E20666169FA
:10FC50006C6564210D0A00002DE9FC5F834689462E
:10FC6000174601203A4908704FF0000A4846FFF74E
:10FC700019FC841C3846FFF715FC20441FFA80FA53
:10FC800033480078002861D0BAF1FF0F5EDC31A064
:10FC9000006801900AF0FF008DF805004846FFF764
:10FCA00001FC861C304602F05DFD05464846FFF724
:10FCB000F9FB000A28704846FFF7F4FB68704846D5
:10FCC000FFF7F0FB024649460090A81CFFF7B4FB83
:10FCD0003846FFF7E7FBB11C00EB0108404602F095
:10FCE00041FD044641462046FFF7BFFBBDF8040036
:10FCF000208032462946A01CFFF79EFB3846FFF7BE
:10FD0000D1FBA11C009070183946009AFFF794FBB4
:10FD100008F0FF022146584603F0FCFE58B10EA041
:10FD200000F014FA204602F023F9284602F020F9E8
:10FD30000120BDE8FC9F0CA000F008FA204602F06C
:10FD400017F9284602F014F90020F2E70020F0E746
:10FD50002B220020300000004D5154542070756259
:10FD60006C697368210D0A004661696C6564204DF9
:10FD7000515454207075626C697368210D0A00003B
:10FD800000F01F0201219140024A430942F823106A
:10FD90007047000080E200E000F01F020121914066
:10FDA000024A430942F823107047000080E100E056
:10FDB00000F01F02012191404209920002F1E0226D
:10FDC000C2F80011704700F01F0201219140420962
:10FDD000920002F1E022C2F80011704700F01F0209
:10FDE00001219140024A430942F823107047000064
:10FDF00000E200E010B5002807DA4A07140E054AB1
:10FE000000F00F031B1FD45403E04A07130E024AED
:10FE1000135410BD18ED00E000E400E010B54FF4FD
:10FE2000807002F071FD60B14FF4807002F075FDDA
:10FE3000012002F07BFD01200B494870002001F0F9
:10FE40009DFC4FF4827002F05FFD58B14FF4827058
:10FE500002F063FD022002F069FD01200249887072
:10FE600001F08CFC10BD0000A023002010B5002084
:10FE70000949086000210948C0F84411C0F8481138
:10FE8000C0F84C1100200549C1F8000102493C3975
:10FE9000086003F061FF10BD4011014000100140F7
:10FEA0001CB5182400200090034601220146019051
:10FEB000204602F0F7FF00BF172003F007F81920D3
:10FEC00003F004F81D2003F001F8162002F0FEFFF5
:10FED000172003F042F8192003F03FF81D2003F02B
:10FEE0003CF8162003F039F8182119480160172151
:10FEF000001F01601920164908390860800714495D
:10FF00001431086000201249443108600120104972
:10FF10001039086000200F490860162003F01DF812
:10FF20001D2000BF4FF0A0410A46012303FA00F153
:10FF3000C2F80C1500BF00BF0A2002F006FD1D200C
:10FF400003F00BF84FF4FA6002F0FFFC1CBD000058
:10FF500010350040083100400146094A12680AB9CC
:10FF6000084A116000BF064A1268012AFBD1054AFF
:10FF7000121F1268D0B20022014B1A6070470000B5
:10FF8000083100401C35004010B503F0FBFD10BDEA
:10FF900070B50A48006868B10848006880470446A0
:10FFA00000BF254625B100BF284600F05DFE00BF1A
:10FFB00000BF01E002F084F970BD0000C8210020FC
:10FFC00030B5024608205149086006204F490839DB
:10FFD000086000204D4958310860B2F5614F47D0A4
:10FFE00014DCB2F5165F34D009DCB2F5966F1FD081
:10FFF000B2F5166F22D0B2F5965F58D124E0B2F573
:020000040002F8
:10000000964F2BD0B2F5164F51D12CE0B2F5E12F1F
:100010003DD006DCB2F5E13F2FD0B2F5613F46D1CD
:1000200030E0B2F5612F37D039481044F8B938E0E4
:100030004FF49E2035491031086038E04FF41D2000
:1000400032491031086032E03248304910310860DE
:100050002DE031482D491031086028E02F482B4908
:100060001031086023E02E482849103108601EE056
:100070002C4826491031086019E02B4823491031DB
:10008000086014E029482149103108600FE0284831
:100090001E49103108600AE026481C4910310860EA
:1000A00005E04FF0805019491031086000BF00BFD3
:1000B0004FF0FF302049086004202049C1F80403B4
:1000C0001249143908600220012181401C4B440967
:1000D00043F8241000BF0146002807DA4B071D0E25
:1000E000184B00F00F04241F1D5503E04B071C0E96
:1000F000154B1C5400BF02200121814043099B0085
:1001000003F1E023C3F8001100BF30BD1425004007
:10011000C0BDF0FF00B013000050270000A04E004B
:1001200000509D0000F0EB0000E0D70100B0AF03ED
:1001300000705F0700D0BE0E082300400020004082
:1001400080E200E018ED00E000E400E010B50346B6
:10015000002404E0185D00F007F8601C84B2185D0C
:100160000028F7D110BD00000121084A916008491C
:10017000086000BF074909680029FBD00021054A33
:1001800011600121014AD160704700000020004049
:100190001C2500401C2100400148024908607047AE
:1001A0000090D0038C21002010B501F0E9FC10B1C3
:1001B00076487749486701F0FBFC28B1754800682C
:1001C000C0F342307449086001F01CFD28B1734847
:1001D000006820F080707149086001F02BFD48B183
:1001E00000206F4908604FF08041C1F810016A4952
:1001F000091F086001F048FD18B103206649643109
:10020000086001F059FD68B10520664908600120C9
:1002100064497831086000206249083108603F2055
:10022000091F086001F060FD002855D05E48006895
:100230005E4908605C48001D0068091D08605A4856
:1002400008300068091D086057480C300068091D17
:100250000860554810300068091D08605248143085
:100260000068091D08605048183000684F49203167
:1002700008604D481C300068091D08604A4820305D
:100280000068091D0860484824300068091D08609E
:10029000454828300068091D086043482C30006834
:1002A000091D08604048303000684049403108600E
:1002B0003D4834300068091D08603B48383000680C
:1002C000091D086038483C300068091D0860364840
:1002D00040300068091D086001F028FC30B12D484D
:1002E0001430006800F04F00314908602B48743822
:1002F000006840F47000294974390860BFF34F8FDB
:10030000BFF36F8F2B48006800F0004028B92948E0
:10031000001D006800F0004098B3012026490860E5
:1003200000BF264800680028FBD01520214908603E
:1003300000BF224800680028FBD015211D48001D81
:10034000016000BF1D4800680028FBD000201A494A
:10035000086000BF194800680028FBD000BFBFF349
:100360004F8F0E48F038006800F4E06014490843ED
:10037000001D0A49F0390860BFF34F8F00BF00BF6E
:10038000FEE7FFE7FFF708FF10BD00000DF0ADBA74
:1003900000C00740440200103C050040FCED00E0B6
:1003A0000C010040105600400404001020C500401D
:1003B000E40E00400012001004E5014000E401409A
:1003C0000000FA0513480068012821D100201149D6
:1003D0000860114800681149087011480078401CF5
:1003E0000F4908700D4800780A2807D00B4801789B
:1003F0000B480078401E0B4A115409E00748017869
:1004000007480078401E074A115401200649087029
:1004100070470000082100401825004028220020D5
:1004200029220020762600202A2200200FB4084B23
:1004300010B504A902AA039800F042F8044602A9E4
:10044000002000F06EFA204610BC5DF814FB00009E
:1004500023090200004870473822002002E008C843
:10046000121F08C1002AFAD170477047002001E02E
:1004700001C1121F002AFBD170470000014620294C
:1004800008DA012088400A4A104008B1012070476C
:100490000020FCE7402909DAA1F12000012202FA3C
:1004A00000F008B10120F2E70020F0E70120EEE7BC
:1004B000FC06FFBC00BFEFF31081084672B6704720
:1004C0002DE9FF4F8DB00F460546002606E0252892
:1004D0000BD0DDE90F1290476D1C761C28780028A0
:1004E000F5D111B03046BDE8F08F0024A246A146F8
:1004F0000122EC4900E0044315F8013F203B02FAD9
:1005000003F00842F7D128782A2810D06FF02F0284
:100510002878A0F13001092914D80AEB8A0102EBEE
:10052000410144F0020400EB010A6D1CF0E701CF29
:100530005FEA000A03D544F40054CAF1000A44F00B
:1005400002046D1C28782E2817D115F8010F44F0ED
:1005500004042A280ED06FF02F022878A0F1300171
:1005600009290AD809EB890102EB410100EB0109D5
:100570006D1CF2E757F8049B6D1C28786C280FD08F
:1005800006DC4C2817D068280DD06A2814D104E066
:10059000742810D07A280FD10DE044F400140AE03A
:1005A00044F4801401E044F440146978814202D19B
:1005B00004F580146D1C6D1C2A786E2A1FD00CDC8B
:1005C000632A31D004DC002A8BD0582A11D1A3E051
:1005D000642A68D0692A0CD165E0732A2ED004DC25
:1005E0006F2A73D0702A04D19BE0752A6FD0782AC5
:1005F0006ED01046DDE90F129047761C50E1C4F32F
:100600000250022806D0032809D0042801CF09D0BF
:10061000066045E101CFF117C0E9006140E101CF7B
:1006200006803DE106703BE117F8040B8DF80000F1
:1006300000208DF80100EB46012003E057F804BBD1
:100640004FF0FF3061074FF0000102D40DE008F1D8
:100650000101884649450FDA8045F8DB1BF8081090
:100660000029F4D108E008F1010188468142FADB53
:100670001BF808100029F6D1DDE90F23AAEB0800CA
:100680008146214600F036F9304400EB080604E0CC
:10069000DDE90F121BF8010B9047B8F10108F7D202
:1006A00021464846F7E00A21C4F302534FF0000BFD
:1006B0000891022B04D001CFC117032B09D00AE007
:1006C000FF1D27F00707F7E8020108E032E01FE00E
:1006D00020E000B2C117042B01D140B2C117031EA4
:1006E00071F1000307DA4FF0000CD0EB0C006CEB5B
:1006F00001012D2302E0230504D52B238DF824309E
:10070000012303E0E30701D02023F7E7984658E0F0
:100710000A2110E010210EE010204FF0000B08908D
:100720000CE010214FF0000B44F004044FF00809D6
:10073000089103E008214FF0000B0891C4F3025325
:10074000022B04D001CF0021032B06D006E0FF1DB1
:1007500027F00707F7E8020103E080B2042B00D17D
:10076000C0B24FF0000823072BD5702A07D0DDF860
:1007700020C08CF0100C5CEA0B0C05D00EE040237E
:100780008DF82430012308E050EA010306D030231D
:100790008DF824308DF8252002239846DDF820C0FE
:1007A0008CF0080C5CEA0B0C0BD150EA010301D170
:1007B000630706D530238DF824304FF00108A9F1E6
:1007C0000109582A04D038A20B9208AA0A920BE019
:1007D0003AA2F9E75B46089AFEF79BFE0B9B9B5CEF
:1007E0000A9A521E0A92137050EA0102F2D10A9834
:1007F000ADEB000000F1200B600702D524F480343B
:1008000001E04FF00109D94502DDA9EB0B0000E042
:10081000002000EB0B0141440890AAEB010AE00321
:1008200006D4DDE90F232146504600F063F8064464
:100830004FF0000908E009A911F80900DDE90F12DD
:10084000904709F10109761CC145F4DBE0030CD5A2
:10085000DDE90F232146504600F04CF8064404E041
:10086000DDE90F1230209047761C0899481E089049
:100870000029F5DC08E00A980A990078491C0A91D9
:10088000DDE90F129047761CBBF10001ABF1010BC3
:10089000F1DC21465046DDE90F2300F019F806444B
:1008A0006D1C1BE6092801003031323334353637F0
:1008B00038396162636465660000000030313233AC
:1008C000343536373839414243444546000000004C
:1008D0002DE9F041044600251E461746880404D43D
:1008E00005E039462020B0476D1C641EF9D5284626
:1008F000BDE8F0812DE9F041044600251E469046F2
:10090000C80301D5302700E02027880404D505E07E
:1009100041463846B0476D1C641EF9D52846BDE8EF
:10092000F0810A68531C0B60107070472DE9FC4180
:10093000044688461646002537880020308094F803
:100940002D0058B13A463146404600F00DFB0546B1
:1009500000BF15B12846BDE8FC8100BFA07850B1AA
:100960003A463146404600F05DFA054600BF0DB1FB
:100970002846F0E700BFE07860B1E17848B23B4636
:100980003246414601F0D8FA054600BF0DB128466F
:10099000E1E700BF606868B1616891F900003B461B
:1009A0003246414603F084FA054600BF0DB12846A1
:1009B000D1E700BF208900280EDD43460622022130
:1009C00004F10800CDE9006703F0B8FA054600BF5E
:1009D0000DB12846BFE700BF208A00280EDD434640
:1009E0000722032104F11000CDE9006703F0A6FA05
:1009F000054600BF0DB12846ADE700BF208B00289B
:100A00000EDD43461522142104F11800CDE90067DC
:100A100003F094FA054600BF0DB128469BE700BFDE
:100A2000206A58B13B4632464146206A00F053FFE7
:100A3000054600BF0DB128468DE700BF606A58B17A
:100A40003B4632464146606A01F0C2FE054600BFA1
:100A50000DB128467FE700BF94F82C0000280BDD7D
:100A60003B4632464146204602F028FD054600BF7F
:100A70000DB128466FE700BF207858B13B4632469B
:100A80004146204601F0DFFE054600BF0DB1284675
:100A900061E700BF28465EE70146C87800F0040021
:100AA00008B9072070470020FCE7000070B592B03D
:100AB00006265920ADF80000174902911720ADF81D
:100AC00004003C2103A8FEF7D0FC00208DF80C00A8
:100AD0008DF80F60CDF830D0002103A800F0FAF9AE
:100AE000044600BF254625B100BF284600F0BCF8EB
:100AF00000BF00BF09480021016041608160C16002
:100B0000032006490870002048600872A020488130
:100B10000020888112B070BD282100203C220020D6
:100B200070B50D4873DF044600BF254625B100BFF0
:100B3000284600F099F800BF00BF022000F0A2FB99
:100B4000044600BF254625B100BF284600F08CF8BA
:100B500000BF00BF70BD00003C22002010B504465D
:100B6000022000F077FA10BD10B5002407E0074915
:100B7000096811F83400012102F060F8641C04488F
:100B800000788442F3D3002010BD000090210020A3
:100B9000942100202DE9F84306460C461746052F00
:100BA00002D20720BDE8F88302F04AF938B902F012
:100BB00017F9054600BF0DB12846F3E700BF1648F8
:100BC0000660164804701648076000201549086042
:100BD0001549086015E006EBC40814480068009049
:100BE00098F802008DF8010098F80000104A694654
:100BF00002F07EF8054600BF0DB12846D2E700BFDF
:100C000000BF201EA4F10101CCB2E4D1094A0021A9
:100C1000094800F037F8C5E7902100209421002012
:100C2000982100209C210020A0210020A04102004A
:100C3000112202000D1A02009C41020000BFBFF306
:100C40004F8F0748006800F4E06006490843001D24
:100C500003490860BFF34F8F00BF00BFFEE70000ED
:100C60000CED00E00000FA053EB5044600200090BF
:100C70000190029002946A46002144F20100FFF7BD
:100C8000DDFF3EBD10B503460C4600BF0B48406873
:100C900008B9082010BD00BF0AB90720FAE70BB950
:100CA0000720F7E71868007C08B10820F2E7196808
:100CB000002008744C744A6100BFEBE7A4210020B7
:100CC0002DE9F04107460D4614461E46204600F029
:100CD000030109B9012100E0002111B90720BDE895
:100CE000F0810CB90720FAE702F0A4FA1148066077
:100CF0000020114908704870084685704460002043
:100D00000E4908600E4908700E4908701420FFF75C
:100D100037F807211420FFF76DF81420FFF748F883
:100D2000384602F05DFA02F055FA074908600020E3
:100D3000D5E70000C0210020A4210020AC21002024
:100D4000BC210020BD210020B02100202DE9F04170
:100D500004460E461746254600BF1048406810B9A5
:100D60000820BDE8F08100BF0CB90820F9E7052E86
:100D700001D20720F5E7686908B90820F1E7687C27
:100D8000012801D1304600E0002080463B46424623
:100D90003146284602F090FFE3E70000A42100203E
:100DA00070B50446254600BF0848406808B90820C9
:100DB00070BD00BF0CB1686908B90820F8E70020D1
:100DC00028740221284602F0A6FFF1E7A4210020A2
:100DD00010B50446204602F09FFA10BD70B50446D7
:100DE00025460E488068B0B1ADB9FFF763FB0646F3
:100DF0000A4800680A490860084840684FF0E02146
:100E0000C1F804010020054988601EB900BF62B620
:100E100000BF00BF00BF00BF70BD0000D423002092
:100E200000E100E0F8B505460C4617462088001D95
:100E3000B84201D90C20F8BD684679DF064600BFEC
:100E40000EB13046F7E700BF0320218868542088A0
:100E5000401C20801920218868542088401C208054
:100E600020884119BDF8000003F03DF821880844AE
:100E700020800020DFE7000070B500224FF48031B1
:100E800007480068FFF762FF044600BF254625B10A
:100E900000BF2846FFF7E8FE00BF00BF70BD00009E
:100EA0006041020010B50A4801780520FEF767FD91
:100EB000074841780620FEF762FD05488178072043
:100EC000FEF75DFD0248C1780820FEF758FD10BD11
:100ED000162200202DE9F04192B080460D461F20D9
:100EE00011901090B8F1000F17D04046FFF7D4FDD5
:100EF000044600BF1CB1204612B0BDE8F08100BF1F
:100F000011AA08A94046FFF711FD044600BF0CB125
:100F10002046F1E700BF08AE02E000260020119055
:100F2000ADB1284602F05CFC044600BF0CB120467F
:100F3000E2E700BF10AA69462846FFF7F7FC04461F
:100F400000BF0CB12046D7E700BF6F4602E0002784
:100F500000201090BDF84000C3B2BDF84400C1B2FB
:100F60003A46304672DFC7E72DE9FC4105460C469C
:100F7000174620880930B84202D90C20BDE8FC8110
:100F800068466DDF064600BF0EB13046F6E700BF8B
:100F90000820218868542088401C20801B2021883C
:100FA00068542088401C208020882844DDF80110E7
:100FB0000160BDF8051081802088801D20809DF88B
:100FC0000000400818B900202188685402E0012080
:100FD000218868542088401C20800020CEE7000033
:100FE00070B588B019480068079000BF00235022F0
:100FF000174907A802F0A0FB054600BF2E4626B100
:1010000000BF3046FFF730FE00BF00BF00BF6A469A
:101010000021084602F070FB044600BF254625B1BA
:1010200000BF2846FFF720FE00BF00BF684602F061
:101030004FFB044600BF254625B100BF2846FFF7F9
:1010400013FE00BF00BF08B070BD00006441020085
:101050006C22002010B502460949885C00BF4FF0A1
:10106000A0442146D1F80435012484409C43C1F8B2
:101070000845012484401C40C1F80C4500BF10BD48
:101080006841020010B504460249085D012101F0E3
:101090006FFF10BD6841020010B504460249085DAB
:1010A000002101F065FF10BD6841020010B5014646
:1010B000094B585C00BF4FF0A044234600BFD3F853
:1010C0000445C44004F001040CB1012000E00020FC
:1010D000024682F0010010BD684102007CB5002488
:1010E0000CE00948055D00200090034601221146EE
:1010F0000190284601F0AEFE00BF641C042CF0D322
:1011000000F004F87CBD00006841020010B5002426
:1011100003E02046FFF7B6FF641C042CF9D310BD92
:1011200010B5002403E02046FFF7B6FF641C042C32
:10113000F9D310BD02464FF0FF30002106E0054B09
:101140005B5C934201D1084602E0491C0429F6D3B6
:1011500000BF70476C4102002DE9F04106460F4682
:101160004FF0000800243046FFF7E4FF0446042C4B
:1011700041D227B3012F02D0022F3BD133E004EB41
:101180004400234911F8008004EB440008444078EF
:1011900068B12048006800EB800041001E4A1F48EB
:1011A0000068FFF7D3FD05460DB91B48067004EB38
:1011B0004400174908448078194908551AE017482F
:1011C0000068FFF7EDFD1648005D04EB4401104A8E
:1011D00011448978884205D104EB44001146084443
:1011E00090F8028006E004EB44000949084490F8B6
:1011F000018000BF00BFB8F1000F06D009480068A9
:1012000018B14046074909688847BDE8F0810000E9
:1012100074230020782100208421002078410200DE
:10122000852100208021002030B503460020042BBA
:1012300023D2012A07D1012903D103F10E04E4B21C
:1012400000E00024224679B1012902D0022911D1FF
:1012500004E003EB43040A4D2A550DE003EB43047D
:10126000074D2C44627007E003EB4304044D2C440B
:10127000A27001E0072000BF00E0072030BD0000A1
:101280007423002070B5044600250548007800F05E
:10129000010018B1204600F05FF80546284670BDF1
:1012A0007C2100202DE9F04105460E4690460024A1
:1012B0001F4806601F4805601F48C0F8008005F001
:1012C0000200F8B1002706E0012211463846FFF778
:1012D000ABFF04467F1C042F01D2002CF4D02CB9A4
:1012E000720804211548FFF755FC044614B9FFF7AE
:1012F0003BFC04462CB9124A00211248FFF7C2FCFD
:10130000044600BF05F0010008B1FFF7E7FE2CB965
:101310000D4A00210D48FFF7B5FC04462CB90C4AD4
:1013200001210C48FFF7AEFC04462046BDE8F081E1
:10133000782100207C210020802100207C410200B7
:1013400079160200784102008523020070410200F4
:101350005D0B0200744102002DE9F04104460026B5
:101360000025C048007820B10020BE490870FFF772
:10137000CDFE182C75D2DFE804F00C11123D6895F3
:10138000BFCDD3F0EEEDECEBEAE9E8E7E6E5E4E328
:10139000E2E1FFF7BBFEB44804705FE100BF00204C
:1013A000FFF784FE58B10020FFF76CFE022C02D13B
:1013B0004FF4E16001E04FF47A60054609E0002057
:1013C000FFF76AFE022C01D1C82001E04FF4C8707B
:1013D0000546A54804706420B5FBF0F0A3490968F0
:1013E00000FB01F700223946A1480068FFF7AEFC78
:1013F000064633E10020FFF759FE58B10020FFF701
:1014000041FE032C02D14FF4487001E04FF47A60A2
:10141000054609E00020FFF73FFE032C01D1C8205C
:1014200001E04FF4C87005468F4804706420B5FB96
:10143000F0F08E49096800FB01F7002239468C481C
:101440000068FFF783FC064608E10020FFF72EFE48
:1014500060B10020FFF716FE042C03D14FF47A6030
:1014600002E0FAE04FF47A6005460AE00020FFF758
:1014700013FE042C02D14FF4C87001E04FF4C87081
:101480000546794804706420B5FBF0F07749096897
:1014900000FB01F70022394675480068FFF756FC4B
:1014A0000646DBE00020FFF701FE50B10020FFF709
:1014B000E9FD052C01D1C82001E04FF47A60054612
:1014C00009E00020FFF7E8FD052C01D1C82001E06C
:1014D0004FF4C8700546644804706420B5FBF0F012
:1014E0006249096800FB01F700223946604800683C
:1014F000FFF72CFC0646B1E00020FFF7ABFD5A4891
:1015000004705A480022016859480068FFF71EFC21
:101510000646A3E00020FFF7BFFD534804709DE09E
:10152000012050490870FFF795FD504800220168DE
:101530004F480068FFF70AFC06468FE088E086E027
:101540007AE071E068E062E03EE03CE03AE038E0FA
:1015500036E030E01FE010E0FFE70120414908706D
:10156000FFF778FD4148006800EB80010022404809
:101570000068FFF7EBFB064670E001203949087070
:10158000FFF768FD39480022016839480068FFF715
:10159000DDFB064662E0012032490870FFF75AFD84
:1015A0003248006800EB8001002231480068FFF7F4
:1015B000CDFB064652E0FFF7B3FD2B4804704DE02B
:1015C00000BF00BF00BF00BF2A480068FFF7E8FB6C
:1015D0000646C4F11105B5B1AEB9012D0FD9C82029
:1015E00068436421B0FBF1F02049096800FB01F772
:1015F000002239461F480068FFF7A8FB0646022074
:10160000FFF74AFD02E00220FFF73CFD26E0FFF76E
:101610007DFD1548047021E0FFF778FD0020FFF7FD
:101620003BFD1148047019E0FFF770FD0120FFF742
:1016300033FD0D48047011E0FFF768FD0020FFF74F
:101640002BFD0120FFF728FD0748047006E000BFCE
:10165000FFF766FD0448047000E000BF00BF30469D
:10166000BDE8F08175210020742100207821002040
:10167000704102007441020010B504462078022136
:10168000FFF76AFD10BD00004FF0FF31054A42F838
:101690002010082804DBFF23A0F108015032535426
:1016A00070470000E02300202DE9F04F03460C4670
:1016B0004FF0FF390AB1002000E0082084460AB14B
:1016C000082000E00C208046614624E0154850F8D0
:1016D0002100401CF0B91D460846274616464FFA21
:1016E00080FBDFF840A00AF1300A0AF805B0DFF805
:1016F00034A04AF820704EB94FFA85FBA0F1080AD1
:10170000DFF820E00EF1500E0EF80AB000BF4FFADD
:1017100081F902E0491C4145D8D300BF4846BDE8E5
:10172000F08F0000E023002001460148405670473A
:101730001024002008B500200090684600F0ADFCA1
:101740009DF80000C0B99DF80100A8B99DF80200FD
:1017500090B99DF8030078B900210520FEF70FF934
:1017600000210620FEF70BF900210720FEF707F9FC
:1017700000210820FEF703F908BD000070B50546FA
:101780000DB9094C01E0084C083409E0204600F08E
:10179000F3FD064606B904E028467168884700BF95
:1017A000F4E700BF70BD0000A823002010B5044678
:1017B0004FF4806101EB0421491C88B21021FEF72F
:1017C000DEF800BF4FF4806101EB0421491C88B2B0
:1017D000FEF7BEF80028F5D14FF4806101EB04213B
:1017E000891C88B2FF21FEF7CAF810BD2DE9F04729
:1017F00082461F480068002836D01D4800680568EA
:1018000001F0E8FC07461B4804682146384602F010
:1018100097F9C61C1848007808B901F0EDFCAE42F3
:1018200001D2284600E03046044424F07F4420469C
:1018300001F0CAFC01F0CEFC80463946404602F079
:101840007FF900F103093946204602F079F9814514
:1018500009D901F0BFFC814601F0B6FC2F2001F050
:10186000CBF802F0C5FA01E001F0E4FCBDE8F08736
:10187000AC210020B0210020C421002001460888AE
:10188000062808DB0888B0F5486F06DD08884FF6A3
:10189000FF72904201D0072070474888062808DB75
:1018A0004888B0F5486F06DD48884FF6FF729042D1
:1018B00001D00720F0E708884FF6FF72904208D069
:1018C0004888904205D008884A88904201DD072068
:1018D000E2E70020E0E72DE9F04106460D46144618
:1018E00098462088801D404502D90C20BDE8F08133
:1018F0003046FFF7C3FF074600BF0FB13846F5E794
:1019000000BF0520218868542088401C20801220B8
:10191000218868542088401C2080228851193088F2
:1019200002F0E1FA21880844208022885119708849
:1019300002F0D9FA2188084420800020D6E72DE95A
:10194000F04104460D4616462878FF2808D16878ED
:10195000FF2805D1A878FF2802D1E878FF2808D011
:10196000287828B9687818B9A87808B9E87800B153
:101970000EB9002747E001272978BA0202EB0422BA
:101980000C3290B2FDF7FBFF6978BA0202EB042239
:101990000D3290B2FDF7F3FFA978BA0202EB0422F0
:1019A0000E3290B2FDF7EBFFE978BA0202EB0422A7
:1019B0000F3290B2FDF7E3FF310ABA0202EB0422C4
:1019C000103290B2FDF7DBFFF1B2BA0202EB042253
:1019D000113290B2FDF7D3FFFFF7ACFEB90201EB75
:1019E0000421491C88B20421FDF7C9FF00BF4FF450
:1019F000806101EB0421491C88B2FDF7A9FF002892
:101A0000F5D1FFF74FFA3846BDE8F0812DE9F047F0
:101A10008146002532E01C48006800EBC5042178AF
:101A2000012000FA01F619480068304020B3174839
:101A30000068B04315490860207801F0C7F90746EF
:101A4000217801208840124909680840217807FA66
:101A500001F188420FD16078012800D100E0002018
:101A6000784080F00108606820B108F0FF0120781C
:101A70006268904700BF00BF681CC5B20548007887
:101A80008542C8DBBDE8F08790210020A02100201E
:101A90009C2100209421002010B504464FF4806161
:101AA00001EB0421491C88B20821FDF768FF00BF43
:101AB0004FF4806101EB0421491C88B2FDF748FF17
:101AC0000028F5D110BD0000014614480078144AE2
:101AD000127890421DD011480078401C0F4A1070B7
:101AE00010460078022801D1002010700D480B4AE2
:101AF000127850F8220008600B4A086812681044F7
:101B0000094A10601046006820F07F4010600120F4
:101B100070470020086000BFFAE70000BC210020E9
:101B2000BD210020B4210020B021002013480078FE
:101B3000062820D11148001D007800F00F00D0B910
:101B40000E480830007800F0F000302801D1012064
:101B500070470A480830007800F0F000402801D1B2
:101B60000120F5E705480830007800F0F000502823
:101B700001D10120ECE70020EAE70000E00F00F0CF
:101B80000A48007806280ED10848001D007800F0A9
:101B90000F0040B905480830007800F0F000302808
:101BA00001D1012070470020FCE70000E00F00F0A9
:101BB00013480078062820D11148001D007800F055
:101BC0000F00D0B90E480830007800F0F00030283F
:101BD00001D1012070470A480830007800F0F00079
:101BE000402801D10120F5E705480830007800F0D1
:101BF000F000502801D10120ECE70020EAE70000C6
:101C0000E00F00F00A48007806280ED10848001DB1
:101C1000007800F00F0040B905480830007800F067
:101C2000F000302801D1012070470020FCE70000BF
:101C3000E00F00F013480078062820D11148001D5D
:101C4000007800F00F00D0B90E480830007800F09E
:101C5000F000302801D1012070470A480830007890
:101C600000F0F000402801D10120F5E705480830D8
:101C7000007800F0F000502801D10120ECE70020AE
:101C8000EAE70000E00F00F00A48007806280ED1CD
:101C90000848001D007800F00F0040B905480830E2
:101CA000007800F0F000302801D1012070470020BA
:101CB000FCE70000E00F00F00A48007806280ED18B
:101CC0000848001D007800F00F0040B905480830B2
:101CD000007800F0F000302801D10120704700208A
:101CE000FCE70000E00F00F00A48007806280ED15B
:101CF0000848001D007800F00F0040B90548083082
:101D0000007800F0F000502801D101207047002039
:101D1000FCE70000E00F00F01FB542A0FEF716FA46
:101D200000F0B6FA4FF47A7000F006FE0121084682
:101D300001F05EFD4FF47A7000F0FEFD414801F0C5
:101D40003EFC4048083001F004FC3E48001D01F014
:101D500049FC3C48801F01F017FC642000F0ECFDBA
:101D6000394800F09AF9394800F0AAF9384800F0EB
:101D700035F9384800F076F937483249891FD1F8EB
:101D8000121001602F48801FC08A344908802E48F5
:101D9000C0782D498978CDE900102B484378027826
:101DA0002FA13548FEF742FB3348FEF7CFF927480D
:101DB000C07826498978CDE9001024484378027814
:101DC0002EA12D48FEF732FB2B48FEF7BFF9204825
:101DD000C0781F498978CDE900101D484378027802
:101DE0002CA12548FEF722FB2348FEF7AFF919483E
:101DF000407918490979174AD278164B9B78CDE972
:101E00000032CDE9021013484378027826A11A481F
:101E1000FEF70CFB1848FEF799F92BA0FEF796F990
:101E20001FBD00000D0A436F6E6669672073746101
:101E3000746963204950206D6F64652E2E2E0D0A43
:101E40000000000046210020582100205C210020D5
:101E500060210020642100201B220020202200207D
:101E60000D0A4D592049503A2025642E25642E250F
:101E7000642E25640D0A00003626002053554220AA
:101E80004E45543A2025642E25642E25642E256463
:101E90000D0A000047573A2025642E25642E25643C
:101EA0002E25640D0A0000004D41433A202532588A
:101EB0003A2532583A2532583A2532583A2532587E
:101EC0003A2532580D0A00000D0A573531303020BE
:101ED000636F6E66696775726564210D0A000000A4
:101EE000F0B5034600241FE0124E306806689E429B
:101EF00003D90668F61A06601AE006689B1B066896
:101F00003444002606600B4E35680A4FC6693E60B1
:101F1000C66846B10E1926F07F464660C6688660E0
:101F20001668C661156000BF024800680028DBD152
:101F300000BFF0BDAC21002030B504461088C01CA5
:101F4000984201D90C2030BD0220158848551088D0
:101F5000401C10800120158848551088401C1080B6
:101F600015884C551088401C10800020EBE70000BD
:101F700010B5002821D0114B0022001F196803E082
:101F8000814203D80A4649680029F9D152B1136841
:101F9000841A9C4204D1006818441060104602E084
:101FA000506000E0186039B102680B1A934203D107
:101FB0000B681A4402604968416010BD302200205D
:101FC00070B5042077DF044600BF254625B100BF69
:101FD0002846FEF749FE00BF00BF70BD10B504469D
:101FE0000120FDF7B5FC20700220FDF7B1FC607008
:101FF0000320FDF7ADFCA0700420FDF7A9FCE07004
:1020000010BD00000146024830F811007047000082
:102010000E2200200146024830F8110070470000EF
:10202000EE2100200146024830F811007047000000
:10203000FE2100200146024830F8110070470000E0
:10204000062200200146024830F8110070470000C7
:10205000E62100200146024830F8110070470000D8
:10206000F621002010B504460920FDF771FC207010
:102070000A20FDF76DFC60700B20FDF769FCA07075
:102080000C20FDF765FCE0700D20FDF761FC207170
:102090000E20FDF75DFC607110BD10B504460F20E9
:1020A000FDF756FC20701020FDF752FC60701120E7
:1020B000FDF74EFCA0701220FDF74AFCE07010BD49
:1020C00010B504460520FDF743FC20700620FDF7FF
:1020D0003FFC60700720FDF73BFCA0700820FDF777
:1020E00037FCE07010BD70B504460025002600BF27
:1020F0004FF4806101EB0421263188B2FDF728FC02
:1021000006464FF4806101EB0421273188B2FDF7C8
:102110001FFC00EB062086B29EB14FF4806101EBFC
:102120000421263188B2FDF713FC05464FF4806187
:1021300001EB0421273188B2FDF70AFC00EB0520F2
:1021400085B2B542D4D1284670BD10B504464FF4CF
:10215000806101EB0421C91C88B2FDF7F9FB10BDB9
:1021600070B504460025002600BF4FF4806101EBE6
:102170000421203188B2FDF7EBFB06464FF4806165
:1021800001EB0421213188B2FDF7E2FB00EB0620D0
:1021900086B29EB14FF4806101EB0421203188B2F8
:1021A000FDF7D6FB05464FF4806101EB0421213198
:1021B00088B2FDF7CDFB00EB052085B2B542D4D146
:1021C000284670BD10B5044601200D49086000BFC7
:1021D0000C4800780028FBD00120094948600A48D3
:1021E00002780A492046FDF727F940210748FDF704
:1021F0003CF90020034908700349087010BD000035
:10220000002000402A2200202922002076260020DB
:102210002DE9F04105460F46012000FA05F4184863
:102220000068FEF7BDFD06460EB1BDE8F081154819
:1022300000682040E0B9284600F0C8FD28B11248E7
:10224000006820431049086004E00F480068A0437C
:102250000D4908600B48006820430A4908600022C5
:102260000A48016806480068FEF770FD064604E06B
:1022700004480068A0430349086000BFD5E7000098
:102280009C410200A02100209C21002098210020D8
:1022900010B5802001F070F900240AE04FF480614D
:1022A00001EB0421891C88B2FF21FDF768FB601C4B
:1022B000C4B2042CF2DBFF211520FDF760FB10BD3A
:1022C000F8B52748007800B9F8BD00252548006812
:1022D00008B9012000E00020064600BFDDB9224811
:1022E000007800B1F0E7684648DF0446052C01D1CC
:1022F00001250FE024B100BF2046FEF7B5FC09E040
:10230000009800F063FC1948006818B1174900985C
:102310000968884700BFDEB91348007800B1D3E7E9
:1023200013480088009069461248006861DF04463F
:10233000052C01D101260AE024B100BF2046FEF79A
:1023400093FC04E00B48006806490968884700BF11
:102350000DB106B100E0C1E700BF00BFB4E7000067
:10236000CC210020D8210020CD210020DC2100201C
:10237000D4210020D02100200146086808B102685D
:102380000A60704710B504460448007800F0010068
:1023900018B103480078FEF7DFFF10BD7C21002054
:1023A0007421002070B51C4804781C48066827E09A
:1023B0001948406804EB440100EBC105601CC4B23D
:1023C00015488078A04200D100242878022802D045
:1023D000032812D103E0686801F038FC0EE007E042
:1023E0000E490868002101740C4AC169116000BFE0
:1023F0000A4800680028F3D100E000BF00BF00BF1A
:1024000005484078A042D3D104480068B04201D0CA
:10241000012070BD0020FCE7A4210020AC21002099
:102420002DE9F0410546374807685AE015B12C46BA
:10243000E56929E034494968334A127802EB4202DF
:1024400001EBC20030490978491C2F4A117011462E
:1024500009789278914202D100212B4A1170446888
:102460000178012901D1217C01B13AE081686160E4
:10247000C168A1600169E1604169A16123490978EE
:1024800009B10021616000BF214960680968401AF4
:1024900020F07F401F49884208D21D4960680968C2
:1024A00001F04EFBA168084420600FE01848616805
:1024B000006801F045FB0646A068B04203D9A06859
:1024C000801B206001E00020206000BF00206060D1
:1024D000A060012020740020E061204601F082FB12
:1024E00000BF002DA2D108480078074949788842EA
:1024F0009CD104480068B84202D00120BDE8F081B8
:102500000020FBE7AC210020A4210020C5210020F1
:10251000B0210020FFFF7F00122001210A46002386
:102520001D461E4600BF4FF0A04C674641EA420CD4
:102530004CEA830C4CEA052C4CEA064807F5E06CA3
:102540004CF8208000BF00BFFDF7AAFC01F086FC1C
:102550004FF4E130FDF734FD4B48807960B14A48D3
:10256000807A48B14848807B30B14748807C18B1B8
:102570004548C08A00281BD144A0FDF7E7FD424929
:10258000891D49A0FDF758F93F490A314CA0FDF7D4
:10259000ABF93D490E3150A0FDF7E6F83A4912314A
:1025A00052A0FDF715F93849163159A0FDF778F911
:1025B000FFF7B2FB5E4802885E495F480078FDF78E
:1025C000F5F94FF47A7000F0B7F95CA35BA25EA155
:1025D00059480078FDF70AFA002240F6CD41012063
:1025E000FEF760FE044600BF254625B100BF284621
:1025F000FEF73AFB00BF00BFFEF7F2FCFFF7E0FC7E
:10260000FEF754FAFEF78CFAFEF736FC00BF00F036
:1026100017FD4FA0FDF77AF800281AD0FDF792F8C1
:102620004548007801F0AAF918A0FDF78FFD16497A
:10263000891D1DA0FDF700F913490A3120A0FDF7FF
:1026400053F911490E3124A0FDF78EF8FFF764FB12
:10265000DDE741A0FDF75AF80028D8D0FDF772F861
:102660003548007801F08AF9074912311FA0FDF7BB
:10267000AFF80549163126A0FDF712F938A0FDF78D
:1026800065FDFFF749FBC2E7402100200D0A436FBB
:102690006E666967757265204E6574207365747423
:1026A000696E6773210D0A000D0A456E746572200C
:1026B000495020616464726573733A200000000021
:1026C0000D0A456E746572207375626E6574206DB7
:1026D00061736B3A200000000D0A456E746572202C
:1026E000676174657761793A200000000D0A456ED4
:1026F0007465722072656D6F74652073657276659E
:102700007220495020616464726573733A2000003E
:102710000D0A456E7465722072656D6F7465207365
:10272000657276657220706F72743A200000000046
:10273000202200201B2200206B210020526F6D619F
:102740006E31393839210000313233343536610089
:102750002D6E6574636667002D7463706366670031
:102760000D0A0000F0B50B30154D20F007010024D4
:10277000144A0FE003688B420BD38B4205D95E1AD3
:1027800043184768C3E9006700E04368136002C06C
:1027900004E0021D10680028ECD12046002802D178
:1027A000286808B10020F0BD064A07481060074AB3
:1027B000121A22F00702C0E9002401202860D7E79E
:1027C0003422002030220020BC260020B846002001
:1027D0002DE9F04105460E4614469846A888871C08
:1027E0002088801C3844404502D90C20BDE8F08187
:1027F000FE2F01D90C20F9E7781C2188705420881D
:10280000401C2080FF20218870542088401C20809C
:1028100022889119288801F066FB218808442080CD
:10282000A88800280DDDA86808B90720DEE7AA8877
:1028300023889819A968FCF7FFFD2088A988084417
:1028400020800020D2E72DE9F84F05460F461446B8
:1028500098462878012804D1687810B90720BDE887
:10286000F88F2088801C404508D82878012807D197
:102870002088801C69780844404501D90C20EEE787
:102880002088A8EB0000801E86B200962188891C53
:10289000C81969467DDF814600BFB9F1000F01D03C
:1028A0004846DCE700BF2878022806D1BDF80000C2
:1028B000B04202DC4FF0090A0BE04FF0080A28781A
:1028C000012805D16878B04202DC6878009000E009
:1028D0000096BDF80000FE2801D90C20BFE7BDF826
:1028E0000000401C218878542088401C20802088CB
:1028F00007F800A02088401C20802088BDF8001028
:10290000084420800020AAE701464FF0804040584C
:1029100008B1012070470020FCE708B500224FF005
:1029200080410A500958009100BF08BD0149086064
:10293000704700000803004010B504464FF47A7158
:1029400004FB01F000F00AF810BD10B504464FF486
:102950007A7104FB01F000F09DF810BD00B97047DA
:1029600000BF00BF00BF00BF00BF00BF00BF00BF6F
:1029700000BF1F4909681F4A914200D130E000BFE3
:1029800000BF00BF00BF00BF00BF00BF00BF00BF4F
:1029900000BF00BF00BF00BF00BF00BF00BF00BF3F
:1029A00000BF00BF00BF00BF00BF00BF00BF00BF2F
:1029B00000BF00BF00BF00BF00BF00BF00BF00BF1F
:1029C00000BF00BF00BF00BF00BF00BF00BF00BF0F
:1029D00000BF00BF00BF00BF00BF00BF00BF00BFFF
:1029E00001460139084600D0BBE700BFB7E7000049
:1029F0008C2100200024F40000B9704700BF00BF04
:102A000000BF00BF00BF00BF00BF00BF00BF1F4925
:102A100009681F4A914200D130E000BF00BF00BFEB
:102A200000BF00BF00BF00BF00BF00BF00BF00BFAE
:102A300000BF00BF00BF00BF00BF00BF00BF00BF9E
:102A400000BF00BF00BF00BF00BF00BF00BF00BF8E
:102A500000BF00BF00BF00BF00BF00BF00BF00BF7E
:102A600000BF00BF00BF00BF00BF00BF00BF00BF6E
:102A700000BF00BF00BF00BF00BF00BF014601395B
:102A8000084600D0BBE700BFB7E700008C2100205C
:102A90000024F40000B9704700BF00BF00BF00BFB2
:102AA00000BF00BF00BF00BF00BF1F4909681F4A29
:102AB000914200D130E000BF00BF00BF00BF00BFA7
:102AC00000BF00BF00BF00BF00BF00BF00BF00BF0E
:102AD00000BF00BF00BF00BF00BF00BF00BF00BFFE
:102AE00000BF00BF00BF00BF00BF00BF00BF00BFEE
:102AF00000BF00BF00BF00BF00BF00BF00BF00BFDE
:102B000000BF00BF00BF00BF00BF00BF00BF00BFCD
:102B100000BF00BF00BF00BF01460139084600D01A
:102B2000BBE700BFB7E700008C2100200024F400C1
:102B300010B500241648007808B1852425E000204F
:102B40001349886048600861C86000BF00BF410940
:102B5000890001F1E021D1F80011012282401140E9
:102B600009B1012100E0002119B90721002000F07E
:102B700035F800BF00F02EFE20B90120054908609D
:102B800000BF00BF012002490870204610BD0000B0
:102B9000A02300201805004008B5002000906846DA
:102BA000FEF716F90848007808B9FFF7C1FF064894
:102BB000C068401C0449C860012088709DF800006E
:102BC000FEF70CF908BD0000A023002010B5044654
:102BD00014B90020FEF7D2FD10BD000070B50B4601
:102BE00001461A46002907DA5407260E104C01F058
:102BF0000F052D1F665503E05407250E0D4C655437
:102C000000BF00BF00F01F02012191400A4A4409A1
:102C100042F8241000BF00BF00F01F0201219140C4
:102C20004209920002F1E022C2F8001100BF70BD1B
:102C300018ED00E000E400E080E200E02DE9F0475C
:102C400007460E46384600F0D9F9E0B13846FEF79F
:102C50006BFD083824490D5CAC11032C08D13846B3
:102C600000F064F908B1032000E00220804605E08E
:102C7000012C01D1022000E0032080464146384665
:102C800000F030F92DE0384600F0C4F948B338467A
:102C9000FEF74AFD0446A00000F580701FFA80F898
:102CA0002046124951F8201041F001020F4941F825
:102CB000202000BF404600F07FF98EB13846FEF775
:102CC00033FD05460848503850F825008146B9F1D3
:102CD000000F04D0012101FA04F000F07BF900BFDD
:102CE00000BFBDE8F08700003024002010650040E0
:102CF0002DE9FC4704460E4617464FF000082046D3
:102D000000F06EF910B14FF0080855E0F27839463E
:102D10002046FEF7C9FC0546681C002849D0B0785B
:102D200080B100BF00BF4FF0A042104600F5E06246
:102D300052F8242022F0020100F5E06242F824104B
:102D400000BF0CE096F80190002000904B46024630
:102D500001460190204600F091F800BF00BFF078D6
:102D6000D0B13078164951F82510164A1140144A4E
:102D700042F82510114651F825104FF4F85202EA96
:102D800004224FF4403303EA00431A4311430C4A30
:102D900042F8251000BF0EE0A5F108000A49085CC2
:102DA000317840EA811042B2A5F1080006490A5480
:102DB00001E04FF0040800BF4046BDE8FC8700007A
:102DC00010650040FFE0FCFF3024002010B50446F1
:102DD000204600F0ABF808B1012010BD0020FCE750
:102DE00070B5164890F8540010B10825284670BDFB
:102DF000002404E0204600F01DF9601CC4B2202C21
:102E0000F8DB002404E02046FEF73EFC601CC4B260
:102E10000C2CF8DB07210620FFF7E0FE4FF4BE7014
:102E200000F0CAF84FF0004000F0D4F80120034948
:102E300081F8540000252846D9E70000E02300204F
:102E4000034890F8540008B1012070470020FCE7C7
:102E5000E0230020F0B5DDE9054500BF4FF0A047B5
:102E60003E4641EA420747EA830747EA042747EA22
:102E7000054C06F5E06747F820C0F0BDF0B5DDE988
:102E8000054500BF4FF0A0473E4641EA420747EAEA
:102E9000830747EA042747EA054C06F5E06747F849
:102EA00020C0F0BDF0B5DDE9054500BF4FF0A047FB
:102EB0003E4641EA420747EA830747EA042747EAD2
:102EC000054C06F5E06747F820C0F0BD1CB5044688
:102ED0000020009003460122114601902046FFF792
:102EE000E1FF1CBD10B50A4600BF4FF0A0431946D4
:102EF00001F5E06353F8203023F4403401F5E0633A
:102F000043F8204053F8203043EA024401F5E063DF
:102F100043F8204010BD00BF4FF0A0410A460123F6
:102F200003FA00F1C2F80C1500BF7047014600BF5C
:102F30004FF0A040024600BFD2F81005C84000F094
:102F40000100704700BF4FF0A0410A46012303FA79
:102F500000F1C2F8081500BF704700BF4FF0A04154
:102F60000A46012303FA00F1C2F8081500BF7047B2
:102F700010B561B900BF00BF4FF0A0421346012455
:102F800004FA00F2C3F80C2500BF00BF0CE000BF3C
:102F900000BF4FF0A0421346012404FA00F2C3F828
:102FA000082500BF00BF00BF10BD0000014601485A
:102FB000084470470060004038B504462046FFF7DB
:102FC000F5FF002101602046FFF7F0FF0068009048
:102FD00000BF38BD0149086070470000046300402D
:102FE000014605484056012202EBE07008B101207D
:102FF00070470020FCE70000102400200146044830
:103000004056082801DB012070470020FCE7000043
:1030100010240020014606484056002805DB0448DD
:103020004056082801DA012070470020FCE7000024
:1030300010240020FF2201490A5470471024002068
:1030400070B53EDF044600BF254625B100BF2846C7
:10305000FDF70AFE00BF00BF70BD000010B50446BA
:103060002046FFF772F8172809D003DCA0B1162814
:1030700016D108E01A2807D01C2811D105E001203C
:10308000084908700CE00BE00AE02046FEF704FD5A
:1030900000200449087003E000200249087000BFC6
:1030A00000BF10BD222200202DE9F047824689464C
:1030B00016461C465046FEF7ADFF00EA090850468A
:1030C000FEF7A0FF00EB08055046FEF7ABFF08EB4C
:1030D0000401884217DA5046FEF7A4FFA0EB08006F
:1030E00087B2A8B23A46314600F0BDFF3E44E01B2D
:1030F00087B25046FEF786FF054628463A463146D7
:1031000000F0B1FF04E0A8B22246314600F0ABFF68
:10311000BDE8F0872DE9F04104460E46154600272C
:10312000002D19DD2A463146204600F018F84FF4EC
:10313000806101EB0421491C88B24021FCF71FFC8F
:1031400000BF4FF4806101EB0421491C88B2FCF7F9
:10315000FFFB0028F5D12F4638B2BDE8F0812DE9FC
:10316000F04104460F4616464FF4806101EB0421FE
:10317000283188B2FCF7ECFB05464FF4806101EB87
:103180000421293188B2FCF7E3FB00EB052085B26E
:1031900033463A4629462046FFF786FFA81985B2EE
:1031A000290A4FF4806202EB0422283290B2FCF725
:1031B000E6FBE9B24FF4806202EB0422293290B2BE
:1031C000FCF7DDFBBDE8F0810149086070470000B5
:1031D0004015014001480068704700000415014097
:1031E00010B504460348046007211120FCF702FED5
:1031F00010BD00000815014010B54FF480300A4999
:1032000008600A49C1F804031120FCF7B9FD112038
:10321000FCF7CEFD0120054908602F20FFF7ECFBED
:1032200001200349087010BD441301400010014003
:10323000C421002010B51120012181400E4A43090C
:1032400042F8231000BF4FF480300C4908600C494D
:10325000C1F80803012048602F20FFF7CDFB0120B3
:10326000074988600020074908602F20FFF7C4FB4A
:1032700000200549087010BD80E100E048130140BE
:1032800000100140B0210020C421002010B50446E8
:103290002046FDF7F3F810B942F2010010BD2146B7
:1032A000002906DA194A01F00F031B1FD25C5211E4
:1032B00002E0174A525C52111046082801D300213F
:1032C00009E028B1012803D0042801D0052801D144
:1032D000002100E0012111B942F20200DEE70D48B1
:1032E000806868B160090B4951F8200004F01F02A2
:1032F0000121914008436109064A42F8210002E099
:103300002046FCF760FD0020C8E7000018ED00E053
:1033100000E400E0D423002070B50446FDF7CAF8AD
:10332000054614488068D8B90120124988601248BF
:103330000068124908400F49086010484FF0E0212A
:10334000C1F880010C488038D0F8840009494860F1
:103350004FF0FF310848001D01600020207001E09F
:10336000012020701DB900BF62B600BF00BF002061
:1033700070BD0000D423002080E100E0FC06FFBC0B
:103380002DE9F04704468846154600270026B14639
:103390002046FEF75FFEA84204DA2046FEF75AFEFA
:1033A000064600E02E4600BF2046FEF7D9FE8146C5
:1033B0004FF4806101EB0421C91C88B2FCF7C8FA04
:1033C0000746172F03D01C2F01D0002601E0B1457E
:1033D000EADB00BF32464146204600F03AF84FF49F
:1033E000806101EB0421491C88B22021FCF7C7FA57
:1033F00000BF4FF4806101EB0421491C88B2FCF747
:10340000A7FA0028F5D10EE04FF4806101EB04210A
:10341000C91C88B2FCF79CFA28B92046FEF7C6F909
:103420000020BDE8F0874FF4806101EB0421891C86
:1034300088B2FCF78DFA00F010001028E4D1810169
:1034400001EB0421891C88B21021FCF798FA304660
:10345000E7E72DE9F04104460F4616464FF4806138
:1034600001EB0421243188B2FCF772FA05464FF4CF
:10347000806101EB0421253188B2FCF769FA00EB89
:10348000052085B233462A463946204600F034FEF0
:10349000A81985B2290A4FF4806202EB0422243273
:1034A00090B2FCF76CFAE9B24FF4806202EB0422AE
:1034B000253290B2FCF763FABDE8F0812DE9F047C0
:1034C00007460E4614469A46B86A10B90720BDE86A
:1034D000F0874FF0000836E008EB4801B86A00EBCF
:1034E0008105A88800F10209B9F1FE0F01D90C206D
:1034F000EDE709F10100218870542088401C2080EC
:103500001620218870542088401C20802288911920
:10351000288800F0E8FC218808442080A88800283A
:103520000DDDA86808B90720D1E7AA882388981973
:10353000A968FBF781FF2088A9880844208008F14A
:10354000010000F0FF0897F82C004045C4DC002083
:10355000BDE710B5044621780120FCF710FA617828
:103560000220FCF70CFAA1780320FCF708FAE178B6
:103570000420FCF704FA10BD10B5044621464FF4B0
:103580000040FCF7FCF910BD10B504462178092075
:10359000FCF7F5F961780A20FCF7F1F9A1780B2026
:1035A000FCF7EDF9E1780C20FCF7E9F921790D2021
:1035B000FCF7E5F961790E20FCF7E1F910BD10B5D3
:1035C000044621780F20FCF7DAF961781020FCF727
:1035D000D6F9A1781120FCF7D2F9E1781220FCF796
:1035E000CEF910BD10B50446207805490870607802
:1035F0004870A0788870E078C870FDF753FC10BD63
:10360000162200202DE9F04104460D461646984644
:10361000012D07D0022D05D0032D03D0042D01D09C
:10362000052D4FD12046FEF7C1F845EA08014FF4B9
:10363000806202EB042290B2FCF7A1F996B1310A44
:103640004FF4806202EB0422121D90B2FCF797F94E
:10365000F1B24FF4806202EB0422521D90B2FCF7EB
:103660008EF919E019480088401C184908800A465C
:103670001288110A4FF4806202EB0422121D90B2EC
:10368000FCF77DF9114A11784FF4806202EB0422B5
:10369000521D90B2FCF773F94FF4806101EB0421E5
:1036A000491C88B20121FCF76AF900BF4FF4806120
:1036B00001EB0421491C88B2FCF74AF90028F5D136
:1036C000012700E000273846BDE8F081E021002016
:1036D0007CB50446074800900098019001A9204657
:1036E00060DF0546DDE90010884200D100BF2846B2
:1036F0007CBD00002821002070B505460E4614460A
:103700001C212046FBF7B1FE012020800021A16191
:103710000020207526726572607A08B10121A172BD
:10372000002070BD70B504460D4616463246294647
:103730002046FDF783FA70BD2DE9F04781460C461F
:103740001746984614B90720BDE8F087204600F0D8
:10375000030109B9012100E0002109B90720F3E7BD
:1037600017480460174807801748C0F800800020F9
:103770004109890001F1E021D1F8001101228240C4
:10378000114009B1012100E000210E4600BF16B131
:103790000020FCF701FB0D49484610DF05462DB11E
:1037A00016B10020FCF70FFB2846CDE701200849A1
:1037B0000870FFF7F1F91620FFF768FDC4E7000075
:1037C000D0210020D4210020C8210020253702006C
:1037D000CC2100200148007870470000CC21002057
:1037E0000146C87808B1072070470020FCE70000B8
:1037F0002DE9F04105460E460027B84629461B2014
:10380000FCF7BDF831461A20FCF7B9F84FF48040B8
:10381000544908804FF4C0405349088000249CE07C
:103820000020524921F81400514921F81400B7F53D
:10383000005F35DA600045FA00F000F0030030B1B7
:1038400001280ED0022816D0032828D11DE04FF4FD
:103850008060464921F81400401E464921F81400B2
:103860001DE04FF40060414921F81400401E414919
:1038700021F8140013E04FF480503C4921F8140063
:10388000401E3C4921F8140009E04FF4005037492C
:1038900021F81400401E374921F8140000BF00BF72
:1038A000B8F5005F35DA600046FA00F000F003007A
:1038B00030B101280ED0022816D0032828D11DE0EF
:1038C0004FF480602A4921F81400401E2A4921F84B
:1038D00014001DE04FF40060254921F81400401E3B
:1038E000254921F8140013E04FF48050204921F8B5
:1038F0001400401E204921F8140009E04FF4005044
:103900001B4921F81400401E1B4921F8140000BF78
:1039100000BF164830F81400384407B2144830F895
:10392000140040440FFA80F8ACB1601E0D4931F824
:1039300010100E4A32F8100008440A4921F8140009
:10394000601E094931F81010094A32F81000084485
:10395000054921F81400601C04B2042CFFF660AF86
:10396000BDE8F081062200200E220020F621002072
:10397000FE210020E6210020EE21002010B50446A3
:103980002046FEF789F810BD7FB505460C46164661
:103990002846FFF763FB1C480078002832D100233B
:1039A000324601212846FFF72DFE18B917A0FCF773
:1039B000CDFB27E01CA0FCF7C9FBE078A17862787A
:1039C000CDE90206CDE9002123782A461DA125482C
:1039D000FCF72CFD2348FCF7B9FB40212148FBF7FD
:1039E00044FD324621462846FDF7A9FF28B91EA00E
:1039F000FCF7ACFB002004B070BD21A0FCF7A6FBD7
:103A00000120F8E700BFF6E7222200200D0A4661F8
:103A1000696C20746F2063726561746520736F63D5
:103A20006B65740D0A0000000D0A436F6E6E6563CE
:103A300074696E6720746F207365727665722E2EBE
:103A40002E0D0A00534F434B3A2025642049503A2B
:103A50002025642E25642E25642E25643A25640DC8
:103A60000A000000362600200D0A436F6E6E656363
:103A700074696E67206661696C6564210D0A0000D7
:103A80000D0A5375636365737366756C6C79206397
:103A90006F6E6E6563746564210D0A0070B504462F
:103AA0000D4616462046FFF7D9FA1548007818B398
:103AB0004FF4806101EB0421891C88B2FBF748FFB9
:103AC00000F00400B0B1FF212846FBF7CEFC2046F1
:103AD000FEF709FB061E11DDFF2E00DDFF26324634
:103AE00029462046FFF716FB86B206A0FCF72EFB00
:103AF000012070BD0020FCE70020FAE700BFF8E7D6
:103B000022220020446174612072656365697665D4
:103B1000640D0A0070B504460D4616462046FFF7B0
:103B20009DFA0648007830B1324629462046FFF714
:103B300027FC012070BD0020FCE7000022220020AD
:103B40000246501A20F07F407047000070B50446CE
:103B50000B48006878B10A4AD4E905011268904719
:103B6000054600BF2E4626B100BF3046FDF77CF863
:103B700000BF00BF02E0D4E90510884770BD000017
:103B8000C02100202DE9FC41002001900F4804686D
:103B90000F4807686846FDF797FF0546FEF702FCE9
:103BA00006462DB101AA21460098FEF799F9012693
:103BB0000198FEF735FC00B1012616B13846FDF735
:103BC00015FE002003490870BDE8FC81B0210020EB
:103BD000AC210020C521002010B51420FCF7FEF810
:103BE00010BD000010B51849096811B916490860E0
:103BF00028E0154A01681268126891420DD81249EE
:103C0000096809680268891A0F4A126811600E492A
:103C10000968C1610C49086014E002680A4C236815
:103C2000216803E00C68121B0B46C96911B10C68CE
:103C30009442F7D311B10C68A41A0C600260C16100
:103C4000D86100BF10BD0000AC21002030B5024695
:103C5000154C2168084604E0904200D103E001467B
:103C6000C0690028F8D100BF00B930BD814210D131
:103C70000D4C2468E4690C4D2C602C46246844B932
:103C800001240A4DAC600024094D2C600124094D2B
:103C90002C700368C469CC61C86910B104681C4405
:103CA000046000BFE1E70000AC21002000100140EB
:103CB000B0210020C52100202DE9FC4705460E4615
:103CC000174698464FF00009002000906846FDF71F
:103CD0007FF801A800F00EF9044614B94FF004096A
:103CE0000DE0012020706560FFF774FAA060E660C7
:103CF0002761C4F814809DF8040000F019F99DF8BC
:103D00000000FDF76BF8B9F1000F01D1FFF764FF78
:103D10004846BDE8FC872DE9FC4105460E460027D4
:103D2000002000906846FDF753F801A800F0E2F883
:103D300004460CB9042705E0267065609DF8040070
:103D400000F0F6F89DF80000FDF748F80FB9FFF70E
:103D500043FF3846BDE8FC812DE9F0411F4800686B
:103D6000002838D00027FFF735FA80461C48016844
:103D70004046FFF7E5FE06461848056810E028684B
:103D8000B04200D90EE02868361A286807442C464D
:103D9000ED69207C20B1002020742046FFF7D6FE7C
:103DA000002DECD100BF0F4800780F4909788842F8
:103DB00009D10D480078401CC0B20B490870022898
:103DC00001D10020087009480749097840F821709E
:103DD000FFF702FF00BFBDE8F0810000AC2100202A
:103DE000B0210020BC210020BD210020B4210020F2
:103DF00010B51120FBF7F2FF10BD00001FB50446FF
:103E0000122000BF4FF0A0431946D1F8042501232A
:103E100083409343C1F80835012383401340C1F820
:103E20000C3500BF08480078401C07490870084658
:103E3000027806A16846FCF7F9FA6A4605A1064829
:103E40000078FBF709FF1FBD73210020434E543D4E
:103E5000256400006E7266006B21002070B500BF03
:103E60000023104A05211846FCF72AFF054600BF2B
:103E70002E4626B100BF3046FCF7F6FE00BF00BF5D
:103E800000BF094A01210948FCF7FCFE044600BFB7
:103E9000254625B100BF2846FCF7E6FE00BF00BF5F
:103EA00070BD0000BC220020FD3D02006041020008
:103EB00030B504461088C01C984201D90C2030BD92
:103EC0000220158848551088401C10800A2015884B
:103ED00048551088401C108015884C551088401C8F
:103EE00010800020EBE702460A70100A487002209A
:103EF0007047000010B502460C484078401CC1B223
:103F00000A488078884200D1002108480078884219
:103F100001D1002010BD117004484068034C647842
:103F200004EB440400EBC4031846F3E7A42100208B
:103F30000149487070470000A42100202DE9FC478A
:103F40008046894615469A46DDE90A6753460222AD
:103F500049464046CDE9006700F017F8044600BF27
:103F600014B12046BDE8FC8700BF53461022294605
:103F70004046CDE9006700F008F8044600BF0CB1E8
:103F80002046EFE700BF0020ECE72DE9FF5F064683
:103F90008B4696461D460E9C4FF0000820880390E5
:103FA00000274AE0706800EB87000068019000225B
:103FB00002A901A865DF824600BFBAF1000F03D055
:103FC000504604B0BDE8F09F00BF9DF80800704562
:103FD00032D1B8F1000F01D0002000E002200090A3
:103FE00020889DF808100144009801440F988142F0
:103FF00001DD0C20E5E7B8F1000F0AD12088401C54
:104000002080208805F800B02088401C20804FF0D8
:1040100001082088421902A901A865DF824600BF75
:10402000BAF1000F01D05046CBE700BF20889DF8C1
:1040300008100844208000BF7F1C3088B842B1DCE3
:10404000B8F1000F0DD021880398401C081A1FFA00
:1040500080F9B9F1FF0F01DD0C20B2E7039805F8F4
:1040600000900020ADE72DE9F04105460F461646C9
:10407000002400BF17E01620FEF74DFF0F20FBF7CE
:104080006BFF2919C1F30720FBF766FF2919C8B296
:10409000FBF762FF0020FBF75FFF38551620FEF7A5
:1040A00051FF601C84B2B442E5DB3046BDE8F081CC
:1040B0002DE9F04105460F461646002400BF16E0E4
:1040C0001620FEF728FFF020FBF746FF2919C1F361
:1040D0000720FBF741FF2919C8B2FBF73DFF385D08
:1040E000FBF73AFF1620FEF72DFF601C84B2B442A6
:1040F000E6DB3046BDE8F0812DE9F0478246884690
:1041000091461C465046FDF79DFF00EA09075046C0
:10411000FDF790FFC5195046FDF79CFF39198842FD
:1041200016DA5046FDF796FFC01B86B2A8B232469B
:104130004146FFF7BDFFB044A01B86B25046FDF7D5
:1041400079FF0546284632464146FFF7B1FF04E0B5
:10415000A8B222464146FFF7ABFFBDE8F08700005A
:104160004C22002001000007111213140D0E0F1035
:104170003423002054230020802300200D0003005E
:10418000591102000E000300591102000F00030034
:10419000591102001000030059110200B42300203D
:1041A000030000000040404040404040404041414A
:1041B00041414140404040404040404040404040FC
:1041C0004040404040050202020202020202020296
:1041D0000202020202202020202020202020200293
:1041E0000202020202029090909090901010101023
:1041F00010101010101010101010101010101010BF
:104200000202020202028888888888880808080852
:10421000080808080808080808080808080808081E
:104220000202020240000000A54102004C420200CE
:1042300028210020140100005C04020060430200F9
:104240003C2200207C4400006C0402000215011294
:10425000233445566778899AABBCCDDEEFF0010276
:104260000304C3008A26F41AD093C0A80103FFFFF9
:10427000FF00C0A80101C0A8017F5B07000000008B
:10428000000000000000000000000000000001002D
:10429000000102030A6B0C00000000000000000097
:1042A000000000000000000000000000000000000E
:1042B0000090D0030000000000000000000000009B
:1042C00000000000000000000000000000000000EE
:1042D00000000000000000000000000000000000DE
:1042E00000000000000000000000000000000000CE
:1042F00000000000000000000000000000000000BE
:1043000000000000000000000000000000000000AD
:10431000000000000000000000000000000000009D
:10432000000000000000000000000000000000008D
:10433000000000000000000000000000000000007D
:10434000000000000000000000000000000000006D
:10435000000000000000000000000000000000005D
:040000050001F40101
:00000001FF
