:020000040000FA
:1000000060240020410100005B0100005D01000050
:1000100000000000000000000000000000000000E0
:10002000000000000000000000000000D5000000FB
:10003000000000000000000001010000630100005A
:10004000CD07000065010000690B0000650100009C
:10005000650100000000000075030000650100005C
:1000600065010000650100006501000065010000F8
:1000700065010000650100006501000065010000E8
:100080006501000021080000650100006501000015
:1000900065010000650100006501000065010000C8
:1000A0006501000065010000000000000000000084
:1000B0000000000000000000000000000000000040
:1000C0000348854600F0A0F800480047B51100003D
:1000D000602400200848006880F30888174B1968DE
:1000E0000868203080F30988022080F314883FBC20
:1000F000AE4662B600BD0000000000000000000037
:10010000EFF309800D4B1A6820381060F0C04446A8
:100110004D4656465F46F0C008B501F056FE0CBC91
:10012000116808681030F0C8A046A946B246BB4620
:1001300080F309882038F0C8184700001800002014
:100140000321094802680A430260084802680A431A
:1001500002600748804707480047FEE7FEE7FEE7E2
:10016000FEE7FEE7FEE700002405004054050040DE
:10017000050B0000C100000003460B439B0703D0A2
:1001800009E008C9121F08C0042AFAD203E00B785C
:100190000370401C491C521EF9D27047D2B201E0D4
:1001A0000270401C491EFBD270470022F6E710B5D2
:1001B00013460A4604461946FFF7F0FF204610BDD5
:1001C00030B505462A460B4610781C78521C5B1C3D
:1001D000002801D0A042F7D0002C03D0002802D084
:1001E0006D1CEFE7284630BD421C0178401C0029F9
:1001F000FBD1801A704703460A780270401C491CE4
:10020000002AF9D118467047064C0125064E05E034
:10021000E36807CC2B430C3C98471034B442F7D327
:10022000FFF752FF3C2B00005C2B0000F8B50446A2
:100230000D461646012779022046FFF7B6FF01203A
:100240002B490860284600F037FC2AA000F034FC57
:100250001FE00023284A19462848006802F014F8D5
:10026000012810D126480088401C2549088025A176
:100270002648FFF7A5FF00280BD025A1002000F09D
:1002800061FB00270BE027A1002000F05BFB0027AB
:1002900005E031461D48FFF793FF0028D9D000BF85
:1002A000012013494860002C0CD029461748FFF75D
:1002B00087FF002806D02348028814492046FFF70C
:1002C0005BFF03E020A1002000F03CFB012149027C
:1002D0000E48FFF76AFF012149022548FFF765FF35
:1002E000002018490880064908803846F8BD0000FB
:1002F000002000400D0A0000307500006C00002056
:10030000720000204552524F520000005C1A00203B
:100310004C4F473A204154206572726F72210D0A8A
:10032000000000004C4F473A2052544F5320736551
:100330006D6170686F72652074696D656F75742189
:100340000D0A0000700000204C4F473A20457272A1
:100350006F7220636D64206F72206E756C6C20620A
:1003600061636B20706F696E7465720D0A00000026
:100370005C180020F0B58FB000200E900D90FF208B
:1003800001300C900126002416E00C9801F08EF844
:1003900000280BD000BF924840683040002805D0AC
:1003A0000C9801F07BF80E9830430E9076000C9874
:1003B000001D80B20C90641C042CE6D3FF207D301D
:1003C00001F074F800280DD0FF207D3001F066F8B0
:1003D0000121C9070E9808430E900DAA01210020A3
:1003E00001F03EF80E980007000F00282CD00126DF
:1003F000002427E00E983040002821D000BF794823
:10040000512109014018A10040581F21090208404C
:10041000000A074600BF7348512109014018A10096
:100420004058032109040840000C0B90204600F0BE
:1004300037FD0546002D02D038460B99A84700BF6E
:100440007600641C042CD5D30E98C00FC00700287A
:1004500076D000200B900A90002505E00020C043D4
:10046000A90009AA50506D1C002DF7D000BF002034
:100470000B9000247AE05C48005D0890C021089849
:100480008843074658480057401C00286DD009A9EA
:10049000384600F0E1FE002867D0C02108980840E7
:1004A00080110790384600F003FD059000F0F8FC3D
:1004B00006900698002802D10798032854D107987F
:1004C000032815D10AA803970290039FF908019108
:1004D000039F7907490F039101990298415C012319
:1004E000039A93401943CAB20199425400BF00BF16
:1004F00000BF00BF052109070846B9000722120204
:1005000082185158032212041140090C05910DA9BB
:10051000384600F0A1FE04900498002802D0059807
:10052000022805D0049800281DD1059803281AD167
:100530000798032810D10598022802D1032001E072
:100540004BE0022003903846039900F048FF0B98D7
:10055000401CC0B20B9000BF0698002803D038465C
:10056000069A0799904700BF00BF641C042C82D3F1
:100570000B9800282CD0012708AA0121002000F0A8
:100580006FFF00250AE0A80008A90858A9000DAAD5
:100590005158884201D0002702E06D1C002DF2D096
:1005A00000BF002F02D000200B9010E000250CE0CF
:1005B000A80008A90858A9000DAA5050A8000AA927
:1005C0000858A90009AA50506D1C002DF0D000BF9A
:1005D0000B98002800D04AE700BF0FB0F0BD000024
:1005E0000063004000600040CC13002010B50028DC
:1005F00019DA1A4A03071B0F083B9B089B00D258C5
:100600008307DC0EFF23A3409A438B071B0E84074E
:10061000E40EA3401A43114B0407240F083CA4081E
:10062000A4001A5118E00E4A03231B02D2188308B3
:100630009B00D2588307DC0EFF23A3409A438B070D
:100640001B0E8407E40EA3401A43054B0324240227
:100650001B198408A4001A5110BD00001CED00E015
:1006600000E100E010B5002819DA1A4A03071B0F51
:10067000083B9B089B00D2588307DC0EFF23A34056
:100680009A438B071B0E8407E40EA3401A43114BB9
:100690000407240F083CA408A4001A5118E00E4ACD
:1006A00003231B02D21883089B00D2588307DC0E59
:1006B000FF23A3409A438B071B0E8407E40EA3403D
:1006C0001A43054B032424021B198408A4001A5161
:1006D00010BD00001CED00E000E100E010B50028B6
:1006E00019DA1A4A03071B0F083B9B089B00D258D4
:1006F0008307DC0EFF23A3409A438B071B0E84075E
:10070000E40EA3401A43114B0407240F083CA4082D
:10071000A4001A5118E00E4A03231B02D2188308C2
:100720009B00D2588307DC0EFF23A3409A438B071C
:100730001B0E8407E40EA3401A43054B0324240236
:100740001B198408A4001A5110BD00001CED00E024
:1007500000E100E010B5002819DA1A4A03071B0F60
:10076000083B9B089B00D2588307DC0EFF23A34065
:100770009A438B071B0E8407E40EA3401A43114BC8
:100780000407240F083CA408A4001A5118E00E4ADC
:1007900003231B02D21883089B00D2588307DC0E68
:1007A000FF23A3409A438B071B0E8407E40EA3404C
:1007B0001A43054B032424021B198408A4001A5170
:1007C00010BD00001CED00E000E100E010B5FF20CE
:1007D000013000F04CFD00280CD0FF20013000F06B
:1007E00051FD012000F054FD01200C49487000200B
:1007F00000F064FBFF20053000F039FD00280BD02D
:10080000FF20053000F03EFD022000F041FD0120F8
:100810000249887000F052FB10BD000078130020E0
:1008200038B5FF210131154800F04BFEFF21413161
:10083000124800F046FE00BF0021009100BFEFF318
:1008400010810846002801D172B602E001216A46F3
:100850001170009C00BF01F08BFF002804D0012024
:1008600000070749486040BF204600906946097864
:10087000002900D162B600BF38BD00000010014061
:1008800000ED00E0F8B504460D46164600BF0B48E3
:100890000078002801D100F0B1F900BF00200090DD
:1008A00000F092FA32462946204600F009F8074641
:1008B00000BF002000F08DFA3846F8BDE417002094
:1008C000F7B582B007461646039801901820784382
:1008D0001B494018009000984069002804D0012866
:1008E00011D0022826D11EE0009800F0BFF905467D
:1008F000B54201D2002405E0344632460199009801
:1009000000F0FFF918E0009800F0B0F90546B54294
:1009100001D2284600E0304604462246019900985C
:1009200000F0EFF908E032460199009800F0ACF9C8
:10093000044601E0002400BF00BF204605B0F0BD22
:10094000FC17002070B505460C462046FFF74CFC0E
:100950000646324621462846FFF794FF70BD000048
:1009600010B504460B20424948610920C8600020A8
:100970003F494031C862E1210902601A8C4245D0EA
:1009800015DC3C49601A8C4234D009DC3A48201A04
:1009900022D03949401A24D04900401A4FD125E0CD
:1009A0003449401A2AD04900401A48D12AE0334A33
:1009B000811A904236D006DC3149401A2AD04900CB
:1009C000401A3CD12AE0E120C002081A2ED02D495D
:1009D0004018002833D12DE04F20000324494862FD
:1009E0002DE09D2000032249486228E02648204946
:1009F000486224E025481E49486220E024481C49FA
:100A000048621CE023481A49486218E02248184905
:100A1000486214E021481649486210E02048144911
:100A200048620CE01F481249486208E01E4810491D
:100A3000486204E0012000070D49486200BF00BF82
:100A40000020C043194988600420486008490860B4
:100A5000022001218140164A116000BF0621FFF7E4
:100A600079FE022001218140124A116000BF10BDB1
:100A70000025004080250000B0040000002706008B
:100A800000E10000C0CDFEFF00B0130000502700C1
:100A900000A04E0000509D0000F0EB0000E0D701E8
:100AA00000B0AF0300705F0700D0BE0E002300400F
:100AB00080E200E000E100E010B50346002404E01D
:100AC000185D00F007F8601C84B2185D0028F7D1AB
:100AD00010BD00000121084A91600849C86100BFAB
:100AE0000749C9690029FBD00021054AD1610121CC
:100AF000014AD160704700000020004000250040FE
:100B00000021004010B500F021FA002805D010485F
:100B100010494860C8131049886100F0FBF90028AB
:100B200002D001200D49886000F046FA00280ED05E
:100B30000B480068012807D00A480949086000BF2F
:100B4000074800680128FBD1C0200549486110BD55
:100B5000DFFF07C000050040006C004000060040B9
:100B600000EC06407593000010B51C488068012811
:100B700033D10020194988601948806919491A4AF7
:100B800012888854184801880088401C164A108032
:100B900001204002814202DD00201146088001222E
:100BA000520210491148FFF7E7FA1149114800684D
:100BB00001F0E9FC0E48006801280ED10C480068DD
:100BC00000280AD000BF012000070B49486040BF41
:100BD000BFF34F8FBFF36F8F00BF10BD00210040E8
:100BE000002500405C180020700000205C1A0020E6
:100BF000740000206C00002000ED00E010B5124CE5
:100C000002202061606111A0A0611349E16101210E
:100C1000890221620021A1626162E1620BA0A064ED
:100C20000E49E164102121650021A1656165E1653E
:100C30000BA1E01DFFF7DFFA0AA12046FFF7DBFA60
:100C40002020A07110BD0000E41700205465726DD3
:100C5000696E616C00000000D4130020D4170020DE
:100C600052545400534547474552000010B50146C1
:100C70000A69CB689A4204D88C68641EE41AA018EA
:100C800001E0D41A601E10BDF7B582B004461746C5
:100C900000200190E56800BF206900900098A842FC
:100CA00003D90098401B461E04E0A1680098281A4A
:100CB000401C0E1AA068401BB04201D9304601E02A
:100CC000A068401B0646BE4201D2304600E03846CE
:100CD00006466168481932460399FFF74DFA0198B4
:100CE00080190190039880190390BF1BAD19A0686B
:100CF000A84200D10025E560002FCDD1019805B0B4
:100D0000F0BDF7B582B004461546E668A068871BBB
:100D1000AF4208D9616888192A460399FFF72CFA6F
:100D20007019E06010E0019761688819019A0399D1
:100D3000FFF722FAE81B0190039AD1196068019A23
:100D4000FFF71AFA0198E06005B0F0BD30B47446C0
:100D5000641E2578641CAB4204D3635D5B00E3181A
:100D600030BC18471D46F8E702E008C8121F08C14A
:100D7000002AFAD170477047002001E001C1121F1C
:100D8000002AFBD17047000000BFBFF34F8F04481B
:100D90000449C860BFF34F8F00BF00BFFEE70000EB
:100DA0000400FA0500ED00E03EB504460020009086
:100DB0000190029002946A4600210248FFF7E4FF86
:100DC0003EBD00000140000000B5024600F006F8FC
:100DD00000BD00B5024600F00BF800BD72B6034836
:100DE0000068401C0149086070470000680000204E
:100DF00005480068401E044908600846006800284D
:100E000000D162B6704700006800002030B502468D
:100E10000C49885C00BF05242407214624150C19C1
:100E20006368012484409C4305252D024D19AC6064
:100E3000012484401C4005252D024D19EC6000BFA3
:100E400030BD0000EC2A000010B504460249085DE0
:100E5000002100F0E4FA10BDEC2A00007CB500246B
:100E60000CE00948055D0020009003460122114670
:100E70000190284600F09EFA00BF641C022CF0D3BB
:100E800000F004F87CBD0000EC2A000010B500243E
:100E900003E02046FFF7D8FF641C022CF9D310BDF5
:100EA00001468800014A1058704700008C1300204A
:100EB0000146014840567047AC13002070B5054606
:100EC000002D01D1094C01E0084C08340AE020460D
:100ED00000F09CF80646002E00D104E02846716818
:100EE000884700BFF3E700BF70BD000080130020FB
:100EF000012006490968002901D0002004E00449C6
:100F00000968002900D00020704700001413002059
:100F1000400000200C48008CC0B2012812D10A48C1
:100F2000808C0007000F00280CD10748806AF02150
:100F30000840402806D10448C06A0840002801D172
:100F4000012070470020FCE7C00F00F01948008C1A
:100F5000C0B201282CD11748808C0007000F002850
:100F600026D11448806AF0210840002806D1114893
:100F7000C06A0840002801D1012070470D48806AEE
:100F8000F0210840102806D10A48C06A084000280D
:100F900001D10120F1E70748806AF021084030289C
:100FA00006D10448C06A0840002801D10120E4E7C6
:100FB0000020E2E7C00F00F01348008CC0B2012807
:100FC0001FD11148808C0007000F002819D10E484E
:100FD000806AF0210840A02806D10B48C06A08406A
:100FE000002801D1012070470748806AF02108409D
:100FF000D02806D10448C06A0840002801D1012049
:10100000F1E70020EFE70000C00F00F0014608689C
:10101000002801D002680A607047026803E08A4233
:1010200000D170471268002AF9D10368002B01D063
:10103000036800E000230B60016000BFF1E70000DF
:101040003AA23BA13C48FFF7F1F8002807D03A4903
:101050000020FFF777FC39A10020FFF773FC7D200B
:10106000C00000F09FFF31A235A13348FFF7DEF842
:10107000002807D030490020FFF764FC2FA1002092
:10108000FFF760FC29A22FA12B48FFF7CFF800281B
:1010900007D029490020FFF755FC28A10020FFF7C1
:1010A00051FC22A229A12448FFF7C0F8002807D04C
:1010B00021490020FFF746FC20A10020FFF742FC59
:1010C0001AA225A11C48FFF7B1F8002807D01A4939
:1010D0000020FFF737FC19A10020FFF733FC13A213
:1010E00025A11548FFF7A2F8002807D012490020D3
:1010F000FFF728FC11A10020FFF724FC0BA221A17F
:101100000D48FFF793F8002807D00B490020FFF7A0
:1011100019FC0AA10020FFF715FC05E00020FFF7ED
:1011200075FEC82000F03EFFF8E700004F4B0000BE
:1011300041542B5253540000780000200D0A000047
:101140004154000041542B474D52000041542B4361
:10115000574C41500000000041542B43574A415026
:101160003D2264642D777274222C22626F72612D8D
:10117000626F72613034220041542B43494653520E
:101180000000000041542B50494E473D2231393276
:101190002E3136382E312E312200000010B5FF20BE
:1011A000053000F06FF8022000F078F8082000F019
:1011B0007BF810BD1FB500F07DF8044600BF254642
:1011C000002D04D000BF2846FFF7EEFD00BF00BF92
:1011D000FFF744FEFFF75AFEE1204002FFF7C0FB95
:1011E00011A10020FFF7AEFB03220021012001F036
:1011F00025F8134908600020124A02230290009348
:10120000019203900346FF222D320FA1104801F0F6
:101210001BFA10480069042108430E49086100F0D8
:1012200077FF00BFFEE700004C4F473A2053797329
:1012300074656D2073746172746564210D0A000019
:101240006C000020000000204C45443000000000ED
:101250004110000000ED00E030B502460B46D40816
:101260005207520F012090401D5D284030BD0146BD
:101270000120800708180068002801D0012070476D
:101280000020FCE7002101229207821811607047BC
:101290000149886070470000000300400149486030
:1012A000704700000003004001218A078218116086
:1012B0007047000010B5002414480078002801D0C1
:1012C000852421E000201149886048600861C860D9
:1012D00000BF00BF410989000D4A89180968012231
:1012E00082401140002901D0012100E000210029A5
:1012F00003D10321002000F041F800BF012005497F
:10130000886100BF01490870204610BD7813002095
:1013100000E100E00005004010B504461648807862
:10132000002810D0002C02D00120616888470020DE
:10133000FFF74AFD1048C068401C0F49C8600020F4
:10134000FFF747FD17E00020FFF73EFD002C04D01B
:10135000214609481030FFF760FE0748C0680028A2
:1013600001D1FFF71BFF0448C068401C0249C86058
:101370000020FFF72EFD10BD7813002070B5044645
:101380000D4629462046FFF7A9F900BFE106C90E20
:10139000012088400549086000BF00BFE106C90E72
:1013A000012088400249086000BF70BD80E200E073
:1013B00000E100E0F0B500BF05252D072C465500E3
:1013C0000D439E003543059E36023543069E360486
:1013D0003543860007273F02E719BD51F0BD30B500
:1013E0000A4600BF05231B07194683000724240271
:1013F0000C19E35803242404A343840007252D0279
:101400004D192B518300072424020C19E3581404AE
:101410002343840007252D024D192B5130BD10B5F3
:1014200000290DD100BF00BF05221207134601227B
:101430008240052424021C19E26000BF00BF0DE0B9
:1014400000BF00BF05221207134601228240052477
:1014500024021C19A26000BF00BF00BF10BD000025
:1014600078B50B46094C24680094014609E08D00CC
:101470006E46745905252D0265192D691560121DDA
:10148000491CC4188C42F2D878BD0000F42A000030
:1014900001460148081870470060004010B5044636
:1014A0002046FFF7F5FF0021016010BD10B504468E
:1014B0002046FFF7EDFF0068012800D110BD002095
:1014C000FCE700224250704703221202821891600A
:1014D0007047032212028218516070470122425065
:1014E0007047000010B504460E48006844600E487E
:1014F0000068844207D20B480168091D0B48006848
:1015000000F016FC0CE007480168091D0848006857
:1015100000F00EFC07480068844201D205480460D0
:1015200010BD000018000020300000202000002026
:101530001C0000204C000020F8B505460F46002F87
:1015400003D1A80000F060FB00E038460646002EFC
:101550000BD0482000F058FB0446002C01D0266335
:1015600004E0304600F028FC00E00024002C04D009
:10157000A900A522206BFEF711FE2046F8BD000051
:1015800010B500F0FDFB1148006800281BD1104881
:1015900000F0BEFB0F4800F0BBFB0D480E49086091
:1015A0000C480E49086000221021202000F046FE61
:1015B0000649086008460068002804D008A10348CE
:1015C000006800F0BBFC00F0E7FB10BD5C000020F1
:1015D0005013002064130020540000205800002005
:1015E000546D72510000000070B525E000F0C6FD9A
:1015F00014480068002801D1012000E000200546C1
:1016000001F0AEF9002D17D100F0BAFB0D48C0680B
:10161000C468201D00F068FB0B480068401E0A49A2
:1016200008600A480068401E0849086000F0B4FBE2
:10163000204600F065F800BF044800680028D5D1B6
:1016400070BD0000281300202C0000202400002082
:1016500070B504460D46206C00280ED0216CE06861
:101660004018E0606168E068884201D32068E0606B
:101670002846226CE168FEF77FFD70BDF8B5044690
:101680000E4615460027206C002809D12068002846
:1016900031D1606801F0F2F80746002060602AE06E
:1016A000002D0FD13146226CA068FEF765FD216C3C
:1016B000A0684018A0606168A06888421BD32068B9
:1016C000A06018E03146226CE068FEF755FD216C01
:1016D000E068401AE0602168E068884203D2216C2B
:1016E0006068401AE060022D05D1A06B002802D08E
:1016F000A06B401EA063A06B401CA0633846F8BDE1
:1017000010B50446206B00F057FB204600F054FB58
:1017100010BD000009490968C96A002901D00020EC
:101720000AE007490968012901D9002004E00549B8
:101730000968054A1268881A7047000018000020DE
:10174000881200204C000020300000200146094A89
:1017500012681268002A01D1012200E000220A600A
:101760000A68002A04D1034A1268D268106800E0AF
:10177000002070475400002000BFFFF735FF0C48E1
:101780000068012801D900F0CBFBFFF7C3FF044636
:10179000022C0BD300F0F2FCFFF7BCFF0446022C36
:1017A00002D3204600F054FB01F0DAF8E5E7000030
:1017B00088120020F8B504460F461546002608E0BA
:1017C000B95D204634308155B85D002800D102E073
:1017D000761C042EF4D300BF002137200155052DBF
:1017E00000D30425E562A5630020E063201D00F01E
:1017F0009CFA2046183000F098FA24610520401B1E
:10180000A061646200202064002144200155F8BDDD
:1018100010B5002406E0142161430E4A881800F038
:1018200077FA641C052CF6D30B4800F071FA0B48CC
:1018300000F06EFA0A4800F06BFA0A4800F068FA05
:10184000094800F065FA0448084908600348084957
:10185000086010BD88120020EC1200200013002048
:1018600014130020281300203C1300201C0000202B
:1018700020000020F8B504460D4616461F460020FD
:10188000009065602461B5420CD8F01BA1698842C4
:1018900002D30120009011E0211D0948006800F0EA
:1018A00047FA0BE0BE4204D2BD4202D301200090B1
:1018B00004E0211D0348006800F03AFA0098F8BDE2
:1018C000580000205400002070B5054600F058FA7A
:1018D000A86B002801D1012400E0002400F05CFA8C
:1018E000204670BD70B5054600F04AFAA86BE96B5A
:1018F000884201D1012400E0002400F04DFA204686
:1019000070BD0000F8B505460E4610480068C06876
:10191000C468201D00F0E8F9E069012812D1A0692F
:1019200041192B4632462046FFF7A4FF012809D172
:10193000002003462A4601460090204601F0A2F806
:10194000074600BF2046616A8847F8BD5400002062
:10195000F0B587B059E00398002805DA04AF3A687B
:10196000B9687868904700BF039800284DDB059C54
:101970006069002801D1012000E00020002802D188
:10198000201D00F0B1F902A800F090F80546039878
:101990000300FFF7DBF90A0A06082729340709289C
:1019A0002A3800BF00BF00BF00BF0498A269811899
:1019B00003462A462046FFF75DFF012811D1204645
:1019C000616A8847E06901280BD1002000900498E3
:1019D000A169421800231946204601F053F8064633
:1019E00000BF11E000BF0FE000BF0498A061A06934
:1019F00041192B462A462046FFF73CFF04E02046CB
:101A000000F0DAF900E000BF00BF00231A4603A986
:101A10000348006800F038FC00289CD107B0F0BDF6
:101A20005C000020F8B504460E4600F0A7FB6846AF
:101A300000F03CF805460098002816D1002E08D189
:101A4000AC4206D800F08CFF29462046FFF75AFF2B
:101A50000DE0611B0648006800F086FA00F080FF88
:101A6000002804D100F05CFA01E000F079FFF8BD35
:101A70005C0000200B4909680968002901D1012197
:101A800000E00021002904D00021C943064A11606A
:101A900006E004490968C968C868034A41681160DA
:101AA000704700001C0000204C00002070B5044668
:101AB00000F058FE054607480068854204D200F051
:101AC0000BF80120206001E0002020600148056043
:101AD000284670BD64000020FEB526E01C48006862
:101AE000C06805681A480068C068C468201D00F016
:101AF000FBF82046616A8847E069012815D1A06992
:101B00004619AE4207D966602461211D104800685D
:101B100000F00EF909E0002003462A460146009035
:101B2000204600F0AFFF019000BF09480068006840
:101B3000002801D1012000E000200028CED0044878
:101B40000768044800680249086002480760FEBD53
:101B5000540000205800002000BF72B600BF00BF34
:101B6000FEE708B500BF6846FFF7F0FD04462046D3
:101B70000099FFF757FFFFF7EBFEF4E710B50446B7
:101B800000F0FEF814E0606A002801D1012000E0B6
:101B90000020002808D12046243000F09FFE0028B5
:101BA00003D000F01DFA00E005E0A06C401EA06428
:101BB000A06C0028E7DC00BF0020C043A06400F058
:101BC000EBF800F0DDF814E02069002801D10120D5
:101BD00000E0002000280BD12046103000F07EFEEF
:101BE000002801D000F0FCF9606C401E606400E049
:101BF00002E0606C0028E7DC00BF0020C0436064A6
:101C000000F0CAF810BD000070B50446002560075A
:101C1000400F002804D06007400F0821081A04195B
:101C200000F0ACFA11480068002804D11048C00840
:101C3000C0000E4908600F48006800190E4988422C
:101C400010D20C48006800190A490968884209D96D
:101C500006480068074909684518064800680019E1
:101C60000449086000F07CFE284670BD100000208A
:101C7000800200200C000020F80F000006480068D9
:101C8000002806D00449096808463C30C96B491C45
:101C900001600148006870471800002008B5001F67
:101CA00000230093064B1B680093009B0360001FFA
:101CB0000160001F034B036014380260203808BD28
:101CC000F02A0000591B000008B50020009000BF5A
:101CD000EFF310800146002901D172B602E0012025
:101CE0006A461070009808BD01460A694B6888680A
:101CF00098608B68486858605068884201D188684D
:101D00005060002008611068401E10601068704725
:101D10000146083141600021C94381600146083114
:101D2000C1600161002101607047002101617047BD
:101D300010B502460B685C1C002C01D1106907E04D
:101D40001046083000E04068446824689C42FAD994
:101D500044684C604C68A160886041600A61146806
:101D6000641C146010BD42684A6093688B6093687D
:101D700059609160086103685B1C03607047000054
:101D800000BF72B600BF03480068401C01490860EC
:101D9000704700001400002006480068401E0549F6
:101DA000086008460068002803D100BF62B600BF83
:101DB00000BF704714000020704708B500906946C6
:101DC0000978002900D162B608BD38B500BF0021EE
:101DD000009100BFEFF310810846002801D172B6D0
:101DE00002E001216A461170009C00BF00F0CEF9AC
:101DF0002046009069460978002900D162B600BFEC
:101E000038BD000010B50020FFF786FA20200E49EB
:101E1000052212028918886000BF01210A48FFF7D5
:101E200058FB08210848FFF759FB00210648FFF737
:101E300055FB0F211120FEF715FC112001218140D7
:101E4000024A116000BF10BD0010014000E100E037
:101E5000FEB504462F48844200D9044600BF72B63E
:101E600000BF00BF2C48052109024018456800BF8B
:101E7000FFF73EF8002849D028190002000A009018
:101E800001212548FFF720FB23480021009A8B0001
:101E90001526B6018619F25000BFFF214131FFF728
:101EA00010FB012109041C48FFF713FBBFF34F8F00
:101EB0000194019C002C05D000BF20BF174800688A
:101EC0000028FAD0012109041348FFF7FDFA00BFEA
:101ED000114805210902401840680746FF210131D9
:101EE0000D48FFF7EEFA01210B48FFF7F2FABD4269
:101EF00002D9012000063F187E1BA64200D92646C3
:101F0000002E02D0304600F031F900BF00BF62B6AB
:101F100000BFFEBDFDFFFF000010014000E200E039
:101F200000BF012000070449486040BFBFF34F8F46
:101F3000BFF36F8F00BF704700ED00E010B50246A1
:101F400000200BE0C300074CE358002B05D1C30071
:101F5000E150C3001B195A6002E0401C0228F1D373
:101F600000BF10BD7812002070B505460E462C4605
:101F7000FFF706FF606C401C002800D16064A06C75
:101F8000401C002800D1A064FFF706FFA06B0028CA
:101F900004D131462046243000F04EF82046FFF7A9
:101FA000EDFD70BD70B504460026002C0FD000F08A
:101FB000E5F809480068051908480068001DFFF7A2
:101FC00093FE2846FFF78EFA00F0CAFC0646002E64
:101FD00001D1FFF7A5FF70BD3000002018000020E0
:101FE00001200149086070474000002070B5064696
:101FF0000C460E48016818313046FFF799FE0B4831
:102000000068001DFFF770FE601C002806D107481D
:102010000168091D0648FFF7A6FE05E005480068AF
:1020200005192846FFF75EFA70BD00001800002071
:102030003C1300203000002070B505460C460948CE
:10204000016818312846FFF78EFE06480068001D1B
:10205000FFF74AFE0448006806193046FFF742FAC7
:1020600070BD0000180000203000002070B505464B
:102070002C46002D39D01D49E06A0968C96A88429A
:1020800033D2A069C00FC007002805D117480068E7
:10209000C06A0521081AA0611422E06A5043144A5C
:1020A00080186169814201D1012000E000200028F0
:1020B00017D0201DFFF718FE0C480068C06AE062C8
:1020C0000C49E06A0968884202D90A49E06A086056
:1020D0001422E16A5143064A8818211DFFF743FE86
:1020E00003E002480068C06AE06270BD180000208A
:1020F0008812002034000020034909680160034968
:102100000968416070470000440000203000002052
:102110001FB500200F4A00900290034601920390E1
:1021200064220DA10E4800F08FFA0446012C02D162
:1021300000F084FC0446012C0AD100BF72B600BF37
:1021400001200849086000200749086000F05EF897
:102150001FBD00002800002049444C45000000003D
:10216000791700003800002030000020024909687B
:102170000918014A116070473000002002480068C9
:10218000401C014908607047500000201A48006850
:10219000002803D00120194908602BE000201749CE
:1021A000086004E016480068401E1549086014489D
:1021B00000681421484313490858002801D1012020
:1021C00000E000200028EDD10D4909681422514398
:1021D0000C4A8818416849684160014608314268E4
:1021E0008A4202D14168496841604168C968064A2B
:1021F000116000BF70470000500000204000002028
:102200003400002088120020180000200F21012037
:10221000C043FEF7EBF9FFF7F5FD00200549086024
:10222000054800691021084303490861FDF752FF82
:10223000FFF792FC1400002000ED00E0FEB5074619
:102240000D4600200090002D01D1019003E038469A
:102250006843401C0190019908464C30FFF7D4FCBC
:102260000646002E0ED03446002D01D1246002E037
:1022700030464C302060E76325640121204600F0A1
:1022800099F800940098FEBDFFB583B005461E4640
:10229000002002902C4600BFFFF772FDA06B0028C3
:1022A00036D0E76820460499FFF7D2F9002E19D1FD
:1022B000A06B401EA0632068002802D1FFF7DEFC5F
:1022C00060602069002801D1012000E00020002882
:1022D00019D12046103000F001FB012813D1FFF77F
:1022E0001FFE10E0E760606A002801D1012000E0D5
:1022F0000020002807D12046243000F0EFFA002803
:1023000001D0FFF70DFEFFF747FD012007B0F0BD3C
:102310000598002803D1FFF73FFD0020F6E702985B
:10232000002804D16846FFF7E7FE01200290FFF77E
:1023300033FDFFF723FFFFF723FD606C401C0028EF
:1023400000D16064A06C401C002800D1A064FFF79D
:1023500023FD05A9684600F047F9002823D120464F
:10236000FFF7B2FA002818D02068002806D1FFF73E
:1023700007FD6068FFF77AFEFFF70EFD2046243068
:102380000599FFF733FE2046FFF7F8FB00F0E8FA67
:10239000002881D1FFF7C4FD7EE72046FFF7EEFB62
:1023A00000F0DEFA78E72046FFF7E8FB00F0D8FA05
:1023B0000020ABE770B505460E462C46FFF7E0FC63
:1023C000216CE06B48432168401860600020A063E6
:1023D0002068A060E06B401E216C484321684018D3
:1023E000E0600020C0436064A064002E10D120692A
:1023F000002801D1012000E00020002810D1204653
:10240000103000F06BFA01280AD1FFF789FD07E0D0
:1024100020461030FFF77CFC20462430FFF778FC84
:10242000FFF7BAFC012070BDFFB583B007461D461B
:10243000002002903C4600BFFFF7A2FCA06BE16BBE
:10244000884201D3022D1FD12A4620460499FFF766
:1024500015F90646606A002801D1012000E000203D
:10246000002808D12046243000F038FA012806D18F
:10247000FFF756FD03E0002E01D0FFF751FDFFF7F7
:102480008BFC012007B0F0BD0598002803D1FFF7B1
:1024900083FC0020F6E70298002804D16846FFF785
:1024A0002BFE01200290FFF777FCFFF767FEFFF796
:1024B00067FC606C401C002800D16064A06C401C6C
:1024C000002800D1A064FFF767FC05A9684600F06A
:1024D0008BF8002819D12046FFF704FA00280ED007
:1024E000204610300599FFF781FD2046FFF746FB97
:1024F00000F036FA00289FD1FFF712FD9CE7204636
:10250000FFF73CFB00F02CFA96E72046FFF736FB7E
:1025100000F026FA0020B5E7FFB581B00546164663
:102520002C46FFF7D1FB0090A06BE16B884202D3F1
:102530000498022820D12046049A0299FFF79EF8B9
:10254000A06C401C002812D1606A002801D1012033
:1025500000E0002000280DD12046243000F0BEF914
:10256000002807D0002E05D00120306002E0A06CCA
:10257000401CA064012700E000270098FFF71DFC25
:10258000384605B0F0BDF8B505460E462C46FFF7B7
:102590009BFB0090A06BE16B88421ED2A06B401C9D
:1025A000A063A06C401C002812D1606A002801D1F1
:1025B000012000E0002000280DD12046243000F04A
:1025C0008DF9002807D0002E05D00120306002E0F0
:1025D000A06C401CA064012700E000270098FFF7D2
:1025E000ECFB3846F8BD000070B504460D46FFF719
:1025F000C7FB134802682868401C002801D1002648
:1026000019E0104920680968884204D06068904247
:1026100001D801260FE06068101A2968884209D2A3
:1026200028686168511A401A28602046FFF764FD47
:10263000002600E00126FFF7AFFB304670BD00002A
:102640003000002044000020FFB583B015460C9FE9
:1026500028460E99FEF770FF0446002C52D0681EE3
:102660008000216B081802900298C008C0000290F8
:1026700000953A4620460F9B0499FFF79BF8069A6F
:1026800003990298FFF70AFB20600D98002801D0FB
:102690000D980460FFF774FB23480068401C224932
:1026A000086022480068002808D1204804600846D5
:1026B000006801280DD1FFF7ABF80AE01C4800685C
:1026C000002806D119480068C06AB84201D81748E6
:1026D000046018480068401C164908601649E06A02
:1026E0000968884202D91449E06A08601422E16A44
:1026F0005143124A8818211DFFF735FB0126FFF7C9
:102700004BFB01E00026F643012E0AD10848006881
:10271000002806D005480068C06AB84201D2FFF719
:10272000FFFB304607B0F0BD2C0000201800002051
:1027300038000020480000203400002088120020CB
:1027400006490968002901D1012006E00449096809
:10275000002901D1022000E000207047380000204D
:102760005000002001490868704700003000002038
:10277000F8B5002000903648006800285BD1354845
:102780000068401C3349086008460668002E0FD1D7
:1027900031480768314800682F4908602F480760B2
:1027A0002F480068401C2E490860FFF763F900BFFE
:1027B0002C48006886423DD300BF27480068006867
:1027C000002801D1012000E00020002804D00020D2
:1027D000C043244908602CE01F480068C068C468F2
:1027E0006568AE4202D21F48056022E0201DFFF757
:1027F0007BFAA06A002803D020461830FFF774FA4D
:102800001949E06A0968884202D91749E06A0860F4
:102810001422E16A5143154A8818211DFFF7A3FAD3
:102820001349E06A0968C96A8842C6D3012000904A
:10283000C3E700BF04E00F480068401C0D49086072
:102840000D480068002801D0012000900098F8BDD4
:1028500050000020300000201C000020200000203C
:10286000440000204C00002034000020881200208A
:10287000180000203C0000204000002070B50546F4
:102880002C460026002D23D0E06B401EE063A16B98
:10289000E06A88421CD0E06B002819D1201DFFF7A8
:1028A00023FAA06BE0620521E06A081AA0610949D9
:1028B000E06A0968884202D90649E06A0860142281
:1028C000E16A5143044A8818211DFFF74CFA01269A
:1028D000304670BD340000208812002070B50646D6
:1028E000F068C46820461830FFF7FEF91648006803
:1028F000002813D1201DFFF7F7F91449E06A096891
:10290000884202D91149E06A08601422E16A514301
:102910000F4A8818211DFFF726FA04E021461831D6
:102920000C48FFF720FA0C49E06A0968C96A884236
:1029300004D9012501200949086000E00025FFF7BE
:1029400099F8284670BD0000500000203400002097
:1029500088120020141300201800002040000020DE
:1029600070B50025FFF70CFA2C480068401E2B4973
:1029700008600846006800284CD1294800680028F3
:1029800048D022E02748C068C46820461830FFF7C6
:10299000ABF9201DFFF7A8F92349E06A09688842CE
:1029A00002D92149E06A08601422E16A51431F4AB2
:1029B0008818211DFFF7D7F91D49E06A0968C96A1F
:1029C000884202D301201B4908601648006800288D
:1029D00001D1012000E000200028D3D01648006873
:1029E000002810D00BE0FFF7C3FE002802D0012022
:1029F0001049086010480068401E0F4908600E48E2
:102A000000680028EFD10B480068012802D1012599
:102A1000FFF786FAFFF7C0F9284670BD5000002086
:102A20002C00002014130020340000208812002005
:102A300018000020400000203C0000201FB50024AA
:102A4000FEF79EFD0A48006800280DD00020094AC4
:102A5000022302900093019203900346502206A1A4
:102A60000748FFF7F1FD0446204604B010BD000002
:102A70005C00002060000020546D722053766300DB
:102A8000631B0000F0B585B005460C4616461F4690
:102A90000020049014480068002822D00094019679
:102AA0000295062C15DAFFF74BFE022808D1002309
:102AB00069460D480A9A0068FFF7B6FC049010E0DA
:102AC00000231A46694608480068FFF7ADFC0490E9
:102AD00007E000233A46694603480068FFF71CFDFB
:102AE0000490049805B0F0BD5C0000201213101192
:102AF00000000001000000506E72665F6472765F35
:102B00006770696F74655F696E6974006E72665F85
:102B10006472765F6770696F74655F6F75745F6903
:102B20006E6974006E72665F6472765F6770696F5B
:102B300074655F696E5F696E697400005C2B0000EC
:102B40000000002078000000680D0000D42B000079
:102B500078000020E8230000780D0000000000004D
:102B6000000000000024F40000000000000000004D
:102B70000000000000000000000000000000000055
:102B80000000000000000000000000000000000045
:102B90000000000000000000000000000000000035
:102BA0000000000000000000FFFFFFFF0000000029
:102BB0000000000000000000000000000000000015
:102BC0000000000000000000000000000000000005
:042BD0000000000001
:04000005000000C136
:00000001FF
