:020000040000FA
:10000000F0120020D5000000EF000000F100000019
:1000100000000000000000000000000000000000E0
:10002000000000000000000000000000F3000000DD
:100030000000000000000000F5000000F7000000D4
:1000400029040000F9000000CD070000F9000000BD
:10005000F900000000000000F9000000F9000000B5
:10006000F9000000F9000000F9000000F9000000AC
:10007000F9000000F9000000F9000000F90000009C
:10008000F90000007D040000F9000000F900000004
:1000900087050000F900000091050000F90000004C
:1000A000F9000000F900000000000000000000005E
:1000B0000000000000000000000000000000000040
:1000C0000348854600F06AF800480047DD0F00004D
:1000D000F01200200321094802680A430260084820
:1000E00002680A4302600748804707480047FEE766
:1000F000FEE7FEE7FEE7FEE7FEE70000240500401E
:100100005405004069070000C100000003460B438E
:100110009B0703D009E008C9121F08C0042AFAD2BD
:1001200003E00B780370401C491C521EF9D2704743
:10013000D2B201E00270401C491EFBD2704700227F
:10014000F6E710B513460A4604461946FFF7F0FFD6
:10015000204610BD30B505462A460B4610781C785F
:10016000521C5B1C002801D0A042F7D0002C03D009
:10017000002802D06D1CEFE7284630BD421C0178F4
:10018000401C0029FBD1801A704703460A78027090
:10019000401C491C002AF9D118467047064C01251D
:1001A000064E05E0E36807CC2B430C3C984710341F
:1001B000B442F7D3FFF788FF7815000098150000C8
:1001C000F8B504460D461646012779022046FFF78A
:1001D000B6FF01203F490860284600F09FFA3EA084
:1001E00000F09CFA47E03D480088401C3B490880ED
:1001F0003BA13D48FFF7AEFF002805D03BA1002002
:1002000000F0B4F900273CE064217D22D2000846CA
:100210005043002800D116E000BF00BF00BF00BF60
:1002200000BF00BF00BF00BF00BF354A1268354B9A
:100230009A4200D101E000BF00BF0246013A1046D9
:1002400000D0EAE700BF00BF24480088962812D1FA
:100250002DA1002000F08AF932A1002000F086F9DB
:1002600000BFBFF34F8F35483549C860BFF34F8F8C
:1002700000BF00BFFEE731461B48FFF76BFF0028B9
:10028000B1D000BF012013494860002C0CD0294692
:100290001548FFF75FFF002806D02A480288124958
:1002A0002046FFF733FF03E027A1002000F05EF9AE
:1002B000012149020C48FFF742FF012149022C4865
:1002C000FFF73DFF00201F49088004490880384699
:1002D000F8BD0000002000400D0A00004E00002084
:1002E0004552524F52000000F00800204C4F473A50
:1002F000204154206572726F72210D0A00000000C7
:10030000000000200024F4004C4F473A2045727250
:100310006F722C206E6F7420616E73776572210D81
:100320000A0000004C4F473A2053797374656D20E2
:1003300072657365742121210D0A00000400FA051D
:1003400000ED00E04C0000204C4F473A204572720F
:100350006F7220636D64206F72206E756C6C20620A
:1003600061636B20706F696E7465720D0A00000026
:10037000F0060020C206D20E01219140014A116010
:100380007047000080E200E0C206D20E01219140D9
:10039000014A11607047000000E100E0C206D20E81
:1003A00001219140014A11607047000000E200E025
:1003B00010B5002819DA1A4A03071B0F083B9B08DF
:1003C0009B00D2588307DC0EFF23A3409A438B0780
:1003D0001B0E8407E40EA3401A43114B0407240F9D
:1003E000083CA408A4001A5118E00E4A03231B027B
:1003F000D21883089B00D2588307DC0EFF23A3404A
:100400009A438B071B0E8407E40EA3401A43054B47
:10041000032424021B198408A4001A5110BD0000F3
:100420001CED00E000E100E010B5FF20013000F01D
:100430009FFE00280CD0FF20013000F0A4FE012018
:1004400000F0A8FE01200C494870002000F062FB7B
:10045000FF20053000F08CFE00280BD0FF20053077
:1004600000F091FE022000F095FE01200249887004
:1004700000F050FB10BD00005402002010B5002019
:10048000074908600021064841608160C160002082
:10049000034940390860486001F01CF810BD0000B5
:1004A00040110140FEB504460D46164600BF0D48FA
:1004B0000078002801D100F0BBF900BF00200190B6
:1004C00000210091684600F091FA32462946204604
:1004D00000F00AF8074600BF6846007800F0B0FA5E
:1004E0003846FEBD78060020F7B582B007461646AE
:1004F00003980190182078431B49401800900098F9
:100500004069002804D0012811D0022826D11EE01D
:10051000009800F0C5F90546B54201D2002405E077
:10052000344632460199009800F005FA18E0009828
:1005300000F0B6F90546B54201D2284600E0304643
:10054000044622460199009800F0F5F908E0324689
:100550000199009800F0B2F9044601E0002400BFC0
:1005600000BF204605B0F0BD9006002070B50546DE
:100570000C462046FFF702FE064632462146284634
:10058000FFF790FF70BD10B500F004FF10BD000034
:1005900070B50B48006800280ED0094800688047F5
:1005A000044600BF2546002D04D000BF284600F0B9
:1005B0000DFA00BF00BF01E000F06CFB70BD000051
:1005C0003400002010B504460B2042494861092040
:1005D000C86000203F494031C862E1210902601A29
:1005E0008C4245D015DC3C49601A8C4234D009DC81
:1005F0003A48201A22D03949401A24D04900401ADA
:100600004FD125E03449401A2AD04900401A48D138
:100610002AE0334A811A904236D006DC3149401A2A
:100620002AD04900401A3CD12AE0E120C002081A31
:100630002ED02D494018002833D12DE04F20000343
:10064000244948622DE09D2000032249486228E0A9
:1006500026482049486224E025481E49486220E097
:1006600024481C4948621CE023481A49486218E0A3
:1006700022481849486214E021481649486210E0AF
:100680002048144948620CE01F481249486208E0BB
:100690001E481049486204E0012000070D494862E5
:1006A00000BF00BF0020C043194988600420486093
:1006B00008490860022001218140164A116000BFEC
:1006C0000321FFF775FE022001218140124A1160CB
:1006D00000BF10BD0025004080250000B0040000D0
:1006E0000027060000E10000C0CDFEFF00B01300AF
:1006F0000050270000A04E0000509D0000F0EB00CD
:1007000000E0D70100B0AF0300705F0700D0BE0E5D
:100710000023004080E200E000E100E010B5034665
:10072000002404E0185D00F007F8601C84B2185D36
:100730000028F7D110BD00000121084A9160084946
:10074000C86100BF0749C9690029FBD00021054ADB
:10075000D1610121014AD1607047000000200040B2
:10076000002500400021004010B500F015FB0028D6
:1007700005D0104810494860C8131049886100F03E
:10078000EFFA002802D001200D49886000F03AFB02
:1007900000280ED00B480068012807D00A480949F4
:1007A000086000BF074800680128FBD1C020054948
:1007B000486110BDDFFF07C000050040006C00402D
:1007C0000006004000EC06407593000010B512488A
:1007D000806801281ED100200F4988600F48806979
:1007E0000F49104A128888540E4801880088401C1E
:1007F0000C4A108001204002814202DD0020114697
:1008000008800122520206490748FFF77FFC0120B9
:100810000649087010BD000000210040002500407E
:10082000F00600204C000020F008002050000020BE
:1008300010B5124C02202061606111A0A061134923
:10084000E1610121890221620021A1626162E1620C
:100850000BA0A0640E49E164102121650021A1656F
:100860006165E1650BA1E01DFFF78FFC0AA1204641
:10087000FFF78BFC2020A07110BD0000780600203F
:100880005465726D696E616C0000000068020020A2
:100890006806002052545400534547474552000013
:1008A00010B501460A69CB689A4204D88C68641E68
:1008B000E41AA01801E0D41A601E10BDF7B582B08A
:1008C0000446174600200190E56800BF20690090AB
:1008D0000098A84203D90098401B461E04E0A16876
:1008E0000098281A401C0E1AA068401BB04201D97B
:1008F000304601E0A068401B0646BE4201D23046A9
:1009000000E0384606466168481932460399FFF709
:10091000FDFB019880190190039880190390BF1B7B
:10092000AD19A068A84200D10025E560002FCDD107
:10093000019805B0F0BDF7B582B004461546E668EB
:10094000A068871BAF4208D9616888192A460399B5
:10095000FFF7DCFB7019E06010E00197616888190F
:10096000019A0399FFF7D2FBE81B0190039AD11972
:100970006068019AFFF7CAFB0198E06005B0F0BD1E
:1009800002E008C8121F08C1002AFAD17047704758
:10099000002001E001C1121F002AFBD1704700BFF7
:1009A000EFF31081084672B67047000000BFBFF336
:1009B0004F8F04480449C860BFF34F8F00BF00BF8A
:1009C000FEE700000400FA0500ED00E03EB5044635
:1009D000002000900190029002946A460021024893
:1009E000FFF7E4FF3EBD00000140000070B5044683
:1009F00000BFFFF7D4FF05460E48406800280ED11F
:100A000001200C4948600C4800680C49084009491D
:100A100008600A48084908600020207001E00120B1
:100A20002070002D03D100BF62B600BF00BF00BF21
:100A300070BD00002800002080E100E0FC06FFBC43
:100A400070B5044625460C484068002812D0002D99
:100A500010D1FFF7A4FF0646074800680749086061
:100A6000002005494860002E03D100BF62B600BFD8
:100A700000BF00BF00BF70BD2800002000E100E003
:100A800030B502460C49885C00BF05242407214686
:100A900024150C196368012484409C4305252D020C
:100AA0004D19AC60012484401C4005252D024D19D0
:100AB000EC6000BF30BD00007215000010B50446A8
:100AC0000249085D002100F0CBFB10BD721500004B
:100AD0007CB500240CE00948055D00200090034629
:100AE000012211460190284600F0A5FB00BF641CBE
:100AF000022CF0D300F004F87CBD00007215000059
:100B000010B5002403E02046FFF7D8FF641C022C38
:100B1000F9D310BD70B50546002D01D1094C01E097
:100B2000084C08340AE0204600F096F90646002EEC
:100B300000D104E028467168884700BFF3E700BF92
:100B400070BD00005C020020FEB51F480068002850
:100B500036D01D480068056800F0A8FB01901B48CE
:100B600004682146019800F0F1FBC61C1848007883
:100B7000002801D100F0A0FBAE4201D2284600E0DF
:100B8000304604192402240A204600F089FB00F0B4
:100B90008DFB00900199009800F0D8FBC71C2046FF
:100BA000019900F0D3FB874209D900F07FFB07468B
:100BB00000F076FB2F2000F017FB00F0D5FC01E0E1
:100BC00000F098FBFEBD00000C000020100000208B
:100BD00024000020014614480078144A12789042FC
:100BE0001DD011480078401C0F4A10701046007844
:100BF000022801D1002010700B48007880000C4AB8
:100C0000105808600B4A086812688018094A10607A
:100C1000104600680002000A1060012070470020A2
:100C2000086000BFFAE700001C0000201D00002043
:100C30001400002010000020F0B50346002420E03E
:100C4000134E306806689E4203D90668F61A06609D
:100C50001BE006689B1B06683419002606600C4ED4
:100C600035680B4FC6693E60C668002E08D00E1965
:100C70003602360A4660C66886601668C661156028
:100C800000BF034800680028DAD100BFF0BD0000B3
:100C90000C000020F8B52C480078002800D1F8BDE1
:100CA00000252A480068002801D1012000E000202A
:100CB000064600BF002D1ED125480078002800D030
:100CC000EDE7684652DF0446052C01D1012511E00D
:100CD000002C04D000BF2046FFF778FE0AE0009801
:100CE00000F0A2FA1B480068002803D019490098B8
:100CF0000968884700BF002E1DD1154800780028DC
:100D000000D0CCE71448008800906946134800687A
:100D100061DF0446052C01D101260BE0002C04D034
:100D200000BF2046FFF752FE04E00C480068074968
:100D30000968884700BF002D02D0002E00D000E0D7
:100D4000B8E700BF00BFAAE7380000204400002039
:100D50003900002048000020400000203C00002016
:100D60000C48008CC0B2012812D10A48808C0007C0
:100D7000000F00280CD10748806AF0210840402865
:100D800006D10448C06A0840002801D101207047FC
:100D90000020FCE7C00F00F01948008CC0B2012809
:100DA0002CD11748808C0007000F002826D114484A
:100DB000806AF0210840002806D11148C06A084026
:100DC000002801D1012070470D48806AF0210840B9
:100DD000102806D10A48C06A0840002801D1012025
:100DE000F1E70748806AF0210840302806D104481E
:100DF000C06A0840002801D10120E4E70020E2E7B2
:100E0000C00F00F01348008CC0B201281FD1114858
:100E1000808C0007000F002819D10E48806AF0214D
:100E20000840A02806D10B48C06A0840002801D11C
:100E3000012070470748806AF0210840D02806D179
:100E40000448C06A0840002801D10120F1E70020D1
:100E5000EFE70000C00F00F001460868002801D04D
:100E600002680A607047000070B51C4804781C488E
:100E7000066826E019484168182060430D18601C78
:100E8000C4B216488078A04200D1002428780228F5
:100E900002D0032812D103E0686800F0E3FA0EE004
:100EA00007E00F490868002101740D4AC16911600B
:100EB00000BF0B4800680028F3D100E000BF00BF6E
:100EC00000BF06484078A042D4D105480068B0422F
:100ED00001D0012070BD0020FCE7000004000020CC
:100EE0000C000020F8B50546374806685BE0002D89
:100EF00002D02C46E56929E034494A68097818236C
:100F00005943501831490978491C304A117011462B
:100F100009789278914202D100212C4A11704468DC
:100F20000178012902D1217C002900D03BE08168B1
:100F30006160C168A1600169E1604169A161244902
:100F40000978002901D00021616000BF2149606853
:100F50000968401A0002000A1F49884208D21D4948
:100F60006068096800F0F2F9A168401820600FE09D
:100F700018486168006800F0E9F90746A068B842BF
:100F800003D9A068C01B206001E00020206000BFE2
:100F900000206060A060012020740020E0612046F5
:100FA00000F02AFA00BF002DA1D1084800780749B7
:100FB000497888429BD104480068B04201D00120A2
:100FC000F8BD0020FCE700000C0000200400002019
:100FD0002500002010000020FFFF7F00FFF778FDB4
:100FE000E1204002FFF7EEFA40A10020FFF7BEFA31
:100FF0007D20C00000F0D4F842A243A14448FFF78E
:10100000DFF8002807D042490020FFF7AFFA3CA1E3
:101010000020FFF7ABFA7D20C00000F0C1F839A234
:101020003CA13B48FFF7CCF8002807D03849002006
:10103000FFF79CFA32A10020FFF798FA31A236A1FF
:101040003348FFF7BDF8002807D031490020FFF7EB
:101050008DFA2BA10020FFF789FA2AA230A12C4893
:10106000FFF7AEF8002807D029490020FFF77EFAE5
:1010700023A10020FFF77AFA22A22CA12448FFF72F
:101080009FF8002807D022490020FFF76FFA1CA123
:101090000020FFF76BFA1BA22CA11D48FFF790F868
:1010A000002807D01A490020FFF760FA14A1002099
:1010B000FFF75CFA13A228A11548FFF781F8002872
:1010C00007D013490020FFF751FA0DA10020FFF7C8
:1010D0004DFA0AE0002406E02046FFF7D1FCFA2092
:1010E00000F05EF8641C022CF6DBF3E74C4F473A45
:1010F0002053797374656D20737461727465642113
:101100000D0A00004F4B000041542B525354000075
:10111000540000204154000041542B474D52000020
:1011200041542B43574C41500000000041542B4385
:10113000574A41503D2264642D777274222C2262FA
:101140006F72612D626F72613034220041542B4303
:10115000494653520000000041542B50494E473D30
:10116000223139322E3136382E312E312200000014
:1011700001460120800708180068002801D00120DE
:1011800070470020FCE700210122920782181160BD
:10119000704700000149886070470000000300406C
:1011A0007D22D20001465143002900D116E000BF44
:1011B00000BF00BF00BF00BF00BF00BF00BF00BF37
:1011C000074A1268074B9A4200D101E000BF00BFF6
:1011D0000A46013A114600D0EAE700BF7047000016
:1011E000000000200024F400002800D1704700BF58
:1011F00000BF00BF00BF00BF00BF00BF00BF00BFF7
:1012000007490968074A914200D101E000BF00BFC9
:1012100001460139084600D0EAE700BFE6E70000D2
:10122000000000200024F40010B50446002C01D179
:10123000FFF770FC10BDF0B500BF05252D072C464B
:1012400055000D439E003543059E36023543069EEC
:1012500036043543860007273F02E719BD51F0BD2C
:1012600010B500290DD100BF00BF0522120713469B
:1012700001228240052424021C19E26000BF00BF45
:101280000DE000BF00BF0522120713460122824075
:10129000052424021C19A26000BF00BF00BF10BDBE
:1012A000014908607047000040150140014840684E
:1012B000704700000015014010B5012000040A49E4
:1012C00048600949403948601120FFF753F8112060
:1012D000FFF75AF80120054908602F20FFF784FF27
:1012E00001200349087010BD401301400010014067
:1012F0002400002010B51120012181400E4A116008
:1013000000BF012000040D4988600C494039886005
:1013100001200B4948602F20FFF766FF0120084994
:1013200088600020074908602F20FFF75DFF00203C
:101330000549087010BD000080E100E04013014045
:101340000010014010000020240000200246501A26
:101350000002000A7047000070B504460C4800689F
:10136000002810D00A4AA1696069126890470546B2
:1013700000BF2E46002E04D000BF3046FFF726FBEC
:1013800000BF00BF02E06169A069884770BD00002E
:1013900020000020FEB5002001901148046811488B
:1013A00007686846FFF716FC0546FFF75DFD064631
:1013B000002D05D001AA21460098FFF73DFC01262B
:1013C0000198FFF78FFD002800D00126002E02D0E3
:1013D0003846FFF7B9FB002003490870FEBD000046
:1013E000100000200C0000202500002010B5142063
:1013F000FEF7D4FF10BD000010B519490968002997
:1014000002D1174908602AE0154A0168126812687B
:1014100091420DD81249096809680268891A104A70
:10142000126811600E490968C1610D49086016E033
:1014300002680B4C2368216803E00C68121B0B4602
:10144000C969002902D00C689442F6D3002902D061
:101450000C68A41A0C600260C161D86100BF10BDA5
:101460000C00002030B50246164C2168084604E006
:10147000904200D103E00146C0690028F8D100BFC6
:10148000002800D130BD814211D10E4C2468E4699E
:101490000C4D2C602C462468002C08D101240A4DE8
:1014A000AC600024094D2C600124094D2C700368A8
:1014B000C469CC61C869002802D00468E4180460DB
:1014C00000BFDFE70C0000200010014010000020EA
:1014D00025000020F8B51F480068002839D00027F3
:1014E000FFF7E4FE00901C4801680098FFF72EFF0C
:1014F00006461848056811E02868B04200D90FE098
:101500002868361A2868C7192C46ED69207C0028FF
:1015100004D0002020742046FFF71EFF002DEBD1E1
:1015200000BF0E4800780E490978884209D10C485E
:101530000078401CC0B20A490870022801D100207E
:10154000087007480078800006490F50FFF74EFFEB
:1015500000BFF8BD0C000020100000201C0000207F
:101560001D0000201400002010B51120FEF716FF0A
:1015700010BD12131011000098150000000000208B
:101580005400000080090000EC1500005400002009
:101590009C120000900900000024F40000000000EC
:1015A000000000000000000000000000000000003B
:1015B000000000000000000000000000000000002B
:1015C000000000000000000000000000000000001B
:1015D000000000000000000000000000000000000B
:0C15E000000000000000000000000000FF
:04000005000000C136
:00000001FF
