:020000040001F9
:10F00000C059002015F401001DF401009D04020008
:10F0100021F4010023F4010025F4010000000000A8
:10F0200000000000000000000000000027F40100C4
:10F0300029F40100000000002BF401002DF4010070
:10F04000990502002FF40100250C0200A909020015
:10F050002FF401002FF40100590402002FF40100E5
:10F060002FF401002FF401002FF401002FF4010010
:10F070002FF401002FF401002FF401002FF4010000
:10F080002FF40100E90502002FF401002FF4010024
:10F09000C10902002FF40100C90902002FF4010088
:10F0A0002FF401002FF401002FF401002FF40100D0
:10F0B0002FF401002FF40100000000000000000008
:10F0C0002FF401002FF401002FF401002FF40100B0
:10F0D0001D0602002FF401002FF4010000000000C3
:10F0E0000000000000000000000000000000000020
:10F0F0000000000000000000000000000000000010
:10F1000000000000000000000000000000000000FF
:10F1100000000000000000000000000000000000EF
:10F40000DFF80CD000F0B6F8004800474571020064
:10F41000C05900200648804706480047FEE7FEE73F
:10F42000FEE7FEE7FEE7FEE7FEE7FEE7FEE7FEE7B4
:10F43000090A020001F4010040EA01039B0703D01E
:10F4400009E008C9121F08C0042AFAD203E011F823
:10F45000013B00F8013B521EF9D27047D2B201E0E5
:10F4600000F8012B491EFBD270470022F6E710B5C9
:10F4700013460A4604461946FFF7F0FF204610BD22
:10F4800030B505462A460B4612F8010B13F8014B1E
:10F4900008B1A042F8D01CB1002802D06D1CF1E7E1
:10F4A000284630BD10B5044604E00B7800F8013B57
:10F4B00003B1491C521EF8D2204610BD421C10F860
:10F4C000011B0029FBD1801A704710B5002200E013
:10F4D000521C835C8C5CA34201D1002BF8D1D8B2C2
:10F4E000E1B2401A10BD30B504460020034600E0EA
:10F4F0005B1C934203D2E05CCD5C401BF8D030BD76
:10F50000034611F8012B00F8012B002AF9D1184607
:10F5100070472DE9F05F0546002092469B468846DD
:10F520000646814640241BE028464146474622467F
:10F5300000F041F853465A46C01A914110D3114683
:10F540001846224600F028F82D1A67EB01084F46AE
:10F5500022460120002100F01FF817EB00094E4160
:10F56000201EA4F10104DFDC484631462A4643460A
:10F57000BDE8F09F064C074D06E0E06840F001034F
:10F5800094E8070098471034AC42F6D3FFF73CFFED
:10F590006CE502008CE50200202A04DB203A00FA28
:10F5A00002F1002070479140C2F1200320FA03F3DA
:10F5B000194390407047202A04DB203A21FA02F0D8
:10F5C0000021704721FA02F3D040C2F1200291409D
:10F5D00008431946704770B58C1810F8015B15F098
:10F5E000070301D110F8013B2A1106D110F8012BB5
:10F5F00003E010F8016B01F8016B5B1EF9D12B07DA
:10F6000005D40023521E0DD401F8013BFAE710F88F
:10F61000013BCB1A921C03E013F8015B01F8015B7C
:10F62000521EF9D5A142D8D3002070BD2DE9F05F5C
:10F6300007460D4614461E464FF001094FF0000ADA
:10F640004FF00008C3460020384908804FF400718D
:10F650003846FFF70AFF4FF400713548FFF705FF02
:10F660002CB1022000F06CFF0120324908602DB15E
:10F67000284600F06FFB30A000F06CFB002C35D06A
:10F68000DFF8B8800BE02EA12948FFF7F9FE30B172
:10F690002DA1002001F07AF94FF000090DE021467C
:10F6A0002348FFF7EDFE40B9A8F10100B0F10008D2
:10F6B00003D02C4800780028E5D000BF16B13046B2
:10F6C00008F0A9FA01201B4948600220012181406D
:10F6D000254A430942F8231000BFB8F1000F05D1B5
:10F6E0004FF0000921A1002001F050F91D480078D9
:10F6F00038B11C48007880F001001A4908704FF0BA
:10F7000000092FB14FF4007209493846FFF794FE03
:10F710004FF400710648FFF7A8FE00201949087051
:10F720000249088082464846BDE8F09F98220020A2
:10F7300054370020002000400D0A000080841E0085
:10F740004552524F520000000D0A574C414E3A208C
:10F75000415420636F6D6D616E64206572726F72CB
:10F76000210D0A009B22002080E100E00D0A574C89
:10F77000414E3A2041542074696D656F7574210DB6
:10F780000A0000009A22002070B5ADF5507D0446B5
:10F7900000254FF4007150A8FFF767FE4FF4807109
:10F7A00010A8FFF762FE40216846FFF75EFE224682
:10F7B00045A110A801F01CFB10A8FFF77FFE06462C
:10F7C000324646A1684601F013FB002347A2694672
:10F7D00050A8FFF72BFF002871D010A800F0BAFA4C
:10F7E0004FF4FA6342A2002150A8FFF71FFF002840
:10F7F0005DD04149002001F0C9F840A1002001F08E
:10F80000C5F845A150A8FFF73BFE002846D03A496D
:10F81000002001F0BBF842A1002001F0B7F849A197
:10F8200050A8FFF72DFE48B13349002001F0AEF893
:10F8300045A1002001F0AAF8012540E046A150A80A
:10F84000FFF71EFE48B12C49002001F09FF843A1AC
:10F85000002001F09BF8002531E044A150A8FFF7FB
:10F860000FFE48B12449002001F090F840A100208B
:10F8700001F08CF8002522E01F49002001F086F8F5
:10F880003FA1002001F082F850A9002001F07EF88D
:10F890003CA1002001F07AF8002510E01649002074
:10F8A00001F074F838A1002001F070F807E0124967
:10F8B000002001F06BF83CA1002001F067F8284619
:10F8C0000DF5507D70BD000047455420257320483C
:10F8D0005454502F312E310D0A0D0A0041542B4340
:10F8E000495053454E443D25640000003E00000051
:10F8F00053454E44204F4B005C2100202047455487
:10F900003A20204D6573736167652073656E646589
:10F9100064210D0A000000002B4950440000000043
:10F92000204745543A202053657276657220616EF7
:10F9300073776572207265636965766564210D0A67
:10F940000000000032303000204745543A20203279
:10F9500030300D0A0000000034303000204745549C
:10F960003A20203430300D0A0000000035303000DD
:10F97000204745543A20203530300D0A0000000061
:10F98000200000000D0A0000204745543A20204E78
:10F990006F20616E737765722066726F6D2073657C
:10F9A000727665720D0A00004745543A20204D6575
:10F9B00073736167652073656E64206572726F7220
:10F9C000210D0A0030B5ADF5057D4FF4007105A895
:10F9D000FFF74BFD0020019002900390049032232A
:10F9E00011A212A105A8FFF721FED8B112A105A806
:10F9F000FFF746FD05A9401A441C13A105A8FFF70F
:10FA00003FFD05A9401A451C281BA0F1110205A8BD
:10FA1000204400F10D0101A8FFF744FD01A80DF5F8
:10FA2000057D30BD0020FAE74F4B000041542B43C9
:10FA300049465352000000002B43494653523A5363
:10FA400054414950000000002B43494653523A5359
:10FA500054414D414300000030B5ADF5017D002417
:10FA60004FF4007101A8FFF700FD03252FA100202E
:10FA700000F08CFF2E49002000F088FF2DA100200F
:10FA800000F084FFC82008F0C6F81D2008F0E5FC4F
:10FA90000A2008F0C0F81D2000BF4FF0A0410A4620
:10FAA000012303FA00F1C2F8081500BF00BF4FF4AC
:10FAB000FA6008F0B0F827E021A1002000F066FF0E
:10FAC000322320A220A101A8FFF7B0FD00281BD0FF
:10FAD00016A1002000F05AFF1549002000F056FF43
:10FAE0001AA1002000F052FF322316A21DA101A886
:10FAF000FFF79CFD38B10E49002000F047FF1BA125
:10FB0000002000F043FF0124681EC0B2051E01D092
:10FB1000002CD1D00649002000F038FF18A10020A9
:10FB200000F034FF20460DF5017D30BD0D0A0000C8
:10FB30005C21002020574C414E3A20496E697400E8
:10FB40002E0000004F4B00004154000020574C4154
:10FB50004E3A2045535038323636206973204F4B89
:10FB6000210D0A00415445300000000020574C414F
:10FB70004E3A204563686F206F6666210D0A0000CB
:10FB800020574C414E3A20496E697420636F6D7066
:10FB90006C657465210D0A002DE9F04104461D20B5
:10FBA00001210A4600231D461E4600BF4FF0A04C0F
:10FBB000674641EA420C4CEA830C4CEA052C4CEABD
:10FBC000064807F5E06C4CF8208000BF00BF08F045
:10FBD00044FC1E204E4908601F204D49083908602A
:10FBE00000204B4958310860B4F5614F47D014DC10
:10FBF000B4F5165F34D009DCB4F5966F1FD0B4F5B8
:10FC0000166F22D0B4F5965F58D124E0B4F5964F24
:10FC10002BD0B4F5164F51D12CE0B4F5E12F3DD0E7
:10FC200006DCB4F5E13F2FD0B4F5613F46D130E0BA
:10FC3000B4F5612F37D037482044F8B938E04FF495
:10FC40009E2033491031086038E04FF41D203049C0
:10FC50001031086032E030482D49103108602DE045
:10FC60002E482B491031086028E02D4828491031D2
:10FC7000086023E02B482649103108601EE02A481E
:10FC800023491031086019E02848214910310860E3
:10FC900014E027481E49103108600FE025481C4930
:10FCA000103108600AE0244819491031086005E065
:10FCB0004FF0805016491031086000BF00BF4FF070
:10FCC000FF301E4908601E481E49C1F80403042085
:10FCD0000F49143908600220012181401A4A430962
:10FCE00042F8231000BF0321002807DA4A07150E47
:10FCF000164A00F00F031B1FD55403E04A07130EEA
:10FD0000134A135400BF022000F01AFCBDE8F08132
:10FD100014250040C0BDF0FF00B0130000502700C4
:10FD200000A04E0000509D0000F0EB0000E0D70165
:10FD300000B0AF0300705F0700D0BE0E0823004084
:10FD4000040202000020004080E200E018ED00E024
:10FD500000E400E010B50346002404E0185D00F064
:10FD600007F8601C84B2185D0028F7D110BD0000B0
:10FD70000121084A91600849086000BF07490968E5
:10FD80000029FBD00021054A11600121014AD16000
:10FD900070470000002000401C2500401C2100404E
:10FDA00010B5ADF5007D00244FF400716846FFF7F3
:10FDB0005CFB322315A216A16846FFF737FC00282A
:10FDC00018D016A16846FFF75BFB48B11549002023
:10FDD00000F0DCFD14A1002000F0D8FD012411E0AA
:10FDE0001049002000F0D2FD18A1002000F0CEFD47
:10FDF000002407E00B49002000F0C8FD1BA10020F3
:10FE000000F0C4FD20460DF5007D10BD4F4B0000F5
:10FE100041542B434950434C4F534500434C4F539F
:10FE2000454400005C210020205443503A202044E7
:10FE30006973636F6E6E65637465642066726F6D5F
:10FE400020736572766572210D0A000020544350BC
:10FE50003A2020446973636F6E6E656374696E67E0
:10FE6000206572726F72210D0A0000002054435009
:10FE70003A2020446973636F6E6E6563742C204171
:10FE800054206572726F72210D0A0000F0B5ADF555
:10FE9000117D06460C46154600274FF4007111A847
:10FEA000FFF7E3FA402101A8FFF7DFFA224642A15B
:10FEB00001A800F09DFF322343A201A911A8FFF77A
:10FEC000B5FB002861D04149002000F05FFD40A152
:10FED000002000F05BFD402101A8FFF7C6FA2B4689
:10FEE000224640A101A800F083FF3849002000F01D
:10FEF0004DFD01A9002000F049FD402101A8FFF7B8
:10FF0000B4FA234632463FA101A8009500F070FFE5
:10FF100032232DA201A911A8FFF788FB00282AD0BF
:10FF20003FA111A8FFF7ACFAD8B1322326A23EA117
:10FF300011A8FFF77BFB002839D0402101A8FFF76B
:10FF400094FA2B4622463CA101A800F051FF1F491C
:10FF5000002000F01BFD01A9002000F017FD012783
:10FF600025E01A49002000F011FD3DA1002000F01D
:10FF70000DFD00271BE01549002000F007FD3FA103
:10FF8000002000F003FD002711E0402101A8FFF749
:10FF90006CFA224641A101A800F02AFF0B4900207B
:10FFA00000F0F4FC01A9002000F0F0FC0027384626
:10FFB0000DF5117DF0BD000041542B50494E473DD9
:10FFC00022257322000000004F4B00005C2100201E
:10FFD000205443503A202050696E67204F4B210D2A
:10FFE0000A000000205443503A2020436F6E6E6593
:10FFF0006374696E6720746F2025733A25642E2E12
:020000040002F8
:100000002E0D0A0041542B43495053544152543D44
:10001000222573222C222573222C25640000000047
:10002000434F4E4E4543540041542B4349504D4F8E
:1000300044453D3000000000205443503A20204306
:100040006F6E6E656374656420746F2025733A2546
:10005000642073756363657366756C790D0A0000BF
:10006000205443503A2020436F6E6E656374696E6E
:1000700067206572726F72210D0A00002054435090
:100080003A2020536572766572206E6F7420617617
:10009000616C6961626C65210D0A000020574C415A
:1000A0004E3A2049503A202573206973206E6F74B0
:1000B000206176616C6961626C65210D0A00000047
:1000C00010B5ADF5107D00244FF4007110A8FFF7B6
:1000D000CCF940216846FFF7C8F92249002000F01A
:1000E00055FC21A1002000F051FC642324A225A18D
:1000F00010A8FFF79BFAD8B126A110A8FFF7C0F906
:1001000008B102241DE026A110A8FFF7B9F908B133
:10011000032416E025A110A8FFF7B2F908B10424C2
:100120000FE025A110A8FFF7ABF950B1052408E0B6
:1001300000240C49002000F029FC22A1002000F03E
:1001400025FC224626A1684600F052FE0549002003
:1001500000F01CFC6946002000F018FC20460DF55C
:10016000107D10BD5C21002020574C414E3A2047A5
:100170006574207374617475732E2E2E0D0A000041
:100180004F4B000041542B43495053544154555355
:10019000000000005354415455533A32000000000F
:1001A0005354415455533A330000000053544154C2
:1001B00055533A34000000005354415455533A35D6
:1001C0000000000020574C414E3A20556E6B6E6F78
:1001D000776E20737461747573210D0A000000003E
:1001E00020574C414E3A20436F6E6E656374696FC1
:1001F0006E207374617475733A2025640D0A0000D3
:100200002DE9F041ADF5087D04460E460025032793
:100210003549002000F0BAFB34A1002000F0B6FB05
:100220003149002000F0B2FB36A1002000F0AEFB07
:100230004FF4007108A8FFF718F920216846FFF76E
:1002400014F93346224635A1684600F0D1FD3BE063
:1002500037A1002000F09AFB322336A2694608A895
:10026000FFF7E4F900282FD025A1002000F08EFB35
:100270001D49002000F08AFB2FA1002000F086FB22
:100280002146002000F082FB33A1002000F07EFB1D
:100290003146002000F07AFB31A1002000F076FB0F
:1002A0001149002000F072FB31A1002000F06EFB2C
:1002B000FFF788FB80464146002000F067FB10A155
:1002C000002000F063FB0125781EC0B2071E01D09C
:1002D000002DBDD01DB90AA1002000F057FB284613
:1002E0000DF5087DBDE8F0815C21002020574C41D0
:1002F0004E3A20574C414E2073746172742E2E2E4C
:100300000D0A000020574C414E3A20436F6E6E6537
:100310006374696E6720746F2041500041542B4311
:10032000574A41503D222573222C2225732200007A
:100330002E0000004F4B000020574C414E3A204306
:100340006F6E6E656374656420746F204150205336
:100350005349443A2000000020505357443A2000AB
:100360002073756363657366756C79210D0A0000EF
:1003700020574C414E3A20495020000010B5ADF5B1
:10038000007D00244FF400716846FFF76EF81349B2
:10039000002000F0FBFA12A1002000F0F7FA32234F
:1003A00016A217A16846FFF741F948B101240B498D
:1003B000002000F0EBFA15A1002000F0E7FA08E0B9
:1003C00000240649002000F0E1FA1BA1002000F003
:1003D000DDFA20460DF5007D10BD00005C210020F7
:1003E00020574C414E3A20446973636F6E6E6563CB
:1003F00074696E672E2E2E0D0A0000004F4B000010
:1004000041542B43575141500000000020574C41AC
:100410004E3A20446973636F6E6E65637465642041
:1004200066726F6D204150207375636365736675E6
:100430006C79210D0A00000020574C414E3A2044AF
:100440006973636F6E6E656374696E67206572723F
:100450006F72210D0A0000000D480068012807D1C5
:1004600000200B4908600B480068401C09490860DF
:100470000748001D0068012808D100210448001D1C
:10048000016005480068401C03490860704700008F
:10049000006100402C2100203021002010B506A171
:1004A000002000F073FA084A08A10D4800F0A0FCF3
:1004B0000B4800F0BDF810BD0D0A4861726420665B
:1004C00061756C74210D0A005C21002025732048A1
:1004D000617264206661756C74210D0A0000000071
:1004E0007C28002000F01F0201219140024A4309AC
:1004F00042F823107047000080E200E000F01F0285
:1005000001219140024A430942F82310704700003C
:1005100080E100E000F01F020121914042099200B9
:1005200002F1E022C2F80011704700F01F02012121
:1005300091404209920002F1E022C2F80011704796
:1005400000F01F02012191404209920002F1E022D5
:10055000C2F800117047000000F01F020121914015
:10056000024A430942F823107047000000E200E00D
:1005700010B5002807DA4A07140E054A00F00F03E9
:100580001B1FD45403E04A07130E024A135410BD34
:1005900018ED00E000E400E010B54FF4807007F0C3
:1005A00019FB60B14FF4807007F01DFB012007F0CC
:1005B00023FB01200B494870002003F039F84FF469
:1005C000827007F007FB58B14FF4827007F00BFB05
:1005D000022007F011FB01200249887003F028F87F
:1005E00010BD00000831002010B500200949086046
:1005F00000210948C0F84411C0F84811C0F84C1156
:1006000000200549C1F8000102493C3908600DF09D
:1006100075FA10BD401101400010014010B50422D0
:100620000021024807F01EFD10BD000000400240FE
:1006300038B5044633220EA10F4804F0EDF80F49F7
:1006400008702046FEF73AFF451E6B462A462146B3
:10065000094804F089FA094908700846007810B979
:10066000132007F026FF044804F096F838BD000078
:100670004C4F472E54585400382500202821002084
:1006800070B5A0B001214B4803F030FE4AA1002014
:1006900000F07CF90A2605E0002003F04DFC4E49ED
:1006A0000870761E1EB14C4800780028F4D14A48E4
:1006B000007830B149A1002000F068F9002020B096
:1006C00070BD132007F0B3FE4D48006841694C48E7
:1006D000884740684FF48011B1FBF0F44848006847
:1006E0004169474888470068B0FBF4F52A4645A1B0
:1006F000684600F07DFB6946002000F047F947A1FD
:10070000002000F043F9012249A14A4804F056F8BC
:10071000494908700846007828B148A1002000F037
:1007200035F90020CBE74AA14A4804F06DF9424967
:1007300008700846007828B147A1002000F026F98B
:100740000020BCE700BF4D49424804F095F93A4902
:1007500008700846007828B149A1002000F016F979
:100760000020ACE74548407AD8B14448007A00F010
:10077000100050B1414A093249A1684600F038FBE7
:100780006946002000F002F90BE03C4800F1090343
:1007900047A10268684600F02BFB6946002000F084
:1007A000F5F83648407A0028CDD11BA100F0EEF8CC
:1007B000012084E7842100205344433A20496E6994
:1007C0007469616C697A696E67206469736B203043
:1007D0002E2E2E0D0A000000292100205344433AFA
:1007E000204469736B20696E697469616C697A6110
:1007F00074696F6E206661696C65640D0A000000A3
:10080000F4E202005344433A204361706163697427
:10081000793A202564204D420D0A00005344433AA2
:10082000204D6F756E74696E672E2E2E0D0A0000B6
:1008300000000000C4220020282100205344433A35
:10084000204D6F756E74206661696C65640D0A00D9
:100850002F000000F42400205344433A20446972DE
:100860006563746F7279206C697374696E67206652
:1008700061696C6564210D0A0000000020250020DC
:100880005344433A204469726563746F72792072ED
:10089000656164206661696C65640D0A0000000092
:1008A0005344433A203C4449523E2025730D0A00EC
:1008B0005344433A20252E396C75202025730D0AA8
:1008C000000000002DE9FC4104460D46164600BF1D
:1008D0000C48007808B900F0E5F900BF002001904D
:1008E0000090684600F0E4FF32462946204600F0BA
:1008F0000BF8074600BF9DF8000000F0DFFF384608
:10090000BDE8FC81DC3600202DE9F047074688462B
:100910001646C24607EB47011B4800EBC109D9F850
:10092000140020B1012811D0022826D11EE048462B
:1009300000F0F0F90546B54201D2002405E0344646
:1009400032465146484600F02CFA18E0484600F07E
:10095000E1F90546B54201D2284600E0304604469A
:1009600022465146484600F01CFA08E032465146FD
:10097000484600F0DDF9044601E0002400BF00BF56
:100980002046BDE8F0870000F436002070B505462B
:100990000C462046FEF792FD064632462146284682
:1009A000FFF790FF70BD000010B5034C21460348CF
:1009B00006F012F810BD00001C310020003000408D
:1009C00010B50CF0B1FF10BD70B50A48006868B1F1
:1009D000084800688047044600BF254625B100BF8F
:1009E000284600F03FFD00BF00BF01E005F042FFD8
:1009F00070BD000080220020014802490860704755
:100A00000090D0039C21002010B503F0F7FC10B13A
:100A100076487749486703F009FD28B175480068B2
:100A2000C0F342307449086003F02AFD28B17348CE
:100A3000006820F080707149086003F039FD48B10A
:100A400000206F4908604FF08041C1F810016A49E9
:100A5000091F086003F056FD18B103206649643190
:100A6000086003F067FD68B1052066490860012051
:100A700064497831086000206249083108603F20ED
:100A8000091F086003F06EFD002855D05E4800681D
:100A90005E4908605C48001D0068091D08605A48EE
:100AA00008300068091D086057480C300068091DAF
:100AB0000860554810300068091D0860524814301D
:100AC0000068091D08605048183000684F492031FF
:100AD00008604D481C300068091D08604A482030F5
:100AE0000068091D0860484824300068091D086036
:100AF000454828300068091D086043482C300068CC
:100B0000091D0860404830300068404940310860A5
:100B10003D4834300068091D08603B4838300068A3
:100B2000091D086038483C300068091D08603648D7
:100B300040300068091D086003F036FC30B12D48D4
:100B40001430006800F04F00314908602B487438B9
:100B5000006840F47000294974390860BFF34F8F72
:100B6000BFF36F8F2B48006800F0004028B9294878
:100B7000001D006800F0004098B30120264908607D
:100B800000BF264800680028FBD0152021490860D6
:100B900000BF224800680028FBD015211D48001D19
:100BA000016000BF1D4800680028FBD000201A49E2
:100BB000086000BF194800680028FBD000BFBFF3E1
:100BC0004F8F0E48F038006800F4E0601449084385
:100BD000001D0A49F0390860BFF34F8F00BF00BF06
:100BE000FEE7FFE7FFF708FF10BD00000DF0ADBA0C
:100BF00000C00740440200103C050040FCED00E04E
:100C00000C010040105600400404001020C50040B4
:100C1000E40E00400012001004E5014000E4014031
:100C20000000FA0518480068012811D10020164973
:100C30000860164800681649164A128888541548F4
:100C40000088401C134908800120134908701AE0ED
:100C50000D483C300068012804D100200A493C318D
:100C6000086010E008481C30006801280BD1002003
:100C70000021054A1C321160084AC2F808110121FE
:100C8000074A117000BF7047082100401825004036
:100C900054370020982200209A2200200020004093
:100CA0009B22002010B5124C02202061606111A02F
:100CB000A0611349E1614FF4806121620021A162CA
:100CC0006162E1620BA0A0640E49E164102121651C
:100CD0000021A1656165E1650BA1E01DFEF710FC37
:100CE0000AA12046FEF70CFC2020A07110BD0000D8
:100CF000DC3600205465726D696E616C0000000086
:100D0000CC320020CC360020525454005345474783
:100D10004552000010B501460A69CB689A4204D8D2
:100D20008C68641EE41AA01801E0D41A601E10BD7D
:100D30002DE9F0470446894617464FF0000AE5685A
:100D400000BFD4F81080A84503D9A8EB0500461EC3
:100D500004E0A5EB0800401CA1680E1AA068401B27
:100D6000B04201D9304601E0A068401B0646BE42B1
:100D700001D2304600E038460646616848193246DE
:100D80004946FEF759FBB244B144BF1B3544A06845
:100D9000A84200D10025E560002FD2D15046BDE821
:100DA000F0872DE9F047044689461546E668A068B5
:100DB000871BAF4208D9616888192A464946FEF761
:100DC0003BFB7019E06010E0B84661688819424644
:100DD0004946FEF731FBA5EB070809EB0701424640
:100DE0006068FEF729FBC4F80C80BDE8F0870000BE
:100DF0000FB4084B10B504A902AA039800F03EF8FE
:100E0000044602A9002000F04FF9204610BC5DF80E
:100E100014FB0000A910020002E008C8121F08C15C
:100E2000002AFAD170477047002001E001C1121F6B
:100E3000002AFBD1704700000146202908DA012072
:100E400088400A4A104008B1012070470020FCE7A2
:100E5000402909DAA1F12000012202FA00F008B1CC
:100E60000120F2E70020F0E70120EEE7FC06FFBCDE
:100E700000BFEFF31081084672B670472DE9FF4FAF
:100E80008BB09A460F460446002606E025280BD074
:100E900052460D999047641C761C20780028F5D1A5
:100EA0000FB03046BDE8F08F0025A94601227D49EC
:100EB00000E0054314F8013F203B02FA03F008422A
:100EC000F7D120782E2817D114F8010F45F004052A
:100ED0002A280ED06FF02F022078A0F130010929C6
:100EE0000AD809EB890102EB410100EB0109641CFE
:100EF000F2E757F8049B641C20786C280DD004DCC2
:100F00004C2812D06A2811D104E074280DD07A2818
:100F10000CD10AE045F4001507E0617845F480152E
:100F2000814202D1641C05F58015641C2078692873
:100F30003ED006DC0028B3D063280BD0642804D14F
:100F400036E0732810D075285CD052460D99904732
:100F5000761CA5E017F8040B8DF8000000208DF832
:100F60000100E846012003E057F8048B4FF0FF3002
:100F700069074FF0000501D40AE06D1C4D450DDAFC
:100F80008542FADB18F805100029F6D106E06D1C41
:100F90008542FCDB18F805100029F8D12E4404E046
:100FA00018F8010B52460D9990476D1EF8D277E064
:100FB00000200A90C5F302504FF00A0B02280CD013
:100FC00001CFC117021E71F100020CDA0023D0EB31
:100FD000030063EB01012D2208E0FF1D27F0070746
:100FE000F7E80201EEE72A0504D52B228DF824202C
:100FF000012203E0EA070FD02022F7E70DF12008D5
:10100000089218E000200A90C5F302504FF00A0B36
:10101000022803D001CF00210022EFE7FF1D27F0B7
:101020000707F7E80201F7E75A460A9BFEF771FA4D
:10103000303208F8012D50EA0102F5D1ADEB08007D
:1010400000F1200B680701D44FF00109D94502DDFA
:10105000A9EB0B0000E000208146002506E009A86E
:101060005246405D0D9990476D1C761C089885424C
:10107000F5DB04E0302052460D999047761CB9F11B
:101080000001A9F10109F5DC05E018F8010B524651
:101090000D999047761CBBF10001ABF1010BF4DC1C
:1010A000641CFAE6092801000A68531C0B601070E2
:1010B000704770B505460C4605B10CB9002070BDEF
:1010C000287840082178B0EB510F01D00020F6E7D6
:1010D0000622611C681CFEF706FA08B90120EEE73B
:1010E0000020ECE70246002104E0505C08B101203A
:1010F0007047491C0629F8D30020F9E710B50446CB
:101100006CB108480068A04209D806484068A0426F
:1011100005D3204605F090FC08B1012010BD002049
:10112000FCE70000B42200202DE9FC41044688467B
:101130001646002537880020308094F82D0058B1DD
:101140003A463146404601F0AFF8054600BF15B1BA
:101150002846BDE8FC8100BFA07850B13A46314630
:10116000404600F0CFFB054600BF0DB12846F0E732
:1011700000BFE07860B1E17848B23B463246414674
:1011800004F018FA054600BF0DB12846E1E700BF9C
:10119000606868B1616891F900003B46324641469B
:1011A0000CF014FD054600BF0DB12846D1E700BF85
:1011B000208900280EDD43460622022104F10800A2
:1011C000CDE900670CF0DAFD054600BF0DB12846F9
:1011D000BFE700BF208A00280EDD43460722032117
:1011E00004F11000CDE900670CF0C8FD054600BF12
:1011F0000DB12846ADE700BF208B00280EDD434629
:101200001522142104F11800CDE900670CF0B6FD99
:10121000054600BF0DB128469BE700BF206A58B1C4
:101220003B4632464146206A02F0B9FA054600BF05
:101230000DB128468DE700BF606A58B13B46324683
:101240004146606A06F006FB054600BF0DB1284620
:101250007FE700BF94F82C0000280BDD3B463246A8
:10126000414620460BF030FC054600BF0DB1284634
:101270006FE700BF207858B13B46324641462046D2
:1012800006F07DFB054600BF0DB1284661E700BFB3
:1012900028465EE770B504461448FFF723FF05466D
:1012A000012C06D0022C0BD0032C10D0042C1AD108
:1012B00013E00F48407810B10DB1012070BD00BFA0
:1012C0000B48807810B10DB10220F7E700BF084845
:1012D000C07808B10320F1E700BF0548007908B1E4
:1012E0000420EBE700BF0020E8E70000A521002074
:1012F000B82B00200146481C052290FBF2F302FBAC
:101300001300C0B270470146C87800F0040008B965
:10131000072070470020FCE710B5012202210020C1
:1013200001F032FF044600BF1CB1072C01D020465B
:1013300010BD00BF07220221012001F025FF044655
:1013400000BF1CB1072C01D02046F1E700BF0A22E4
:101350000021084601F018FF044600BF1CB1072C0D
:1013600001D02046E4E700BF0020E1E730B599B0A6
:101370003C210AA8FEF779F802208DF82800012008
:101380008DF82A0006208DF82B000120ADF83800DA
:1013900011490F91202102A8FEF767F801208DF86E
:1013A0000B00C8200690002007900C4B02AA0146B3
:1013B00000900AA800F00CFC044600BF254625B1A9
:1013C00000BF284600F04EF800BF00BF112007F014
:1013D0002EF819B030BD00007E2100205585020096
:1013E00070B58CB004460D461646002005E0C0F1ED
:1013F0000F01615C0DF80010401C1028F7D30D217F
:1014000004A8FEF732F8002005E02A5CC0F10F03C3
:1014100004A9CA54401C0328F7D3684643DF0020C0
:1014200005E0C0F10F0208A9895C3154401C032873
:10143000F7D30CB070BD000000BFBFF34F8F07485B
:10144000006800F4E06006490843001D0349086095
:10145000BFF34F8F00BF00BFFEE700000CED00E0C0
:101460000000FA053EB5044600200090019002906D
:1014700002946A46002144F20100FFF7DDFF3EBD01
:101480002DE9F04707460E4614461F4890F8220003
:1014900010B90820BDE8F0871B4890F82200032807
:1014A00001D01120F6E70CB90720F3E70421164814
:1014B00080F82210807AC0F3C00018B97102124877
:1014C000016101E0104806610F48C7608482C48250
:1014D00000218183012C01DD522000E05120814652
:1014E00009480122016948460AF00EF9054600BF85
:1014F000A846B8F1000F04D000BF4046FFF7B2FF86
:1015000000BF00BF0020C5E7643900202DE9F0418D
:1015100007460E4615462D4890F8220010B90820BF
:10152000BDE8F081294890F82200032801D011205D
:10153000F6E70DB90720F3E70521244880F82210CB
:10154000807AC0F3C00018B971022048016101E03F
:101550001E4806611D48C7608582C58200218183BF
:10156000012D12D10122016958200AF0CDF804465C
:1015700000BFA046B8F1000F04D000BF4046FFF7FF
:1015800071FF00BF00BF0020CAE71048807A00F05A
:101590000700012807D10D480122016959200AF0EE
:1015A000B3F8044605E001222946D7200AF0ACF83A
:1015B000044600BFA046B8F1000F04D000BF40466B
:1015C000FFF750FF00BF00BF0020A9E764390020EB
:1015D000064890F82200032805D0044890F822001D
:1015E00008B1012070470020FCE7000064390020AA
:1015F000044890F82200032802DB0248001D7047CF
:101600000020FCE764390020F0B587B004460E46A0
:101610003A4890F8220010B1082007B0F0BD5EB142
:10162000E078FF2808D06078FF2805D02078FF28D0
:1016300002D0A078FF2801D10720EEE7E0782F49FB
:1016400081F85800084690F8587000200090034632
:10165000012211460190384606F0B0FE00BF00BFDF
:10166000264991F8580006F019FF00BF244B0FCB14
:1016700003AD0FC5A0788DF80C0020788DF80D0013
:1016800060788DF80E001F4A03A91F4806F046FD3A
:10169000054600BF2F4627B100BF3846FFF7E2FEE0
:1016A00000BF00BF15480660012180F82210807A33
:1016B00020F0070111488172807A20F008010F485C
:1016C0008172002180F82310FF200C4981F8280046
:1016D0000A2001F138030122283100900A4806F05F
:1016E000BFFD054600BF2F4627B100BF3846FFF7B4
:1016F000B9FE00BF00BF00208FE700006439002062
:1017000034E4020071D302002CE402007CB51348DB
:1017100090F8220008B908207CBD104890F82200FB
:10172000032801D01120F7E70D4806F0AFFD0B4864
:1017300090F85850002400200090234602460146AD
:101740000190284606F03AFE00BF0021034880F8C9
:10175000231080F822100020DEE70000643900200A
:101760002CE4020010B503460C4600BF0B4840684D
:1017700008B9082010BD00BF0AB90720FAE70BB965
:101780000720F7E71868007C08B10820F2E719681D
:10179000002008744C744A6100BFEBE7402200202F
:1017A0002DE9F04107460D4614461E46204600F03E
:1017B000030109B9012100E0002111B90720BDE8AA
:1017C000F0810CB90720FAE709F0A8FD114806607E
:1017D0000020114908704870084685704460002058
:1017E0000E4908600E4908700E4908701420FEF773
:1017F00079FE07211420FEF7BBFE1420FEF78AFEB7
:10180000384609F061FD09F059FD074908600020DC
:10181000D5E700005C220020402200204822002062
:1018200058220020592200204C2200202DE9F041AE
:1018300004460E461746254600BF1048406810B9BA
:101840000820BDE8F08100BF0CB90820F9E7052E9B
:1018500001D20720F5E7686908B90820F1E7687C3C
:10186000012801D1304600E0002080463B46424638
:10187000314628460CF0F2F8E3E700004022002051
:1018800070B50446254600BF0848406808B90820DE
:1018900070BD00BF0CB1686908B90820F8E70020E6
:1018A0002874022128460CF008F9F1E740220020B4
:1018B00010B50446204609F0BFFE10BD70B50446C1
:1018C00025460E488068B0B1ADB9FFF7D1FA06469B
:1018D0000A4800680A490860084840684FF0E0215B
:1018E000C1F804010020054988601EB900BF62B636
:1018F00000BF00BF00BF00BF70BD00003C31002032
:1019000000E100E0F8B505460C4617462088001DAA
:10191000B84201D90C20F8BD684679DF064600BF01
:101920000EB13046F7E700BF0320218868542088B5
:10193000401C20801920218868542088401C208069
:1019400020884119BDF800000CF061F92188084495
:1019500020800020DFE7704730B58BB01348007857
:1019600000F070FC054628460AF0BBFDD8B101A87E
:1019700000F0C8FB142201A906A8FDF75DFD0024B4
:101980000DE007A931F814000849097800F068FC57
:1019900020B107A931F8140005F00EFB641C06986D
:1019A000A042EED800BF0BB030BD0000DE21002009
:1019B00010B50446637903F003022179208805F00D
:1019C000CBF910BD10B50446207918B9204600F0B7
:1019D00007F803E02046FFF7EBFF00BF00BF10BD94
:1019E0002DE9F04188B004460025208800F0FCFB7A
:1019F0000746208804F07EFE0646A0680790607ABD
:101A00000690208800222349097800F03BFC17B992
:101A100008B0BDE8F0816079C0F3800090B1072183
:101A2000304607F07DFF0546BDB108208DF8000067
:101A30002088ADF80200ADF804600295684602F017
:101A40005FFE0AE020881449097800F009FC20B103
:101A5000304604F039FE804600BF03208DF80C00AC
:101A60002088ADF80E006079C0F380008DF810007A
:101A7000A079C0F380018DF811109DF81C108DF82D
:101A800012109DF818108DF8131003A802F038FEFC
:101A900000BFBDE71E2200202022002030B50246F4
:101AA000002015780446401C0D5530BD034651609A
:101AB00013801078704770B504460D46228828467A
:101AC0006168FDF7B9FC207870BD70B504460D461D
:101AD000228828466168FDF7AFFC207870BD10B5FC
:101AE000034608784C7840EA04201080022010BD9C
:101AF0000246107808701088000A4870022070476B
:101B000010B5034608784C7840EA04208C7840EA07
:101B10000440CC7840EA04601060042010BD024606
:101B2000107808701088000A48701068000C8870DF
:101B30001068000EC870042070472DE9F04192B083
:101B400080460D461F2011901090B8F1000F17D05D
:101B50004046FFF7D8FB044600BF1CB1204612B038
:101B6000BDE8F08100BF11AA08A94046FFF7DCFAE2
:101B7000044600BF0CB12046F1E700BF08AE02E00A
:101B8000002600201190ADB128460BF0B6FD0446AA
:101B900000BF0CB12046E2E700BF10AA6946284604
:101BA000FFF7C2FA044600BF0CB12046D7E700BFDA
:101BB0006F4602E0002700201090BDF84000C3B23D
:101BC000BDF84400C1B23A46304672DFC7E70000B4
:101BD0002DE9F04704460F4615461E46DDF82080E5
:101BE00004B115B90E20BDE8F087012048490870FE
:101BF000002048490870202229464748FDF71CFC70
:101C0000464806604648C0F800804FF6FF704549D8
:101C10000880454800210160818081713C21434852
:101C2000FDF723FC207841490870A0788870E0789F
:101C3000C87060784870D4E90402C1E9040208461B
:101C4000D4E90212C0E90212D4E90612C0E9061270
:101C5000606AD8B136483549486236498160606A61
:101C600000883249496A0880606A80882F49496A39
:101C70008880002005E0616A8968095C2D4A11545A
:101C8000401C2A49496A89888142F4D8A06A20B355
:101C900029492A4881602549886227492348806A62
:101CA0008160A06A80882149896A8880A06A00884A
:101CB0001E49896A0880002005E0A16A8968095CDC
:101CC0001D4A1154401C1949896A89888142F4D8F7
:101CD00094F82C00154981F82C00206A58B1184856
:101CE00012490862206A4088096A4880206A008890
:101CF0000E49096A0880606810B10C496068486044
:101D000039460A48FFF719FF814648466BE700004D
:101D1000A0210020A3210020B82B0020B421002006
:101D2000B8210020B0210020A4210020D82B0020C1
:101D3000142C0020202C00204C2C0020402C0020B3
:101D4000AC21002010B504462088102804D01128AA
:101D500006D01B280CD107E0204606F07DFD08E0E8
:101D6000204606F0B9FD04E0204606F057FF00E0EB
:101D700000BF00BF10BD000070B50546022D02D0A7
:101D8000032D15D100E000BF0B48007878B100208A
:101D9000094908700948007800F014F8044634B185
:101DA0000748006818B1204605490968884700E0DF
:101DB00000BF00BF70BD0000A1210020A3210020B2
:101DC000B82100207FB505464D48007810B908209D
:101DD00004B070BD4B48057003F056FC20B10120E3
:101DE000494908700020F3E74848002101608180DC
:101DF00081714748407818B14248007801280DD0D9
:101E00004348807818B13F480078012806D0404800
:101E1000807888B13B48007802280DD13D480068A1
:101E200038B101203C49087008203A4909688847C0
:101E300002E00020384908702846FFF72BFA3149A4
:101E4000087034480068C0B108460078032803D001
:101E500008460078042810D12D48007868B12F4832
:101E6000007850B900202E49087001202D490870D3
:101E7000072028490968884702E00020294908709E
:101E8000002000900190029003908DF800008DF8E2
:101E900008001C48007805281CD2DFE800F0170372
:101EA000080D120068460AF083FE044613E06846F7
:101EB0000AF08EFE04460EE068460AF09FFE0446D5
:101EC00009E068460AF0CAFE044604E0002016490C
:101ED000087000E000BF00BF0A48007828B16846DB
:101EE00073DF04460CB1204672E70A48006820B14F
:101EF0000D480078074909688847002068E7000016
:101F0000A0210020A3210020A1210020A421002045
:101F1000B82B0020B4210020AB210020BC210020E0
:101F2000BE210020BD210020A221002070B594B068
:101F300004460D46286820604FF6FF70208300BFDE
:101F400001208DF84E0041F60F00ADF84C0000BFA7
:101F5000221D13A90120A0DF064616B1304614B099
:101F600070BDD5F806001090D5F80A001190E889E8
:101F7000ADF848002879A071202103A8FDF775FA73
:101F800042F61920ADF80C001420ADF810000BA992
:101F900010A8FFF783FDADF812000BA80590A179FA
:101FA0009DF8190061F304108DF819009DF81900CF
:101FB00020F00200801C8DF8190001208DF81D0012
:101FC0008DF81F008DF818000020019002900A2063
:101FD0008DF804000120ADF80A00FE208DF8050000
:101FE00001208DF8080042F20270ADF8060001A849
:101FF0000A90A08804F1080203A901F067F90646D7
:102000000EB13046ABE70020A9E770B505460C4697
:102010002088102806D0112809D050280CD051282B
:1020200014D10EE02146284606F0ECFB0FE02146D5
:10203000284606F01FFC0AE0A11D284606F078FF9E
:1020400005E0211D284606F068FD00E000BF00BF46
:1020500070BD000070B505461C2229461248FDF7E8
:10206000EBF9002011490870286850B11048296820
:102070000A680260496841607ADF04463CB1204644
:1020800070BD0B487BDF04460CB12046F8E74FF6E5
:10209000FF7008490880002007490870074A00219E
:1020A0000748FFF75FFBEBE76C2C0020D4210020F2
:1020B000C0210020CA210020C821002075DC0200B8
:1020C00034E3020010B504462088102806D01128F9
:1020D00008D012280ED0502810D107E0204606F074
:1020E0009FFB0CE0204606F0D7FB08E0204606F0F8
:1020F000CFFF04E0204606F079FB00E000BF00BF00
:1021000010BD000010B504460348027D011D2046A5
:102110000AF060FA10BD0000A82C002010B504469B
:102120000348C17D2246001D0AF03DFA10BD0000A3
:10213000A82C002010B504460348017E2246001D4D
:102140000AF031FA10BD0000A82C002070B504463A
:102150002088102804D011281DD01A2840D11EE054
:1021600008F0F8FFA08808F06DFE20B900BF042039
:10217000FFF778F90EE0E07B022801D1012000E0B2
:1021800000200546A2882B461649A1F112000AF04C
:1021900042FA00BF24E0A08808F0FEFF20E0207A89
:1021A0000121B1EB101F01DA012000E000200346FD
:1021B000A2880C49491CA1F113000AF02CFA207ADC
:1021C0000221B1EB101F01DA012000E000200346DC
:1021D000A2880449891CA1F114000AF01CFA00BF6E
:1021E00000BF70BDBE2C002070B5044600250B4812
:1021F000017D2246001D0AF0D6F960B10748817DB5
:102200002246001D0AF0CFF906460EB1022000E07A
:102210000120054600BF284670BD0000A82C002004
:1022200010B500240AE020460BF076FD20B92046C8
:102230000BF068FD204610BD601CC4B2182CF2DB08
:102240001820F8E710B5044620460BF065FD10B1E4
:102250000248005D10BD0020FCE70000C12C0020FA
:1022600070B505460C4620460BF056FD30B10448CB
:10227000015D2A4615380AF096F970BD0020FCE78A
:10228000C12C002070B505460C46164620460BF0C2
:1022900043FD30B10348011933462A4615380AF088
:1022A000BAF970BDC12C00202DE9FC4105460C4651
:1022B000174620880930B84202D90C20BDE8FC81BD
:1022C00068466DDF064600BF0EB13046F6E700BF38
:1022D0000820218868542088401C20801B202188E9
:1022E00068542088401C208020882844DDF8011094
:1022F0000160BDF8051081802088801D20809DF838
:102300000000400818B900202188685402E001202C
:10231000218868542088401C20800020CEE770B5BA
:10232000ADF50C7D04460E46306820604FF6FF7018
:10233000A4F84E0000BF01208DF82A0241F60A00E1
:10234000ADF8280200BF221D8AA90120A0DF0546A2
:102350001DB128460DF50C7D70BDD6E901018991AE
:10236000889020217BA8FDF780F842F62920ADF85F
:10237000EC011420ADF8F00183A988A805F0A5FAB6
:10238000ADF8F20183A87D909DF8F90120F00200DC
:10239000801C8DF8F90101208DF8FD018DF8F80100
:1023A000A088A21D7BA900F091FF05460DB128462B
:1023B000D0E7D6E903017A91799020216CA8FDF746
:1023C00054F842F62420ADF8B0011420ADF8B40161
:1023D00074A979A805F0ADFAADF8B60174A86E90AD
:1023E0009DF8BD0120F00200801C8DF8BD01012088
:1023F0008DF8C1018DF8BC01A08804F10E026CA912
:1024000000F064FF05460DB12846A3E7D6E90501B3
:102410006B916A9020215DA8FDF727F842F62520F0
:10242000ADF874011420ADF8780165A96AA80AF026
:1024300084FAADF87A0165A85F909DF8810120F0DB
:102440000200801C8DF8810101208DF885018DF836
:102450008001A08804F116025DA900F037FF05464F
:102460000DB1284676E7D6E907015C915B90202103
:102470004EA8FCF7FAFF42F62720ADF838011420E9
:10248000ADF83C0156A95BA803F070FFADF83E0122
:1024900056A850909DF8450120F00200801C8DF850
:1024A000450101208DF849018DF84401A08804F10F
:1024B0001E024EA900F00AFF05460DB1284649E765
:1024C000D6E909014D914C9020213FA8FCF7CDFFA2
:1024D00042F62620ADF8FC001420ADF8000147A913
:1024E0004CA803F02CF8ADF8020147A841909DF8E4
:1024F000090120F00200801C8DF8090101208DF8EF
:102500000D018DF80801A08804F126023FA900F012
:10251000DDFE05460DB128461CE7D6E90B01CDE9E5
:102520003D01202130A8FCF7A0FF42F62820ADF89D
:10253000C0001420ADF8C40038A93DA80AF00CFF73
:10254000ADF8C60038A832909DF8CD0020F002000A
:10255000801C8DF8CD0001208DF8D1008DF8CC00C5
:10256000A08804F12E0230A900F0B0FE05460DB19E
:102570002846EFE606F138000FC8CDE92E23CDE955
:102580002C0120211FA8FCF770FF42F62320ADF894
:102590007C001420ADF8800027A92CA80BF06CF962
:1025A000ADF8820027A821909DF8890020F0020054
:1025B000801C8DF8890001208DF88D008DF8880031
:1025C000A08804F136021FA900F080FE05460DB177
:1025D0002846BFE6D6E91201CDE91D01202110A849
:1025E000FCF743FF42F62A20ADF840001420ADF876
:1025F000440018A91DA803F0EEFEADF8460018A887
:1026000012909DF84D0020F00200801C8DF84D00C6
:1026100001208DF851008DF84C00A08804F13E0295
:1026200010A900F053FE05460DB1284692E6306D24
:102630000E90706D0F90202101A8FCF716FF42F656
:102640005020ADF804001420ADF8080009A90EA828
:1026500008F010FAADF80A0009A803909DF81100DF
:1026600020F00200801C8DF8110001208DF815006B
:102670008DF81000A08804F1460201A900F026FEA2
:1026800005460DB1284665E6002063E670B50546AF
:102690000C462088102806D0112809D050280CD0CC
:1026A000512814D10EE02146284606F0B1F80FE07B
:1026B0002146284606F0E6F80AE0A11D284606F065
:1026C000A6FC05E0211D284606F04FFA00E000BFF9
:1026D00000BF70BD10B504462046FFF737FD204609
:1026E00007F08CFF2046FFF7EDFC204600F010FDC0
:1026F0002046FFF727FB204605F0CAFF204600F0E2
:10270000EBFC2146014805F01AFA10BD9C29002077
:1027100070B504460D462846FCF7D0FE2080656063
:1027200070BD70B5044620460BF06BFA054605F007
:10273000010070BD70B588B027480068079000BFE1
:1027400000235022254907A80AF0A6FD054600BF30
:102750002E4626B100BF3046FEF784FE00BF00BF04
:1027600000BF6A46012100200AF076FD044600BF42
:10277000254625B100BF2846FEF774FE00BF00BF06
:102780001720ADF8100068460AF052FD044600BF5D
:10279000254625B100BF2846FEF764FE00BF00BFF6
:1027A0000F480AF039FD044600BF254625B100BF99
:1027B0002846FEF757FE00BF00BF0A480AF0C0FDDA
:1027C000044600BF254625B100BF2846FEF74AFE55
:1027D00000BF00BF08B070BD20E30200582A0020EF
:1027E000D526020067D8020070B58AB004460D46AF
:1027F0000026E08A4FF6FF7188421BD00020069029
:1028000007900890099001A9284600F047FF009022
:10281000E089ADF8180001208DF81A00CDF820D01D
:102820000020ADF81C0001A80990E08A06A9A6DFE7
:10283000064600E0082630460AB070BD30B587B0C5
:1028400004460D460020059006906946284600F093
:1028500025FFADF814000020ADF81600CDF818D013
:10286000E189E08A05AAA4DF07B030BD70B58AB05F
:1028700004460D460026E08A4FF6FF7188421BD0C1
:102880000020069007900890099001A9284603F0BF
:1028900096FD0090E088ADF8180001208DF81A0030
:1028A000CDF820D00020ADF81C0001A80990E08AE6
:1028B00006A9A6DF064600E0082630460AB070BD2D
:1028C00030B587B004460D46002005900690694655
:1028D000284603F074FDADF814000020ADF8160092
:1028E000CDF818D0E188E08A05AAA4DF07B030BD92
:1028F00070B59EB004460E46306820604FF6FF70FB
:10290000E08200BF01208DF8760043F6E270ADF85A
:10291000740000BF221D1DA90120A0DF054615B1CE
:1029200028461EB070BD70681C9020210FA8FCF7CF
:102930009CFD4BF66550ADF83C009DF876008DF897
:102940003E001420ADF8400017A91CA803F037FD85
:10295000ADF8420017A811909DF8490020F0100032
:1029600010308DF849009DF8490020F020002030FB
:102970008DF849009DF8490020F00200801C8DF878
:10298000490001208DF84D009DF8490020F0080015
:1029900008308DF8490001208DF84E008DF84F0069
:1029A0008DF84800A088A21D0FA900F08FFC0546F5
:1029B0000DB12846B5E7B0680E90202101A8FCF7BC
:1029C00054FD4AF63A40ADF804009DF876008DF8C3
:1029D00006001420ADF8080009A90EA800F05EFE5C
:1029E000ADF80A0009A803909DF8110020F010002E
:1029F00010308DF811009DF8110020F020002030DB
:102A00008DF811009DF8110020F00200801C8DF857
:102A1000110001208DF815009DF8110020F008002C
:102A200008308DF8110001208DF816008DF8170080
:102A30008DF81000A08804F10E0201A900F046FCF8
:102A400005460DB128466CE700206AE770B50546DB
:102A50000C462088102806D0112809D050280CD008
:102A6000512814D10EE02146284605F0CEFE0FE095
:102A70002146284605F002FF0AE0A11D284606F07F
:102A800072FA05E0211D284606F04EF800E000BF6E
:102A900000BF70BD70B5B2B004460E46306820600D
:102AA0004FF6FF70E083664B0FCB2DAD0FC52CA901
:102AB0002DA863DF054615B1284632B070BD9DF8DC
:102AC000B0008DF8C60048F24B40ADF8C400221D9E
:102AD00031A90120A0DF05460DB12846EDE7D6E972
:102AE0000101CDE92A0120211DA8FCF7BEFC41F21D
:102AF0001D10ADF874009DF8C6008DF87600142006
:102B0000ADF8780025A92AA80BF030FAADF87A00C4
:102B100025A81F909DF8810020F00200801C8DF8F0
:102B2000810001208DF885009DF8810020F00800CB
:102B300008308DF8810001208DF886008DF8800026
:102B4000A088A21D1DA900F0C1FB05460DB12846B5
:102B5000B3E7D6E90301CDE91B0120210EA8FCF75C
:102B600084FC4CF2E820ADF838009DF8C6008DF8E2
:102B70003A001420ADF83C0016A91BA80BF0D9F9B7
:102B8000ADF83E0016A810909DF8450020F0020018
:102B9000801C8DF8450001208DF849009DF8450006
:102BA00020F0080008308DF8450001208DF84A001B
:102BB0008DF84400A08804F10E020EA900F086FBF7
:102BC00005460DB1284678E770690D9020216846CA
:102BD000FCF74BFC48F67C30ADF800009DF8C600D1
:102BE0008DF802001420ADF8040008A90DA80BF020
:102BF00087F9ADF8060008A802909DF80D0020F0B6
:102C00000200801C8DF80D0001208DF811009DF848
:102C10000D0020F0080008308DF80D0001208DF81F
:102C200012008DF80C00A08804F11602694600F02D
:102C30004DFB05460DB128463FE700203DE700006B
:102C400024E3020070B505460C462088102806D003
:102C5000112809D050280CD0512814D10EE021465B
:102C6000284605F0D9FD0FE02146284605F00FFE65
:102C70000AE0A11D284606F0CBF905E0211D2846F3
:102C800005F07AFF00E000BF00BF70BD30B587B02F
:102C900004460D46002005900690694628460BF034
:102CA0002FF9ADF814000020ADF81600CDF818D0BB
:102CB000E18AE08B05AAA4DF07B030BD30B587B04C
:102CC00004460D46002005900690694628460BF004
:102CD00030F9ADF814000020ADF81600CDF818D08A
:102CE000E189E08B05AAA4DF07B030BD30B587B01D
:102CF00004460D46002005900690694628460BF0D4
:102D000035F9ADF814000020ADF81600CDF818D054
:102D1000E188E08B05AAA4DF07B030BD30B50246DC
:102D2000087A0B7833B1012B05D0022B05D0032B89
:102D300014D101E000BF00BF00BF4B7800EB40049E
:102D4000084D2D6805EB84042372002300EB40043A
:102D5000044D2D6805EB8404A37200E000BF00BFA2
:102D600030BD00009C22002001460A469069704751
:102D70002DE9FE4380460C4691464546AE692869DA
:102D8000B0F5007F02D00620BDE8FE83164800683B
:102D900008B11120F8E7C6F81890B4601248056031
:102DA0000027124905F11400FEF72EFC07464FB923
:102DB00044B909F08DFB0E48007808B9002000E006
:102DC0000D20074677B100200749086054B1094A31
:102DD00007CA8DE80700B069029069464046B268AC
:102DE000904700BF3846CFE7B022002001B802006C
:102DF000AC220020FCE3020030B503461D4611B1B1
:102E000001290ED105E014460CB1002020700020ED
:102E100030BD0AB90720FBE71446281D20600020BA
:102E2000F6E700BF00BF0620F2E700002DE9FE43F1
:102E300007460D46B846D8F8184000261B480068DB
:102E4000404502D01120BDE8FE83FEF7C1FB08B16A
:102E50001120F8E795E80700C4E90412E060AB88A8
:102E60009AB22968A868FEF70BFB064656B9A06817
:102E700040B909F02DFB0E48007808B9002000E0A9
:102E80000D200646A06870B16EB10A4A07CA8DE8E7
:102E9000070004F10C000190A069029069463846D1
:102EA000A268904700BF3046CDE70000B022002066
:102EB000AC22002014E40200FEB506463746BD6988
:102EC00013480068B84201D01120FEBDFEF780FB18
:102ED00008B11120F9E7FEF719FC044614B90020E7
:102EE0000B490860A86880B10A4A07CA8DE8070044
:102EF0000CB1012000E000208DF80100A8690290CB
:102F000069463046AA68904700BF2046DDE70000CA
:102F1000B022002008E402002DE9FE4307460D46DA
:102F2000B846D8F8184000261B480068404502D033
:102F30001120BDE8FE83FEF74BFB08B11120F8E736
:102F400095E80700C4E90412E060AB889AB22968EA
:102F5000A868FEF7DBFA064656B9A06840B909F042
:102F6000B7FA0E48007808B9002000E00D200646A8
:102F7000A06870B16EB10A4A07CA8DE8070004F173
:102F80000C000190A069029069463846A2689047FB
:102F900000BF3046CDE70000B0220020AC22002068
:102FA00020E4020010B5A4B00020209021902290CF
:102FB0003C48209000202190229020A93A48FFF719
:102FC00097FC044614B1204624B010BD18211AA85D
:102FD000FCF74BFA35481A9035A11BA8FFF798FB70
:102FE00033A11DA8FFF794FB00208DF87C001AA9DF
:102FF0003348FFF74FFD04460CB12046E4E7582163
:1030000004A8FCF732FA2F48049029A105A8FFF77D
:103010007FFB27A107A8FFF77BFB25A109A8FFF7E6
:1030200077FB23A10BA8FFF773FB21A10DA8FFF7E6
:103030006FFB1FA10FA8FFF76BFB002012901390EE
:103040000021149101218DF85C101F481690012079
:103050008DF8600004A80021ADF86210ADF864108E
:10306000ADF8661004A91948FFF759F904460CB1E8
:103070002046A9E700200090019002900390144898
:10308000009001208DF8040000208DF806006946AC
:103090001048FEF74BFF04460CB1204694E7002091
:1030A00092E700008D8C0200A82A0020258E0200E5
:1030B000494E495449414C2056414C554500000069
:1030C000C02A00206D88020090210020FC2A0020E8
:1030D000A1850200E02A002010B5044621460848D8
:1030E000FFF7B4FC21460748FFF7ACFD2146064830
:1030F000FFF7CCFA21460548FEF787FF10BD000018
:10310000A82A0020C02A0020FC2A0020E02A002053
:1031100070B505462888102802D011282CD115E05A
:103120001748006860B900F013FC044600BF34B1D2
:103130001448006818B1204612490968884700BF42
:103140000F480068401C0E49086016E00C480068F3
:10315000401E0B4908600846006860B9FEF7DCF8BD
:10316000044600BF34B10748006818B1204605493D
:103170000968884700BF00E000BF00BF70BD0000C5
:10318000982100209421002030B503460020042B14
:1031900023D2012A07D1012903D103F10E04E4B29D
:1031A00000E00024224679B1012902D0022911D180
:1031B00004E003EB43040A4D2A550DE003EB4304FE
:1031C000074D2C44627007E003EB4304044D2C448C
:1031D000A27001E0072000BF00E0072030BD000022
:1031E0008C2B002070B50446022D01D1012000E097
:1031F00000202070112005F002F9122005F0FFF8E0
:10320000132005F0FCF8142005F0F9F8112005F062
:103210002FF9122005F02CF9132005F029F91420BC
:1032200005F026F90321084605F0DCF80321042007
:1032300005F0D8F815481649086016491448001DCD
:10324000016000201449086000211448C0F80411EE
:1032500003201249C1F8040302200621002807DADE
:103260004A07160E0E4A00F00F031B1FD65403E048
:103270004A07130E0B4A135400BF06200121814058
:10328000094A430942F8231000BF70BD0103020040
:103290001065004001040200006100400060004031
:1032A00018ED00E000E400E080E100E001468879EC
:1032B000012809D10879012806D1488842F602126E
:1032C000904201D1012070470020FCE770B590B01A
:1032D00006460C461546A07818B901208DF80E0058
:1032E00002E0A0788DF80E002088ADF80C000020D8
:1032F0000290607C02A909F0E1FCA07C0DF10901BB
:1033000009F0DCFCE07B08B1012000E000209DF822
:103310000A1060F3C3018DF80A10207C08B1012067
:1033200000E000209DF80A1060F304118DF80A10E7
:10333000207B08B1012000E000209DF80A1060F316
:1033400000018DF80A10207D08B1022000E0012064
:103350009DF80A1060F342018DF80A101C2109A89B
:10336000FCF783F8607BC0F3001018B9607BC0F3F2
:103370004010F8B100200090E07C0DF1010109F04F
:103380009DFC00BF9DF8000020F00F00401C8DF850
:1033900000009DF8000020F0F00010308DF80000D3
:1033A00000BF9DF8020020F00600801C8DF802008E
:1033B000CDF838D0607B8DF82400A07B8DF82500F7
:1033C000142104A8FCF751F803A8049002A8059062
:1033D000A088ADF81C00A06820B1E088ADF8180006
:1033E000A0680890A069002849D000200190A06939
:1033F0000088ADF82C00A0694088ADF82E00A069C7
:1034000040680A9001A80D90A169087B01A909F004
:1034100055FCA169487B0DF1050109F04FFCA0693D
:10342000807A08B1012000E000209DF8061060F3CA
:10343000C3018DF80610A069C07A08B1012000E030
:1034400000209DF8061060F304118DF80610A069A5
:10345000007A08B1012000E000209DF8061060F31A
:1034600000018DF80610A069807B08B1022000E001
:1034700001209DF8061060F342018DF80610E06906
:1034800008B1E0690C902B4604AA09A93046A2DFD6
:1034900010B070BD014639B10448884204D80448D0
:1034A000884201D9012070470020FCE7B4220020A7
:1034B000C422002070B504460D460020E070401E76
:1034C000E0622946204604F040FA08B1042070BDAD
:1034D00004F22E2003F0DDFA4AF65521884201D08D
:1034E0000320F4E794F83000E92807D094F830007E
:1034F000EB2817D13220005D902813D104F166002B
:1035000003F0BBFA20F07F400749884201D1002038
:10351000DDE704F1820003F0B0FA0449884201D1EA
:103520000020D4E70220D2E74641540046415433FC
:10353000024600E0521C107810B110788842F9D190
:103540001078704770B505460E46002407E055F820
:10355000340003F071FA08B9002070BD641CB44255
:10356000F5D30120F9E700000A49496C81B1094906
:10357000096C084A02EBC1010160114691F8401044
:10358000491C01F0070111641146496C491E516440
:1035900070470000E0310020064902688A4203D0EB
:1035A000016808310160704702493839016000BF85
:1035B000F9E70000183200200178022902D00178D2
:1035C00003290BD106490A6C817D1144044A116418
:1035D00011464A6C817D511A014A516470470000BE
:1035E000E03100202DE9F04104460D464FF6FF760C
:1035F000304684420AD14FF48071284606F0B8FF65
:103600000646B6F5807F0FD126460DE0FF2C0BDC79
:103610002146284606F09CFF07460FB1204601E0F0
:103620004FF6FF70064600BF3046BDE8F08100004F
:1036300070B505460DB9094C01E0084C083409E0A5
:10364000204603F001FA064606B904E028467168F0
:10365000884700BFF4E700BF70BD000010310020B4
:103660000246891E5069801E884201D8002070479A
:103670005389906A01FB0300F9E72DE9F041054603
:103680000E461746002431192A1BD0B23A46FEF7DF
:1036900037FA2044C4B22046BDE8F08170B5064632
:1036A0000D46002429193046FEF739FA2044C4B2E9
:1036B000204670BD2DE9F04782461F48006800286B
:1036C00036D01D480068056807F0F8FD07461B481E
:1036D0000468214638460AF005F9C61C18480078E7
:1036E00008B907F0FDFDAE4201D2284600E03046A1
:1036F000044424F07F44204607F0DAFD07F0DEFDA5
:103700008046394640460AF0EDF800F10309394693
:1037100020460AF0E7F8814509D907F0CFFD814638
:1037200007F0C6FD2F2004F0CDFA0AF033FA01E0CD
:1037300007F0F4FDBDE8F087482200204C2200206D
:103740006022002001460888062808DB0888B0F5BA
:10375000486F06DD08884FF6FF72904201D00720BF
:1037600070474888062808DB4888B0F5486F06DDB2
:1037700048884FF6FF72904201D00720F0E7088892
:103780004FF6FF72904208D04888904205D00888D2
:103790004A88904201DD0720E2E70020E0E72DE9BA
:1037A000F04106460D46144698462088801D404547
:1037B00002D90C20BDE8F0813046FFF7C3FF074671
:1037C00000BF0FB13846F5E700BF052021886854D7
:1037D0002088401C20801220218868542088401CAA
:1037E00020802288511930880AF011FA2188084473
:1037F00020802288511970880AF009FA218808442B
:1038000020800020D6E710B5044600BF2046FDF713
:1038100029FE00BF10BD000030B587B01C216846EE
:10382000FBF723FE002000904FF4203001904FF46E
:103830007020029003208DF80C000020ADF80E00DF
:103840008DF8100009480590094806906846FEF773
:1038500001FC044600BF254625B100BF2846FDF700
:1038600001FE00BF00BF07B030BD0000C1870200ED
:103870000738020038B51B4803F0C0F820BB1A48CF
:10388000007848B119484069E8B100200090174815
:1038900041696846884716E01548007810B9134812
:1038A000456801E0114885680022294611480068F2
:1038B000FDF7BCFF044634B10C48806918B10B48D1
:1038C00081692046884709E00848406930B10120F5
:1038D0000090064841696846884700BF00200249B9
:1038E000087038BDCC210020D42100206C2C002091
:1038F000C821002034E302003EB504462088FEF7CC
:103900000DFCD0B1208810490978FEF7A9FC28B930
:10391000208800220D490978FEF7B4FC2088ADF814
:10392000020005208DF800002088FEF703FC8DF8CA
:103930000400684600F0E4FE05E02088012241F220
:10394000060100F00FFD3EBD1F2200201E220020B8
:1039500010B5012200210846FFF716FC044600BFFF
:103960001CB1072C01D0204610BD00BF0722022148
:103970000120FFF709FC044600BF1CB1072C01D051
:103980002046F1E700BF042202210020FFF7FCFBE4
:10399000044600BF1CB1072C01D02046E4E700BF5D
:1039A0000020E1E72DE9F04782468946DAF8004039
:1039B000B9F1000F06D1E76817B16069B84215D8B0
:1039C000012713E04946504602F0CAFA0646022E85
:1039D00002D20120BDE8F087701C08B93046F9E733
:1039E0006069B04201D93046F4E74F463D4600BF1A
:1039F0006D1C6069A84204D80225BD4201D900208F
:103A0000E8E72946504602F0ABFA064606B909E057
:103A1000012E01D0701C08B93046DBE7BD42E7D16A
:103A20000020D7E700BF00BF4FF0FF3229462046F5
:103A300007F050F88046B8F1000F08D1B9F1000F37
:103A400005D02A464946204607F044F88046B8F19A
:103A5000000F0DD1E560D4E90410801E814202D22E
:103A60002069401E2061207940F00100207107E0AC
:103A7000B8F1010F02D14FF0FF3000E00120054600
:103A80002846A7E72DE9F35F8A46DAF80090009808
:103A900000F120050B222021284603F041FF0020E1
:103AA000804607464FF0080B00BF38467F1C19F8C8
:103AB0000040202C00DC55E02F2C01D05C2C0AD1DA
:103AC00000E07F1C19F807002F28FAD019F807002A
:103AD0005C28F6D046E02E2C01D0D8450CD3BBF1A3
:103AE0000B0F01D02E2C02D00620BDE8FC9F4FF01A
:103AF00008084FF00B0BD8E7812C01DB9F2C03DD6E
:103B0000E02C1CDBFC2C1ADC38467F1C19F800600A
:103B1000402E01DB7E2E03DD802E05DBFC2E03DC38
:103B2000ABF10100404501D80620DEE7404608F130
:103B300001082C54404608F101082E5411E021469A
:103B400014A0FFF7F5FC08B10620CEE7612C04DBDA
:103B50007A2C02DCA4F12000C4B2404608F101082E
:103B60002C54A2E700BF09EB0700CAF80000B8F127
:103B7000000F01D10620B8E72878E52801D10520FB
:103B80002870202C01DC042000E00020E8720020D6
:103B9000ABE70000222A2B2C3A3B3C3D3E3F5B5DCD
:103BA0007C7F000020BF704770B506460D460EB101
:103BB000012070BD287920B1012809D0022813D135
:103BC0000FE0284607F0A8F90446022028710DE00E
:103BD000284601F0FDFA04460A2C01D141F61D5495
:103BE00004E041F61D5401E00F2400BF00BF204651
:103BF000DFE72DE9F04104460E46D4F800800021AD
:103C0000204600F03AF90546EDB9002700BF4046CE
:103C1000A16903F09AFE054605B113E0E06900785A
:103C2000E52802D0E069007820B9781C0746B04248
:103C300001D107E000270121204600F040F80546A9
:103C4000002DE4D000BF042D00D107252846BDE893
:103C5000F0812DE9F041044627680021204600F05C
:103C60000CF9054615B12846BDE8F08100BF38467D
:103C7000A16903F06AFE054605B11DE0E06906781A
:103C80000EB9042518E0E069C07A00F03F00A07189
:103C9000E069C07A00F0080038B90B2204F1200175
:103CA000E06903F01EFE00B906E00021204600F0A6
:103CB00006F80546002DDAD000BF2846D4E72DE9E6
:103CC000F047044689462568206900F12007A0696D
:103CD00010B1B7F5001F02D30420BDE8F087C7F389
:103CE0000800002868D1A069401CA061606938B94B
:103CF0002889B0EB571F5FD80020A0610420ECE7B3
:103D00006889401E00EA5720002855D12046616985
:103D100002F026F90646012E01D80220DDE7701CCC
:103D200008B90120D9E76869B0423FD8B9F1000F5E
:103D300003D10020A0610420CFE720466169FFF78E
:103D400031FE06460EB90720C7E7012E01D1022039
:103D5000C3E7701C08B90120BFE7284609F05AFDE7
:103D600008B10120B9E74FF40072002105F13000DD
:103D700003F0D6FD4FF0000831462846FFF770FCEF
:103D8000E8620CE00120E870284609F043FD08B124
:103D90000120A2E708F10108E86A401CE86268898E
:103DA0004045EFD8E86AA0EB0800E862666131465A
:103DB0002846FFF755FCA0612761C7F3080105F10C
:103DC00030000844E061002087E72DE9F047044611
:103DD00088460425D4F8009027E04846A16903F0FE
:103DE000B4FD054605B123E0E06906780EB9042567
:103DF0001EE0E069C07A00F03F07A771E52E0DD004
:103E00002E2E0BD00F2F09D027F02000082801D12B
:103E1000012000E00020404500D109E000212046BB
:103E2000FFF74DFF054605B102E0A0690028D4D197
:103E300000BF0DB10020A0612846BDE8F08770B535
:103E40000446266801212046FFF7D3FE054695B9B2
:103E50003046A16903F079FD054665B920220021AD
:103E6000E06903F05DFD0B2204F12001E06903F03D
:103E70004AFD0120F070284670BD2DE9F04104464E
:103E80000D462668B5F5001F02D205F01F0010B1DF
:103E90000220BDE8F0812561A7681FB930780328AA
:103EA00000DB776A47B93089B0EB551F01D8022093
:103EB000EFE7706AA0611CE070894FEA402811E0CA
:103EC0003946204602F04CF80746781C08B9012014
:103ED000DFE7022F02D37069B84201D80220D8E789
:103EE000A5EB08054545EBD239463046FFF7B8FB50
:103EF000A0616761A06908B90220CAE7A06900EB68
:103F00005520A061C5F3080106F130000844E061C6
:103F10000020BEE770B5044620793D2802D141F269
:103F20003D0001E04FF488500546208800222946D4
:103F300002F012FF70BD00002DE9F04104463E483A
:103F40000078844202DB0320BDE8F08104EB4400EA
:103F50003A49096851F8200008B90320F4E704EB56
:103F600044003649096801EB8000407A00F0010006
:103F700038B904EB44003149096801EB8000407A0C
:103F8000E2E704EB44002D49096801EB800040683A
:103F900038B92B4804EB4401284A126802EB81012E
:103FA0004860012004EB4401244A126802EB8101BD
:103FB000887204EB44002149096851F82060214FC0
:103FC000306822463946036830469847054600BFA8
:103FD0004DBB07E004EB4401184A126802EB810173
:103FE0004868804704EB44001449096801EB8000ED
:103FF000807A0028EED104EB44001049096801EBF7
:104000008000007A78B904EB44000C49096801EBA0
:104010008000407A20F0010004EB4401074A126856
:1040200002EB8101487204EB44000449096801EB8A
:104030008000407A88E70000A02200209C22002017
:10404000A53B02001D2D0200F8B504460E4615469C
:104050002A480078844201DB0420F8BD26B1012EF5
:104060001BD0022E45D12EE00120009000BF04EBB2
:104070004401234A126852F821006A46002103F0E5
:104080009EFD074617B1112F00D003E09DF80000F8
:104090000028ECD100BF0020DFE704EB4400184902
:1040A000096851F8200008B90320D6E72F4604EB31
:1040B0004401134A126852F8210003F079FD0068A8
:1040C00038600020C9E704EB44000D49096851F845
:1040D000200008B90320C0E72F4604EB4401084A3A
:1040E000126852F8210003F063FD808838800020B8
:1040F000B3E700BF00BF0120AFE70000A02200200F
:104100009C2200202DE9FE4F0446884691461E461B
:104110002F480078844200DA16B90420BDE8FE8FEB
:1041200004EB44002B49096851F8200048B104EB26
:1041300044002849096801EB8000407A00F0010042
:1041400008B10320EAE7CDF800900196CDF8088089
:10415000012004EB44011F4A126802EB81018872BE
:1041600004EB44001B49096851F820506F46286849
:1041700041692846884700683968884201D8072085
:1041800004E0286839468268284690478246BAF19A
:10419000000F1BD107E004EB44010E4A126802EB4A
:1041A00081014868804704EB44000A49096801EB33
:1041B0008000807A0028EED104EB440005490968AC
:1041C00001EB8000007A08B90020A7E70120A5E7ED
:1041D000A02200209C22002001460748007881424E
:1041E00001DB0120704701EB4100044A126802EB39
:1041F0008000407AF6E70000A02200209C220020E8
:104200002DE9FE4F0446884691461E463548007803
:10421000844200DA16B90420BDE8FE8F04EB4400A6
:104220003149096851F8200048B104EB44002E4997
:10423000096801EB8000407A00F0010008B103201A
:10424000EAE704EB44002849096801EB8000407A62
:1042500000F0040008B10220DEE7CDF800900196DE
:10426000CDF80880012104EB44001F4A126802EBDC
:104270008000817204EB44001B49096851F820500A
:104280006F4628684169284688470068396888422F
:1042900001D8072004E028683946C26828469047BC
:1042A0008246BAF1000F1BD107E004EB44010E4A2D
:1042B000126802EB81014868804704EB44000A4918
:1042C000096801EB8000807A0028EED104EB4400FD
:1042D0000549096801EB8000007A08B900209BE7D6
:1042E000012099E7A02200209C220020024A1060B1
:1042F000024B1970704700009C220020A022002071
:10430000014614480078144A127890421DD0114892
:104310000078401C0F4A107010460078022801D126
:10432000002010700D480B4A127850F822000860E7
:104330000B4A086812681044094A10601046006869
:1043400020F07F401060012070470020086000BF0F
:10435000FAE70000582200205922002050220020B5
:104360004C220020FEB504460D461646094A07CAEF
:104370008DE80700ADF80240ADF804508DF80660F6
:104380000022054801782046FDF77CFF684600F0D2
:10439000B7F9FEBDA8E302001E22002010B50446B6
:1043A000A08928DF10BD000013480078062820D11E
:1043B0001148001D007800F00F00D0B90E480830F9
:1043C000007800F0F000302801D1012070470A4841
:1043D0000830007800F0F000402801D10120F5E716
:1043E00005480830007800F0F000502801D1012085
:1043F000ECE70020EAE70000E00F00F00A48007850
:1044000006280ED10848001D007800F00F0040B9C2
:1044100005480830007800F0F000302801D1012074
:1044200070470020FCE70000E00F00F01348007820
:10443000062820D11148001D007800F00F00D0B9E7
:104440000E480830007800F0F000302801D101203B
:1044500070470A480830007800F0F000402801D189
:104460000120F5E705480830007800F0F0005028FA
:1044700001D10120ECE70020EAE70000E00F00F0A6
:104480000A48007806280ED10848001D007800F080
:104490000F0040B905480830007800F0F0003028DF
:1044A00001D1012070470020FCE70000E00F00F080
:1044B00013480078062820D11148001D007800F02C
:1044C0000F00D0B90E480830007800F0F000302816
:1044D00001D1012070470A480830007800F0F00050
:1044E000402801D10120F5E705480830007800F0A8
:1044F000F000502801D10120ECE70020EAE700009D
:10450000E00F00F00A48007806280ED10848001D88
:10451000007800F00F0040B905480830007800F03E
:10452000F000302801D1012070470020FCE7000096
:10453000E00F00F00A48007806280ED10848001D58
:10454000007800F00F0040B905480830007800F00E
:10455000F000302801D1012070470020FCE7000066
:10456000E00F00F00A48007806280ED10848001D28
:10457000007800F00F0040B905480830007800F0DE
:10458000F000502801D1012070470020FCE7000016
:10459000E00F00F00278072A34D2DFE802F033049B
:1045A00007102029300000220A702CE001220A7036
:1045B00003898B818388CB81C2688A6023E00222D1
:1045C0000A7003898B818388CB81C2688A60027CF0
:1045D000062A01D1012300E000230B7413E003221B
:1045E0000A70C3888B810389CB81C2688A600AE024
:1045F00004220A70C3888B810023CB8103E005224B
:104600000A7000E000BF00BF7047000070B50546AB
:10461000002409E0064850F8240020B1044850F86E
:10462000241028468847641C082CF3D370BD000072
:10463000483100203EB505460C46DCB1112C19D09E
:104640000020009001900290ADF8025001940D2CD2
:1046500003D10B208DF8000008E0862C03D10A203E
:104660008DF8000002E009208DF80000684600F097
:1046700057F800BF3EBD000070B50546002405E0B8
:10468000044850F8241028468847641C002CF7D0B2
:1046900070BD0000D821002070B50546002405E05B
:1046A000044850F8241028468847641C002CF7D092
:1046B00070BD0000E421002070B50546002405E02F
:1046C000044850F8241028468847641C022CF7D36D
:1046D00070BD000050E3020070B50546002405E0FF
:1046E000054850F8241028468847641C0348007881
:1046F0008442F5DB70BD0000BC3000201A2200208F
:1047000070B50546002405E0044850F824102846FA
:104710008847641C022CF7D370BD000070E30200D0
:1047200070B50546002405E0044850F824102846DA
:104730008847641C002CF7D070BD0000B4E3020071
:10474000F0B5034600241FE0124E306806689E4212
:1047500003D90668F61A06601AE006689B1B06680D
:104760003444002606600B4E35680A4FC6693E6029
:10477000C66846B10E1926F07F464660C668866058
:104780001668C661156000BF024800680028DBD1CA
:1047900000BFF0BD4822002038B50546284600F08D
:1047A00093F904463CB96946284609F07CFB044667
:1047B0000CB900202860204638BD0000F7B582B053
:1047C00016460398019001A801F09AFC0546002DB9
:1047D00002DA0B2005B0F0BD0E4850F825400CB1B0
:1047E00000202070029810B1002002990870094939
:1047F000029841F82500029808B1012E01D000204E
:10480000E8E7002202A903A800F00EFD074638469B
:10481000E0E70000A42200202DE9F74F8EB0044607
:1048200016461CB9092011B0BDE8F08F06F03F060E
:10483000324602A90FA800F0F7FC0546002D6FD103
:104840000298039003A80F9900F035FF05462DB993
:104850009DF8370000F0800000B1062506F01C002E
:10486000002855D045B1042D03D103A8FFF7E7FA7E
:10487000054646F008060AE09DF8120000F0110017
:1048800008B1072503E006F0040000B10825002D5B
:1048900050D106F0080000284CD05A4801900A99DF
:1048A00001F10E00019908F041FF0A9901F116008B
:1048B000019908F03BFF20200A99C8720A990298D2
:1048C00002F0C8F8814600220A99029808F01CFFFD
:1048D0000A9901F11C00002108F028FF012002992B
:1048E000C870B9F1000F25D00298C06A019000226B
:1048F000494603A806F08EFC0546DDB9DDE9011046
:1049000003F023F80546A9F101000299C86011E0FF
:1049100085B99DF8120000F0100010B1042509E0DF
:104920005DE006F0020028B19DF8120000F00100E1
:1049300000B107254DB906F0080008B146F0400661
:104940000298C06A20620A986062002D55D10A99C7
:10495000029802F07FF8A0600A9901F11C0002F0B1
:104960008CF8E060029820600298C088A0802674CD
:1049700000206074E06160614FF40072002104F176
:10498000280002F0CDFF06F0200040B3E06830B30D
:10499000E0686061029840894FEA402AA768D4F82D
:1049A0000C800CE03946204601F0DAFA0746012F68
:1049B00000D80225781C00B90125A8EB0A080DB91A
:1049C000D045EFD8A76155B9C8F3080038B13946CA
:1049D0000298FEF745FEB0F1000B01D102250CE074
:1049E0000BEB5820E061E26902994878012304F159
:1049F0002801FFF787FB00B101250DB100202060E1
:104A0000284610E70000214873B582B0064616B963
:104A1000092004B070BD3546002201A903A800F0AA
:104A200003FC04461CBB019828603046039900F043
:104A300042FE0446C4B92B20805D00F0800050B9CE
:104A4000A87900F0100028B1F169019802F002F88D
:104A5000A86000E005243CB90198C088A880002126
:104A60003046FFF70AFA0446042C00D105240CB1A5
:104A7000002028602046CCE7F8B506460D4669467A
:104A8000304609F010FA0446DCB92DB90021304651
:104A9000FFF7F3F9044614E000213046FFF795F9DB
:104AA0000446042C00D100245CB92946304601F0AC
:104AB000C7FA00213046FFF702F90446042C00D162
:104AC00000242046F8BD0000F8B50446694620469B
:104AD00009F0E9F90646002E42D1207C00F04000A2
:104AE00000283DD0207C00F0800070B1E269009980
:104AF0004878012304F12801FFF782FB08B1012067
:104B0000F8BD207C00F07F002074164F216A0098C9
:104B100002F01BFF06461EBB656AE87A40F02000E3
:104B2000E8722946A268206808F0EEFD05F11C0035
:104B3000E16808F0FBFD394605F1160008F0F6FDC6
:104B4000002105F1120008F0FDFD01200099C87058
:104B5000009808F017FE0646207C00F0BF00207485
:104B60003046CDE7000021482DE9FF4F83B00446D1
:104B700015469B46049800900020CBF8000001A940
:104B8000204609F090F90290029810B9607C0290DA
:104B900018B1029807B0BDE8F08F207C00F0020049
:104BA00008B90720F6E700BF6069284461698842B8
:104BB00002D26069C0F1FF35BBE0A08AC0F30800F3
:104BC000002875D101984089401E616900EA512A88
:104BD000BAF1000F1ED1606938B9A76857B9002132
:104BE0002046FEF7DFFE074604E02046A169FEF7F7
:104BF000D9FE074607B99FE0012F02D10220607459
:104C0000C8E7781C10B901206074C3E7A761A068E9
:104C100000B9A760207C00F0800078B1E2690199BA
:104C20004878012304F12801FFF7EAFA10B10120C6
:104C30006074AFE7207C00F07F002074A1690198C8
:104C4000FEF70EFD064616B902206074A2E7564430
:104C50004FEA5529B9F1000F2BD00AEB0900019951
:104C60004989884203D901984089A0EB0A09019932
:104C700048784B4632460099FFF7C2FA10B101203E
:104C8000607487E7E069801B48450ED2E069801BAD
:104C9000009A02EB40214FF4007204F1280002F068
:104CA00032FE207C00F07F0020744FEA49282BE080
:104CB00013E0E069B0420FD0E168606988420BD22E
:104CC000019948780123324604F12801FFF71AFAC6
:104CD00010B1012060745DE7E661A08AC0F30800AE
:104CE000C0F50078A84500D9A846A18AC1F30802FA
:104CF00004F1280150184246009902F004FE207C7D
:104D000040F08000207400BF00984044009060692B
:104D100040446061E1686069884201D9606900E0EF
:104D2000E068E060DBF800004044CBF80000A5EB51
:104D30000805002D7FF441AF00BF207C40F040000B
:104D40002074002026E7000010B5044620780528CE
:104D500003D102A10020FBF719FE10BD47432063D9
:104D60006F6D706C657465640A0000001FB50446C1
:104D7000606808B9012000E0002003902078062830
:104D80007BD2DFE800F0820304304F7B00BFA089B4
:104D900000F03DFA18B9E08906F0CFF910B3A08908
:104DA00000F030FAADF80200E08906F0C3F98DF8A2
