:020000040001F9
:10F00000104F002015F401001DF401001FF4010051
:10F0100021F4010023F4010025F4010000000000A8
:10F0200000000000000000000000000027F40100C4
:10F0300029F40100000000002BF401002DF4010070
:10F0400099F901002FF4010065FD01002FF4010082
:10F050002FF401002FF40100C5F601002FF4010088
:10F060002FF401002FF401002FF401002FF4010010
:10F070002FF401002FF401002FF401002FF4010000
:10F080002FF40100E9F901002FF401002FF4010031
:10F09000FFFA01002FF4010009FB01002FF4010029
:10F0A0002FF401002FF401002FF401002FF40100D0
:10F0B0002FF401002FF40100000000000000000008
:10F0C0002FF401002FF401002FF401002FF40100B0
:10F0D0002FF401002FF401002FF4010000000000C4
:10F0E0000000000000000000000000000000000020
:10F0F0000000000000000000000000000000000010
:10F1000000000000000000000000000000000000FF
:10F1100000000000000000000000000000000000EF
:10F40000DFF80CD000F05AF800480047C93F02006E
:10F41000104F00200648804706480047FEE7FEE7F9
:10F42000FEE7FEE7FEE7FEE7FEE7FEE7FEE7FEE7B4
:10F4300049FB010001F4010040EA01039B0703D0EE
:10F4400009E008C9121F08C0042AFAD203E011F823
:10F45000013B00F8013B521EF9D27047D2B201E0E5
:10F4600000F8012B491EFBD270470022F6E710B5C9
:10F4700013460A4604461946FFF7F0FF204610BD22
:10F48000421C10F8011B0029FBD1801A704730B5CF
:10F4900004460020034600E05B1C934203D2E05C7C
:10F4A000CD5C401BF8D030BD034611F8012B00F8AD
:10F4B000012B002AF9D1184670470000064C074D71
:10F4C00006E0E06840F0010394E807009847103434
:10F4D000AC42F6D3FFF798FF448B0200648B020026
:10F4E00070B58C1810F8015B15F0070301D110F806
:10F4F000013B2A1106D110F8012B03E010F8016B33
:10F5000001F8016B5B1EF9D12B0705D40023521EB5
:10F510000DD401F8013BFAE710F8013BCB1A921C1D
:10F5200003E013F8015B01F8015B521EF9D5A1421B
:10F53000D8D3002070BD000030B502461E205149CE
:10F5400008601F204F490839086000204D49583194
:10F550000860B2F5614F47D014DCB2F5165F34D0C5
:10F5600009DCB2F5966F1FD0B2F5166F22D0B2F556
:10F57000965F58D124E0B2F5964F2BD0B2F5164FD6
:10F5800051D12CE0B2F5E12F3DD006DCB2F5E13FE0
:10F590002FD0B2F5613F46D130E0B2F5612F37D0C0
:10F5A00039481044F8B938E04FF49E2035491031FD
:10F5B000086038E04FF41D2032491031086032E015
:10F5C00032483049103108602DE031482D49103162
:10F5D000086028E02F482B491031086023E02E48AE
:10F5E0002849103108601EE02C4826491031086077
:10F5F00019E02B4823491031086014E029482149BB
:10F60000103108600FE028481E49103108600AE0F8
:10F6100026481C491031086005E04FF08050194918
:10F620001031086000BF00BF4FF0FF302049086074
:10F6300004202049C1F8040312491439086002204B
:10F64000012181401C4B440943F8241000BF0321D1
:10F65000002807DA4B071D0E184B00F00F04241F7B
:10F660001D5503E04B071C0E154B1C5400BF022018
:10F670000121814043099B0003F1E023C3F80011FD
:10F6800000BF30BD14250040C0BDF0FF00B0130026
:10F690000050270000A04E0000509D0000F0EB003D
:10F6A00000E0D70100B0AF0300705F0700D0BE0ECE
:10F6B000082300400020004080E200E018ED00E058
:10F6C00000E400E02DE9F04F89B04FF00008002081
:10F6D00008904FF4807007900126002413E00798EB
:10F6E00005F024F948B100BF81480068304020B1DE
:10F6F000079805F00DF948EA060876000798001DFE
:10F7000080B20790641C082CE9D34FF4BE7005F05A
:10F710000DF950B14FF4BE7005F0FAF848F000480A
:10F7200008AA0121002005F0D9F808F0FF0000B375
:10F73000012600241BE006EA0800B0B100BF6D48B6
:10F7400050F82400C0F30420074600BF694850F871
:10F750002400C0F301408146204601F08DFF05469C
:10F7600015B149463846A84700BF7600641C082CEE
:10F77000E1D308F0004000287ED0002006900590DC
:10F78000002505E04FF0FF3004A941F825006D1C6D
:10F79000002DF7D000BF0020069000246FE05648EF
:10F7A000005D0390039820F0C00753480057401CA9
:10F7B000002863D004A9384604F04CFD00285DD031
:10F7C00003984FEA901A384601F09EFF814601F0F7
:10F7D00053FF0290029810B9BAF1030F4BD1BAF15E
:10F7E000030F11D1394605A80246CB0801F00701E5
:10F7F00012F803C04FF0010E0EFA01FE4CEA0E0C97
:10F8000002F803C000BF00BF00BF00BF4FF0A0411F
:10F81000084600F5E06151F82710C1F3014900BF27
:10F8200008A9384604F016FD8346BBF1000F02D04C
:10F83000B9F1020F05D0BBF1000F1BD1B9F1030FD5
:10F8400018D1BAF1030F0FD1B9F1020F01D1032082
:10F8500000E0022001903846019904F0E6FF069886
:10F86000401CC0B2069000BF029818B151463846FD
:10F87000029A904700BF00E036E000BF641C042CF1
:10F880008DD3069858B3012703AA0121002005F063
:10F8900025F800250AE003A850F8250008A951F82A
:10F8A0002510884201D0002702E06D1C002DF2D007
:10F8B00000BF17B10020069010E000250CE003A85F
:10F8C00050F8250008A941F8250005A850F82500A2
:10F8D00004A941F825006D1C002DF0D000BF06984A
:10F8E00000287FF458AF00BF09B0BDE8F08F0000DA
:10F8F0000463004010650040A02A002000F01F02B1
:10F9000001219140024A430942F823107047000048
:10F9100080E200E000F01F0201219140024A430909
:10F9200042F823107047000080E100E000F01F0261
:10F93000012191404209920002F1E022C2F8001137
:10F94000704700F01F02012191404209920002F12C
:10F95000E022C2F80011704700F01F02012191401F
:10F96000024A430942F823107047000000E200E019
:10F9700010B5002807DA4A07140E054A00F00F03F5
:10F980001B1FD45403E04A07130E024A135410BD40
:10F9900018ED00E000E400E010B54FF4807004F0D2
:10F9A000CAFC60B14FF4807004F0CEFC012004F07A
:10F9B000D5FC01200B494870002002F015F84FF4E7
:10F9C000827004F0B8FC58B14FF4827004F0BCFCB3
:10F9D000022004F0C3FC01200249887002F004F800
:10F9E00010BD00003C2A002010B500200949086025
:10F9F00000210948C0F84411C0F84811C0F84C1162
:10FA000000200549C1F8000102493C39086008F0AE
:10FA100077FC10BD40110140001001402DE9FC4170
:10FA200004460D46164600BF0C48007808B900F0A1
:10FA3000B9F900BF002001900090684600F012FD67
:10FA400032462946204600F00BF8074600BF9DF8D5
:10FA5000000000F00DFD3846BDE8FC81882C002038
:10FA60002DE9F047074688461646C24607EB470190
:10FA70001B4800EBC109D9F8140020B1012811D0AE
:10FA8000022826D11EE0484600F0C2F90546B542DC
:10FA900001D2002405E0344632465146484600F083
:10FAA000FEF918E0484600F0B3F90546B54201D228
:10FAB000284600E03046044622465146484600F0BB
:10FAC000EEF908E032465146484600F0AFF90446E8
:10FAD00001E0002400BF00BF2046BDE8F087000021
:10FAE000A02C002070B505460C462046FFF7C8FC48
:10FAF0000646324621462846FFF790FF70BD10B5F6
:10FB000008F014FB10BD000070B50A48006868B129
:10FB1000084800688047044600BF254625B100BF5D
:10FB2000284600F0EBFB00BF00BF01E003F01CFE25
:10FB300070BD00002C220020014802490860704777
:10FB40000090D0035021002010B502F091F910B1BF
:10FB500076487749486702F0A3F928B175480068EC
:10FB6000C0F342307449086002F0C4F928B1734808
:10FB7000006820F080707149086002F0D3F948B144
:10FB800000206F4908604FF08041C1F810016A49B8
:10FB9000091F086002F0F0F918B1032066496431CA
:10FBA000086002F001FA68B105206649086001208A
:10FBB00064497831086000206249083108603F20BC
:10FBC000091F086002F008FA002855D05E48006856
:10FBD0005E4908605C48001D0068091D08605A48BD
:10FBE00008300068091D086057480C300068091D7E
:10FBF0000860554810300068091D086052481430EC
:10FC00000068091D08605048183000684F492031CD
:10FC100008604D481C300068091D08604A482030C3
:10FC20000068091D0860484824300068091D086004
:10FC3000454828300068091D086043482C3000689A
:10FC4000091D086040483030006840494031086074
:10FC50003D4834300068091D08603B483830006872
:10FC6000091D086038483C300068091D08603648A6
:10FC700040300068091D086002F0D0F830B12D480E
:10FC80001430006800F04F00314908602B48743888
:10FC9000006840F47000294974390860BFF34F8F41
:10FCA000BFF36F8F2B48006800F0004028B9294847
:10FCB000001D006800F0004098B30120264908604C
:10FCC00000BF264800680028FBD0152021490860A5
:10FCD00000BF224800680028FBD015211D48001DE8
:10FCE000016000BF1D4800680028FBD000201A49B1
:10FCF000086000BF194800680028FBD000BFBFF3B0
:10FD00004F8F0E48F038006800F4E0601449084353
:10FD1000001D0A49F0390860BFF34F8F00BF00BFD4
:10FD2000FEE7FFE7FFF708FF10BD00000DF0ADBADA
:10FD300000C00740440200103C050040FCED00E01C
:10FD40000C010040105600400404001020C5004083
:10FD5000E40E00400012001004E5014000E4014000
:10FD60000000FA050A480068012810D1002008495F
:10FD70000860084800680849084A128888540748FB
:10FD80000088401C0549088001200549087070471B
:10FD90000821004018250040002D002044220020AA
:10FDA0004622002010B5114C02202061606110A095
:10FDB000A0611249E161402121620021A1626162DA
:10FDC000E1620BA0A0640E49E164102121650021CD
:10FDD000A1656165E1650BA1E01DFFF765FB0AA167
:10FDE0002046FFF761FB2020A07110BD882C002069
:10FDF0005465726D696E616C00000000382C002043
:10FE0000782C002052545400534547474552000077
:10FE100010B501460A69CB689A4204D88C68641E02
:10FE2000E41AA01801E0D41A601E10BD2DE9F047B5
:10FE30000446894617464FF0000AE56800BFD4F82B
:10FE40001080A84503D9A8EB0500461E04E0A5EBE9
:10FE50000800401CA1680E1AA068401BB04201D9DE
:10FE6000304601E0A068401B0646BE4201D2304643
:10FE700000E0384606466168481932464946FFF7B1
:10FE8000DBFAB244B144BF1B3544A068A84200D19C
:10FE90000025E560002FD2D15046BDE8F0872DE95E
:10FEA000F047044689461546E668A068871BAF42BE
:10FEB00008D9616888192A464946FFF7BDFA7019C2
:10FEC000E06010E0B8466168881942464946FFF78D
:10FED000B3FAA5EB070809EB070142466068FFF794
:10FEE000ABFAC4F80C80BDE8F08702E008C8121F26
:10FEF00008C1002AFAD170477047002001E001C113
:10FF0000121F002AFBD170470146202908DA012080
:10FF100088400A4A104008B1012070470020FCE7E1
:10FF2000402909DAA1F12000012202FA00F008B10B
:10FF30000120F2E70020F0E70120EEE7FC06FFBC1D
:10FF400000BFEFF31081084672B6704770B50546E2
:10FF50000C4605B10CB9002070BD28784008217806
:10FF6000B0EB510F01D00020F6E70622611C681C9F
:10FF7000FFF78DFA08B90120EEE70020ECE7024612
:10FF8000002104E0505C08B101207047491C06299B
:10FF9000F8D30020F9E7000010B504466CB108481A
:10FFA0000068A04209D806484068A04205D3204610
:10FFB00003F0AAFC08B1012010BD0020FCE70000FE
:10FFC000482200202DE9FC410446884616460025BB
:10FFD00037880020308094F82D0058B13A463146D9
:10FFE000404600F0F3FE054600BF15B12846BDE8C7
:10FFF000FC8100BFA07850B13A463146404600F03F
:020000040002F8
:100000005BFA054600BF0DB12846F0E700BFE07877
:1000100060B1E17848B23B463246414602F094FB7B
:10002000054600BF0DB12846E1E700BF606868B132
:10003000616891F900003B463246414608F0C8F934
:10004000054600BF0DB12846D1E700BF2089002832
:100050000EDD43460622022104F10800CDE90067C7
:1000600008F08EFA054600BF0DB12846BFE700BF75
:10007000208A00280EDD43460722032104F11000E8
:10008000CDE9006708F07CFA054600BF0DB12846AF
:10009000ADE700BF208B00280EDD4346152214215A
:1000A00004F11800CDE9006708F06AFA054600BFC0
:1000B0000DB128469BE700BF206A58B13B46324647
:1000C0004146206A01F01DFD054600BF0DB12846DE
:1000D0008DE700BF606A58B13B4632464146606AD0
:1000E00003F0CAFF054600BF0DB128467FE700BFF9
:1000F00094F82C0000280BDD3B4632464146204652
:1001000007F076FB054600BF0DB128466FE700BF3C
:10011000207858B13B4632464146204603F0E7FF7F
:10012000054600BF0DB1284661E700BF28465EE7DF
:1001300070B504461448FFF722FF0546012C06D08F
:10014000022C0BD0032C10D0042C1AD113E00F4832
:10015000407810B10DB1012070BD00BF0B48807810
:1001600010B10DB10220F7E700BF0848C07808B110
:100170000320F1E700BF0548007908B10420EBE750
:1001800000BF0020E8E7000059210020EC240020F7
:100190000146481C052290FBF2F302FB1300C0B29B
:1001A00070470146C87800F0040008B9072070477E
:1001B0000020FCE710B501220221002000F0FAFF28
:1001C000044600BF1CB1072C01D0204610BD00BF63
:1001D00007220221012000F0EDFF044600BF1CB100
:1001E000072C01D02046F1E700BF0A220021084673
:1001F00000F0E0FF044600BF1CB1072C01D02046F0
:10020000E4E700BF0020E1E730B599B03C210AA83F
:10021000FFF72BF902208DF8280001208DF82A0025
:1002200006208DF82B000120ADF8380010490F9101
:10023000202102A8FFF719F901208DF80B004FF4D7
:10024000FA6006904010079000200A4B02AA01466F
:1002500000900AA800F04EFA044600BF254625B1DA
:1002600000BF284600F04AF800BF00BF19B030BDFB
:100270002A2100205149020070B58CB004460D4679
:100280001646002005E0C0F10F01615C0DF800107A
:10029000401C1028F7D30D2104A8FFF7E6F8002032
:1002A00005E02A5CC0F10F0304A9CA54401C0328CE
:1002B000F7D3684643DF002005E0C0F10F0208A92C
:1002C000895C3154401C0328F7D30CB070BD00008A
:1002D00000BFBFF34F8F0748006800F4E060064995
:1002E0000843001D03490860BFF34F8F00BF00BFE4
:1002F000FEE700000CED00E00000FA053EB5044604
:10030000002000900190029002946A46002144F27D
:100310000100FFF7DDFF3EBD10B503460C4600BFF0
:100320000B48406808B9082010BD00BF0AB9072073
:10033000FAE70BB90720F7E71868007C08B1082036
:10034000F2E71968002008744C744A6100BFEBE7BB
:10035000EC2100202DE9F04107460D4614461E46CB
:10036000204600F0030109B9012100E0002111B984
:100370000720BDE8F0810CB90720FAE706F0ACFED3
:1003800011480660002011490870487008468570C1
:10039000446000200E4908600E4908700E4908703C
:1003A0001420FFF7ABFA07211420FFF7E1FA14201D
:1003B000FFF7BCFA384606F065FE06F05DFE074919
:1003C00008600020D5E7000008220020EC21002072
:1003D000F42100200422002005220020F821002022
:1003E0002DE9F04104460E461746254600BF104849
:1003F000406810B90820BDE8F08100BF0CB90820A2
:10040000F9E7052E01D20720F5E7686908B9082049
:10041000F1E7687C012801D1304600E000208046E9
:100420003B4642463146284607F01AFFE3E7000004
:10043000EC21002070B50446254600BF08484068FE
:1004400008B9082070BD00BF0CB1686908B9082060
:10045000F8E7002028740221284607F030FFF1E772
:10046000EC21002010B50446204606F0A7FE10BD82
:1004700070B5044625460E488068B0B1ADB9FFF7A7
:100480005FFD06460A4800680A4908600848406857
:100490004FF0E021C1F804010020054988601EB931
:1004A00000BF62B600BF00BF00BF00BF70BD00004C
:1004B000A82A002000E100E0F8B505460C461746E2
:1004C0002088001DB84201D90C20F8BD684679DFAC
:1004D000064600BF0EB13046F7E700BF0320218873
:1004E00068542088401C2080192021886854208866
:1004F000401C208020884119BDF8000007F089FFCA
:100500002188084420800020DFE7704730B58BB099
:100510001348007800F028FC0546284606F082FEC5
:10052000D8B101A800F080FB142201A906A8FEF7AB
:1005300083FF00240DE007A931F814000849097869
:1005400000F020FC20B107A931F8140003F076FC7C
:10055000641C0698A042EED800BF0BB030BD00006E
:100560009221002010B50446637903F0030221793B
:10057000208803F033FB10BD10B50446207918B96C
:10058000204600F007F803E02046FFF7EBFF00BF2E
:1005900000BF10BD2DE9F04188B004460025208839
:1005A00000F0B4FB0746208802F0FCFF0646A06876
:1005B0000790607A0690208800222349097800F08D
:1005C000F3FB17B908B0BDE8F0816079C0F3800093
:1005D00090B10721304605F05DF90546BDB1082010
:1005E0008DF800002088ADF80200ADF80460029597
:1005F000684601F0BFFD0AE020881449097800F040
:10060000C1FB20B1304602F0B7FF804600BF032097
:100610008DF80C002088ADF80E006079C0F38000E2
:100620008DF81000A079C0F380018DF811109DF8AD
:100630001C108DF812109DF818108DF8131003A8D7
:1006400001F098FD00BFBDE7D2210020D421002099
:1006500030B50246002015780446401C0D5530BDCB
:100660002DE9F04192B080460D461F201190109068
:10067000B8F1000F17D04046FFF793FD044600BFC6
:100680001CB1204612B0BDE8F08100BF11AA08A934
:100690004046FFF797FC044600BF0CB12046F1E747
:1006A00000BF08AE02E0002600201190ADB1284640
:1006B00007F0F2FC044600BF0CB12046E2E700BFA1
:1006C00010AA69462846FFF77DFC044600BF0CB11E
:1006D0002046D7E700BF6F4602E0002700201090B9
:1006E000BDF84000C3B2BDF84400C1B23A4630463E
:1006F00072DFC7E72DE9F04704460F4615461E4650
:10070000DDF8208004B115B90E20BDE8F087012086
:100710004849087000204849087020222946474867
:10072000FEF78AFE464806604648C0F800804FF64D
:10073000FF70454908804548002101608180817132
:100740003C214348FEF791FE207841490870A0788B
:100750008870E078C87060784870D4E90402C1E914
:1007600004020846D4E90212C0E90212D4E90612D2
:10077000C0E90612606AD8B1364835494862364940
:100780008160606A00883249496A0880606A8088AE
:100790002F49496A8880002005E0616A8968095C00
:1007A0002D4A1154401C2A49496A89888142F4D84B
:1007B000A06A20B329492A488160254988622749CF
:1007C0002348806A8160A06A80882149896A88807C
:1007D000A06A00881E49896A0880002005E0A16A95
:1007E0008968095C1D4A1154401C1949896A898825
:1007F0008142F4D894F82C00154981F82C00206A25
:1008000058B1184812490862206A4088096A48802D
:10081000206A00880E49096A0880606810B10C4996
:100820006068486039460A48FFF71AFF8146484623
:100830006BE700005421002057210020EC24002009
:10084000682100206C210020642100205821002014
:100850000C2500204825002054250020802500205C
:10086000742500206021002010B50446208810283F
:1008700004D0112806D01B280CD107E0204604F034
:10088000EFF908E0204604F019FA04E0204604F0ED
:1008900065FB00E000BF00BF10BD000070B505465D
:1008A000022D02D0032D15D100E000BF0B480078C7
:1008B00078B10020094908700948007800F014F860
:1008C000044634B10748006818B120460549096854
:1008D000884700E000BF00BF70BD00005521002028
:1008E000572100206C2100207FB505464D48007837
:1008F00010B9082004B070BD4B48057001F08EFFA0
:1009000020B10120494908700020F3E74848002140
:100910000160818081714748407818B14248007871
:1009200001280DD04348807818B13F48007801284D
:1009300006D04048807888B13B48007802280DD125
:100940003D48006838B101203C49087008203A4908
:100950000968884702E00020384908702846FFF7F8
:10096000E7FB3149087034480068C0B10846007898
:10097000032803D008460078042810D12D480078B9
:1009800068B12F48007850B900202E490870012026
:100990002D490870072028490968884702E000208F
:1009A00029490870002000900190029003908DF872
:1009B00000008DF808001C48007805281CD2DFE8EC
:1009C00000F01703080D1200684606F085FF044684
:1009D00013E0684606F090FF04460EE0684606F015
:1009E000A1FF044609E0684606F0CCFF044604E097
:1009F00000201649087000E000BF00BF0A480078D8
:100A000028B1684673DF04460CB1204672E70A48F5
:100A1000006820B10D480078074909688847002020
:100A200068E70000542100205721002055210020B4
:100A300058210020EC240020682100205F210020A4
:100A400070210020722100207121002056210020F9
:100A500070B594B004460D46286820604FF6FF70CC
:100A6000208300BF01208DF84E0041F60F00ADF845
:100A70004C0000BF221D13A90120A0DF064616B1BD
:100A8000304614B070BDD5F806001090D5F80A00B5
:100A90001190E889ADF848002879A071202103A8B9
:100AA000FEF7E3FC42F61920ADF80C001420ADF877
:100AB00010000BA910A8FFF7CBFDADF812000BA892
:100AC0000590A1799DF8190061F304108DF81900C3
:100AD0009DF8190020F00200801C8DF819000120FB
:100AE0008DF81D008DF81F008DF818000020019072
:100AF00002900A208DF804000120ADF80A00FE20C3
:100B00008DF8050001208DF8080042F20270ADF862
:100B1000060001A80A90A08804F1080203A900F0C9
:100B2000F9FD06460EB13046ABE70020A9E770B5E7
:100B300005460C462088102806D0112809D05028D8
:100B40000CD0512814D10EE02146284604F068F854
:100B50000FE02146284604F08DF80AE0A11D284642
:100B600004F034FA05E0211D284604F0C8F900E03D
:100B700000BF00BF70BD000070B505461C222946AD
:100B80001248FEF759FC002011490870286850B13E
:100B9000104829680A680260496841607ADF0446A3
:100BA0003CB1204670BD0B487BDF04460CB12046AB
:100BB000F8E74FF6FF7008490880002007490870E1
:100BC000074A00210748FFF7A7FBEBE7A025002015
:100BD00088210020742100207E2100207C2100201B
:100BE00079840200648A020010B504462088102827
:100BF00006D0112808D012280ED0502810D107E0B6
:100C0000204604F011F80CE0204604F037F808E024
:100C1000204604F0F7F904E0204603F0F5FF00E079
:100C200000BF00BF10BD000010B504460348027DA0
:100C3000011D204606F06FFB10BD0000DC250020E2
:100C400010B504460348C17D2246001D06F04CFB4A
:100C500010BD0000DC25002010B504460348017ECD
:100C60002246001D06F040FB10BD0000DC250020E0
:100C700070B504462088102804D011281DD01A28E9
:100C800040D11EE006F092F9A08806F007F820B9DE
:100C900000BF0420FFF732FB0EE0E07B022801D109
:100CA000012000E000200546A2882B461649A1F14C
:100CB000120006F051FB00BF24E0A08806F098F96E
:100CC00020E0207A0121B1EB101F01DA012000E0C1
:100CD00000200346A2880C49491CA1F1130006F02C
:100CE0003BFB207A0221B1EB101F01DA012000E06A
:100CF00000200346A2880449891CA1F1140006F0D3
:100D00002BFB00BF00BF70BDF225002070B504466C
:100D100000250B48017D2246001D06F0E5FA60B172
:100D20000748817D2246001D06F0DEFA06460EB118
:100D3000022000E00120054600BF284670BD0000EB
:100D4000DC25002010B500240AE0204607F0E6FB71
:100D500020B9204607F0D8FB204610BD601CC4B265
:100D6000182CF2DB1820F8E710B50446204607F0EF
:100D7000D5FB10B10248005D10BD0020FCE700006B
:100D8000F525002070B505460C46204607F0C6FB49
:100D900030B10448015D2A46153806F0A5FA70BD49
:100DA0000020FCE7F525002070B505460C461646E8
:100DB000204607F0B3FB30B10348011933462A46F9
:100DC000153806F0C9FA70BDF52500202DE9FC4163
:100DD00005460C46174620880930B84202D90C2037
:100DE000BDE8FC8168466DDF064600BF0EB13046A7
:100DF000F6E700BF0820218868542088401C208026
:100E00001B20218868542088401C2080208828448A
:100E1000DDF801100160BDF8051081802088801D7B
:100E200020809DF80000400818B9002021886854EF
:100E300002E00120218868542088401C2080002086
:100E4000CEE7000010B504462046FFF711FF20460C
:100E500005F0BEFB2046FFF7C7FE204600F006F96E
:100E60002046FFF701FD204603F012FE204600F069
:100E700089F82146014803F025FA10BD58220020C8
:100E800070B50446204607F0BEFA054605F001009D
:100E900070BD000070B588B027480068079000BF9B
:100EA00000235022254907A807F096F8054600BF01
:100EB0002E4626B100BF3046FFF720FA00BF00BF24
:100EC00000BF6A460121002007F066F8044600BF13
:100ED000254625B100BF2846FFF710FA00BF00BF26
:100EE0001720ADF81000684607F042F8044600BF2E
:100EF000254625B100BF2846FFF700FA00BF00BF16
:100F00000F4807F029F8044600BF254625B100BF69
:100F10002846FFF7F3F900BF00BF0A4807F0B0F812
:100F2000044600BF254625B100BF2846FFF7E6F975
:100F300000BF00BF08B070BD288A02001424002042
:100F4000450E0200D98002001FB5002000900190DC
:100F5000029003900948009001208DF804000020C1
:100F60008DF8060069460648FFF772FD044614B185
:100F7000204604B010BD0020FBE70000A14902009C
:100F80006424002010B5044621460248FFF7CFFD37
:100F900010BD00006424002010B502460949885C99
:100FA00000BF4FF0A0442146D1F80435012484400D
:100FB0009C43C1F80845012484401C40C1F80C45FD
:100FC00000BF10BD308A020010B504460249085D1A
:100FD000012103F065FC10BD308A020010B5044603
:100FE0000249085D002103F05BFC10BD308A02005D
:100FF00010B50146094B585C00BF4FF0A044234692
:1010000000BFD3F80445C44004F001040CB1012032
:1010100000E00020024682F0010010BD308A02008C
:1010200010B5002403E02046FFF7CEFF641C042C1B
:10103000F9D310BD10B5002403E02046FFF7CEFF22
:10104000641C042CF9D310BD02464FF0FF30002180
:1010500006E0054B5B5C934201D1084602E0491C67
:101060000429F6D300BF7047348A020070B50546E4
:101070002888102802D011282CD115E017480068C4
:1010800060B900F017FE044600BF34B11448006890
:1010900018B1204612490968884700BF0F48006808
:1010A000401C0E49086016E00C480068401E0B49C1
:1010B00008600846006860B9FFF77CF8044600BF86
:1010C00034B10748006818B12046054909688847C7
:1010D00000BF00E000BF00BF70BD00004C21002039
:1010E000482100202DE9F04106460F464FF0000848
:1010F00000243046FFF7A8FF0446042C41D227B352
:10110000012F02D0022F3BD133E004EB44002349EE
:1011100011F8008004EB44000844407868B120488E
:10112000006800EB800041001E4A1F480068FFF77E
:1011300057F905460DB91B48067004EB44001749E2
:1011400008448078194908551AE017480068FFF7E5
:1011500071F91648005D04EB4401104A1144897886
:10116000884205D104EB44001146084490F80280FF
:1011700006E004EB44000949084490F8018000BFF0
:1011800000BFB8F1000F06D00948006818B140460A
:10119000074909688847BDE8F0810000C0240020A5
:1011A0003421002040210020408A020041210020FB
:1011B0003C21002030B503460020042B23D2012A15
:1011C00007D1012903D103F10E04E4B200E00024A9
:1011D000224679B1012902D0022911D104E003EBA2
:1011E00043040A4D2A550DE003EB4304074D2C44FC
:1011F000627007E003EB4304044D2C44A27001E04D
:10120000072000BF00E0072030BD0000C024002000
:1012100070B5044600250548007800F0010018B1BB
:10122000204600F005F80546284670BD382100200C
:101230002DE9F041044600260025C048007820B181
:101240000020BE490870FFF7EBFE182C75D2DFE8CE
:1012500004F00C11123D6895BFCDD3F0EEEDECEB30
:10126000EAE9E8E7E6E5E4E3E2E1FFF7D9FEB448BE
:1012700004705FE100BF0020FFF7BAFE58B1002004
:10128000FFF7A2FE022C02D14FF4E16001E04FF41F
:101290007A60054609E00020FFF7A0FE022C01D18C
:1012A000C82001E04FF4C8700546A54804706420CA
:1012B000B5FBF0F0A349096800FB01F700223946AD
:1012C000A1480068FFF78CF8064633E10020FFF7DD
:1012D0008FFE58B10020FFF777FE032C02D14FF4A8
:1012E000487001E04FF47A60054609E00020FFF7FE
:1012F00075FE032C01D1C82001E04FF4C8700546EB
:101300008F4804706420B5FBF0F08E49096800FB3B
:1013100001F7002239468C480068FFF761F806465D
:1013200008E10020FFF764FE60B10020FFF74CFEEB
:10133000042C03D14FF47A6002E0FAE04FF47A60B3
:1013400005460AE00020FFF749FE042C02D14FF4C5
:10135000C87001E04FF4C8700546794804706420F5
:10136000B5FBF0F07749096800FB01F70022394628
:1013700075480068FFF734F80646DBE00020FFF709
:1013800037FE50B10020FFF71FFE052C01D1C82009
:1013900001E04FF47A60054609E00020FFF71EFEE9
:1013A000052C01D1C82001E04FF4C87005466448FF
:1013B00004706420B5FBF0F06249096800FB01F796
:1013C0000022394660480068FFF70AF80646B1E097
:1013D0000020FFF7E1FD5A4804705A4800220168D6
:1013E00059480068FEF7FCFF0646A3E00020FFF71F
:1013F000F5FD534804709DE0012050490870FFF747
:10140000CBFD5048002201684F480068FEF7E8FF16
:1014100006468FE088E086E07AE071E068E062E00E
:101420003EE03CE03AE038E036E030E01FE010E03B
:10143000FFE7012041490870FFF7AEFD4148006811
:1014400000EB8001002240480068FEF7C9FF064615
:1014500070E0012039490870FFF79EFD39480022ED
:10146000016839480068FEF7BBFF064662E00120CC
:1014700032490870FFF790FD3248006800EB8001A8
:10148000002231480068FEF7ABFF064652E0FFF746
:10149000D1FD2B4804704DE000BF00BF00BF00BF6E
:1014A0002A480068FEF7C6FF0646C4F11105B5B12B
:1014B000AEB9012D0FD9C82068436421B0FBF1F00B
:1014C0002049096800FB01F7002239461F480068DF
:1014D000FEF786FF06460220FFF780FD02E00220AD
:1014E000FFF772FD26E0FFF79BFD1548047021E031
:1014F000FFF796FD0020FFF771FD1148047019E019
:10150000FFF78EFD0120FFF769FD0D48047011E023
:10151000FFF786FD0020FFF761FD0120FFF75EFD6C
:101520000748047006E000BFFFF784FD044804701C
:1015300000E000BF00BF3046BDE8F081312100204F
:101540003021002034210020388A02003C8A020029
:101550007CB5054603F0A0F8044600BF264626B138
:1015600000BF3046FEF7CAFE00BF00BF002001905A
:1015700001A9112003F0C6F8044600BF264626B193
:1015800000BF3046FEF7BAFE00BF00BF01A913201E
:1015900003F0B8F8044600BF264626B100BF304627
:1015A000FEF7ACFE00BF00BF20480068009003209B
:1015B0008DF801001E4A69460D2002F0FFFF044627
:1015C0001B4A69460E2002F0F9FF0446184A694694
:1015D0000F2002F0F3FF0446154A6946102002F07E
:1015E000EDFF044600BF264626B100BF3046FEF799
:1015F00085FE00BF00BF01210D2002F089FF0121FF
:101600000E2002F085FF01210F2002F081FF012151
:10161000102002F07DFF002006490860022F01D152
:10162000012000E0002028707CBD00002C8A020010
:101630000D3602007C61004001468879012809D1FD
:101640000879012806D1488842F60212904201D159
:10165000012070470020FCE74FF0FF31054A42F8B7
:101660002010082804DBFF23A0F108015032535456
:1016700070470000502A00200146024850F821001F
:1016800070470000502A00202DE9F04F03460C4619
:101690004FF0FF390AB1002000E0082084460AB16B
:1016A000082000E00C208046614624E0154850F8F0
:1016B0002100401CF0B91D460846274616464FFA41
:1016C00080FBDFF840A00AF1300A0AF805B0DFF825
:1016D00034A04AF820704EB94FFA85FBA0F1080AF1
:1016E000DFF820E00EF1500E0EF80AB000BF4FFAFE
:1016F00081F902E0491C4145D8D300BF4846BDE806
:10170000F08F0000502A00200146014840567047E3
:10171000802A002070B590B006460C461546A07889
:1017200018B901208DF80E0002E0A0788DF80E00A7
:101730002088ADF80C0000200290607C02A906F021
:1017400051F9A07C0DF1090106F04CF9E07B08B1DC
:10175000012000E000209DF80A1060F3C3018DF81D
:101760000A10207C08B1012000E000209DF80A103A
:1017700060F304118DF80A10207B08B1012000E00D
:1017800000209DF80A1060F300018DF80A10207DFA
:1017900008B1022000E001209DF80A1060F3420128
:1017A0008DF80A101C2109A8FDF75FFE607BC0F3CD
:1017B000001018B9607BC0F34010F8B10020009011
:1017C000E07C0DF1010106F00DF900BF9DF800006D
:1017D00020F00F00401C8DF800009DF8000020F064
:1017E000F00010308DF8000000BF9DF8020020F0DE
:1017F0000600801C8DF80200CDF838D0607B8DF893
:101800002400A07B8DF82500142104A8FDF72DFEEF
:1018100003A8049002A80590A088ADF81C00A06859
:1018200020B1E088ADF81800A0680890A0690028F1
:1018300049D000200190A0690088ADF82C00A06973
:101840004088ADF82E00A06940680A9001A80D906C
:10185000A169087B01A906F0C5F8A169487B0DF1D3
:10186000050106F0BFF8A069807A08B1012000E008
:1018700000209DF8061060F3C3018DF80610A069E2
:10188000C07A08B1012000E000209DF8061060F346
:1018900004118DF80610A069007A08B1012000E05B
:1018A00000209DF8061060F300018DF80610A06975
:1018B000807B08B1022000E001209DF8061060F353
:1018C00042018DF80610E06908B1E0690C902B46E2
:1018D00004AA09A93046A2DF10B070BD014639B193
:1018E0000448884204D80448884201D9012070473E
:1018F0000020FCE7482200205822002070B5054651
:101900000E46002407E055F8340001F0FDFF08B949
:10191000002070BD641CB442F5D30120F9E700003B
:101920000A49496C81B10949096C084A02EBC101B5
:101930000160114691F84010491C01F00701116443
:101940001146496C491E5164704700004C2B002021
:10195000064902688A4203D0016808310160704775
:1019600002493839016000BFF9E70000842B0020EC
:101970000178022902D0017803290BD106490A6CAB
:10198000817D1144044A116411464A6C817D511ACB
:10199000014A5164704700004C2B00202DE9F041B2
:1019A00004460D464FF6FF76304684420AD14FF486
:1019B0008071284604F0C6FD0646B6F5807F0FD13B
:1019C00026460DE0FF2C0BDC2146284604F0AAFD3C
:1019D00007460FB1204601E04FF6FF70064600BFF4
:1019E0003046BDE8F081000070B505460DB9094CE0
:1019F00001E0084C083409E0204601F08DFF06465E
:101A000006B904E028467168884700BFF4E700BFC4
:101A100070BD0000442A00202DE9F04782461F488F
:101A20000068002836D01D480068056805F024FBD2
:101A300007461B4804682146384606F056FBC61C7C
:101A40001848007808B905F029FBAE4201D22846B3
:101A500000E03046044424F07F44204605F006FBB5
:101A600005F00AFB80463946404606F03EFB00F191
:101A700003093946204606F038FB814509D905F0AF
:101A8000FBFA814605F0F2FA2F2002F06DFC06F019
:101A900083FC01E005F020FBBDE8F087F421002085
:101AA000F82100200C22002001460888062808DBC7
:101AB0000888B0F5486F06DD08884FF6FF7290423F
:101AC00001D0072070474888062808DB4888B0F511
:101AD000486F06DD48884FF6FF72904201D007201C
:101AE000F0E708884FF6FF72904208D0488890428D
:101AF00005D008884A88904201DD0720E2E70020EF
:101B0000E0E72DE9F04106460D4614469846208848
:101B1000801D404502D90C20BDE8F0813046FFF71A
:101B2000C3FF074600BF0FB13846F5E700BF0520E9
:101B3000218868542088401C208012202188685405
:101B40002088401C208022885119308806F061FCD2
:101B500021880844208022885119708806F059FC99
:101B60002188084420800020D6E710B5044600BF35
:101B70002046FEF7C3FB00BF10BD000030B587B0A4
:101B80001C216846FDF771FC002000904FF42030C6
:101B900001904FF47020029003208DF80C0000207B
:101BA000ADF80E008DF81000094805900948069020
:101BB0006846FEF7E1FF044600BF254625B100BF99
:101BC0002846FEF79BFB00BF00BF07B030BD0000FA
:101BD000DD4B02006B1B020038B51B4801F076FE9E
:101BE00020BB1A48007848B119484069E8B1002084
:101BF0000090174841696846884716E01548007804
:101C000010B91348456801E011488568002229464B
:101C100011480068FEF7E4FB044634B10C488069C3
:101C200018B10B4881692046884709E00848406997
:101C300030B101200090064841696846884700BFDE
:101C400000200249087038BD802100208821002032
:101C5000A02500207C210020648A02003EB50446B5
:101C60002088FEF7EDFFD0B1208810490978FFF7F2
:101C700089F828B9208800220D490978FFF794F8DF
:101C80002088ADF8020005208DF800002088FEF7BE
:101C9000E3FF8DF80400684600F06CFA05E0208848
:101CA000012241F2060100F097F83EBDD321002049
:101CB000D221002010B5012200210846FFF77AFA50
:101CC000044600BF1CB1072C01D0204610BD00BF48
:101CD000072202210120FFF76DFA044600BF1CB164
:101CE000072C01D02046F1E700BF0422022100208A
:101CF000FFF760FA044600BF1CB1072C01D0204654
:101D0000E4E700BF0020E1E770B506460D460EB1DE
:101D1000012070BD287920B1012809D0022813D1F3
:101D20000FE0284605F024F80446022028710DE053
:101D3000284600F0AFFC04460A2C01D141F61D54A0
:101D400004E041F61D5401E00F2400BF00BF20460F
:101D5000DFE770B5044620793D2802D141F23D000D
:101D600001E04FF48850054620880022294601F002
:101D700035FF70BD014614480078144A127890422D
:101D80001DD011480078401C0F4A10701046007892
:101D9000022801D1002010700D480B4A127850F82B
:101DA000220008600B4A086812681044094A106053
:101DB0001046006820F07F4010600120704700202E
:101DC000086000BFFAE7000004220020052200207E
:101DD000FC210020F8210020FEB504460D461646E1
:101DE000094A07CA8DE80700ADF80240ADF8045073
:101DF0008DF806600022054801782046FEF7D4FFE2
:101E0000684600F0B7F9FEBDD88A0200D221002052
:101E100010B50446A08928DF10BD000013480078E3
:101E2000062820D11148001D007800F00F00D0B91D
:101E30000E480830007800F0F000302801D1012071
:101E400070470A480830007800F0F000402801D1BF
:101E50000120F5E705480830007800F0F000502830
:101E600001D10120ECE70020EAE70000E00F00F0DC
:101E70000A48007806280ED10848001D007800F0B6
:101E80000F0040B905480830007800F0F000302815
:101E900001D1012070470020FCE70000E00F00F0B6
:101EA00013480078062820D11148001D007800F062
:101EB0000F00D0B90E480830007800F0F00030284C
:101EC00001D1012070470A480830007800F0F00086
:101ED000402801D10120F5E705480830007800F0DE
:101EE000F000502801D10120ECE70020EAE70000D3
:101EF000E00F00F00A48007806280ED10848001DBF
:101F0000007800F00F0040B905480830007800F074
:101F1000F000302801D1012070470020FCE70000CC
:101F2000E00F00F013480078062820D11148001D6A
:101F3000007800F00F00D0B90E480830007800F0AB
:101F4000F000302801D1012070470A48083000789D
:101F500000F0F000402801D10120F5E705480830E5
:101F6000007800F0F000502801D10120ECE70020BB
:101F7000EAE70000E00F00F00A48007806280ED1DA
:101F80000848001D007800F00F0040B905480830EF
:101F9000007800F0F000302801D1012070470020C7
:101FA000FCE70000E00F00F00A48007806280ED198
:101FB0000848001D007800F00F0040B905480830BF
:101FC000007800F0F000302801D101207047002097
:101FD000FCE70000E00F00F00A48007806280ED168
:101FE0000848001D007800F00F0040B9054808308F
:101FF000007800F0F000502801D101207047002047
:10200000FCE70000E00F00F00278072A34D2DFE896
:1020100002F0330407102029300000220A702CE05F
:1020200001220A7003898B818388CB81C2688A6010
:1020300023E002220A7003898B818388CB81C268E6
:102040008A60027C062A01D1012300E000230B7480
:1020500013E003220A70C3888B810389CB81C26895
:102060008A600AE004220A70C3888B810023CB8136
:1020700003E005220A7000E000BF00BF70470000C7
:1020800070B50546002409E0064850F8240020B148
:10209000044850F8241028468847641C082CF3D3C1
:1020A00070BD0000B42A00203EB505460C46DCB1E8
:1020B000112C19D00020009001900290ADF8025030
:1020C00001940D2C03D10B208DF8000008E0862C24
:1020D00003D10A208DF8000002E009208DF80000ED
:1020E000684600F057F800BF3EBD000070B50546D9
:1020F000002405E0044850F8241028468847641C52
:10210000002CF7D070BD00008C21002070B5054672
:10211000002405E0044850F8241028468847641C31
:10212000002CF7D070BD00009821002070B5054646
:10213000002405E0044850F8241028468847641C11
:10214000022CF7D370BD0000808A020070B50546EE
:10215000002405E0054850F8241028468847641CF0
:10216000034800788442F5DB70BD0000F0290020B0
:10217000CE21002070B50546002405E0044850F843
:10218000241028468847641C022CF7D370BD000039
:10219000A08A020070B50546002405E0044850F806
:1021A000241028468847641C002CF7D070BD00001E
:1021B000E48A0200F0B5034600241FE0124E3068A6
:1021C00006689E4203D90668F61A06601AE0066899
:1021D0009B1B06683444002606600B4E35680A4F88
:1021E000C6693E60C66846B10E1926F07F46466055
:1021F000C66886601668C661156000BF0248006840
:102200000028DBD100BFF0BDF421002010B504464A
:102210002078052803D102A10020FDF763FC10BD42
:10222000474320636F6D706C657465640A0000003D
:102230001FB50446606808B9012000E00020039043
:10224000207806287BD2DFE800F0820304304F7B41
:1022500000BFA08900F03DFA18B9E08904F099FEAA
:1022600010B3A08900F030FAADF80200E08904F064
:102270008DFE8DF804002078012807D1606808B928
:10228000002000E003208DF8000006E0606808B937
:10229000012000E004208DF8000060680390A06831
:1022A0000290684603F0B4FB52E0A08900F011FAF6
:1022B00018B9E08904F06DFEA8B1A08900F004FA15
:1022C000ADF80200E08904F061FE8DF8040060685A
:1022D00008B9022000E005208DF80000A0680290F7
:1022E000684603F095FB33E0A08900F0F2F928B3CB
:1022F000E08918BBA08900F0E7F9ADF80200E08999
:1023000004F044FE8DF80400FF208DF8040060689E
:1023100038B906208DF80000BDF8020003F090FDEA
:1023200002E007208DF8000000200E4908700E49D9
:10233000087003F0CFFC684603F06AFB08E006E093
:1023400008208DF80000684603F062FB00E000BF43
:1023500000BF0448007820B100200249087003F053
:10236000B9FC1FBDA9210020AA21002010B588B00A
:102370000446022000F0D4F910B9022008B010BDC4
:102380004FF6FF70844201D10420F7E705208DF855
:10239000040001208DF80800ADF80A400022114623
:1023A00001A802F055FE18B104F056FC0020E5E744
:1023B0000820E3E700B587B0022000F0B1F910B9BA
:1023C000022007B000BD06208DF800000022114653
:1023D000684602F03DFE48B10548007810B1012082
:1023E0000349087304F038FC0020EAE70820E8E716
:1023F000B42B002010B58CB0142107A8FDF735F8D8
:10240000022000F08DF928B107A8FFF739FE00205F
:102410000CB010BD012000F083F908B10020F7E7EF
:10242000012000F089F900F057FA01208DF8000032
:1024300002F01AFF04460C2C28D2DFE804F0061440
:1024400007152722092327191E1A00BF0B20DFE7D3
:10245000022000F071F9012000F048F907A8FFF709
:102460000FFE0020D4E700BF00208DF804000EE02E
:1024700000BF03208DF8040009E002208DF804005D
:1024800005E000BF01208DF8040000E000BF00BFA0
:1024900000221146684602F0DBFD04F0DDFB00205F
:1024A000B6E7000038B504460CB9052038BD6946CA
:1024B000204604F07BFCE0B10F48BDF8001000EBB3
:1024C00001108089002812DDA07A80B10A48BDF889
:1024D000001000EB01108089401E0749BDF8002064
:1024E00001EB021188810020A072002502E0062580
:1024F00000E00A252846D9E7942B00207FB5144632
:102500001D462B46224601A9684604F0EDFB04B0A7
:1025100070BD37B50C4615462B462246694600204D
:1025200004F0E2FB3EBD37B50C4615462B4622466D
:102530000021684604F0D8FB3EBD024602B109B94D
:1025400005207047106808600020FAE738B5044697
:102550000D4604B10DB9052038BD6946204604F08A
:1025600025FCA8B161680B48BDF8002000EB021003
:102570008089401C074ABDF8003002EB03129081AD
:10258000296060680C3068600120A0720020E3E7D9
:102590000A20E1E7942B002070B504460D460CB9E3
:1025A000052070BD032300222946204606F016F9B7
:1025B000F7E770B504460D4602230022294620465F
:1025C00006F00CF970BD70B505460E4614460CB900
:1025D000052070BD022322463146284606F0FEF84B
:1025E000F7E700000146094A1278082A01D10C20B9
:1025F0000AE0074A054B1B7842F82310034A127879
:10260000521C024B1A70002070470000112200205B
:10261000B42A0020F8B504460D46022000F080F8E8
:1026200008B90220F8BD0CB90520FBE76946284629
:1026300006F0C4F906461EB9BDF80000208065808A
:102640003046EFE770B50446022000F069F808B99B
:10265000022070BD0CB90520FBE72088022801DDAF
:102660000420F6E720880A4901EB0016718960888A
:10267000C01C081A08D42188608806F091F900204F
:1026800020806080002500E004252846E1E7000066
:10269000942B00203EB504460A4B6A460021A01D3B
:1026A00004F022FB054635B9064A9188019804F0EA
:1026B000EBFB054603E0034800210160416028462A
:1026C0003EBD0000202200200146A1F5404080B21E
:1026D00070470146B1F5404F05DB4FF6FE70814271
:1026E00001DC012070470020FCE700000249097866
:1026F0008143014A117070471022002010B5044632
:102700002078182802D1FEF71DFB207010BD10B5EF
:1027100004462078182802D1FEF714FB207010BD63
:10272000014604480078084008B1012070470020A5
:10273000FCE7000010220020024909780143014A09
:10274000117070471022002030B504461088C01C5C
:10275000984201D90C2030BD0220158848551088B8
:10276000401C10800120158848551088401C10809E
:1027700015884C551088401C10800020EBE70000A5
:102780002DE9F04106460C4615460027B846862C32
:1027900003D0112C01D0002C35D1862C03D14FF061
:1027A0000008012709E0112C03D14FF00108002790
:1027B00003E014B94FF000080027C5B13A461348AA
:1027C00001783046FEF7F0FA42461148017830466B
:1027D000FEF7EAFA00220F4801783046FEF7E4FAE5
:1027E00000220D4801783046FEF7DEFA0BE03A464B
:1027F000084801783046FEF7D7FA42460648017885
:102800003046FEF7D1FABDE8F0810000E921002052
:10281000E8210020E5210020E421002008B56846D9
:1028200000F0BAF8009808B1012008BD0020FCE7CC
:10283000F8B505460C4616461F461C48007800F0C1
:10284000010008B90120F8BD2846FFF747F808B98C
:102850000220F8E70CB90320F5E7C4F30B0008B138
:102860000620F0E72868A04204D804EB0630696827
:10287000884201D90520E6E70EB90420E3E768465F
:1028800004F02EF908B90720DDE7009847600098AA
:102890000560022000990872C4F30F300099888106
:1028A0000098068204F0E4F90020CCE72A220020F8
:1028B00070B505460C46204604F046F970BD4FF051
:1028C00010204169481C08B1084670474FF08050FD
:1028D00040690003F9E700002DE9F0412B482C493D
:1028E000401A04092948401A0509FFF7E8FF06467F
:1028F0002848007800F0010010B10020BDE8F08108
:10290000002008E0224A02EB00110A6812B14A686E
:1029100002B16D1E401CA042F4D300202BE01C49E4
:1029200001EB00124FF0000CC7B2002117E0DFF8F6
:10293000608008EB0113D3F80080B8F1000F05D0D8
:10294000D3F80480B8F1000F00D007E093F80D80B1
:10295000E04502DD93F80DC0CFB200BF491CA14293
:10296000E5D30B4901EB07125660117BA6EB013151
:1029700011601668401CA842D1D30648007840F088
:102980000100044908700020B8E700005822002028
:10299000482200202A220020014609B9032070475E
:1029A0000248406E08600020F9E70000D02B0020AC
:1029B0002DE9F84305460C4616461F46DDF82080F3
:1029C0001F48007800F0010010B90120BDE8F8832D
:1029D0002846FEF783FF08B90220F7E706B10CB9D5
:1029E0000320F3E706F0030010B904F0030008B178
:1029F0000620EBE72868A04204D804EB870168684A
:102A0000884201D20520E1E70FB90420DEE76846DD
:102A100004F066F808B90720D8E70098C0F80480E9
:102A2000009805600120009908720098C66000981F
:102A300004610098878204F01BF90020C6E70000BB
:102A40002A22002070B504461748006E00EB4000B3
:102A5000154901EBC0051548007800F0020068B187
:102A6000022C02D0032C08D103E0284602F0BCF966
:102A700003E0284602F0A2F900BF12E00B480078FC
:102A800000F0040068B10948007820F0040007490C
:102A900008700548406E20B10846007840F00200FA
:102AA000087004F0A3F870BDD02B00202A2200206B
:102AB0003EB500BF9DF8000020F00F00401C0090C4
:102AC0009DF8000020F0F0001030009000BF0A22B6
:102AD00014A168467CDF044600BF254625B100BF2F
:102AE0002846FDF70BFC00BF00BF002001900290BC
:102AF0005020ADF80400A020ADF806000020ADF88D
:102B000008004FF4C870ADF80A0001A87ADF044647
:102B100000BF254625B100BF2846FDF7EFFB00BFEB
:102B200000BF3EBD4E6F726469635F424453000054
:102B300070B505460DB1012070BD1848007B18B175
:102B400000201649087301E000F0D4F8134800781B
:102B500008281DD2DFE800F01C04080C101C141813
:102B600000F03CF8044615E000F0B2F8044611E02D
:102B700000F08EF804460DE000F044F8044609E049
:102B800000F01CF9044605E000F028F9044601E0D5
:102B90000F2400BF00BF2046CEE70000B42B00206A
:102BA0000C480089401C0B490881002048800873AC
:102BB00000BF0CE0084901EB0011097809B90122B6
:102BC00000E0002203490A310A54411C88B202285D
:102BD000F0DB7047B42B0020942B002010B5084880
:102BE00000F032F840B900200549891E087048807D
:102BF000486041F61D5010BD00F06AF8FBE7000088
:102C0000B62B002070B50D4845880D4800EB051027
:102C1000808968B90A4800EB051000230122416849
:102C20000848FFF705FE044604200449087002E046
:102C300000F08CF80446204670BD0000B42B002044
:102C4000942B00204822002010B5014600220020CD
:102C500015E00D4B1B5C83B100240B4B1C540B4B3C
:102C600003EB00139B8943B9084B03EB00139B7BD9
:102C7000012B02D10880012203E0431C98B20228F4
:102C8000E7DB00BF104610BDBE2B0020942B0020B8
:102C9000F8B50C4844680C4800680B49898800EB7B
:102CA00081056088C01C86B2032006490870002098
:102CB000009008463346294642680448FFF778FEEC
:102CC000F8BD0000B42B002018220020482200206C
:102CD00010B507494888091D04F0A6F818B1FFF798
:102CE000D7FF044602E0FFF78DFF0446204610BDE3
:102CF000B42B002010B514480078082820D2DFE853
:102D000000F0041F1F0A1016171BFFF749FF0120D0
:102D10000D49087015E000F06DF802200A490870AE
:102D20000FE000F029F806200749087009E000BF0D
:102D300007200549087004E001200349087000E0FD
:102D400000BF00BF10BD0000B42B002010B505204F
:102D5000064908700220064988800846002301229F
:102D600001680448FFF764FD10BD0000B42B00208B
:102D700018220020482200200D4908680D49498882
:102D80000D4A02EB01114968094A11600949498855
:102D9000094A02EB0111486005498988054A5288B1
:102DA000054B03EB021211810221014A9180704709
:102DB00018220020B42B0020942B002010B50620F0
:102DC000044908704988044A02EB0111486802F07E
:102DD00029FA10BDB42B0020942B002010B5072039
:102DE000034908700020486002F02CFA10BD000072
:102DF000B42B0020054A50684288D21C91B2044A84
:102E000092880A44024B9A8070470000B42B00203D
:102E1000182200203EB504462088502821D0522890
:102E200002D0542825D103E0A08801F007F820E063
:102E300006208DF80000A08800F0B4FBADF8020079
:102E4000A088ADF80400BDF8020000F00FF9A088DA
:102E500000220C490978FDF7A7FF6846FFF746F9FD
:102E600007E0A01DFEF7E8FB10B1A08801F036F8DE
:102E700000BF00BFFDF74AFB05F0D2FA04F0FEFBED
:102E80003EBD0000932100203EB504466088ADF8A9
:102E90000200207820B101280FD002282BD116E0A3
:102EA00000208DF800006846FFF720F9608800F0E8
:102EB000A3FA054600F0C2FF1DE001208DF80000D6
:102EC000A088ADF804006846FFF710F913E02079F8
:102ED00080B1608800F090FA05464FF6FF70854299
:102EE00007D00122054801782846FDF75DFF04F070
:102EF000C5FB00BF00BF00BF3EBD00009321002006
:102F000010B50446207801280DD1608800F096FFA6
:102F1000608800F08DF928B16088012203490978A2
:102F2000FDF742FF00E000BF00BF10BD932100206D
:102F300010B500F075FCFDF705FF12490870FDF7AC
:102F400001FF11490870FDF7FDFE10490870FDF7FB
:102F5000F9FE0F4908700B48007818280BD00A4872
:102F60000078182807D009480078182803D00846A8
:102F70000078182801D1032010BD012005490870F0
:102F80000020F9E7912100209221002093210020C8
:102F9000942100209021002010B586B000F07EF82A
:102FA00001A8FDF741FE002412E002A931F8140047
:102FB00000F0F8FA4FF6FF71884207D102A931F804
:102FC0001400012206490978FDF7EEFE601C84B268
:102FD0000198A042E9D804F051FB06B010BD0000F2
:102FE0009321002010B504462078072803D160887B
:102FF00000F074FF00E000BF00BF10BD10B5044634
:103000000B4801782046FDF7BDFE70B100210AE0B3
:1030100001EB4100074A02EB80004088A04201D149
:10302000C8B210BD491C0829F2D3FF20F9E70000FF
:10303000A32100201026002010B500240DE004EB91
:103040004401084A02EB8101488807490978FDF7E5
:1030500099FE08B9E0B210BD641C082CEFD3FF2024
:10306000F9E7000010260020A32100201CB504462B
:10307000044903C9CDE9000100226946204602F057
:1030800048FB1CBD788A020010B500F0CFFB012080
:1030900001490870002010BD9C21002010B54FF69A
:1030A000FF7002F017FA0249088004F01DFB10BD02
:1030B0009E2100202DE9FC478146484600F072FA27
:1030C0000546002600274FF003084FF0010A4FF68F
:1030D000FF7085420CD06A460821284602F0E2FAC9
:1030E00004462CB90198861D8788D0F8008000BF5F
:1030F00000BF43463A4631464846A9DF0446042C01
:1031000001D1112415E0082C01D1002411E00B2C71
:103110000FD14FF0000A08F0020010B14FF0010883
:1031200007E006B927B1002600274FF0030800E0AA
:1031300003240B2CDDD0BAF1000F00D10B24204664
:10314000BDE8FC872DE9FC478046404600F02AFA9E
:1031500007464FF6FF70874203D143F20200BDE8F5
:10316000FC874FF001094FF0000A00BF4FF0000A42
:103170004A46511C1FFA81F96B460821384602F075
:10318000D3FA044604BB019D032028602A1DA91D13
:1031900040462B68AADF04462CB90821384602F0C5
:1031A00079FB04460FE00C2C02D14FF0010A02E03B
:1031B000052C00D100240821384602F04FFB0646BA
:1031C00006B1032400BF02E0072C00D10C24BAF1A1
:1031D000000FCBD100BF2046C1E700007FB50446F9
:1031E0002078012818D12079012815D1608802AAF9
:1031F000012102F057FA05466DB902208DF8000052
:103200006088ADF80200039800788DF804006846E5
:10321000FEF77CFF00BF00BF044800884FF6FF7137
:10322000884201D004F060FA7FBD00009E2100209A
:103230007CB50446204600F0B5F906466A460121F1
:10324000304602F02FFA05460DB100207CBD0198F2
:103250000078FBE770B505464FF6FF7600BF4FF6E6
:10326000FF720A4801882846A7DF044643F203009C
:10327000844204D105480088401C0449088043F278
:1032800003008442EBD0204670BD0000A021002046
:10329000014688884FF6FF72904203D0088808B133
:1032A000012070470020FCE73EB504460D4620781B
:1032B0000221B1EB500F01D000203EBDB4F8010057
:1032C000ADF80800E0788DF80A00A188ADF800108C
:1032D000A0798DF8020001AA69462846FCF7CCFFC8
:1032E000032201A902A8FCF7D2F808B90120E4E7FB
:1032F0000020E2E770B506460C463046FFF77EFE3A
:103300000546FF2D0CD005EB4500064901EB80007A
:10331000416821600189A180807AA071002070BD80
:103320000520FCE71026002070B590B004462088E8
:10333000102801D010B070BD3422211D03A8FCF765
:103340007BF84FF6FF759DF810000321B1EB500F8D
:1033500035D002F0C3FB9DF81000400820B10128D1
:1033600003D0022828D114E000BF09E0019800F141
:10337000110104A8FCF7EAFD10B1BDF8085006E001
:103380006A4602A9072002F07BFB0028EED100BFAD
:1033900013E008E00198411C04A8FFF785FF10B175
:1033A000BDF8085006E06A4602A9072002F068FB53
:1033B0000028EFD100BF00E000BF00BF00BFBDF894
:1033C0000C0004A900F0F4FE06464FF6FF7085429B
:1033D0000FD0BDF80C00294600F088F8BDF80C00AD
:1033E000ADF8060001208DF8040001A8FEF79EFE4E
:1033F00000BF00BF9EE70000024600210DE001EB88
:103400004100084B33F82000904205D101EB410008
:1034100003EB800040887047491C0829EFD34FF622
:10342000FF70F8E71026002010B500F00BFAFDF74A
:1034300089FC0649087008460078182801D1032045
:1034400010BD0120024908700020F9E7A3210020E7
:10345000A22100202DE9F04104460D46601C00F039
:1034600047FA10B90020BDE8F0811022691C601CE9
:10347000FCF70DF808B9012000E00020074605F12F
:10348000110104F11100FCF761FD064607B90EB108
:103490000120E8E70020E6E70246108808B1012095
:1034A0007047002105E0901C405C08B10120F7E75F
:1034B000491C0829F7D30020F2E770B505460C46F1
:1034C0002846FFF7E9FF08B9002070BD2888218849
:1034D000884201D00020F8E70822A11CA81CFBF7B5
:1034E000D6FF08B90120F0E70020EEE770B50446EA
:1034F0000D462946204602F005FD70BD30B587B067
:103500000446207810B92079072801D007B030BDD3
:10351000608804AA072102F0C5F8054605B1F5E761
:1035200002F0DCFA1EE06088BDF81810884200D175
:1035300018E003990598FFF78DFF90B16088FFF7B9
:103540005BFFADF8020000208DF800006088ADF848
:103550000400BDF81810ADF806106846FEF7E6FD49
:1035600007E000BF02AA06A9072002F089FA002896
:10357000D9D100BF00BFC9E770B506463046FFF796
:103580003BFF0446304602F098F805464FF6FF70C0
:10359000844204D01DB90146204602F0B3FC2846FF
:1035A00070BD000070B505462846FFF727FD0446AC
:1035B000FF2C05D004EB4400034931F8200070BD16
:1035C0004FF6FF70FBE70000102600203EB50446D2
:1035D00002F084FA10E0019800F146012046FFF75E
:1035E0006CFF30B9019800F12A012046FFF765FF12
:1035F00010B1BDF808003EBD6A4602A9072002F0DE
:103600003FFA0028E7D14FF6FF70F4E770B50446A3
:103610000D460D2C06D00E2C07D00F2C0AD0102CE6
:1036200013D10BE004F03DFA0FE074DF112001F03C
:10363000CFF80AE0132001F0D1F806E00320FDF7EF
:1036400053F9112001F058F800BF00BF70BD000011
:103650002DE9F04106460C460F272EB10120FFF759
:1036600045F80120BDE8F081207930B101280AD069
:10367000022833D0032864D13EE001F0E3FD074681
:10368000012020715EE04FF00008002516E032486E
:1036900000EB0510007802280ED12F4901EB05112F
:1036A000486801F0BFFD074600202B4901EB0511DA
:1036B00008704FF0010803E0681C85B2022DE6DBBC
:1036C00000BFB8F1000F08D10220FFF735F8012044
:1036D000FFF70CF841F61D50C4E733E01F48002304
:1036E000012201681E48FFF7A3F8074602201B4984
:1036F00088800020207125E01849086801F092FDBB
:103700000746184845881548D0F80080124800EB55
:1037100005104068114908600F4800EB0510C0F81B
:103720000480084680880C4901EB051108810220BD
:103730000A4988800020084901EB051108702071B2
:1037400000E000BF00BF27B10120FEF7CFFF0E2031
:1037500088E7002086E70000942B00201822002034
:1037600048220020B42B0020F8B52748007800B983
:10377000F8BD00252548006808B9012000E00020B8
:10378000064600BFDDB92248007800B1F0E7684680
:1037900048DF0446052C01D101250FE024B100BF0C
:1037A0002046FCF7ABFD09E0009800F079FE1948CF
:1037B000006818B1174900980968884700BFDEB94A
:1037C0001348007800B1D3E7134800880090694699
:1037D0001248006861DF0446052C01D101260AE089
:1037E00024B100BF2046FCF789FD04E00B480068C7
:1037F00006490968884700BF0DB106B100E0C1E77E
:1038000000BF00BFB4E70000302200203C220020AF
:1038100031220020402200203822002034220020C3
:1038200000200149087070479021002000200349C2
:1038300008704FF6FF700249088070479C210020F5
:103840009E210020182008490870002008E04FF64B
:10385000FF7100EB4002054B03EB82025180401CDC
:103860000828F4D370470000A32100201026002070
:1038700010B5002407E004EB8401044A02EB810048
:1038800004F081FF641C082CF5D310BD90260020A5
:1038900010B5044640212046FBF7E7FD10BD0000AF
:1038A0004FF6FF7005490880002005490860182080
:1038B000044908700449087070470000CC210020BA
:1038C000C4210020CF210020D021002001464888BB
:1038D000064A1288904206DB4888044A5288904281
:1038E00001DC012070470020FCE70000742100206B
:1038F0000246002104E0505C08B101207047491CD9
:103900001029F8D30020F9E7014601F0030008B9B7
:10391000012070470020FCE70146086808B10268F2
:103920000A6070472DE9F04107460D4690461E4655
:103930002DB92948007810B90520BDE8F08135B1CE
:1039400042460021384604F0F9F9044605E04246B3
:103950002249384604F0F2F904460022214638464E
:10396000FEF70EFF1EB121463846FEF79DFB112CD7
:103970000DD005DC34B3082C27D00D2C26D122E045
:10398000862C12D0A4F540500238F8B91CE02A4623
:10399000134801783846FDF707FA42461148017886
:1039A0003846FDF701FA002412E02A460C48017857
:1039B0003846FDF7F9F942460A4801783846FDF7DE
:1039C000F3F905E000BF00BF00BF01E0032400BF22
:1039D00000BF2046B1E70000DE210020D9210020F1
:1039E000E7210020E62100202DE9FC4107460E4694
:1039F000904626B9002138467EDFBDE8FC8130784C
:103A000000F0010008B1012000E0022001903846DA
:103A1000FFF7C8FD05464FF6FF70854209D001A8A3
:103A20002B46424631460090384600F024F80446C2
:103A300019E0307800F0010028B13146384600F036
:103A40008EF804460FE0314638467EDF04460020FB
:103A500000900CB9012000E0002002460123294615
:103A6000384603F073FD24B99DF80410384603F07E
:103A7000B5FD2046C1E72DE9FF4F85B00F469046C2
:103A80001E46DDF848900025AA4603AA07213046C5
:103A900001F008FE04466CB9049800F1180504987A
:103AA00090F8440000F0010ABAF1000F02D0049827
:103AB00000F13405B8F1000F13D194B98DB1BAF10A
:103AC000000F04D105F11200FFF7E6FC48B12A46C9
:103AD00005F11201059885DF0446002089F80000F1
:103AE00027E00CB1052C24D10024387800F0010027
:103AF00060B101AB01220721304601F015FE0446FA
:103B000024B90721304601F047FF04461CB9394665
:103B100005987EDF044664B10721304601F09EFE21
:103B20008346BBF1000F03D0BBF1050F00D0032487
:103B300000BF0020009099F8000008B1012000E0CB
:103B4000002003460CB9012000E000200246314667
:103B5000059803F0FBFC204609B0BDE8F08F2DE985
:103B6000FE430746884601F099FD05464FF6FF7073
:103B700085421CD001AB01220721284601F0D4FD6B
:103B8000044624B90721284601F006FF04461CB963
:103B9000414638467EDF044654B10721284601F0ED
:103BA0005DFE064616B1052E00D0032400E0032476
:103BB0004FF6FF70854201D0012000E00020009008
:103BC0000CB9012000E000200246012329463846B6
:103BD00003F0BCFC2046BDE8FE8300002DE9F04167
:103BE00007460C461546114801783846FDF7CAF8D5
:103BF000D0B13846FFF7D6FC06464FF6FF70864236
:103C000011D00B4801783846FDF7BCF830B12B468F
:103C100022463146384601F0BFFB04E02A462146E1
:103C20003846FEF7D9F800BFBDE8F081D221002068
:103C3000D32100202DE9F04786B005462846FDF740
:103C400093F88046404603F0F3FA58B301A8FCF716
:103C5000EBFF002422E002A931F814002946FDF709
:103C600091F80646CEB102A931F814000F4909783F
:103C7000FDF788F8814602A931F814000C4909784B
:103C8000FDF780F8824602A931F8140001234A4664
:103C90005146FFF747FE074600BF641C0198A0424B
:103CA000D9D800BF06B0BDE8F0870000E6210020AB
:103CB000E721002070B504460D46294620467EDFE8
:103CC0000646304670BD000070B51C4804781C489C
:103CD000066827E01948406804EB440100EBC10581
:103CE000601CC4B215488078A04200D10024287816
:103CF000022802D0032812D103E0686804F07AFA9F
:103D00000EE007E00E490868002101740C4AC16901
:103D1000116000BF0A4800680028F3D100E000BF2E
:103D200000BF00BF05484078A042D3D104480068D6
:103D3000B04201D0012070BD0020FCE7EC21002042
:103D4000F42100202DE9F0410546374807685AE084
:103D500015B12C46E56929E034494968334A12789F
:103D600002EB420201EBC20030490978491C2F4A9C
:103D70001170114609789278914202D100212B4AA4
:103D8000117044680178012901D1217C01B13AE028
:103D900081686160C168A1600169E1604169A161F8
:103DA0002349097809B10021616000BF2149606899
:103DB0000968401A20F07F401F49884208D21D49F7
:103DC0006068096804F091F9A168084420600FE078
:103DD00018486168006804F088F90646A068B04297
:103DE00003D9A068801B206001E00020206000BF94
:103DF00000206060A060012020740020E061204667
:103E000004F0C4F900BF002DA2D10848007807498A
:103E1000497888429CD104480068B84202D0012009
:103E2000BDE8F0810020FBE7F4210020EC21002018
:103E30000D220020F8210020FFFF7F00FEB5044680
:103E400000264FF6FF70844200D1FEBD2046FFF7EA
:103E500031F9054645B10B2D16D0112D12D0A5F51F
:103E600040500238F8B91DE002208DF800002046CD
:103E7000FFF798FBADF80200ADF804406846FEF786
:103E800035F91FE001261DE003208DF800002046D3
:103E9000FFF788FBADF80200ADF804406846FEF776
:103EA00025F90FE00EE009208DF800002046FFF70D
:103EB00079FBADF80200ADF8044002956846FEF7C4
:103EC00015F900BF00BF3246034801782046FCF7D1
:103ED0006BFF00BFB9E7000092210020FEB5044649
:103EE00000262046FFF72EF90546112D1AD003DCD7
:103EF0004DB10C2D34D117E0862D23D0A5F54050BF
:103F0000023868BB0DE001208DF80000ADF80440D8
:103F10002046FFF747FBADF802006846FEF7E6F8DB
:103F20002DE02CE001262AE007208DF80000ADF8F6
:103F300004402046FFF736FBADF802006846FEF766
:103F4000D5F81CE008208DF80000ADF804402046AC
:103F5000FFF728FBADF802006846FEF7C7F80EE051
:103F600009208DF800002046FFF71CFBADF8020089
:103F7000ADF8044002956846FEF7B8F800BF00BFF0
:103F80003246034801782046FCF70EFFFEBD0000D4
:103F900091210020F8B504460D46002620782840DF
:103FA00080B9002000906846FCF75CFA2078284031
:103FB00018B920782843207001269DF80000FCF7EE
:103FC00057FA00BF3046F8BD08B54FF4E130FBF7B3
:103FD000B3FA04F0E7F96846FDF7BAFAFCF75AFFBE
:103FE0009DF8000001F0C8FF9DF80000012803D1F2
:103FF00012A10020FBF776FDFEF75AFDFCF704F94D
:1040000003F042FCFDF7BAFDFCF77FFA0FA1002098
:10401000FBF768FD0320FCF767FC0446112000F065
:104020006BFB00BF254625B100BF2846FCF766F9AB
:1040300000BF00BF00BF02F007FDFCE7426F6E64E7
:104040007320657261736564210D0A00426C7565A9
:10405000746F6F7468204465762053747564696F5B
:104060002053746172742041647665727469736957
:104070006E67200D0A0000002DE9F04105460E464E
:1040800014469846A888871C2088801C38444045E0
:1040900002D90C20BDE8F081FE2F01D90C20F9E7F0
:1040A000781C218870542088401C2080FF202188A3
:1040B00070542088401C208022889119288804F0A0
:1040C000A8F9218808442080A88800280DDDA86868
:1040D00008B90720DEE7AA8823889819A968FBF7A2
:1040E000ABF92088A988084420800020D2E72DE978
:1040F000F84F05460F46144698462878012804D103
:10410000687810B90720BDE8F88F2088801C4045EA
:1041100008D82878012807D12088801C69780844AD
:10412000404501D90C20EEE72088A8EB0000801E56
:1041300086B200962188891CC81969467DDF8146B0
:1041400000BFB9F1000F01D04846DCE700BF287876
:10415000022806D1BDF80000B04202DC4FF0090A87
:104160000BE04FF0080A2878012805D16878B042A2
:1041700002DC6878009000E00096BDF80000FE28A0
:1041800001D90C20BFE7BDF80000401C21887854FD
:104190002088401C2080208807F800A02088401C30
:1041A00020802088BDF80010084420800020AAE765
:1041B00070B505460E46FF2466B34FF6FF70854284
:1041C00028D00122144801782846FCF7EDFD284646
:1041D000FEF714FF0446FF2C02D1FEF72DFF044624
:1041E000FF2C17D004EB44000C4901EB8000458004
:1041F0004FF6FF7004EB4401084A22F8210004EB5B
:104200004400114601EB800031684160B1880181B2
:10421000B1798172204670BDA321002010260020B4
:1042200070B505460E464FF6FF70854201D100205D
:1042300000E0681C84B208E02146304602F09AF99A
:1042400008B1204670BD601C84B2FF2CF4DD4FF62F
:10425000FF70F7E730B502460B46D40802F00702BC
:10426000012090401D5D284030BD70B504460D46CC
:1042700000BF0CB90E2070BD00BF00BF0DB90E20ED
:10428000F9E700BF2078DE2801D10820F3E71421E8
:10429000A01CFBF7EAF80020A0752868A0630020A6
:1042A00084F83C004FF6FF70E087DE202070D5E9EF
:1042B0000101C4E90C01E8682064002084F82C00A6
:1042C00000BFD8E770B504460D4600BF04B970BD05
:1042D00000BF00BF05B9FAE700BF00BF2078DE28A5
:1042E00000D0F4E700BF94F83C0018B1291D204627
:1042F00000F050FE2888022804D011280CD0512844
:1043000015D104E0291D204600F044FE10E0291DCF
:10431000204600F0FBFD0BE0A888E18F884205D124
:104320004FF6FF70E087002084F82C0000E000BF0B
:1043300000BF00BFCBE701464FF08040405808B1B6
:10434000012070470020FCE708B500224FF08041B3
:104350000A500958009100BF08BD000001490860DB
:10436000704700000803004000B9704700BF00BF5D
:1043700000BF00BF00BF00BF00BF00BF00BF1F499C
:1043800009681F4A914200D130E000BF00BF00BF62
:1043900000BF00BF00BF00BF00BF00BF00BF00BF25
:1043A00000BF00BF00BF00BF00BF00BF00BF00BF15
:1043B00000BF00BF00BF00BF00BF00BF00BF00BF05
:1043C00000BF00BF00BF00BF00BF00BF00BF00BFF5
:1043D00000BF00BF00BF00BF00BF00BF00BF00BFE5
:1043E00000BF00BF00BF00BF00BF00BF01460139D2
:1043F000084600D0BBE700BFB7E70000502100200F
:104400000024F40010B500241648007808B1852473
:1044100025E000201349886048600861C86000BF3B
:1044200000BF4109890001F1E021D1F8001101220A
:104430008240114009B1012100E0002119B9072192
:10444000002000F035F800BF03F014FE20B9012071
:104450000549086000BF00BF0120024908702046DE
:1044600010BD00003C2A00201805004008B50020BF
:1044700000906846FBF7F6FF0848007808B9FFF798
:10448000C1FF0648C068401C0449C860012088700C
:104490009DF80000FBF7ECFF08BD00003C2A00205F
:1044A00010B5044614B90020FDF79EFA10BD0000B7
:1044B00070B50B4601461A46002907DA5407260E46
:1044C000104C01F00F052D1F665503E05407250E13
:1044D0000D4C655400BF00BF00F01F020121914048
:1044E0000A4A440942F8241000BF00BF00F01F022E
:1044F000012191404209920002F1E022C2F800112C
:1045000000BF70BD18ED00E000E400E080E200E0D4
:104510002DE9F04706460D46304601F0C1FDE0B1F9
:104520003046FDF7F1F8083822490F5CBC11032C26
:1045300008D1304600F09DF908B1032000E00220C8
:10454000804605E0012C01D1022000E003208046D6
:104550004146304600F069F92AE0304601F0ACFDF2
:1045600030B33046FDF7D0F80446A00000F5807067
:1045700087B22046104951F8201041F001020E493F
:1045800041F8202000BF384600F0C2F97DB1304626
:10459000FDF7BAF88146FDF76FF88046B8F1000FD5
:1045A00004D0012101FA04F000F0CCF900BF00BFF3
:1045B000BDE8F087A02A0020106500402DE9FC47E7
:1045C00004460E4617464FF00008204601F05AFDFB
:1045D00010B14FF0080855E0F27839462046FDF753
:1045E00053F80546681C002849D0B07880B100BF58
:1045F00000BF4FF0A042104600F5E06252F82420C0
:1046000022F0020100F5E06242F8241000BF0CE045
:1046100096F80190002000904B460246014601901A
:10462000204600F0EEF800BF00BFF078D0B130783F
:10463000164951F82510164A1140144A42F825101F
:10464000114651F825104FF4F85202EA04224FF4B3
:10465000403303EA00431A4311430C4A42F8251041
:1046600000BF0EE0A5F108000A49085C317840EA75
:10467000811042B2A5F1080006490A5401E04FF04A
:10468000040800BF4046BDE8FC87000010650040FC
:10469000FFE0FCFFA02A002070B5164890F85400F7
:1046A00010B10825284670BD002404E0204601F022
:1046B00013FD601CC4B2202CF8DB002404E020466B
:1046C000FCF7CAFF601CC4B20C2CF8DB07210620E3
:1046D000FFF7EEFE4FF4BE7000F01AF94FF0004005
:1046E00000F030F90120034981F8540000252846E4
:1046F000D9E70000502A002010B50446204600F0FB
:10470000ADF810BD2DE9FC4104460E4600272046B9
:104710002C490956491C09B1012100E0002109B1C9
:1047200008274BE0B07860B3012200212046FCF757
:10473000ABFF0546681C10B330787178224A52F8F6
:104740002520224B1A40204B43F825201A4652F8C8
:1047500025304FF4F85202EA04224FF4403C0CEAB0
:10476000004C42EA0C024FF4801C0CEA015C42EA65
:104770000C021343144A42F8253000BF00E004271E
:1047800005E000BFFE210F48015500BF00BFAFB9D3
:104790007078012803D1204600F077F802E0204627
:1047A00000F05CF800BF0020009003460122114693
:1047B0000190204600F025F800BF00BF3846BDE854
:1047C000FC810000802A002010650040FFE0ECFF23
:1047D00010B50446204600F058F810BD00BF00BFD9
:1047E0004FF0A0431946D1F8042501238340934399
:1047F000C1F80835012383401340C1F80C3500BFD0
:104800007047F0B5DDE9054500BF4FF0A0473E46D3
:1048100041EA420747EA830747EA042747EA054C8B
:1048200006F5E06747F820C0F0BD10B50A4600BFA6
:104830004FF0A043194601F5E06353F8203023F40C
:10484000403401F5E06343F8204053F8203043EA58
:10485000024401F5E06343F8204010BD00BF4FF073
:10486000A0410A46012303FA00F1C2F80C1500BF6B
:104870007047014600BF4FF0A040024600BFD2F88B
:104880001005C84000F00100704700BF4FF0A04184
:104890000A46012303FA00F1C2F8081500BF704769
:1048A00010B561B900BF00BF4FF0A042134601240C
:1048B00004FA00F2C3F80C2500BF00BF0CE000BFF3
:1048C00000BF4FF0A0421346012404FA00F2C3F8DF
:1048D000082500BF00BF00BF10BD000038B50B4663
:1048E000074C24680094014606E05DF82140D4F8A6
:1048F00010551560121D491CC4188C42F5D838BDDE
:10490000E88A020001460148084470470060004000
:1049100038B504462046FFF7F5FF00210160204628
:10492000FFF7F0FF0068009000BF38BD10B50446E7
:104930002046FFF7E7FF0068012800D110BD0020E6
:10494000FCE7000001490860704700000463004074
:1049500070B505469DB1032D14D10CA10020FBF7C5
:10496000C1F80220FCF754FC044600BF264626B1DD
:1049700000BF3046FBF7C2FC00BF00BF03E003F0FE
:1049800090F800E000BF00BF70BD00004661737486
:10499000204164766572746973696E670D0A000060
:1049A00070B505460C46207820B1012807D00228B2
:1049B0000FD109E008A10020FBF794F80AE016A146
:1049C0000020FBF78FF805E023A10020FBF78AF811
:1049D00000E000BF00BF70BD5B426C7565746F6F17
:1049E00074685F49465D3A204241535F42415454E6
:1049F0004552595F4C4556454C20657674204E4FC4
:104A000054494649434154494F4E5F454E41424CFB
:104A100045442E200D0A00005B426C7565746F6F73
:104A200074685F49465D3A204241535F42415454A5
:104A30004552595F4C4556454C20657674204E4F83
:104A400054494649434154494F4E5F4449534142BA
:104A50004C45442E200D0A005B426C7565746F6FE7
:104A600074685F49465D3A204241535F4241545465
:104A70004552595F4C4556454C206576742043435A
:104A800043445F57524954452E200D0A0000000050
:104A900070B5054628883B2828D004DC102807D0AC
:104AA000112855D119E0552844D0562850D12FE06F
:104AB00029A10020FBF716F80720FCF7A9FB044604
:104AC00000BF264626B100BF3046FBF717FC00BFEB
:104AD00000BFA888234908803BE023A10020FBF702
:104AE00001F84FF6FF701F49088032E022A1002034
:104AF000FAF7F8FFA888132176DF044600BF2646A0
:104B000026B100BF3046FBF7F9FB00BF00BF20E035
:104B10001FA10020FAF7E6FFA888132176DF0446DC
:104B200000BF264626B100BF3046FBF7E7FB00BFBB
:104B300000BF0EE0A8881721ADDF044600BF26465F
:104B400026B100BF3046FBF7D9FB00BF00BF00E035
:104B500000BF00BF70BD0000436F6E6E656374657B
:104B6000640D0A0028210020446973636F6E6E652E
:104B7000637465640D0A00004741545420436C6916
:104B8000656E742054696D656F75742E0D0A000092
:104B900047415454205365727665722054696D659F
:104BA0006F75742E0D0A00007FB504460E46002076
:104BB000009001900290039002208DF800000020E8
:104BC000ADF80400E08F6946A8DF054615B1284618
:104BD000A16B8847002084F82C007FBD70B5054686
:104BE000287868B93B210748008876DF044600BF73
:104BF000264626B100BF3046FBF780FB00BF00BF52
:104C000070BD00002821002010B504460349A268A9
:104C10000A60E0684860FCF7DFFF10BD80210020DB
:104C20008A8802837047000010B50446A0880849AE
:104C30000880084922690A606069486000200649C6
:104C400008700648C08908B9FCF7C6FF10BD00000F
:104C50007E210020802100207C210020A025002032
:104C6000C17B012902D18188014A1180704700006F
:104C7000642100204FF6FF720283704770B505462D
:104C80004FF6FF700949088000200949087009485B
:104C90000068FBF7CFFB044634B10748806918B1C0
:104CA000054881692046884770BD00007E210020AC
:104CB0007C210020648A0200A025002070B50546F2
:104CC00000200A490870A8880949098888420BD140
:104CD0000120FBF709FE044634B10648006818B10C
:104CE000204604490968884770BD000070210020F3
:104CF000642100206C2100202DE9F04186B004469B
:104D0000884600200290039004900590ADF80C00B6
:104D100002208DF8080094F82C0070B94FF4C07090
:104D2000ADF80C00E08F02A9A8DF054615B12846B2
:104D3000A16B884706B0BDE8F081002612E0012093
:104D40008DF8040004F1180030F81600ADF80600E4
:104D500001A92046226C904707460FB1ADF80C70B0
:104D6000701C86B294F82C00B042E8DCE08F02A9F7
:104D7000A8DF054615B12846A16B8847BDF80C0091
:104D8000B8B9002611E000208DF8040004F11800E5
:104D900030F81600ADF8060001A92046226C9047B5
:104DA0000020ADF80C00701C86B294F82C00B042C4
