:020000040000FA
:1000000028210020150400001D0400001F0400002A
:10001000210400002304000025040000000000006B
:1000200000000000000000000000000027040000A5
:1000300029040000000000002B0400002D04000033
:10004000E50400002F040000A90800002F040000B0
:100050002F0400002F0400002F0400002F040000D4
:100060002F0400002F0400002F0400002F040000C4
:100070002F0400002F0400002F0400002F040000B4
:100080002F0400003D0500002F0400002F04000095
:100090000B0600002F0400002F0400002F040000B6
:1000A0002F0400002F0400002F0400002F04000084
:1000B0002F0400002F0400000000000000000000DA
:1000C0002F0400002F0400002F0400002F04000064
:1000D0002F0400002F0400002F0400000000000087
:1000E0000000000000000000000000000000000010
:1000F0000000000000000000000000000000000000
:1001000000000000000000000000000000000000EF
:1001100000000000000000000000000000000000DF
:10040000DFF80CD000F03AF800480047450D000036
:10041000282100200648804706480047FEE7FEE7FF
:10042000FEE7FEE7FEE7FEE7FEE7FEE7FEE7FEE7A4
:10043000110600000104000040EA01039B0703D0FD
:1004400009E008C9121F08C0042AFAD203E011F813
:10045000013B00F8013B521EF9D27047421C10F8D4
:10046000011B0029FBD1801A7047034611F8012BAC
:1004700000F8012B002AF9D118467047064C074DA9
:1004800006E0E06840F0010394E807009847103464
:10049000AC42F6D3FFF7B8FF6413000084130000EA
:1004A00000F01F02012191404009800000F1E0208E
:1004B000C0F88012704700F01F02012191404009EE
:1004C000800000F1E020C0F80011704700F01F022A
:1004D000012191404009800000F1E020C0F80012A5
:1004E000704700002DE9F0414FF48077384600F066
:1004F0004FFC0124104EA50748B1384600F04FFCD0
:100500000120C5F808037470002000F0E1FA4FF4F0
:100510008277384600F03CFC00280BD0384600F0CB
:100520003EFC0220C5F80803B470BDE8F04101208C
:1005300000F0CEBABDE8F081280000200748002175
:10054000C0F84011C0F84411C0F84811C0F84C116F
:10055000C0F80011C0F8041100F098BD001001406F
:10056000F8B50B4B0646144618780D4608B900F04E
:10057000A9F90020009000F05AFA22462946304698
:1005800000F008F80446002000F053FA2046F8BDB9
:10059000AC00002070B50E46144900EB400001EBA2
:1005A000C0051446E86A183520B101280FD002288A
:1005B00005D113E0284600F0B9F9A04201D2002489
:1005C00011E022463146284600F0E8F90BE02846C3
:1005D00000F0ACF9A042F4D20446F2E731462846D6
:1005E00000F0AFF90446204670BD0000AC000020CA
:1005F00070B505460C460846FFF730FF0246214617
:100600002846BDE87040FFF7ABBF00F0DBBC000040
:10061000F0B597480023021D01780125101D4FF009
:100620008056062907D11478240704D10478C4F32E
:100630000314032C02D0062904D00FE08E4F8D4CFA
:100640007C670EE01478240708D10478C4F30314FF
:10065000032C06D0042C04D0052C02D0062907D088
:100660000EE0D6F84442854FC4F342343C6002E0C9
:100670001478240704D10478C4F30314032C02D0A3
:10068000062906D011E07E4C276827F08077276086
:100690000EE01478240708D10478C4F30314032C63
:1006A00006D0042C04D0052C02D006290AD011E073
:1006B0004FF08044C4F80C31C4F810316F4C241F43
:1006C000236002E01478240704D10478C4F30314EF
:1006D000032C02D0062905D00CE0684F03246437B0
:1006E0003C600AE01478240704D10478C4F30314AE
:1006F000032C02D006290DD014E0624F05243C6083
:10070000604C783425605F4C083423603F243F1DE3
:100710003C6002E01478240704D10478C4F3031485
:10072000052C02D0062957D068E057490968574A76
:1007300011605549091D0968121D1160524908319F
:100740000968121D116050490C310968121D1160B1
:100750004D4910310968121D11604B491431096867
:10076000121D1160484918310968484A2032116049
:1007700045491C310968121D11604349203109683F
:10078000121D1160404924310968121D11603E4953
:1007900028310968121D11603B492C310968121D6E
:1007A0001160394930310968384A403211603649A0
:1007B00034310968121D1160334938310968121D3E
:1007C000116031493C310968121D11602E494031D8
:1007D0000968121D116002E0117809070ED1007836
:1007E000C0F30310032803D0042801D0052805D145
:1007F000D6F85802264900F04F00086020487438A7
:10080000016841F470010160BFF34F8FBFF36F8F38
:100810004FF01021D1F80002002803DBD1F80402C8
:10082000002821DA1B4A15601B480468002CFCD004
:100830001524C1F800420568002DFCD0C1F804421F
:1008400001680029FCD0136001680029FCD0BFF3C7
:100850004F8F0B48F0380168104A01F4E0611143F2
:100860000160BFF34F8FFEE70E490D480860F0BDF1
:10087000E00F00F00DF0ADBA00C007403C050040AD
:10088000FCED00E0105600400404001020C50040BC
:10089000E40E004004E5014000E401400400FA05D4
:1008A0000090D003000000200448017F0448002984
:1008B000024901D000F0D9BC00F048BC3C00002047
:1008C0000020004010B5124C02202061606111A090
:1008D000A061A4F15000E061402020620020A062ED
:1008E00060620CA1A164E062A4F11001E164102136
:1008F0002165A0656065E06509A1E01DFFF7B5FD14
:1009000008A12046FFF7B1FD2020A07110BD000016
:10091000AC0000205465726D696E616C00000000CF
:100920005254540053454747455200000269C1687C
:100930008A4203D88068401A104400E0501A401ED2
:1009400070472DE9F047C4681746894606464FF0C0
:1009500000083069A04201D9051B02E0B168201AE5
:100960000D1AB0686D1E001BA84200D80546BD4296
:1009700000D33D4670682A4620444946FFF75CFD97
:10098000B0687F1B2C44A844A944A04200D1002495
:10099000F460002FDDD14046BDE8F0872DE9F0413D
:1009A000C6680446174688468068851B6068BD4255
:1009B00006D93044FFF740FDF019E060BDE8F08152
:1009C0002A463044FFF738FD7E1B08EB050132460E
:1009D0006068FFF731FDE660F0E702E008C8121F2B
:1009E00008C1002AFAD170477047002001E001C118
:1009F000121F002AFBD17047BFF34F8F04480168D4
:100A0000044A01F4E06111430160BFF34F8FFEE738
:100A10000CED00E00400FA050EB500210091CDE9CF
:100A200001106A4644F20100FFF7E6FF0EBD00F038
:100A300003B800F009B8000072B602480168491C0A
:100A4000016070472400002003490868401E0860C8
:100A500000D162B6704700002400002007490B5CFB
:100A60004FF0A041D1F804250120984020EA02036C
:100A7000C1F808351040C1F80C0570475A13000042
:100A80000249085C012100F031BA00005A1300004D
:100A90007CB50024084E25460122305D00950023D8
:100AA0001146019500F010FA641C042CF4D3BDE843
:100AB0007C4000F003B800005A13000010B5002479
:100AC0002046FFF7DDFF641C042CF9D310BD0000A5
:100AD00070B5084C050009D010342168002907D0F2
:100AE00008682060496828468847F6E70834F4E734
:100AF00070BD0000280000202DE9F05F2648416805
:100B0000F1B3DFF898B00E688146DBF800408768E3
:100B10008078E11B21F07F45ED1CB0B9DFF88080C3
:100B20004FF48030C8F84403C8F804031120FFF7DD
:100B3000B7FC1120FFF7BFFC4FF0010AC8F800A076
:100B40002F2000F07BF989F802A0B54200D235468B
:100B5000124BE8193C3320F07F401860DBF800109E
:100B60005A46091B21F07F41001B20F07F40C91C21
:100B700081420FD9106818602F2000F05FF900E063
:100B800004E0BDE8F05F1120FFF7A0BCBDE8F05F16
:100B900000F0D4B9BDE8F09F040000200415014026
:100BA000001001400E4910B50A784C780023A2428B
:100BB00012D0521CD2B20A70022A00D10B70084A1D
:100BC0000B78183252F8232002608868104420F015
:100BD0007F408860012010BD0360002010BD000030
:100BE000040000202DE9F043264CA4F110092278DE
:100BF000D9F8048099F80350404694F801C0D9F818
:100C0000086031E002EB42036168521C01EBC30152
:100C1000A378D2B2934200D100220B78022B02D0EB
:100C2000032B21D11DE003464F68194603E0B9426A
:100C300003D00B46C969B9B1F9E7A9B18B4205D117
:100C4000C06918B9104E0125B56000260F68C96942
:100C5000D96149B10B683B440B6005E00174C06980
:100C600000E000210028F9D19445CBD1C9E9010663
:100C700089F80350404502D00120BDE8F0830020F0
:100C8000FBE7000014000020001001402DE9F041B6
:100C90002A4F0446002607F11005D7F804803EE0ED
:100CA00002D02046E4691DE02878696800EB400224
:100CB000401CC0B201EBC2012870AA78904200D15A
:100CC0002E700A784868012A2BD1027C4ABB8A68B8
:100CD0004260CA6882600A69C26049698161F978C4
:100CE00001B146604368BA68DFF854C0991A21F030
:100CF0007F41614502D28268114406E0D11A8268C0
:100D000021F07F418A4202D9511A016000E0066059
:100D10004660012186600174C66100F099F9002CDB
:100D2000BED1287869788842BED17968414502D021
:100D30000120BDE8F0810020FBE700000400002056
:100D4000FFFF7F00FFF7A4FE09A10020FFF750FC82
:100D50000D4800F02DF80D4D00242046FFF77EFED3
:100D6000284600F025F8641C042CF6DBF4E70000AC
:100D70004C4F473A2053797374656D2073746172D8
:100D8000746564210D0A000040420F0090D00300FA
:100D900000F180400068002800D00120704708B5AD
:100DA00000F18040002101600068009008BD000053
:100DB00000283ED01F49204A096800BF00BF00BF7D
:100DC00000BF00BF00BF00BF00BF91422FD000BFD7
:100DD00000BF00BF00BF00BF00BF00BF00BF00BF1B
:100DE00000BF00BF00BF00BF00BF00BF00BF00BF0B
:100DF00000BF00BF00BF00BF00BF00BF00BF00BFFB
:100E000000BF00BF00BF00BF00BF00BF00BF00BFEA
:100E100000BF00BF00BF00BF00BF00BF00BF00BFDA
:100E200000BF00BF00BF00BF00BF00BF00BF013850
:100E3000C3D17047000000200024F40000283ED0F9
:100E40001F49204A096800BF00BF00BF00BF00BFA4
:100E500000BF00BF00BF91422FD000BF00BF00BF46
:100E600000BF00BF00BF00BF00BF00BF00BF00BF8A
:100E700000BF00BF00BF00BF00BF00BF00BF00BF7A
:100E800000BF00BF00BF00BF00BF00BF00BF00BF6A
:100E900000BF00BF00BF00BF00BF00BF00BF00BF5A
:100EA00000BF00BF00BF00BF00BF00BF00BF00BF4A
:100EB00000BF00BF00BF00BF00BF0138C3D17047F3
:100EC000000000200024F40070B541EA4201DDE991
:100ED00004564FF0A04441EA830141EA052104EBA6
:100EE000800041EA0641C0F8001770BD01224FF0B2
:100EF000A043824011B1C3F808257047C3F80C2500
:100F000070474058002800D00120704708B50022E3
:100F100042504058009008BDD0F80403084000D06B
:100F2000012070474058002800D00120704708B5C4
:100F3000002242504058009008BD000070B50126C4
:100F400070044FF0E0210025C1F88001084C4010EA
:100F5000C4F84803C4F8080366602F20FFF76EFF4B
:100F6000A660044C2F20A560FFF768FFA57070BD38
:100F7000001001400400002070B50546C87D0C46F5
:100F800000284FF4847128460AD0FFF7BFFFD5F838
:100F90001805627EE1688854607E401C607670BDF2
:100FA000FFF7B4FFD5F8180570BD1FB501238DF804
:100FB00000308DF808100192D0E900126846904781
:100FC0001FBD00002DE9F84F204C00256846D4E9EC
:100FD00001B6FFF7E7FD8046FFF704FE0746A94686
:100FE000B8F1000F25D00023009ACC46606819E0C4
:100FF00007680146974202D9BA1A026014E0C1F8A4
:1010000000C0D1F80C80D21BC8693B448A46B8F1B5
:10101000000F07D0F71827F07F47C1E90178CAF819
:101020001C500D460028E3D160602846FFF72EFED5
:1010300004E02846FFF72AFE00B917B15846FFF72B
:101040005BFD84F80390BDE8F88F000004000020E9
:101050000D4B10B5596831B102680C68A24204D832
:10106000A21A0A60C161586010BD0B4603E00B462E
:10107000C969121B21B10C689442F8D3A41A0C6000
:101080000260C161D86110BD040000202DE9F0416B
:101090001D4D6C68002C35D01C4800270068A968DD
:1010A000B846401A20F07F462068B04215D8224644
:1010B000361A0744E469107C68B182F81080EB6846
:1010C00033B1D2E90501984728B1FFF7A5FC02E04A
:1010D000D2E905108847002CE6D12978687881424A
:1010E00006D1401CC0B26870022801D185F8018089
:1010F00005486978183040F82170BDE8F0411420A7
:10110000FFF7E4B9BDE8F0810400002004150140B8
:1011100070B50C4605464FF48E71FFF7F7FEA18AB5
:10112000A068415CA08A401CA082C5F81C1570BD57
:101130001FB500228DF800208DF8081081680191FC
:101140008275D0E90012684690471FBD2DE9FF4720
:101150000C4605464FF40071FFF7DEFE01274FF401
:101160000178002618B34FF4927949462846FFF7D4
:10117000C8FEE0B149462846FFF7C8FEC5F8088317
:10118000A07E00B96F6002208DF80000D5F88004C1
:10119000C5F880040390E07D8DF80800E0680190B8
:1011A000E6752676D4E900126846904727E00421C8
:1011B0002846FFF7B1FE10B34FF484712846FFF7BD
:1011C000A0FEE0B121462846FFF7D6FEE07D617E15
:1011D000884214D1207E38B1617EE268E0752069D2
:1011E000E0602676667607E0A07E00B96F60C5F8FD
:1011F0000883E675617EE2682046FFF7D6FE4FF46D
:101200008E7841462846FFF77CFE88B1A08AA17DF2
:10121000884204D221462846FFF77AFF08E041467B
:101220002846FFF773FEA17D11B12046FFF780FF2E
:101230004FF4A27841462846FFF763FE002812D0FB
:1012400041462846FFF762FEA07E00B12F60E07D98
:10125000002808D0E675617EE26804B02046BDE84B
:10126000F047FFF7A2BEBDE8FF872DE9FF410C461E
:101270004FF4927705463946FFF754FE0026C0B179
:1012800039462846FFF753FE02208DF80000D5F8B6
:101290008004C5F880040390D5F83C058DF808005B
:1012A000E0680190E6752676D4E90012684690471A
:1012B00024E04FF4887739462846FFF733FEE8B13B
:1012C00039462846FFF733FED5F83C05C1B2E07D2C
:1012D000884213D1207E60B1E268D5F8000220F088
:1012E0002000C5F80002207EE0752069E0602676C7
:1012F00001E0E675E2682046FFF757FE4FF4A2775B
:1013000039462846FFF70EFE68B139462846FFF7F2
:101310000EFEE07D38B1E675D5F83C05E268C1B255
:101320002046FFF742FE4FF4907631462846FFF7FD
:10133000F9FD00280FD031462846FFF7F8FDA07DC3
:10134000002808D0D5F84C0504B0C1B22046BDE84D
:10135000F041FFF7EDBEBDE8FF81111213140D0E31
:101360000F1000008413000000000020280000007F
:10137000DA090000AC130000280000200021000062
:10138000EA0900000090D003000000000000000007
:10139000000000000000000000000000000000004D
:0C13A00000000000000000000000000041
:0400000500000401F2
:00000001FF
