:020000040000FA
:1000000098240020150400001D0400001F040000B7
:10001000210400002304000025040000000000006B
:1000200000000000000000000000000027040000A5
:1000300029040000000000002B0400002D04000033
:100040002F04000015080000610E00002F040000BE
:100050002F0400002F0400002F0400002F040000D4
:10006000F50C00002F0400002F0400002F040000F6
:100070002F0400002F0400002F0400002F040000B4
:100080002F0400002F0400002F0400002F040000A4
:100090008D0800002F0400002F0400002F04000032
:1000A0002F0400002F0400002F0400002F04000084
:1000B0002F0400002F0400000000000000000000DA
:1000C0002F0400002F0400002F0400002F04000064
:1000D0002F0400002F0400002F0400000000000087
:1000E0000000000000000000000000000000000010
:1000F0000000000000000000000000000000000000
:1001000000000000000000000000000000000000EF
:1001100000000000000000000000000000000000DF
:10040000DFF80CD000F086F800480047991600008D
:10041000982400200648804706480047FEE7FEE78C
:10042000FEE7FEE7FEE7FEE7FEE7FEE7FEE7FEE7A4
:10043000D90A00000104000040EA01039B0703D031
:1004400009E008C9121F08C0042AFAD203E011F813
:10045000013B00F8013B521EF9D27047D2B201E0D5
:1004600000F8012B491EFBD270470022F6E710B5B9
:1004700013460A4604461946FFF7F0FF204610BD12
:1004800030B505462A460B4612F8010B13F8014B0E
:1004900008B1A042F8D01CB1002802D06D1CF1E7D1
:1004A000284630BD421C10F8011B0029FBD1801AE0
:1004B00070472DE9F05F0546002092469B4688462E
:1004C0000646814640241BE02846414647462246D0
:1004D00000F041F853465A46C01A914110D31146D4
:1004E0001846224600F028F82D1A67EB01084F46FF
:1004F00022460120002100F01FF817EB00094E41B1
:10050000201EA4F10104DFDC484631462A4643465A
:10051000BDE8F09F064C074D06E0E06840F001039F
:1005200094E8070098471034AC42F6D3FFF76CFF0D
:100530008C2A0000AC2A0000202A04DB203A00FAB2
:1005400002F1002070479140C2F1200320FA03F32A
:10055000194390407047202A04DB203A21FA02F028
:100560000021704721FA02F3D040C2F120029140ED
:10057000084319467047000070B504460025012065
:10058000084908600848007848B1012048602146C1
:100590000648FFF775FF08B1012500E00025284651
:1005A00070BD0000002000404A000020CA03002067
:1005B00010B540210448FFF758FF00200349087098
:1005C0000349087010BD0000CA0300204A00002043
:1005D0004900002030B5A1B00446002514484079F8
:1005E00020701348807960701148C0790106104866
:1005F000007A41EA00410E48407A41EA00200C4965
:10060000897A08436060607868B90AA101A86268C5
:1006100000F062FC01A800F031FA802101A8FFF788
:1006200024FF012500E00025284621B030BD000050
:100630000C040020424F4E442C545950453A474533
:10064000524B4F4E2C49443A3078252E38582C0DB9
:100650000A0000002DE9F043A1B004464FF0000964
:1006600000263748407920703548807960703448DA
:10067000C07901063248007A41EA00413048407AA8
:1006800041EA00202E49897A084360602C48C07AEC
:1006900001062B48007B41EA00412948407B41EAA2
:1006A00000202749897B40EA01072648874241D13B
:1006B000607800283CD12248017CC07B41EA0020C0
:1006C000A0811F48407CA0731D48807CE0731C48BB
:1006D000C07C2074227C1A49143104F11100FFF708
:1006E000ABFE657C802101A8FFF7BFFE16A101A823
:1006F000626800F0F1FB01A8FFF7D4FE01A900EB4E
:100700000108A2892B4617A1404600F0E5FB01A88D
:10071000FFF7C8FE01A900EB0108E37BA27B16A14D
:10072000404600F0D9FB01A800F0A8F9012602E03C
:10073000002600E00026304621B0BDE8F08300002E
:100740000C0400204A3A2A0A54454C452C5459506E
:10075000453A4745524B4F4E2C49443A3078252E66
:1007600038582C00564241543A25642C5354415475
:10077000453A25642C000000465245513A25642C28
:100780004C4F53543A25642C0D0A000000F01F0210
:1007900001219140024A430942F8231070470000AA
:1007A00080E200E000F01F0201219140024A43096B
:1007B00042F823107047000080E100E000F01F02C3
:1007C000012191404209920002F1E022C2F8001199
:1007D0007047000000F01F0201219140024A4309C6
:1007E00042F823107047000000E200E010B5002836
:1007F00007DA4A07140E054A00F00F031B1FD454F2
:1008000003E04A07130E024A135410BD18ED00E02E
:1008100000E400E010B51948006838B118480068D5
:1008200000F0010010B100201449086013480C309A
:10083000006870B11248006800F0080048B100205C
:100840000E490C3108600F48006810B10D4800686F
:1008500080470A481030006870B10948006800F00D
:10086000100048B1002005491031086006480068B2
:1008700010B105480068804710BD0000001100401D
:1008800004130040400000203C0000203EB5164804
:100890000068019002A801F0E5F804461CBB13486B
:1008A000006800B3029800F0010030B100208DF81C
:1008B000000068460D4909688847029800F0020068
:1008C00030B101208DF80000684608490968884762
:1008D000029800F0040030B102208DF80000684654
:1008E0000249096888473EBD3400002014000020FA
:1008F00030B5024608205149086006204F490839A2
:10090000086000204D4958310860B2F5614F47D06A
:1009100014DCB2F5165F34D009DCB2F5966F1FD047
:10092000B2F5166F22D0B2F5965F58D124E0B2F539
:10093000964F2BD0B2F5164F51D12CE0B2F5E12FE6
:100940003DD006DCB2F5E13F2FD0B2F5613F46D194
:1009500030E0B2F5612F37D039481044F8B938E0AB
:100960004FF49E2035491031086038E04FF41D20C7
:1009700032491031086032E03248304910310860A5
:100980002DE031482D491031086028E02F482B49CF
:100990001031086023E02E482849103108601EE01D
:1009A0002C4826491031086019E02B4823491031A2
:1009B000086014E029482149103108600FE02848F8
:1009C0001E49103108600AE026481C4910310860B1
:1009D00005E04FF0805019491031086000BF00BF9A
:1009E0004FF0FF302049086004202049C1F804037B
:1009F0001249143908600220012181401C4B44092E
:100A000043F8241000BF0321002807DA4B071D0E0E
:100A1000184B00F00F04241F1D5503E04B071C0E5C
:100A2000154B1C5400BF02200121814043099B004B
:100A300003F1E023C3F8001100BF30BD14250040CE
:100A4000C0BDF0FF00B013000050270000A04E0012
:100A500000509D0000F0EB0000E0D70100B0AF03B4
:100A600000705F0700D0BE0E082300400020004049
:100A700080E200E018ED00E000E400E010B503467D
:100A8000002404E0185D00F007F8601C84B2185DD3
:100A90000028F7D110BD00000121084A91600849E3
:100AA000086000BF074909680029FBD00021054AFA
:100AB00011600121014AD160704700000020004010
:100AC0001C2500401C210040014802490860704775
:100AD0000090D0030800002010B500F0CFFC10B14A
:100AE00076487749486700F0E1FC28B1754800680E
:100AF000C0F342307449086000F002FD28B1734829
:100B0000006820F080707149086000F011FD48B164
:100B100000206F4908604FF08041C1F810016A4918
:100B2000091F086000F02EFD18B1032066496431EA
:100B3000086000F03FFD68B10520664908600120AB
:100B400064497831086000206249083108603F201C
:100B5000091F086000F046FD002855D05E48006877
:100B60005E4908605C48001D0068091D08605A481D
:100B700008300068091D086057480C300068091DDE
:100B80000860554810300068091D0860524814304C
:100B90000068091D08605048183000684F4920312E
:100BA00008604D481C300068091D08604A48203024
:100BB0000068091D0860484824300068091D086065
:100BC000454828300068091D086043482C300068FB
:100BD000091D0860404830300068404940310860D5
:100BE0003D4834300068091D08603B4838300068D3
:100BF000091D086038483C300068091D0860364807
:100C000040300068091D086000F00EFC30B12D482E
:100C10001430006800F04F00314908602B487438E8
:100C2000006840F47000294974390860BFF34F8FA1
:100C3000BFF36F8F2B48006800F0004028B92948A7
:100C4000001D006800F0004098B3012026490860AC
:100C500000BF264800680028FBD015202149086005
:100C600000BF224800680028FBD015211D48001D48
:100C7000016000BF1D4800680028FBD000201A4911
:100C8000086000BF194800680028FBD000BFBFF310
:100C90004F8F0E48F038006800F4E06014490843B4
:100CA000001D0A49F0390860BFF34F8F00BF00BF35
:100CB000FEE7FFE7FFF708FF10BD00000DF0ADBA3B
:100CC00000C00740440200103C050040FCED00E07D
:100CD0000C010040105600400404001020C50040E4
:100CE000E40E00400012001004E5014000E4014061
:100CF0000000FA0510B52D480068012854D10020E5
:100D00002A49086001202A494860C86029480068CB
:100D1000401C2849086008460068C82841D11520B1
:100D200000BF03071946D1F80425012383409343EC
:100D3000C1F80835012383401340C1F80C3500BFCA
:100D400000201C4908601C480078401C1A490870A3
:100D500008460078012808D118480078184908701A
:100D60000846007801F024FB1BE0134800780228B5
:100D700008D114480078124908700846007801F03C
:100D800017FB0EE00C48007803280ADB0E480078B9
:100D90000B4908700846007801F00AFB002006495C
:100DA000087001200249086010BD00004081004029
:100DB00000800040000000200400002052000020BD
:100DC00051000020530000205400002010B50820DE
:100DD000012181401C4A430942F8231000BF012031
:100DE0001A494860C8600020194908600320091D9D
:100DF00008600A2016490C310860102014493C3163
:100E0000086000031349086008200321002807DA5E
:100E10004A07140E104A00F00F031B1FD45403E0BE
:100E20004A07130E0D4A135400BF082001218140C8
:100E30004209920002F1E022C2F8001100BF012035
:100E40000249086010BD000080E100E00080004021
:100E5000048500400483004018ED00E000E400E059
:100E60001748006801282AD1002015490860154854
:100E7000006815490870154801780078401C134A2D
:100E80001070402902DD0020114608700E480078DD
:100E90000A280AD00C4801780C480078401E0C4AF9
:100EA000115400200B49087009E0074801780748F1
:100EB0000078401E064A1154012006490870704708
:100EC000082100401825004048000020490000206B
:100ED000CA0300204A0000200FB4084B10B504A933
:100EE00002AA039800F01CF8044602A9002000F0B2
:100EF00048FA204610BC5DF814FB00008313000084
:100F000002E008C8121F08C1002AFAD170477047D2
:100F1000002001E001C1121F002AFBD17047000030
:100F20002DE9FF4F8DB00F460546002606E0252827
:100F30000BD0DDE90F1290476D1C761C2878002835
:100F4000F5D111B03046BDE8F08F0024A246A1468D
:100F50000122EC4900E0044315F8013F203B02FA6E
:100F600003F00842F7D128782A2810D06FF02F021A
:100F70002878A0F13001092914D80AEB8A0102EB84
:100F8000410144F0020400EB010A6D1CF0E701CFBF
:100F90005FEA000A03D544F40054CAF1000A44F0A1
:100FA00002046D1C28782E2817D115F8010F44F083
:100FB00004042A280ED06FF02F022878A0F1300107
:100FC00009290AD809EB890102EB410100EB01096B
:100FD0006D1CF2E757F8049B6D1C28786C280FD025
:100FE00006DC4C2817D068280DD06A2814D104E0FC
:100FF000742810D07A280FD10DE044F400140AE0D0
:1010000044F4801401E044F440146978814202D130
:1010100004F580146D1C6D1C2A786E2A1FD00CDC20
:10102000632A31D004DC002A8BD0582A11D1A3E0E6
:10103000642A68D0692A0CD165E0732A2ED004DCBA
:101040006F2A73D0702A04D19BE0752A6FD0782A5A
:101050006ED01046DDE90F129047761C50E1C4F3C4
:101060000250022806D0032809D0042801CF09D055
:10107000066045E101CFF117C0E9006140E101CF11
:1010800006803DE106703BE117F8040B8DF8000087
:1010900000208DF80100EB46012003E057F804BB67
:1010A0004FF0FF3061074FF0000102D40DE008F16E
:1010B0000101884649450FDA8045F8DB1BF8081026
:1010C0000029F4D108E008F1010188468142FADBE9
:1010D0001BF808100029F6D1DDE90F23AAEB080060
:1010E0008146214600F036F9304400EB080604E062
:1010F000DDE90F121BF8010B9047B8F10108F7D298
:1011000021464846F7E00A21C4F302534FF0000B92
:101110000891022B04D001CFC117032B09D00AE09C
:10112000FF1D27F00707F7E8020108E032E01FE0A3
:1011300020E000B2C117042B01D140B2C117031E39
:1011400071F1000307DA4FF0000CD0EB0C006CEBF0
:1011500001012D2302E0230504D52B238DF8243033
:10116000012303E0E30701D02023F7E7984658E086
:101170000A2110E010210EE010204FF0000B089023
:101180000CE010214FF0000B44F004044FF008096C
:10119000089103E008214FF0000B0891C4F30253BB
:1011A000022B04D001CF0021032B06D006E0FF1D47
:1011B00027F00707F7E8020103E080B2042B00D113
:1011C000C0B24FF0000823072BD5702A07D0DDF8F6
:1011D00020C08CF0100C5CEA0B0C05D00EE0402314
:1011E0008DF82430012308E050EA010306D03023B3
:1011F0008DF824308DF8252002239846DDF820C094
:101200008CF0080C5CEA0B0C0BD150EA010301D105
:10121000630706D530238DF824304FF00108A9F17B
:101220000109582A04D038A20B9208AA0A920BE0AE
:101230003AA2F9E75B46089AFFF73BF90B9B9B5CE8
:101240000A9A521E0A92137050EA0102F2D10A98C9
:10125000ADEB000000F1200B600702D524F48034D0
:1012600001E04FF00109D94502DDA9EB0B0000E0D8
:10127000002000EB0B0141440890AAEB010AE003B7
:1012800006D4DDE90F232146504600F063F80644FA
:101290004FF0000908E009A911F80900DDE90F1273
:1012A000904709F10109761CC145F4DBE0030CD538
:1012B000DDE90F232146504600F04CF8064404E0D7
:1012C000DDE90F1230209047761C0899481E0890DF
:1012D0000029F5DC08E00A980A990078491C0A916F
:1012E000DDE90F129047761CBBF10001ABF1010B59
:1012F000F1DC21465046DDE90F2300F019F80644E1
:101300006D1C1BE609280100303132333435363785
:101310003839616263646566000000003031323341
:1013200034353637383941424344454600000000E1
:101330002DE9F041044600251E461746880404D4D2
:1013400005E039462020B0476D1C641EF9D52846BB
:10135000BDE8F0812DE9F041044600251E46904687
:10136000C80301D5302700E02027880404D505E014
:1013700041463846B0476D1C641EF9D52846BDE885
:10138000F0810A68531C0B601070704710B504465A
:10139000204600F002F800BA10BD01460A6892FA31
:1013A000A2F000BA7047000010B540F213101149C6
:1013B00008601149C87C11490968884710481149DB
:1013C000086000201049C1F810010120086100BF29
:1013D0000848F03800680028FAD000200549F039A4
:1013E000086040F217100849C1F800020120486067
:1013F00010BD0000001200405800002044000020F2
:101400003A03002004150040001000400020054968
:10141000086001208107086000BF024800680028BA
:10142000FBD070470001004013480078062820D107
:101430001148001D007800F00F00D0B90E480830A8
:10144000007800F0F000302801D1012070470A48F0
:101450000830007800F0F000402801D10120F5E7C5
:1014600005480830007800F0F000502801D1012034
:10147000ECE70020EAE70000E00F00F00A480078FF
:1014800006280ED10848001D007800F00F0040B972
:1014900005480830007800F0F000302801D1012024
:1014A00070470020FCE70000E00F00F013480078D0
:1014B000062820D11148001D007800F00F00D0B997
:1014C0000E480830007800F0F000302801D10120EB
:1014D00070470A480830007800F0F000402801D139
:1014E0000120F5E705480830007800F0F0005028AA
:1014F00001D10120ECE70020EAE70000E00F00F056
:101500000A48007806280ED10848001D007800F02F
:101510000F0040B905480830007800F0F00030288E
:1015200001D1012070470020FCE70000E00F00F02F
:1015300013480078062820D11148001D007800F0DB
:101540000F00D0B90E480830007800F0F0003028C5
:1015500001D1012070470A480830007800F0F000FF
:10156000402801D10120F5E705480830007800F057
:10157000F000502801D10120ECE70020EAE700004C
:10158000E00F00F00A48007806280ED10848001D38
:10159000007800F00F0040B905480830007800F0EE
:1015A000F000302801D1012070470020FCE7000046
:1015B000E00F00F00A48007806280ED10848001D08
:1015C000007800F00F0040B905480830007800F0BE
:1015D000F000302801D1012070470020FCE7000016
:1015E000E00F00F00A48007806280ED10848001DD8
:1015F000007800F00F0040B905480830007800F08E
:10160000F000502801D1012070470020FCE70000C5
:10161000E00F00F0F0B5152001210A460024234612
:10162000254600BF07073E4641EA420747EA8407CE
:1016300047EA032747EA054C06F5E06747F820C06C
:1016400000BF00BFF0BD000010B500F0C7FF0020D4
:1016500009E000EB800101EB40110B4A11440B4AF9
:1016600042F82010401C0828F3DB002009E000EBC2
:10167000800101EB4011064A1144064A42F820104D
:10168000401C0828F3DB10BD7000002098010020EA
:10169000C4010020EC020020FFF7BCFFFFF7B6FEFC
:1016A0004FF4E130FFF724F900BF65A0FEF764FFB7
:1016B0000028FAD0FEF77CFF634800786349087081
:1016C000002000F081FE6148007800F079FF0120E1
:1016D00000F0E6FEFFF77AFBB0E05DA0FEF74CFFFE
:1016E000A8B1FEF765FF642000F0C8F800BFBFF3A3
:1016F0004F8F5948006800F4E06058490843001DC6
:1017000055490860BFF34F8F00BF00BFFEE7544844
:10171000007800283AD000205149087051480078DC
:1017200001282AD100204F4908704F48FEF752FF88
:1017300018B3152000F0DBFBFA2000F09FF815200D
:1017400000F0CAFB642000F099F8152000F0CFFBF0
:10175000FA2000F093F8152000F0BEFB642000F0A2
:101760008DF8152000F0C3FBFA2000F087F8152053
:1017700000F0B2FB642000F081F8002000F024FEAD
:10178000012000F08DFE01203849086038480078BB
:1017900050B100203649087000F016FE012000F01C
:1017A0007FFE01203149086032480078002845D08A
:1017B00000203049087001202C494860002000F0CA
:1017C0006FFE152000F088FB2B48407878BB2A4834
:1017D0004079FF280CD12848C07A342808D101204C
:1017E0002049087000F0F0FD1F4800F06DFE25E074
:1017F00021484079A0B91C48FEF72CFF30B10120E8
:1018000000F0E2FD184800F09DFE17E0002000F017
:10181000DBFD012000F044FE0120144908600DE0CA
:10182000012000F03DFE01201049086006E0FFE7BE
:10183000012000F035FE01200C4908604DE7000052
:101840007374617274000000520000205100002087
:101850007265626F6F7400000CED00E00000FA0525
:101860004F0000204C000020700400200080004049
:10187000500000204E0000200C04002010B504464B
:101880004FF47A7104FB01F000F002F810BD000083
:1018900000B9704700BF00BF00BF00BF00BF00BF5E
:1018A00000BF00BF00BF1F4909681F4A914200D115
:1018B00030E000BF00BF00BF00BF00BF00BF00BFDF
:1018C00000BF00BF00BF00BF00BF00BF00BF00BF20
:1018D00000BF00BF00BF00BF00BF00BF00BF00BF10
:1018E00000BF00BF00BF00BF00BF00BF00BF00BF00
:1018F00000BF00BF00BF00BF00BF00BF00BF00BFF0
:1019000000BF00BF00BF00BF00BF00BF00BF00BFDF
:1019100000BF00BF01460139084600D0BBE700BF49
:10192000B7E70000080000200024F40000B9704769
:1019300000BF00BF00BF00BF00BF00BF00BF00BFAF
:1019400000BF1F4909681F4A914200D130E000BF23
:1019500000BF00BF00BF00BF00BF00BF00BF00BF8F
:1019600000BF00BF00BF00BF00BF00BF00BF00BF7F
:1019700000BF00BF00BF00BF00BF00BF00BF00BF6F
:1019800000BF00BF00BF00BF00BF00BF00BF00BF5F
:1019900000BF00BF00BF00BF00BF00BF00BF00BF4F
:1019A00000BF00BF00BF00BF00BF00BF00BF00BF3F
:1019B00001460139084600D0BBE700BFB7E7000089
:1019C000080000200024F40010B54FF470500B49BB
:1019D000086000200A49087000F000FE2421094830
:1019E000FEF743FD09210848FEF73FFD1420FEF7EE
:1019F000D9FE032005490860002010BD08F501400C
:101A00000D000020660300205C030020001200404F
:101A100010B50446207820B1012806D0022816D13E
:101A200007E001200B49087011E001200A49087005
:101A30000DE006E009480078002802DD0120084991
:101A40000870064800F08AF80028F3D000BF00BFF5
:101A500010BD00004F000020500000200C040020AA
:101A60004E00002010B5044600BF0C48007808B9AD
:101A7000082010BD00BF00BF0CB90E20F9E700BF61
:101A80000120FEF78FFE0648006820600020044910
:101A900008600120FEF792FE0020EAE70C0000201B
:101AA0002C00002070B5044600BF0CB90E2070BD9C
:101AB00000BF1E48007828B1FFF786FF05460DB12C
:101AC0002846F4E71A496068086018222146194838
:101AD000FEF7B2FC00201849086024211748FEF7E1
:101AE000C4FC09211648FEF7C0FC00F05FFFFFF7B9
:101AF000ABFD00F0BBFE00F033FC0E48407C00F074
:101B000003010120FEF772FE0A48807C00F0030109
:101B10001420FEF76BFE1420FEF750FE002009494A
:101B200008700120014908700020C0E70C00002067
:101B300014000020580000202C0000206603002024
:101B40005C0300200D0000200348007808B9012044
:101B500070470020FCE700000D00002010B504468F
:101B600000BF2448007808B9082010BD00BF00BF9E
:101B70000CB90E20F9E700BF1F48806A08B905209C
:101B8000F3E70120FEF70EFE1B48406A1A4951F8A0
:101B90002000007820700846406A51F82000407804
:101BA00060700846406A51F820008078A0700846AE
:101BB000406A51F820000079207122780846406A76
:101BC0000B4653F82000411D601DFEF735FC0A4806
:101BD000406A401C08494862082801D30020486236
:101BE0000548806A401E044988620120FEF7E6FD30
:101BF0000020BAE70C000020EC02002010B50446DB
:101C000000BF0948007808B1112010BD00BF00BF17
:101C10000CB90E20F9E700BF0448216801600120DB
:101C200000F04EFE0020F0E70D000020180000201C
:101C300010B5044600BF0948007808B1112010BD56
:101C400000BF00BF0CB90E20F9E700BF04482168AF
:101C50004160022000F034FE0020F0E70D0000207B
:101C60001800002070B505460C4600BF12480078E9
:101C700008B1112070BD00BF00BF0DB90E20F9E7FB
:101C800000BF00BF092C01DB0720F3E700BF22469D
:101C900029460A48FEF7D0FB084808380474C4F106
:101CA0000801FF200841054908398874042000F024
:101CB00007FE0020DEE700000D00002020000020CD
:101CC000014600BF0748007808B11120704700BFE7
:101CD00000BF7D2901D90720F8E700BF024AD1746F
:101CE0000020F3E70D0000201800002010B500BF11
:101CF0001D48007808B1112010BD00BF4FF0FF3023
:101D00001A49086000201A49C1F8100119481A49F7
:101D1000086040F217101949086010201349091F84
:101D200008600420104908701548807C1549086037
:101D30001348C07C1349283908601348091F0860FC
:101D40000120FEF723FD0120FEF738FD00200B499E
:101D5000FC390860091D08600849F0390860012055
:101D6000034948600020C7E70D0000200813004029
:101D700000100040051F00003C0000200012004041
:101D800018000020301500403A0300201048007869
:101D9000042819D100200F490860401E0E49C1F8DF
:101DA000080300200D4908600A49F0390860012045
:101DB0000949086100BF0748F03800680028FAD0D8
:101DC000002003490870704740F20110FBE7000053
:101DD0000D00002000120040001000403C000020D8
:101DE00010B5044600BF3748007808B9082010BD78
:101DF00000BF00BF0CB90E20F9E700BF00BF20787C
:101E000050B12078202807DC2F48007830B920789E
:101E10002D49C97C884201DD0920E8E700BF00BFE9
:101E20002A48806A082801D30420E0E700BF26483A
:101E3000407830B9E07820B12348007D08B9062009
:101E4000D5E70120FEF7AEFC2049096A1F4A52F887
:101E5000210025222146FEF7EFFA61781C4A515CE9
:101E6000481CC11700EB91718910A0EB81016278C9
:101E7000174B995460781946085C1449096A134A4B
:101E800052F8211008711046006A401C1146086281
:101E9000082801D3002008620C48806A401C0B49C6
:101EA00088620120FEF78AFC0748407838B9064866
:101EB000007C20B90748007808B900F007FC002032
:101EC00095E700000C000020580000209801002039
:101ED0005C0300200D00002000BF4FF0A0410A4627
:101EE000012303FA00F1C2F80C1500BF704700BFD0
:101EF0004FF0A0410A46012303FA00F1C2F8081589
:101F000000BF70472DE9F0410025002601276248F7
:101F1000006818B9FFF748FABDE8F0815F48806AA9
:101F2000082802D3FFF740FAF6E75B48083000685C
:101F30005B4901EB800458480C30006821888842D6
:101F400007D1A07857494978B0EB610F01D101263C
:101F50000027544840784010A0704F480C3000686B
:101F600020805148007D20B14E48407800F00100AB
:101F700000B90125002D79D040F21B104B490860B3
:101F800049480078002854D001285DD14848806A2B
:101F9000F0B34748406A464951F8200040783E492E
:101FA00008310968884237D1E078012814D19EB9F8
:101FB0003F48406A401C3E494862082801D300203F
:101FC00048623B48806A401E394988623948006847
:101FD00040F00100374908600120E0703448406A51
:101FE000334951F8200034490860096808783349BA
:101FF00009688847304800680078314908702E48E1
:10200000006802782C480168491D2D48801C00E0BA
:1020100002E0FEF711FA07E00020E07027490968A6
:1020200088470020264908701E4840782449487097
:102030000AE000202149096888471A4800782049A9
:1020400008700020487000BF00BF05201D490870BF
:102050001148083000681C49086019481A49283995
:1020600008601A481A49086002E0FFE7FFF79CF988
:1020700087B1A178084A08321268D0B200F0BCFAE1
:1020800040B10C48006840F004000A490860142080
:10209000FEF7A0FB00BF3FE700140040EC02002069
:1020A000660300203A030020580000200012004080
:1020B000980100202C000020100000204400002087
:1020C000180300200D0000202C150040D520000032
:1020D0003C00002010B540F217100849086008497C
:1020E000C87C0849096888470748084908600848C3
:1020F0000849086004200849087010BD001200401B
:1021000058000020440000203A030020041500403D
:10211000051F00003C0000200D00002010B540F21B
:1021200013101849086018480068184908601848D2
:10213000808982381749C1F844050120C860002011
:10214000C1F840010021144801604FF4E0501349E8
:1021500008604814091D086000201149C1F80C01ED
:102160000B48007818B900200E49096888470E48C6
:102170000E4908600E480F49086003200E49087098
:1021800010BD0000001200403800002040A50040B3
:102190005800002000A0004044A1004004F5014088
:1021A00000100040440000203A03002004150040C5
:1021B000FD2100003C0000200D00002010B50C485F
:1021C000006840F001000A49086000F05FFB094820
:1021D000806A30B90020084908701420FEF7FAFA26
:1021E00004E01420FEF7F6FA00F070FA10BD0000CB
:1021F0002C000020980100200D00002010B54FF4A5
:10220000E0504549086045480068002841D04448EE
:10221000006800283DD001204249486040033E4903
:1022200008604148006840F001003F4908603F48AD
:10223000C0893F490968401A401C3E49086000F0C7
:1022400025FB3A48007880B13B48007800280CDD37
:102250003A490968C8B2002100F0CEF928B13248E5
:10226000006840F00400304908603548806A18B1C1
:102270002E48007C012806D1002032490870142025
:10228000FEF7A8FA46E01420FEF7A4FA00F01EFAC2
:1022900040E027490868411E254A1160B8B901206D
:1022A0002049486040031C4908602048C089401C00
:1022B000204908601C48006840F002001A49086084
:1022C0000020204908701420FEF784FA22E040F232
:1022D0001B101249F43108601B49096808781B4932
:1022E000096888471A4815492839086019481A4961
:1022F000086002201349087001200A490860400361
:102300000549091F08600748D0F8440110B10120B1
:102310001249086010BD000008F501400C11004092
:102320000014004000A000402C00002058000020B5
:1023300030000020340000203A0300202C1500401B
:10234000980100200D000020100000204400002013
:10235000180300201D2100003C0000200010004058
:102360000E490F4801600F49001D01600B49091D0E
:10237000001D01600B49091D001D01600A49001D77
:1023800001600649F039001D01600749091D001D63
:1023900001600649001D0160704700000011004007
:1023A00060F5014000A0004040A100400010004046
:1023B00010B50446002000F073F8204600F000F944
:1023C000012000F06DF810BD70B58AB004460026FB
:1023D00001202C490860FFF7B7FB08B9FFF7F4FAB2
:1023E00000BFFFF7B1FB0028FBD027A000680990D1
:1023F00026A00068089026A103C9CDE9060118228D
:1024000025496846FEF718F81CB901208DF801002F
:1024100004E0012C02D100208DF8010004208DF889
:102420000A0002208DF8080001208DF8000002202B
:102430008DF80900194801900520ADF80E0040F212
:10244000EE20ADF80C0001208DF814006846FFF76F
:1024500029FB58B909A8FFF7D1FB08A8FFF7E8FB4B
:10246000082106A8FFF7FEFB012600E00026012553
:102470004FF47A7115FB01F0FFF758FA00BF3046B0
:102480000AB070BDFC1F0040E7E7E7E7C2C2C2C266
:10249000E7C2C3C4C5C6C7C8742A0000111A000029
:1024A00070B505460026012D03D1FFF71FFC044639
:1024B00003E015B9FFF76AFC04460CB9012600E0F9
:1024C0000026304670BD000070B5044600256078D7
:1024D00010B1012808D103E000201949487005E037
:1024E00001201749487001E0002500BF00BF00200F
:1024F0001349C87020200870FF2048716178104887
:1025000081716068010E0E48C1716068010C0C4851
:102510000172A088010A0A484172217981720A2158
:10252000C1722A2101733A2141734A2181733221F8
:10253000C173FFF755FC00B90125284670BD0000A6
:102540003104002070B504460025607810B10128E0
:1025500008D103E000201949487005E0012017491F
:10256000487001E0002500BF00BF2020134908701B
:102570000020C870FF204871617810488171606840
:10258000010E0E48C1716068010C0C480172A088F0
:10259000010A0A484172217981720A21C1722A21F5
:1025A00001733A2141734A2181733321C173FFF7CB
:1025B00017FC00B90125284670BD00003104002039
:1025C00070B5044600257D2C05DC2046FFF778FB1E
:1025D00008B9012500E00025284670BD0020044907
:1025E00008624862886203490862486288627047EC
:1025F00098010020EC02002070B504460D462F48DB
:10260000806A082857D22E48007801280ED12D481C
:102610000078202801DD002070BD2A480078274975
:10262000096A264A52F82110087012E024484078BE
:1026300038B900202149096A204A52F8211008704F
:1026400007E01F48C07C1D49096A1C4A52F8211046
:1026500008701A49096A194B53F821100A7819466B
:10266000096A53F82110481D1649891CFDF7E4FE3C
:102670001248006A114951F820004470124800685D
:1026800040B2096A0D4A52F8211088701046006A5B
:10269000114651F8200005710846006A401C086286
:1026A000082801D3002008620448806A401C0349BE
:1026B00088620120B0E70020AEE70000EC020020B5
:1026C000580000203A0300204815004010B50120B2
:1026D000574908605748406A564951F82000564902
:1026E00008605648007810B1012875D129E0524998
:1026F000096808785249096888474F480068007996
:1027000050490870002048704B48006802784A48D9
:102710000168491D4B48801CFDF78EFE40F21B10DE
:102720004949086011204949C1F804034348C08958
:1027300047490860474848490860022047490870EF
:102740004BE03D480068C07810B13C48007D08B9B6
:10275000012000E00020044637480068007839492D
:1027600008703548006800794006000E4870084639
:10277000407884F001010843324948702E480068CF
:1027800002782D480168491D2E48801CFDF754FE33
:1027900094B140F21B102C49086011202B49C1F85C
:1027A00004032648C0892A4908602A482A49086043
:1027B00002202A4908700DE040F2131022490860F7
:1027C00010202249C1F8040325482349086001204C
:1027D0002249087001E0FFE700BF00BF164800680B
:1027E00040782049086014480068417801208840FA
:1027F0001C49091D08601C48C07C1A49243908601E
:102800001048091F08600120FDF7C0FF0120FDF7F7
:10281000D5FF00200C49FC3908600C49C1F80801BB
:102820000949F039086001200849086010BD00001E
:1028300034000020980100201000002058000020E3
:102840004400002018030020001200400010004047
:10285000300000201D2100003C0000200D00002061
:10286000BD2100002C15004018000020042005495F
:102870000860002003490839086040F2022002493C
:102880000860704710A5004000A2004010B50B483A
:10289000806A90B10120FDF785FF0848806A401EDC
:1028A000064988620846406A401C4862082801D3ED
:1028B000002048620120FDF781FF10BD9801002033
:1028C00010B5044604F0010020B11048FEF75EFD8B
:1028D0000F49086004F0020030B10C48001DFEF7FB
:1028E00055FD0B49091D086004F0040068B1074854
:1028F0000830FEF752FD06490831086003480C30E5
:10290000FEF74BFD02490C31086010BD1800002095
:102910001C1500401048007A104908600E48007AE3
:1029200050B1012804D002280AD0032810D10BE0AE
:1029300030200B4908600CE040200949086008E09D
:10294000FA200749086004E040200549086000E0DB
:1029500000BF00BF70470000580000201015004065
:10296000380000200E48407A0E4908600C48407A32
:10297000022808D14FF6FF700A49083108600A485A
:10298000091F08600BE00648407A012807D1FF20A4
:1029900004490831086040F20710091F08607047B9
:1029A00058000020341500402110010010B500F03F
:1029B00029F8FFF7AFFF00F00DF8FFF7D3FF034949
:1029C000C87C03490968884710BD000058000020F2
:1029D000440000200748007828B1012807D10648A4
:1029E0000649086004E006480449086000E000BFAA
:1029F00000BF704758000020492A00004400002012
:102A0000192A00000248807A0249086070470000D5
:102A1000580000200C1500400849094A1160094976
:102A2000497C491E4FF0807242EA014141EA00218F
:102A30000143034A121D11607047000000010100AC
:102A400014150040180000200749084A1160084981
:102A5000497C491E4FF0807242EA014141F0200159
:102A6000024A121D11607047060003001415004051
:102A7000180000200100000000000000010200001A
:102A8000FA0003000001022000000000AC2A000050
:102A90000000002058000000000F0000042B000080
:102AA0005800002040240000100F0000000000002B
:102AB000000000000090D0030000000000000000B3
:102AC00000000000E7E7E7E7C2C2C2C2E7C2C3C432
:102AD000C5C6C7C80805FF020000000000000000CE
:102AE00000000000000000000000000000000000E6
:102AF000000000000000000000000000000005379A
:042B00005F00000072
:0400000500000401F2
:00000001FF
