:020000040000FA
:10000000A8240020150400001D0400001F040000A7
:10001000210400002304000025040000000000006B
:1000200000000000000000000000000027040000A5
:1000300029040000000000002B0400002D04000033
:100040002F04000015060000990B00002F0400008B
:100050002F0400002F040000A50400008107000009
:10006000390A00002F0400002F0400002F040000B4
:100070002F0400002F0400002F0400002F040000B4
:100080002F0400002F0400002F0400002F040000A4
:10009000390800002F0400002F0400002F04000086
:1000A0002F0400002F0400002F0400002F04000084
:1000B0002F0400002F0400000000000000000000DA
:1000C0002F0400002F0400002F0400002F04000064
:1000D0002F0400002F0400002F0400000000000087
:1000E0000000000000000000000000000000000010
:1000F0000000000000000000000000000000000000
:1001000000000000000000000000000000000000EF
:1001100000000000000000000000000000000000DF
:10040000DFF80CD000F03CF800480047CD100000A9
:10041000A82400200648804706480047FEE7FEE77C
:10042000FEE7FEE7FEE7FEE7FEE7FEE7FEE7FEE7A4
:10043000AD0800000104000040EA01039B0703D05F
:1004400009E008C9121F08C0042AFAD203E011F813
:10045000013B00F8013B521EF9D27047D2B201E0D5
:1004600000F8012B491EFBD270470022F6E710B5B9
:1004700013460A4604461946FFF7F0FF204610BD12
:10048000064C074D06E0E06840F0010394E80700E1
:1004900098471034AC42F6D3FFF7B6FFF0280000BF
:1004A0001029000010B5012021490870214800687A
:1004B00000283BD0002008700021012000F0F6FB4E
:1004C0000121002000F0F2FB062000F049F8002096
:1004D0001849086018480068C043C0F3802018B16C
:1004E00001201649087021E013480068C043C0F39A
:1004F000002050B102220021082001F007FC012059
:100500000F4908700F49087010E00B480068C0439D
:10051000C0F3002050B903220021082001F0F6FBAF
:1005200000200749087001200649087010BD00002E
:10053000120000207C61004010050050590000208E
:10054000040000205700002000F01F02012191400C
:10055000024A430942F823107047000080E200E09D
:1005600000F01F0201219140024A430942F8231082
:100570007047000080E100E000F01F02012191407F
:10058000024A430942F823107047000080E100E06E
:1005900000F01F0201219140024A430942F8231052
:1005A0007047000080E100E000F01F02012191404F
:1005B0004209920002F1E022C2F80011704700F0F7
:1005C0001F02012191404209920002F1E022C2F88B
:1005D0000011704700F01F0201219140024A4309B7
:1005E00042F823107047000000E200E010B5002838
:1005F00007DA4A07140E054A00F00F031B1FD454F4
:1006000003E04A07130E024A135410BD18ED00E030
:1006100000E400E010B51948006838B118480068D7
:1006200000F0010010B100201449086013480C309C
:10063000006870B11248006800F0080048B100205E
:100640000E490C3108600F48006810B10D48006871
:1006500080470A481030006870B10948006800F00F
:10066000100048B1002005491031086006480068B4
:1006700010B105480068804710BD0000001100401F
:10068000041300404C000020480000203EB5072025
:10069000FFF77EFF0720012181402B4A430942F8E2
:1006A000231000BF29A207CA8DE8070002202A49AB
:1006B0000860002015E01DF800202749E03901EB13
:1006C00000110A6000222449E03901EB00114A6060
:1006D0004FF4A0222049E03901EB00118A60411C4F
:1006E000C8B20128E7DB00201B49091D0860091D6D
:1006F000086001201949086002201949C1F8040363
:1007000004201649086001201349F03908600720C9
:100710000421002807DA4A07140E124A00F00F03DA
:100720001B1FD45403E04A07130E0F4A135400BF93
:100730000720012181404209920002F1E022C2F823
:10074000001100BF3EBD000080E200E0090102038D
:100750000405060708000000F0750040047300401F
:100760000070004018ED00E000E400E010B5072044
:10077000FFF70EFF00200149086010BD0075004022
:100780001F48006801280CD100201D490860012184
:100790001C48C0F830161C481C4908600120194943
:1007A0004860174808300068012807D10020144924
:1007B0000831086001201349486000BF1048001D3F
:1007C000006801281BD100200D49091D0860012087
:1007D0000C4988600C49098801EB41014900C1EBD3
:1007E00001118800C11700EB1151C1F30F31084A04
:1007F00011800020074908700120074908707047E0
:100800000071004000700040660000202C7600401F
:1008100010000020620000206500002004480078DD
:1008200020B90120024908700249086070470000A1
:1008300062000020007000403EB51648006801903C
:1008400002A801F015F804461CBB1348006800B369
:10085000029800F0010030B100208DF800006846D9
:100860000D4909688847029800F0020030B1012064
:100870008DF800006846084909688847029800F02A
:10088000040030B102208DF8000068460249096872
:1008900088473EBD4000002020000020014802495A
:1008A000086070470090D0031400002010B500F0DD
:1008B00073FA10B156485749486700F085FA28B1D5
:1008C00055480068C0F342305449086000F0A6FA69
:1008D00028B15348006820F080705149086000F04A
:1008E000B5FA48B100204F4908604FF08041C1F887
:1008F00010014A49091F086000F0D2FA18B103201C
:1009000046496431086000F0E3FA68B105204649C1
:1009100008600120444978310860002042490831CC
:1009200008603F20091F086000F0EAFA002855D04F
:100930003E4800683E4908603C48001D0068091DAB
:1009400008603A4808300068091D086037480C30D4
:100950000068091D0860354810300068091D0860EE
:10096000324814300068091D0860304818300068AB
:100970002F49203108602D481C300068091D08608F
:100980002A4820300068091D086028482430006883
:10099000091D0860254828300068091D08602348A3
:1009A0002C300068091D086020483030006820495C
:1009B000403108601D4834300068091D08601B483C
:1009C00038300068091D086018483C300068091D6F
:1009D0000860164840300068091D086000F0B2F950
:1009E00030B10D481430006800F04F001149086024
:1009F0000B487438006840F4700009497439086085
:100A0000BFF34F8FBFF36F8FFFF748FF10BD00009C
:100A10000DF0ADBA00C00740440200103C05004094
:100A2000FCED00E00C0100401056004004040010F2
:100A300020C50040E40E004010B52E480068012893
:100A400057D100202B49086001202B49C86048601D
:100A50002A480078401C29490870002001F03CFC1D
:100A6000012001F0CDFB264801780078401C244A83
:100A70001070062933DA23480078401C2149087099
:100A800008460078012804D11F4800781F490870E3
:100A900013E01C480078022804D11D4800781B4947
:100AA00008700AE017480078032806DB1948007828
:100AB000164908700020134908701448007801F0A6
:100AC000B1FC12480078144988730C480078C87348
:100AD000012009490860104801F04AFC09E00120A2
:100AE00005494860086100200549087001200B494C
:100AF000087010BD408100400080004009000020C7
:100B0000070000200A0000205E0000205D00002099
:100B10005F00002060000020800400201200002000
:100B200010B50820FFF71CFD01201549C86048607A
:100B30000020144908600320091D086004201149A1
:100B40000C31086010480F493C3108604FF4803088
:100B50000E49086008200321002807DA4A07140E0E
:100B60000B4A00F00F031B1FD45403E04A07130E77
:100B7000084A135400BF0820FFF716FD10BD0000FF
:100B8000008000400485004080841E0004830040F3
:100B900018ED00E000E400E01748006801282AD1C1
:100BA0000020154908601548006815490870154867
:100BB00001780078401C134A1070402902DD0020A3
:100BC000114608700E4800780A280AD00C480178AF
:100BD0000C480078401E0C4A115400200B49087044
:100BE00009E00748017807480078401E064A11547A
:100BF0000120064908707047082100401825004070
:100C00005400002055000020DA0300205600002088
:100C100002E008C8121F08C1002AFAD170477047C5
:100C2000002001E001C1121F002AFBD1704710B55E
:100C30000446204600F002F800BA10BD01460A68DA
:100C400092FAA2F000BA704710B540F213101149A1
:100C500008601149C87C1149096888471048114942
:100C6000086000201049C1F810010120086100BF90
:100C70000848F03800680028FAD000200549F0390B
:100C8000086040F217100849C1F8000201204860CE
:100C900010BD00000012004068000020500000203D
:100CA0004A030020041500400010004002461020B6
:100CB000214B1860D2B901290BD100201F4B1860BD
:100CC00001208307186000BF1C4800680028FBD083
:100CD00004E019B901208307586000BF1848006874
:100CE000000C08B1012070470020FCE7012A21D147
:100CF000012911D10120104B203B186000200F4B1F
:100D00001B1D186001208307986000BF0B48001D61
:100D100000680028FAD004E019B901208307D860E0
:100D200000BF07480C300068000C08B10120DAE76A
:100D30000020D8E700BFD6E738050040000100409A
:100D40000C04004013480078062820D11148001DEB
:100D5000007800F00F00D0B90E480830007800F09D
:100D6000F000302801D1012070470A48083000788F
:100D700000F0F000402801D10120F5E705480830D7
:100D8000007800F0F000502801D10120ECE70020AD
:100D9000EAE70000E00F00F00A48007806280ED1CC
:100DA0000848001D007800F00F0040B905480830E1
:100DB000007800F0F000302801D1012070470020B9
:100DC000FCE70000E00F00F013480078062820D16F
:100DD0001148001D007800F00F00D0B90E4808300F
:100DE000007800F0F000302801D1012070470A4857
:100DF0000830007800F0F000402801D10120F5E72C
:100E000005480830007800F0F000502801D101209A
:100E1000ECE70020EAE70000E00F00F00A48007865
:100E200006280ED10848001D007800F00F0040B9D8
:100E300005480830007800F0F000302801D101208A
:100E400070470020FCE70000E00F00F01348007836
:100E5000062820D11148001D007800F00F00D0B9FD
:100E60000E480830007800F0F000302801D1012051
:100E700070470A480830007800F0F000402801D19F
:100E80000120F5E705480830007800F0F000502810
:100E900001D10120ECE70020EAE70000E00F00F0BC
:100EA0000A48007806280ED10848001D007800F096
:100EB0000F0040B905480830007800F0F0003028F5
:100EC00001D1012070470020FCE70000E00F00F096
:100ED0000A48007806280ED10848001D007800F066
:100EE0000F0040B905480830007800F0F0003028C5
:100EF00001D1012070470020FCE70000E00F00F066
:100F00000A48007806280ED10848001D007800F035
:100F10000F0040B905480830007800F0F000502874
:100F200001D1012070470020FCE70000E00F00F035
:100F300002210C4A116000BF0B4909680029FBD04F
:100F40000849091D086000BF074909680029FBD04E
:100F50000021044A116000BF034909680029FBD041
:100F60007047000004E5014000E4014010B50B4665
:100F7000002105E0046843F82140001D4C1CA1B28B
:100F80009142F7DB10BD000010B50B4601210F4C5C
:100F9000216000BF0E4909680029FBD0002105E04F
:100FA00053F821400460001D4C1CA1B29142F7DBB4
:100FB00000BF074909680029FBD00021034C2160CC
:100FC00000BF034909680029FBD010BD04E50140BA
:100FD00000E40140002001210D4A11600D4A11601A
:100FE00000BF0D4909680029FBD00121094A516061
:100FF0000749091D0968C9B20A2291FBF2F1C8B27A
:101000000021034A1160022800DA02207047000024
:1010100004D5004000D0004000D100401CB506209F
:10102000FFF79EFA0020124908600120114908606C
:1010300000204FF01021C1F80C020E49086009246D
:1010400000900346012211460190204600F04AFE1E
:1010500000BF032200210A2000F058FE03220021D5
:10106000082000F053FEE007034908601CBD0000A3
:101070007C61004004E501400463004010B501F0CC
:10108000DFF9002009E000EB800101EB40110B4A81
:1010900011440B4A42F82010401C0828F3DB0020C2
:1010A00009E000EB800101EB4011064A1144064AB9
:1010B00042F82010401C0828F3DB10BD80000020FF
:1010C000A8010020D4010020FC02002008B5012165
:1010D0000020FFF7EBFD00210120FFF7E7FD0122D3
:1010E000FD494FF47F30FFF741FFFFF797FF0920DD
:1010F00000F025FE4FF47A7000F0ACFA092000F001
:1011000013FE4FF47A7000F0A5FAFFF7BFFAFFF76D
:1011100085FBF2480078012802D10020EF490870D1
:10112000FFF724FBEE480078EE4908700120EE49F5
:101130000870FFF7F5FC74E2EC48007800284AD00C
:101140000020E9490870E9490870092000F0F7FD1E
:101150004FF4FA6000F07EFA092000F0E5FDE44863
:101160000068C043C0F38020B8B1092000F0E7FD5B
:101170000120E04908700020DF49087048706FF0D6
:101180000E004860012001F03BF8D648007801F0DD
:1011900049F9D94801F0B4F81DE00120D24908709E
:1011A0000020D4490870C82000F054FA092000F04B
:1011B000C6FD642000F04EFA092000F0B5FDC820FD
:1011C00000F048FA092000F0BAFD642000F042FA6D
:1011D000092000F0A9FDC748007800287ED0C74844
:1011E000007838B30020C549087000F027FBFFF7EE
:1011F000F1FEC3490870C34801780078401CC14A19
:10120000107064290EDABE48007800F023FA01203D
:1012100000F0F6FFB348007801F004F9B64801F099
:101220006FF807E00020B7490870B2490870012044
:10123000AD490870B448007848B10020B249087040
:10124000B049087000F0DCFF012001F045F8AF481C
:101250000078002861D00020AC49087001F03CF80B
:10126000012000F0CDFFAA48C0790106A848007A05
:1012700041EA0041A648407A41EA0020A449897A1F
:1012800040EA0104A248C07A0106A148007B41EA75
:1012900000419F48407B41EA00209D49897B0843EB
:1012A00000909B48807988BB04F10F0070BB984880
:1012B0004079FF282BD19648C07B322827D18D4812
:1012C0000078012823D14FF47F30FFF731FE01224F
:1012D00069464FF47F30FFF757FE00E01EE005201F
:1012E00000F0B8F9092000F01FFD00BFBFF34F8FD9
:1012F0008848006800F4E06087490843001D85497C
:101300000860BFF34F8F00BF00BFFEE7FFE700207C
:101310007849087001207449087026E17748007800
:10132000002853D000207549087000F087FA7B48E8
:101330000078401C79490870FFF74CFE704908702E
:10134000704801780078401C6E4A1070FA2937DA2C
:101350006B48007800F07EF971480078401C7049B5
:10136000087008460078012804D15D4800785D497E
:10137000087013E06A480078022804D169480078B0
:10138000584908700AE066480078032806DB66487A
:10139000007854490870002061490870012000F06D
:1013A0002FFF5048007801F03DF84E480078524930
:1013B00088735A480078C873084600F0D9FF05E0E2
:1013C0000020504908700120474908704E480078B5
:1013D00060B100204C4908704A49087000F010FFC5
:1013E000012000F079FF012050490860474800784B
:1013F000002892D000204549087001204B494860E0
:101400000861002000F068FF012000F0F9FE40486C
:10141000407800285FD13E48C07901063C48007AF8
:1014200041EA00413A48407A41EA00203849897A45
:1014300040EA01043648C07A01063548007B41EA9B
:1014400000413348407B41EA00203149897B40EA32
:1014500001052F488079E8BB1F480068854277D195
:1014600004F10F00B0BB2A484079FF2870D1214811
:10147000007878BB2648C07B33280ED100202C4949
:101480000870092000F050FC002024490870294908
:10149000087001201449087060E020480078401C62
:1014A0001E490870224801780078401C204A1070BC
:1014B000062944DA00200C4908700A48007800F038
:1014C000B1FF084800780C49887314480078C87345
:1014D000084631E03CE042E00C00002065000020BE
:1014E0005E0000205D000020120000205900002056
:1014F0001005005058000020800400205C000020EF
:1015000013000020060000205B0000205A0000208D
:101510001C0400200CED00E00000FA05090000208A
:101520000A0000205F0000206000002000800040D2
:10153000080000205700002000F01AFF0EE00020F5
:10154000384908703849087001203849087005E0AA
:1015500000203549087001203449087005E000205A
:10156000314908700120314908702F480078B8B31C
:1015700000202E4908702C490870092000F0DFFB7C
:10158000FFF784F8FFF74AF929480078012802D1CB
:10159000002027490870FFF7E9F800202549087066
:1015A00048706FF00E004860234800688860234848
:1015B0000088888122480078887322480078C873A0
:1015C000012008740846204909784174012000F080
:1015D00017FE1B48007800F025FF164800F0C8FEF3
:1015E00012480078E8B1092000F09EFB002017495E
:1015F000087000F0D5F800BF00F0ACF90028FBD06F
:1016000000201349086001210846FFF74FFB002125
:101610000846FFF74BFB0620FEF7C6FF20BF40BF82
:1016200020BF89E50800002057000020120000209C
:1016300065000020800400200C0000201000002025
:101640005D000020090000200400002006000020AA
:10165000FC1F004010B504464FF47A7104FB01F002
:1016600000F002F810BD000000B9704700BF00BFD5
:1016700000BF00BF00BF00BF00BF00BF00BF1F49C9
:1016800009681F4A914200D130E000BF00BF00BF8F
:1016900000BF00BF00BF00BF00BF00BF00BF00BF52
:1016A00000BF00BF00BF00BF00BF00BF00BF00BF42
:1016B00000BF00BF00BF00BF00BF00BF00BF00BF32
:1016C00000BF00BF00BF00BF00BF00BF00BF00BF22
:1016D00000BF00BF00BF00BF00BF00BF00BF00BF12
:1016E00000BF00BF00BF00BF00BF00BF01460139FF
:1016F000084600D0BBE700BFB7E700001400002099
:101700000024F40000B9704700BF00BF00BF00BF55
:1017100000BF00BF00BF00BF00BF1F4909681F4ACC
:10172000914200D130E000BF00BF00BF00BF00BF4A
:1017300000BF00BF00BF00BF00BF00BF00BF00BFB1
:1017400000BF00BF00BF00BF00BF00BF00BF00BFA1
:1017500000BF00BF00BF00BF00BF00BF00BF00BF91
:1017600000BF00BF00BF00BF00BF00BF00BF00BF81
:1017700000BF00BF00BF00BF00BF00BF00BF00BF71
:1017800000BF00BF00BF00BF01460139084600D0BE
:10179000BBE700BFB7E70000140000200024F400FE
:1017A00010B54FF470500B49086000200A490870CA
:1017B00000F046FE24210948FEF757FE092108489B
:1017C000FEF753FE1420FEF7D7FE032005490860FC
:1017D000002010BD08F5014019000020760300200C
:1017E0006C0300200012004010B50446207820B1A0
:1017F000012806D0022816D107E001200B49087005
:1018000011E001200A4908700DE006E0094800785F
:10181000002802DD012008490870064800F0A4F8FD
:101820000028F3D000BF00BF10BD00005B00002007
:101830005C0000201C0400205A00002010B500BFEE
:101840000948007808B9082010BD00BF0120FEF744
:1018500093FE002005498862086248620120FEF775
:10186000AEFE0020F0E7000018000020A8010020D4
:1018700010B5044600BF0C48007808B9082010BD18
:1018800000BF00BF0CB90E20F9E700BF0120FEF732
:1018900073FE0648006820600020044908600120AB
:1018A000FEF78DFE0020EAE7180000203800002037
:1018B00070B5044600BF0CB90E2070BD00BF1E48B5
:1018C000007828B1FFF76CFF05460DB12846F4E714
:1018D0001A4960680860182221461948FEF7ACFDD5
:1018E00000201849086024211748FEF7BEFD092191
:1018F0001648FEF7BAFD00F08BFFFFF7BFFB00F0C4
:10190000E7FE00F055FC0E48407C00F0030101208A
:10191000FEF76CFE0A48807C00F003011420FEF7FD
:1019200065FE1420FEF74BFE0020094908700120D7
:10193000014908700020C0E71800002020000020A6
:101940006800002038000020760300206C0300208F
:10195000190000200348007808B9012070470020D2
:10196000FCE700001900002010B5044600BF244821
:10197000007808B9082010BD00BF00BF0CB90E20C8
:10198000F9E700BF1F48806A08B90520F3E7012086
:10199000FEF7F2FD1B48406A1A4951F82000007812
:1019A00020700846406A51F8200040786070084670
:1019B000406A51F820008078A0700846406A51F8CB
:1019C00020000079207122780846406A0B4653F8BF
:1019D0002000411D601DFEF72FFD0A48406A401C93
:1019E00008494862082801D3002048620548806AF7
:1019F000401E044988620120FEF7E1FD0020BAE79D
:101A000018000020FC02002010B5044600BF094861
:101A1000007808B1112010BD00BF00BF0CB90E2026
:101A2000F9E700BF044821680160012000F07AFE58
:101A30000020F0E7190000202400002010B5044623
:101A400000BF0948007808B1112010BD00BF00BFD9
:101A50000CB90E20F9E700BF04482168416002205C
:101A600000F060FE0020F0E71900002024000020B4
:101A700070B505460C4600BF1248007808B1112029
:101A800070BD00BF00BF0DB90E20F9E700BF00BF59
:101A9000092C01DB0720F3E700BF224629460A484C
:101AA000FEF7CAFC084808380474C4F10801FF2096
:101AB0000841054908398874042000F033FE0020ED
:101AC000DEE70000190000202C000020014600BFC6
:101AD0000748007808B11120704700BF00BF7D297A
:101AE00001D90720F8E700BF024AD1740020F3E7CC
:101AF000190000202400002010B500BF1D48007808
:101B000008B1112010BD00BF4FF0FF301A49086026
:101B100000201A49C1F8100119481A49086040F21A
:101B200017101949086010201349091F0860042084
:101B3000104908701548807C154908601348C07C1E
:101B40001349283908601348091F08600120FEF76F
:101B5000FBFC0120FEF733FD00200B49FC39086037
:101B6000091D08600849F0390860012003494860F0
:101B70000020C7E7190000200813004000100040B3
:101B8000551D0000480000200012004024000020E5
:101B9000301500404A03002010480078042819D16D
:101BA00000200F490860401E0E49C1F808030020BC
:101BB0000D4908600A49F0390860012009490861A7
:101BC00000BF0748F03800680028FAD00020034919
:101BD0000870704740F20110FBE700001900002078
:101BE00000120040001000404800002010B50446DC
:101BF00000BF3748007808B9082010BD00BF00BFFB
:101C00000CB90E20F9E700BF00BF207850B1207852
:101C1000202807DC2F48007830B920782D49C97C6E
:101C2000884201DD0920E8E700BF00BF2A48806A3A
:101C3000082801D30420E0E700BF2648407830B9E7
:101C4000E07820B12348007D08B90620D5E70120BF
:101C5000FEF792FC2049096A1F4A52F8210025220A
:101C60002146FEF7E9FB61781C4A515C481CC1170C
:101C700000EB91718910A0EB81016278174B9954A8
:101C800060781946085C1449096A134A52F8211011
:101C900008711046006A401C11460862082801D3EA
:101CA000002008620C48806A401C0B4988620120B1
:101CB000FEF785FC0748407838B90648007C20B913
:101CC0000748007808B900F033FC002095E70000D1
:101CD0001800002068000020A80100206C030020EC
:101CE00019000020F0B5DDE9054500BF4FF0A04721
:101CF0003E4641EA420747EA830747EA042747EAA4
:101D0000054C06F5E06747F820C0F0BD7CB50646F7
:101D10000C4615460020234602460146CDE9000543
:101D20003046FFF7DFFF7CBD00BF4FF0A0410A4601
:101D3000012303FA00F1C2F80C1500BF704700BF81
:101D40004FF0A0410A46012303FA00F1C2F808153A
:101D500000BF70472DE9F0410025002601276248A9
:101D6000006818B9FEF770FFBDE8F0815F48806A2F
:101D7000082802D3FEF768FFF6E75B4808300068E2
:101D80005B4901EB800458480C3000682188884288
:101D900007D1A07857494978B0EB610F01D10126EE
:101DA0000027544840784010A0704F480C3000681D
:101DB00020805148007D20B14E48407800F001005D
:101DC00000B90125002D79D040F21B104B49086065
:101DD00049480078002854D001285DD14848806ADD
:101DE000F0B34748406A464951F8200040783E49E0
:101DF00008310968884237D1E078012814D19EB9AA
:101E00003F48406A401C3E494862082801D30020F0
:101E100048623B48806A401E3949886239480068F8
:101E200040F00100374908600120E0703448406A02
:101E3000334951F82000344908600968087833496B
:101E400009688847304800680078314908702E4892
:101E5000006802782C480168491D2D48801C00E06C
:101E600002E0FEF7E9FA07E00020E0702749096880
:101E700088470020264908701E4840782449487049
:101E80000AE000202149096888471A48007820495B
:101E900008700020487000BF00BF05201D49087071
:101EA0001148083000681C49086019481A49283947
:101EB00008601A481A49086002E0FFE7FEF7C4FE0E
:101EC00087B1A178084A08321268D0B200F0C6FA89
:101ED00040B10C48006840F004000A490860142032
:101EE000FEF778FB00BF3FE700140040FC02002033
:101EF000760300204A030020680000200012004002
:101F0000A8010020380000201C0000205000002004
:101F100028030020190000202C150040251F000078
:101F20004800002010B540F2171008490860084921
:101F3000C87C084909688847074808490860084874
:101F40000849086004200849087010BD00120040CC
:101F500068000020500000204A03002004150040C3
:101F6000551D0000480000201900002010B540F267
:101F70001310184908601848006818490860184884
:101F8000808982381749C1F844050120C8600020C3
:101F9000C1F840010021144801604FF4E05013499A
:101FA00008604814091D086000201149C1F80C019F
:101FB0000B48007818B900200E49096888470E4878
:101FC0000E4908600E480F49086003200E4908704A
:101FD00010BD0000001200404400002040A5004059
:101FE0006800002000A0004044A1004004F501402A
:101FF00000100040500000204A030020041500405B
:102000004D200000480000201900002010B50C48A9
:10201000006840F001000A49086000F069FB0948C7
:10202000806A30B90020084908701420FEF7D2FAFF
:1020300004E01420FEF7CEFA00F07AFA10BD00009A
:1020400038000020A80100201900002010B54FF42E
:10205000E0504549086045480068002841D04448A0
:10206000006800283DD001204249486040033E49B5
:1020700008604148006840F001003F4908603F485F
:10208000C0893F490968401A401C3E49086000F079
:102090002FFB3A48007880B13B48007800280CDDDF
:1020A0003A490968C8B2002100F0D8F928B132488D
:1020B000006840F00400304908603548806A18B173
:1020C0002E48007C012806D10020324908701420D7
:1020D000FEF780FA46E01420FEF77CFA00F028FABA
:1020E00040E027490868411E254A1160B8B901201F
:1020F0002049486040031C4908602048C089401CB2
:10210000204908601C48006840F002001A49086035
:102110000020204908701420FEF75CFA22E040F20B
:102120001B101249F43108601B49096808781B49E3
:10213000096888471A4815492839086019481A4912
:10214000086002201349087001200A490860400312
:102150000549091F08600748D0F8440110B1012063
:102160001249086010BD000008F501400C11004044
:102170000014004000A0004038000020680000204B
:102180003C000020400000204A0300202C150040A5
:10219000A8010020190000201C0000205000002091
:1021A000280300206D1F00004800002000100040A0
:1021B0000E490F4801600F49001D01600B49091DC0
:1021C000001D01600B49091D001D01600A49001D29
:1021D00001600649F039001D01600749091D001D15
:1021E00001600649001D01607047000000110040B9
:1021F00060F5014000A0004040A1004000100040F8
:1022000070B58AB00446002601202C490860FFF70B
:10221000A1FB08B9FFF7C4FA00BFFFF79BFB00283A
:10222000FBD027A00068099026A00068089026A18E
:1022300003C9CDE90601182225496846FEF7FCF8D6
:102240001CB901208DF8010004E0012C02D100200E
:102250008DF8010004208DF80A0002208DF8080096
:1022600001208DF8000002208DF809001948019026
:102270000620ADF80E0040F2EE20ADF80C00012073
:102280008DF814006846FFF713FB58B909A8FFF74B
:10229000BBFB08A8FFF7D2FB082106A8FFF7E8FB65
:1022A000012600E0002601254FF47A7115FB01F0AC
:1022B000FFF728FA00BF30460AB070BDFC1F00408F
:1022C000E7E7E7E7C2C2C2C2E7C2C3C4C5C6C7C820
:1022D000D8280000E917000070B505460026012D3A
:1022E00003D1FFF709FC044603E015B9FFF754FCDE
:1022F00004460CB9012600E00026304670BD0000FF
:1023000070B504460025607810B1012808D103E0BB
:1023100000201649487005E001201449487001E08A
:10232000002500BF00BF00201049C87020200870A1
:10233000FF20487161780D4881716068010E0B487B
:10234000C1716068010C09480172A088010A074840
:102350004172217981723421C172FFF747FC08B9BB
:10236000012500E00025284670BD00004104002042
:102370002DE9F0410446002500260027607810B1C1
:10238000012808D103E000202549487005E001201C
:102390002349487001E0002500BF00BF002020490C
:1023A000C870202008702078487161781C488171BD
:1023B0006068010E1A48C1716068010C184801720A
:1023C000A088010A1648417221798172A068010E25
:1023D0001348C172A068010C114801732089010AD9
:1023E0000F484173217A8173A08901120C48C1738F
:1023F000217B0174A17B4174E17B8174217CC174D8
:10240000227C04F111011430FEF716F80448FFF79E
:10241000EDFB08B9012500E000252846BDE8F08164
:102420004104002070B5044600257D2C05DC2046C3
:10243000FFF74CFB08B9012500E00025284670BDD8
:1024400000200449086248628862034908624862C1
:1024500088627047A8010020FC02002070B5044685
:102460000D462F48806A082857D22E480078012848
:102470000ED12D480078202801DD002070BD2A48AB
:1024800000782749096A264A52F82110087012E09C
:102490002448407838B900202149096A204A52F876
:1024A0002110087007E01F48C07C1D49096A1C4ABA
:1024B00052F8211008701A49096A194B53F8211073
:1024C0000A781946096A53F82110481D1649891CD3
:1024D000FDF7B2FF1248006A114951F8200044701C
:1024E0001248006840B2096A0D4A52F821108870FB
:1024F0001046006A114651F8200005710846006A2E
:10250000401C0862082801D3002008620448806A41
:10251000401C034988620120B0E70020AEE70000BC
:10252000FC020020680000204A03002048150040FB
:1025300010B50120574908605748406A564951F87C
:102540002000564908605648007810B1012875D11E
:1025500029E05249096808785249096888474F4874
:102560000068007950490870002048704B480068A6
:1025700002784A480168491D4B48801CFDF75CFF02
:1025800040F21B104949086011204949C1F8040371
:102590004348C089474908604748484908600220C5
:1025A000474908704BE03D480068C07810B13C488E
:1025B000007D08B9012000E000200446374800688B
:1025C0000078394908703548006800794006000EE7
:1025D00048700846407884F0010108433249487049
:1025E0002E48006802782D480168491D2E48801C3D
:1025F000FDF722FF94B140F21B102C490860112016
:102600002B49C1F804032648C0892A4908602A4892
:102610002A49086002202A4908700DE040F2131090
:102620002249086010202249C1F8040325482349A3
:10263000086001202249087001E0FFE700BF00BFE9
:1026400016480068407820490860144800684178BE
:10265000012088401C49091D08601C48C07C1A499B
:10266000243908601048091F08600120FDF76CFF3D
:102670000120FDF7A4FF00200C49FC3908600C493B
:10268000C1F808010949F0390860012008490860CB
:1026900010BD000040000020A80100201C00002008
:1026A0006800002050000020280300200012004095
:1026B000001000403C0000206D1F0000480000207A
:1026C000190000200D2000002C15004024000020DF
:1026D000042005490860002003490839086040F2D9
:1026E000022002490860704710A5004000A2004087
:1026F00010B50B48806A90B10120FDF73DFF0848F6
:10270000806A401E064988620846406A401C48624A
:10271000082801D3002048620120FDF750FF10BDBA
:10272000A801002010B5044604F0010020B11048B3
:10273000FEF77DFA0F49086004F0020030B10C4842
:10274000001DFEF774FA0B49091D086004F004002F
:1027500068B107480830FEF771FA06490831086089
:1027600003480C30FEF76AFA02490C31086010BDCC
:10277000240000201C1500401048007A1049086011
:102780000E48007A50B1012804D002280AD003284C
:1027900010D10BE030200B4908600CE040200949C3
:1027A000086008E0FA200749086004E04020054975
:1027B000086000E000BF00BF704700006800002014
:1027C00010150040440000200E48407A0E49086071
:1027D0000C48407A022808D14FF6FF700A490831A8
:1027E00008600A48091F08600BE00648407A012883
:1027F00007D1FF2004490831086040F20710091F83
:102800000860704768000020341500402110010066
:1028100010B500F029F8FFF7AFFF00F00DF8FFF753
:10282000D3FF0349C87C03490968884710BD0000ED
:1028300068000020500000200748007828B10128D7
:1028400007D106480649086004E0064804490860C4
:1028500000E000BF00BF704768000020AD28000006
:10286000500000207D2800000248807A024908605C
:1028700070470000680000200C1500400849094A14
:1028800011600949497C491E4FF0807242EA0141BA
:1028900041EA00210143034A121D11607047000004
:1028A0000001010014150040240000200749084AD7
:1028B00011600849497C491E4FF0807242EA01418B
:1028C00041F02001024A121D11607047060003000A
:1028D000141500402400002001000000000000004A
:1028E00001020000FA0003000001022000000000C5
:1028F000102900000000002068000000100C0000FB
:10290000782900006800002040240000200C00000E
:1029100000000000000000000000000000000000B7
:10292000000001000090D003000000000000000043
:1029300000000000E7E7E7E7C2C2C2C2E7C2C3C4C3
:10294000C5C6C7C80805FF0200000000000000005F
:102950000000000000000000000000000000000077
:10296000000000000000000000000000000005372B
:082970005F0000000000000000
:0400000500000401F2
:00000001FF
