:020000040001F9
:10B00000D0220020D5B00100EFB00100F1B0010066
:10B010000000000000000000000000000000000030
:10B02000000000000000000000000000F3B001007C
:10B030000000000000000000F5B00100F7B00100C2
:10B0400061B30100F9B001009DB40100F9B0010045
:10B05000F9B0010000000000A5B10100F9B0010045
:10B06000F9B00100F9B00100F9B00100F9B0010038
:10B07000F9B00100F9B00100F9B00100F9B0010028
:10B08000F9B00100B5B30100F9B00100F9B0010059
:10B09000D5B30100F9B00100DDB30100F9B0010042
:10B0A000F9B00100F9B0010000000000000000004C
:10B0B0000000000000000000000000000000000090
:10B0C0000348854600F05CF80048004765C301006E
:10B0D000D02200200321094802680A430260084880
:10B0E00002680A4302600748804707480047FEE7B6
:10B0F000FEE7FEE7FEE7FEE7FEE70000240500406E
:10B1000054050040FDB30100C1B0010030B50B464D
:10B11000014600202022012409E00D46D5409D4231
:10B1200005D31D469540491B2546954040191546B7
:10B13000521E002DF1DC30BD03460B439B0703D0AC
:10B1400009E008C9121F08C0042AFAD203E00B78EC
:10B150000370401C491C521EF9D27047D2B201E064
:10B160000270401C491EFBD270470022F6E710B562
:10B1700013460A4604461946FFF7F0FF204610BD65
:10B18000064C0125064E05E0E36807CC2B430C3C3A
:10B1900098471034B442F7D3FFF796FF9CCF0100D5
:10B1A000BCCF0100F0B50024FF268BB0013601258D
:10B1B00027460694304601F083FB002807D0544808
:10B1C0004068284203D0304601F072FB2C43361D04
:10B1D0006D007F1CB6B2042FECD3FF257D352846C9
:10B1E00001F06EFB002809D0284601F061FB6807DA
:10B1F000044306AA0121002001F046FB454D20072B
:10B2000014D00127002627420CD04348B200111861
:10B2100008690969C004C00E8903AA58890F002A69
:10B2200000D090477F00761C042EECD3002C6DDA02
:10B2300000200890401E63E0281940300778B906C6
:10B24000890E009100214156491C49D009A9009856
:10B2500001F057F9002843D0B8090190009800F098
:10B2600031FE80002F580198002F02D0032802D011
:10B270000DE0032834D1009808ABC208410794467A
:10B28000985C490F01228A40104362469854009806
:10B2900005210907800040180721090240180068AD
:10B2A00006A98003800F0290009801F02AF9002877
:10B2B000029802D0022802D012E0032810D101988F
:10B2C000032808D1029802281ED00221009801F01C
:10B2D000BDFA761CF6B2002F02D001990098B8474B
:10B2E000641C042CA8D3002E10D06A460121002033
:10B2F00001F0CAFA06990098884207D0069008988B
:10B3000000263446099097E70321DFE70BB0F0BD34
:10B3100000630040481A0020006500408307FF22B8
:10B32000DB0E9A408907090E994000280BDA0007C6
:10B33000000F0838830808489B001818C369934316
:10B340000B43C3617047830804489B001B181868AF
:10B35000904308431860704700ED00E000E400E00F
:10B36000F8B5FF20013001F0D4F8002401250E4E7D
:10B370000E4F002807D00E4804600120B0607D7099
:10B38000002000F0A7FDFF20053001F0C2F80028E2
:10B3900008D00748001D04600220B060BD70012085
:10B3A00000F098FDF8BD000000030040341A0020B2
:10B3B0000001004010B50649002008604860886020
:10B3C000C860034940390860486001F055FC10BD71
:10B3D0004011014010B501F0C1FB10BD10B5064889
:10B3E0004068002805D08047002801D000F0F6F919
:10B3F00010BD00F093FE10BDE818002010B500F05D
:10B40000CDFE002805D01F491D484860C8131E49BD
:10B4100088611E48018CC9B201290BD1828C1207A8
:10B4200008D1028D1206120F042A03D1828D120652
:10B43000120F0AD0012921D1818C09071ED1018D5B
:10B440000906090F0A2904D007E0114A0121916079
:10B45000F5E7828D1206120F05D00D290ED1808DD1
:10B460000006000F0AD10B480168012904D00A49DF
:10B47000016001680129FCD1C021416110BD0000BB
:10B48000DFFF07C000050040006C0040C00F00F067
:10B490000006004000EC06407593000010B502491C
:10B4A000024801F044FC10BD901A0020002000402A
:10B4B00030B47446641E2578641CAB4200D21D462D
:10B4C000635D5B00E31830BC184702E008C8121F38
:10B4D00008C1002AFAD170477047002001E001C17D
:10B4E000121F002AFBD17047202804DA0121814075
:10B4F0000348014201D0012070470020704700003E
:10B50000FC06FFBCF7B584B00646002517881580F9
:10B5100020300290407B1446002806D03A4621464F
:10B52000059800F077FA050009D1B078002823D0FB
:10B53000059886462088001DB84202D90C2007B025
:10B54000F0BD684679DF0028F9D1218803207246D2
:10B55000505420881921401C80B22080115420882A
:10B560007146401C80B2208041186846008801F076
:10B5700072FC218840182080F078002817D021889C
:10B5800003230A46F356C91C0598B942D6D80221AE
:10B59000815421880122491C89B22180425421888A
:10B5A000491C89B2218043542088401C2080706847
:10B5B000002817D021880023C3560A46C91C0598C5
:10B5C000B942BBD80221815421880A22491C89B280
:10B5D000218042542188491C89B22180435420880B
:10B5E000401C2080308900280AD000943046019702
:10B5F000062202210830059B01F048FC05009ED17F
:10B60000308A00280AD0009430460197072203218F
:10B610001030059B01F03AFC050090D1308B0028DA
:10B620000AD0009430460197152214211830059B4A
:10B6300001F02CFC050082D1306A002806D03B4680
:10B640002246059900F0AEFC0500D8D1706A0028AA
:10B6500006D03B462246059900F0D0FE0500CED12B
:10B660000298007B002807D03B46224630460599C9
:10B6700001F0D8F90500C2D13078002807D03B4648
:10B6800022463046059900F0EDFE0500B7D1284668
:10B6900055E7000030B5A3B0592110A801871D4817
:10B6A0002090172110A8818704253C216846FFF7C8
:10B6B0005CFD002468460470C5701EA809903C21FA
:10B6C0000FA8FFF752FD022508A80577042077DFB1
:10B6D000002801D000F082F803220FA121A87CDF0E
:10B6E000002801D000F07AF80FA9684600F05EF952
:10B6F000002801D000F072F818210848FFF735FD46
:10B70000064819210570446004728901018244824F
:10B7100023B030BD7018002053495A00BC190020D6
:10B7200010B5022000F0A6F910BD000070B500248D
:10B73000064D06E06968E000085C012100F07EFF2C
:10B74000641C28788442F5D3002070BDA81800201E
:10B75000F8B515460C460646052A01D20720F8BD65
:10B7600001F044F8002803D101F012F80028F6D1C6
:10B77000104900204E600C70C8608D6008610E4D4D
:10B780000DE0E00069688019009181786A46517087
:10B7900000780A4A694600F09DFF0028DFD1204664
:10B7A000641EE4B20028ECD1054A0021024800F0F2
:10B7B00021F8F8BDA818002094CF0100CDC00100E9
:10B7C0002DC00100BFF34F8F03490248C860BFF38B
:10B7D0004F8FFEE70400FA0500ED00E00EB50021F2
:10B7E000029000916A4601910148FFF7EBFF0EBD00
:10B7F00001400000094B5B68002B07D0002A07D0EE
:10B80000002805D00068037C002B03D00820704777
:10B81000072070474174426100207047CC18002017
:10B82000FFB507469007002581B01E461446002844
:10B8300025D1002C23D001F073F83046114EF06072
:10B840003046103005704570029981704460756013
:10B85000357001240C487570240504600321142000
:10B86000FFF75CFD09480460094CA7600321112023
:10B87000FFF754FD6068B060002005B0F0BD072000
:10B88000FBE70000BC18002080E200E000E100E0DF
:10B8900000150140FEB51F4B5B68002B30D000281F
:10B8A0002ED0052901D20720FEBD4369002B27D0E9
:10B8B000437C012B26D000270291044600256946CF
:10B8C00016460D70684600F03DF801A801F0C8FA70
:10B8D000002819D0012101700F4944604968816036
:10B8E000029907614661C16068460A49007948705B
:10B8F0006846007800F044F801F072F92846FEBD71
:10B900000820FEBD0F46D7E768460425007800F002
:10B9100037F8F3E7CC1800200015014010B50849AE
:10B92000496800290AD0002808D04169002905D0BB
:10B9300000210174022101F07BF910BD082010BD27
:10B94000CC18002030B5EFF3108172B6094A546864
:10B950000123002C04D00370002900D162B630BD51
:10B960005360054B1D68054C254015601C60002286
:10B970000270F1E7E018002080E100E0FC06FFBC67
:10B9800008494A68002A0CD000280AD1EFF3108039
:10B9900072B60A68044B1A6000224A60002800D17F
:10B9A00062B67047E018002000E100E0F0B50C46F8
:10B9B00093B01F216A461180072600279180002836
:10B9C00009D0C17849070DD502A9FFF79BFD0028D2
:10B9D00009D102AD01E000251780002C0ED0E078DF
:10B9E000002802D0304613B0F0BD01AA0AA92046B3
:10B9F000FFF788FD0028F6D10AAA02E06846002277
:10BA0000878068468088C3B268460088C1B22846ED
:10BA100072DFE8E77CB5054608880C46093090429D
:10BA200001D90C207CBD684671DF0028FAD121883D
:10BA30000820685420881B21401C80B22080295493
:10BA4000208800A9401C80B22080401906220131C4
:10BA5000FFF772FB20886946801D80B2208009783C
:10BA6000002900D0012129542088401C208000207A
:10BA70007CBD000005490B5C05494A6801209840DF
:10BA8000034693438B601040C860704770CF01003D
:10BA90000005005010B50349085C002100F0E8FEE5
:10BAA00010BD000070CF010010B50349085C0121F2
:10BAB00000F0DEFE10BD000070CF01000449095CFB
:10BAC00004484068C840C007C00F00D0012070473C
:10BAD00070CF0100000500507CB50024074E2546BC
:10BAE000305D0122009500231146019500F086FE8D
:10BAF000641C022CF4D300F003F87CBD70CF01006D
:10BB000010B500242046FFF7C5FF641C022CF9D3B2
:10BB100010BD10B500242046FFF7C6FF641C022CA0
:10BB2000F9D310BD0246002010B5C043054B0021DB
:10BB30005C5C944201D1084610BD491C0229F7D330
:10BB400010BD000072CF0100F3B581B00D46019821
:10BB5000FFF7E8FF0446022814D21E4F1C483E4659
:10BB6000143E002D27D0012D0DD0022D0AD16000EA
:10BB70002018C0194578002D04D03169002901D062
:10BB800028468847FEBD610061187D5CCF19797831
:10BB900000290BD0B1680A2251430E4A8068123A3C
:10BBA000FFF778FE002801D10198B0700948B978F4
:10BBB00011380155DFE78068FFF7B0FE05486100E6
:10BBC00061181138C919005D8D78A842D3D0FEBD27
:10BBD00074CF01009C18002070B50023022811D2F8
:10BBE000440004190D4D012A02D101290DD0002273
:10BBF00046008019094E801900290CD0012906D071
:10BC0000022906D00723184670BD0E30C2B22A554D
:10BC1000F9E74270F7E78270F5E700009C18002012
:10BC200010B5054A0146127B0020D20702D0084613
:10BC300000F050F810BD000088180020F8B5064646
:10BC40001F480024C660026181600F46B00720D5FE
:10BC50000025012211462846FFF7BEFF6D1C044651
:10BC6000022D02D2002CF4D013E0002C11D17A085E
:10BC700002211448FFF76CFD04000AD1FFF756FDBE
:10BC8000040006D10F48104A0021001FFFF7B2FD43
:10BC90000446F00701D0FFF71FFF002C0ED1094822
:10BCA0000A4A00210C38FFF7A5FD040006D105481B
:10BCB000074A01210838FFF79DFD04462046F8BDDC
:10BCC0008818002080CF010055BE0100E5C10100A9
:10BCD00021B70100F8B55D4C0546607800260028C4
:10BCE00003D000206070FFF70BFF0120584F2B009E
:10BCF000FFF7DEFB18970D0D2E3D4A5F64686F68F5
:10BD00006FA97777777777979A9DA0A9A995002053
:10BD1000FFF7D4FE00280AD00020FFF7BBFE022D5B
:10BD200002D1E120C0000BE07D20400108E00020AE
:10BD3000FFF7BAFE022D01D1C82001E0FF209130AB
:10BD400025706421FFF7E2F9A168414300222BE04E
:10BD50000020FFF7B3FE002805D00020FFF79AFE71
:10BD600019204001ECE70020FFF79EFEE4E70020E9
:10BD7000FFF7A4FE002803D00020FFF78BFED3E7D7
:10BD80000020FFF791FED9E70020FFF797FE00287B
:10BD900003D00020FFF77EFE02E00020FFF784FEC4
:10BDA0002570A068410000223868FFF773FD064641
:10BDB00035E00020FFF75EFE257007E000203FE041
:10BDC00025702CE060700120FFF754FE0022A1686E
:10BDD000EAE760700120FFF74DFEA068810041187E
:10BDE000E1E77868FFF79AFD06461120401B01D075
:10BDF000002E03D00220FFF74DFE10E001280BD9E2
:10BE0000C82148436421FFF781F9A168002241431A
:10BE10007868FFF73FFD06460220FFF745FE3046F3
:10BE2000F8BDFFF76DFECBE7FFF76AFEC6E7FFF749
:10BE300067FE04E0FFF764FE0020FFF735FE0120F7
:10BE4000FFF732FEBCE7FFF764FEB9E78818002071
:10BE500074CF010010B500780221FFF775FE10BD08
:10BE60000022D243830004490428CA5002D3081890
:10BE70002030027770470000481A0020F0B50025F6
:10BE8000ED43002A02D00023042601E00423082603
:10BE90000B4C04E09F00E7597F1C04D05B1CB342AD
:10BEA000F8D32846F0BD26185DB2203635709E00C6
:10BEB000A151002AF5D1E11820310877F1E70000FF
:10BEC000481A00200249091820200856704700002F
:10BED000481A002070B5084C050009D010342168BC
:10BEE000002907D008682060496828468847F6E797
:10BEF0000834F4E770BD0000341A0020F8B5234878
:10BF0000416800293ED00E6821494C6887688078D6
:10BF1000E11B0D022D0AED1C002814D101201D4A41
:10BF2000000450601B4A403A50601B4940000860C2
:10BF30001A4908601A49012008602F2000F0F2FA1F
:10BF4000124901208870B54200D23546E819000236
:10BF50000F4B000A403318600D4A5168001B091B43
:10BF60000902090A0002000AC91C814209D9506865
:10BF700018602F2000F0D6FA0120074940048039CC
:10BF80000860F8BD00F0CCFCF8BD0000BC18002033
:10BF9000001501404013014080E200E000E100E0B4
:10BFA00000100140F8B50646108814468446801DEE
:10BFB0000D46984201D90C20F8BD32880720062A88
:10BFC000FAD31927FF01184BBA4201D99A42F3D18B
:10BFD00071880629F0D3B94201D99942ECD19A422D
:10BFE00003D0994201D08A42E6D8052160462954FF
:10BFF00020881221401C80B2208029542088401CB7
:10C0000080B220804119308800F025FF2188401837
:10C0100080B220804119708800F01DFF21884018EF
:10C0200020800020F8BD0000FFFF0000F8B50026CA
:10C030000124154D23E06968F0004718387821463F
:10C040002A698140114218D08A432A6100F096FB88
:10C050003A782146EB689140194003469340994253
:10C060000BD17978012901D0012100E000217B6802
:10C070004140002B01D010469847761CF6B2287834
:10C080008642D8D3F8BD0000A818002010B50E498C
:10C0900000230A784C78A24212D0521CD2B20A7005
:10C0A000022A00D10B700A78074B920018339A5875
:10C0B0000260886810180002000A8860012010BD24
:10C0C0000360002010BD0000BC180020F8B5074632
:10C0D000104E0125BD403068FFF720FC00280DD12F
:10C0E0000D4C2069284207D1384600F047FB002854
:10C0F000E06804D0284303E0A8432061F8BDA843CA
:10C10000E0602069002228432061A1683068FFF7C1
:10C11000C1FBF8BD94CF0100A8180020F8B51E4C53
:10C120002078002836D0E068002600280CD00025B2
:10C13000607800282ED1684652DF052806D00028F6
:10C1400006D0FFF74BFB0BE00125F1E7012607E0E6
:10C15000009800F03DFA2169002901D00098884735
:10C16000002D13D16078002814D1608869460880BA
:10C17000A06861DF052804D0002804D0FFF72EFB5B
:10C1800004E0012502E0E168A0688847002ECFD0D6
:10C19000002DE5D0F8BD0000E81800201048018C03
:10C1A000C9B2012917D1818C090714D1018D090663
:10C1B0000A0F03D1828D1206120F0ED0090F01292A
:10C1C00003D1828D1206120F07D0032903D1808D6F
:10C1D0000006000F01D000207047012070470000CA
:10C1E000C00F00F010B50448017BC90702D00078E9
:10C1F000FFF770FD10BD000088180020F0B5284C36
:10C200002146103948688B68227886469C46CF784C
:10C21000667836E0182353436168521CC918A37826
:10C22000D2B2934200D100220B78022B02D0032B12
:10C2300027D123E003464D68194603E0A94204D004
:10C240000B46C96900291CD0F8E7002919D08B4298
:10C2500008D1C069002805D1124F0125BD60002515
:10C26000AC4601270D68C969D961002909D00B685E
:10C270005B190B6005E00174C06900E00021002833
:10C28000F9D19642C6D10649624610398A604860A3
:10C29000CF70704501D00120F0BD0020F0BD00003E
:10C2A000CC18002000100140F8B52C4E04467068F0
:10C2B0000025009041E0002C02D02046E46920E0F7
:10C2C000264818231030017842684B43491CC9B2F4
:10C2D000D21801708378994200D1057011785068A6
:10C2E00001292CD1017C002929D191684160D168B4
:10C2F00081601169C16051698161F178002900D0C4
:10C3000045604368B268164F991A0902090AB94292
:10C3100002D28268891806E0D11A09028268090AE5
:10C320008A4202D9511A016000E00560456001218E
:10C3300085600174C56100F05BFC002CBBD107482F
:10C340001030017840788142BAD1716800988142FA
:10C3500001D00120F8BD0020F8BD0000BC1800206D
:10C36000FFFF7F00002386B0214A05211846FFF712
:10C3700057FA002801D0FFF731FA00221D490120A9
:10C38000FFF75CFC002801D0FFF728FA1A4818498B
:10C390000068059000234822483905A800F0ACFB4E
:10C3A000002801D0FFF71AFA00216A46084600F07B
:10C3B0008BFB002801D0FFF711FA684600F07AFBEA
:10C3C000002801D0FFF70AFAFFF764F9084878302F
:10C3D00073DF002801D0FFF701FA0220FFF720FCED
:10C3E00000E048DF0028FCD0FFF7F8F9F9E700008B
:10C3F00044190020CD0C00006CCF010070B514462C
:10C4000082880E4605462088111D4118921C9942CB
:10C4100001D8FE2A01D90C2070BD521C325420884C
:10C42000FF21401C80B2208031542088401C80B203
:10C4300020808119288800F00EFD2188401880B2E4
:10C440002080AA88002A09D0A968002908D080196C
:10C45000FEF772FE2088A98840182080002070BD59
:10C46000072070BDF8B50F4601781446054601292E
:10C4700002D16878002806D02088821C9A422DD8E4
:10C48000012902D006E00720F8BD69784118891C0F
:10C49000994223D8181A801E86B2684606802188E1
:10C4A000B81C081869467DDF0028EDD128780228DD
:10C4B00005D169460988B14201D809210AE008215D
:10C4C000012805D16878B04202D86A46108001E0A0
:10C4D0006846068068460088FE2801D90C20F8BD11
:10C4E0002288401CB8542088401C80B220803954D7
:10C4F00020886946401C2080098840182080002040
:10C50000F8BDC20843075B0F0120895C98400840D2
:10C5100070470121890740180068002800D00120D9
:10C520007047000000280FD00849094A096800BF79
:10C5300000BF00BF00BF00BF00BF00BF00BF9142EF
:10C5400000D000BF0138F2D170470000A4180020CD
:10C550000024F40070B50E4C00252078002801D08E
:10C56000852513E00021A16061602161E160094837
:10C5700000680126304002D1032100F02FF800F0BE
:10C58000E7FA002801D1044886612670284670BD6C
:10C59000341A002000E100E00005004038B500201A
:10C5A000694608706846FFF7CDF9084C20780028E6
:10C5B00001D1FFF7CFFFE068401CE0600120A070D0
:10C5C00068460078FFF7DCF938BD0000341A002017
:10C5D00010B5002801D1FFF77DFC10BD8207D30EF6
:10C5E000FF229A408907090E10B5994000280BDAFE
:10C5F00003071B0F083B9C080C4BA400E318DC69E5
:10C6000094430C43DC6107E08408094BA400E41860
:10C61000236893430B432360C106C90E0120884061
:10C62000044908600449086010BD000000ED00E006
:10C6300000E400E080E200E000E100E0F3B581B05A
:10C64000054600F055F91F4F0028284617D0FFF780
:10C6500039FCC0192030007F8009032802D001284E
:10C660000BD005E018480069E840C007C00F04D0AF
:10C670000321284600F0EAF8FEBD0221F9E700F0A8
:10C6800043F90028F8D02846FFF71CFC0446800038
:10C69000C11D0E4AF9318018026989B20126324360
:10C6A0000261084600F004F902980028E4D0284608
:10C6B000FFF708FC800038580028DDD00448A64069
:10C6C0004660FEBD481A002000050050006500408D
:10C6D00000630040FEB5044625480E46001920219F
:10C6E00041560027C8171346401C01D008273CE0DC
:10C6F000F27819462046FFF7C1FB0546401C33D0AF
:10C70000B07800280BD005200007A10009180720E9
:10C7100000020918086802229043086007E000211F
:10C720007378204600910A46019100F07BF8F0787A
:10C73000002810D00F48AA001018317802690E4B5B
:10C740001A400261E206D20C8907890B0A4301698B
:10C750000A43026109E00648327840192030017F1F
:10C7600092011143017700E004273846FEBD000026
:10C77000481A002000650040FFE0FCFF03490969FA
:10C78000C140C807C00F00D001207047000500500D
:10C7900070B5144D2879002801D0082070BD1149CA
:10C7A00000204039421E0B182033401CC0B21A70C2
:10C7B0002028F8D300242046FFF752FB641CE4B283
:10C7C000082CF8D303210620FFF708FFFF207D3057
:10C7D00000F06EF801200449C0074860012028716C
:10C7E000002070BD881A00200063004002480079D4
:10C7F000002800D001207047881A002070B5520030
:10C800000A439900049D0A432902059E0A43310404
:10C8100005240A4324078000072100190902401853
:10C82000026070BD70B552000A439900049D0A432E
:10C830002902059E0A43310405240A432407800087
:10C840000721001909024018026070BD0522120775
:10C8500080008218072000021018026803231B04BE
:10C860009A430260026809040A43026070470000AC
:10C87000012282400348002901D082607047C260D3
:10C88000704700000005005038B5084B05241B68B0
:10C89000009324026B46411805E085005D592D196F
:10C8A0002D69401C20C28142F7D838BD90CF0100CD
:10C8B00002494018002101607047000000600040FC
:10C8C000034940180068012800D00020704700008C
:10C8D000006000404058002800D00120704703222B
:10C8E000120280184068084000D001207047000004
:10C8F0000449081820214156042901DB0120704712
:10C9000000207047481A0020044908182021415689
:10C91000042901D20120704700207047481A0020E6
:10C9200070B501240B49600408600B494010886011
:10C93000094940398860094D6C602F20FFF7F2FDEE
:10C94000AC60074D00242F20AC60FFF7EBFDAC700E
:10C9500070BD000080E100E0401301400010014084
:10C96000BC18002030B5FF220523CD7D00240932FC
:10C970001B02C318002D8450986905D04B7ECA68ED
:10C98000D054487E401C487630BD1FB501246B460C
:10C990001C701972019206C8684690471FBD0000BE
:10C9A00010B50446FEF7A0FD00280CD0A007C00E6D
:10C9B000002C0ADA2107090F08398908144A89006E
:10C9C0008918C96906E0134810BDA108124A8900F8
:10C9D00089180968C1400806800F042811D2002870
:10C9E0000FD002280DD00D494B68E206D20E01206F
:10C9F0009040002B08D0620992008B5803438B5063
:10CA000004E00448401C10BD05490860002010BD2A
:10CA100000ED00E00120000000E400E0E01800204C
:10CA200000E100E0FFB50746806A81B014460028A7
:10CA30003DD0002538462030009033E00C20B96A04
:10CA400068430E18B088801CFE2802D90C2005B05F
:10CA5000F0BD22880299401C885420881622401C70
:10CA600080B2208002990A542088401C80B2208025
:10CA700002994118308800F0EEF92188401880B200
:10CA80002080B288002A0AD0B16800290FD0029B0A
:10CA9000C018FEF751FB2088B188401820806D1C1B
:10CAA0000098EDB2007BA842C8D80020CFE707204D
:10CAB000CDE700001CB5034901910091694660DF94
:10CAC0001CBD00007018002070B50E4605461446C7
:10CAD00014211046FEF749FB01200021208021612E
:10CAE000217326726572002D00D0A072002070BDE7
:10CAF00010B5FEF767FE10BDF8B5002903D08C070E
:10CB00000025002C01D00720F8BD0E4E0E4FB1605D
:10CB10007280736039680124214003D00A49254698
:10CB200080310C60094910DF002803D0002DEBD0C4
:10CB30003C60F8BD3470FFF731FD1620FFF730FF81
:10CB4000F8BD0000E818002000E100E0F1CA010093
:10CB50000148007870470000E8180020FEB51F4C1F
:10CB60000025A768606802906846FFF78FFA019079
:10CB7000FFF744FB06460198002822D000230098C6
:10CB8000616817E00E680A46864202D9301A0860CA
:10CB900012E0801BF31800261660D668D169B446EF
:10CBA000002E07D0FE183602360A5660664696609A
:10CBB000D56115460029E5D128466160FFF774FB71
:10CBC00006E02846FFF770FB002801D1002E02D0B6
:10CBD0000298FFF793F90020E070FEBDBC1800201A
:10CBE00001200249000508607047000000E200E0F3
:10CBF00010B50E4B5968002906D002680C68A24295
:10CC000004D8A21A0A60C161586010BD0B4604E046
:10CC10000B46C969121B002904D00C689442F7D353
:10CC2000A41A0C600260C161D86110BDBC1800205C
:10CC30007CB50D460646002469460C706846FEF732
:10CC400081FE01A800F00CF900280DD005704660A7
:10CC5000684608490079487068460078FEF790FEFB
:10CC6000FFF7BEFF20467CBD684604240078FEF72F
:10CC700087FEF7E7CC180020F8B51D4D6C68002C36
:10CC800034D01C4800274068A968401A0602360ABA
:10CC90002068B04218D8361AC7192246107CE469B9
:10CCA00000280FD000201074EB68002B07D091698A
:10CCB00050699847002805D0FEF790FD02E05169C1
:10CCC00090698847002CE3D129786878814206D1A1
:10CCD000401CC0B26870022801D10020687004496D
:10CCE0000006800D18310F50FFF77AFFF8BD0000E5
:10CCF000BC18002000150140FF221D320023835084
:10CD00008B8A8A68D25C8B8A5B1C8B820521090224
:10CD10004018C26170471FB500226B461A70197225
:10CD200081680191827506C8684690471FBDF0B5BD
:10CD30000C46012185B005464902FFF7D0FD0321CD
:10CD400009026F180026002826D0FF212531284629
:10CD5000FFF7C0FD00281FD0FF2025302E50812076
:10CD60008000B860A07E002801D101206860022107
:10CD7000684601700920C0012918086808600390FE
:10CD8000E17D68460172E0680190E675267606CC82
:10CD90006846083C90472DE004212846FFF79FFD98
:10CDA000002827D0FF2109312846FFF793FD0028EE
:10CDB00020D021462846FFF7D5FDE07D617E8842E0
:10CDC00018D1207E002807D0617EE268E0752069D6
:10CDD000E060267666760AE0A07E002801D1012078
:10CDE000686081208000B860E675617EE268204658
:10CDF000FFF7CBFDFF271D3739462846FFF76AFDB1
:10CE000000280FD0A08AA17D884204D2214628465E
:10CE1000FFF772FF06E0EE51A17D002902D0204607
:10CE2000FFF779FFFF27453739462846FFF752FDC0
:10CE300000280ED0EE51A07E002801D001202860ED
:10CE4000E07D002805D0E675617EE2682046FFF7A8
:10CE50009CFD05B0F0BD0870000A487002207047C4
:10CE600010B509494B788C785A1CD2B2944200D143
:10CE700000220C78944201D1002010BD0270486855
:10CE800018214B43C01810BDCC180020FFB583B04B
:10CE900016460C9D0D9C1F46022200950194039896
:10CEA00000F00CF8002807D13B46102231460095CF
:10CEB0000194039800F002F807B0F0BDFFB583B00D
:10CEC000074600200C9C8646268805463AE078688E
:10CED000A90042181188684681805188C1800022CB
:10CEE000694601A865DF002839D1684601780598B0
:10CEF000814226D17046002801D0002200E00222A3
:10CF00002088891842180D998A4227D8714600292D
:10CF10000AD1401C80B22080069A049911542088BE
:10CF2000401C208001208646218806980A18694600
:10CF300001A865DF002812D16946208809784018C9
:10CF400020806D1C3888A842C1DC704600280AD0B9
:10CF50002088801B401E80B2FF2802D90C2007B019
:10CF6000F0BD069988550020F9E700000100000790
:10CF700012131011D4190020F4190020141A0020E3
:10CF80001000030049BB01001100030049BB010070
:10CF900000000050AC1A002003000000BCCF0100CC
:10CFA000701800208C000000CAB4010048D00100B5
:10CFB000FC180020D4090000DAB4010002150112A7
:10CFC000233445566778899AABBCCDDEEFF1050670
:10CFD0000708C3000000000000000000000000007F
:10CFE0000000000000000000000000000000000041
:10CFF0000024F40000000000000000000000000019
:10D000000000000000000000000000000000000020
:10D010000000000000000000000000000000000010
:10D020000000000000000000000000000000000000
:10D0300000000000000000000000000000000000F0
:08D040000000000000000000E8
:040000050001B0C185
:00000001FF
