:020000040000FA
:10000000900C0020D5000000EF000000F10000007F
:1000100000000000000000000000000000000000E0
:10002000000000000000000000000000F3000000DD
:100030000000000000000000F5000000F7000000D4
:10004000F900000015070000250B0000F900000072
:10005000F900000000000000F9000000F9000000B5
:100060000D0A0000F9000000F9000000F90000008E
:10007000F9000000F9000000F9000000F90000009C
:10008000F9000000F9000000F9000000F90000008C
:1000900095070000F9000000F9000000F9000000D9
:1000A000F9000000F900000000000000000000005E
:1000B0000000000000000000000000000000000040
:1000C0000348854600F092F800480047D912000026
:1000D000900C00200321094802680A430260084886
:1000E00002680A4302600748804707480047FEE766
:1000F000FEE7FEE7FEE7FEE7FEE70000240500401E
:1001000054050040A9090000C100000003460B434C
:100110009B0703D009E008C9121F08C0042AFAD2BD
:1001200003E00B780370401C491C521EF9D2704743
:10013000D2B201E00270401C491EFBD2704700227F
:10014000F6E710B513460A4604461946FFF7F0FFD6
:10015000204610BD30B505462A460B4610781C785F
:10016000521C5B1C002801D0A042F7D0002C03D009
:10017000002802D06D1CEFE7284630BD421C0178F4
:10018000401C0029FBD1801A7047F0B51FB4064609
:10019000002082B005464024019100901BE00199A7
:1001A00022460F46304600F043F8049A059B801A19
:1001B000994110D310461946224600F029F8361A04
:1001C0008F410197224601200021009F00F020F876
:1001D00038184D4100902046641E0028DFDC019B4A
:1001E00000982946324607B0F0BD0000064C0125B4
:1001F000064E05E0E36807CC2B430C3C98471034CF
:10020000B442F7D3FFF760FFD4270000F4270000C3
:1002100010B5202A04DB0146203A9140002010BD91
:10022000914020239C1A0346E3401943904010BD9F
:1002300010B5202A04DB0846203AD040002110BD2A
:100240000B46D340D0402024A21A914008431946BF
:1002500010BD000070B50446002501200949086062
:100260000948007800280AD0012048602146074844
:10027000FFF770FF002801D0012500E00025284687
:1002800070BD00000020004046000020C203002096
:1002900010B540210448FFF752FF002003490870C1
:1002A0000349087010BD0000C20300204600002072
:1002B0004500002030B5A1B004460025264840790D
:1002C00020702548807960702348C0790006224953
:1002D000097A090408432049497A090208431E495A
:1002E000897A084360602078FF282DD16078002843
:1002F00025D11AA000F032FB1DA101A8626800F010
:100300004DFC01A800F02AFB802101A8FFF717FF90
:10031000132001F05AFCC82001F018F9132001F055
:1003200048FC642001F012F9132001F04EFCC820B3
:1003300001F00CF9132001F03CFC012508E014A0A9
:1003400000F00CFB002503E017A000F007FB0025E0
:10035000284621B030BD0000040400200D0A41648D
:1003600064206E6577206465766963650D0A000018
:10037000424F4E442C545950453A4745524B4F4EEC
:100380002C49443A3078252E38580D0A00000000D8
:10039000556E6B6E6F776E20646576696365207449
:1003A000797065210D0A0000556E6B6E6F776E20B7
:1003B000636D64210D0A0000F0B5A3B0044600206F
:1003C0002290002739484079207038488079607041
:1003D0003648C07900063549097A0904084333498B
:1003E000497A090208433149897A084360602F48F5
:1003F000C07A00062D49097B090408432B49497B33
:10040000090208432949897B08430190284901983A
:10041000884243D1607800283BD12448C07B000249
:100420002249097C0843A0812048407CA0731F48D2
:10043000807CE0731D48C07C2074227C1B491431F1
:1004400020461130FFF762FE657C802102A8FFF78D
:1004500076FE18A102A8626800F0A0FB02A8FFF7D0
:100460008DFE02A94618A2892B461BA1304600F03A
:1004700095FB02A8FFF782FE02A94618E37BA27B48
:100480001AA1304600F08AFB02A800F067FA0127A3
:1004900008E01BA000F062FA002703E01EA000F0B5
:1004A0005DFA0027384623B0F0BD000004040020A8
:1004B0000A0A0A0A2D2D2D3E2054454C452C54592C
:1004C00050453A4745524B4F4E2C49443A307825D7
:1004D0002E38582C00000000564241543A25642C16
:1004E00053544154453A25642C000000465245516E
:1004F0003A25642C4C4F53543A25640D0A000000F1
:100500000D0A556E6B6E6F776E2064657669636554
:10051000204944210D0A0000556E6B6E6F776E20E6
:1005200067617465776179206D65737361676521B3
:100530000D0A0000C206D20E01219140014A11604D
:100540007047000080E200E0C206D20E0121914017
:10055000014A11607047000080E100E0C206D20E3F
:1005600001219140014A11607047000080E100E0E4
:10057000C206D20E01219140014A1160704700006D
:1005800000E100E0C206D20E01219140014A116053
:100590007047000000E100E0C206D20E0121914048
:1005A000014A11607047000000E200E010B5002829
:1005B00019DA1A4A03071B0F083B9B089B00D25805
:1005C0008307DC0EFF23A3409A438B071B0E84078F
:1005D000E40EA3401A43114B0407240F083CA4085F
:1005E000A4001A5118E00E4A03231B02D2188308F4
:1005F0009B00D2588307DC0EFF23A3409A438B074E
:100600001B0E8407E40EA3401A43054B0324240267
:100610001B198408A4001A5110BD00001CED00E055
:1006200000E100E010B5002819DA1A4A03071B0F91
:10063000083B9B089B00D2588307DC0EFF23A34096
:100640009A438B071B0E8407E40EA3401A43114BF9
:100650000407240F083CA408A4001A5118E00E4A0D
:1006600003231B02D21883089B00D2588307DC0E99
:10067000FF23A3409A438B071B0E8407E40EA3407D
:100680001A43054B032424021B198408A4001A51A1
:1006900010BD00001CED00E000E100E010B50028F6
:1006A00019DA1A4A03071B0F083B9B089B00D25814
:1006B0008307DC0EFF23A3409A438B071B0E84079E
:1006C000E40EA3401A43114B0407240F083CA4086E
:1006D000A4001A5118E00E4A03231B02D218830803
:1006E0009B00D2588307DC0EFF23A3409A438B075D
:1006F0001B0E8407E40EA3401A43054B0324240277
:100700001B198408A4001A5110BD00001CED00E064
:1007100000E100E010B51B480068002808D01A4826
:100720004068C007C00F002802D0002015490860AB
:100730001448C06800280FD01348406808210840BA
:10074000002809D000200F49C86010480068002820
:1007500002D00E48006880470A48006900280FD080
:100760000948406810210840002809D000200549A8
:10077000086107480068002802D0054800688047E3
:1007800010BD000000110040001300403C0000209C
:10079000380000203EB519480068019002A800F01A
:1007A00091FF0446002C27D115480068002823D06B
:1007B0000298C007C00F002806D0002069460870C4
:1007C00068460F49096888470221029808400028B6
:1007D00006D00120694608706846094909688847BB
:1007E000042102980840002806D0022069460870BB
:1007F00068460349096888473EBD00003000002074
:100800001000002010B504460B2042494861092021
:10081000C86000203F494031C862E1210902601AE6
:100820008C4245D015DC3C49601A8C4234D009DC3E
:100830003A48201A22D03949401A24D04900401A97
:100840004FD125E03449401A2AD04900401A48D1F6
:100850002AE0334A811A904236D006DC3149401AE8
:100860002AD04900401A3CD12AE0E120C002081AEF
:100870002ED02D494018002833D12DE04F20000301
:10088000244948622DE09D2000032249486228E067
:1008900026482049486224E025481E49486220E055
:1008A00024481C4948621CE023481A49486218E061
:1008B00022481849486214E021481649486210E06D
:1008C0002048144948620CE01F481249486208E079
:1008D0001E481049486204E0012000070D494862A3
:1008E00000BF00BF0020C043194988600420486051
:1008F00008490860022001218140164A116000BFAA
:100900000321FFF7CBFE022001218140124A116032
:1009100000BF10BD0025004080250000B00400008D
:100920000027060000E10000C0CDFEFF00B013006C
:100930000050270000A04E0000509D0000F0EB008A
:1009400000E0D70100B0AF0300705F0700D0BE0E1B
:100950000023004080E200E000E100E010B5034623
:10096000002404E0185D00F007F8601C84B2185DF4
:100970000028F7D110BD00000121084A9160084904
:10098000C86100BF0749C9690029FBD00021054A99
:10099000D1610121014AD160704700000020004070
:1009A000002500400021004010B500F035FC002873
:1009B00005D0104810494860C8131049886100F0FC
:1009C0000FFC002802D001200D49886000F05AFC7D
:1009D00000280ED00B480068012807D00A480949B2
:1009E000086000BF074800680128FBD1C020054906
:1009F000486110BDDFFF07C000050040006C0040EB
:100A00000006004000EC06407593000010B5082079
:100A1000FFF79AFD29480068012847D1002027499F
:100A2000086027480068401C25490860084600689F
:100A30003C283BD1122000BF05231B0719461B157C
:100A4000CB185A68012383409343052424020C19D0
:100A5000A360012383401340052424020C19E360A2
:100A600000BF00201649086016480078401C154950
:100A7000087008460078012804D11348007801F076
:100A800031FB13E00F480078022804D10F480078AA
:100A900001F028FB0AE00B480078032806D10C4837
:100AA000007801F01FFB0020064908700120094969
:100AB000C8600820FFF75CFD10BD000040810040C9
:100AC000000000204C0000204D0000204E000020BF
:100AD0004F0000200080004010B50820FFF734FDD3
:100AE00001200D49486000200C49486003208860BF
:100AF0000A200861102009494031086000030849B4
:100B0000486003210820FFF751FD0820FFF730FD62
:100B100001200149086010BD0080004000850040B0
:100B2000008300401748806801282AD10020154919
:100B30008860154880691549087015480178007863
:100B4000401C134A1070402902DD00201146087035
:100B50000E4800780A280AD00C4801780C48007822
:100B6000401E0C4A115400200B49087009E0074848
:100B7000017807480078401E064A115401200649B2
:100B8000087070470021004000250040440000200C
:100B900045000020C2030020460000200FB410B51D
:100BA00004A9074B02AA039800F01CF8044602A906
:100BB000002000F051FA204610BC08BC04B01847D1
:100BC0005910000002E008C8121F08C1002AFAD11B
:100BD00070477047002001E001C1121F002AFBD1BD
:100BE00070470000FFB591B00F460546002606E0AD
:100BF00025280AD0149A139990476D1C761C2878E2
:100C00000028F5D1304615B0F0BD00240094012134
:100C1000F34A029400E004436D1C2B780846203B05
:100C200098401042F7D128782A280ED0022128783F
:100C30000246303A092A15D8009A0A235A43303A14
:100C400080180C436D1C0090F1E701CF0090002844
:100C500005DA01204003044300984042009002203E
:100C600004436D1C28782E2815D10420044368788D
:100C70006D1C2A280AD101CF6D1C02900BE002994D
:100C80000A225143303940186D1C029028780146E1
:100C900030390929F3D928786C2810D006DC4C2883
:100CA0001AD068280ED06A2817D104E0742813D00F
:100CB0007A2812D110E00120400504430CE0012104
:100CC000090501E0032109050C436978814203D13C
:100CD0000120000524186D1C6D1C287803906E28D7
:100CE0001ED00CDC632831D004DC00288AD05828C0
:100CF00011D1B2E064287BD069280CD178E0732848
:100D00002DD004DC6F2870D0702804D1A7E075289E
:100D10006CD078286BD0149A13999047761C62E0B7
:100D20006002400F022807D003280AD00428386840
:100D30000AD006603F1D56E03868F1170660416032
:100D4000F8E738680680F5E70670F3E73878694613
:100D500008740020487404A80390012003E0386858
:100D600003900020C0433F1D61070FD5002101E023
:100D70000199491C029A0191914213DA8142F7DBF1
:100D8000019A0399895C0029F2D10BE0002101E06E
:100D90000199491C01918142FADB019A0399895C0E
:100DA0000029F5D101990098139A401A0090214624
:100DB000149B00F03BF901998019461807E003984D
:100DC00003990078491C0391149A1399904701984C
:100DD000401E0190401CF2D12146149B139A0098AA
:100DE00000F014F986196D1C09E741E033E034E0A6
:100DF0000A200021049005916002410F022905D0CC
:100E000001CFC2179446032905D007E0FF1DFF0854
:100E1000FF0003CF06E000B2C2179446042902D1B6
:100E200040B2C1178C4600226146944506DA0A4654
:100E30000021404291418C462D2102E0210504D53C
:100E40002B216A461176012103E0E10701D0202120
:100E5000F7E7019154E00A200BE0102009E0102090
:100E6000049000210420044308200591029003E02F
:100E700008200021059104906002410F022905D04D
:100E800001CF00229446032906D006E0FF1DFF088B
:100E9000FF0003CF8C4603E080B2042900D1C0B22A
:100EA0000021019121072BD50399702906D0049ABE
:100EB0001021059B4A401A4305D00EE040216A46A6
:100EC0001176012108E06146014306D030216A46CF
:100ED00011760399517602210191049A0821059B0C
:100EE0004A401A430CD16146014301D1610707D53D
:100EF00030216A461176012101910299491E029121
:100F00000399582904D037A103910FA90F910DE03F
:100F100039A1F9E76146059B049AFFF736F9039B6F
:100F20008C469B5C0F9A521E0F92137061460143D0
:100F3000F0D10F9807A9081A20300390600704D554
:100F4000012000048443029801E0012002900399EB
:100F5000884201DD401A00E000204118029001980B
:100F600009180098401A0090E00306D42146149B0B
:100F7000139A009800F05AF886190020049008E0AF
:100F800006A9085C149A139990470498401C761C93
:100F9000049001998842F3DBE0030CD52146149BB1
:100FA000139A009800F042F8861904E0149A302051
:100FB00013999047761C0299481E02900029F5DC8F
:100FC00008E00F980F990078491C0F91149A139913
:100FD0009047761C0399481E03900029F1DCFBE63C
:100FE00009280100303132333435363738396162FF
:100FF00063646566000000003031323334353637C3
:10100000383941424344454600000000F8B50446E3
:1010100000251E461746880404D405E039462020E2
:10102000B0476D1C641EF9D52846F8BDFFB50446CF
:10103000002581B01E46C80301D5302700E02027D7
:10104000880404D505E038460399B0476D1C641E3A
:10105000F9D5284605B0F0BD0A68531C0B60107026
:10106000704710B50446204600F02EF800BA10BDB7
:1010700010B504460249085D002100F0B2FD10BD24
:10108000B82700007CB500240CE00948055D00206D
:1010900000900346012211460190284600F074FD9D
:1010A00000BF641C022CF0D300F004F87CBD0000EB
:1010B000B827000010B5002403E02046FFF7D8FF52
:1010C000641C022CF9D310BD014608680D4A024089
:1010D00012090C4BDB4303401B011A4310460A4A1A
:1010E00002409208084BDB4303409B001A43104622
:1010F000064A02405208054BDB4303405B001A439B
:1011000010467047F0F0F0F0CCCCCCCCAAAAAAAA3A
:1011100010B5FF201430104908601049C87C1049F0
:10112000096888470F481049486000200F49086146
:1011300001200F49086100BF0C4800690028FBD05E
:1011400000200A490861FF20183003490860012087
:101150000749486010BD0000001200405000002008
:101160004000002032030020001500400011004024
:101170000010004000200549086001208107086038
:1011800000BF024800680028FBD070470001004003
:1011900010B5FFF777FF10BD10B501F0C7F80020BC
:1011A00007E0252141430A4A89188200094B9950DA
:1011B000401C0828F5DB002007E025214143064AB2
:1011C00089188200054B9950401C0828F5DB10BD9A
:1011D0006800002090010020BC010020E4020020F3
:1011E0000C48008CC0B2012812D10A48808C00073C
:1011F000000F00280CD10748806AF02108404028E1
:1012000006D10448C06A0840002801D10120704777
:101210000020FCE7C00F00F01948008CC0B2012884
:101220002CD11748808C0007000F002826D11448C5
:10123000806AF0210840002806D11148C06A0840A1
:10124000002801D1012070470D48806AF021084034
:10125000102806D10A48C06A0840002801D10120A0
:10126000F1E70748806AF0210840302806D1044899
:10127000C06A0840002801D10120E4E70020E2E72D
:10128000C00F00F01348008CC0B201281FD11148D4
:10129000808C0007000F002819D10E48806AF021C9
:1012A0000840A02806D10B48C06A0840002801D198
:1012B000012070470748806AF0210840D02806D1F5
:1012C0000448C06A0840002801D10120F1E700204D
:1012D000EFE70000C00F00F0FFF75AFFFFF74AFFEB
:1012E000E1204002FFF78EFA002000F00BFF0028FB
:1012F0000BD06B48007801F00BF8002805D069A0EE
:10130000FFF72CFB012000F04FFFFFF7E5FBC6E0E5
:101310006AA0FEF79FFF00282FD0FEF7B9FF69A053
:10132000FFF71CFB64207D22D200014651430029B7
:1013300000D116E000BF00BF00BF00BF00BF00BF6C
:1013400000BF00BF00BF644A1268644B9A4200D1DC
:1013500001E000BF00BF0A46013A114600D0EAE7AB
:1013600000BF00BF00BFBFF34F8F5D485D49C8603D
:10137000BFF34F8F00BF00BFFEE75B480078002837
:1013800013D000205849087000F023FF002000F01F
:10139000B9FE0028BBD0012000F006FF53A0FFF7E4
:1013A000DDFA01205649086079E0564800780028A7
:1013B00013D000205349087000F00BFF002000F00C
:1013C000A1FE00286BD0012000F0EEFE47A0FFF741
:1013D000C5FA01204A49086061E04B4800780028BE
:1013E0005DD0002048490870012045494860002030
:1013F00000F0DAFE45484078002847D1434840795C
:1014000000281DD14248FEF7D7FF00280ED000F07B
:10141000E0FE012000F076FE002840D03C49887BA9
:1014200000F076FF3A4800F02BFF38E039A0FFF7D4
:1014300095FA012000F0B8FE0120314908602EE045
:1014400032484079FF2817D13048C07A342813D168
:101450002F48FEF72FFF002821D000F0BAFE012010
:1014600000F050FE00281AD02949887B00F050FF78
:10147000274800F0BBFE12E02AA0FFF76FFA012018
:1014800000F092FE01201E49086008E02BA0FFF743
:1014900065FA012000F088FE01201949086037E74D
:1014A0004D000020476174657761792072756E6E1A
:1014B000696E672E2E2E0D0A000000007265626FA5
:1014C0006F7400000D0A5265626F6F74696E672E4B
:1014D0002E2E0D0A00000000040000200024F4005D
:1014E0000400FA0500ED00E04A0000205258204CAC
:1014F000697374656E696E672E2E2E0D0A000000EA
:10150000008000404B00002049000020040400201F
:1015100068040020556E6B6E6F776E20636D6421DA
:101520000D0A0000556E6B6E6F776E206D657373DC
:101530006167652074797065210D0A00556E6B6EC8
:101540006F776E2070697065210D0A007D22D200D0
:1015500001465143002900D116E000BF00BF00BF83
:1015600000BF00BF00BF00BF00BF00BF074A126836
:10157000074B9A4200D101E000BF00BF0A46013A82
:10158000114600D0EAE700BF7047000004000020C9
:101590000024F40010B50F2080020B498860002061
:1015A0000A49087000F0C2FE24210948FEF7C7FD71
:1015B00009210848FEF7C3FD1420FEF7CFFF0320E2
:1015C00005490860002010BD00F501400900002019
:1015D0005E030020540300200012004010B50446B2
:1015E0002078002804D0012809D0022821D10DE05C
:1015F00001201149087011A0FFF7B0F919E001208E
:101600001349087013A0FFF7A9F912E009E0164882
:101610000078002805DD01201449087014A0FFF7A8
:101620009DF9114800F0C6F80028F0D000F02AF823
:1016300000BF00BF10BD00004A00002054582053D6
:10164000554343455353204556454E540D0A00001B
:101650004B0000205458204641494C4544204556F3
:10166000454E540D0A0000000404002049000020EB
:1016700052582053554343455353204556454E54E5
:10168000210D0A0010B500BF0B480078002801D1D9
:10169000082010BD00BF0120FEF760FF00200749B1
:1016A00088620862486224210548FEF748FD01204F
:1016B000FEF768FF0020ECE708000020E4020020AD
:1016C0005E03002010B5044600BF0D4800780028D6
:1016D00001D1082010BD00BF00BF002C01D10E2099
:1016E000F8E700BF0120FEF739FF064800682060D8
:1016F0000020044908600120FEF744FF0020E9E7CC
:10170000080000202800002070B5044600BF002C0F
:1017100001D10E2070BD00BF1F480078002806D000
:10172000FFF738FF0546002D01D02846F2E71B4998
:1017300060680860182221461948FEF7E7FC00207F
:101740001849086024211848FEF7F9FC09211748B8
:10175000FEF7F5FC00F0CCFFFFF71EFD00F02AFFBE
:1017600000F08EFC0E48407C8107890F0120FEF7B7
:1017700059FF0B48807C8107890F1420FEF752FF28
:101780001420FEF7FFFE00200949087001200249DD
:1017900008700020BEE700000800002010000020B4
:1017A00050000020280000205E0300205403002089
:1017B0000900002010B5044600BF26480078002824
:1017C00001D1082010BD00BF00BF002C01D10E20A8
:1017D000F8E700BF2048806A002801D10520F1E722
:1017E0000120FEF7BBFE1C48406A80001A490858D9
:1017F000007820700846406A800008584078607081
:101800000846406A800008588078A0700846406A00
:10181000800008580079207122780846406A8000CC
:101820000B461858411D601DFEF770FC0A48406ABF
:10183000401C09494862082801D300204862064834
:10184000806A401E044988620120FEF79BFE00204A
:10185000B8E7000008000020E402002010B50446AC
:1018600000BF0B480078002801D0112010BD00BF38
:1018700000BF002C01D10E20F8E700BF0422214652
:101880000448FEF743FC012000F0C0FE0020EDE715
:10189000090000201400002010B5044600BF0B48CA
:1018A0000078002801D0112010BD00BF00BF002C1F
:1018B00001D10E20F8E700BF042221460448FEF7BC
:1018C00025FC022000F0A2FE0020EDE70900002028
:1018D0001800002070B505460C4600BF134800787C
:1018E000002801D0112070BD00BF00BF002D01D124
:1018F0000E20F8E700BF00BF092C01DB0720F2E74C
:1019000000BF224629460A48FEF700FC084808386E
:1019100004740820011BFF20084105490839887418
:10192000042000F073FE0020DDE700000900002025
:101930001C000020014600BF08480078002801D0A4
:101940001120704700BF00BF7D2901D90720F8E7AB
:1019500000BF034AD1740020F3E700000900002013
:101960001400002010B500BF19480078002801D0ED
:10197000112010BD00BF0020C04316498860002020
:1019800015490861154816490860FF2018301549A7
:10199000086010200F49486004200D490870124863
:1019A000807C124908631048C07C886010484860F9
:1019B0000120FEF7BFFD0120FEF7E4FD00200649EF
:1019C00048608860086101200A4948600020D0E72B
:1019D000090000200013004000110040251C0000F9
:1019E00038000020001200401400002000150040C4
:1019F000320300200010004010B500BF08480078F6
:101A0000002801D0112010BD00BF0648806A0028C0
:101A100002D1FF200130F6E700F000FD0020F2E7E0
:101A200009000020900100200E480078042816D1FB
:101A300000200D490860401E0C49886000200C49B8
:101A400008600C49086101200B49086100BF094882
:101A500000690028FBD00020024908707047FF2071
:101A60000230FBE709000020001200400013004094
:101A700038000020001100400010004010B504465E
:101A800000BF3C480078002801D1082010BD00BFED
:101A900000BF002C01D10E20F8E700BF00BF207866
:101AA00000280BD02078202808DC33480078002854
:101AB00006D120783049C97C884201DD0920E5E75C
:101AC00000BF00BF2D48806A082801D30420DDE74D
:101AD00000BF29484078002808D1E078002805D0C8
:101AE0002548007D002801D10620CFE70120FEF720
:101AF00035FD2249096A8900204A5058252221468D
:101B0000FEF704FB61781E4A515C481CC117890F1F
:101B1000091889108900411A6278194B9954607824
:101B20001946085C1549096A8900144A5158087118
:101B30001046006A401C11460862082801D30020A4
:101B400008620E48806A401C0C4988620120FEF73A
:101B500019FD09484078002809D10748007C002871
:101B600005D108480078002801D100F057FC00207A
:101B70008CE70000080000205000002090010020A9
:101B80005403002009000020F0B500BF05252D07F3
:101B90002C4655000D439E003543059E36023543C5
:101BA000069E36043543860007273F02E719BD51DC
:101BB000F0BD00BF052109070A4601218140052328
:101BC0001B02D318D96000BF704700BF0521090769
:101BD0000A460121814005231B02D318996000BFEA
:101BE000704710B500290DD100BF00BF05221207B4
:101BF000134601228240052424021C19E26000BF22
:101C000000BF0DE000BF00BF0522120713460122EE
:101C10008240052424021C19A26000BF00BF00BF3F
:101C200010BD0000F8B500250026012760480068B7
:101C3000002802D1FFF76CFAF8BD5E48806A0828D8
:101C400002D3FFF765FAF7E75948806880005A49E0
:101C500044185748C0682188884207D157484078BF
:101C60004010A178884201D10126002753484078CE
:101C70004010A0704E48C06820805148007D002868
:101C800005D04E484078C007C00F002800D101257C
:101C9000002D75D0FF201C304A4908604848007864
:101CA000002853D001285CD14748806A002840D0E2
:101CB0004548406A80004449085840783C49896852
:101CC000884236D1E078012815D1002E13D13E4844
:101CD000406A401C3C494862082801D30020486201
:101CE0003948806A401E38498862384800680121B6
:101CF0000843364908600120E0703348406A80009C
:101D0000314908583249086009680878314909683A
:101D100088472F48006800782F4908702C480068D1
:101D200002782B480168491D2B48801CFEF7EEF90C
:101D300007E00020E070274909688847002026490D
:101D400008701E484078244948700AE00020214964
:101D500009688847194800781F49087000204870B2
:101D600000BF00BF05201D490870114880681C494C
:101D7000C862194848601B481B49086002E0FFE739
:101D8000FFF7C6F9002F10D0A178094A9268D0B2A7
:101D900000F0DAFA002808D00C4800680421084353
:101DA0000A4908601420FEF7F7FB00BF44E7000073
:101DB00000140040E40200205E03002032030020F3
:101DC0005000002000120040900100202800002058
:101DD0000C0000204000002010030020090000201B
:101DE00000150040ED1D00003800002010B5FF2058
:101DF0001830084908600849C87C084909688847BC
:101E0000074808494860084808490860042008490C
:101E1000087010BD0012004050000020400000205B
:101E20003203002000150040251C0000380000206F
:101E30000900002010B5FF20143018490860184828
:101E400000681849086018488089823817491522A7
:101E500092018918486001201449C8600020144983
:101E60000860002112484160072080021149486043
:101E70004814886000201049C8600B48007800288A
:101E800002D10E49096888470D480E4948600E483E
:101E90000E49086003200E49087010BD0012004072
:101EA0003400002040A500405000002000A0004069
:101EB00040A1004000F5014000110040400000201A
:101EC0003203002000150040151F000038000020DC
:101ED0000900002010B50C480068012108430A4998
:101EE000086000F077FB0948806A002805D108499E
:101EF00008701420FEF750FB04E01420FEF74CFBA2
:101F000000F08CFA10BD0000280000209001002095
:101F10000900002010B50720800245498860454827
:101F2000C068002844D044480068002840D0012000
:101F30004249486040033E498860414800680121A9
:101F400008433F4908603F48C0893F490968401A33
:101F5000401C3E49086000F03DFB3A4800780028EC
:101F600011D03B48007800280DDD3A49C96AC8B253
:101F7000002100F0E9F9002805D03148006804216B
:101F800008432F4908603448806A002803D02D4850
:101F9000007C012806D10020304908701420FEF78B
:101FA000FBFA44E01420FEF7F7FA00F037FA3EE0BF
:101FB00025490868411E244A1160002817D10120D4
:101FC0001E49486040031A4988601E48C089401C69
:101FD0001E4908601A480068022108431849086031
:101FE00000201E4908701420FEF7D6FA1FE0FF20DB
:101FF0001C301B4908601B49096808781A490968A0
:1020000088471A481349486019481A49086002204D
:1020100012490870012009490860400304494860DA
:1020200015484068002802D001201449086010BDFE
:1020300000F50140001100400014004000A00040E5
:1020400028000020500000202C000020300000203C
:1020500032030020001500409001002009000020FC
:10206000001200400C00002040000020100300205F
:10207000351E00003800002040A100400010004044
:102080001348144951221201891808651249114850
:10209000801841650E48001D0E49891888650E4953
:1020A000091D0C488018C1650C480A498918086642
:1020B0000749F0390748801841660848001D05495E
:1020C00089188866064903488018C1667047000071
:1020D0000011004000F0014000A0004040A100407D
:1020E0000010004010B50446002000F05DF8002804
:1020F00007D0204600F00CF9002802D0012000F0A3
:1021000053F810BD30B58BB00446002520A0006800
:102110000A9020A0006809901FA103C908910790A8
:1021200018221F4901A8FDF7F1FF002C03D101205F
:102130006946487104E0012C02D1002069464871CB
:10214000042168468173022101730121017102217A
:102150004173144802900521684641824B21C90011
:1021600001820121017601A8FFF7CEFA00280BD1E8
:102170000AA8FFF773FB09A8FFF78EFB082107A841
:10218000FFF7A8FB012500E0002528460BB030BD75
:10219000E7E7E7E7C2C2C2C2E7C2C3C4C5C6C7C851
:1021A000BC270000DD15000070B505460026012D96
:1021B00003D1FFF7D7FB044604E0002D02D1FFF75F
:1021C00033FC0446002C01D1012600E000263046F5
:1021D00070BD70B50024FFF7DDF90546002D01D173
:1021E000012400E00024204670BD000070B50446C4
:1021F00000262020214908706078002802D001289C
:1022000008D103E000201D49487005E001201B496A
:10221000487001E0002600BF00BF00201749C870C9
:10222000FF2048716178154881716068010E13487C
:10223000C17160680002010E10480172A08800049C
:10224000010E0E484172217981720A21C172017317
:10225000417381733221C173FFF710FC00280BD149
:10226000FFF7CAFB054600BF002D04D001D00120B6
:1022700070BD0020FCE700BF3046F9E729040020CC
:1022800070B5044600256078002802D0012808D1E6
:1022900003E000201A49487005E001201849487001
:1022A00001E0002500BF00BF202015490870002074
:1022B000C870FF2048716178114881716068010E13
:1022C0000F48C17160680002010E0D480172A088BC
:1022D0000004010E0A484172217981720A21C172FB
:1022E0000173417381733321C173FFF7C7FB00286A
:1022F00003D104A0FEF732FB0125284670BD000083
:10230000290400203C2D2D2D204F4B0D0A000000EC
:1023100070B5044600252046FFF70CFB002801D1CC
:10232000012500E00025284670BD0000002004497A
:10233000086248628862034908624862886270479E
:1023400090010020E402002070B504460D462F489D
:10235000806A082857D22E48007801280ED12D48CF
:102360000078202801DD002070BD2A480078274928
:10237000096A8900254A5158087012E024484078BB
:10238000002806D12149096A8900204A515808705D
:1023900007E01F48C07C1D49096A89001B4A515843
:1023A00008701A49096A8900184B59580A78194661
:1023B000096A89005958481D1649891CFDF7A6FE6F
:1023C0001248006A80001149085844701248806819
:1023D00040B2096A89000D4A515888701046006A57
:1023E00080001146085805710846006A401C0862C2
:1023F000082801D3002008620448806A401C034971
:1024000088620120B0E70020AEE70000E40200206F
:1024100050000020320300204015004010B501207C
:10242000534908605348406A80005249085852494D
:10243000086052480078002802D0012875D128E0B1
:102440004D49096808784E49096888474A48006834
:1024500000794C49087000204870474800680278AD
:1024600045480168491D4748801CFDF74FFEFF2085
:102470001C30454908601120444948603F48C089E4
:1024800043490860434844490860022043490870B2
:102490004CE039480068C078002803D03748007DF8
:1024A000002801D1012000E00020044632480068E5
:1024B0000078344908703048006800794006000E02
:1024C0004870084640780121614008432D49487012
:1024D00029480068027828480168491D2948801C5D
:1024E000FDF714FE002C11D0FF201C302649086097
:1024F0001120264948602148C0892549086025489F
:10250000254908600220254908700CE0FF2014309E
:102510001D49086010201D49486021481E49086077
:1025200001201E49087001E0FFE700BF00BF12480C
:10253000006840781B49C8620F4800684178012054
:102540008840184908631848C07C88600D48486076
:102550000120FDF7EFFF0120FEF714F800201349DA
:1025600048608860086101201149086010BD0000C2
:1025700030000020900100200C00002050000020BE
:102580004000002010030020001200400013004013
:102590002C000020351E000038000020090000201B
:1025A000D51E00000015004014000020001100405E
:1025B000001000400420044908610020886003489E
:1025C000034908607047000000A5004002020000B7
:1025D00000A2004010B50C48806A002812D00120EB
:1025E000FDF7BCFF0848806A401E0749886208461C
:1025F000406A401C4862082801D30020486201203C
:10260000FDF7C0FF10BD00009001002010B504468A
:10261000E007C00F002804D00F48FEF722FD0F4945
:10262000C86102202040002805D00B48001DFEF79D
:1026300018FD0A4908620420204000280BD00648F3
:102640000830FEF741FD0549486203480C30FEF7AB
:102650003BFD0249886210BD1400002000150040B7
:102660001048007A104908610E48007A00280AD004
:10267000012804D002280AD0032810D10BE0302012
:102680000A4908600CE040200849086008E0FA2088
:102690000649086004E040200449086000E000BFEB
:1026A00000BF70475000002000150040340000209B
:1026B0000B48407A0B4948630948407A022804D104
:1026C0000948C8630948886309E00548407A012839
:1026D00005D1FF200349C863FF2008308863704795
:1026E0005000002000150040FFFF000021100100F5
:1026F00010B500F02BF8FFF7B3FF00F00DF8FFF76F
:10270000D7FF0349C87C03490968884710BD00000A
:10271000500000204000002008480078002805D024
:10272000012807D106480749086004E00648054922
:10273000086000E000BF00BF7047000050000020AC
:102740008D27000040000020612700000248807AA9
:102750000249C8607047000050000020001500408A
:102760000749084A51610849497C491E0904012268
:1027700012061143020211430143024A916170475C
:102780000001010000150040140000200146074828
:10279000074A50610748407C401E0004012212068F
:1027A00010432030024A9061704700000600030089
:1027B0000015004014000020121310110100000049
:1027C0000000000001020000FA00030000010220E6
:1027D00000000000F427000000000020500000006E
:1027E000C40B00004428000050000020400C0000F2
:1027F000D40B0000000000000024F40000000000E2
:102800000000000000000000E7E7E7E7C2C2C2C224
:10281000E7C2C3C4C5C6C7C80805FF020000000060
:1028200000000000000000000000000000000000A8
:102830000000000000000000000000000000000098
:042840000005375FF9
:04000005000000C136
:00000001FF
