:020000040000FA
:10000000980C0020D5000000EF000000F100000077
:1000100000000000000000000000000000000000E0
:10002000000000000000000000000000F3000000DD
:100030000000000000000000F5000000F7000000D4
:10004000F9000000B1060000E90A0000F900000014
:10005000F900000000000000F9000000F9000000B5
:10006000A9090000F9000000F9000000F9000000F3
:10007000F9000000F9000000F9000000F90000009C
:10008000F9000000F9000000F9000000F90000008C
:1000900031070000F9000000F9000000F90000003D
:1000A000F9000000F900000000000000000000005E
:1000B0000000000000000000000000000000000040
:1000C0000348854600F092F800480047811200007E
:1000D000980C00200321094802680A43026008487E
:1000E00002680A4302600748804707480047FEE766
:1000F000FEE7FEE7FEE7FEE7FEE70000240500401E
:100100005405004045090000C100000003460B43B0
:100110009B0703D009E008C9121F08C0042AFAD2BD
:1001200003E00B780370401C491C521EF9D2704743
:10013000D2B201E00270401C491EFBD2704700227F
:10014000F6E710B513460A4604461946FFF7F0FFD6
:10015000204610BD30B505462A460B4610781C785F
:10016000521C5B1C002801D0A042F7D0002C03D009
:10017000002802D06D1CEFE7284630BD421C0178F4
:10018000401C0029FBD1801A7047F0B51FB4064609
:10019000002082B005464024019100901BE00199A7
:1001A00022460F46304600F043F8049A059B801A19
:1001B000994110D310461946224600F029F8361A04
:1001C0008F410197224601200021009F00F020F876
:1001D00038184D4100902046641E0028DFDC019B4A
:1001E00000982946324607B0F0BD0000064C0125B4
:1001F000064E05E0E36807CC2B430C3C98471034CF
:10020000B442F7D3FFF760FFF0260000102700008C
:1002100010B5202A04DB0146203A9140002010BD91
:10022000914020239C1A0346E3401943904010BD9F
:1002300010B5202A04DB0846203AD040002110BD2A
:100240000B46D340D0402024A21A914008431946BF
:1002500010BD000070B50446002501200949086062
:100260000948007800280AD0012048602146074844
:10027000FFF770FF002801D0012500E00025284687
:1002800070BD0000002000404A000020CA0300208A
:1002900010B540210448FFF752FF002003490870C1
:1002A0000349087010BD0000CA0300204A00002066
:1002B0004900002030B5A1B0044600251748407918
:1002C00020701648807960701448C0790006134980
:1002D000097A090408431149497A090208430F4978
:1002E000897A084360606078002810D10CA000F083
:1002F00003FB11A101A8626800F032FC01A800F024
:10030000FBFA802101A8FFF71AFF012503E012A0E4
:1003100000F0F2FA0025284621B030BD0C04002080
:1003200044454255473A20416464206E6577206415
:1003300065766963650D0A00424F4E442C5459504E
:10034000453A4745524B4F4E2C49443A3078252E7A
:1003500038582C0D0A00000044454255473A2055B4
:100360006E6B6E6F776E2064657669636520747955
:100370007065210D0A000000F0B5A3B0044600200E
:100380002290002739484079207038488079607081
:100390003648C07900063549097A090408433349CB
:1003A000497A090208433149897A084360602F4835
:1003B000C07A00062D49097B090408432B49497B73
:1003C000090208432949897B08430190284901987B
:1003D000884243D1607800283BD12448C07B00028A
:1003E0002249097C0843A0812048407CA0731F4813
:1003F000807CE0731D48C07C2074227C1B49143132
:1004000020461130FFF782FE657C802102A8FFF7AD
:1004100096FE18A102A8626800F0A2FB02A8FFF7EE
:10042000ADFE02A94618A2892B4619A1304600F05C
:1004300097FB02A8FFF7A2FE02A94618E37BA27B66
:1004400018A1304600F08CFB02A800F055FA0127F5
:1004500008E019A000F050FA002703E01DA000F00A
:100460004BFA0027384623B0F0BD00000C040020F2
:100470004A3A2A0A54454C452C545950453A474566
:10048000524B4F4E2C49443A3078252E38582C0088
:10049000564241543A25642C53544154453A2564FC
:1004A0002C000000465245513A25642C4C4F5354C1
:1004B0003A25642C0D0A000044454255473A205520
:1004C0006E6B6E6F776E2064657669636520494454
:1004D000210D0A0044454255473A20556E6B6E6F18
:1004E000776E20676174657761792773206D657316
:1004F00073616765210D0A00C206D20E0121914089
:10050000014A11607047000080E200E0C206D20E8E
:1005100001219140014A11607047000080E100E034
:10052000C206D20E01219140014A116070470000BD
:1005300000E100E0C206D20E01219140014A1160A3
:100540007047000000E200E010B5002819DA1A4AEE
:1005500003071B0F083B9B089B00D2588307DC0E48
:10056000FF23A3409A438B071B0E8407E40EA3408E
:100570001A43114B0407240F083CA408A4001A5185
:1005800018E00E4A03231B02D21883089B00D2589E
:100590008307DC0EFF23A3409A438B071B0E8407BF
:1005A000E40EA3401A43054B032424021B198408BC
:1005B000A4001A5110BD00001CED00E000E100E0B5
:1005C00010B5002819DA1A4A03071B0F083B9B08CD
:1005D0009B00D2588307DC0EFF23A3409A438B076E
:1005E0001B0E8407E40EA3401A43114B0407240F8B
:1005F000083CA408A4001A5118E00E4A03231B0269
:10060000D21883089B00D2588307DC0EFF23A34037
:100610009A438B071B0E8407E40EA3401A43054B35
:10062000032424021B198408A4001A5110BD0000E1
:100630001CED00E000E100E010B5002819DA1A4ACC
:1006400003071B0F083B9B089B00D2588307DC0E57
:10065000FF23A3409A438B071B0E8407E40EA3409D
:100660001A43114B0407240F083CA408A4001A5194
:1006700018E00E4A03231B02D21883089B00D258AD
:100680008307DC0EFF23A3409A438B071B0E8407CE
:10069000E40EA3401A43054B032424021B198408CB
:1006A000A4001A5110BD00001CED00E000E100E0C4
:1006B00010B51B480068002808D01A484068C007D9
:1006C000C00F002802D00020154908601448C068F7
:1006D00000280FD01348406808210840002809D09E
:1006E00000200F49C86010480068002802D00E485A
:1006F000006880470A48006900280FD00948406810
:1007000010210840002809D0002005490861074849
:100710000068002802D005480068804710BD00002E
:100720000011004000130040400000203C00002069
:100730003EB519480068019002A800F07DFF04460C
:10074000002C27D115480068002823D00298C00744
:10075000C00F002806D000206946087068460F497F
:1007600009688847022102980840002806D0012025
:100770006946087068460949096888470421029853
:100780000840002806D002206946087068460349E0
:10079000096888473EBD0000340000201400002096
:1007A00010B504460B20424948610920C86000206A
:1007B0003F494031C862E1210902601A8C4245D0AC
:1007C00015DC3C49601A8C4234D009DC3A48201AC6
:1007D00022D03949401A24D04900401A4FD125E08F
:1007E0003449401A2AD04900401A48D12AE0334AF5
:1007F000811A904236D006DC3149401A2AD049008D
:10080000401A3CD12AE0E120C002081A2ED02D491E
:100810004018002833D12DE04F20000324494862BE
:100820002DE09D2000032249486228E02648204907
:10083000486224E025481E49486220E024481C49BB
:1008400048621CE023481A49486218E022481849C7
:10085000486214E021481649486210E020481449D3
:1008600048620CE01F481249486208E01E481049DF
:10087000486204E0012000070D49486200BF00BF44
:100880000020C04319498860042048600849086076
:10089000022001218140164A116000BF0321FFF7A9
:1008A000CBFE022001218140124A116000BF10BD21
:1008B0000025004080250000B0040000002706004D
:1008C00000E10000C0CDFEFF00B013000050270083
:1008D00000A04E0000509D0000F0EB0000E0D701AA
:1008E00000B0AF0300705F0700D0BE0E00230040D1
:1008F00080E200E000E100E010B50346002404E0DF
:10090000185D00F007F8601C84B2185D0028F7D16C
:1009100010BD00000121084A91600849C86100BF6C
:100920000749C9690029FBD00021054AD16101218D
:10093000014AD160704700000020004000250040BF
:100940000021004010B500F03BFC002805D0104805
:1009500010494860C8131049886100F015FC002850
:1009600002D001200D49886000F060FC00280ED004
:100970000B480068012807D00A480949086000BFF1
:10098000074800680128FBD1C0200549486110BD17
:10099000DFFF07C000050040006C0040000600407B
:1009A00000EC06407593000010B52F480068012840
:1009B00059D100202C49086001202C494860C860AA
:1009C0002B480068401C2A490860084600684628F1
:1009D00046D1152000BF030719461B15CB185A68CE
:1009E000012383409343052424020C19A3600123AF
:1009F00083401340052424020C19E36000BF00204B
:100A00001B4908601B480078401C1A4908700846BA
:100A10000078012808D1184800781849087008465D
:100A2000007801F0D5FA1BE012480078022808D1BE
:100A300013480078114908700846007801F0C8FA98
:100A40000EE00C48007803280ADB0E4800780B49BA
:100A500008700846007801F0BBFA002005490870CC
:100A600001200249086010BD408100400080004024
:100A7000000000200400002052000020510000204F
:100A8000530000205400002010B5082001218140AF
:100A9000114A116000BF012010494860C860002061
:100AA0000F494860032088600A20086110200C4923
:100AB0004031086000030B49486003210820FFF71C
:100AC00043FD082001218140034A803A116000BFA4
:100AD00001200249086010BD80E100E00080004074
:100AE00000850040008300401748806801282AD113
:100AF0000020154988601548806915490870154817
:100B000001780078401C134A1070402902DD002053
:100B1000114608700E4800780A280AD00C4801785F
:100B20000C480078401E0C4A115400200B490870F4
:100B300009E00748017807480078401E064A11542A
:100B40000120064908707047002100400025004040
:100B50004800002049000020CA0300204A0000206D
:100B60000FB410B504A9074B02AA039800F01CF8B3
:100B7000044602A9002000F051FA204610BC08BC2F
:100B800004B018471D10000002E008C8121F08C179
:100B9000002AFAD170477047002001E001C1121FFE
:100BA000002AFBD170470000FFB591B00F46054603
:100BB000002606E025280AD0149A139990476D1C48
:100BC000761C28780028F5D1304615B0F0BD0024F9
:100BD00000940121F34A029400E004436D1C2B7839
:100BE0000846203B98401042F7D128782A280ED09A
:100BF000022128780246303A092A15D8009A0A2399
:100C00005A43303A80180C436D1C0090F1E701CF35
:100C10000090002805DA0120400304430098404278
:100C20000090022004436D1C28782E2815D1042042
:100C3000044368786D1C2A280AD101CF6D1C0290EC
:100C40000BE002990A225143303940186D1C029082
:100C50002878014630390929F3D928786C2810D032
:100C600006DC4C281AD068280ED06A2817D104E078
:100C7000742813D07A2812D110E0012040050443D3
:100C80000CE00121090501E0032109050C43697805
:100C9000814203D10120000524186D1C6D1C2878A9
:100CA00003906E281ED00CDC632831D004DC0028B1
:100CB0008AD0582811D1B2E064287BD069280CD1A1
:100CC00078E073282DD004DC6F2870D0702804D110
:100CD000A7E075286CD078286BD0149A13999047A8
:100CE000761C62E06002400F022807D003280AD079
:100CF000042838680AD006603F1D56E03868F117AE
:100D000006604160F8E738680680F5E70670F3E7AB
:100D10003878694608740020487404A803900120BC
:100D200003E0386803900020C0433F1D61070FD5E2
:100D3000002101E00199491C029A0191914213DAC4
:100D40008142F7DB019A0399895C0029F2D10BE01B
:100D5000002101E00199491C01918142FADB019ACD
:100D60000399895C0029F5D101990098139A401ADA
:100D700000902146149B00F03BF901998019461818
:100D800007E0039803990078491C0391149A13997A
:100D900090470198401E0190401CF2D12146149BBF
:100DA000139A009800F014F986196D1C09E741E0C8
:100DB00033E034E00A200021049005916002410FE5
:100DC000022905D001CFC2179446032905D007E0B8
:100DD000FF1DFF08FF0003CF06E000B2C2179446D4
:100DE000042902D140B2C1178C46002261469445C5
:100DF00006DA0A460021404291418C462D2102E04C
:100E0000210504D52B216A461176012103E0E10773
:100E100001D02021F7E7019154E00A200BE01020D7
:100E200009E01020049000210420044308200591CB
:100E3000029003E008200021059104906002410F18
:100E4000022905D001CF00229446032906D006E0EE
:100E5000FF1DFF08FF0003CF8C4603E080B204298A
:100E600000D1C0B20021019121072BD5039970292F
:100E700006D0049A1021059B4A401A4305D00EE083
:100E800040216A461176012108E06146014306D0FF
:100E900030216A4611760399517602210191049A14
:100EA0000821059B4A401A430CD16146014301D1F8
:100EB000610707D530216A46117601210191029917
:100EC000491E02910399582904D037A103910FA913
:100ED0000F910DE039A1F9E76146059B049AFFF7F0
:100EE00054F9039B8C469B5C0F9A521E0F92137011
:100EF00061460143F0D10F9807A9081A20300390EA
:100F0000600704D5012000048443029801E0012019
:100F100002900399884201DD401A00E00020411848
:100F20000290019809180098401A0090E00306D436
:100F30002146149B139A009800F05AF88619002055
:100F4000049008E006A9085C149A13999047049845
:100F5000401C761C049001998842F3DBE0030CD519
:100F60002146149B139A009800F042F8861904E079
:100F7000149A302013999047761C0299481E0290CB
:100F80000029F5DC08E00F980F990078491C0F91B3
:100F9000149A13999047761C0399481E03900029D0
:100FA000F1DCFBE6092801003031323334353637C5
:100FB00038396162636465660000000030313233A5
:100FC0003435363738394142434445460000000045
:100FD000F8B5044600251E461746880404D405E0EB
:100FE00039462020B0476D1C641EF9D52846F8BD4F
:100FF000FFB50446002581B01E46C80301D5302741
:1010000000E02027880404D505E038460399B0475E
:101010006D1C641EF9D5284605B0F0BD0A68531C46
:101020000B601070704710B50446204600F002F8BF
:1010300000BA10BD014608680D4A024012090C4B67
:10104000DB4303401B011A4310460A4A0240920840
:10105000084BDB4303409B001A431046064A0240FC
:101060005208054BDB4303405B001A4310467047B0
:10107000F0F0F0F0CCCCCCCCAAAAAAAA10B5FF20F4
:101080001430104908601049C87C10490968884725
:101090000F481049486000200F49086101200F499E
:1010A000086100BF0C4800690028FBD000200A49F5
:1010B0000861FF2018300349086001200749486093
:1010C00010BD000000120040580000204400002025
:1010D0003A030020001500400011004000100040BD
:1010E00000200549086001208107086000BF024810
:1010F00000680028FBD0704700010040FEB50120C9
:101100000E494860152001210A46002301930293ED
:1011100000BF0407009454000C439D002C43019D24
:101120002D022C43029D2D042C43860007273F02ED
:10113000009DED19AC5100BF00BFFEBD4005004051
:1011400010B501F083F8002007E0252141430A4A49
:1011500089188200094B9950401C0828F5DB0020B3
:1011600007E025214143064A89188200054B995022
:10117000401C0828F5DB10BD7000002098010020FD
:10118000C4010020EC0200200C48008CC0B20128F1
:1011900012D10A48808C0007000F00280CD10748A4
:1011A000806AF0210840402806D10448C06A0840FF
:1011B000002801D1012070470020FCE7C00F00F09B
:1011C0001948008CC0B201282CD11748808C000728
:1011D000000F002826D11448806AF021084000281A
:1011E00006D11148C06A0840002801D1012070478B
:1011F0000D48806AF0210840102806D10A48C06ACC
:101200000840002801D10120F1E70748806AF02159
:101210000840302806D10448C06A0840002801D19F
:101220000120E4E70020E2E7C00F00F01348008C43
:10123000C0B201281FD11148808C0007000F002880
:1012400019D10E48806AF0210840A02806D10B4829
:10125000C06A0840002801D1012070470748806A11
:10126000F0210840D02806D10448C06A0840002870
:1012700001D10120F1E70020EFE70000C00F00F0EE
:10128000FFF73CFFFFF72CFFE1204002FFF788FA51
:1012900000BF69A0FEF7DEFF0028FAD0FEF7F8FFD6
:1012A0006748007867490870002000F09DFE654897
:1012B000007800F0BBFF012000F01EFFFFF7E4FB09
:1012C00061A0FFF719FBB5E066A0FEF7C3FF002899
:1012D00012D0FEF7DDFF65A0FFF70EFB642000F0E3
:1012E000E3F800BFBFF34F8F66486749C860BFF39C
:1012F0004F8F00BF00BFFEE76448007800283CD055
:1013000062B60020614908706148007801282BD13D
:1013100000205F4908705F48FEF7CCFF002823D00B
:10132000152000F0E9FBFA2000F0BEF8152000F0CF
:10133000D7FB642000F0B8F8152000F0DDFBFA20A0
:1013400000F0B2F8152000F0CBFB642000F0ACF800
:10135000152000F0D1FBFA2000F0A6F8152000F0CF
:10136000BFFB642000F0A0F8002000F03DFE01204B
:1013700000F0C2FE01204849086048480078002873
:101380000BD062B600204549087000F02DFE012008
:1013900000F0B2FE01204049086041480078002872
:1013A00048D062B600203E49087001203A494860A2
:1013B000002000F0A1FE152000F092FB3948407893
:1013C000002831D137484079FF280CD13548C07A00
:1013D000342808D101202E49087000F005FE2D4860
:1013E00000F0A0FE26E02F484079002815D12948BA
:1013F000FEF7C2FF002806D0012000F0F5FD2548C9
:1014000000F0D2FE16E0002000F0EEFD012000F01A
:1014100073FE0120204908600CE0012000F06CFE02
:1014200001201D49086005E0012000F065FE012053
:101430001949086048E70000737461727400000085
:10144000520000205100002044454255473A2047B1
:101450006174657761792073746172746564210DBC
:101460000A0000007265626F6F74000044454255C7
:10147000473A205265626F6F74696E672E2E2E0D8B
:101480000A0000000400FA0500ED00E04F00002013
:101490004C0000207004002000800040500000201C
:1014A0004E0000200C0400207D22D2000146514352
:1014B000002900D116E000BF00BF00BF00BF00BF81
:1014C00000BF00BF00BF00BF074A1268074B9A4227
:1014D00000D101E000BF00BF0A46013A114600D02A
:1014E000EAE700BF70470000080000200024F40075
:1014F00010B50F2080020B49886000200A4908704F
:1015000000F0A4FE24210948FEF719FE092108482D
:10151000FEF715FE1420FEF7F9FF032005490860C9
:10152000002010BD00F501400D00002066030020E2
:101530005C0300200012004010B5044672B620780B
:10154000002804D0012813D0022841D123E0102024
:101550002049087000E000BF1E4801780078401E56
:101560001C4A10700029F6D101201B4908702FE099
:1015700010201849087000E000BF16480178007874
:10158000401E144A10700029F6D10120134908703A
:1015900000F038F81CE010200E49087000E000BF91
:1015A0000C4801780078401E0A4A10700029F6D1D4
:1015B0000B4800F0C3F8002809D10948007800283A
:1015C00002DD01200749087007A0FFF795F900BF69
:1015D00000BF10BD550000204F000020500000202B
:1015E0000C0400204E00002044454255473A20524A
:1015F000582053554343455353204556454E540DAB
:101600000A00000010B500BF09480078002801D189
:10161000082010BD00BF0120FEF778FF002005491B
:101620008862086248620120FEF77AFF0020F0E736
:101630000C0000209801002010B5044600BF0D48A2
:101640000078002801D1082010BD00BF00BF002C89
:1016500001D10E20F8E700BF0120FEF757FF064832
:10166000006820600020044908600120FEF758FF50
:101670000020E9E70C0000202C00002070B5044693
:1016800000BF002C01D10E2070BD00BF1F480078A4
:10169000002806D0FFF72CFF0546002D01D0284674
:1016A000F2E71B4960680860182221461948FEF7D6
:1016B0002DFD00201849086024211848FEF73FFD41
:1016C00009211748FEF73BFD00F0A2FFFFF738FDA8
:1016D00000F000FF00F04AFC0E48407C8107890FB3
:1016E0000120FEF76DFF0B48807C8107890F1420D5
:1016F000FEF766FF1420FEF713FF0020094908706B
:101700000120024908700020BEE700000C00002004
:1017100014000020580000202C0000206603002048
:101720005C0300200D00002003480078002801D150
:10173000012070470020FCE70D00002010B5044692
:1017400000BF26480078002801D1082010BD00BF46
:1017500000BF002C01D10E20F8E700BF2048806AAE
:10176000002801D10520F1E70120FEF7CFFE1C483B
:10177000406A80001A490858007820700846406A7C
:1017800080000858407860700846406A8000085819
:101790008078A0700846406A80000858007920715F
:1017A00022780846406A80000B461858411D601D8B
:1017B000FEF7ACFC0A48406A401C09494862082808
:1017C00001D3002048620648806A401E04498862AE
:1017D0000120FEF7A5FE0020B8E700000C00002065
:1017E000EC02002010B5044600BF0B48007800282A
:1017F00001D0112010BD00BF00BF002C01D10E2070
:10180000F8E700BF042221460448FEF77FFC0120D0
:1018100000F08CFE0020EDE70D00002018000020F5
:1018200010B5044600BF0B480078002801D01120F5
:1018300010BD00BF00BF002C01D10E20F8E700BF93
:10184000042221460448FEF761FC022000F06EFEEF
:101850000020EDE70D0000201C00002070B50546BB
:101860000C4600BF13480078002801D0112070BD3D
:1018700000BF00BF002D01D10E20F8E700BF00BF60
:10188000092C01DB0720F2E700BF224629460A485F
:10189000FEF73CFC0848083804740820011BFF20B0
:1018A0000841054908398874042000F03FFE0020F3
:1018B000DDE700000D00002020000020014600BFF1
:1018C00008480078002801D01120704700BF00BFF1
:1018D0007D2901D90720F8E700BF034AD174002011
:1018E000F3E700000D0000201800002010B500BF35
:1018F00019480078002801D0112010BD00BF002039
:10190000C0431649886000201549086115481649EA
:101910000860FF2018301549086010200F49486002
:1019200004200D4908701248807C12490863104851
:10193000C07C8860104848600120FEF7DDFD012072
:10194000FEF7EEFD0020064948608860086101202E
:101950000A4948600020D0E70D0000200013004035
:1019600000110040111B00003C000020001200404C
:1019700018000020001500403A030020001000402D
:101980000E480078042816D100200D490860401E3A
:101990000C49886000200C4908600C49086101204E
:1019A0000B49086100BF094800690028FBD00020EE
:1019B000024908707047FF200230FBE70D0000204D
:1019C00000120040001300403C00002000110040C5
:1019D0000010004010B5044600BF3C4800780028C5
:1019E00001D1082010BD00BF00BF002C01D10E2086
:1019F000F8E700BF00BF207800280BD0207820280F
:101A000008DC33480078002806D120783049C97CAA
:101A1000884201DD0920E5E700BF00BF2D48806A4C
:101A2000082801D30420DDE700BF294840780028BA
:101A300008D1E078002805D02548007D002801D194
:101A40000620CFE70120FEF761FD2249096A8900DF
:101A5000204A505825222146FEF758FB61781E4A3D
:101A6000515C481CC117890F091889108900411A57
:101A70006278194B995460781946085C1549096ACF
:101A80008900144A515808711046006A401C1146DA
:101A90000862082801D3002008620E48806A401CB2
:101AA0000C4988620120FEF73BFD09484078002878
:101AB00009D10748007C002805D108480078002893
:101AC00001D100F03BFC00208CE700000C0000205E
:101AD00058000020980100205C0300200D00002029
:101AE00000BF052109070A460121814005231B0289
:101AF000D318D96000BF704700BF052109070A4607
:101B00000121814005231B02D318996000BF704753
:101B1000F8B500250026012760480068002802D19A
:101B2000FFF7ACFAF8BD5E48806A082802D3FFF7D9
:101B3000A5FAF7E75948806880005A494418574881
:101B4000C0682188884207D1574840784010A17862
:101B5000884201D101260027534840784010A070E8
:101B60004E48C06820805148007D002805D04E486E
:101B70004078C007C00F002800D10125002D75D086
:101B8000FF201C304A49086048480078002853D09C
:101B900001285CD14748806A002840D04548406A07
:101BA00080004449085840783C498968884236D1C9
:101BB000E078012815D1002E13D13E48406A401C20
:101BC0003C494862082801D3002048623948806AAD
:101BD000401E384988623848006801210843364968
:101BE00008600120E0703348406A8000314908589D
:101BF00032490860096808783149096888472F48E0
:101C0000006800782F4908702C48006802782B483B
:101C10000168491D2B48801CFEF778FA07E0002078
:101C2000E0702749096888470020264908701E4847
:101C30004078244948700AE0002021490968884713
:101C4000194800781F4908700020487000BF00BF85
:101C500005201D490870114880681C49C862194850
:101C600048601B481B49086002E0FFE7FFF706FADF
:101C7000002F10D0A178094A9268D0B200F0F4FA8F
:101C8000002808D00C480068042108430A4908606D
:101C90001420FEF74FFC00BF44E700000014004092
:101CA000EC020020660300203A03002058000020C8
:101CB00000120040980100202C000020100000209D
:101CC00044000020180300200D00002000150040F3
:101CD000D91C00003C00002010B5FF201830084936
:101CE00008600849C87C08490968884707480849C6
:101CF000486008480849086004200849087010BD79
:101D00000012004058000020440000203A03002048
:101D100000150040111B00003C0000200D000020B9
:101D200010B5FF2014301849086018480068184999
:101D3000086018488089823817491522920189184D
:101D4000486001201449C86000201449086000213F
:101D50001248416007208002114948604814886099
:101D600000201049C8600B480078002802D10E49B5
:101D7000096888470D480E4948600E480E490860BA
:101D800003200E49087010BD0012004038000020EA
:101D900040A500405800002000A0004040A10040A5
:101DA00000F5014000110040440000203A030020EB
:101DB00000150040011E00003C0000200D00002026
:101DC00010B50C480068012108430A49086000F07A
:101DD00091FB0948806A002805D108490870142041
:101DE000FEF7A8FB04E01420FEF7A4FB00F0A6FA1F
:101DF00010BD00002C000020980100200D000020E4
:101E000010B507208002454988604548C068002811
:101E100044D044480068002840D00120424948602E
:101E200040033E49886041480068012108433F491A
:101E300008603F48C0893F490968401A401C3E4934
:101E4000086000F057FB3A480078002811D03B4862
:101E5000007800280DDD3A49C96AC8B2002100F0B7
:101E600003FA002805D031480068042108432F49AF
:101E700008603448806A002803D02D48007C01287F
:101E800006D10020304908701420FEF753FB44E0CF
:101E90001420FEF74FFB00F051FA3EE02549086898
:101EA000411E244A1160002817D101201E494860B4
:101EB00040031A4988601E48C089401C1E490860BA
:101EC0001A480068022108431849086000201E498A
:101ED00008701420FEF72EFB1FE0FF201C301B496A
:101EE00008601B49096808781A49096888471A4830
:101EF0001349486019481A490860022012490870BD
:101F000001200949086040030449486015484068B9
:101F1000002802D001201449086010BD00F50140DE
:101F2000001100400014004000A000402C000020E0
:101F30005800002030000020340000203A03002028
:101F400000150040980100200D0000200012004004
:101F5000100000204400002018030020211D000074
:101F60003C00002040A100400010004013481449EC
:101F700051221201891808651249114880184165DB
:101F80000E48001D0E49891888650E49091D0C4828
:101F90008018C1650C480A49891808660749F03954
:101FA0000748801841660848001D05498918886659
:101FB000064903488018C1667047000000110040C0
:101FC00000F0014000A0004040A10040001000408F
:101FD00010B50446002000F08FF8204600F026F9E6
:101FE000012000F089F810BD30B58BB00446002503
:101FF00001203749C863FFF797FB002801D1FFF79D
:1020000077FA00BFFFF790FB0028FBD031A00068F3
:102010000A9031A00068099030A103C90891079087
:102020001822304901A8FEF771F8002C03D10120D5
:102030006946487104E0012C02D1002069464871CC
:10204000042168468173022101730121017102217B
:102050004173254802900621684641822349018246
:102060000021017601A8FFF709FB00280BD10AA87F
:10207000FFF7B8FB09A8FFF7D3FB082107A8FFF774
:10208000EDFB012500E0002501207D22D200014664
:102090005143002900D116E000BF00BF00BF00BFC0
:1020A00000BF00BF00BF00BF00BF114A1268114B44
:1020B0009A4200D101E000BF00BF0A46013A114632
:1020C00000D0EAE700BF00BF28460BB030BD0000DB
:1020D000C01F0040E7E7E7E7C2C2C2C2E7C2C3C40D
:1020E000C5C6C7C8D826000039150000EE0200009A
:1020F000080000200024F40070B505460026012DDC
:1021000003D1FFF7F3FB044604E0002D02D1FFF7F3
:1021100037FC0446002C01D1012600E000263046A1
:1021200070BD000070B5044600256078002802D01C
:10213000012808D103E000201A49487005E0012079
:102140001849487001E0002500BF00BF0020154974
:10215000C87020200870FF20487161781148817193
:102160006068010E0F48C17160680002010E0D48E1
:102170000172A0880004010E0A484172217981721F
:102180000A21C1722A2101733A2141734A218173C4
:102190003221C173FFF71EFC002800D1012528461B
:1021A00070BD00003104002070B504460025607841
:1021B000002802D0012808D103E000201A49487005
:1021C00005E001201849487001E0002500BF00BF6C
:1021D0002020154908700020C870FF2048716178E0
:1021E000114881716068010E0F48C171606800027A
:1021F000010E0D480172A0880004010E0A484172C8
:10220000217981720A21C1722A2101733A21417315
:102210004A2181733321C173FFF7DCFB002800D111
:102220000125284670BD00003104002070B5044629
:1022300000257D2C06DC2046FFF740FB002801D15D
:10224000012500E00025284670BD0000002004495B
:10225000086248628862034908624862886270477F
:1022600098010020EC02002070B504460D462F486E
:10227000806A082857D22E48007801280ED12D48B0
:102280000078202801DD002070BD2A480078274909
:10229000096A8900254A5158087012E0244840789C
:1022A000002806D12149096A8900204A515808703E
:1022B00007E01F48C07C1D49096A89001B4A515824
:1022C00008701A49096A8900184B59580A78194642
:1022D000096A89005958481D1649891CFDF716FFDF
:1022E0001248006A800011490858447012488068FA
:1022F00040B2096A89000D4A515888701046006A38
:1023000080001146085805710846006A401C0862A2
:10231000082801D3002008620448806A401C034951
:1023200088620120B0E70020AEE70000EC02002048
:10233000580000203A0300204015004010B501204D
:10234000534908605348406A80005249085852492E
:10235000086052480078002802D0012875D128E092
:102360004D49096808784E49096888474A48006815
:1023700000794C490870002048704748006802788E
:1023800045480168491D4748801CFDF7BFFEFF20F6
:102390001C30454908601120444948603F48C089C5
:1023A0004349086043484449086002204349087093
:1023B0004CE039480068C078002803D03748007DD9
:1023C000002801D1012000E00020044632480068C6
:1023D0000078344908703048006800794006000EE3
:1023E0004870084640780121614008432D494870F3
:1023F00029480068027828480168491D2948801C3E
:10240000FDF784FE002C11D0FF201C302649086007
:102410001120264948602148C0892549086025487F
:10242000254908600220254908700CE0FF2014307F
:102430001D49086010201D49486021481E49086058
:1024400001201E49087001E0FFE700BF00BF1248ED
:10245000006840781B49C8620F4800684178012035
:102460008840184908631848C07C88600D48486057
:102470000120FEF741F80120FEF752F80020134931
:1024800048608860086101201149086010BD0000A3
:102490003400002098010020100000205800002087
:1024A00044000020180300200012004000130040E8
:1024B00030000020211D00003C0000200D00002005
:1024C000C11D000000150040180000200011004050
:1024D000001000400420044908610020886003487F
:1024E000034908607047000000A500400202000098
:1024F00000A2004010B50C48806A002812D00120CC
:10250000FEF704F80848806A401E074988620846BA
:10251000406A401C4862082801D30020486201201C
:10252000FDF7FEFF10BD00009801002010B5044625
:10253000E007C00F002804D00F48FEF774FD0F49D4
:10254000C86102202040002805D00B48001DFEF77E
:102550006AFD0A4908620420204000280BD0064882
:102560000830FEF767FD0549486203480C30FEF766
:1025700061FD0249886210BD18000020001500406E
:102580001048007A104908610E48007A00280AD0E5
:10259000012804D002280AD0032810D10BE03020F3
:1025A0000A4908600CE040200849086008E0FA2069
:1025B0000649086004E040200449086000E000BFCC
:1025C00000BF704758000020001500403800002070
:1025D0000B48407A0B4948630948407A022804D1E5
:1025E0000948C8630948886309E00548407A01281A
:1025F00005D1FF200349C863FF2008308863704776
:102600005800002000150040FFFF000021100100CD
:1026100010B500F02BF8FFF7B3FF00F00DF8FFF74F
:10262000D7FF0349C87C03490968884710BD0000EB
:10263000580000204400002008480078002805D0F9
:10264000012807D106480749086004E00648054903
:10265000086000E000BF00BF704700005800002085
:10266000AD26000044000020812600000248807A48
:102670000249C86070470000580000200015004063
:102680000749084A51610849497C491E0904012249
:1026900012061143020211430143024A916170473D
:1026A0000001010000150040180000200146074805
:1026B000074A50610748407C401E00040122120670
:1026C00010432030024A906170470000060003006A
:1026D000001500401800002001000000000000006C
:1026E00001020000FA0003000001022000000000C7
:1026F000102700000000002058000000880B000098
:102700006827000058000020400C0000980B0000D3
:1027100000000000000000000024F40000000000A1
:102720000000000000000000E7E7E7E7C2C2C2C205
:10273000E7C2C3C4C5C6C7C80805FF020000000041
:102740000000000000000000000000000000000089
:102750000000000000000000000000000000000079
:08276000000005375F000000D6
:04000005000000C136
:00000001FF
